:0400000081EF00F09C
:10000800D67AD67AD67AD67A4000D67A4000D67A88
:10001800D67AD67AD67AD67AD67AD67AD67AD67A58
:10002800D67A400040004000D67AD67AD67AD67A78
:10003800D67AD67AD67AD67AD67AD67AD67AD67A38
:10004800D67AD67AD67AD67A40004000D67AD67A48
:10005800D67AD67AD67A4000D67AD67AD67AD67A28
:10006800D67AD67AD67AD67AD67AD67AD67AD67A08
:10007800D67AD67AD67AD67A40008D52D67AD67A79
:10008800D67AD67AD67AD67AD67AD67AD67AD67AE8
:10009800D67AD67AD67AD67A4000D67A4000400008
:1000A800D67AD67AD67AD67AD67AD67AD67AD67AC8
:1000B800D67AD67AD67AD67AD67AD67AD67AD67AB8
:1000C800D67AD67AD67AD67AD67AD67AD67AD67AA8
:1000D800D67AD67AD67AD67AD67AD67AD67AD67A98
:1000E8004000D67AD67AD67A4000400040004000D8
:1000F800D67AD67AD67AD67AFF000EEFDEF0D5CA4F
:10010800D9FAD6CADAFA04D0D94BDA2BD74BD82B7E
:10011800D7CAF6F4D8CAF7F4000EF86ED9CAD9F4DB
:10012800DACADAF40800F5C4DFF4DF50D8B41200F4
:10013800EBD711511211D8B40CD0000E0201056F83
:10014800000E036FBE88BE84400EC96E000EC76ED7
:1001580012007F0EC96EC768C868010E0201056FDC
:10016800020E036F12008FCB91FB90CB92FB8FCBCB
:100178008BFB90CB8CFB000E0B018E6F000E8D6FEE
:1001880040ECFDF00B0120EE05F09151D92692517B
:10019800DA22DF50C86E1200D9CADBFADACADCFAF2
:1001A800D9CAD5FADACAD6FA000E0A01D86F000EF3
:1001B800D76F71EC03F00A0120EE05F0DB51D92668
:1001C800DC51DA22DF50C86E120015C617F616C6C3
:1001D80018F615C611F616C612F6000E0601146FAB
:1001E800000E136F79EC03F0060120EE05F01751AD
:1001F800D9261851DA22DF50C86E120007D011C66E
:10020800D9F412C6DAF4DE2A000EDD2211C6D9F4BA
:1002180012C6DAF4DEC413F6DDC414F613C6D9F434
:1002280014C6DAF4200EDE18D8A41200E8D743C8A2
:1002380045F844C846F843C83FF844C840F8000E9B
:100248000801426F000E416F49ECFCF0080120EEF6
:1002580005F04551D9264651DA22DF50C86E120002
:10026800E1CAD6FAE2CAD7FAE40ED86F0A0ED96FF5
:1002780089ECEBF0E36FE351D8A41200E1CAD9F49A
:10028800E2CADAF4000EDE6E000EDD6E12000B011B
:100298007C6F88EC03F07D6F7C517D19D8A40AD05F
:1002A8007A07D8A07B077BBF05D07B51F2E17A059E
:1002B800D8B0EFD77DCB7AFB7B6B120007013E6F7E
:1002C800A4EC03F03F6F3E513F19D8A40AD03C0775
:1002D800D8A03D073DBF05D03D51F2E13C05D8B05F
:1002E800EFD73FC73CF73D6B1200D5CADBFAD6CA39
:1002F800DCFA08D0DBCAD9F4DCCADAF4D7CADFF4EE
:10030800DB4BDC2BD907D8A0DA07D929F3E1DA29A6
:10031800D8B41200EFD70601166F010E0601156F4B
:100328007B0E166103D0610E166107D01651B7EC2B
:1003380002F0D8B002D0000E156F15C614F61431AD
:10034800120011C617F612C618F608D017C6D9F447
:1003580018C6DAF413C6DFF4174B182B1507D8A004
:1003680016071529F3E11629D8B41200EFD70601AC
:10037800136F010E0601126F200E1319D8B408D09E
:100388000E0E136103D0090E136102D0000E126F16
:1003980012C611F61131120011C615F612C616F65C
:1003A80015C6D9F416C6DAF413C6DFF4154B162BA6
:1003B80015C6D9F416C6DAF414C6DFF4154B162B95
:1003C8001200D5CAD9F4D6CADAF4D7CADFF4D54BA5
:1003D800D62BD8CAD7FAD86BD5CAD9F4D6CADAF484
:1003E800D7CADFF4D54BD62B12000A01D56F0A0104
:1003F800D551D8B402D0020E12000801B92907E17C
:10040800BA2905E1BB2903E1BC29D8B4F4D7000E09
:100418001200060111511303F3C415F6F4C416F6BD
:1004280011511403F350162712511303F3501627D2
:1004380015C611F616C612F6120011C6D9F412C660
:10044800DAF413C6DFF4114B122B14C613F6146B2F
:1004580011C6D9F412C6DAF413C6DFF4114B122B05
:10046800120007013B6939C71CF63AC71DF63B0E57
:1004780006011E6F070E1F6F000E216F010E206F01
:1004880075ECEEF007013B5112000B017969E9CADE
:100498006AFBEACA6BFB790E6C6F0B0E6D6F000E70
:1004A8006F6F010E6E6FD2ECF0F00B0179511200F4
:1004B800D551D703F3C4D9FAF4C4DAFAD551D8031D
:1004C800F350DA27D651D703F350DA27D9CAD5FA29
:1004D800DACAD6FA12000B017969E9CA6AFBEACAD4
:1004E8006BFB790E6C6F0B0E6D6F000E6F6F010E4C
:1004F8006E6F7DECF0F00B0179511200116F06015F
:100508001151D8B402D0020E12000801B92907E12E
:10051800BA2905E1BB2903E1BC29D8B4F4D7000EF8
:1005280012000A01D76F000E0A01D66F3A0ED76182
:1005380005D02F0ED76502D0010ED66FD6CAD5FAD0
:10054800D53112000601136F000E0601126F3A0E24
:10055800136105D02F0E136502D0010E126F12C65B
:1005680011F611311200136F000E0601126F5B0EA7
:10057800136105D0400E136502D0010E126F12C62A
:1005880011F6113112008CC5D5FA8DC5D6FADDCA1F
:10059800D7FADECAD8FADFCAD9FAE0CADAFA27ECFB
:1005A800EBF012008CC56AFB8DC56BFB79CB6CFB3D
:1005B8007ACB6DFB7BCB6EFB7CCB6FFB26ECF1F033
:1005C80012008CC56AFB8DC56BFB79CB6CFB7ACBB3
:1005D8006DFB7BCB6EFB7CCB6FFB7DECF0F01200F0
:1005E8008CC51CF68DC51DF639C71EF63AC71FF611
:1005F8003BC720F63CC721F67BECEFF012008CC518
:100608001CF68DC51DF639C71EF63AC71FF63BC73F
:1006180020F63CC721F675ECEEF01200060120EE3C
:1006280002F01151D9261251DA22DEC411F6DDC4C6
:1006380012F612000601116F7B0E0601116104D03B
:10064800600E116501D0119B11511200D7AE02D076
:100658009DEF03F00A01D56FB7A2FED7D5CAC9F23C
:1006680012008CC579FB8DC57AFB82CB7BFB83CBD3
:100678007CFB5CECF3F012008CC539F78DC53AF7BA
:1006880043C73BF744C73CF763ECF5F01200000E94
:100698000A01D56F000ED66F210ED76F000ED86FE6
:1006A8001200B2EC03F0000E0701446F010E436F15
:1006B80040EC03F012000008040C020A060E0109BF
:1006C800050D030B070F440996EC03F0000E836F2A
:1006D800010E826F35EC03F01200D751D811D8A45F
:1006E80002D0C2841200C294120013511411D8A46B
:1006F80002D0C2841200C29412008CC5D5FA8DC5EE
:10070800D6FABEEC03F012008CC5E9FA8DC5EAFAF8
:100718006FEC02F012008CC58FFB8DC590FB9CEC32
:10072800FCF012008CC58FFB8DC590FBB7EC00F078
:1007380012000601116FB7A2FED711C6C9F2120046
:100748008CC539F78DC53AF735EC02F012008CC527
:1007580043F88DC544F868ECFDF012008CC543F8E9
:100768008DC544F81BEC01F0120004012095C284E9
:10077800CA94120004012095C284CA941200FFFF93
:07078800010086FF5109FF8B
:0A07900005018E5112001D05CF0176
:10ED100000C3BF0000000000000000000000000071
:10ED200000000000000000000000000000000000E3
:10ED300000000000000000000000000000000000D3
:10ED400000000000000000000000000000000000C3
:10ED500000000000000000000000000000000000B3
:10ED600000000000000000000000000000000000A3
:10ED70000000000000000000000000000000000093
:10ED80000000000000000000000000000000000083
:10ED900000424F4F543A206572726F7220626F6F5B
:10EDA00074696E670D0A0043502F4D20322E3220B9
:10EDB000626F6F742D6C6F6164657220666F722074
:10EDC0005A38302D53696D756C61746F720D0A007D
:10EDD0002196007ED30123B7C2C2000101002100A9
:10EDE00000AFD30A78D30B79D30C7DD30F7CD3102B
:10EDF000AFD30DDB0EB7CA0000C630D3013E0DD332
:10EE0000013E0AD3012180007EB7CA0201D301234B
:10EE1000C3F700F376010000000800000040000086
:10EE2000000002000000100000008000000000044C
:10EE300000000020000000000100000008000000A9
:10EE400040010000000A00000064000000E8030028
:10EE50000010270000A086010040420F0080969815
:10EE60000000E1F50500CA9A3B6266F901436AFFBA
:10EE7000006334FB006468F80278C7FF027276FF13
:10EE80000053BDFF017361FE0068C2FF0001000076
:10EE90000010000000000100000010000000000150
:10EEA00000000010000000000100000010819FE041
:10EEB000FC407E80FC00000000E8FF020114F80026
:10EEC000026DFB000334FD0004A4FE00059EFE015C
:10EED0000603F9000790FF000871F90009FDF90029
:10EEE0000A7BF9000B2DFD000CC2FE000DBCFE01DB
:10EEF0000E6BFA000F95FF011075FC021114F8005B
:10EF000012D5F90013B2FD0014E6FE0015E0FE0173
:10EF1000160EF90017D4FF011864FF00191BFA0040
:10EF20001A85F9001BABFD001C04FF001DFEFE014D
:10EF30001E75FA001FD8FF01202BFB022138F802B2
:10EF40002287F7002337FE002422FF00251CFF0143
:10EF50002619F90027D0FF01286DFC002957FA0275
:10EF60002A25F7002B30FE002C40FF002D3AFF0130
:10EF70002E7FFA002FE4FF013022FB023150F8020D
:10EF800032AFF7003353FE0034DAFA0035D1FA011C
:10EF90003641F70037E0FF013865FC003961FA02BD
:10EFA0003AA2F7003B4CFE003C86FE003D80FE018D
:10EFB0003EF8F8003FDCFF0040D2FC004103FD00BA
:10EFC0004250FD004381FD0044D5FD004506FE0092
:10EFD0004699F90047A1FC0048D9FC00490AFD0008
:10EFE0004A57FD004B88FD004CDCFD004D0DFE0036
:10EFF0004EA3F9004FA8FC0050E0FC005111FD00A9
:10F00000525EFD00538FFD0054E3FD005514FE00D9
:10F0100056ADF90057AFFC0058E7FC005918FD0049
:10F020005A65FD005B96FD005CEAFD005D1BFE007D
:10F030005EB7F9005FB6FC0060EEFC00611FFD00EA
:10F04000626CFD00639DFD0064F1FD006522FE0021
:10F0500066C1F90067BDFC0068F5FC006926FD008B
:10F060006A73FD006BA4FD006CF8FD006D29FE00C5
:10F070006ECBF9006FC4FC0070E9F90071F3F90080
:10F080007207FA007311FA007425FA00754DFA0040
:10F0900076B8FF0077DFF90078CBFC0079FCFC0044
:10F0A0007A49FD007B7AFD007CCEFD007DFFFD00EE
:10F0B0007E8FF9007F9AFC008085FB00819DFB001C
:10F0C00082BDFB0083D5FB0084FDFB008555FC0061
:10F0D00086EDF8008765FB00887DFB008995FB00C5
:10F0E0008AB5FB008BCDFB008CF5FB008D4DFC0041
:10F0F0008EE2F8008F5DFB009098FE0091B6FE0056
:10F1000092DAFE0093F8FE009416FF009534FF009B
:10F1100096C8FA00977AFE009875FB00998DFB005F
:10F120009AADFB009BC5FB009CEDFB009D45FC00E0
:10F130009ED7F8009F55FB00A0AAFE00A1C8FE00C4
:10F14000A2ECFE00A30AFF00A428FF00A546FF00D2
:10F15000A6E3FA00A78CFE00A8B0FE00A9CEFE0030
:10F16000AAF2FE00AB10FF00AC2EFF00AD4CFF007A
:10F17000AEECFA00AF92FE00B0B1FE00B1CFFE00DF
:10F18000B2F3FE00B311FF00B42FFF00B54DFF0036
:10F19000B6EDFA00B793FE00B89AFF00B99FFF00E2
:10F1A000BAA4FF00BBA9FF00BCAEFF00BDB3FF00C7
:10F1B000BE45FB00BF8BFF00C05AFE00C13BFD02F5
:10F1C000C25CF802C3FEFA02C479F700C5A5FB01D0
:10F1D000C608F800C705FC00C85EFF00C9ECFF02C6
:10F1E000CA50F900CB000002CCE3F702CD24F901AC
:10F1F000CEFCF700CF25FC00D042FD00D1B9FD02C6
:10F20000D220F801D333F702D44FF700D5DDFB014C
:10F21000D62FFA00D70DFC00D8D4FE00D9F0FF029B
:10F22000DA2FF901DB95F702DCD6F700DD000001EB
:10F23000DEF0F700DF2DFC00E045FE00E13EFE02BF
:10F24000E244F800E35BF902E46BF700E55DFC01E2
:10F25000E639FA00E715FC00E8C0FD00E94DFB02C5
:10F26000EA2CF800EB07FB02EC5DF700ED00000173
:10F27000EE43FA00EF35FC00F058FF00F1C7FD0245
:10F28000F245F900F3F8FF02F4C9F700F5E5FB01D8
:10F29000F644FA00F71DFC00F852FF00F910FB02DB
:10F2A000FA3AF900FBFBFF02FCBCF700FD0000018D
:10F2B000FEF5FA00FF3DFCF0000000000000000039
:10F2C000000000000000000000000000000000003E
:10F2D000000000000000000000000000000000002E
:10F2E000000000000000000000000000000000001E
:10F2F000000000000000000000000000000000000E
:10F3000000000000000000000000000000000000FD
:10F3100000000000000000000000000000000000ED
:10F3200000ED739100319100F5C5D5E5DDE5FDE512
:10F33000D3AAFDE1DDE1E1D1C1F1ED7B9100ED4525
:10F3400000000000000000000000000000000000BD
:10F35000000000000000ED733300313300F5C5D527
:10F36000E5DDE5FDE5D3ACFDE1DDE1E1D1C1F1EDA8
:10F370007B3300ED4D0000000000000000000000A5
:10F380000000005741524E494E473A206E6F2047C9
:10F3900050494F20657870616E64657220746F20EB
:10F3A000636F6E74726F6C20686967686572206144
:10F3B0006464726573730A0D005741524E494E479B
:10F3C0003A20746F6F206D616E792062616E6B738D
:10F3D000207265717565737465642E20287265717D
:10F3E00075657374206973202564290A0D00496DC1
:10F3F0006167652066696C652025732F4452495604
:10F400004525632E44534B206973206173736967EC
:10F410006E656420746F2064726976652025630AC6
:10F420000D005741524E494E473A20756E6B6E6F34
:10F43000776E20492F4F2077726974652025642CE0
:10F44000202564202825303258482C202530325879
:10F4500048290A0D005741524E494E473A20756ED1
:10F460006B6E6F776E20492F4F2072656164202587
:10F470006420282530325848290A0D0053757065DC
:10F48000724D455A38302B535049207769746820A3
:10F490004750494F20657870616E6465720A0D00AF
:10F4A0004552524F523A2062616E6B2025642069AA
:10F4B00073206E6F7420617661696C61626C652E79
:10F4C0000A0D004D656D6F7279203030303030306C
:10F4D000202D202530366C5848202564204B4220B2
:10F4E0004F4B0D0A004661696C656420746F206F94
:10F4F00070656E20534420436172642E2E0A0D0005
:10F500004661696C656420746F206D6F756E742040
:10F51000534420436172642E0A0D000A0D52657334
:10F52000657420627920494F20706F7274202530F5
:10F530003258480A0D00436C656172206272656141
:10F540006B706F696E7420617420253034580A0D19
:10F55000000A0D48414C5420627920494F20706FB9
:10F5600072742025303258480A0D000A4D656D6FBF
:10F570007279206572726F72206174202530366C4A
:10F5800058480A0D0053657420627265616B706F94
:10F59000696E7420617420253034580A0D002020D3
:10F5A000202020202020202020202020202020205B
:10F5B00020202020200D007761697420666F722062
:10F5C00070726F6772616D6D6572202E2E2E0D0048
:10F5D0005354415455533A202563256325632563CD
:10F5E0002563256325632563002573253533732043
:10F5F000434845434B53554D3A20253032780A0D48
:10F6000000427265616B706F696E74206973206E61
:10F610006F74207365740A0D004D656D6F727920EB
:10F62000303030303030202D202530366C58480DA9
:10F6300000756E6B6E6F776E20636F6D6D616E64BB
:10F640003A2025730A0D00427265616B706F696E16
:10F650007420697320253034580A0D00665F777274
:10F6600069746528293A204552524F520A0D0066A6
:10F670005F6C7365656B28293A204552524F520AD8
:10F680000D0025732069732073656C656374656470
:10F690002E0A0D00665F7265616428293A20455282
:10F6A000524F520A0D003031323334353637383943
:10F6B00041424344454600303132333435363738E1
:10F6C00039616263646566004D4D553A2062616E32
:10F6D0006B20253032582020004E6F20626F6F74EF
:10F6E000206469736B2E0A0D00427265616B2061A4
:10F6F0007420253034580A0D002A2B2C3A3B3C3D0F
:10F700003E5B5D7C223F7F0025732F445249564566
:10F7100025632E44534B004E6F20534420436172A7
:10F72000643F0A0D004C4420484C2C2825303458A6
:10F730004829004F555420282530325848292C415B
:10F74000004C442028484C292C253032584800438E
:10F75000414C4C204E432C25303458480043414CFA
:10F760004C2050452C25303458480043414C4C2007
:10F77000504F2C25303458480043414C4C204E5AB1
:10F780002C2530345848004C442028253034584823
:10F79000292C484C00494E20412C2825303258480D
:10F7A00029004C4420412C28253034584829004C4D
:10F7B0004420282530345848292C410043414C4CE2
:10F7C000204D2C25303458480043414C4C20502CBF
:10F7D00025303458480043414C4C20582C253034B7
:10F7E00058480043414C4C205A2C2530345848008E
:10F7F00053424320412C2530325848004144432095
:10F80000412C25303258480041444420412C2530B9
:10F81000325848004C442042432C2530345848008C
:10F820004A50204E432C2530345848004A5020502E
:10F83000452C2530345848004C4420484C2C253069
:10F84000345848004A5020504F2C25303458480036
:10F850004C442053502C2530345848004A50204EF8
:10F860005A2C253034584800646973617373656D90
:10F87000626C650070726F6772616D3A0A0D0049C3
:10F88000593A20253034580A0D0042433A20253099
:10F89000345820200050433A20253034582020008E
:10F8A00044453A202530345820200041463A20254E
:10F8B000303458202000484C3A202530345820203D
:10F8C0000053503A202530345820200049583A201F
:10F8D0002530345820200053424320412C28484CE6
:10F8E000290041444320412C28484C2900414444EC
:10F8F00020412C28484C29004C4420412C253032F2
:10F900005848004C4420422C2530325848004C4482
:10F9100020442C2530325848004C4420482C2530B7
:10F920003258480043414C4C202530345848004A56
:10F930005020432C2530345848004A50204D2C2567
:10F9400030345848004A5020502C25303458480054
:10F950004A50205A2C253034584800455820285306
:10F9600050292C484C00627265616B706F696E742F
:10F970000045582041462C414627004C4420412C4C
:10F9800028424329004C4420412C28444529004C5E
:10F990004420412C28484C29004C4420422C284823
:10F9A0004C29004C4420432C28484C29004C44202E
:10F9B000442C28484C29004C4420452C28484C29EC
:10F9C000004C4420482C28484C29004C44204C2C06
:10F9D00028484C29004C4420284445292C41004CFF
:10F9E000442028484C292C41004C442028484C29CC
:10F9F0002C42004C442028484C292C4300414444CC
:10FA000020484C2C4243004C442028484C292C448C
:10FA1000004C442028484C292C45004144442048AF
:10FA20004C2C4445004C442028484C292C48005379
:10FA3000554220253032584800414E44202530326E
:10FA4000584800584F52202530325848004C442026
:10FA500028484C292C4C0041444420484C2C484C0C
:10FA60000041444420484C2C5350004C4420432C2B
:10FA700025303258004C4420452C25303258004C5B
:10FA800044204C2C253032580025732530366C78B4
:10FA90003A00464154333220202000737461636B76
:10FAA0003A0A0D0025643A2025730A0D002077726A
:10FAB0006974653A200053656C6563743A2000767A
:10FAC00065726966793A20005355422028484C29CE
:10FAD000004445432028484C2900494E43202848EB
:10FAE0004C2900414E442028484C2900584F5220B0
:10FAF00028484C29004350202530325848004A50AD
:10FB00002025303458480045582044452C484C00A6
:10FB10004C442053502C484C0043504D4449534BC7
:10FB200053004A52204E432C2564004A52204E5A1C
:10FB30002C256400636F6E74696E756500257325EE
:10FB40003034783A0043502028484C29004A50204D
:10FB500028484C290053424320412C410041444352
:10FB600020412C410041444420412C41004C442080
:10FB700042432C410053424320412C420041444324
:10FB800020412C420041444420412C420053424336
:10FB900020412C430041444320412C430041444434
:10FBA00020412C43005055534820424300534243C8
:10FBB00020412C440041444320412C440041444412
:10FBC00020412C440053424320412C4500414443F2
:10FBD00020412C450041444420412C4500505553C0
:10FBE0004820444500505553482041460053424365
:10FBF00020412C480041444320412C4800414444CA
:10FC000020412C4800525354203030480052535465
:10FC1000203130480052535420323048005253545F
:10FC20002033304800525354203038480052535447
:10FC3000203138480052535420323848005253542F
:10FC4000203338480053424320412C4C0041444368
:10FC500020412C4C0041444420412C4C0050555331
:10FC60004820484C004A5220432C2564004A522028
:10FC70005A2C256400444A4E5A2C25640043504DAA
:10FC80004449537E00286E756C6C29002530366C13
:10FC90005820003C25643E0A0D004C4420412C4174
:10FCA000004C4420422C41004C4420432C41004C49
:10FCB0004420442C41004C4420452C41004C44201D
:10FCC000482C41004C44204C2C41004C4420412CF9
:10FCD00042004C4420422C42004C4420432C420021
:10FCE0004C4420442C42004C4420452C42004C44BF
:10FCF00020482C42004C44204C2C42004C442041D3
:10FD00002C43004C4420422C43004C4420432C43C1
:10FD1000004C4420442C43004C4420452C43004CD0
:10FD20004420482C43004C44204C2C430044454381
:10FD300020424300494E4320424300504F5020424E
:10FD40004300524554204E43004C4420412C440073
:10FD50004C4420422C44004C4420432C44004C444E
:10FD600020442C44004C4420452C44004C44204862
:10FD70002C44004C44204C2C44004C4420412C4545
:10FD8000004C4420422C45004C4420432C45004C60
:10FD90004420442C45004C4420452C45004C442034
:10FDA000482C45004C44204C2C45004445432044FD
:10FDB0004500494E4320444500504F5020444500E3
:10FDC00052455420504500504F50204146004C446D
:10FDD00020412C48004C4420422C48004C442043F5
:10FDE0002C48004C4420442C48004C4420452C48CE
:10FDF000004C4420482C48004C44204C2C48004CDB
:10FE00004420412C4C004C4420422C4C004C4420BB
:10FE1000432C4C004C4420442C4C004C4420452C9A
:10FE20004C004C4420482C4C004C44204C2C4C00A2
:10FE300044454320484C00494E4320484C00504F15
:10FE40005020484C0052455420504F004445432018
:10FE5000535000494E4320535000524554204E5AAF
:10FE6000007374617475730020253032780025307A
:10FE7000325820000D2573200D00535542204100BB
:10FE8000444543204100494E43204100414E442017
:10FE90004100584F522041005355422042004445F2
:10FEA00043204200494E43204200414E442042003C
:10FEB000584F5220420053554220430044454320AE
:10FEC0004300494E43204300414E44204300584FD5
:10FED00052204300524554204300535542204400D1
:10FEE000444543204400494E43204400414E4420B1
:10FEF0004400584F52204400535542204500444589
:10FF000043204500494E43204500414E44204500D2
:10FF1000584F522045005355422048004445432045
:10FF20004800494E43204800414E44204800584F65
:10FF300052204800535542204C00444543204C0079
:10FF4000494E43204C00414E44204C00584F522013
:10FF50004C00524554204D0052455420500052450B
:10FF600054205A004A5220256400636C6561720077
:10FF70000D257325730072657365740025640A0D81
:10FF800000303A2F2F004D4F4E3E0043502041008D
:10FF9000524C4341005252434100435020420043DF
:10FFA000502043004350204400435020450043501C
:10FFB0002048004350204C0048414C540073746565
:10FFC000700068656C700064756D70003F3F3F00A5
:10FFD00044414100524C41005252410043434600CB
:10FFE0005343460043504C004E4F5000524554007E
:0FFFF000455858000D257300444900454900004D
:020000040001F9
:100000008FEF88F0250E5619D8B438D0070120EEAE
:1000100002F02E51D9262F51DA22DE50DE10DE10EA
:10002000D8B415D020EE02F02E51D9262F51DA2265
:1000300002D88FEF88F00500FA6EDE50FD6EDE50BC
:10004000FE6EDE50FF6EFA500801565112002EC7A8
:10005000D9F42FC7DAF4DEC434F7DDC435F734C77A
:10006000D9F435C7DAF456C8DFF42EC7D9F42FC750
:10007000DAF4DE2A000EDD228FEF88F0000E556FD5
:10008000000E546F000E586F000E576F0ED008010F
:10009000578708D00801578105D00801588702D03A
:1000A000080157850701304B312B30C7F6F431C7B3
:1000B000F7F4000EF86E0800F550200AD8B4EAD71D
:1000C000030AD8B4EAD70E0AD8B4E1D71D0AD8B4C7
:1000D000E7D7080157B7579530C7F6F431C7F7F49B
:1000E000000EF86E0800F550A6EC02F0D8A03BD048
:1000F000000E0801556F000E546F54C811F655C814
:1001000012F6000E0601146F0A0E136F0DEC02F0CA
:1001100011C654F812C655F830C7F6F431C7F7F4D3
:10012000000EF86E0800F5C434F7D00E0701342530
:10013000356F366BFF0E3623355108015427070102
:100140003651080155230701304B312B30C7F6F4E7
:1001500031C7F7F4000EF86E0800F550A6EC02F077
:10016000D8A023D0CAD730C7F6F431C7F7F4000EB1
:10017000F86E0800F5502A0AD8A417D032C7D9F46F
:1001800033C7DAF4DFC434F7020EDE26DFC435F7F6
:10019000000EDD2234C7D9F435C7DAF4DEC454F8D2
:1001A000DDC455F80701304B312B30C7F6F431C7A9
:1001B000F7F4000EF86E0800F5502E0AD8A46BD0A4
:1001C0000801588D0701304B312B30C7F6F431C789
:1001D000F7F4000EF86E0800F5502A0AD8A420D0D3
:1001E00032C7D9F433C7DAF4DFC434F7020EDE269F
:1001F000DFC435F7000EDD2234C7D9F435C7DAF491
:10020000DEC452F8DDC453F8080153AF05D0000E28
:10021000536F000E526F589D0701304B312BB4D1F4
:10022000000E0801536F000E526F28D052C811F60D
:1002300053C812F6000E146F0A0E136F0DEC02F085
:1002400011C652F812C653F830C7F6F431C7F7F4A6
:10025000000EF86E0800F5C434F7D00E07013425FF
:10026000356F366BFF0E36233551080152270701D3
:100270003651080153230701304B312B30C7F6F4B8
:1002800031C7F7F4000EF86E0800F550A6EC02F046
:10029000D8A07AD1CBD7000E0801536F000E526F51
:1002A00073D1578971D1578D9DD1578B578F9AD163
:1002B00032C7D9F433C7DAF4DFC434F7020EDE26CE
:1002C000DFC435F7000EDD2234C7D9F435C7DAF4C0
:1002D000DEC44AF8DDC44BF84A514B11D8A404D00F
:1002E000850E4A6FFC0E4B6F000E4D6F000E4C6F6B
:1002F00003D008014C4B4D2B4C514A250701346F5C
:1003000008014D514B210701356F34C7F6F435C74D
:10031000F7F4000EF86E250EF76403D00800F550D0
:1003200005D0F6C4E9F4F7C4EAF4EF500009D8A404
:10033000E0D7080152515311D8B411D04C51525D3D
:100340005351800A0701346F08014D51800A07019B
:100350003459D8B004D052C84CF853C84DF80801ED
:1003600054514C5D55514D59D8B005D04C51545F46
:100370004D51555B04D0000E556F000E546F57A7BA
:1003800035D099D0070120EE02F02E51D9262F51F9
:10039000DA22DE50DE10DE10D8B413D020EE02F0E8
:1003A0002E51D9262F51DA2201D820D00500FA6E1D
:1003B000DE50FD6EDE50FE6EDE50FF6EFA50200EF7
:1003C00012002EC7D9F42FC7DAF4DEC434F7DDC427
:1003D00035F734C7D9F435C7DAF4200EDF6E2EC7EF
:1003E000D9F42FC7DAF4DE2A000EDD220801540703
:1003F000D8A055075429C6E15529D8B45CD0C2D736
:10040000070120EE02F02E51D9262F51DA22DE50BC
:10041000DE10DE10D8B427D020EE02F02E51D926FF
:100420002F51DA2201D81BD00500FA6EDE50FD6E86
:10043000DE50FE6EDE50FF6EFA504AC8F6F44BC82E
:10044000F7F4000EF86E250EF76403D00800F5509F
:1004500005D0F6C4E9F4F7C4EAF4EF50120008013D
:100460004A4B4B2B28D04AC8F6F44BC8F7F4000E81
:10047000F86E2EC7D9F42FC7DAF4DEC434F7DDC422
:1004800035F734C7D9F435C7DAF4250EF76403D04D
:100490000800F55005D0F6C4E9F4F7C4EAF4EF50CB
:1004A000DF6E08014A4B4B2B2EC7D9F42FC7DAF465
:1004B000DE2A000EDD224C07D8A04D074C29A0E112
:1004C0004D29D8A49DD757B736D08FEF88F00701B4
:1004D00020EE02F02E51D9262F51DA22DE50DE1006
:1004E000DE10D8B413D020EE02F02E51D9262F51B1
:1004F000DA2201D820D00500FA6EDE50FD6EDE5003
:10050000FE6EDE50FF6EFA50200E12002EC7D9F498
:100510002FC7DAF4DEC434F7DDC435F734C7D9F4B5
:1005200035C7DAF4200EDF6E2EC7D9F42FC7DAF400
:10053000DE2A000EDD2208015407D8A055075429F1
:10054000C6E15529D8B48FEF88F0C1D732C7D9F4A6
:1005500033C7DAF4DFC434F7020EDE26DFC435F722
:10056000000EDD2234C7D9F435C7DAF4DF50566FF8
:10057000560E4A6F080E4B6F000E4D6F010E4C6FFA
:10058000D8D6C00E57132ED030C7F6F431C7F7F4C3
:100590000701304B312B000EF86E0800F5C456F8F9
:1005A00008015651000AD8B4A0EF88F0580AD8B410
:1005B0007CD63B0AD8B4CAD7070AD8B413D00D0AE0
:1005C000D8B410D0050AD8B46CD6030AD8B46BD608
:1005D0001C0AD8B46DD6060AD8B4D3D70D0AD8B43D
:1005E00065D6C6D757C834F7C00E07013417D8A44C
:1005F00042D0080157A919D032C7D9F433C7DAF469
:10060000DFC434F7040EDE26DFC435F7000EDD222A
:1006100034C7D9F435C7DAF4DEC44EF8DEC44FF877
:10062000DEC450F8DEC451F819D032C7D9F433C74C
:10063000DAF4DFC434F7020EDE26DFC435F7000E2D
:10064000DD2234C7D9F435C7DAF4DEC44EF8DDC490
:100650004FF8000E4FBFFF0E506F516F51AF41D09A
:10066000030E5713511F501F4F1F4E6D000E4F2387
:100670005023512336D0080157A919D032C7D9F4D5
:1006800033C7DAF4DFC434F7040EDE26DFC435F7EF
:10069000000EDD2234C7D9F435C7DAF4DEC44EF8D3
:1006A000DEC44FF8DEC450F8DEC451F81AD032C7A9
:1006B000D9F433C7DAF4DFC434F7020EDE26DFC420
:1006C00035F7000EDD2234C7D9F435C7DAF4DEC4BD
:1006D00036F7DDC437F736C74EF837C74FF8506BDB
:1006E000516B52515311D8A46CD04E514F1150112F
:1006F0005111D8A466D0524B532B63D0010E566FC4
:100700000A0E5619D8B46BD05651040D410EF3247D
:10071000F66EEE0EF420F76EF86A000EF82209006D
:10072000F5504E5D0900F5504F590900F5505059EC
:100730000900F5505159D8A052D0562BE1D7010EDF
:10074000566F080E5619D8B44AD05651040D8D0E66
:10075000F324F66EEE0EF420F76EF86A000EF8221F
:100760000900F5504E5D0900F5504F590900F5504C
:1007700050590900F5505159D8A031D0562BE1D726
:10078000010E566F0B0E5619D8B429D05651040DD0
:10079000150EF324F66EEE0EF420F76EF86A000ED6
:1007A000F8220900F5504E5D0900F5504F59090037
:1007B000F55050590900F5505159D8A010D0562B7A
:1007C000E1D75751C00B000AD8B498D7400AD8B423
:1007D000D7D7C00AD8B4B3D7400AD8B48FD75651A8
:1007E0000701346F356B080152510701345D3551F3
:1007F000800A366F08015351800A07013659D8B074
:1008000003D052C856F815D0080156510701346F6D
:10081000356B34510801525D5351800A0701366F20
:100820003551800A3659D8B004D056C852F808015C
:10083000536B080154515511D8B40BD057C834F735
:10084000030E07013417D8B404D008015407D8A008
:100850005507080158AD18D05451525D5351800AC4
:100860000701346F08015551800A07013459D8B087
:1008700006D008015251545F5351555B05D0000E0C
:100880000801556F000E546FC40E57150701346FE1
:10089000080E080158150701356F400E34190DE197
:1008A000080E3519D8A409D0080154515511D8B4EF
:1008B00027D05407D8A0550723D0C00E08015715DC
:1008C0000701346F080E080158150701356F800EB7
:1008D000341916E1080E3519D8A412D0080155BFF5
:1008E0000BD0555104E1030E545DD8A005D0FE0E87
:1008F0005427FF0E552304D0000E556F000E546F81
:10090000080156510701346F356B08015451070136
:10091000345D3551800A366F08015551800A070150
:100920003659D8B006D008015651545F000E555BB9
:1009300005D0000E0801556F000E546F57A531D138
:1009400057C834F7030E07013417D8B42CD020EE63
:1009500002F02E51D9262F51DA22DE50DE10DE10A1
:10096000D8B413D020EE02F02E51D9262F51DA221E
:1009700001D8D9D00500FA6EDE50FD6EDE50FE6E55
:10098000DE50FF6EFA502D0E12002EC7D9F42FC77D
:10099000DAF4DEC434F7DDC435F734C7D9F435C72B
:1009A000DAF42D0E2FD0080157A12ED0070120EE2A
:1009B00002F02E51D9262F51DA22DE50DE10DE1041
:1009C000D8B413D020EE02F02E51D9262F51DA22BE
:1009D00001D8A9D00500FA6EDE50FD6EDE50FE6E25
:1009E000DE50FF6EFA50200E12002EC7D9F42FC72A
:1009F000DAF4DEC434F7DDC435F734C7D9F435C7CB
:100A0000DAF4200EDF6E88D0C00E57150701346F60
:100A1000080E080158150701356F800E341903E1DF
:100A2000080E3519D8A47FD020EE02F02E51D92619
:100A30002F51DA22DE50DE10DE10D8B413D020EEB3
:100A400002F02E51D9262F51DA2201D820D00500EC
:100A5000FA6EDE50FD6EDE50FE6EDE50FF6EFA5016
:100A6000300E12002EC7D9F42FC7DAF4DEC434F7E3
:100A7000DDC435F734C7D9F435C7DAF4300EDF6E8C
:100A80002EC7D9F42FC7DAF4DE2A000EDD220701C3
:100A900020EE02F02E51D9262F51DA22DE50DE1040
:100AA000DE10D8B420D0080157BB04D0000E416F2F
:100AB000780E03D0000E416F580E406F070120EEF4
:100AC00002F02E51D9262F51DA2201D82CD0050060
:100AD000FA6EDE50FD6EDE50FE6EDE50FF6EFA5096
:100AE000080140511200080157BB04D0000E436FAB
:100AF000780E03D0000E436F580E426F2EC7D9F404
:100B00002FC7DAF4DEC434F7DDC435F734C7D9F4BF
:100B100035C7DAF442C8DFF42EC7D9F42FC7DAF4A8
:100B2000DE2A000EDD22080154515511D8B4AAD294
:100B3000070120EE02F02E51D9262F51DA22DE5085
:100B4000DE10DE10D8B413D020EE02F02E51D926DC
:100B50002F51DA2201D820D00500FA6EDE50FD6E4A
:100B6000DE50FE6EDE50FF6EFA50300E12002EC7C1
:100B7000D9F42FC7DAF4DEC434F7DDC435F734C74F
:100B8000D9F435C7DAF4300EDF6E2EC7D9F42FC78B
:100B9000DAF4DE2A000EDD2208015407D8A055073A
:100BA000C3D754515511D8A457B73CD0070120EEF4
:100BB00002F02E51D9262F51DA22DE50DE10DE103F
:100BC000D8B413D020EE02F02E51D9262F51DA22BC
:100BD00001D820D00500FA6EDE50FD6EDE50FE6EAC
:100BE000DE50FF6EFA50200E12002EC7D9F42FC728
:100BF000DAF4DEC434F7DDC435F734C7D9F435C7C9
:100C0000DAF4200EDF6E2EC7D9F42FC7DAF4DE2A0D
:100C1000000EDD2208015407D8A055075451551184
:100C2000D8A4C4D757C834F7030E07013417D8B473
:100C30002CD020EE02F02E51D9262F51DA22DE5090
:100C4000DE10DE10D8B413D020EE02F02E51D926DB
:100C50002F51DA2201D850D00500FA6EDE50FD6E19
:100C6000DE50FE6EDE50FF6EFA502D0E12002EC7C3
:100C7000D9F42FC7DAF4DEC434F7DDC435F734C74E
:100C8000D9F435C7DAF42D0E2FD0080157A134D08E
:100C9000070120EE02F02E51D9262F51DA22DE5024
:100CA000DE10DE10D8B413D020EE02F02E51D9267B
:100CB0002F51DA2201D820D00500FA6EDE50FD6EE9
:100CC000DE50FE6EDE50FF6EFA50200E12002EC770
:100CD000D9F42FC7DAF4DEC434F7DDC435F734C7EE
:100CE000D9F435C7DAF4200EDF6E2EC7D9F42FC73A
:100CF000DAF4DE2A000EDD22C00E080157150701C6
:100D0000346F080E080158150701356F400E34196D
:100D100031E1080E3519D8A42DD020EE02F02E5165
:100D2000D9262F51DA22DE50DE10DE10D8B413D0CF
:100D300020EE02F02E51D9262F51DA2201D8A2D16D
:100D40000500FA6EDE50FD6EDE50FE6EDE50FF6E68
:100D5000FA50300E12002EC7D9F42FC7DAF4DEC4D1
:100D600034F7DDC435F734C7D9F435C7DAF4300EBB
:100D7000DF6E81D1C00E080157150701346F080ED0
:100D8000080158150701356F800E341903E1080E6C
:100D90003519D8A477D120EE02F02E51D9262F5143
:100DA000DA22DE50DE10DE10D8B413D020EE02F0CE
:100DB0002E51D9262F51DA2201D820D00500FA6E03
:100DC000DE50FD6EDE50FE6EDE50FF6EFA50300ECD
:100DD00012002EC7D9F42FC7DAF4DEC434F7DDC40D
:100DE00035F734C7D9F435C7DAF4300EDF6E2EC7C5
:100DF000D9F42FC7DAF4DE2A000EDD22070120EE37
:100E000002F02E51D9262F51DA22DE50DE10DE10EC
:100E1000D8B420D0080157BB04D0000E456F780E1F
:100E200003D0000E456F580E446F070120EE02F00C
:100E30002E51D9262F51DA2201D824D10500FA6E7D
:100E4000DE50FD6EDE50FE6EDE50FF6EFA50080181
:100E500044511200080157BB04D0000E476F780EB2
:100E600003D0000E476F580E466F2EC7D9F42FC718
:100E7000DAF4DEC434F7DDC435F734C7D9F435C746
:100E8000DAF446C8DFF4F7D052C834F753C835F760
:100E90000701D89034373537D89034373537410E7D
:100EA0003425F66EEE0E3521F76EF86A000EF82244
:100EB0000900F5C415F60900F5C416F60900F5C4D5
:100EC00017F60A00F5C418F64EC811F64FC812F608
:100ED00050C813F651C814F6C4ECF6F011C626F744
:100EE00012C627F713C628F714C629F70A0E0701FA
:100EF0002A6F000E2B6F000E2C6F000E2D6F5AEC18
:100F0000F9F00701265177D04EC811F64FC812F6F6
:100F100050C813F651C814F652C834F753C835F701
:100F20000701D89034373537D890343735378D0EA0
:100F30003425F66EEE0E3521F76EF86A000EF822B3
:100F40000900F5C415F60900F5C416F60900F5C444
:100F500017F60A00F5C418F6C4ECF6F011510F0BA1
:100F600008013F6F57BB04D0B70E486FF60E03D091
:100F7000A60E486FF60E496F3F5148250701346FA2
:100F8000000E080149210701356F34C7F6F435C753
:100F9000F7F4000EF86E0800F5C456F83ED04EC8BF
:100FA00011F64FC812F650C813F651C814F652C8BD
:100FB00034F753C835F70701D89034373537D89010
:100FC00034373537150E3425F66EEE0E3521F76EB3
:100FD000F86A000EF8220900F5C415F60900F5C4F8
:100FE00016F60900F5C417F60A00F5C418F6C4ECA5
:100FF000F6F01151070B300F0801566F0ED0575104
:10100000C00B000AD8B440D7400AD8B4C8D7C00A29
:10101000D8B47AD7400AD8B437D7070120EE02F007
:101020002E51D9262F51DA22DE50DE10DE10D8B430
:1010300014D020EE02F02E51D9262F51DA2201D8F9
:1010400021D00500FA6EDE50FD6EDE50FE6EDE50E1
:10105000FF6EFA500801565112002EC7D9F42FC75F
:10106000DAF4DEC434F7DDC435F734C7D9F435C754
:10107000DAF456C8DFF42EC7D9F42FC7DAF4DE2A23
:10108000000EDD2208015207D8A053075229B7E10C
:101090005329D8A4B4D757B755BF41D0555103E110
:1010A0005405D8A03CD0070120EE02F02E51D926DD
:1010B0002F51DA22DE50DE10DE10D8B413D020EE2D
:1010C00002F02E51D9262F51DA2201D820D0050066
:1010D000FA6EDE50FD6EDE50FE6EDE50FF6EFA5090
:1010E000200E12002EC7D9F42FC7DAF4DEC434F76D
:1010F000DDC435F734C7D9F435C7DAF4200EDF6E16
:101100002EC7D9F42FC7DAF4DE2A000EDD2208013B
:101110005407D8A0550754515511D8A4C4D730C787
:10112000F6F431C7F7F40701304B312B000EF86E9F
:101130000800F5C456F808015651D8A402EF80F013
:10114000000E07012F6F000E2E6F1200CAEF90F0F5
:10115000250E8B19D8B436D020EE02F06A51D9266C
:101160006B51DA22DE50DE10DE10D8B414D020EE3F
:1011700002F06A51D9266B51DA2202D8CAEF90F0F8
:101180000500FA6EDE50FD6EDE50FE6EDE50FF6E24
:10119000FA508B5112006ACBD9F46BCBDAF4DEC46F
:1011A00070FBDDC471FB70CBD9F471CBDAF48BCB5F
:1011B000DFF46ACBD9F46BCBDAF4DE2A000EDD2241
:1011C000CAEF90F0000E8A6F000E896F000E8D6FCF
:1011D000000E8C6F09D08C8705D08C8103D08D8751
:1011E00001D08C856C4B6D2B6CCBF6F46DCBF7F48A
:1011F000000EF86E0800F550200AD8B4EED7030AA6
:10120000D8B4EDD70E0AD8B4E6D71D0AD8B4E9D7BA
:101210008CB78C956CCBF6F46DCBF7F4000EF86EB2
:101220000800F55095EC02F0D8A037D0000E0B0165
:101230008A6F000E896F89CBD5FA8ACBD6FA000E59
:101240000A01D86F0A0ED76F5CEC02F0D5CA89FB91
:10125000D6CA8AFB6CCBF6F46DCBF7F4000EF86EB1
:101260000800F5C470FBD00E0B017025716F726B16
:10127000FF0E72237151892772518A236C4B6D2B9B
:101280006CCBF6F46DCBF7F4000EF86E0800F55059
:1012900095EC02F0D8A023D0CED76CCBF6F46DCB72
:1012A000F7F4000EF86E0800F5502A0AD8A417D0FB
:1012B0006ECBD9F46FCBDAF4DFC470FB020EDE26FE
:1012C000DFC471FB000EDD2270CBD9F471CBDAF4F0
:1012D000DEC489FBDDC48AFB0B016C4B6D2B6CCB30
:1012E000F6F46DCBF7F4000EF86E0800F5502E0AF8
:1012F000D8A463D00B018D8D6C4B6D2B6CCBF6F4A9
:101300006DCBF7F4000EF86E0800F5502A0AD8A449
:101310001ED06ECBD9F46FCBDAF4DFC470FB020EB3
:10132000DE26DFC471FB000EDD2270CBD9F471CB59
:10133000DAF4DEC487FBDDC488FB88AF05D0000E7D
:10134000886F000E876F8D9D6C4B6D2BA5D1000EA5
:10135000886F000E876F24D087CBD5FA88CBD6FA5A
:10136000000ED86F0A0ED76F5CEC02F0D5CA87FB6F
:10137000D6CA88FB6CCBF6F46DCBF7F4000EF86E92
:101380000800F5C470FBD00E0B017025716F726BF5
:10139000FF0E722371518727725188236C4B6D2B7E
:1013A0006CCBF6F46DCBF7F4000EF86E0800F55038
:1013B00095EC02F0D8A070D1CFD7000E0B01886F4A
:1013C000000E876F69D18C8967D18C8D92D18C8BFF
:1013D0008C8F8FD16ECBD9F46FCBDAF4DFC470FB76
:1013E000020EDE26DFC471FB000EDD2270CBD9F4C5
:1013F00071CBDAF4DEC47FFBDDC480FB7F5180114A
:10140000D8A404D0850E7F6FFC0E806F000E826F13
:10141000000E816F03D00B01814B822B81517F2500
:10142000706F82518021716F70CBF6F471CBF7F43D
:10143000000EF86E250EF76403D00800F55005D0B5
:10144000F6C4E9F4F7C4EAF4EF500009D8A4E3D7EE
:101450000B0187518811D8B40ED08151875D885116
:10146000800A706F8251800A7059D8B004D087CB3F
:1014700081FB88CB82FB8951815D8A518259D8B02A
:1014800005D08151895F82518A5B04D0000E8A6F3A
:10149000000E896F8CA734D097D020EE02F06A51ED
:1014A000D9266B51DA22DE50DE10DE10D8B413D00C
:1014B00020EE02F06A51D9266B51DA2201D820D0F1
:1014C0000500FA6EDE50FD6EDE50FE6EDE50FF6EE1
:1014D000FA50200E12006ACBD9F46BCBDAF4DEC4DA
:1014E00070FBDDC471FB70CBD9F471CBDAF4200E44
:1014F000DF6E6ACBD9F46BCBDAF4DE2A000EDD2284
:101500000B018907D8A08A078929C7E18A29D8B49D
:101510005BD0C3D720EE02F06A51D9266B51DA2294
:10152000DE50DE10DE10D8B427D020EE02F06A5173
:10153000D9266B51DA2201D81BD00500FA6EDE5095
:10154000FD6EDE50FE6EDE50FF6EFA507FCBF6F47D
:1015500080CBF7F4000EF86E250EF76403D0080078
:10156000F55005D0F6C4E9F4F7C4EAF4EF501200E0
:101570000B017F4B802B28D07FCBF6F480CBF7F488
:10158000000EF86E6ACBD9F46BCBDAF4DEC470FBD4
:10159000DDC471FB70CBD9F471CBDAF4250EF7649E
:1015A00003D00800F55005D0F6C4E9F4F7C4EAF416
:1015B000EF50DF6E0B017F4B802B6ACBD9F46BCBE6
:1015C000DAF4DE2A000EDD228107D8A08207812905
:1015D000A1E18229D8A49ED78CB735D0CAEF90F06C
:1015E00020EE02F06A51D9266B51DA22DE50DE106D
:1015F000DE10D8B413D020EE02F06A51D9266B5118
:10160000DA2201D820D00500FA6EDE50FD6EDE50E1
:10161000FE6EDE50FF6EFA50200E12006ACBD9F437
:101620006BCBDAF4DEC470FBDDC471FB70CBD9F494
:1016300071CBDAF4200EDF6E6ACBD9F46BCBDAF41F
:10164000DE2A000EDD220B018907D8A08A0789292E
:10165000C7E18A29D8B4CAEF90F0C2D76ECBD9F4CB
:101660006FCBDAF4DFC470FB020EDE26DFC471FB41
:10167000000EDD2270CBD9F471CBDAF4DF508B6F22
:101680008B0E7F6F0B0E806F000E826F010E816FCD
:10169000DFD6C00E8C132DD06CCBF6F46DCBF7F4E7
:1016A0000B016C4B6D2B000EF86E0800F5C48BFB24
:1016B0008B51000AD8B4DAEF90F0580AD8B487D624
:1016C0003B0AD8B4CBD7070AD8B413D00D0AD8B484
:1016D00010D0050AD8B477D6030AD8B476D61C0A37
:1016E000D8B478D6060AD8B4D4D70D0AD8B470D6F0
:1016F000C7D78CCB70FBC00E7017D8A441D08CA973
:1017000019D06ECBD9F46FCBDAF4DFC470FB040EC2
:10171000DE26DFC471FB000EDD2270CBD9F471CB65
:10172000DAF4DEC483FBDEC484FBDEC485FBDEC4E6
:1017300086FB19D06ECBD9F46FCBDAF4DFC470FB23
:10174000020EDE26DFC471FB000EDD2270CBD9F461
:1017500071CBDAF4DEC483FBDDC484FB000E84BFEE
:10176000FF0E856F866F86AF40D0030E8C13861FE9
:10177000851F841F836D000E84238523862335D027
:101780008CA919D06ECBD9F46FCBDAF4DFC470FB1F
:10179000040EDE26DFC471FB000EDD2270CBD9F40F
:1017A00071CBDAF4DEC483FBDEC484FBDEC485FBCC
:1017B000DEC486FB1AD06ECBD9F46FCBDAF4DFC46B
:1017C00070FB020EDE26DFC471FB000EDD2270CB43
:1017D000D9F471CBDAF4DEC472FBDDC473FB72CBD7
:1017E00083FB73CB84FB856B866B87518811D8A4F0
:1017F0006CD08351841185118611D8A466D0874B93
:10180000882B63D0010E8B6F0A0E8B19D8B46BD066
:101810008B51040D410EF324F66EEE0EF420F76E9C
:10182000F86A000EF8220900F550835D0900F550B2
:1018300084590900F55085590900F5508659D8A0FA
:1018400052D08B2BE1D7010E8B6F080E8B19D8B4B9
:101850004AD08B51040D8D0EF324F66EEE0EF4205B
:10186000F76EF86A000EF8220900F550835D090052
:10187000F55084590900F55085590900F5508659ED
:10188000D8A031D08B2BE1D7010E8B6F0B0E8B19AB
:10189000D8B429D08B51040D150EF324F66EEE0E3C
:1018A000F420F76EF86A000EF8220900F550835D07
:1018B0000900F55084590900F55085590900F55083
:1018C0008659D8A010D08B2BE1D78C51C00B000AC1
:1018D000D8B498D7400AD8B4D7D7C00AD8B4B3D7A9
:1018E000400AD8B48FD78B51706F716B8751705D80
:1018F0007151800A726F8851800A7259D8B003D032
:1019000087CB8BFB10D08B51706F716B7051875DE3
:101910008851800A726F7151800A7259D8B003D011
:101920008BCB87FB886B89518A11D8B409D08CCBBB
:1019300070FB030E7017D8B403D08907D8A08A07AC
:101940008DAD13D08951875D8851800A706F8A519F
:10195000800A7059D8B005D08751895F88518A5B59
:1019600004D0000E8A6F000E896FC40E8C15706F44
:10197000080E8D15716F400E70190CE1080E71196B
:10198000D8A408D089518A11D8B422D08907D8A008
:101990008A071ED0C00E8C15706F080E8D15716FE2
:1019A000800E701915E1080E7119D8A411D08ABFE4
:1019B0000BD08A5104E1030E895DD8A005D0FE0E3C
:1019C0008927FF0E8A2304D0000E8A6F000E896FCC
:1019D0008B51706F716B8951705D7151800A726F9C
:1019E0008A51800A7259D8B005D08B51895F000E98
:1019F0008A5B04D0000E8A6F000E896F8CA526D1F9
:101A00008CCB70FB030E7017D8B42CD020EE02F0F4
:101A10006A51D9266B51DA22DE50DE10DE10D8B4BE
:101A200013D020EE02F06A51D9266B51DA2201D888
:101A3000D0D00500FA6EDE50FD6EDE50FE6EDE5038
:101A4000FF6EFA502D0E12006ACBD9F46BCBDAF48C
:101A5000DEC470FBDDC471FB70CBD9F471CBDAF45A
:101A60002D0E2DD08CA12DD020EE02F06A51D9265A
:101A70006B51DA22DE50DE10DE10D8B413D020EE27
:101A800002F06A51D9266B51DA2201D8A2D00500A2
:101A9000FA6EDE50FD6EDE50FE6EDE50FF6EFA50C6
:101AA000200E12006ACBD9F46BCBDAF4DEC470FBE3
:101AB000DDC471FB70CBD9F471CBDAF4200EDF6E8C
:101AC00081D0C00E8C15706F080E8D15716F800E51
:101AD00070197FE1080E7119D8A47BD020EE02F0B6
:101AE0006A51D9266B51DA22DE50DE10DE10D8B4EE
:101AF00013D020EE02F06A51D9266B51DA2201D8B8
:101B000020D00500FA6EDE50FD6EDE50FE6EDE5017
:101B1000FF6EFA50300E12006ACBD9F46BCBDAF4B8
:101B2000DEC470FBDDC471FB70CBD9F471CBDAF489
:101B3000300EDF6E6ACBD9F46BCBDAF4DE2A000EFE
:101B4000DD220B0120EE02F06A51D9266B51DA2218
:101B5000DE50DE10DE10D8B41DD08CBB04D0000ED9
:101B6000766F780E03D0000E766F580E756F20EEEC
:101B700002F06A51D9266B51DA2201D82AD0050029
:101B8000FA6EDE50FD6EDE50FE6EDE50FF6EFA50D5
:101B9000755112008CBB04D0000E786F780E03D004
:101BA000000E786F580E776F6ACBD9F46BCBDAF4EE
:101BB000DEC470FBDDC471FB70CBD9F471CBDAF4F9
:101BC00077CBDFF46ACBD9F46BCBDAF4DE2A000EE4
:101BD000DD220B0189518A11D8B490D220EE02F097
:101BE0006A51D9266B51DA22DE50DE10DE10D8B4ED
:101BF00013D020EE02F06A51D9266B51DA2201D8B7
:101C000020D00500FA6EDE50FD6EDE50FE6EDE5016
:101C1000FF6EFA50300E12006ACBD9F46BCBDAF4B7
:101C2000DEC470FBDDC471FB70CBD9F471CBDAF488
:101C3000300EDF6E6ACBD9F46BCBDAF4DE2A000EFD
:101C4000DD220B018907D8A08A07C4D789518A11E0
:101C5000D8A48CB73BD020EE02F06A51D9266B5144
:101C6000DA22DE50DE10DE10D8B413D020EE02F0FF
:101C70006A51D9266B51DA2201D820D00500FA6EBC
:101C8000DE50FD6EDE50FE6EDE50FF6EFA50200E0E
:101C900012006ACBD9F46BCBDAF4DEC470FBDDC47E
:101CA00071FB70CBD9F471CBDAF4200EDF6E6ACB06
:101CB000D9F46BCBDAF4DE2A000EDD220B018907A2
:101CC000D8A08A0789518A11D8A4C5D78CCB70FBBC
:101CD000030E7017D8B42CD020EE02F06A51D9262A
:101CE0006B51DA22DE50DE10DE10D8B413D020EEB5
:101CF00002F06A51D9266B51DA2201D84ED0050084
:101D0000FA6EDE50FD6EDE50FE6EDE50FF6EFA5053
:101D10002D0E12006ACBD9F46BCBDAF4DEC470FB63
:101D2000DDC471FB70CBD9F471CBDAF42D0E2DD05C
:101D30008CA133D020EE02F06A51D9266B51DA2201
:101D4000DE50DE10DE10D8B413D020EE02F06A515F
:101D5000D9266B51DA2201D820D00500FA6EDE5068
:101D6000FD6EDE50FE6EDE50FF6EFA50200E120049
:101D70006ACBD9F46BCBDAF4DEC470FBDDC471FB43
:101D800070CBD9F471CBDAF4200EDF6E6ACBD9F4C4
:101D90006BCBDAF4DE2A000EDD22C00E0B018C15AF
:101DA000706F080E8D15716F400E701931E1080EBD
:101DB0007119D8A42DD020EE02F06A51D9266B51AA
:101DC000DA22DE50DE10DE10D8B413D020EE02F09E
:101DD0006A51D9266B51DA2201D890D10500FA6EEA
:101DE000DE50FD6EDE50FE6EDE50FF6EFA50300E9D
:101DF00012006ACBD9F46BCBDAF4DEC470FBDDC41D
:101E000071FB70CBD9F471CBDAF4300EDF6E6FD189
:101E1000C00E8C15706F080E8D15716F800E7019C5
:101E200003E1080E7119D8A469D120EE02F06A51BD
:101E3000D9266B51DA22DE50DE10DE10D8B413D072
:101E400020EE02F06A51D9266B51DA2201D820D057
:101E50000500FA6EDE50FD6EDE50FE6EDE50FF6E47
:101E6000FA50300E12006ACBD9F46BCBDAF4DEC430
:101E700070FBDDC471FB70CBD9F471CBDAF4300E9A
:101E8000DF6E6ACBD9F46BCBDAF4DE2A000EDD22EA
:101E90000B0120EE02F06A51D9266B51DA22DE5096
:101EA000DE10DE10D8B41DD08CBB04D0000E7A6FCB
:101EB000780E03D0000E7A6F580E796F20EE02F084
:101EC0006A51D9266B51DA2201D818D10500FA6E71
:101ED000DE50FD6EDE50FE6EDE50FF6EFA50795120
:101EE00012008CBB04D0000E7C6F780E03D0000E65
:101EF0007C6F580E7B6F6ACBD9F46BCBDAF4DEC4FF
:101F000070FBDDC471FB70CBD9F471CBDAF47BCB01
:101F1000DFF4EDD087CB70FB88CB71FBD8907037A6
:101F20007137D89070377137410E7025F66EEE0E0E
:101F30007121F76EF86A000EF8220900F5C4D9FA8B
:101F40000900F5C4DAFA0900F5C4DBFA0A00F5C4A1
:101F5000DCFA83CBD5FA84CBD6FA85CBD7FA86CBFD
:101F6000D8FA82ECF6F0D5CAE2FAD6CAE3FAD7CAB2
:101F7000E4FAD8CAE5FA0A0EE66F000EE76F000E23
:101F8000E86F000EE96F9CECFAF0E25172D083CB5F
:101F9000D5FA84CBD6FA85CBD7FA86CBD8FA87CBBD
:101FA00070FB88CB71FBD89070377137D890703741
:101FB00071378D0E7025F66EEE0E7121F76EF86A90
:101FC000000EF8220900F5C4D9FA0900F5C4DAFABE
:101FD0000900F5C4DBFA0A00F5C4DCFA82ECF6F07D
:101FE000D5510F0B0B01746F8CBB04D0B70E7D6FF6
:101FF000F60E03D0A60E7D6FF60E7E6F74517D2512
:10200000706F000E7E21716F70CBF6F471CBF7F418
:10201000000EF86E0800F5C48BFB3DD083CBD5FADB
:1020200084CBD6FA85CBD7FA86CBD8FA87CB70FB90
:1020300088CB71FBD89070377137D8907037713773
:10204000150E7025F66EEE0E7121F76EF86A000E11
:10205000F8220900F5C4D9FA0900F5C4DAFA090032
:10206000F5C4DBFA0A00F5C4DCFA82ECF6F0D551CF
:10207000070B300F0B018B6F0ED08C51C00B000A79
:10208000D8B448D7400AD8B4C9D7C00AD8B47FD783
:10209000400AD8B43FD720EE02F06A51D9266B51DE
:1020A000DA22DE50DE10DE10D8B413D020EE02F0BB
:1020B0006A51D9266B51DA2201D820D00500FA6E78
:1020C000DE50FD6EDE50FE6EDE50FF6EFA508B511C
:1020D00012006ACBD9F46BCBDAF4DEC470FBDDC43A
:1020E00071FB70CBD9F471CBDAF48BCBDFF46ACB14
:1020F000D9F46BCBDAF4DE2A000EDD220B01870760
:10210000D8A088078729B9E18829D8A4B6D78CB781
:102110008ABF40D08A5103E18905D8A03BD020EE88
:1021200002F06A51D9266B51DA22DE50DE10DE1041
:10213000D8B413D020EE02F06A51D9266B51DA22BE
:1021400001D820D00500FA6EDE50FD6EDE50FE6E26
:10215000DE50FF6EFA50200E12006ACBD9F46BCB22
:10216000DAF4DEC470FBDDC471FB70CBD9F471CB43
:10217000DAF4200EDF6E6ACBD9F46BCBDAF4DE2A08
:10218000000EDD220B018907D8A08A0789518A1128
:10219000D8A4C5D76CCBF6F46DCBF7F40B016C4B20
:1021A0006D2B000EF86E0800F5C48BFB8B51D8A484
:1021B000A8EF88F0000E6B6F000E6A6F1200080E19
:1021C0000001B16F04012093C292CA922091C29083
:1021D000CA90000E186F000EC16E400EC96E209599
:1021E000C284CA94000E086F000EBF6E000EC76E48
:1021F000000E106F000EC06E000EC86E3F0E020182
:10220000046F04010097C696710E436F000E446F71
:10221000030E456F000E476F4691468B468F009523
:10222000BE84C6940099BE88C698000E0201056F50
:10223000010ED56FA00ED46FD189D18B0401009F00
:10224000C68E070E0201766F0401009DBE8CC69CEF
:10225000260E0201076FD28F000E036F520E0B0184
:102260008E6FF40E8F6FCFECFEF0B70E8E6FF50E03
:102270008F6FCFECFEF0110E0C01EB6F3C0EEA6F8E
:10228000CB0EE82EFED7EA2FFCD7EB2FFAD79E0E07
:102290000B018E6FF50E8F6FCFECFEF0520E8E6F2E
:1022A000F40E8F6FCFECFEF02CC683FB2DC684FBA3
:1022B000440E856F090E866F000E886F0A0E876FB9
:1022C000000E896FB5ECDAF083518411D8A406D0E2
:1022D0007C0E8E6FF40E8F6FCFECFEF02CC682FB5F
:1022E0002DC683FB000E856F000E846F000E876F76
:1022F000010E866F88ECF4F02CC682FB2DC683FBA2
:10230000000E0B01856F000E846F000E876F000EAC
:10231000866F3FECF4F02CC682FB2DC683FB000ECB
:102320000B01856F010E846F000E876F010E866FA3
:1023300088ECF4F02CC682FB2DC683FB000E0B014B
:10234000856F010E846F000E876F000E866F3FEC65
:10235000F4F02CC682FB2DC683FB000E0B01856FAB
:10236000040E846F000E876F010E866F88ECF4F008
:102370002CC682FB2DC683FB000E0B01856F040E5D
:10238000846F000E876F000E866F3FECF4F02CC652
:1023900082FB2DC683FB000E0B01856F070E846F39
:1023A000000E876F010E866F88ECF4F02CC682FB5E
:1023B0002DC683FB000E0B01856F070E846F000E88
:1023C000876F000E866F3FECF4F02CC682FB2DC6A3
:1023D00083FB000E0B01856F020E846F000E876F6A
:1023E000010E866F88ECF4F02CC682FB2DC683FBB1
:1023F000000E0B01856F020E846F000E876F000EBA
:10240000866F3FECF4F02CC682FB2DC683FB000EDA
:102410000B01856F030E846F000E876F010E866FB0
:1024200088ECF4F02CC682FB2DC683FB000E0B015A
:10243000856F030E846F000E876F000E866F3FEC72
:10244000F4F0000E0D01666F000E656F6605D8B0E2
:1024500015D0C90E6525D96E220E6621DA6EA50E3D
:10246000DF6ECA0E6525D96E220E6621DA6E5A0E0F
:10247000DF6E020E6527000E6623E8D7000E616F3F
:10248000000E626F000E636F000E646F645101E115
:10249000BBD0BED0190E0B018E6FF60E8F6F61CDC3
:1024A00090FB62CD91FB63CD92FB64CD93FBCFECAF
:1024B000FEF028EEC9F261CDDFF428EECAF262CD5B
:1024C000DFF428EECBF263CDDFF461CD0FFC62CDFB
:1024D00010FC63CD11FC64CD12FCC90E0C01136F0E
:1024E000220E146F010E166F000E156F97ECD5F0CB
:1024F00061CD0FFC62CD10FC63CD11FC64CD12FCEC
:10250000C90E0C01136F230E146F010E166F000E0F
:10251000156FF5ECDFF0C90E0A01D56F220ED66FEC
:10252000C90ED76F230ED86F010EDA6F000ED96F68
:10253000C3ECF2F0D551D611D8B42ED06B0E0B01EE
:102540008E6FF50E8F6F61CD90FB62CD91FB63CDE9
:1025500092FB64CD93FBCFECFEF0AD0E0C01246F2B
:10256000FA0E256FC90E266F220E276F010E296FF6
:10257000000E286F48ECF7F0BF0E0C01246FFA0E26
:10258000256FC90E266F230E276F010E296F000ECF
:10259000286F48ECF7F03CD00D01615162116311D6
:1025A0006411D8B426D0000E0C010F6F000E106F0E
:1025B000000E116F000E126FC90E136F230E146FF1
:1025C000010E166F000E156FF5ECDFF0C90E0A0153
:1025D000D56F220ED66FC90ED76F230ED86F010E9E
:1025E000DA6F000ED96FC3ECF2F0D551D611D8B422
:1025F0000FD0000E0D016127100E6223000E632321
:10260000000E6423645104E1100E635DD8A042D72C
:1026100061CD00F962CD01F963CD02F964CD03F912
:1026200002C968F503C969F505016A6B6B6BC30ED6
:102630000B018E6FF40E8F6F61CD90FB62CD91FB1D
:1026400063CD92FB64CD93FB00C9EAFC01C9EBFCAE
:1026500002C9ECFC03C9EDFC0B0E06D00C01D890AE
:10266000ED33EC33EB33EA33E82EF8D7EACC94FBC6
:10267000EBCC95FBCFECFEF0000E0D015A6F000E77
:10268000596F5ABF0ED05A5104E1140E595DD8A0AB
:1026900008D0170E0B018E6FF70E8F6FCFECFEF088
:1026A000FFD7000E0C011C6F0A0E1B6F000E1E6F71
:1026B000000E1D6F000E206F640E1F6F36ECD2F0FF
:1026C0001B511C11D8B410D0110E0C01EB6F3C0E35
:1026D000EA6FCB0EE82EFED7EA2FFCD7EB2FFAD706
:1026E0000D01594B5A2BCDD7990EDD6F200EDE6FA1
:1026F000810EDF6FFF0EE06F010EE16F1AECE7F065
:102700000009D8B408D0000E0B018E6FF50E8F6F44
:10271000CFECFEF0FFD7060EDD6F090EDE6F840EE4
:10272000DF6FFF0EE06F68ECE2F00009D8B408D06C
:10273000E50E0B018E6FF40E8F6FCFECFEF0FFD71E
:10274000000E0D01666F000E656F5E695F694AD00D
:10275000370E0A01D56F090ED66F190ED76FFB0E13
:10276000D86F000EDA6F080ED96F88ECF7F0D551EC
:10277000D611D8B412D0370ED56F090ED66F7D0E94
:10278000D76FFC0ED86F000EDA6F070ED96F88EC8A
:10279000F7F0D551D611D8A425D0A40E0B018E6F19
:1027A000FA0E8F6F65CD90FB66CD91FB370E926F61
:1027B000090E936FCFECFEF0370E0A01D56F090EAC
:1027C000D66F190ED76FFB0ED86F90ECFDF0D55178
:1027D000D611D8A404D065CD5EFD66CD5FFD0D0198
:1027E000654B662B060E0C01B26F090EB36F2E0EF1
:1027F000B46F090EB56FD2ECEFF00009D8A404D085
:1028000009013751D8A4A4D70D01665104E1020E85
:10281000655DD8A09BD0B60E0B018E6FFA0E8F6F40
:10282000CFECFEF073ECFCF00D01606F2F0E6065D5
:102830001AD03A0E606117D0D00E60250C01EA6FF5
:10284000EB6BFF0EEB23EA510D01655D0C01EB51C3
:102850000D016659D8A007D0D00E60255E6F5F6B62
:10286000FF0E5F230AD00D0E6019D8B404D00A0EF3
:102870006019D8A4D7D75FBFD5D77C0E0B018E6F58
:10288000FF0E8F6F5ECD90FB5FCD91FBCFECFEF026
:10289000060E0C01B26F090EB36F000EB46F000E7E
:1028A000B56FD2ECEFF0000E0D01666F000E656F94
:1028B0002FD0370E0A01D56F090ED66F190ED76FBC
:1028C000FB0ED86F000EDA6F080ED96F88ECF7F0A8
:1028D000D551D611D8B412D0370ED56F090ED66F98
:1028E0007D0ED76FFC0ED86F000EDA6F070ED96F12
:1028F00088ECF7F0D551D611D8A40AD00D01655156
:102900005E1904E166515F19D8B414D0654B662B8B
:10291000060E0C01B26F090EB36F2E0EB46F090EC6
:10292000B56FD2ECEFF00009D8A404D009013751FB
:10293000D8A4BFD7820E0B018E6FF60E8F6F370EA5
:10294000906F090E916FCFECFEF00BD0370E0A019D
:10295000D56F090ED66F190ED76FFB0ED86F83ECAB
:1029600000F0060E0A01E16F090EE26F34EC01F08F
:10297000000E0D015D6F000E5C6F7AD00D015C5191
:10298000410F5B6F430E0B018E6F0D0E8F6F080EA4
:10299000906FF70E916F370E926F090E936F5BCDAC
:1029A00094FB956BDEECFDF004C9D5FA05C9D6FAA7
:1029B000020E0A01D86F220ED76F5CEC02F0890E6E
:1029C000D5250C01DD6F0F0E0A01D6210C01DE6F3B
:1029D000430EDF6F0D0EE06F030EE16FBEECA1F052
:1029E0000009D8A442D0EE0E0B018E6FF30E8F6F4C
:1029F000370E906F090E916F5BCD92FB936B5BCDA1
:102A000094FB956BCFECFEF004C9D5FA05C9D6FA54
:102A1000020E0A01D86F220ED76F5CEC02F0890E0D
:102A2000D5250C01EA6F0F0E0A01D6210C01EB6FC0
:102A3000800EEC6F0A0EED6F020EEC27000EED23F8
:102A4000D8900D015C35D96E5D35DA6ED890D936E7
:102A5000DA360C01EC51D926ED51DA22EACCDEF45B
:102A6000EBCCDDF40901044B052B0D015C4B5D2B18
:102A70005D510DE1100E5C5DD8B009D0090105BFB4
:102A80007DD7055104E1080E045DD8A077D70A016F
:102A900082518311D8A408D0D90E0B018E6FF60E87
:102AA0008F6FCFECFEF0FFD7000E0C01076F000E0A
:102AB000086F000E096F000E0A6F6EECCAF0000E70
:102AC000C86E000E0D01666F000E656F040E655D29
:102AD000010E6659D8B019D065CD58F766CD59F7B3
:102AE00059C7C1F458C7BFF4BE94110E6525F66EE0
:102AF000ED0E6621F76EF86A000EF8220800F5C4A4
:102B0000C0F4BE84654B662BE1D7EAECEBF0000E17
:102B10000401186F1969C968000E086F0969C76850
:102B2000000E106F1169C86800910181C680009382
:102B30000183C682009B018BC68A189D198DC98CA2
:102B4000189FC18EC99E010E0201616F000E626F57
:102B50001E0E636F050E656F010E056F020E036F8B
:102B6000030E206F000E0001D56F000ED86F020E0D
:102B7000D96F040EDA6F7F0EDB6F010EDC6F080E6B
:102B8000DD6F100EDE6F400EDF6F800ED76F820E8E
:102B9000D66F010ED56F000ED86F020ED96F040EDE
:102BA000DA6F7F0EDB6F010EDC6F080EDD6F200E1B
:102BB000DE6F400EDF6F800ED76F820ED66F020E73
:102BC000D56F010ED86F7F0ED96F7F0EDA6F7F0E33
:102BD000DB6F010EDC6F000EDD6F000EDE6F000E8E
:102BE000DF6F820ED76F8C0ED66F000ED46F550E2E
:102BF0000401596FAA0E596F5991080E5D6F000EAE
:102C00005E6F000E5F6F550E596FAA0E596F598196
:102C1000B59AA58AA780D68EC280C282520E0B01B9
:102C20008E6FF40E8F6FCFECFEF0FFD7B1CCD9F4DE
:102C3000B2CCDAF4000EDE6E000EDD6EAFCCD5FA4B
:102C4000B0CCD6FA65ECDDF0D5CAC0FCD6CAC1FC62
:102C50000C01C1AF02D00B0E1200D890C035D96E56
:102C6000C135DA6E4C0ED926070EDA22DEC4DBFC43
:102C7000DDC4DCFCDB51DC11D8A402D00C0E120048
:102C8000B1CCD9F4B2CCDAF4DBCCDEF4DCCCDDF4BC
:102C9000B391DBCCD9F4DCCCDAF4DF50D8B415D066
:102CA00020EE01F0DB51D926DC51DA22DF50F9ECBD
:102CB00001F00C01D06FD0B108D0B351D8A4D0A589
:102CC00002D00A0E1200000E1200DBCCD9F4DCCCCC
:102CD000DAF4000EDF6E20EE01F0DB51D926DC5174
:102CE000DA22DF50BAECE4F00C01D06FD0A102D0B0
:102CF000030E1200B351D8B402D0D0B5E2D7DBCC6A
:102D00005BFCDCCC5CFC000E5E6F000E5D6FCCECFF
:102D1000D4F05BCCD9FC5CCCDAFC040ED919DA1106
:102D2000D8A402D0010E1200DA5104E1020ED95DDE
:102D3000D8A002D00D0E120020EE2CF0DB51D926C7
:102D4000DC51DA22DEC4CCFCDEC4CDFCDEC4CEFC19
:102D5000DEC4CFFC3B0EDB250A01D56F000E0C0153
:102D6000DC210A01D66F66ECFFF0020ED619D511F0
:102D7000D8A4E0D7460E0C01DB250A01D56F000E62
:102D80000C01DC210A01D66F66ECFFF0D5CAD5FC38
:102D9000D6CAD6FC0C01D76BD86BD551D611D7113A
:102DA000D811D8A413D0540EDB250A01D56F000E1C
:102DB0000C01DC210A01D66F0DECEDF0D5CAD5FC73
:102DC000D6CAD6FCD7CAD7FCD8CAD8FC0C0120EE8C
:102DD00018F0DB51D926DC51DA22D5CCDEF4D6CC82
:102DE000DEF4D7CCDEF4D8CCDEF420EE40F0DB51BC
:102DF000D926DC51DA2210EE03F0DB51E126DC515A
:102E0000E222DFC4E7F420EE03F0DB51D926DC51E7
:102E1000DA22DE04D8B40AD020EE03F0DB51D92642
:102E2000DC51DA22020EDE18D8A484D7D5CCD5FA2C
:102E3000D6CCD6FAD7CCD7FAD8CCD8FA20EE03F035
:102E4000DB51D926DC51DA22DF50B46FB4510A01CC
:102E5000D96FDA6BDB6BDC6BF3ECFBF0D5CAD5FC1E
:102E6000D6CAD6FCD7CAD7FCD8CAD8FC0C0120EEEB
:102E70003DF0DB51D926DC51DA22DF50B46FB56B5F
:102E800020EE0AF0DB51D926DC51DA22B4CCDEF494
:102E9000B5CCDDF420EE0AF0DB51D926DC51DA2284
:102EA000DE50DE10D8B446D720EE0AF0DB51D9262A
:102EB000DC51DA22DEC4B4FCDDC4B5FC20EE0AF03D
:102EC000DB51D926DC51DA22DEC4B6FCDDC4B7FC06
:102ED000FF0EB625B86FFF0EB721B96FB451B81504
:102EE000BA6FB551B915BB6FBA51BB11D8A422D76F
:102EF000410EDB250A01D56F000E0C01DC210A0111
:102F0000D66F66ECFFF00C0120EE08F0DB51D926FD
:102F1000DC51DA220A01D5CADEF4D6CADDF40C018E
:102F200020EE08F0DB51D926DC51DA22DF50B46FF5
:102F30000F0EB417D8A4FED6430EDB250A01D56FB9
:102F4000000E0C01DC210A01D66F66ECFFF0D5CA39
:102F5000C8FCD6CAC9FC0C01CA6BCB6BC851C911DD
:102F6000CA11CB11D8A413D0500EDB250A01D56F9E
:102F7000000E0C01DC210A01D66F0DECEDF0D5CA74
:102F8000C8FCD6CAC9FCD7CACAFCD8CACBFC3E0EFC
:102F90000C01DB250A01D56F000E0C01DC210A01B2
:102FA000D66F66ECFFF0D5CAC6FCD6CAC7FC0C01CA
:102FB000C651C711D8B4BED620EE08F0DB51D926D1
:102FC000DC51DA22DEC4B4FCDDC4B5FC040EB66FFD
:102FD000D890B533B433B62FFBD7C651B425B76FED
:102FE000C751B521B86FB96BD8B0B92BBA6BD551F1
:102FF000B725C26FD651B821C36FD751B921C46F5D
:10300000D851BA21C56FC251C85DC351C959C45105
:10301000CA59C551CB59D8A08DD6C251C85D0A0135
:10302000D56F0C01C351C9590A01D66F0C01C451A7
:10303000CA590A01D76F0C01C551CB590A01D86F83
:103040000C0120EE0AF0DB51D926DC51DA22DEC475
:10305000B4FCDDC4B5FCB4CCD9FAB5CCDAFA0A01BB
:10306000DB6BDC6B82ECF6F0D5CAD1FCD6CAD2FCA5
:10307000D7CAD3FCD8CAD4FC0C01D151D211D31178
:10308000D411D8B457D6000EDA6F000ED96FF60EF1
:10309000D15DFF0ED259FF0ED3590F0ED459D8B0BF
:1030A00004D0000EDA6F030ED96FD451D3110AE1A8
:1030B000F60ED15DFF0ED259D8B004D0000EDA6FF3
:1030C000020ED96FD451D3110AE1F60ED15D0F0E65
:1030D000D259D8B004D0000EDA6F010ED96FD95191
:1030E000DA11D8B427D6020ED125B46F000ED22142
:1030F000B56F000ED321B66F000ED421B76F20EE4E
:1031000014F0DB51D926DC51DA22B4CCDEF4B5CC94
:10311000DEF4B6CCDEF4B7CCDEF420EE1CF0DB51EE
:10312000D926DC51DA22CCCCDEF4CDCCDEF4CECC08
:10313000DEF4CFCCDEF4C651CC25B46FC751CD211F
:10314000B56F000ECE21B66F000ECF21B76F20EE07
:1031500020F0DB51D926DC51DA22B4CCDEF4B5CC38
:10316000DEF4B6CCDEF4B7CCDEF4C251CC25B46FBD
:10317000C351CD21B56FC451CE21B66FC551CF21FA
:10318000B76F20EE28F0DB51D926DC51DA22B4CC1F
:10319000DEF4B5CCDEF4B6CCDEF4B7CCDEF4030E50
:1031A000D919DA11D8A455D05A0EDB250A01D56FEA
:1031B000000E0C01DC210A01D66F66ECFFF0D55140
:1031C000D611D8A4B7D50C0120EE08F0DB51D926D2
:1031D000DC51DA22DE50DE10D8A4ACD55C0EDB2543
:1031E0000A01D56F000E0C01DC210A01D66F0DEC2F
:1031F000EDF00C0120EE24F0DB51D926DC51DA226F
:103200000A01D5CADEF4D6CADEF4D7CADEF4D8CABB
:10321000DEF40C0120EE14F0DB51D926DC51DA2269
:10322000DEC4B4FCDEC4B5FCDEC4B6FCDEC4B7FC50
:10323000020ED890B437B537B637B737E82EF9D77E
:10324000B4CCBCFCB5CCBDFCB6CCBEFCB7CCBFFC92
:103250009BD020EE08F0DB51D926DC51DA22DE507B
:10326000DE10D8B467D520EE20F0DB51D926DC5132
:10327000DA22DEC4B4FCDEC4B5FCDEC4B6FCDEC4B7
:10328000B7FCD551B425B86FD651B521B96FD75118
:10329000B621BA6FD851B721BB6F20EE24F0DB51B5
:1032A000D926DC51DA22B8CCDEF4B9CCDEF4BACCC3
:1032B000DEF4BBCCDEF4020ED919DA11D8B44DD04D
:1032C00020EE14F0DB51D926DC51DA22DEC4B4FC46
:1032D000DEC4B5FCDEC4B6FCDEC4B7FC010EB4151A
:1032E000B86F000EB515B96F000EB615BA6F000EA7
:1032F000B715BB6F20EE14F0DB51D926DC51DA2272
:10330000DEC4D5FADEC4D6FADEC4D7FADEC4D8FAF3
:10331000030E0A01D96F000EDA6F000EDB6F000E8C
:10332000DC6FF3ECFBF0D890D833D733D633D533FA
:103330000C01B8510A01D5250C01BC6FB9510A0125
:10334000D6210C01BD6FBA510A01D7210C01BE6F05
:10335000BB510A01D8210C0116D020EE14F0DB512C
:10336000D926DC51DA22DEC4B4FCDEC4B5FCDEC4EE
:10337000B6FCDEC4B7FCD890B435BC6FB535BD6FB4
:10338000B635BE6FB735BF6FFF0EBC25B46F010EEB
:10339000BD21B56F000EBE21B66F000EBF21B76F05
:1033A0000A0E05D0D890B733B633B533B433E82E10
:1033B000F9D720EE18F0DB51D926DC51DA22B451CE
:1033C000DE5CB551DE58B651DE58B751DE58D8A094
:1033D000B1D420EE10F0DB51D926DC51DA22FF0EF9
:1033E000DE6EFF0EDE6EFF0EDE6EFF0EDD6EDD5258
:1033F000DD5210EE0CF0DB51E126DC51E222DEC49E
:10340000E6F4DEC4E6F4DEC4E6F4DEC4E6F420EE60
:1034100005F0DB51D926DC51DA22800EDF6E030E77
:10342000D919DA11D8A4A9D0600EDB250A01D56F0D
:10343000000E0C01DC210A01D66F66ECFFF0D50509
:10344000D611D8A49AD0DBCC42FCDCCC43FC010ED4
:103450000C01CC25446F000ECD21456F000ECE210E
:10346000466F000ECF21476FCDECEEF00009D8A4D7
:1034700084D020EE05F0DB51D926DC51DA22000E93
:10348000DF6E2E0EDB250A01D56F020E0C01DC214A
:103490000A01D66F66ECFFF0550ED5196EE1AA0E43
:1034A000D619D8A46AD0300E0C01DB250A01D56FDD
:1034B000000E0C01DC210A01D66F0DECEDF0520E6E
:1034C000D5195BE1520ED61958E1610ED71955E1B5
:1034D000410ED819D8A451D0140E0C01DB250A01D5
:1034E000D56F020E0C01DC210A01D66F0DECEDF058
:1034F000720ED51942E1720ED6193FE1410ED7196D
:103500003CE1610ED819D8A438D0180E0C01DB2587
:103510000A01D56F020E0C01DC210A01D66F0DECF9
:10352000EDF00C0120EE10F0DB51D926DC51DA224F
:103530000A01D5CADEF4D6CADEF4D7CADEF4D8CA88
:10354000DEF41C0E0C01DB250A01D56F020E0C0106
:10355000DC210A01D66F0DECEDF00C0120EE0CF031
:10356000DB51D926DC51DA220A01D5CADEF4D6CAEB
:10357000DEF4D7CADEF4D8CADEF4DBCCD9F4DCCC76
:10358000DAF4D9CCDFF40801BD4BBE2B0C0120EEE0
:1035900006F0DB51D926DC51DA22BDC8DEF4BEC804
:1035A000DDF463EF96F07DC994F97EC995F981C980
:1035B000D9F482C9DAF4000EDE6E000EDD6E7BC92E
:1035C00012F67CC913F6A40E0601146F090E156FCE
:1035D000ACECECF00901936F9351D8A40BD020EE22
:1035E0000FF07B51D9267C51DA22DF50936F935133
:1035F000D8B402D09351120020EE0EF07B51D926A0
:103600007C51DA22DFB202D0070E120020EE10F059
:103610007B51D9267C51DA2210EE10F07B51E12645
:103620007C51E222E6C487F9E6C488F9E6C489F948
:10363000E6C48AF97F5187258B6F805188218C6F72
:10364000000E89218D6F000E8A218E6FDE508B5DFA
:10365000DE508C59DE508D59DE508E59D8B00ED0C8
:1036600020EE10F07B51D9267C51DA22DEC483F99A
:10367000DDC484F9831D7F6F841D806F7F518011AD
:10368000D8B40FD320EE10F07B51D9267C51DA222A
:10369000FF0EDE14836F010EDE14846F000EDE1445
:1036A000856F000EDE14866F83518411851186119B
:1036B000D8A450D220EE10F07B51D9267C51DA22CA
:1036C000DEC483F9DEC484F9DEC485F9DEC486F97C
:1036D0000A0E05D0D8908633853384338333E82EA1
:1036E000F9D720EE0AF0A451D926A551DA22DEC47A
:1036F00087F9DDC488F9FF0E8725896FFF0E8821C1
:103700008A6F83518915966F84518A15976F9651E8
:103710009711D8A49CD020EE10F07B51D9267C5173
:10372000DA22DE50DE10DE10DE10D8A423D020EE28
:1037300006F07B51D9267C51DA22DEC49AF9DEC428
:103740009BF9DEC49CF9DEC49DF99A519B119C1132
:103750009D11D8A42BD07BC95EF97CC95FF9000EFE
:10376000606F000E616F000E626F000E636F66EC9B
:10377000ABF014D07BC95EF97CC95FF920EE14F080
:103780007B51D9267C51DA22DEC460F9DEC461F9AE
:10379000DEC462F9DEC463F966ECABF05EC99AF987
:1037A0005FC99BF960C99CF961C99DF99A519B1148
:1037B0009C119D11D8B475D29A059B119C119D1135
:1037C000D8A40AD020EE0FF07B51D9267C51DA2202
:1037D000020EDF6E020E12009A2911E19B290FE101
:1037E0009C290DE19D29D8A40AD020EE0FF07B5131
:1037F000D9267C51DA22010EDF6E010E120020EE76
:1038000014F07B51D9267C51DA229AC9DEF49BC987
:10381000DEF49CC9DEF49DC9DEF420EE06F07B5197
:10382000D9267C51DA22DE50DE10DE10DE10D8A45C
:103830000ED020EE06F07B51D9267C51DA229AC9AF
:10384000DEF49BC9DEF49CC9DEF49DC9DEF420EEF3
:103850000EF07B51D9267C51DA22DFAE33D0220E16
:103860007B2508016F6F000E09017C210801706F34
:10387000090120EE18F07B51D9267C51DA22DEC4F2
:1038800071F8DEC472F8DEC473F8DEC474F8000E9A
:103890000801766F010E756F090120EE01F0A45149
:1038A000D926A551DA22DF50B0ECF8F00009D8A4EF
:1038B00040D1090120EE0EF07B51D9267C51DA224D
:1038C0007F0EDF16A4C926F7A5C927F720EE14F04E
:1038D0007B51D9267C51DA22DEC428F7DEC429F7D1
:1038E000DEC42AF7DEC42BF75EECE8F026C7A0F9A9
:1038F00027C7A1F928C7A2F929C7A3F90901A0512F
:10390000A111A211A311D8B45DD79651A027975148
:10391000A123000EA223000EA3237FC983F980C92F
:1039200084F9090E856FD89084338333852FFBD7B4
:1039300083C998F984C999F998519911D8B4AED02E
:1039400098519625836F99519721846F20EE0AF044
:10395000A451D926A551DA228351DE5C8451DE5868
:10396000D8B010D020EE0AF0A451D926A551DA2201
:10397000DEC483F9DDC484F99651835D986F975155
:103980008459996F94C96FF895C970F8A0C971F8F6
:10399000A1C972F8A2C973F8A3C974F898C975F8D7
:1039A00099C976F820EE01F0A451D926A551DA2262
:1039B000DF50B0ECF8F00009D8A4BBD00901985151
:1039C000836F9951846F856B866B20EE18F07B5165
:1039D000D9267C51DA22DEC487F9DEC488F9DEC438
:1039E00089F9DEC48AF9A051875D8B6FA15188598E
:1039F0008C6FA25189598D6FA3518A598E6F835153
:103A00008B5D84518C5985518D5986518E59D8B012
:103A100036D0220E7B250601116F000E09017C2194
:103A20000601126F090120EE18F07B51D9267C5156
:103A3000DA22DEC483F9DDC484F9A051835FA15189
:103A4000845B090ED89083378437E82EFBD78351E7
:103A500094250601136F0901845195210601146F05
:103A6000020E166F000E156FC4ECFBF0090120EE7C
:103A70000EF07B51D9267C51DA227F0EDF1698C9D1
:103A800083F999C984F9090ED89083378437E82ED1
:103A9000FBD783C99EF984C99FF9B0D020EE18F0F6
:103AA0007B51D9267C51DA22A051DE180AE1A151BE
:103AB000DE1807E1A251DE1804E1A351DE18D8B4E4
:103AC0003AD020EE0AF07B51D9267C51DA2210EE52
:103AD00010F07B51E1267C51E222DE50E65CDE50A4
:103AE000E658DE50E658DE50E658D8B024D0220E14
:103AF0007B250801716F000E09017C210801726F9E
:103B0000A0C973F8A1C974F8A2C975F8A3C976F859
:103B1000000E786F010E776F090120EE01F0A451BD
:103B2000D926A551DA22DF50E9ECF8F00009D8B423
:103B300002D009015AD6090120EE18F07B51D9268E
:103B40007C51DA22A0C9DEF4A1C9DEF4A2C9DEF4F8
:103B5000A3C9DEF420EE10F07B51D9267C51DA2285
:103B6000DEC483F9DDC484F9FF0E8315856F010E71
:103B70008415866F855100089E6F8651D8A0E82A6B
:103B800002089F6F9E517F5D9F518059D8B004D02D
:103B90007FC99EF980C99FF920EE10F07B51D9268C
:103BA0007C51DA22DEC483F9DDC484F9FF0E83156B
:103BB000856F010E8415866F85517B25876F865131
:103BC0007C21886F220E87250601116F000E0901E6
:103BD00088210601126F94C913F695C914F69EC97F
:103BE00015F69FC916F6C4ECFBF0090120EE0EF0A5
:103BF0007B51D9267C51DA22000EDB8E9E517F5FED
:103C00009F51805B81C9D9F482C9DAF49E51DE26C6
:103C10009F51DD229E5194279F51952320EE10F055
:103C20007B51D9267C51DA229E51DE269F51DE221D
:103C3000000EDE22DE2220EE10F07B51D9267C51D0
:103C4000DA2210EE0AF07B51E1267C51E222DE50AE
:103C5000E65CDE50E658DE50E658DE50E658D8A066
:103C600003D020EE0AF002D020EE10F07B51D926CE
:103C70007C51DA22DEC48FF9DEC490F9DEC491F9FA
:103C8000DEC492F920EE0AF07B51D9267C51DA226B
:103C90008FC9DEF490C9DEF491C9DEF492C9DEF476
:103CA000EDD420EE0EF07B51D9267C51DA22000EA5
:103CB000DB8C000E12007BC912F67CC913F69E0E37
:103CC0000601146F090E156FACECECF00901956F4D
:103CD0009551D8A408D020EE0FF07B51D9267C5105
:103CE000DA22DF50956F9551D8B402D09551120069
:103CF00020EE0AF07B51D9267C51DA227D51DE5C20
:103D00007E51DE587F51DE588051DE58D8B016D033
:103D100020EE0EF07B51D9267C51DA22DFB20ED094
:103D200020EE0AF07B51D9267C51DA22DEC47DF9DF
:103D3000DEC47EF9DEC47FF9DEC480F920EE10F027
:103D40007B51D9267C51DA22DEC491F9DEC492F986
:103D5000DEC493F9DEC494F9000E966F000E976FDF
:103D6000000E986F000E996F20EE10F07B51D9264F
:103D70007C51DA2296C9DEF497C9DEF498C9DEF4E4
:103D800099C9DEF47D517E117F118011D8B42AD2F9
:103D900020EE0AF09E51D9269F51DA22DEC481F925
:103DA000DDC482F98151836F8251846F856B866B8C
:103DB000090ED8908337843785378637E82EF9D7B0
:103DC00083C99AF984C99BF985C99CF986C99DF96B
:103DD0009151921193119411D8B4ABD0FF0E7D255F
:103DE0000601116FFF0E09017E210601126FFF0E01
:103DF00009017F210601136FFF0E090180210601D1
:103E0000146F9AC915F69BC916F69CC917F69DC979
:103E100018F6C4ECF6F011C681F912C682F913C681
:103E200083F914C684F9FF0E090191250601116F6B
:103E3000FF0E090192210601126FFF0E0901932165
:103E40000601136FFF0E090194210601146F9AC930
:103E500015F69BC916F69CC917F69DC918F6C4EC51
:103E6000F6F011510901815D0601125109018259D3
:103E7000060113510901835906011451090184599E
:103E8000D8A057D0FF0E9A25816FFF0E9B21826F1D
:103E9000FF0E9C21836FFF0E9D21846F811D856F16
:103EA000821D866F831D876F841D886FFF0E91258D
:103EB000896FFF0E92218A6FFF0E93218B6FFF0E89
:103EC00094218C6F855189158D6F86518A158E6F5F
:103ED00087518B158F6F88518C15906F20EE10F0E5
:103EE0007B51D9267C51DA228DC9DEF48EC9DEF4ED
:103EF0008FC9DEF490C9DEF420EE10F07B51D92694
:103F00007C51DA22DE507D5FDE507E5BDE507F5BCF
:103F1000DD50805B20EE14F07B51D9267C51DA22F3
:103F2000DEC4A0F9DEC4A1F9DEC4A2F9DEC4A3F99F
:103F300069D020EE06F07B51D9267C51DA22DEC40E
:103F4000A0F9DEC4A1F9DEC4A2F9DEC4A3F9A05130
:103F5000A111A211A311D8A447D07BC95EF97CC9D5
:103F60005FF9000E606F000E616F000E626F000E51
:103F7000636F66ECABF05EC9A0F95FC9A1F960C9D7
:103F8000A2F961C9A3F9A005A111A211A311D8A496
:103F90000AD020EE0FF07B51D9267C51DA22020E96
:103FA000DF6E020E1200A02911E1A1290FE1A22962
:103FB0000DE1A329D8A40AD020EE0FF07B51D92619
:103FC0007C51DA22010EDF6E010E120020EE06F0A7
:103FD0007B51D9267C51DA22A0C9DEF4A1C9DEF4D6
:103FE000A2C9DEF4A3C9DEF420EE14F07B51D92679
:103FF0007C51DA22A0C9DEF4A1C9DEF4A2C9DEF444
:10400000A3C9DEF4A051A111A211A311D8A48AD092
:10401000E9D09A517D5F9B517E5B9C517F5B9D51A6
:10402000805B20EE10F07B51D9267C51DA229A5128
:10403000DE269B51DE229C51DE229D51DE2220EEA7
:104040000EF07B51D9267C51DA22DFA225D07BC924
