:0400000081EF00F09C
:100008007A7A7A7A7A7A7A7A40007A7A40007A7AB0
:100018007A7A7A7A7A7A7A7A7A7A7A7A7A7A7A7A38
:100028007A7A4000400040007A7A7A7A7A7A7A7A44
:100038007A7A7A7A7A7A7A7A7A7A7A7A7A7A7A7A18
:100048007A7A7A7A7A7A7A7A400040007A7A7A7A70
:100058007A7A7A7A7A7A40007A7A7A7A7A7A7A7AAC
:100068007A7A7A7A7A7A7A7A7A7A7A7A7A7A7A7AE8
:100078007A7A7A7A7A7A7A7A4000A5527A7A7A7A89
:100088007A7A7A7A7A7A7A7A7A7A7A7A7A7A7A7AC8
:100098007A7A7A7A7A7A7A7A40007A7A40004000D4
:1000A8007A7A7A7A7A7A7A7A7A7A7A7A7A7A7A7AA8
:1000B8007A7A7A7A7A7A7A7A7A7A7A7A7A7A7A7A98
:1000C8007A7A7A7A7A7A7A7A7A7A7A7A7A7A7A7A88
:1000D8007A7A7A7A7A7A7A7A7A7A7A7A7A7A7A7A78
:1000E80040007A7A7A7A7A7A4000400040004000EC
:1000F8007A7A7A7A7A7A7A7AFF00F1EFDDF0D7CADB
:10010800DBFAD8CADCFA04D0DB4BDC2BD94BDA2B70
:10011800D9CAF6F4DACAF7F4000EF86EDBCAD9F4D5
:10012800DCCADAF40800F5C4DFF4DF50D8B41200F2
:10013800EBD711511211D8B40CD0000E0201056F83
:10014800000E036FBE88BE84400EC96E000EC76ED7
:1001580012007F0EC96EC768C868010E0201056FDC
:10016800020E036F120093CB00FC94CB01FC93CBDF
:100178008FFB94CB90FB000E0B01926F000E916FDA
:1001880069ECFDF00C0120EE05F00051D926015173
:10019800DA22DF50C86E1200DBCADDFADCCADEFAEA
:1001A800DBCAD7FADCCAD8FA000E0A01DA6F000EE9
:1001B800D96F76EC03F00A0120EE05F0DD51D9265F
:1001C800DE51DA22DF50C86E120015C617F616C6C1
:1001D80018F615C611F616C612F6000E0601146FAB
:1001E800000E136F7EEC03F0060120EE05F01751A8
:1001F800D9261851DA22DF50C86E120007D011C66E
:10020800D9F412C6DAF4DE2A000EDD2211C6D9F4BA
:1002180012C6DAF4DEC413F6DDC414F613C6D9F434
:1002280014C6DAF4200EDE18D8A41200E8D746C89F
:1002380048F847C849F846C842F847C843F8000E86
:100248000801456F000E446F49ECFCF0080120EEF0
:1002580005F04851D9264951DA22DF50C86E1200FC
:100268000B01816F8DEC03F00B01826F81518219B4
:10027800D8A40AD07F07D8A0800780BF05D08051B6
:10028800F1E17F05D8B0EED782CB7FFB806B1200FF
:10029800E3CAD8FAE4CAD9FAE60EDA6F0A0EDB6FB7
:1002A8001BECEAF0E56FE551D8A41200E3CAD9F4D3
:1002B800E4CADAF4000EDE6E000EDD6E12000701ED
:1002C8003C6FA9EC03F03D6F3C513D19D8A40AD00E
:1002D8003A07D8A03B073BBF05D03B51F2E13A05AE
:1002E800D8B0EFD73DC73AF73B6B1200D7CADDFA53
:1002F800D8CADEFA08D0DDCAD9F4DECADAF4D9CA17
:10030800DFF4DD4BDE2BDB07D8A0DC07DB29F3E1CC
:10031800DC29D8B41200EFD70601166F010E0601CA
:10032800156F7B0E166103D0610E166107D016514A
:10033800B8EC02F0D8B002D0000E156F15C614F64E
:100348001431120011C617F612C618F608D017C6CF
:10035800D9F418C6DAF413C6DFF4174B182B1507AF
:10036800D8A016071529F3E11629D8B41200EFD73B
:100378000601136F010E0601126F200E1319D8B46F
:1003880008D00E0E136103D0090E136102D0000EBF
:10039800126F12C611F61131120011C615F612C6E7
:1003A80016F615C6D9F416C6DAF413C6DFF4154BDB
:1003B800162B15C6D9F416C6DAF414C6DFF4154B95
:1003C800162B1200D7CAD9F4D8CADAF4D9CADFF47E
:1003D800D74BD82BDACAD9FADA6BD7CAD9F4D8CA24
:1003E800DAF4D9CADFF4D74BD82B12000A01D76F39
:1003F8000A01D751D8B402D0020E12000801BB2955
:1004080007E1BC2905E1BD2903E1BE29D8B4F4D729
:10041800000E1200060111511303F3C415F6F4C4BB
:1004280016F611511403F350162712511303F35003
:10043800162715C611F616C612F6120011C6D9F4FB
:1004480012C6DAF413C6DFF4114B122B14C613F6D6
:10045800146B11C6D9F412C6DAF413C6DFF4114BC3
:10046800122B12000701396937C71CF638C71DF669
:10047800390E06011E6F070E1F6F000E216F010E49
:10048800206F52ECEDF00701395112000A01E869BA
:100498007DCBE2FA7ECBE3FAE80EE46F0A0EE56F55
:1004A800000EE76F010EE66FF2ECEBF00A01E8517F
:1004B8001200D751D903F3C4DBFAF4C4DCFAD751DC
:1004C800DA03F350DC27D851D903F350DC27DBCA11
:1004D800D7FADCCAD8FA12000A01E8697DCBE2FA39
:1004E8007ECBE3FAE80EE46F0A0EE56F000EE76FC5
:1004F800010EE66FA2ECECF00A01E8511200116F50
:1005080006011151D8B402D0020E12000801BB290D
:1005180007E1BC2905E1BD2903E1BE29D8B4F4D718
:10052800000E12000A01D96F000E0A01D86F3A0EA8
:10053800D96105D02F0ED96502D0010ED86FD8CA5F
:10054800D7FAD73112000601136F000E0601126F99
:100558003A0E136105D02F0E136502D0010E126FEB
:1005680012C611F611311200136F000E0601126F38
:100578005B0E136105D0400E136502D0010E126F99
:1005880012C611F6113112008AC5D7FA8BC5D8FAEE
:10059800DFCAD9FAE0CADAFAE1CADBFAE2CADCFA57
:1005A800B9ECE9F012008AC5E2FA8BC5E3FA7DCB13
:1005B800E4FA7ECBE5FA7FCBE6FA80CBE7FA58EC93
:1005C800EEF012008AC5E2FA8BC5E3FA7DCBE4FAB5
:1005D8007ECBE5FA7FCBE6FA80CBE7FAA2ECECF02B
:1005E80012008AC51CF68BC51DF637C71EF638C71C
:1005F8001FF639C720F63AC721F65DECEFF0120076
:100608008AC51CF68BC51DF637C71EF638C71FF6F8
:1006180039C720F63AC721F652ECEDF012000A016C
:1006280020EE02F0D751D926D851DA22DEC4D7FA03
:10063800DDC4D8FA1200060120EE02F01151D926C5
:100648001251DA22DEC411F6DDC412F612000601D8
:10065800116F7B0E0601116104D0600E116501D087
:10066800119B11511200D7AE02D0A2EF03F00A017C
:10067800D76FB7A2FED7D7CAC9F212008AC57DFBC9
:100688008BC57EFB86CB7FFB87CB80FB83ECF3F0AF
:1006980012008AC537F78BC538F741C739F742C703
:1006A8003AF7ABECF4F01200000E0A01D76F000E17
:1006B800D86F210ED96F000EDA6F12009BEC03F091
:1006C800000E0B01876F010E866F42EC03F01200DB
:1006D800B7EC03F0000E0701426F010E416F4DECBD
:1006E80003F01200D951DA11D8A402D0C284120042
:1006F800C294120013511411D8A402D0C28412005B
:10070800C29412008AC5D7FA8BC5D8FABEEC03F09A
:1007180012008AC57DFB8BC57EFB70EC02F01200CF
:100728008AC593FB8BC594FBC5ECFCF012008AC507
:1007380093FB8BC594FBB7EC00F012000601116F18
:10074800B7A2FED711C6C9F212008AC537F78BC502
:1007580038F736EC02F012008AC546F88BC547F820
:1007680091ECFDF012008AC546F88BC547F81BECE2
:1007780001F0120004012095C284CA941200FFFF00
:0507880086FF0105FFE2
:10078E0005018C51120001000E05CFFFFFFFFF0186
:10ED040000010000000800000040000000000200B4
:10ED1400000010000000800000000004000000203B
:10ED24000000000001000000080000004001000095
:10ED3400000A00000064000000E80300001027003F
:10ED440000A086010040420F008096980000E1F583
:10ED54000500CA9A3B6266F901436AFF006334FB0B
:10ED6400006468F80278C7FF027276FF0053BDFFA3
:10ED7400017361FE0068C2FF000100000010000082
:10ED8400000001000000100000000001000000105D
:10ED9400000000000100000010819FE0FC407E8024
:10EDA400FC00000000E8FF020108F800026DFB000F
:10EDB4000334FD0004A4FE00059EFE010603F900D1
:10EDC4000790FF000871F90009FDF9000A7BF900BA
:10EDD4000B2DFD000CC2FE000DBCFE010E6BFA00F3
:10EDE4000F95FF011075FC021120F80012D5F900EF
:10EDF40013B2FD0014E6FE0015E0FE01160EF90044
:10EE040017D4FF011864FF00191BFA001A85F900D2
:10EE14001BABFD001C04FF001DFEFE011E75FA0065
:10EE24001FD8FF01202BFB022138F802227BF700B8
:10EE34002337FE002422FF00251CFF012619F900B8
:10EE440027D0FF01286DFC002957FA022A19F70080
:10EE54002B30FE002C40FF002D3AFF012E7FFA00DC
:10EE64002FE4FF013022FB023150F80232A3F700F5
:10EE74003353FE0034DAFA0035D1FA013635F7009F
:10EE840037E0FF013865FC003961FA023A96F70071
:10EE94003B4CFE003C86FE003D80FE013EF8F8003F
:10EEA4003FDCFF0040D2FC004103FD004250FD0066
:10EEB4004381FD0044D5FD004506FE004699F90056
:10EEC40047A1FC0048D9FC00490AFD004A57FD004F
:10EED4004B88FD004CDCFD004D0DFE004EA3F900F7
:10EEE4004FA8FC0050E0FC005111FD00525EFD00F3
:10EEF400538FFD0054E3FD005514FE0056ADF90098
:10EF040057AFFC0058E7FC005918FD005A65FD0096
:10EF14005B96FD005CEAFD005D1BFE005EB7F90038
:10EF24005FB6FC0060EEFC00611FFD00626CFD003A
:10EF3400639DFD0064F1FD006522FE0066C1F900D9
:10EF440067BDFC0068F5FC006926FD006A73FD00DE
:10EF54006BA4FD006CF8FD006D29FE006ECBF9007A
:10EF64006FC4FC0070E9F90071F3F9007207FA004C
:10EF74007311FA007425FA00754DFA0076B8FF0093
:10EF840077DFF90078CBFC0079FCFC007A49FD00BE
:10EF94007B7AFD007CCEFD007DFFFD007E8FF900B5
:10EFA4007F9AFC008085FB00819DFB0082BDFB00F5
:10EFB40083D5FB0084FDFB008555FC0086EDF8003D
:10EFC4008765FB00887DFB008995FB008AB5FB0003
:10EFD4008BCDFB008CF5FB008D4DFC008EE2F80020
:10EFE4008F5DFB009098FE0091B6FE0092DAFE0061
:10EFF40093F8FE009416FF009534FF0096C8FA00BB
:10F00400977AFE009875FB00998DFB009AADFB0082
:10F014009BC5FB009CEDFB009D45FC009ED7F800C2
:10F024009F55FB00A0AAFE00A1C8FE00A2ECFE00B2
:10F03400A30AFF00A428FF00A546FF00A6E3FA00E8
:10F04400A78CFE00A8B0FE00A9CEFE00AAF2FE0026
:10F05400AB10FF00AC2EFF00AD4CFF00AEECFA008D
:10F06400AF92FE00B0B1FE00B1CFFE00B2F3FE00DD
:10F07400B311FF00B42FFF00B54DFF00B6EDFA0049
:10F08400B793FE00B89AFF00B99FFF00BAA4FF002F
:10F09400BBA9FF00BCAEFF00BDB3FF00BE45FB0033
:10F0A400BF8BFF00C05AFE00C13BFD02C25CF802E8
:10F0B400C3FEFA02C46DF700C5A5FB01C6FCF70048
:10F0C400C705FC00C85EFF00C9ECFF02CA50F90086
:10F0D400CB000002CCD7F702CD24F901CEF0F70023
:10F0E400CF25FC00D042FD00D1B9FD02D214F801B5
:10F0F400D327F702D443F700D5DDFB01D62FFA005E
:10F10400D70DFC00D8D4FE00D9F0FF02DA2FF901A4
:10F11400DB89F702DCCAF700DD000001DEE4F7005A
:10F12400DF2DFC00E045FE00E13EFE02E244F80073
:10F13400E35BF902E45FF700E55DFC01E639FA0000
:10F14400E715FC00E8C0FD00E94DFB02EA2CF800DD
:10F15400EB07FB02EC51F700ED000001EE43FA006F
:10F16400EF35FC00F058FF00F1C7FD02F245F9004D
:10F17400F3F8FF02F4BDF700F5E5FB01F644FA00ED
:10F18400F71DFC00F852FF00F910FB02FA3AF900EF
:10F19400FBFBFF02FCB0F700FD000001FEF5FA00E6
:10F1A400FF3DFCF0000000C3BF00000000000000B1
:10F1B400000000000000000000000000000000004B
:10F1C400000000000000000000000000000000003B
:10F1D400000000000000000000000000000000002B
:10F1E400000000000000000000000000000000001B
:10F1F400000000000000000000000000000000000B
:10F2040000000000000000000000000000000000FA
:10F2140000000000000000000000000000000000EA
:10F2240000000000000000424F4F543A2065727203
:10F234006F7220626F6F74696E670D0A0043502FFE
:10F244004D20322E3220626F6F742D6C6F616465B5
:10F254007220666F72205A38302D53696D756C6157
:10F26400746F720D0A002196007ED30123B7C2C2C7
:10F2740000010100210000AFD30A78D30B79D30C2D
:10F284007DD30F7CD310AFD30DDB0EB7CA0000C6FD
:10F2940030D3013E0DD3013E0AD3012180007EB755
:10F2A400CA0201D30123C3F700F376000000000073
:10F2B400000000000000000000000000000000004A
:10F2C400000000000000000000000000000000003A
:10F2D400000000000000000000000000000000002A
:10F2E400000000000000000000000000000000001A
:10F2F400000000000000000000000000000000000A
:10F3040000000000000000000000000000000000F9
:10F3140000ED739100319100F5C5D5E5DDE5FDE51E
:10F32400D3AAFDE1DDE1E1D1C1F1ED7B9100ED4531
:10F3340000000000000000000000000000000000C9
:10F34400000000000000ED733300313300F5C5D533
:10F35400E5DDE5FDE5D3ACFDE1DDE1E1D1C1F1EDB4
:10F364007B3300ED4D0000000000000000000000B1
:10F374000000005741524E494E473A206E6F2047D5
:10F3840050494F20657870616E64657220746F20F7
:10F39400636F6E74726F6C20686967686572206150
:10F3A4006464726573730A0D005741524E494E47A7
:10F3B4003A20746F6F206D616E792062616E6B7399
:10F3C400207265717565737465642E202872657189
:10F3D40075657374206973202564290A0D00496DCD
:10F3E4006167652066696C652025732F4452495610
:10F3F4004525632E44534B206973206173736967F9
:10F404006E656420746F2064726976652025630AD2
:10F414000D005741524E494E473A20756E6B6E6F40
:10F42400776E20492F4F2077726974652025642CEC
:10F43400202564202825303258482C202530325885
:10F4440048290A0D005741524E494E473A20756EDD
:10F454006B6E6F776E20492F4F2072656164202593
:10F464006420282530325848290A0D0053757065E8
:10F47400724D455A38302B535049207769746820AF
:10F484004750494F20657870616E6465720A0D00BB
:10F494004552524F523A2062616E6B2025642069B6
:10F4A40073206E6F7420617661696C61626C652E85
:10F4B4000A0D004D656D6F72792030303030303078
:10F4C400202D202530366C5848202564204B4220BE
:10F4D4004F4B0D0A004661696C656420746F206FA0
:10F4E40070656E20534420436172642E2E0A0D0011
:10F4F4004661696C656420746F206D6F756E74204D
:10F50400534420436172642E0A0D000A0D52657340
:10F51400657420627920494F20706F727420253001
:10F524003258480A0D00436C65617220627265614D
:10F534006B706F696E7420617420253034580A0D25
:10F54400000A0D48414C5420627920494F20706FC5
:10F5540072742025303258480A0D000A4D656D6FCB
:10F564007279206572726F72206174202530366C56
:10F5740058480A0D0053657420627265616B706FA0
:10F58400696E7420617420253034580A0D002020DF
:10F594002020202020202020202020202020202067
:10F5A40020202020200D007761697420666F72206E
:10F5B40070726F6772616D6D6572202E2E2E0D0054
:10F5C4005354415455533A202563256325632563D9
:10F5D400256325632563256300257325353373204F
:10F5E400434845434B53554D3A20253032780A0D54
:10F5F40000427265616B706F696E74206973206E6E
:10F604006F74207365740A0D004D656D6F727920F7
:10F61400303030303030202D202530366C58480DB5
:10F6240000756E6B6E6F776E20636F6D6D616E64C7
:10F634003A2025730A0D00427265616B706F696E22
:10F644007420697320253034580A0D00665F777280
:10F6540069746528293A204552524F520A0D0066B2
:10F664005F6C7365656B28293A204552524F520AE4
:10F674000D0025732069732073656C65637465647C
:10F684002E0A0D00665F7265616428293A2045528E
:10F69400524F520A0D00303132333435363738394F
:10F6A40041424344454600303132333435363738ED
:10F6B40039616263646566004D4D553A2062616E3E
:10F6C4006B20253032582020004E6F20626F6F74FB
:10F6D400206469736B2E0A0D00427265616B2061B0
:10F6E4007420253034580A0D002A2B2C3A3B3C3D1B
:10F6F4003E5B5D7C223F7F0025732F445249564573
:10F7040025632E44534B004E6F20534420436172B3
:10F71400643F0A0D004C4420484C2C2825303458B2
:10F724004829004F555420282530325848292C4167
:10F73400004C442028484C292C253032584800439A
:10F74400414C4C204E432C25303458480043414C06
:10F754004C2050452C25303458480043414C4C2013
:10F76400504F2C25303458480043414C4C204E5ABD
:10F774002C2530345848004C44202825303458482F
:10F78400292C484C00494E20412C28253032584819
:10F7940029004C4420412C28253034584829004C59
:10F7A4004420282530345848292C410043414C4CEE
:10F7B400204D2C25303458480043414C4C20502CCB
:10F7C40025303458480043414C4C20582C253034C3
:10F7D40058480043414C4C205A2C2530345848009A
:10F7E40053424320412C25303258480041444320A1
:10F7F400412C25303258480041444420412C2530C6
:10F80400325848004C442042432C25303458480098
:10F814004A50204E432C2530345848004C44204450
:10F82400452C2530345848004A502050452C25306A
:10F83400345848004C4420484C2C25303458480057
:10F844004A5020504F2C2530345848004C44205303
:10F85400502C2530345848004A50204E5A2C25301C
:10F8640034584800646973617373656D626C650034
:10F8740070726F6772616D3A0A0D0049593A20251A
:10F884003034580A0D0042433A20253034582020A1
:10F894000050433A202530345820200044453A2073
:10F8A4002530345820200041463A20253034582051
:10F8B4002000484C3A202530345820200053503A38
:10F8C400202530345820200049583A202530345817
:10F8D40020200053424320412C28484C2900414415
:10F8E4004320412C28484C290041444420412C28E1
:10F8F400484C29004C4420412C2530325848004CB7
:10F904004420422C2530325848004C4420442C25B5
:10F9140030325848004C4420482C25303258480096
:10F9240043414C4C202530345848004A5020432C45
:10F934002530345848004A50204D2C25303458483E
:10F94400004A5020502C2530345848004A50205A40
:10F954002C253034584800455820285350292C4829
:10F964004C00627265616B706F696E74004558205B
:10F9740041462C414627004C4420412C284243292F
:10F98400004C4420412C28444529004C4420412C5F
:10F9940028484C29004C4420422C28484C29004C2F
:10F9A4004420432C28484C29004C4420442C28480B
:10F9B4004C29004C4420452C28484C29004C442018
:10F9C400482C28484C29004C44204C2C28484C29CD
:10F9D400004C4420284445292C41004C442028480C
:10F9E4004C292C41004C442028484C292C42004CE2
:10F9F400442028484C292C430041444420484C2CA2
:10FA04004243004C442028484C292C44004C4420B8
:10FA140028484C292C450041444420484C2C44455A
:10FA2400004C442028484C292C480053554220259A
:10FA34003032584800414E4420253032584800584E
:10FA44004F52202530325848004C442028484C2935
:10FA54002C4C0041444420484C2C484C0041444424
:10FA640020484C2C5350004C4420432C2530325811
:10FA7400004C4420452C25303258004C44204C2C5A
:10FA8400253032580025732530366C783A004641CB
:10FA940054333220202000737461636B3A0A0D00E2
:10FAA40025643A2025730A0D002077726974653A3B
:10FAB400200053656C6563743A200076657269664C
:10FAC400793A20005355422028484C2900444543A4
:10FAD4002028484C2900494E432028484C290041FD
:10FAE4004E442028484C2900584F522028484C297D
:10FAF400004350202530325848004A5020253034E5
:10FB040058480045582044452C484C004C44205348
:10FB1400502C484C0043504D4449534B53004A52D7
:10FB2400204E432C2564004A52204E5A2C25640052
:10FB3400636F6E74696E7565002573253034783A89
:10FB44000043502028484C29004A502028484C297A
:10FB54000053424320412C410041444320412C4165
:10FB64000041444420412C41004C442042432C4158
:10FB74000053424320412C420041444320412C4243
:10FB84000041444420412C420053424320412C4331
:10FB94000041444320412C430041444420412C4330
:10FBA40000505553482042430053424320412C44C3
:10FBB4000041444320412C440041444420412C440E
:10FBC4000053424320412C450041444320412C45ED
:10FBD4000041444420412C4500505553482044459D
:10FBE40000505553482041460053424320412C487D
:10FBF4000041444320412C480041444420412C48C6
:10FC0400005253542030304800525354203130486D
:10FC14000052535420323048005253542033304859
:10FC2400005253542030384800525354203138483D
:10FC34000052535420323848005253542033384829
:10FC44000053424320412C4C0041444320412C4C5E
:10FC54000041444420412C4C005055534820484C0A
:10FC6400004A5220432C2564004A52205A2C256411
:10FC740000444A4E5A2C25640043504D4449537E57
:10FC840000286E756C6C29002530366C5820003CB9
:10FC940025643E0A0D004C4420412C41004C442074
:10FCA400422C41004C4420432C41004C4420442C21
:10FCB40041004C4420452C41004C4420482C410038
:10FCC4004C44204C2C41004C4420412C42004C44D8
:10FCD40020422C42004C4420432C42004C442044FB
:10FCE4002C42004C4420452C42004C4420482C42D9
:10FCF400004C44204C2C42004C4420412C43004CEA
:10FD04004420422C43004C4420432C43004C4420C8
:10FD1400442C43004C4420452C43004C4420482CA4
:10FD240043004C44204C2C430044454320424300B0
:10FD3400494E4320424300504F5020424300524515
:10FD440054204E43004C4420412C44004C44204257
:10FD54002C44004C4420432C44004C4420442C4468
:10FD6400004C4420452C44004C4420482C44004C76
:10FD740044204C2C44004C4420412C45004C44204D
:10FD8400422C45004C4420432C45004C4420442C38
:10FD940045004C4420452C45004C4420482C45004B
:10FDA4004C44204C2C450044454320444500494ED6
:10FDB4004320444500504F502044450052455420B0
:10FDC400504500504F50204146004C4420412C489F
:10FDD400004C4420422C48004C4420432C48004C06
:10FDE4004420442C48004C4420452C48004C4420DA
:10FDF400482C48004C44204C2C48004C4420412CB6
:10FE04004C004C4420422C4C004C4420432C4C00CD
:10FE14004C4420442C4C004C4420452C4C004C4475
:10FE240020482C4C004C44204C2C4C00444543208E
:10FE3400484C00494E4320484C00504F5020484CF9
:10FE44000052455420504F0044454320535000492C
:10FE54004E4320535000524554204E5A007374614F
:10FE64007475730020253032780025303258200014
:10FE74000D2573200D005355422041004445432075
:10FE84004100494E43204100414E44204100584F17
:10FE94005220410053554220420044454320420031
:10FEA400494E43204200414E44204200584F5220C4
:10FEB4004200535542204300444543204300494EE9
:10FEC40043204300414E44204300584F52204300F6
:10FED4005245542043005355422044004445432096
:10FEE4004400494E43204400414E44204400584FAE
:10FEF40052204400535542204500444543204500C8
:10FF0400494E43204500414E44204500584F52205D
:10FF14004500535542204800444543204800494E7B
:10FF240043204800414E44204800584F5220480086
:10FF3400535542204C00444543204C00494E432035
:10FF44004C00414E44204C00584F52204C00524526
:10FF540054204D00524554205000524554205A001C
:10FF64004A5220256400636C656172000D25732577
:10FF7400730072657365740025640A0D00303A2FAE
:10FF84002F004D4F4E3E004350204100524C434100
:10FF9400005252434100435020420043502043004A
:10FFA4004350204400435020450043502048004320
:10FFB40050204C0048414C540073746570006865CF
:10FFC4006C700064756D70003F3F3F004441410018
:10FFD400524C4100525241004343460053434600B1
:10FFE40043504C004E4F5000524554004558580061
:0BFFF4000D2573004449004549000042
:020000040001F9
:100000008FEF88F0250E5619D8B438D0070120EEAE
:1000100002F02C51D9262D51DA22DE50DE10DE10EE
:10002000D8B415D020EE02F02C51D9262D51DA2269
:1000300002D88FEF88F00500FA6EDE50FD6EDE50BC
:10004000FE6EDE50FF6EFA500801565112002CC7AA
:10005000D9F42DC7DAF4DEC432F7DDC433F732C782
:10006000D9F433C7DAF456C8DFF42CC7D9F42DC756
:10007000DAF4DE2A000EDD228FEF88F0000E556FD5
:10008000000E546F000E586F000E576F0ED008010F
:10009000578708D00801578105D00801588702D03A
:1000A0000801578507012E4B2F2B2EC7F6F42FC7BB
:1000B000F7F4000EF86E0800F550200AD8B4EAD71D
:1000C000030AD8B4EAD70E0AD8B4E1D71D0AD8B4C7
:1000D000E7D7080157B757952EC7F6F42FC7F7F49F
:1000E000000EF86E0800F550A7EC02F0D8A03BD047
:1000F000000E0801556F000E546F54C811F655C814
:1001000012F6000E0601146F0A0E136F0EEC02F0C9
:1001100011C654F812C655F82EC7F6F42FC7F7F4D7
:10012000000EF86E0800F5C432F7D00E0701322534
:10013000336F346BFF0E342333510801542707010A
:1001400034510801552307012E4B2F2B2EC7F6F4EF
:100150002FC7F7F4000EF86E0800F550A7EC02F078
:10016000D8A023D0CAD72EC7F6F42FC7F7F4000EB5
:10017000F86E0800F5502A0AD8A417D030C7D9F471
:1001800031C7DAF4DFC432F7020EDE26DFC433F7FC
:10019000000EDD2232C7D9F433C7DAF4DEC454F8D6
:1001A000DDC455F807012E4B2F2B2EC7F6F42FC7B1
:1001B000F7F4000EF86E0800F5502E0AD8A46BD0A4
:1001C0000801588D07012E4B2F2B2EC7F6F42FC791
:1001D000F7F4000EF86E0800F5502A0AD8A420D0D3
:1001E00030C7D9F431C7DAF4DFC432F7020EDE26A5
:1001F000DFC433F7000EDD2232C7D9F433C7DAF497
:10020000DEC452F8DDC453F8080153AF05D0000E28
:10021000536F000E526F589D07012E4B2F2BB4D1F8
:10022000000E0801536F000E526F28D052C811F60D
:1002300053C812F6000E146F0A0E136F0EEC02F084
:1002400011C652F812C653F82EC7F6F42FC7F7F4AA
:10025000000EF86E0800F5C432F7D00E0701322503
:10026000336F346BFF0E34233351080152270701DB
:1002700034510801532307012E4B2F2B2EC7F6F4C0
:100280002FC7F7F4000EF86E0800F550A7EC02F047
:10029000D8A07AD1CBD7000E0801536F000E526F51
:1002A00073D1578971D1578D9DD1578B578F9AD163
:1002B00030C7D9F431C7DAF4DFC432F7020EDE26D4
:1002C000DFC433F7000EDD2232C7D9F433C7DAF4C6
:1002D000DEC44AF8DDC44BF84A514B11D8A404D00F
:1002E000850E4A6FFC0E4B6F000E4D6F000E4C6F6B
:1002F00003D008014C4B4D2B4C514A250701326F5E
:1003000008014D514B210701336F32C7F6F433C753
:10031000F7F4000EF86E250EF76403D00800F550D0
:1003200005D0F6C4E9F4F7C4EAF4EF500009D8A404
:10033000E0D7080152515311D8B411D04C51525D3D
:100340005351800A0701326F08014D51800A07019D
:100350003259D8B004D052C84CF853C84DF80801EF
:1003600054514C5D55514D59D8B005D04C51545F46
:100370004D51555B04D0000E556F000E546F57A7BA
:1003800035D099D0070120EE02F02C51D9262D51FD
:10039000DA22DE50DE10DE10D8B413D020EE02F0E8
:1003A0002C51D9262D51DA2201D820D00500FA6E21
:1003B000DE50FD6EDE50FE6EDE50FF6EFA50200EF7
:1003C00012002CC7D9F42DC7DAF4DEC432F7DDC42D
:1003D00033F732C7D9F433C7DAF4200EDF6E2CC7F7
:1003E000D9F42DC7DAF4DE2A000EDD220801540705
:1003F000D8A055075429C6E15529D8B45CD0C2D736
:10040000070120EE02F02C51D9262D51DA22DE50C0
:10041000DE10DE10D8B427D020EE02F02C51D92601
:100420002D51DA2201D81BD00500FA6EDE50FD6E88
:10043000DE50FE6EDE50FF6EFA504AC8F6F44BC82E
:10044000F7F4000EF86E250EF76403D00800F5509F
:1004500005D0F6C4E9F4F7C4EAF4EF50120008013D
:100460004A4B4B2B28D04AC8F6F44BC8F7F4000E81
:10047000F86E2CC7D9F42DC7DAF4DEC432F7DDC428
:1004800033F732C7D9F433C7DAF4250EF76403D053
:100490000800F55005D0F6C4E9F4F7C4EAF4EF50CB
:1004A000DF6E08014A4B4B2B2CC7D9F42DC7DAF469
:1004B000DE2A000EDD224C07D8A04D074C29A0E112
:1004C0004D29D8A49DD757B736D08FEF88F00701B4
:1004D00020EE02F02C51D9262D51DA22DE50DE100A
:1004E000DE10D8B413D020EE02F02C51D9262D51B5
:1004F000DA2201D820D00500FA6EDE50FD6EDE5003
:10050000FE6EDE50FF6EFA50200E12002CC7D9F49A
:100510002DC7DAF4DEC432F7DDC433F732C7D9F4BD
:1005200033C7DAF4200EDF6E2CC7D9F42DC7DAF406
:10053000DE2A000EDD2208015407D8A055075429F1
:10054000C6E15529D8B48FEF88F0C1D730C7D9F4A8
:1005500031C7DAF4DFC432F7020EDE26DFC433F728
:10056000000EDD2232C7D9F433C7DAF4DF50566FFC
:10057000560E4A6F080E4B6F000E4D6F010E4C6FFA
:10058000D8D6C00E57132ED02EC7F6F42FC7F7F4C7
:1005900007012E4B2F2B000EF86E0800F5C456F8FD
:1005A00008015651000AD8B4A0EF88F0580AD8B410
:1005B0007CD63B0AD8B4CAD7070AD8B413D00D0AE0
:1005C000D8B410D0050AD8B46CD6030AD8B46BD608
:1005D0001C0AD8B46DD6060AD8B4D3D70D0AD8B43D
:1005E00065D6C6D757C832F7C00E07013217D8A450
:1005F00042D0080157A919D030C7D9F431C7DAF46D
:10060000DFC432F7040EDE26DFC433F7000EDD222E
:1006100032C7D9F433C7DAF4DEC44EF8DEC44FF87B
:10062000DEC450F8DEC451F819D030C7D9F431C750
:10063000DAF4DFC432F7020EDE26DFC433F7000E31
:10064000DD2232C7D9F433C7DAF4DEC44EF8DDC494
:100650004FF8000E4FBFFF0E506F516F51AF41D09A
:10066000030E5713511F501F4F1F4E6D000E4F2387
:100670005023512336D0080157A919D030C7D9F4D7
:1006800031C7DAF4DFC432F7040EDE26DFC433F7F5
:10069000000EDD2232C7D9F433C7DAF4DEC44EF8D7
:1006A000DEC44FF8DEC450F8DEC451F81AD030C7AB
:1006B000D9F431C7DAF4DFC432F7020EDE26DFC424
:1006C00033F7000EDD2232C7D9F433C7DAF4DEC4C3
:1006D00034F7DDC435F734C74EF835C74FF8506BE3
:1006E000516B52515311D8A46CD04E514F1150112F
:1006F0005111D8A466D0524B532B63D0010E566FC4
:100700000A0E5619D8B46BD05651040D310EF3248D
:10071000F66EED0EF420F76EF86A000EF82209006E
:10072000F5504E5D0900F5504F590900F5505059EC
:100730000900F5505159D8A052D0562BE1D7010EDF
:10074000566F080E5619D8B44AD05651040D7D0E76
:10075000F324F66EED0EF420F76EF86A000EF82220
:100760000900F5504E5D0900F5504F590900F5504C
:1007700050590900F5505159D8A031D0562BE1D726
:10078000010E566F0B0E5619D8B429D05651040DD0
:10079000050EF324F66EED0EF420F76EF86A000EE7
:1007A000F8220900F5504E5D0900F5504F59090037
:1007B000F55050590900F5505159D8A010D0562B7A
:1007C000E1D75751C00B000AD8B498D7400AD8B423
:1007D000D7D7C00AD8B4B3D7400AD8B48FD75651A8
:1007E0000701326F336B080152510701325D3351FB
:1007F000800A346F08015351800A07013459D8B078
:1008000003D052C856F815D0080156510701326F6F
:10081000336B32510801525D5351800A0701346F26
:100820003351800A3459D8B004D056C852F8080160
:10083000536B080154515511D8B40BD057C832F737
:10084000030E07013217D8B404D008015407D8A00A
:100850005507080158AD18D05451525D5351800AC4
:100860000701326F08015551800A07013259D8B08B
:1008700006D008015251545F5351555B05D0000E0C
:100880000801556F000E546FC40E57150701326FE3
:10089000080E080158150701336F400E32190DE19B
:1008A000080E3319D8A409D0080154515511D8B4F1
:1008B00027D05407D8A0550723D0C00E08015715DC
:1008C0000701326F080E080158150701336F800EBB
:1008D000321916E1080E3319D8A412D0080155BFF9
:1008E0000BD0555104E1030E545DD8A005D0FE0E87
:1008F0005427FF0E552304D0000E556F000E546F81
:10090000080156510701326F336B0801545107013A
:10091000325D3351800A346F08015551800A070156
:100920003459D8B006D008015651545F000E555BBB
:1009300005D0000E0801556F000E546F57A531D138
:1009400057C832F7030E07013217D8B42CD020EE67
:1009500002F02C51D9262D51DA22DE50DE10DE10A5
:10096000D8B413D020EE02F02C51D9262D51DA2222
:1009700001D8D9D00500FA6EDE50FD6EDE50FE6E55
:10098000DE50FF6EFA502D0E12002CC7D9F42DC781
:10099000DAF4DEC432F7DDC433F732C7D9F433C733
:1009A000DAF42D0E2FD0080157A12ED0070120EE2A
:1009B00002F02C51D9262D51DA22DE50DE10DE1045
:1009C000D8B413D020EE02F02C51D9262D51DA22C2
:1009D00001D8A9D00500FA6EDE50FD6EDE50FE6E25
:1009E000DE50FF6EFA50200E12002CC7D9F42DC72E
:1009F000DAF4DEC432F7DDC433F732C7D9F433C7D3
:100A0000DAF4200EDF6E88D0C00E57150701326F62
:100A1000080E080158150701336F800E321903E1E3
:100A2000080E3319D8A47FD020EE02F02C51D9261D
:100A30002D51DA22DE50DE10DE10D8B413D020EEB5
:100A400002F02C51D9262D51DA2201D820D00500F0
:100A5000FA6EDE50FD6EDE50FE6EDE50FF6EFA5016
:100A6000300E12002CC7D9F42DC7DAF4DEC432F7E9
:100A7000DDC433F732C7D9F433C7DAF4300EDF6E92
:100A80002CC7D9F42DC7DAF4DE2A000EDD220701C7
:100A900020EE02F02C51D9262D51DA22DE50DE1044
:100AA000DE10D8B420D0080157BB04D0000E416F2F
:100AB000780E03D0000E416F580E406F070120EEF4
:100AC00002F02C51D9262D51DA2201D82CD0050064
:100AD000FA6EDE50FD6EDE50FE6EDE50FF6EFA5096
:100AE000080140511200080157BB04D0000E436FAB
:100AF000780E03D0000E436F580E426F2CC7D9F406
:100B00002DC7DAF4DEC432F7DDC433F732C7D9F4C7
:100B100033C7DAF442C8DFF42CC7D9F42DC7DAF4AE
:100B2000DE2A000EDD22080154515511D8B4AAD294
:100B3000070120EE02F02C51D9262D51DA22DE5089
:100B4000DE10DE10D8B413D020EE02F02C51D926DE
:100B50002D51DA2201D820D00500FA6EDE50FD6E4C
:100B6000DE50FE6EDE50FF6EFA50300E12002CC7C3
:100B7000D9F42DC7DAF4DEC432F7DDC433F732C757
:100B8000D9F433C7DAF4300EDF6E2CC7D9F42DC791
:100B9000DAF4DE2A000EDD2208015407D8A055073A
:100BA000C3D754515511D8A457B73CD0070120EEF4
:100BB00002F02C51D9262D51DA22DE50DE10DE1043
:100BC000D8B413D020EE02F02C51D9262D51DA22C0
:100BD00001D820D00500FA6EDE50FD6EDE50FE6EAC
:100BE000DE50FF6EFA50200E12002CC7D9F42DC72C
:100BF000DAF4DEC432F7DDC433F732C7D9F433C7D1
:100C0000DAF4200EDF6E2CC7D9F42DC7DAF4DE2A11
:100C1000000EDD2208015407D8A055075451551184
:100C2000D8A4C4D757C832F7030E07013217D8B477
:100C30002CD020EE02F02C51D9262D51DA22DE5094
:100C4000DE10DE10D8B413D020EE02F02C51D926DD
:100C50002D51DA2201D850D00500FA6EDE50FD6E1B
:100C6000DE50FE6EDE50FF6EFA502D0E12002CC7C5
:100C7000D9F42DC7DAF4DEC432F7DDC433F732C756
:100C8000D9F433C7DAF42D0E2FD0080157A134D090
:100C9000070120EE02F02C51D9262D51DA22DE5028
:100CA000DE10DE10D8B413D020EE02F02C51D9267D
:100CB0002D51DA2201D820D00500FA6EDE50FD6EEB
:100CC000DE50FE6EDE50FF6EFA50200E12002CC772
:100CD000D9F42DC7DAF4DEC432F7DDC433F732C7F6
:100CE000D9F433C7DAF4200EDF6E2CC7D9F42DC740
:100CF000DAF4DE2A000EDD22C00E080157150701C6
:100D0000326F080E080158150701336F400E321973
:100D100031E1080E3319D8A42DD020EE02F02C5169
:100D2000D9262D51DA22DE50DE10DE10D8B413D0D1
:100D300020EE02F02C51D9262D51DA2201D8A2D171
:100D40000500FA6EDE50FD6EDE50FE6EDE50FF6E68
:100D5000FA50300E12002CC7D9F42DC7DAF4DEC4D5
:100D600032F7DDC433F732C7D9F433C7DAF4300EC3
:100D7000DF6E81D1C00E080157150701326F080ED2
:100D8000080158150701336F800E321903E1080E70
:100D90003319D8A477D120EE02F02C51D9262D5149
:100DA000DA22DE50DE10DE10D8B413D020EE02F0CE
:100DB0002C51D9262D51DA2201D820D00500FA6E07
:100DC000DE50FD6EDE50FE6EDE50FF6EFA50300ECD
:100DD00012002CC7D9F42DC7DAF4DEC432F7DDC413
:100DE00033F732C7D9F433C7DAF4300EDF6E2CC7CD
:100DF000D9F42DC7DAF4DE2A000EDD22070120EE39
:100E000002F02C51D9262D51DA22DE50DE10DE10F0
:100E1000D8B420D0080157BB04D0000E456F780E1F
:100E200003D0000E456F580E446F070120EE02F00C
:100E30002C51D9262D51DA2201D824D10500FA6E81
:100E4000DE50FD6EDE50FE6EDE50FF6EFA50080181
:100E500044511200080157BB04D0000E476F780EB2
:100E600003D0000E476F580E466F2CC7D9F42DC71C
:100E7000DAF4DEC432F7DDC433F732C7D9F433C74E
:100E8000DAF446C8DFF4F7D052C832F753C833F764
:100E90000701D89032373337D89032373337310E95
:100EA0003225F66EED0E3321F76EF86A000EF82249
:100EB0000900F5C415F60900F5C416F60900F5C4D5
:100EC00017F60A00F5C418F64EC811F64FC812F608
:100ED00050C813F651C814F6C6ECF5F011C624F745
:100EE00012C625F713C626F714C627F70A0E070100
:100EF000286F000E296F000E2A6F000E2B6F8AECF0
:100F0000F9F00701245177D04EC811F64FC812F6F8
:100F100050C813F651C814F652C832F753C833F705
:100F20000701D89032373337D890323733377D0EB8
:100F30003225F66EED0E3321F76EF86A000EF822B8
:100F40000900F5C415F60900F5C416F60900F5C444
:100F500017F60A00F5C418F6C6ECF5F011510F0BA0
:100F600008013F6F57BB04D0AB0E486FF60E03D09D
:100F70009A0E486FF60E496F3F5148250701326FB0
:100F8000000E080149210701336F32C7F6F433C759
:100F9000F7F4000EF86E0800F5C456F83ED04EC8BF
:100FA00011F64FC812F650C813F651C814F652C8BD
:100FB00032F753C833F70701D89032373337D89018
:100FC00032373337050E3225F66EED0E3321F76ECC
:100FD000F86A000EF8220900F5C415F60900F5C4F8
:100FE00016F60900F5C417F60A00F5C418F6C6ECA3
:100FF000F5F01151070B300F0801566F0ED0575105
:10100000C00B000AD8B440D7400AD8B4C8D7C00A29
:10101000D8B47AD7400AD8B437D7070120EE02F007
:101020002C51D9262D51DA22DE50DE10DE10D8B434
:1010300014D020EE02F02C51D9262D51DA2201D8FD
:1010400021D00500FA6EDE50FD6EDE50FE6EDE50E1
:10105000FF6EFA500801565112002CC7D9F42DC763
:10106000DAF4DEC432F7DDC433F732C7D9F433C75C
:10107000DAF456C8DFF42CC7D9F42DC7DAF4DE2A27
:10108000000EDD2208015207D8A053075229B7E10C
:101090005329D8A4B4D757B755BF41D0555103E110
:1010A0005405D8A03CD0070120EE02F02C51D926DF
:1010B0002D51DA22DE50DE10DE10D8B413D020EE2F
:1010C00002F02C51D9262D51DA2201D820D005006A
:1010D000FA6EDE50FD6EDE50FE6EDE50FF6EFA5090
:1010E000200E12002CC7D9F42DC7DAF4DEC432F773
:1010F000DDC433F732C7D9F433C7DAF4200EDF6E1C
:101100002CC7D9F42DC7DAF4DE2A000EDD2208013F
:101110005407D8A0550754515511D8A4C4D72EC789
:10112000F6F42FC7F7F407012E4B2F2B000EF86EA5
:101130000800F5C456F808015651D8A402EF80F013
:10114000000E07012D6F000E2C6F120019EF91F0A9
:10115000250E8F19D8B436D020EE02F07251D92660
:101160007351DA22DE50DE10DE10D8B414D020EE37
:1011700002F07251D9267351DA2202D819EF91F098
:101180000500FA6EDE50FD6EDE50FE6EDE50FF6E24
:10119000FA508F51120072CBD9F473CBDAF4DEC45B
:1011A000E5FADDC4E6FAE5CAD9F4E6CADAF48FCB8B
:1011B000DFF472CBD9F473CBDAF4DE2A000EDD2231
:1011C00019EF91F0000E8E6F000E8D6F000E916F73
:1011D000000E906F09D0908705D0908103D0918741
:1011E00001D09085744B752B74CBF6F475CBF7F466
:1011F000000EF86E0800F550200AD8B4EED7030AA6
:10120000D8B4EDD70E0AD8B4E6D71D0AD8B4E9D7BA
:1012100090B7909574CBF6F475CBF7F4000EF86E9A
:101220000800F55096EC02F0D8A039D0000E0B0162
:101230008E6F000E8D6F8DCBD7FA8ECBD8FA000E45
:101240000A01DA6F0A0ED96F5DEC02F0D7CA8DFB86
:10125000D8CA8EFB74CBF6F475CBF7F4000EF86E9B
:101260000800F5C4E5FAD00EE525E66FE76BFF0E42
:10127000E723E6510B018D270A01E7510B018E236D
:10128000744B752B74CBF6F475CBF7F4000EF86E37
:101290000800F55096EC02F0D8A023D0CCD774CB40
:1012A000F6F475CBF7F4000EF86E0800F5502A0A34
:1012B000D8A417D076CBD9F477CBDAF4DFC4E5FA2B
:1012C000020EDE26DFC4E6FA000EDD22E5CAD9F4FE
:1012D000E6CADAF4DEC48DFBDDC48EFB0B01744B71
:1012E000752B74CBF6F475CBF7F4000EF86E08008E
:1012F000F5502E0AD8A465D00B01918D744B752B37
:1013000074CBF6F475CBF7F4000EF86E0800F550C8
:101310002A0AD8A41ED076CBD9F477CBDAF4DFC46E
:10132000E5FA020EDE26DFC4E6FA000EDD22E5CA8B
:10133000D9F4E6CADAF4DEC48BFBDDC48CFB8CAFD7
:1013400005D0000E8C6F000E8B6F919D744B752B2A
:10135000AED1000E8C6F000E8B6F26D08BCBD7FAE0
:101360008CCBD8FA000EDA6F0A0ED96F5DEC02F062
:10137000D7CA8BFBD8CA8CFB74CBF6F475CBF7F4C9
:10138000000EF86E0800F5C4E5FAD00EE525E66F0C
:10139000E76BFF0EE723E6510B018B270A01E751AC
:1013A0000B018C23744B752B74CBF6F475CBF7F4CF
:1013B000000EF86E0800F55096EC02F0D8A077D138
:1013C000CDD7000E0B018C6F000E8B6F70D1908902
:1013D0006ED1908D99D1908B908F96D176CBD9F498
:1013E00077CBDAF4DFC4E5FA020EDE26DFC4E6FAD4
:1013F000000EDD22E5CAD9F4E6CADAF4DEC483FBC6
:10140000DDC484FB83518411D8A404D0850E836F7E
:10141000FC0E846F000E866F000E856F03D00B01EB
:10142000854B862B855183250A01E56F0B0186517B
:1014300084210A01E66FE5CAF6F4E6CAF7F4000E65
:10144000F86E250EF76403D00800F55005D0F6C4F9
:10145000E9F4F7C4EAF4EF500009D8A4E0D70B018F
:101460008B518C11D8B411D085518B5D8C51800A71
:101470000A01E56F0B018651800A0A01E559D8B0CF
:1014800004D08BCB85FB8CCB86FB0B018D51855D0E
:101490008E518659D8B005D085518D5F86518E5BAF
:1014A00004D0000E8E6F000E8D6F90A734D097D0B1
:1014B00020EE02F07251D9267351DA22DE50DE108E
:1014C000DE10D8B413D020EE02F07251D926735139
:1014D000DA2201D820D00500FA6EDE50FD6EDE5013
:1014E000FE6EDE50FF6EFA50200E120072CBD9F461
:1014F00073CBDAF4DEC4E5FADDC4E6FAE5CAD9F462
:10150000E6CADAF4200EDF6E72CBD9F473CBDAF4CC
:10151000DE2A000EDD220B018D07D8A08E078D2953
:10152000C7E18E29D8B45BD0C3D720EE02F0725148
:10153000D9267351DA22DE50DE10DE10D8B427D05F
:1015400020EE02F07251D9267351DA2201D81BD055
:101550000500FA6EDE50FD6EDE50FE6EDE50FF6E50
:10156000FA5083CBF6F484CBF7F4000EF86E250E18
:10157000F76403D00800F55005D0F6C4E9F4F7C4C9
:10158000EAF4EF5012000B01834B842B28D083CB5D
:10159000F6F484CBF7F4000EF86E72CBD9F473CB6B
:1015A000DAF4DEC4E5FADDC4E6FAE5CAD9F4E6CA3F
:1015B000DAF4250EF76403D00800F55005D0F6C420
:1015C000E9F4F7C4EAF4EF50DF6E0B01834B842B90
:1015D00072CBD9F473CBDAF4DE2A000EDD22850754
:1015E000D8A086078529A1E18629D8A49ED790B7DF
:1015F00035D019EF91F020EE02F07251D9267351D7
:10160000DA22DE50DE10DE10D8B413D020EE02F065
:101610007251D9267351DA2201D820D00500FA6E12
:10162000DE50FD6EDE50FE6EDE50FF6EFA50200E74
:10163000120072CBD9F473CBDAF4DEC4E5FADDC460
:10164000E6FAE5CAD9F4E6CADAF4200EDF6E72CB08
:10165000D9F473CBDAF4DE2A000EDD220B018D07FC
:10166000D8A08E078D29C7E18E29D8B419EF91F043
:10167000C2D776CBD9F477CBDAF4DFC4E5FA020E21
:10168000DE26DFC4E6FA000EDD22E5CAD9F4E6CA9A
:10169000DAF4DF508F6F8F0E836F0B0E846F000EA6
:1016A000866F010E856FDBD6C00E90132DD074CBE4
:1016B000F6F475CBF7F40B01744B752B000EF86E36
:1016C0000800F5C48FFB8F51000AD8B429EF91F0C0
:1016D000580AD8B480D63B0AD8B4CBD7070AD8B4B6
:1016E00013D00D0AD8B410D0050AD8B470D6030AA6
:1016F000D8B46FD61C0AD8B471D6060AD8B4D4D7D9
:101700000D0AD8B469D6C7D790CBE5FAC00E0A0146
:10171000E517D8A442D00B0190A919D076CBD9F403
:1017200077CBDAF4DFC4E5FA040EDE26DFC4E6FA8E
:10173000000EDD22E5CAD9F4E6CADAF4DEC487FB7E
:10174000DEC488FBDEC489FBDEC48AFB19D076CBFD
:10175000D9F477CBDAF4DFC4E5FA020EDE26DFC473
:10176000E6FA000EDD22E5CAD9F4E6CADAF4DEC4F0
:1017700087FBDDC488FB000E88BFFF0E896F8A6F70
:101780008AAF41D0030E90138A1F891F881F876D6F
:10179000000E882389238A2336D00B0190A919D003
:1017A00076CBD9F477CBDAF4DFC4E5FA040EDE2683
:1017B000DFC4E6FA000EDD22E5CAD9F4E6CADAF49F
:1017C000DEC487FBDEC488FBDEC489FBDEC48AFB83
:1017D0001AD076CBD9F477CBDAF4DFC4E5FA020E6F
:1017E000DE26DFC4E6FA000EDD22E5CAD9F4E6CA39
:1017F000DAF4DEC4E7FADDC4E8FAE7CA87FBE8CA30
:1018000088FB896B8A6B8B518C11D8A46CD0875163
:10181000881189118A11D8A466D08B4B8C2B63D088
:10182000010E8F6F0A0E8F19D8B46BD08F51040D33
:10183000310EF324F66EED0EF420F76EF86A000E0A
:10184000F8220900F550875D0900F5508859090014
:10185000F55089590900F5508A59D8A052D08F2BDC
:10186000E1D7010E8F6F080E8F19D8B44AD08F516F
:10187000040D7D0EF324F66EED0EF420F76EF86A7B
:10188000000EF8220900F550875D0900F5508859CF
:101890000900F55089590900F5508A59D8A031D06E
:1018A0008F2BE1D7010E8F6F0B0E8F19D8B429D073
:1018B0008F51040D050EF324F66EED0EF420F76E35
:1018C000F86A000EF8220900F550875D0900F5500E
:1018D00088590900F55089590900F5508A59D8A04E
:1018E00010D08F2BE1D79051C00B000AD8B498D7F5
:1018F000400AD8B4D7D7C00AD8B4B3D7400AD8B4AE
:101900008FD78F510A01E56FE66B0B018B510A01EE
:10191000E55DE651800AE76F0B018C51800A0A01F0
:10192000E759D8B003D08BCB8FFB15D00B018F516B
:101930000A01E56FE66BE5510B018B5D8C51800A66
:101940000A01E76FE651800AE759D8B004D08FCB7F
:101950008BFB0B018C6B0B018D518E11D8B40BD00E
:1019600090CBE5FA030E0A01E517D8B404D00B01B9
:101970008D07D8A08E070B0191AD18D08D518B5DCE
:101980008C51800A0A01E56F0B018E51800A0A0111
:10199000E559D8B006D00B018B518D5F8C518E5B11
:1019A00005D0000E0B018E6F000E8D6FC40E9015CA
:1019B0000A01E56F080E0B0191150A01E66F400E52
:1019C000E5190DE1080EE619D8A409D00B018D51D7
:1019D0008E11D8B427D08D07D8A08E0723D0C00E83
:1019E0000B0190150A01E56F080E0B0191150A0114
:1019F000E66F800EE51916E1080EE619D8A412D09C
:101A00000B018EBF0BD08E5104E1030E8D5DD8A06B
:101A100005D0FE0E8D27FF0E8E2304D0000E8E6F94
:101A2000000E8D6F0B018F510A01E56FE66B0B0104
:101A30008D510A01E55DE651800AE76F0B018E5179
:101A4000800A0A01E759D8B006D00B018F518D5F8B
:101A5000000E8E5B05D0000E0B018E6F000E8D6F99
:101A600090A52DD190CBE5FA030E0A01E517D8B465
:101A70002DD00B0120EE02F07251D9267351DA22DB
:101A8000DE50DE10DE10D8B413D020EE02F072511A
:101A9000D9267351DA2201D8D5D00500FA6EDE506E
:101AA000FD6EDE50FE6EDE50FF6EFA502D0E1200FF
:101AB00072CBD9F473CBDAF4DEC4E5FADDC4E6FA0E
:101AC000E5CAD9F4E6CADAF42D0E2ED00B0190A1A6
:101AD0002DD020EE02F07251D9267351DA22DE5059
:101AE000DE10DE10D8B413D020EE02F07251D926E9
:101AF0007351DA2201D8A6D00500FA6EDE50FD6ED1
:101B0000DE50FE6EDE50FF6EFA50200E120072CBD9
:101B1000D9F473CBDAF4DEC4E5FADDC4E6FAE5CA3B
:101B2000D9F4E6CADAF4200EDF6E85D0C00E901527
:101B30000A01E56F080E0B0191150A01E66F800E90
:101B4000E51903E1080EE619D8A47CD00B0120EEBC
:101B500002F07251D9267351DA22DE50DE10DE1007
:101B6000D8B413D020EE02F07251D9267351DA2284
:101B700001D820D00500FA6EDE50FD6EDE50FE6EFC
:101B8000DE50FF6EFA50300E120072CBD9F473CBD8
:101B9000DAF4DEC4E5FADDC4E6FAE5CAD9F4E6CA49
:101BA000DAF4300EDF6E72CBD9F473CBDAF4DE2ABE
:101BB000000EDD220B0120EE02F07251D926735186
:101BC000DA22DE50DE10DE10D8B41DD090BB04D077
:101BD000000E7A6F780E03D0000E7A6F580E796F70
:101BE00020EE02F07251D9267351DA2201D82AD0A0
:101BF0000500FA6EDE50FD6EDE50FE6EDE50FF6EAA
:101C0000FA507951120090BB04D0000E7C6F780E10
:101C100003D0000E7C6F580E7B6F72CBD9F473CB60
:101C2000DAF4DEC4E5FADDC4E6FAE5CAD9F4E6CAB8
:101C3000DAF47BCBDFF472CBD9F473CBDAF4DE2A9F
:101C4000000EDD220B018D518E11D8B4A6D220EEEC
:101C500002F07251D9267351DA22DE50DE10DE1006
:101C6000D8B413D020EE02F07251D9267351DA2283
:101C700001D820D00500FA6EDE50FD6EDE50FE6EFB
:101C8000DE50FF6EFA50300E120072CBD9F473CBD7
:101C9000DAF4DEC4E5FADDC4E6FAE5CAD9F4E6CA48
:101CA000DAF4300EDF6E72CBD9F473CBDAF4DE2ABD
:101CB000000EDD220B018D07D8A08E07C4D78D51F1
:101CC0008E11D8A490B73BD020EE02F07251D926E5
:101CD0007351DA22DE50DE10DE10D8B413D020EEBD
:101CE00002F07251D9267351DA2201D820D00500B2
:101CF000FA6EDE50FD6EDE50FE6EDE50FF6EFA5064
:101D0000200E120072CBD9F473CBDAF4DEC4E5FAFC
:101D1000DDC4E6FAE5CAD9F4E6CADAF4200EDF6ECD
:101D200072CBD9F473CBDAF4DE2A000EDD220B017C
:101D30008D07D8A08E078D518E11D8A4C5D790CB12
:101D4000E5FA030E0A01E517D8B42DD00B0120EEF9
:101D500002F07251D9267351DA22DE50DE10DE1005
:101D6000D8B413D020EE02F07251D9267351DA2282
:101D700001D84FD00500FA6EDE50FD6EDE50FE6ECB
:101D8000DE50FF6EFA502D0E120072CBD9F473CBD9
:101D9000DAF4DEC4E5FADDC4E6FAE5CAD9F4E6CA47
:101DA000DAF42D0E2ED00B0190A133D020EE02F0EC
:101DB0007251D9267351DA22DE50DE10DE10D8B40B
:101DC00013D020EE02F07251D9267351DA2201D8D5
:101DD00020D00500FA6EDE50FD6EDE50FE6EDE5045
:101DE000FF6EFA50200E120072CBD9F473CBDAF4E6
:101DF000DEC4E5FADDC4E6FAE5CAD9F4E6CADAF4E7
:101E0000200EDF6E72CBD9F473CBDAF4DE2A000E2B
:101E1000DD22C00E0B0190150A01E56F080E0B01C3
:101E200091150A01E66F400EE51932E1080EE61938
:101E3000D8A42ED00B0120EE02F07251D926735196
:101E4000DA22DE50DE10DE10D8B413D020EE02F01D
:101E50007251D9267351DA2201D89FD10500FA6E4A
:101E6000DE50FD6EDE50FE6EDE50FF6EFA50300E1C
:101E7000120072CBD9F473CBDAF4DEC4E5FADDC418
:101E8000E6FAE5CAD9F4E6CADAF4300EDF6E7ED19E
:101E9000C00E0B0190150A01E56F080E0B0191159C
:101EA0000A01E66F800EE51903E1080EE619D8A4D1
:101EB00074D10B0120EE02F07251D9267351DA224F
:101EC000DE50DE10DE10D8B413D020EE02F07251D6
:101ED000D9267351DA2201D820D00500FA6EDE50DF
:101EE000FD6EDE50FE6EDE50FF6EFA50300E1200B8
:101EF00072CBD9F473CBDAF4DEC4E5FADDC4E6FACA
:101F0000E5CAD9F4E6CADAF4300EDF6E72CBD9F442
:101F100073CBDAF4DE2A000EDD220B0120EE02F094
:101F20007251D9267351DA22DE50DE10DE10D8B499
:101F30001DD090BB04D0000E7E6F780E03D0000E33
:101F40007E6F580E7D6F20EE02F07251D9267351CC
:101F5000DA2201D822D10500FA6EDE50FD6EDE5085
:101F6000FE6EDE50FF6EFA507D51120090BB04D021
:101F7000000E806F780E03D0000E806F580E7F6FBA
:101F800072CBD9F473CBDAF4DEC4E5FADDC4E6FA39
:101F9000E5CAD9F4E6CADAF47FCBDFF4F7D08BCB0D
:101FA000E5FA8CCBE6FA0A01D890E537E637D89007
:101FB000E537E637310EE525F66EED0EE621F76ED4
:101FC000F86A000EF8220900F5C4DBFA0900F5C42E
:101FD000DCFA0900F5C4DDFA0A00F5C4DEFA87CBA5
:101FE000D7FA88CBD8FA89CBD9FA8ACBDAFA8BEC34
:101FF000F6F0D7CA6AFBD8CA6BFBD9CA6CFBDACA3F
:102000006DFB0A0E0B016E6F000E6F6F000E706F8E
:10201000000E716F1AECF9F00B016A51300F79D094
:1020200087CBD7FA88CBD8FA89CBD9FA8ACBDAFA18
:102030008BCBE5FA8CCBE6FA0A01D890E537E63788
:10204000D890E537E6377D0EE525F66EED0EE621F4
:10205000F76EF86A000EF8220900F5C4DBFA0900F1
:10206000F5C4DCFA0900F5C4DDFA0A00F5C4DEFAAD
:102070008BECF6F0D7510F0B0B01786F90BB04D0AF
:10208000AB0E816FF60E03D09A0E816FF60E826F43
:10209000785181250A01E56F000E0B0182210A01AA
:1020A000E66FE5CAF6F4E6CAF7F4000EF86E08002B
:1020B000F5C48FFB3ED087CBD7FA88CBD8FA89CB33
:1020C000D9FA8ACBDAFA8BCBE5FA8CCBE6FA0A019D
:1020D000D890E537E637D890E537E637050EE525A1
:1020E000F66EED0EE621F76EF86A000EF822090092
:1020F000F5C4DBFA0900F5C4DCFA0900F5C4DDFA21
:102100000A00F5C4DEFA8BECF6F0D751070B300F5E
:102110000B018F6F0ED09051C00B000AD8B43FD77F
:10212000400AD8B4C8D7C00AD8B47AD7400AD8B4BD
:1021300036D70B0120EE02F07251D9267351DA2204
:10214000DE50DE10DE10D8B413D020EE02F0725153
:10215000D9267351DA2201D820D00500FA6EDE505C
:10216000FD6EDE50FE6EDE50FF6EFA508F51120093
:1021700072CBD9F473CBDAF4DEC4E5FADDC4E6FA47
:10218000E5CAD9F4E6CADAF48FCBDFF472CBD9F41E
:1021900073CBDAF4DE2A000EDD220B018B07D8A008
:1021A0008C078B29B8E18C29D8A4B5D790B78EBFFE
:1021B00040D08E5103E18D05D8A03BD020EE02F037
:1021C0007251D9267351DA22DE50DE10DE10D8B4F7
:1021D00013D020EE02F07251D9267351DA2201D8C1
:1021E00020D00500FA6EDE50FD6EDE50FE6EDE5031
:1021F000FF6EFA50200E120072CBD9F473CBDAF4D2
:10220000DEC4E5FADDC4E6FAE5CAD9F4E6CADAF4D2
:10221000200EDF6E72CBD9F473CBDAF4DE2A000E17
:10222000DD220B018D07D8A08E078D518E11D8A409
:10223000C5D774CBF6F475CBF7F40B01744B752B43
:10224000000EF86E0800F5C48FFB8F51D8A4A8EFDC
:1022500088F0000E736F000E726F1200080E0001FE
:10226000B16F04012093C292CA922091C290CA9089
:10227000000E186F000EC16E400EC96E2095C2840C
:10228000CA94000E086F000EBF6E000EC76E000EDF
:10229000106F000EC06E000EC86E3F0E0201046F7C
:1022A00004010097C696710E436F000E446F030E33
:1022B000456F000E476F4691468B468F0095BE8452
:1022C000C6940099BE88C698000E0201056F010EE3
:1022D000D56FA00ED46FD189D18B0401009FC68E1B
:1022E000070E0201766F0401009DBE8CC69C260E6F
:1022F0000201076FD28F000E036F460E0C01006FB4
:10230000F40E016F14ECFFF0AB0E0C01006FF50E34
:10231000016F14ECFFF0110E0C01ED6F3C0EEC6F31
:10232000CB0EE82EFED7EC2FFCD7ED2FFAD7920E6E
:102330000C01006FF50E016F14ECFFF0460E0C015E
:10234000006FF40E016F14ECFFF02CC688FB2DC655
:1023500089FBEE0E8A6F090E8B6F000E8D6F0A0ED1
:102360008C6F000E8E6F35ECD7F00B018851891100
:10237000D8A407D0700E0C01006FF40E016F14EC9E
:10238000FFF02CC686FB2DC687FB000E896F000E62
:10239000886F000E8B6F010E8A6F62ECF4F02CC612
:1023A00086FB2DC687FB000E0B01896F000E886F20
:1023B000000E8B6F000E8A6F19ECF4F02CC686FBB2
:1023C0002DC687FB000E0B01896F010E886F000E72
:1023D0008B6F010E8A6F62ECF4F02CC686FB2DC663
:1023E00087FB000E0B01896F010E886F000E8B6F4B
:1023F000000E8A6F19ECF4F02CC686FB2DC687FB05
:10240000000E0B01896F040E886F000E8B6F010E9A
:102410008A6F62ECF4F02CC686FB2DC687FB000E9B
:102420000B01896F040E886F000E8B6F000E8A6F90
:1024300019ECF4F02CC686FB2DC687FB000E0B01B1
:10244000896F070E886F000E8B6F010E8A6F62EC2A
:10245000F4F02CC686FB2DC687FB000E0B01896F9E
:10246000070E886F000E8B6F000E8A6F19ECF4F068
:102470002CC686FB2DC687FB000E0B01896F020E52
:10248000886F000E8B6F010E8A6F62ECF4F02CC621
:1024900086FB2DC687FB000E0B01896F020E886F2D
:1024A000000E8B6F000E8A6F19ECF4F02CC686FBC1
:1024B0002DC687FB000E0B01896F030E886F000E7F
:1024C0008B6F010E8A6F62ECF4F02CC686FB2DC672
:1024D00087FB000E0B01896F030E886F000E8B6F58
:1024E000000E8A6F19ECF4F0000E0D01626F000E01
:1024F000616F6205D8B015D0C90E6125D96E220E64
:102500006221DA6EA50EDF6ECA0E6125D96E220E2B
:102510006221DA6E5A0EDF6E020E6127000E622310
:10252000E8D7000E636F000E646F000E656F000E3B
:10253000666F665101E1BBD0BED00D0E0C01006F7D
:10254000F60E016F63CD02FC64CD03FC65CD04FC87
:1025500066CD05FC14ECFFF028EEC9F263CDDFF484
:1025600028EECAF264CDDFF428EECBF265CDDFF4BD
:1025700063CD17FC64CD18FC65CD19FC66CD1AFC43
:10258000C90E0C011B6F220E1C6F010E1E6F000E78
:102590001D6F76ECD3F063CD17FC64CD18FC65CDD0
:1025A00019FC66CD1AFCC90E0C011B6F230E1C6FA3
:1025B000010E1E6F000E1D6F91ECDEF0C90E0A01B8
:1025C000D76F220ED86FC90ED96F230EDA6F010EA6
:1025D000DC6F000EDB6F9EECF2F0D751D811D8B44F
:1025E0002ED05F0E0C01006FF50E016F63CD02FC63
:1025F00064CD03FC65CD04FC66CD05FC14ECFFF056
:10260000AD0E0C012A6FFA0E2B6FC90E2C6F220E25
:102610002D6F010E2F6F000E2E6F3CECF5F0BF0EEC
:102620000C012A6FFA0E2B6FC90E2C6F230E2D6F23
:10263000010E2F6F000E2E6F3CECF5F03CD00D011B
:102640006351641165116611D8B426D0000E0C01D7
:10265000176F000E186F000E196F000E1A6FC90E5B
:102660001B6F230E1C6F010E1E6F000E1D6F91EC71
:10267000DEF0C90E0A01D76F220ED86FC90ED96FCE
:10268000230EDA6F010EDC6F000EDB6F9EECF2F0B2
:10269000D751D811D8B40FD0000E0D016327100EFA
:1026A0006423000E6523000E6623665104E1100EBC
:1026B000655DD8A042D763CDAAF964CDABF965CDED
:1026C000ACF966CDADF9ACC968F5ADC969F50501E0
:1026D0006A6B6B6BB70E0C01006FF40E016F63CD6C
:1026E00002FC64CD03FC65CD04FC66CD05FCAAC9E3
:1026F000ECFCABC9EDFCACC9EEFCADC9EFFC0B0EBC
:1027000005D0D890EF33EE33ED33EC33E82EF9D724
:10271000ECCC06FCEDCC07FC14ECFFF0000E0D0138
:102720005A6F000E596F5ABF0ED05A5104E1140E61
:10273000595DD8A008D00B0E0C01006FF70E016F89
:1027400014ECFFF0FFD7000E0C011E6F0A0E1D6F78
:10275000000E206F000E1F6F000E226F640E216F9F
:1027600015ECD0F01D511E11D8B410D0110E0C0173
:10277000ED6F3C0EEC6FCB0EE82EFED7EC2FFCD7A6
:10278000ED2FFAD70D01594B5A2BCDD7990EDF6F8C
:10279000200EE06F810EE16FFF0EE26F010EE36F1E
:1027A000ACECE5F00009D8B407D0F40E006FF40EDD
:1027B000016F14ECFFF0FFD7B00EDF6F090EE06F72
:1027C000840EE16FFF0EE26F04ECE1F00009D8B473
:1027D00007D0D90E006FF40E016F14ECFFF0FFD795
:1027E000000E0D01626F000E616F5E695F694AD075
:1027F000E10E0A01D76F090ED86F190ED96FFB0EC3
:10280000DA6F000EDC6F080EDB6F0CECF7F0D751BF
:10281000D811D8B412D0E10ED76F090ED86F7D0E43
:10282000D96FFC0EDA6F000EDC6F070EDB6F0CEC5D
:10283000F7F0D751D811D8A425D0A40E0C01006F01
:10284000FA0E016F61CD02FC62CD03FCE10E046F54
:10285000090E056F14ECFFF0E10E0A01D76F090EA7
:10286000D86F190ED96FFB0EDA6FB9ECFDF0D751A6
:10287000D811D8A404D061CD5EFD62CD5FFD0D01FD
:10288000614B622BB00E0C01B66F090EB76FD80EFC
:10289000B86F090EB96FB4ECEFF00009D8A404D0FA
:1028A0000901E151D8A4A4D70D01625104E1020E3F
:1028B000615DD8A09BD0B60E0C01006FFA0E016FBF
:1028C00014ECFFF09CECFCF00D01606F2F0E6065C6
:1028D0001AD03A0E606117D0D00E60250C01EC6F53
:1028E000ED6BFF0EED23EC510D01615D0C01ED511F
:1028F0000D016259D8A007D0D00E60255E6F5F6BC6
:10290000FF0E5F230AD00D0E6019D8B404D00A0E52
:102910006019D8A4D7D75FBFD5D77C0E0C01006F44
:10292000FF0E016F5ECD02FC5FCD03FC14ECFFF0E7
:10293000B00E0C01B66F090EB76F000EB86F000E27
:10294000B96FB4ECEFF0000E0D01626F000E616F15
:102950002FD0E10E0A01D76F090ED86F190ED96F6B
:10296000FB0EDA6F000EDC6F080EDB6F0CECF7F07D
:10297000D751D811D8B412D0E10ED76F090ED86F45
:102980007D0ED96FFC0EDA6F000EDC6F070EDB6F69
:102990000CECF7F0D751D811D8A40AD00D01615131
:1029A0005E1904E162515F19D8B414D0614B622BF7
:1029B000B00E0C01B66F090EB76FD80EB86F090EC6
:1029C000B96FB4ECEFF00009D8A404D00901E151CB
:1029D000D8A4BFD7760E0C01006FF60E016FE10E82
:1029E000026F090E036F14ECFFF00BD0E10E0A0129
:1029F000D76F090ED86F190ED96FFB0EDA6F83EC03
:102A000000F0B00E0A01E36F090EE46F4CEC01F028
:102A1000000E0D015D6F000E5C6F7AD00D015C51F0
:102A2000410F5B6F430E0C01006F0D0E016FFC0E2A
:102A3000026FF60E036FE10E046F090E056F5BCD9A
:102A400006FC076B07ECFEF0AEC9D7FAAFC9D8FA9F
:102A5000020E0A01DA6F220ED96F5DEC02F0890EC8
:102A6000D7250C01DF6F0F0E0A01D8210C01E06F92
:102A7000430EE16F0D0EE26F030EE36FEEECA1F07B
:102A80000009D8A442D0E20E0C01006FF30E016FD2
:102A9000E10E026F090E036F5BCD04FC056B5BCD8D
:102AA00006FC076B14ECFFF0AEC9D7FAAFC9D8FA31
:102AB000020E0A01DA6F220ED96F5DEC02F0890E68
:102AC000D7250C01EC6F0F0E0A01D8210C01ED6F18
:102AD000800EEE6F0A0EEF6F020EEE27000EEF2350
:102AE000D8900D015C35D96E5D35DA6ED890D93647
:102AF000DA360C01EE51D926EF51DA22ECCCDEF4B5
:102B0000EDCCDDF40901AE4BAF2B0D015C4B5D2B21
:102B10005D510DE1100E5C5DD8B009D00901AFBF69
:102B20007DD7AF5104E1080EAE5DD8A077D70A017A
:102B300082518311D8A408D0CD0E0C01006FF60E7F
:102B4000016F14ECFFF0FFD7000E0C01176F000EA1
:102B5000186F000E196F000E1A6FAB0E1B6FF10E7F
:102B60001C6F010E1E6F040E1D6F76ECD3F0000E6D
:102B70000401186F1969C968000E086F0969C768F0
:102B8000000E106F1169C86800910181C680009322
:102B90000183C682009B018BC68A189D198DC98C42
:102BA000189FC18EC99E010E0201616F000E626FF7
:102BB0001E0E636F050E656F010E056F020E036F2B
:102BC000030E206F000E0001D56F000ED86F020EAD
:102BD000D96F040EDA6F7F0EDB6F010EDC6F080E0B
:102BE000DD6F100EDE6F400EDF6F800ED76F820E2E
:102BF000D66F010ED56F000ED86F020ED96F040E7E
:102C0000DA6F7F0EDB6F010EDC6F080EDD6F200EBA
:102C1000DE6F400EDF6F800ED76F820ED66F020E12
:102C2000D56F010ED86F7F0ED96F7F0EDA6F7F0ED2
:102C3000DB6F010EDC6F000EDD6F000EDE6F000E2D
:102C4000DF6F820ED76F8C0ED66F000ED46F550ECD
:102C50000401596FAA0E596F5991080E5D6F000E4D
:102C60005E6F000E5F6F550E596FAA0E596F598136
:102C7000B59AA58AA780D68EC280C282460E0C0164
:102C8000006FF40E016F14ECFFF0FFD7B3CCD9F452
:102C9000B4CCDAF4000EDE6E000EDD6EB1CCD7FAE5
:102CA000B2CCD8FAA5ECDCF0D7CAC2FCD8CAC3FCB7
:102CB0000C01C3AF02D00B0E1200D890C235D96EF2
:102CC000C335DA6E480ED926070EDA22DEC4DDFCE3
:102CD000DDC4DEFCDD51DE11D8A402D00C0E1200E2
:102CE000B3CCD9F4B4CCDAF4DDCCDEF4DECCDDF454
:102CF000B591DDCCD9F4DECCDAF4DF50D8B415D000
:102D000020EE01F0DD51D926DE51DA22DF50FAEC57
:102D100001F00C01D26FD2B108D0B551D8A4D2A520
:102D200002D00A0E1200000E1200DDCCD9F4DECC67
:102D3000DAF4000EDF6E20EE01F0DD51D926DE510F
:102D4000DA22DF502EECE2F00C01D26FD2A102D0D9
:102D5000030E1200B551D8B402D0D2B5E2D7DDCC03
:102D60005FFCDECC60FC000E626F000E616FABECAE
:102D7000D2F05FCCDBFC60CCDCFC040EDB19DC1198
:102D8000D8A402D0010E1200DC5104E1020EDB5D7A
:102D9000D8A002D00D0E120020EE2CF0DD51D92665
:102DA000DE51DA22DEC4CEFCDEC4CFFCDEC4D0FCB1
:102DB000DEC4D1FC3B0EDD250A01D76F000E0C01ED
:102DC000DE210A01D86FA6ECFFF0020ED819D71148
:102DD000D8A4E0D7460E0C01DD250A01D76F000EFE
:102DE0000C01DE210A01D86FA6ECFFF0D7CAD7FC90
:102DF000D8CAD8FC0C01D96BDA6BD751D811D911CC
:102E0000DA11D8A413D0540EDD250A01D76F000EB5
:102E10000C01DE210A01D86F3AECEBF0D7CAD7FCDF
:102E2000D8CAD8FCD9CAD9FCDACADAFC0C0120EE1F
:102E300018F0DD51D926DE51DA22D7CCDEF4D8CC19
:102E4000DEF4D9CCDEF4DACCDEF420EE40F0DD5155
:102E5000D926DE51DA2210EE03F0DD51E126DE51F3
:102E6000E222DFC4E7F420EE03F0DD51D926DE5183
:102E7000DA22DE04D8B40AD020EE03F0DD51D926E0
:102E8000DE51DA22020EDE18D8A484D7D7CCD7FAC6
:102E9000D8CCD8FAD9CCD9FADACCDAFA20EE03F0C9
:102EA000DD51D926DE51DA22DF50B66FB6510A0164
:102EB000DB6FDC6BDD6BDE6BF3ECFBF0D7CAD7FCB2
:102EC000D8CAD8FCD9CAD9FCDACADAFC0C0120EE7F
:102ED0003DF0DD51D926DE51DA22DF50B66FB76BF7
:102EE00020EE0AF0DD51D926DE51DA22B6CCDEF42E
:102EF000B7CCDDF420EE0AF0DD51D926DE51DA221E
:102F0000DE50DE10D8B446D720EE0AF0DD51D926C7
:102F1000DE51DA22DEC4B6FCDDC4B7FC20EE0AF0D6
:102F2000DD51D926DE51DA22DEC4B8FCDDC4B9FC9D
:102F3000FF0EB825BA6FFF0EB921BB6FB651BA1597
:102F4000BC6FB751BB15BD6FBC51BD11D8A422D702
:102F5000410EDD250A01D76F000E0C01DE210A01AA
:102F6000D86FA6ECFFF00C0120EE08F0DD51D92659
:102F7000DE51DA220A01D7CADEF4D8CADDF40C0128
:102F800020EE08F0DD51D926DE51DA22DF50B66F8F
:102F90000F0EB617D8A4FED6430EDD250A01D76F53
:102FA000000E0C01DE210A01D86FA6ECFFF0D7CA93
:102FB000CAFCD8CACBFC0C01CC6BCD6BCA51CB116F
:102FC000CC11CD11D8A413D0500EDD250A01D76F36
:102FD000000E0C01DE210A01D86F3AECEBF0D7CAE3
:102FE000CAFCD8CACBFCD9CACCFCDACACDFC3E0E8E
:102FF0000C01DD250A01D76F000E0C01DE210A014C
:10300000D86FA6ECFFF0D7CAC8FCD8CAC9FC0C011F
:10301000C851C911D8B4BED620EE08F0DD51D9266A
:10302000DE51DA22DEC4B6FCDDC4B7FC040EB86F94
:10303000D890B733B633B82FFBD7C851B625B96F80
:10304000C951B721BA6FBB6BD8B0BB2BBC6BD75182
:10305000B925C46FD851BA21C56FD951BB21C66FEC
:10306000DA51BC21C76FC451CA5DC551CB59C65195
:10307000CC59C751CD59D8A08DD6C451CA5D0A01CB
:10308000D76F0C01C551CB590A01D86F0C01C6513D
:10309000CC590A01D96F0C01C751CD590A01DA6F19
:1030A0000C0120EE0AF0DD51D926DE51DA22DEC411
:1030B000B6FCDDC4B7FCB6CCDBFAB7CCDCFA0A014F
:1030C000DD6BDE6B8BECF6F0D7CAD3FCD8CAD4FC30
:1030D000D9CAD5FCDACAD6FC0C01D351D411D5110A
:1030E000D611D8B457D6000EDC6F000EDB6FF60E8B
:1030F000D35DFF0ED459FF0ED5590F0ED659D8B057
:1031000004D0000EDC6F030EDB6FD651D5110AE13F
:10311000F60ED35DFF0ED459D8B004D0000EDC6F8C
:10312000020EDB6FD651D5110AE1F60ED35D0F0EFC
:10313000D459D8B004D0000EDC6F010EDB6FDB5128
:10314000DC11D8B427D6020ED325B66F000ED421D9
:10315000B76F000ED521B86F000ED621B96F20EEE3
:1031600014F0DD51D926DE51DA22B6CCDEF4B7CC2C
:10317000DEF4B8CCDEF4B9CCDEF420EE1CF0DD5188
:10318000D926DE51DA22CECCDEF4CFCCDEF4D0CCA0
:10319000DEF4D1CCDEF4C851CE25B66FC951CF21B3
:1031A000B76F000ED021B86F000ED121B96F20EE9D
:1031B00020F0DD51D926DE51DA22B6CCDEF4B7CCD0
:1031C000DEF4B8CCDEF4B9CCDEF4C451CE25B66F53
:1031D000C551CF21B76FC651D021B86FC751D1218A
:1031E000B96F20EE28F0DD51D926DE51DA22B6CCB7
:1031F000DEF4B7CCDEF4B8CCDEF4B9CCDEF4030EEA
:10320000DB19DC11D8A455D05A0EDD250A01D76F81
:10321000000E0C01DE210A01D86FA6ECFFF0D75199
:10322000D811D8A4B7D50C0120EE08F0DD51D9266D
:10323000DE51DA22DE50DE10D8A4ACD55C0EDD25DE
:103240000A01D76F000E0C01DE210A01D86F3AEC9B
:10325000EBF00C0120EE24F0DD51D926DE51DA220C
:103260000A01D7CADEF4D8CADEF4D9CADEF4DACA53
:10327000DEF40C0120EE14F0DD51D926DE51DA2205
:10328000DEC4B6FCDEC4B7FCDEC4B8FCDEC4B9FCE8
:10329000020ED890B637B737B837B937E82EF9D716
:1032A000B6CCBEFCB7CCBFFCB8CCC0FCB9CCC1FC22
:1032B0009BD020EE08F0DD51D926DE51DA22DE5017
:1032C000DE10D8B467D520EE20F0DD51D926DE51CE
:1032D000DA22DEC4B6FCDEC4B7FCDEC4B8FCDEC451
:1032E000B9FCD751B625BA6FD851B721BB6FD951A8
:1032F000B821BC6FDA51B921BD6F20EE24F0DD5149
:10330000D926DE51DA22BACCDEF4BBCCDEF4BCCC5A
:10331000DEF4BDCCDEF4020EDB19DC11D8B44DD0E6
:1033200020EE14F0DD51D926DE51DA22DEC4B6FCDF
:10333000DEC4B7FCDEC4B8FCDEC4B9FC010EB615B1
:10334000BA6F000EB715BB6F000EB815BC6F000E3C
:10335000B915BD6F20EE14F0DD51D926DE51DA2209
:10336000DEC4D7FADEC4D8FADEC4D9FADEC4DAFA8B
:10337000030E0A01DB6F000EDC6F000EDD6F000E26
:10338000DE6FF3ECFBF0D890DA33D933D833D73390
:103390000C01BA510A01D7250C01BE6FBB510A01BD
:1033A000D8210C01BF6FBC510A01D9210C01C06F9B
:1033B000BD510A01DA210C0116D020EE14F0DD51C6
:1033C000D926DE51DA22DEC4B6FCDEC4B7FCDEC488
:1033D000B8FCDEC4B9FCD890B635BE6FB735BF6F48
:1033E000B835C06FB935C16FFF0EBE25B66F010E7F
:1033F000BF21B76F000EC021B86F000EC121B96F99
:103400000A0E05D0D890B933B833B733B633E82EA7
:10341000F9D720EE18F0DD51D926DE51DA22B65167
:10342000DE5CB751DE58B851DE58B951DE58D8A02D
:10343000B1D420EE10F0DD51D926DE51DA22FF0E94
:10344000DE6EFF0EDE6EFF0EDE6EFF0EDD6EDD52F7
:10345000DD5210EE0CF0DD51E126DE51E222DEC439
:10346000E6F4DEC4E6F4DEC4E6F4DEC4E6F420EE00
:1034700005F0DD51D926DE51DA22800EDF6E030E13
:10348000DB19DC11D8A4A9D0600EDD250A01D76FA5
:10349000000E0C01DE210A01D86FA6ECFFF0D70563
:1034A000D811D8A49AD0DDCC46FCDECC47FC010E66
:1034B0000C01CE25486F000ECF21496F000ED021A0
:1034C0004A6F000ED1214B6F5FECF0F00009D8A4D9
:1034D00084D020EE05F0DD51D926DE51DA22000E2F
:1034E000DF6E2E0EDD250A01D76F020E0C01DE21E4
:1034F0000A01D86FA6ECFFF0550ED7196EE1AA0E9F
:10350000D819D8A46AD0300E0C01DD250A01D76F76
:10351000000E0C01DE210A01D86F3AECEBF0520EDE
:10352000D7195BE1520ED81958E1610ED91955E14E
:10353000410EDA19D8A451D0140E0C01DD250A0170
:10354000D76F020E0C01DE210A01D86F3AECEBF0C6
:10355000720ED71942E1720ED8193FE1410ED91906
:103560003CE1610EDA19D8A438D0180E0C01DD2523
:103570000A01D76F020E0C01DE210A01D86F3AEC66
:10358000EBF00C0120EE10F0DD51D926DE51DA22ED
:103590000A01D7CADEF4D8CADEF4D9CADEF4DACA20
:1035A000DEF41C0E0C01DD250A01D76F020E0C01A2
:1035B000DE210A01D86F3AECEBF00C0120EE0CF0A2
:1035C000DD51D926DE51DA220A01D7CADEF4D8CA83
:1035D000DEF4D9CADEF4DACADEF4DDCCD9F4DECC0E
:1035E000DAF4DBCCDFF40801BF4BC02B0C0120EE7A
:1035F00006F0DD51D926DE51DA22BFC8DEF4C0C89C
:10360000DDF493EF96F01FC936F920C937F923C9C5
:10361000D9F424C9DAF4000EDE6E000EDD6E1DC989
:1036200012F61EC913F6460E0601146F090E156F29
:103630007CECEAF00901356F3551D8A40BD020EEAF
:103640000FF01D51D9261E51DA22DF50356F35514A
:10365000D8B402D03551120020EE0EF01D51D926FB
:103660001E51DA22DFB202D0070E120020EE10F057
:103670001D51D9261E51DA2210EE10F01D51E126FF
:103680001E51E222E6C429F9E6C42AF9E6C42BF960
:10369000E6C42CF9215129252D6F22512A212E6FA4
:1036A000000E2B212F6F000E2C21306FDE502D5D70
:1036B000DE502E59DE502F59DE503059D8B00ED082
:1036C00020EE10F01D51D9261E51DA22DEC425F954
:1036D000DDC426F9251D216F261D226F21512211DF
:1036E000D8B40FD320EE10F01D51D9261E51DA2286
:1036F000FF0EDE14256F010EDE14266F000EDE14A1
:10370000276F000EDE14286F25512611271128116E
:10371000D8A450D220EE10F01D51D9261E51DA2225
:10372000DEC425F9DEC426F9DEC427F9DEC428F993
:103730000A0E05D0D8902833273326332533E82EB8
:10374000F9D720EE0AF04651D9264751DA22DEC4D5
:1037500029F9DDC42AF9FF0E29252B6FFF0E2A2136
:103760002C6F25512B15386F26512C15396F385178
:103770003911D8A49CD020EE10F01D51D9261E512D
:10378000DA22DE50DE10DE10DE10D8A423D020EEC8
:1037900006F01D51D9261E51DA22DEC43CF9DEC4E2
:1037A0003DF9DEC43EF9DEC43FF93C513D113E1106
:1037B0003F11D8A42BD01DC900F91EC901F9000E74
:1037C000026F000E036F000E046F000E056F99EC80
:1037D000ABF014D01DC900F91EC901F920EE14F098
:1037E0001D51D9261E51DA22DEC402F9DEC403F9C6
:1037F000DEC404F9DEC405F999ECABF000C93CF96C
:1038000001C93DF902C93EF903C93FF93C513D11D7
:103810003E113F11D8B475D23C053D113E113F1108
:10382000D8A40AD020EE0FF01D51D9261E51DA225D
:10383000020EDF6E020E12003C2911E13D290FE15C
:103840003E290DE13F29D8A40AD020EE0FF01D51EA
:10385000D9261E51DA22010EDF6E010E120020EE73
:1038600014F01D51D9261E51DA223CC9DEF43DC99F
:10387000DEF43EC9DEF43FC9DEF420EE06F01D5151
:10388000D9261E51DA22DE50DE10DE10DE10D8A45A
:103890000ED020EE06F01D51D9261E51DA223CC969
:1038A000DEF43DC9DEF43EC9DEF43FC9DEF420EEAD
:1038B0000EF01D51D9261E51DA22DFAE33D0220E72
:1038C0001D250801726F000E09011E210801736F8A
:1038D000090120EE18F01D51D9261E51DA22DEC44E
:1038E00074F8DEC475F8DEC476F8DEC477F8000E2E
:1038F0000801796F010E786F090120EE01F0465141
:10390000D9264751DA22DF5070ECF8F00009D8A42C
:1039100040D1090120EE0EF01D51D9261E51DA22A8
:103920007F0EDF1646C924F747C925F720EE14F0AD
:103930001D51D9261E51DA22DEC426F7DEC427F730
:10394000DEC428F7DEC429F7F0ECE6F024C742F91C
:1039500025C743F926C744F927C745F9090142514C
:10396000431144114511D8B45DD73851422739511C
:103970004323000E4423000E452321C925F922C903
:1039800026F9090E276FD89026332533272FFBD72A
:1039900025C93AF926C93BF93A513B11D8B4AED002
:1039A0003A513825256F3B513921266F20EE0AF018
:1039B0004651D9264751DA222551DE5C2651DE5880
:1039C000D8B010D020EE0AF04651D9264751DA225D
:1039D000DEC425F9DDC426F93851255D3A6F395129
:1039E00026593B6F36C972F837C973F842C974F863
:1039F00043C975F844C976F845C977F83AC978F8E3
:103A00003BC979F820EE01F04651D9264751DA2218
:103A1000DF5070ECF8F00009D8A4BBD009013A518E
:103A2000256F3B51266F276B286B20EE18F01D5138
:103A3000D9261E51DA22DEC429F9DEC42AF9DEC4F1
:103A40002BF9DEC42CF94251295D2D6F43512A59BF
:103A50002E6F44512B592F6F45512C59306F2551E2
:103A60002D5D26512E5927512F5928513059D8B044
:103A700036D0220E1D250601116F000E09011E21F0
:103A80000601126F090120EE18F01D51D9261E51B2
:103A9000DA22DEC425F9DDC426F94251255F4351FF
:103AA000265B090ED89025372637E82EFBD72551FF
:103AB00036250601136F0901265137210601146FBF
:103AC000020E166F000E156FC4ECFBF0090120EE1C
:103AD0000EF01D51D9261E51DA227F0EDF163AC98B
:103AE00025F93BC926F9090ED89025372637E82E47
:103AF000FBD725C940F926C941F9B0D020EE18F00E
:103B00001D51D9261E51DA224251DE180AE14351D5
:103B1000DE1807E14451DE1804E14551DE18D8B43F
:103B20003AD020EE0AF01D51D9261E51DA2210EEAD
:103B300010F01D51E1261E51E222DE50E65CDE50FF
:103B4000E658DE50E658DE50E658D8B024D0220EB3
:103B50001D250801746F000E09011E210801756FF3
:103B600042C976F843C977F844C978F845C979F865
:103B7000000E7B6F010E7A6F090120EE01F04651B5
:103B8000D9264751DA22DF50A9ECF8F00009D8B461
:103B900002D009015AD6090120EE18F01D51D9268C
:103BA0001E51DA2242C9DEF443C9DEF444C9DEF410
:103BB00045C9DEF420EE10F01D51D9261E51DA223F
:103BC000DEC425F9DDC426F9FF0E2515276F010E89
:103BD0002615286F27510008406F2851D8A0E82AE1
:103BE0000208416F4051215D41512259D8B004D0A3
:103BF00021C940F922C941F920EE10F01D51D92602
:103C00001E51DA22DEC425F9DDC426F9FF0E251582
:103C1000276F010E2615286F27511D25296F285162
:103C20001E212A6F220E29250601116F000E09019F
:103C30002A210601126F36C913F637C914F640C996
:103C400015F641C916F6C4ECFBF0090120EE0EF0A2
:103C50001D51D9261E51DA22000EDB8E4051215F04
:103C60004151225B23C9D9F424C9DAF44051DE263C
:103C70004151DD22405136274151372320EE10F0CB
:103C80001D51D9261E51DA224051DE264151DE2235
:103C9000000EDE22DE2220EE10F01D51D9261E512C
:103CA000DA2210EE0AF01D51E1261E51E222DE500A
:103CB000E65CDE50E658DE50E658DE50E658D8A006
:103CC00003D020EE0AF002D020EE10F01D51D926CC
:103CD0001E51DA22DEC431F9DEC432F9DEC433F912
:103CE000DEC434F920EE0AF01D51D9261E51DA2225
:103CF00031C9DEF432C9DEF433C9DEF434C9DEF48E
:103D0000EDD420EE0EF01D51D9261E51DA22000E00
:103D1000DB8C000E12001DC912F61EC913F6400EF0
:103D20000601146F090E156F7CECEAF00901376F7C
:103D30003751D8A408D020EE0FF01D51D9261E51BE
:103D4000DA22DF50376F3751D8B402D03751120022
:103D500020EE0AF01D51D9261E51DA221F51DE5CD9
:103D60002051DE582151DE582251DE58D8B016D0ED
:103D700020EE0EF01D51D9261E51DA22DFB20ED0F0
:103D800020EE0AF01D51D9261E51DA22DEC41FF999
:103D9000DEC420F9DEC421F9DEC422F920EE10F0E1
:103DA0001D51D9261E51DA22DEC433F9DEC434F99E
:103DB000DEC435F9DEC436F9000E386F000E396FF7
:103DC000000E3A6F000E3B6F20EE10F01D51D92609
:103DD0001E51DA2238C9DEF439C9DEF43AC9DEF4FC
:103DE0003BC9DEF41F51201121112211D8B42AD26F
:103DF00020EE0AF04051D9264151DA22DEC423F9DF
:103E0000DDC424F92351256F2451266F276B286BBD
:103E1000090ED8902537263727372837E82EF9D7C7
:103E200025C93CF926C93DF927C93EF928C93FF9FA
:103E30003351341135113611D8B4ABD0FF0E1F25D4
:103E40000601116FFF0E090120210601126FFF0EFE
:103E5000090121210601136FFF0E0901222106012C
:103E6000146F3CC915F63DC916F63EC917F63FC991
:103E700018F6C6ECF5F011C623F912C624F913C6DC
:103E800025F914C626F9FF0E090133250601116F25
:103E9000FF0E090134210601126FFF0E09013521C1
:103EA0000601136FFF0E090136210601146F3CC98C
:103EB00015F63DC916F63EC917F63FC918F6C6EC09
:103EC000F5F011510901235D060112510901245930
:103ED00006011351090125590601145109012659FA
:103EE000D8A057D0FF0E3C25236FFF0E3D21246F35
:103EF000FF0E3E21256FFF0E3F21266F231D276FEA
:103F0000241D286F251D296F261D2A6FFF0E3325BE
:103F10002B6FFF0E34212C6FFF0E35212D6FFF0EFE
:103F200036212E6F27512B152F6F28512C15306FEE
:103F300029512D15316F2A512E15326F20EE10F0B8
:103F40001D51D9261E51DA222FC9DEF430C9DEF404
:103F500031C9DEF432C9DEF420EE10F01D51D9264D
:103F60001E51DA22DE501F5FDE50205BDE50215BE7
:103F7000DD50225B20EE14F01D51D9261E51DA22AD
:103F8000DEC442F9DEC443F9DEC444F9DEC445F9B7
:103F900069D020EE06F01D51D9261E51DA22DEC46A
:103FA00042F9DEC443F9DEC444F9DEC445F94251A6
:103FB000431144114511D8A447D01DC900F91EC9A9
:103FC00001F9000E026F000E036F000E046F000E69
:103FD000056F99ECABF000C942F901C943F902C978
:103FE00044F903C945F94205431144114511D8A4C8
:103FF0000AD020EE0FF01D51D9261E51DA22020EF2
:10400000DF6E020E1200422911E143290FE144291B
:104010000DE14529D8A40AD020EE0FF01D51D92674
:104020001E51DA22010EDF6E010E120020EE06F0A4
:104030001D51D9261E51DA2242C9DEF443C9DEF4ED
