:0400000081EF00F09C
:10000800B863B863B863B8634000B8634000B863C6
:10001800B863B863B863B863B863B863B863B86300
:10002800B863400040004000B863B863B863B86381
:10003800B863B863B863B863B863B863B863B863E0
:10004800B863B863B863B86340004000B863B86386
:10005800B863B863B8634000B863B863B863B8639B
:10006800B863B863B863B863B863B863B863B863B0
:10007800B863B863B863B8634000BF4EB863B86389
:10008800B863B863B863B863B863B863B863B86390
:10009800B863B863B863B8634000B8634000400011
:1000A800B863B863B863B863B863B863B863B86370
:1000B800B863B863B863B863B863B863B863B86360
:1000C800B863B863B863B863B863B863B863B86350
:1000D800B863B863B863B863B863B863B863B86340
:1000E8004000B863B863B863400040004000400077
:0E00F800B863B863B863B863FF0002EFBFF0EF
:10FE380000C3960000000000000000000000000061
:10FE480000000000000000000000000000000000AA
:10FE5800000000000000000000000000000000009A
:10FE6800000000000000000000000000000000008A
:10FE7800000000000000000000000000000000007A
:10FE8800000000000000000000000000000000006A
:10FE9800000000000000000000000000000000005A
:10FEA800000000000000000000000000000000004A
:10FEB80000424F4F543A206572726F7220626F6F22
:10FEC80074696E670D0A00010100210000AFD30AB2
:10FED80078D30B79D30C7DD30F7CD310AFD30DDB44
:10FEE8000EB7CA00002180007EB7CAC200D3012322
:10FEF800C3B700F376819FE0FC407E80FC000001E0
:10FF080000100000010010496D6167652066696C8A
:10FF18006520445249564525632E44534B20697346
:10FF28002061737369676E656420746F20647269F9
:10FF380076652025630A0D00257325353373204324
:10FF48004845434B53554D3A20253032780A0D0029
:10FF580043504D4449534B532F445249564525630A
:10FF68002E44534B00665F777269746528293A20DE
:10FF78004552524F520A0D00665F6C7365656B28D7
:10FF8800293A204552524F520A0D00665F72656148
:10FF98006428293A204552524F520A0D0030313216
:10FFA80033343536373839616263646566004E6FBD
:10FFB80020626F6F74206469736B2E0A0D002A2B00
:10FFC8002C3A3B3C3D3E5B5D7C223F7F00464154E2
:10FFD8003332202020002573253034783A00286EEB
:10FFE800756C6C29002025730A0D002025303278A5
:07FFF80000303A2F2F00003A
:020000040001F9
:10000000D0C6D9F4D1C6DAF4000EDE6E000EDD6E75
:10001000CEC600F6CFC601F6D1ECB4F000C6DFF6CE
:1000200001C6E0F6E0AF02D00B0E1200D890DF352B
:10003000D96EE035DA6EDC0ED926070EDA22DEC480
:10004000FAF6DDC4FBF6FA51FB11D8A402D00C0E6F
:100050001200D0C6D9F4D1C6DAF4FAC6DEF4FBC673
:10006000DDF4D291FAC6D9F4FBC6DAF4DF50D8B485
:1000700015D020EE01F0FA51D926FB51DA22DF50DB
:10008000B4ECC6F00601EF6FEFB108D0D251D8A49E
:10009000EFA502D00A0E1200000E1200FAC6D9F423
:1000A000FBC6DAF4000EDF6E20EE01F0FA51D9261D
:1000B000FB51DA22DF509EECB6F00601EF6FEFA1A4
:1000C00002D0030E1200D251D8B402D0EFB5E2D75D
:1000D000FAC67DF6FBC67EF6000E806F000E7F6FBF
:1000E00099ECB2F07DC6F8F67EC6F9F6040EF81962
:1000F000F911D8A402D0010E1200F95104E1020E48
:10010000F85DD8A002D00D0E120020EE2CF0FA51AE
:10011000D926FB51DA22DEC4EBF6DEC4ECF6DEC4EF
:10012000EDF6DEC4EEF63B0EFA25006F000EFB2165
:10013000016FC7ECC5F0020E01190011D8A4E3D776
:10014000460EFA25006F000EFB21016FC7ECC5F0CB
:1001500000C6F4F601C6F5F6F66BF76BF451F5112F
:10016000F611F711D8A410D0540EFA25006F000E26
:10017000FB21016FB7ECBBF000C6F4F601C6F5F643
:1001800002C6F6F603C6F7F620EE18F0FA51D926A5
:10019000FB51DA22F4C6DEF4F5C6DEF4F6C6DEF470
:1001A000F7C6DEF420EE40F0FA51D926FB51DA22F0
:1001B00010EE03F0FA51E126FB51E222DFC4E7F42E
:1001C00020EE03F0FA51D926FB51DA22DE04D8B42E
:1001D0000AD020EE03F0FA51D926FB51DA22020EA2
:1001E000DE18D8A490D7F4C600F6F5C601F6F6C618
:1001F00002F6F7C603F620EE03F0FA51D926FB51BA
:10020000DA22DF50D36FD351046F056B066B076B97
:100210003BECC4F000C6F4F601C6F5F602C6F6F6ED
:1002200003C6F7F620EE3DF0FA51D926FB51DA224B
:10023000DF50D36FD46B20EE0AF0FA51D926FB5170
:10024000DA22D3C6DEF4D4C6DDF420EE0AF0FA5189
:10025000D926FB51DA22DE50DE10D8B454D720EE76
:100260000AF0FA51D926FB51DA22DEC4D3F6DDC4F6
:10027000D4F620EE0AF0FA51D926FB51DA22DEC478
:10028000D5F6DDC4D6F6FF0ED525D76FFF0ED621E5
:10029000D86FD351D715D96FD451D815DA6FD9513A
:1002A000DA11D8A430D7410EFA25006F000EFB21D9
:1002B000016FC7ECC5F020EE08F0FA51D926FB51CA
:1002C000DA2200C6DEF401C6DDF420EE08F0FA51B1
:1002D000D926FB51DA22DF50D36F0F0ED317D8A4E3
:1002E00012D7430EFA25006F000EFB21016FC7ECF9
:1002F000C5F000C6E7F601C6E8F6E96BEA6BE75120
:10030000E811E911EA11D8A410D0500EFA25006FB7
:10031000000EFB21016FB7ECBBF000C6E7F601C68B
:10032000E8F602C6E9F603C6EAF63E0EFA25006FC5
:10033000000EFB21016FC7ECC5F000C6E5F601C653
:10034000E6F6E551E611D8B4DED620EE08F0FA5113
:10035000D926FB51DA22DEC4D3F6DDC4D4F6040E6E
:10036000D56FD890D433D333D52FFBD7E551D325D0
:10037000D66FE651D421D76FD86BD8B0D82BD96BB4
:10038000F451D625E16FF551D721E26FF651D8210E
:10039000E36FF751D921E46FE151E75DE251E8598C
:1003A000E351E959E451EA59D8A0ADD6E151E75DEE
:1003B000006FE251E859016FE351E959026FE451CE
:1003C000EA59036F20EE0AF0FA51D926FB51DA22DE
:1003D000DEC4D3F6DDC4D4F6D3C604F6D4C605F61F
:1003E000066B076BCFECBFF000C6F0F601C6F1F666
:1003F00002C6F2F603C6F3F6F051F111F211F31151
:10040000D8B481D6000EF96F000EF86FF60EF05DCD
:10041000FF0EF159FF0EF2590F0EF359D8B004D068
:10042000000EF96F030EF86FF351F2110AE1F60EA8
:10043000F05DFF0EF159D8B004D0000EF96F020E36
:10044000F86FF351F2110AE1F60EF05D0F0EF1595B
:10045000D8B004D0000EF96F010EF86FF851F91101
:10046000D8B451D6020EF025D36F000EF121D46F0F
:10047000000EF221D56F000EF321D66F20EE14F09E
:10048000FA51D926FB51DA22D3C6DEF4D4C6DEF403
:10049000D5C6DEF4D6C6DEF420EE1CF0FA51D9261D
:1004A000FB51DA22EBC6DEF4ECC6DEF4EDC6DEF478
:1004B000EEC6DEF4E551EB25D36FE651EC21D46FA7
:1004C000000EED21D56F000EEE21D66F20EE20F04C
:1004D000FA51D926FB51DA22D3C6DEF4D4C6DEF4B3
:1004E000D5C6DEF4D6C6DEF4E151EB25D36FE2517A
:1004F000EC21D46FE351ED21D56FE451EE21D66F9D
:1005000020EE28F0FA51D926FB51DA22D3C6DEF4C8
:10051000D4C6DEF4D5C6DEF4D6C6DEF4030EF81972
:10052000F911D8A44BD05A0EFA25006F000EFB210A
:10053000016FC7ECC5F000510111D8A4E4D520EE3D
:1005400008F0FA51D926FB51DA22DE50DE10D8A489
:10055000DAD55C0EFA25006F000EFB21016FB7ECB7
:10056000BBF020EE24F0FA51D926FB51DA2200C666
:10057000DEF401C6DEF402C6DEF403C6DEF420EECD
:1005800014F0FA51D926FB51DA22DEC4D3F6DEC4C8
:10059000D4F6DEC4D5F6DEC4D6F6020ED890D33734
:1005A000D437D537D637E82EF9D7D3C6DBF6D4C63D
:1005B000DCF6D5C6DDF6D6C6DEF691D020EE08F024
:1005C000FA51D926FB51DA22DE50DE10D8B49BD581
:1005D00020EE20F0FA51D926FB51DA22DEC4D3F600
:1005E000DEC4D4F6DEC4D5F6DEC4D6F6F451D32587
:1005F000D76FF551D421D86FF651D521D96FF75166
:10060000D621DA6F20EE24F0FA51D926FB51DA22F6
:10061000D7C6DEF4D8C6DEF4D9C6DEF4DAC6DEF418
:10062000020EF819F911D8B443D020EE14F0FA51A3
:10063000D926FB51DA22DEC4D3F6DEC4D4F6DEC4FA
:10064000D5F6DEC4D6F6010ED315D76F000ED4153D
:10065000D86F000ED515D96F000ED615DA6F20EEC3
:1006600014F0FA51D926FB51DA22DEC400F6DEC4BA
:1006700001F6DEC402F6DEC403F6030E046F000EBC
:10068000056F000E066F000E076F3BECC4F0D890AC
:100690000333023301330033D7510025DB6FD851C8
:1006A0000121DC6FD9510221DD6FDA51032116D00F
:1006B00020EE14F0FA51D926FB51DA22DEC4D3F62B
:1006C000DEC4D4F6DEC4D5F6DEC4D6F6D890D33573
:1006D000DB6FD435DC6FD535DD6FD635DE6FFF0EC1
:1006E000DB25D36F010EDC21D46F000EDD21D56F29
:1006F000000EDE21D66F0A0E05D0D890D633D53342
:10070000D433D333E82EF9D720EE18F0FA51D92696
:10071000FB51DA22D351DE5CD451DE58D551DE587C
:10072000D651DE58D8A0EFD420EE10F0FA51D926D9
:10073000FB51DA22FF0EDE6EFF0EDE6EFF0EDE6E66
:10074000FF0EDD6EDD52DD5210EE0CF0FA51E126A7
:10075000FB51E222DEC4E6F4DEC4E6F4DEC4E6F4D5
:10076000DEC4E6F420EE05F0FA51D926FB51DA2278
:10077000800EDF6E030EF819F911D8A48ED0600E2A
:10078000FA25006F000EFB21016FC7ECC5F00005D4
:100790000111D8A482D0FAC664F6FBC665F6010E34
:1007A000EB25666F000EEC21676F000EED21686F80
:1007B000000EEE21696F78ECBDF00009D8A46DD071
:1007C00020EE05F0FA51D926FB51DA22000EDF6E39
:1007D0002E0EFA25006F020EFB21016FC7ECC5F04B
:1007E000550E00195AE1AA0E0119D8A456D0300EA0
:1007F000FA25006F000EFB21016FB7ECBBF0520E23
:1008000000194BE1520E011948E1610E021945E150
:10081000410E0319D8A441D0140EFA25006F020E20
:10082000FB21016FB7ECBBF0720E001936E1720EBE
:10083000011933E1410E021930E1610E0319D8A408
:100840002CD0180EFA25006F020EFB21016FB7ECB9
:10085000BBF020EE10F0FA51D926FB51DA2200C687
:10086000DEF401C6DEF402C6DEF403C6DEF41C0EBE
:10087000FA25006F020EFB21016FB7ECBBF020EEF2
:100880000CF0FA51D926FB51DA2200C6DEF401C67B
:10089000DEF402C6DEF403C6DEF4FAC6D9F4FBC603
:1008A000DAF4F8C6DFF40701DA4BDB2B060120EEA1
:1008B00006F0FA51D926FB51DA22DAC7DEF4DBC79B
:1008C000DDF44CEF80F0B0C5C7F5B1C5C8F5B4C5CF
:1008D000D9F4B5C5DAF4000EDE6E000EDD6EAEC5DD
:1008E00002F5AFC503F5D70E046E050E056E57EC85
:1008F000BBF00501C66FC651D8A40BD020EE0FF097
:10090000AE51D926AF51DA22DF50C66FC651D8B4E6
:1009100002D0C651120020EE0EF0AE51D926AF51D2
:10092000DA22DFB202D0070E120020EE10F0AE5134
:10093000D926AF51DA2210EE10F0AE51E126AF51B8
:10094000E222E6C4BAF5E6C4BBF5E6C4BCF5E6C4EB
:10095000BDF5B251BA25BE6FB351BB21BF6F000EBA
:10096000BC21C06F000EBD21C16FDE50BE5DDE50E8
:10097000BF59DE50C059DE50C159D8B00ED020EE5C
:1009800010F0AE51D926AF51DA22DEC4B6F5DDC47F
:10099000B7F5B61DB26FB71DB36FB251B311D8B46E
:1009A000F8D220EE10F0AE51D926AF51DA22FF0E68
:1009B000DE14B66F010EDE14B76F000EDE14B86FD2
:1009C000000EDE14B96FB651B711B811B911D8A421
:1009D0003DD220EE10F0AE51D926AF51DA22DEC45E
:1009E000B6F5DEC4B7F5DEC4B8F5DEC4B9F50A0E57
:1009F00005D0D890B933B833B733B633E82EF9D72A
:100A000020EE0AF0D751D926D851DA22DEC4BAF541
:100A1000DDC4BBF5FF0EBA25BC6FFF0EBB21BD6F59
:100A2000B651BC15C96FB751BD15CA6FC951CA11AE
:100A3000D8A49CD020EE10F0AE51D926AF51DA22C6
:100A4000DE50DE10DE10DE10D8A423D020EE06F03B
:100A5000AE51D926AF51DA22DEC4CDF5DEC4CEF5D3
:100A6000DEC4CFF5DEC4D0F5CD51CE11CF11D011FB
:100A7000D8A42BD0AEC591F5AFC592F5000E936FFB
:100A8000000E946F000E956F000E966FF3EC96F0CB
:100A900014D0AEC591F5AFC592F520EE14F0AE516D
:100AA000D926AF51DA22DEC493F5DEC494F5DEC454
:100AB00095F5DEC496F5F3EC96F091C5CDF592C5AB
:100AC000CEF593C5CFF594C5D0F5CD51CE11CF114C
:100AD000D011D8B45ED2CD05CE11CF11D011D8A48B
:100AE0000AD020EE0FF0AE51D926AF51DA22020E15
:100AF000DF6E020E1200CD2911E1CE290FE1CF29C0
:100B00000DE1D029D8A40AD020EE0FF0AE51D9269D
:100B1000AF51DA22010EDF6E010E120020EE14F04A
:100B2000AE51D926AF51DA22CDC5DEF4CEC5DEF402
:100B3000CFC5DEF4D0C5DEF420EE06F0AE51D926E6
:100B4000AF51DA22DE50DE10DE10DE10D8A40ED057
:100B500020EE06F0AE51D926AF51DA22CDC5DEF433
:100B6000CEC5DEF4CFC5DEF4D0C5DEF420EE0EF047
:100B7000AE51D926AF51DA22DFAE2DD0220EAE25EE
:100B8000486E000EAF21496E20EE18F0AE51D92606
:100B9000AF51DA22DEC44AF5DEC44BF5DEC44CF5B3
:100BA000DEC44DF5000E4F6E010E4E6E20EE01F0CC
:100BB000D751D926D851DA22DF5031ECC2F00009E2
:100BC000D8A433D1050120EE0EF0AE51D926AF5195
:100BD000DA227F0EDF16D7C50DF5D8C50EF520EE4B
:100BE00014F0AE51D926AF51DA22DEC40FF5DEC4BF
:100BF00010F5DEC411F5DEC412F5F7ECBAF00DC540
:100C0000D3F50EC5D4F50FC5D5F510C5D6F5D3511E
:100C1000D411D511D611D8B464D7C951D327CA512C
:100C2000D423000ED523000ED623B2C5B6F5B3C526
:100C3000B7F5090EB86FD890B733B633B82FFBD7D6
:100C4000B6C5CBF5B7C5CCF5CB51CC11D8B4A6D031
:100C5000CB51C925B66FCC51CA21B76F20EE0AF02F
:100C6000D751D926D851DA22B651DE5CB751DE58B9
:100C7000D8B010D020EE0AF0D751D926D851DA22B8
:100C8000DEC4B6F5DDC4B7F5C951B65DCB6FCA5148
:100C9000B759CC6FC7C548F5C8C549F5D3C54AF59E
:100CA000D4C54BF5D5C54CF5D6C54DF5CBC54EF5E0
:100CB000CCC54FF520EE01F0D751D926D851DA2214
:100CC000DF5031ECC2F00009D8A4AFD00501CB5100
:100CD000B66FCC51B76FB86BB96B20EE18F0AE5150
:100CE000D926AF51DA22DEC4BAF5DEC4BBF5DEC4C4
:100CF000BCF5DEC4BDF5D351BA5DBE6FD451BB594E
:100D0000BF6FD551BC59C06FD651BD59C16FB651D7
:100D1000BE5DB751BF59B851C059B951C159D8B0CA
:100D20002ED0220EAE25016E000EAF21026E20EEF7
:100D300018F0AE51D926AF51DA22DEC4B6F5DDC4C3
:100D4000B7F5D351B65FD451B75B090ED890B6371B
:100D5000B737E82EFBD7B651C725036EB751C82168
:100D6000046E020E066E000E056E4AECC5F020EE13
:100D70000EF0AE51D926AF51DA227F0EDF16CBC569
:100D8000B6F5CCC5B7F5090ED890B637B737E82E0B
:100D9000FBD7B6C5D1F5B7C5D2F5A8D020EE18F06F
:100DA000AE51D926AF51DA22D351DE180AE1D4511F
:100DB000DE1807E1D551DE1804E1D651DE18D8B4AB
:100DC00036D020EE0AF0AE51D926AF51DA2210EE1D
:100DD00010F0AE51E126AF51E222DE50E65CDE506B
:100DE000E658DE50E658DE50E658D8B020D0220E45
:100DF000AE254A6E000EAF214B6ED3C54CF5D4C55F
:100E00004DF5D5C54EF5D6C54FF5000E516E010E08
:100E1000506E20EE01F0D751D926D851DA22DF509A
:100E200069ECC2F00009D8B402D005016DD6050105
:100E300020EE18F0AE51D926AF51DA22D3C5DEF438
:100E4000D4C5DEF4D5C5DEF4D6C5DEF420EE10F050
:100E5000AE51D926AF51DA22DEC4B6F5DDC4B7F5FE
:100E6000FF0EB615B86F010EB715B96FB85100086F
:100E7000D16FB951D8A0E82A0208D26FD151B25D22
:100E8000D251B359D8B004D0B2C5D1F5B3C5D2F55B
:100E900020EE10F0AE51D926AF51DA22DEC4B6F5FD
:100EA000DDC4B7F5FF0EB615B86F010EB715B96FF3
:100EB000B851AE25BA6FB951AF21BB6F220EBA251A
:100EC000016E000EBB21026EC7C503F5C8C504F54F
:100ED000D1C505F5D2C506F54AECC5F020EE0EF0F9
:100EE000AE51D926AF51DA22000EDB8ED151B25F5E
:100EF000D251B35BB4C5D9F4B5C5DAF4D151DE260D
:100F0000D251DD22D151C727D251C82320EE10F093
:100F1000AE51D926AF51DA22D151DE26D251DE228E
:100F2000000EDE22DE2220EE10F0AE51D926AF51A7
:100F3000DA2210EE0AF0AE51E126AF51E222DE5085
:100F4000E65CDE50E658DE50E658DE50E658D8A0A3
:100F500003D020EE0AF002D020EE10F0AE51D926D8
:100F6000AF51DA22DEC4C2F5DEC4C3F5DEC4C4F577
:100F7000DEC4C5F520EE0AF0AE51D926AF51DA2213
:100F8000C2C5DEF4C3C5DEF4C4C5DEF4C5C5DEF4F7
:100F900004D520EE0EF0AE51D926AF51DA22000E64
:100FA000DB8C000E1200AEC502F5AFC503F5D10E05
:100FB000046E050E056E57ECBBF00501CC6FCC51ED
:100FC000D8A408D020EE0FF0AE51D926AF51DA22C6
:100FD000DF50CC6FCC51D8B402D0CC51120020EEEF
:100FE0000AF0AE51D926AF51DA22B051DE5CB151D0
:100FF000DE58B251DE58B351DE58D8B016D020EECC
:101000000EF0AE51D926AF51DA22DFB20ED020EE6B
:101010000AF0AE51D926AF51DA22DEC4B0F5DEC4F3
:10102000B1F5DEC4B2F5DEC4B3F520EE10F0AE517A
:10103000D926AF51DA22DEC4C4F5DEC4C5F5DEC45C
:10104000C6F5DEC4C7F5000EC86F000EC96F000EEE
:10105000CA6F000ECB6F20EE10F0AE51D926AF5103
:10106000DA22C8C5DEF4C9C5DEF4CAC5DEF4CBC5D4
:10107000DEF4B051B111B211B311D8B413D220EED5
:101080000AF0D151D926D251DA22DEC4B4F5DDC43A
:10109000B5F5B451B66FB551B76FB86BB96B090EF2
:1010A000D890B637B737B837B937E82EF9D7B6C5BD
:1010B000CDF5B7C5CEF5B8C5CFF5B9C5D0F5C45196
:1010C000C511C611C711D8B495D0FF0EB025016E59
:1010D000FF0EB121026EFF0EB221036EFF0EB3218F
:1010E000046ECDC505F5CEC506F5CFC507F5D0C54F
:1010F00008F510ECC0F001C5B4F502C5B5F503C59F
:10110000B6F504C5B7F5FF0EC425016EFF0EC52167
:10111000026EFF0EC621036EFF0EC721046ECDC501
:1011200005F5CEC506F5CFC507F5D0C508F510EC19
:10113000C0F00150B45D0250B5590350B659045087
:10114000B759D8A057D0FF0ECD25B46FFF0ECE21D2
:10115000B56FFF0ECF21B66FFF0ED021B76FB41D54
:10116000B86FB51DB96FB61DBA6FB71DBB6FFF0E57
:10117000C425BC6FFF0EC521BD6FFF0EC621BE6F1B
:10118000FF0EC721BF6FB851BC15C06FB951BD1557
:10119000C16FBA51BE15C26FBB51BF15C36F20EEF0
:1011A00010F0AE51D926AF51DA22C0C5DEF4C1C568
:1011B000DEF4C2C5DEF4C3C5DEF420EE10F0AE519D
:1011C000D926AF51DA22DE50B05FDE50B15BDE507F
:1011D000B25BDD50B35B20EE14F0AE51D926AF51B7
:1011E000DA22DEC4D3F5DEC4D4F5DEC4D5F5DEC420
:1011F000D6F569D020EE06F0AE51D926AF51DA22ED
:10120000DEC4D3F5DEC4D4F5DEC4D5F5DEC4D6F530
:10121000D351D411D511D611D8A447D0AEC591F56C
:10122000AFC592F5000E936F000E946F000E956F90
:10123000000E966FF3EC96F091C5D3F592C5D4F5F8
:1012400093C5D5F594C5D6F5D305D411D511D611CE
:10125000D8A40AD020EE0FF0AE51D926AF51DA2231
:10126000020EDF6E020E1200D32911E1D4290FE124
:10127000D5290DE1D629D8A40AD020EE0FF0AE5121
:10128000D926AF51DA22010EDF6E010E120020EED8
:1012900006F0AE51D926AF51DA22D3C5DEF4D4C55B
:1012A000DEF4D5C5DEF4D6C5DEF420EE14F0AE5182
:1012B000D926AF51DA22D3C5DEF4D4C5DEF4D5C5C4
:1012C000DEF4D6C5DEF4D351D411D511D611D8A48D
:1012D0008AD0E8D0CD51B05FCE51B15BCF51B25B77
:1012E000D051B35B20EE10F0AE51D926AF51DA22C7
:1012F000CD51DE26CE51DE22CF51DE22D051DE226C
:1013000020EE0EF0AE51D926AF51DA22DFA225D061
:10131000AEC591F5AFC592F5D3C593F5D4C594F597
:10132000D5C595F5D6C596F5F3EC96F091C5D3F5F0
:1013300092C5D4F593C5D5F594C5D6F5D351D4113E
:10134000D511D611D8A41FD0000EB06F000EB16F0A
:10135000000EB26F000EB36F50D0AEC570F5AFC5C2
:1013600071F5D3C572F5D4C573F5D5C574F5D6C579
:1013700075F5EBECA4F070C5D3F571C5D4F572C565
:10138000D5F573C5D6F50501D32907E1D42905E1C3
:10139000D52903E1D629D8B470D7D651D511D411A7
:1013A00004E1020ED35DD8A055D720EE14F0D15140
:1013B000D926D251DA22DE50D35DDE50D459DE5028
:1013C000D559DE50D659D8B045D720EE14F0AE51DD
:1013D000D926AF51DA22D3C5DEF4D4C5DEF4D5C5A3
:1013E000DEF4D6C5DEF4B051CD5DB151CE59B25167
:1013F000CF59B351D059D8A06DD720EE10F0AE51CF
:10140000D926AF51DA22B051DE26B151DE22B251D7
:10141000DE22B351DE22FF0EB015B46F010EB115FE
:10142000B56F000EB215B66F000EB315B76FB4519D
:10143000B511B611B711D8B435D0D1C50DF5D2C597
:101440000EF5D3C50FF5D4C510F5D5C511F5D6C524
:1014500012F5F7ECBAF00DC5C8F50EC5C9F50FC504
:10146000CAF510C5CBF5C851C911CA11CB11D8B4F2
:10147000F1D6B0C5B4F5B1C5B5F5B2C5B6F5B3C5CD
:10148000B7F50A0E05D0D890B733B633B533B433B9
:10149000E82EF9D7B451C827B551C923B651CA238C
:1014A000B751CB2320EE10F0AE51D926AF51DA223E
:1014B00010EE0AF0AE51E126AF51E222DE50E65CBA
:1014C000DE50E658DE50E658DE50E658D8B01CD064
:1014D00020EE10F0AE51D926AF51DA2210EE0AF00C
:1014E000AE51E126AF51E222DEC4E6F4DEC4E6F4FA
:1014F000DEC4E6F4DEC4E6F420EE0EF0AE51D926EA
:10150000AF51DA22000EDB8C20EE10F0AE51D9265E
:10151000AF51DA22FF0EDE14B46F010EDE14B56F88
:10152000000EDE14B66F000EDE14B76FB451B511A5
:10153000B611B711D8B451D520EE18F0AE51D92656
:10154000AF51DA22C851DE180AE1C951DE1807E1AD
:10155000CA51DE1804E1CB51DE18D8B43ED520EED6
:101560000EF0AE51D926AF51DA22DFAE2DD0220EC9
:10157000AE25486E000EAF21496E20EE18F0AE5138
:10158000D926AF51DA22DEC44AF5DEC44BF5DEC4FB
:101590004CF5DEC44DF5000E4F6E010E4E6E20EE82
:1015A00001F0D151D926D251DA22DF5031ECC2F00C
:1015B0000009D8A427D0050120EE0EF0AE51D9269F
:1015C000AF51DA227F0EDF16220EAE254A6E000ED4
:1015D000AF214B6EC8C54CF5C9C54DF5CAC54EF512
:1015E000CBC54FF5000E516E010E506E20EE01F08E
:1015F000D151D926D251DA22DF5069ECC2F000096C
:10160000D8B402D0050139D6050120EE18F0AE514C
:10161000D926AF51DA22C8C5DEF4C9C5DEF4CAC581
:10162000DEF4CBC5DEF4D9D400510111D8A402D028
:10163000090E12003F0E0417020E0601CE6F070EB0
:10164000CF6F250ED06F070ED16F04C7D2F600EC16
:1016500080F00701276F2751D8A40AD325C728F7A0
:1016600026C729F7280E0601CF6F070ED06F02C7D5
:10167000D1F603C7D2F6FAECB0F00701276F275175
:10168000D8B44FAF02D0060E276F04C705F71C0E63
:101690000517D8B4FAD02751D8B40FD0040E2719A3
:1016A000D8A409D0280E0601D36F070ED46F34ECEE
:1016B000BAF00701276F04870CD02CC705F7110E6D
:1016C0000517D8B402D0070E03D004A502D0080E27
:1016D000276F2751D8B404A7E4D050ECC7F000C658
:1016E00011F701C612F702C613F703C614F70E0E60
:1016F000070142250601006F000E07014321060184
:10170000016F11C702F612C703F613C704F614C718
:1017100005F6D9ECC2F0160E070142250601006F4E
:10172000000E070143210601016F11C702F612C71F
:1017300003F613C704F614C705F6D9ECC2F025C7A3
:1017400007F626C708F642C709F643C70AF6CEECE5
:10175000C0F007C615F708C616F709C617F70AC678
:1017600018F7070120EE0BF04251D9264351DA2237
:10177000200EDF6E25C704F626C705F642C706F61B
:1017800043C707F6000E0601086F000E096F000E32
:101790000A6F000E0B6F6CECC5F01C0E07014225A2
:1017A0000601006F000E070143210601016F000EC4
:1017B000026F000E036F000E046F000E056FD9EC70
:1017C000C2F0070120EE04F02551D9262651DA2275
:1017D000010EDF6E1551161117111811D8B461D012
:1017E00020EE2CF02551D9262651DA22DEC419F735
:1017F000DEC41AF7DEC41BF7DEC41CF7280E060190
:10180000906F070E916F15C792F616C793F617C71C
:1018100094F618C795F6000E966F000E976F000E9F
:10182000986F000E996F20ECB0F00701276F2751D9
:10183000D8A437D025C764F626C765F619C766F65B
:101840001AC767F61BC768F61CC769F678ECBDF0C7
:101850000701276FFF0E1525056FFF0E1621066F76
:10186000FF0E1721076FFF0E1821086F20EE0CF0F6
:101870002551D9262651DA2205C7DEF406C7DEF443
:1018800007C7DEF408C7DEF40CD02751D8A409D06E
:101890002CA902D0040E04D004B32CA102D0070E50
:1018A000276F2751D8A420D004B7048D20EE2CF048
:1018B0002551D9262651DA2210EE1CF00051E126DE
:1018C0000151E222DEC4E6F4DEC4E6F4DEC4E6F44E
:1018D000DEC4E6F420EE20F00051D9260151DA22D0
:1018E00042C7DEF443C7DDF42751D8A4C1D125C7D0
:1018F00007F626C708F642C709F643C70AF6CEEC34
:10190000C0F0070120EE06F00051D9260151DA227D
:10191000060107C6DEF408C6DEF409C6DEF40AC610
:10192000DEF41C0E070142250601006F000E0701C0
:1019300043210601016FB7ECBBF0070120EE0AF06E
:101940000051D9260151DA22060100C6DEF401C693
:10195000DEF402C6DEF403C6DEF400C7D9F401C724
:10196000DAF425C7DEF426C7DDF4070120EE06F021
:101970002551D9262651DA2210EE02F00051E12637
:101980000151E222DEC4E6F4DDC4E5F420EE0EF0FF
:101990000051D9260151DA2204C7DFF420EE0FF0FE
:1019A0000051D9260151DA22000EDF6E20EE18F028
:1019B0000051D9260151DA22DE6ADE6ADE6ADD6A6A
:1019C00020EE10F00051D9260151DA22DE6ADE6ADB
:1019D000DE6ADD6A220E00250601006F000E070197
:1019E00001210601016F000E036F000E026F020E4F
:1019F000056F000E046F4DECC6F0070104AB38D143
:101A000020EE0AF00051D9260151DA22DE50DE1014
:101A1000DE10DE10D8B42CD120EE0AF00051D92609
:101A20000151DA2210EE10F00051E1260151E222BC
:101A3000DEC4E6F4DEC4E6F4DEC4E6F4DEC4E6F4B6
:101A400020EE0AF02551D9262651DA22DEC405F708
:101A5000DDC406F70551076F0651086F096B0A6B65
:101A6000090ED8900737083709370A37E82EF9D713
:101A700007C70DF708C70EF709C70FF70AC710F712
:101A800020EE06F00051D9260151DA22DEC421F7FA
:101A9000DEC422F7DEC423F7DEC424F720EE0AF00A
:101AA0000051D9260151DA22DEC41DF7DEC41EF72B
:101AB000DEC41FF7DEC420F734D000C76FF601C7BD
:101AC00070F621C771F622C772F623C773F624C7D2
:101AD00074F699ECA6F06FC621F770C622F771C6AE
:101AE00023F772C624F7070124512311221106E1BE
:101AF000020E215DD8B002D0020E276F212909E124
:101B0000222907E1232905E12429D8A402D0010EC6
:101B1000276F0D511D5F0E511E5B0F511F5B105142
:101B2000205B2751D8A40AD01D510D5D1E510E59BE
:101B30001F510F5920511059D8A0BFD720EE14F0D3
:101B40000051D9260151DA2221C7DEF422C7DEF482
:101B500023C7DEF424C7DEF42751D8A489D0FF0EB2
:101B60001D15056F010E1E15066F000E1F15076F60
:101B7000000E2015086F0551061107110811D8B481
:101B800077D025C70CF626C70DF621C70EF622C75B
:101B90000FF623C710F624C711F696ECBAF00CC660
:101BA00019F70DC61AF70EC61BF70FC61CF707016B
:101BB00019511A111B111C11D8A402D0020E57D0B2
:101BC0001DC705F71EC706F71FC707F720C708F789
:101BD0000A0E05D0D8900833073306330533E82EB4
:101BE000F9D719510525096F1A5106210A6F1B51A2
:101BF00007210B6F1C5108210C6F20EE18F00051CB
:101C0000D9260151DA2209C7DEF40AC7DEF40BC770
:101C1000DEF40CC7DEF4220E00250601496F000E2B
:101C20000701012106014A6F070120EE18F000515B
:101C3000D9260151DA22DEC44BF6DEC44CF6DEC4EE
:101C40004DF6DEC44EF6000E0601506F010E4F6FCA
:101C5000070120EE01F02551D9262651DA22DF5066
:101C60008EECBFF00009D8B403D0010E0701276F36
:101C700007012751D8B408D000C7D9F401C7DAF456
:101C8000000EDE6E000EDD6E275112008CC5A7F52A
:101C90008DC5A8F590C5D9F491C5DAF4000EDE6EB5
:101CA000000EDD6E8AC502F58BC503F5B30E046E1A
:101CB000050E056E57ECBBF00501A26FA251D8A42A
:101CC0000BD020EE0FF08A51D9268B51DA22DF504B
:101CD000A26FA251D8B402D0A251120020EE0EF091
:101CE0008A51D9268B51DA22DFB002D0070E1200BA
:101CF00020EE10F08A51D9268B51DA22DEC492F5FB
:101D0000DEC493F5DEC494F5DEC495F520EE0AF04A
:101D10008A51D9268B51DA22DEC496F5DEC497F5B6
:101D2000DEC498F5DEC499F59251965D9E6F93518D
:101D300097599F6F94519859A06F95519959A16FD8
:101D40008E51926F8F51936F946B956B92519E5DF4
:101D500093519F599451A0599551A159D8B004D08D
:101D60009EC58EF59FC58FF58E518F11D8B474D254
:101D700020EE10F08A51D9268B51DA22FF0EDE14A4
:101D8000926F010EDE14936F000EDE14946F000E3E
:101D9000DE14956F9251931194119511D8A4F6D138
:101DA00020EE10F08A51D9268B51DA22DEC492F54A
:101DB000DEC493F5DEC494F5DEC495F50A0E05D0B5
:101DC000D8909533943393339233E82EF9D720EE9D
:101DD0000AF0B351D926B451DA22DEC496F5DDC437
:101DE00097F5FF0E9625986FFF0E9721996F9251E8
:101DF0009815A96F93519915AA6FA951AA11D8A442
:101E00006BD020EE10F08A51D9268B51DA22DE50A9
:101E1000DE10DE10DE10D8A40FD020EE06F08A51BE
:101E2000D9268B51DA22DEC4A3F5DEC4A4F5DEC4C4
:101E3000A5F5DEC4A6F51CD08AC570F58BC571F575
:101E400020EE14F08A51D9268B51DA22DEC472F5C5
:101E5000DEC473F5DEC474F5DEC475F5EBECA4F0F6
:101E600070C5A3F571C5A4F572C5A5F573C5A6F532
:101E70000501A651A511A4110EE1020EA35DD8B073
:101E80000AD020EE0FF08A51D9268B51DA22020EA9
:101E9000DF6E020E1200A32911E1A4290FE1A5298A
:101EA0000DE1A629D8A40AD020EE0FF08A51D92638
:101EB0008B51DA22010EDF6E010E120020EE14F0BB
:101EC0008A51D9268B51DA22A3C5DEF4A4C5DEF4EB
:101ED000A5C5DEF4A6C5DEF4B3C50DF5B4C50EF593
:101EE00020EE14F08A51D9268B51DA22DEC40FF588
:101EF000DEC410F5DEC411F5DEC412F5F7ECBAF05D
:101F00000DC5AFF50EC5B0F50FC5B1F510C5B2F5ED
:101F1000AF51B011B111B211D8B4B3D7A951AF2795
:101F2000AA51B023000EB123000EB2238EC592F544
:101F30008FC593F5090E946FD89093339233942FF5
:101F4000FBD792C5ABF593C5ACF5AB51AC11D8B48A
:101F5000A6D0AB51A925926FAC51AA21936F20EE68
:101F60000AF0B351D926B451DA229251DE5C935172
:101F7000DE58D8B010D020EE0AF0B351D926B451B3
:101F8000DA22DEC492F5DDC493F5A951925DAB6F00
:101F9000AA519359AC6FA7C54AF5A8C54BF5AFC573
:101FA0004CF5B0C54DF5B1C54EF5B2C54FF5ABC555
:101FB00050F5ACC551F520EE01F0B351D926B4511E
:101FC000DA22DF5069ECC2F00009D8A4CED00501B6
:101FD00020EE0EF08A51D9268B51DA22DFAE50D096
:101FE000AB51926FAC51936F946B956B20EE18F0E0
:101FF0008A51D9268B51DA22DEC496F5DEC497F5D4
:10200000DEC498F5DEC499F5AF51965D9A6FB05174
:1020100097599B6FB15198599C6FB25199599D6FC7
:1020200092519A5D93519B5994519C5995519D5948
:10203000D8B026D020EE18F08A51D9268B51DA225A
:10204000DEC492F5DDC493F5AF51925FB051935B5E
:10205000090ED89092379337E82EFBD79251A725D7
:10206000016E9351A821026E220E8A25036E000E86
:102070008B21046E020E066E000E056E4AECC5F052
:10208000ABC592F5ACC593F5090ED890923793374E
:10209000E82EFBD792C5ADF593C5AEF5BFD020EEC7
:1020A00018F08A51D9268B51DA22AF51DE180AE195
:1020B000B051DE1807E1B151DE1804E1B251DE186B
:1020C000D8B455D020EE0EF08A51D9268B51DA22A1
:1020D000DFAE2DD0220E8A25486E000E8B21496E70
:1020E00020EE18F08A51D9268B51DA22DEC44AF547
:1020F000DEC44BF5DEC44CF5DEC44DF5000E4F6E6C
:10210000010E4E6E20EE01F0B351D926B451DA2201
:10211000DF5031ECC2F00009D8A427D0050120EE31
:102120000EF08A51D9268B51DA227F0EDF16220E4D
:102130008A254A6E000E8B214B6EAFC54CF5B0C59B
:102140004DF5B1C54EF5B2C54FF5000E516E010EFD
:10215000506E20EE01F0B351D926B451DA22DF508F
:1021600069ECC2F00009D8B402D005019DD6050182
:1021700020EE18F08A51D9268B51DA22AFC5DEF451
:10218000B0C5DEF4B1C5DEF4B2C5DEF420EE10F069
:102190008A51D9268B51DA22DEC492F5DDC493F53B
:1021A000FF0E9215946F010E9315956F94510008D0
:1021B000AD6F9551D8A0E82A0208AE6FAD518E5D83
:1021C000AE518F59D8B004D08EC5ADF58FC5AEF5E0
:1021D000A7C501F5A8C502F520EE10F08A51D92651
:1021E0008B51DA22DEC492F5DDC493F5FF0E921511
:1021F000946F010E9315956F94518A25966F9551A2
:102200008B21976F220E9625036E000E9721046E88
:10221000ADC505F5AEC506F54AECC5F0AD518E5F0E
:10222000AE518F5B90C5D9F491C5DAF4AD51DE267D
:10223000AE51DD22AD51A727AE51A82320EE10F0FC
:102240008A51D9268B51DA22AD51DE26AE51DE22DB
:10225000000EDE22DE2288D5000E1200D2D2250E1C
:102260001B19D8B434D020EE02F00751D9260851FA
:10227000DA22DE50DE10DE10D8B413D020EE02F0E9
:102280000751D9260851DA2201D8BBD20500FA6ECF
:10229000DE50FD6EDE50FE6EDE50FF6EFA501B51BA
:1022A000120007C6D9F408C6DAF4DEC40DF6DDC4A0
:1022B0000EF60DC6D9F40EC6DAF41BC6DFF407C657
:1022C000D9F408C6DAF4DE2A000EDD229AD2000E16
:1022D0001A6F000E196F000E116F03D01185094B94
:1022E0000A2B09C6F6F40AC6F7F4000EF86E0800C9
:1022F000F550300AD8B4F2D709C6F6F40AC6F7F496
:10230000000EF86E0800F550ECECC6F0D8A03ED1F7
:10231000000E1A6F000E196F19C600F61AC601F6E4
:10232000000E036F0A0E026FA1ECC6F000C619F68C
:1023300001C61AF609C6F6F40AC6F7F4000EF86EDE
:102340000800F5C40DF6D00E0D250E6F0F6BFF0EB5
:102350000F230E5119270F511A23094B0A2B09C6B7
:10236000F6F40AC6F7F4000EF86E0800F550ECEC2F
:10237000C6F0D8A00BD1D0D70BC6D9F40CC6DAF46E
:10238000DFC40DF6020EDE26DFC40EF6000EDD22DF
:102390000DC6D9F40EC6DAF4DEC417F6DDC418F69D
:1023A00017511811D8A404D0E60E176FFF0E186F3E
:1023B000000E166F000E156F03D00601154B162B7D
:1023C000155117250D6F165118210E6F0DC6F6F415
:1023D0000EC6F7F4000EF86E250EF76403D0080061
:1023E000F55005D0F6C4E9F4F7C4EAF4EF5000095B
:1023F000D8A4E3D706011951155D1A511659D8B062
:1024000005D01551195F16511A5B38D0000E1A6F9E
:10241000000E196F33D020EE02F00751D926085173
:10242000DA22DE50DE10DE10D8B413D020EE02F037
:102430000751D9260851DA2201D820D00500FA6EBA
:10244000DE50FD6EDE50FE6EDE50FF6EFA50200E46
:10245000120007C6D9F408C6DAF4DEC40DF6DDC4EE
:102460000EF60DC6D9F40EC6DAF4200EDF6E07C6DE
:10247000D9F408C6DAF4DE2A000EDD2206011907B7
:10248000D8A01A071929C7E11A29D8B45BD0C3D735
:1024900020EE02F00751D9260851DA22DE50DE1074
:1024A000DE10D8B427D020EE02F00751D92608510B
:1024B000DA2201D81BD00500FA6EDE50FD6EDE5028
:1024C000FE6EDE50FF6EFA5017C6F6F418C6F7F42B
:1024D000000EF86E250EF76403D00800F55005D005
:1024E000F6C4E9F4F7C4EAF4EF5012000601174B02
:1024F000182B28D017C6F6F418C6F7F4000EF86E9D
:1025000007C6D9F408C6DAF4DEC40DF6DDC40EF64B
:102510000DC6D9F40EC6DAF4250EF76403D0080010
:10252000F55005D0F6C4E9F4F7C4EAF4EF50DF6ED5
:102530000601174B182B07C6D9F408C6DAF4DE2AB1
:10254000000EDD221507D8A016071529A1E11629CE
:10255000D8B457D19DD70BC6D9F40CC6DAF4DFC472
:102560000DF6020EDE26DFC40EF6000EDD220DC6CD
:10257000D9F40EC6DAF4DF501B6F1B0E176F060E70
:10258000186F000E166F010E156F34D709C6F6F4DA
:102590000AC6F7F4094B0A2B000EF86E0800F5C4C2
:1025A0001BF61B51000AD8B43BD1630AD8B4D3D769
:1025B000100AD8B4E1D60B0AD8A4DFD70BC6D9F4D9
:1025C0000CC6DAF4DFC40DF6020EDE26DFC40EF60A
:1025D000000EDD220DC6D9F40EC6DAF4DEC412F602
:1025E000DDC413F6010E1B6F040E1B19D8B415D0F1
:1025F0001B51020D070EF324F66EFF0EF420F76E4A
:10260000F86A000EF8220900F550125D0900F55035
:102610001359D8A002D01B2BE7D71B510D6F0E6B9F
:1026200019510D5D0E51800A0F6F1A51800A0F5912
:10263000D8B005D01B51195F000E1A5B04D0000EF4
:102640001A6F000E196F11A53CD019511A11D8B488
:1026500077D020EE02F00751D9260851DA22DE5059
:10266000DE10DE10D8B413D020EE02F00751D926C8
:102670000851DA2201D820D00500FA6EDE50FD6E36
:10268000DE50FE6EDE50FF6EFA50300E120007C6AE
:10269000D9F408C6DAF4DEC40DF6DDC40EF60DC6B4
:1026A000D9F40EC6DAF4300EDF6E07C6D9F408C6C8
:1026B000DAF4DE2A000EDD2206011907D8A01A0777
:1026C000C4D719511A11D8B43BD020EE02F00751EB
:1026D000D9260851DA22DE50DE10DE10D8B413D02D
:1026E00020EE02F00751D9260851DA2201D820D075
:1026F0000500FA6EDE50FD6EDE50FE6EDE50FF6E9F
:10270000FA50200E120007C6D9F408C6DAF4DEC467
:102710000DF6DDC40EF60DC6D9F40EC6DAF4200EA1
:10272000DF6E07C6D9F408C6DAF4DE2A000EDD2211
:1027300006011907D8A01A0719511A11D8A4C5D72C
:102740001BC614F659D012C600F613C601F6145172
:10275000020D070EF324F66EFF0EF420F76EF86AF2
:10276000000EF8220900F5C402F60A00F5C403F6CB
:1027700091ECC4F000510F0B106FA50E1025F66EF2
:10278000F76AFF0EF722F86A000EF8220800F5C477
:102790001BF620EE02F00751D9260851DA22DE504E
:1027A000DE10DE10D8B413D020EE02F00751D92687
:1027B0000851DA2201D820D00500FA6EDE50FD6EF5
:1027C000DE50FE6EDE50FF6EFA501B51120007C63F
:1027D000D9F408C6DAF4DEC40DF6DDC40EF60DC673
:1027E000D9F40EC6DAF41BC6DFF407C6D9F408C65E
:1027F000DAF4DE2A000EDD22060114071429D8A41B
:10280000A2D709C6F6F40AC6F7F40601094B0A2B4B
:10281000000EF86E0800F5C41BF61B51D8A41FD596
:10282000000E086F000E076F1200CAD2250E1C188A
:10283000D8B434D020EE02F00850D9260950DA225C
:10284000DE50DE10DE10D8B413D020EE02F00850B7
:10285000D9260950DA2201D8B3D20500FA6EDE502B
:10286000FD6EDE50FE6EDE50FF6EFA501C50120000
:1028700008C5D9F409C5DAF4DEC40EF5DDC40FF5D8
:102880000EC5D9F40FC5DAF41CC5DFF408C5D9F4B8
:1028900009C5DAF4DE2A000EDD2292D2000E1B6E8C
:1028A000000E1A6E000E126E03D012840A4A0B2A12
:1028B0000AC5F6F40BC5F7F4000EF86E0800F550E3
:1028C000300AD8B4F2D70AC5F6F40BC5F7F4000EF7
:1028D000F86E0800F5501AECC7F0D8A039D1000EF8
:1028E0001B6E000E1A6E1AC501F51BC502F5000E0F
:1028F000046E0A0E036EC7ECC6F001C51AF502C5D8
:102900001BF50AC5F6F40BC5F7F4000EF86E0800C7
:10291000F5C40EF5D00E0E240F6E106AFF0E1022B5
:102920000F501A2610501B220A4A0B2A0AC5F6F429
:102930000BC5F7F4000EF86E0800F5501AECC7F05E
:10294000D8A006D1D0D70CC5D9F40DC5DAF4DFC4B0
:102950000EF5020EDE26DFC40FF5000EDD220EC5D9
:10296000D9F40FC5DAF4DEC418F5DDC419F5185032
:102970001910D8A404D0E60E186EFF0E196E000EC2
:10298000176E000E166E02D0164A172A165018241B
:102990000E6E175019200F6E0EC5F6F40FC5F7F422
:1029A000000EF86E250EF76403D00800F55005D030
:1029B000F6C4E9F4F7C4EAF4EF500009D8A4E4D768
:1029C0001A50165C1B501758D8B005D016501A5E16
:1029D00017501B5A38D0000E1B6E000E1A6E33D0E3
:1029E00020EE02F00850D9260950DA22DE50DE101F
:1029F000DE10D8B413D020EE02F00850D9260950CA
:102A0000DA2201D820D00500FA6EDE50FD6EDE50CD
:102A1000FE6EDE50FF6EFA50200E120008C5D9F48B
:102A200009C5DAF4DEC40EF5DDC40FF50EC5D9F420
:102A30000FC5DAF4200EDF6E08C5D9F409C5DAF443
:102A4000DE2A000EDD221A06D8A01B061A28C8E1CD
:102A50001B28D8B459D0C4D720EE02F00850D9268C
:102A60000950DA22DE50DE10DE10D8B426D020EE77
:102A700002F00850D9260950DA2201D81BD00500EF
:102A8000FA6EDE50FD6EDE50FE6EDE50FF6EFA50C6
:102A900018C5F6F419C5F7F4000EF86E250EF764A4
:102AA00003D00800F55005D0F6C4E9F4F7C4EAF401
:102AB000EF501200184A192A27D018C5F6F419C584
:102AC000F7F4000EF86E08C5D9F409C5DAF4DEC4CF
:102AD0000EF5DDC40FF50EC5D9F40FC5DAF4250ED9
:102AE000F76403D00800F55005D0F6C4E9F4F7C444
:102AF000EAF4EF50DF6E184A192A08C5D9F409C55F
:102B0000DAF4DE2A000EDD221606D8A017061628F3
:102B1000A3E11728D8B454D19FD70CC5D9F40DC55B
:102B2000DAF4DFC40EF5020EDE26DFC40FF5000E68
:102B3000DD220EC5D9F40FC5DAF4DF501C6E1C0E71
:102B4000186E050E196E000E176E010E166E38D730
:102B50000AC5F6F40BC5F7F40A4A0B2A000EF86E04
:102B60000800F5C41CF51C50000AD8B437D1630A1C
:102B7000D8B4D3D7100AD8B4E6D60B0AD8A4DFD776
:102B80000CC5D9F40DC5DAF4DFC40EF5020EDE264D
:102B9000DFC40FF5000EDD220EC5D9F40FC5DAF43F
:102BA000DEC413F5DDC414F5010E1C6E040E1C18F2
:102BB000D8B415D01C50020D070EF324F66EFF0E8C
:102BC000F420F76EF86A000EF8220900F550135C45
:102BD0000900F5501458D8A002D01C2AE7D71C5081
:102BE0000E6E0F6A1A500E5C0F50800A106E1B504A
:102BF000800A1058D8B005D01C501A5E000E1B5A1F
:102C000004D0000E1B6E000E1A6E12A43BD01A5098
:102C10001B10D8B475D020EE02F00850D926095008
:102C2000DA22DE50DE10DE10D8B413D020EE02F02F
:102C30000850D9260950DA2201D820D00500FA6EB2
:102C4000DE50FD6EDE50FE6EDE50FF6EFA50300E2E
:102C5000120008C5D9F409C5DAF4DEC40EF5DDC4E6
:102C60000FF50EC5D9F40FC5DAF4300EDF6E08C5C6
:102C7000D9F409C5DAF4DE2A000EDD221A06D8A03E
:102C80001B06C5D71A501B10D8B43AD020EE02F05C
:102C90000850D9260950DA22DE50DE10DE10D8B4F2
:102CA00013D020EE02F00850D9260950DA2201D8BC
:102CB00020D00500FA6EDE50FD6EDE50FE6EDE5056
:102CC000FF6EFA50200E120008C5D9F409C5DAF4D7
:102CD000DEC40EF5DDC40FF50EC5D9F40FC5DAF468
:102CE000200EDF6E08C5D9F409C5DAF4DE2A000E1D
:102CF000DD221A06D8A01B061A501B10D8A4C6D76E
:102D00001CC515F559D013C501F514C502F51550AC
:102D1000020D070EF324F66EFF0EF420F76EF86A2C
:102D2000000EF8220900F5C403F50A00F5C404F505
:102D3000BAECC4F001500F0B116EA50E1124F66E03
:102D4000F76AFF0EF722F86A000EF8220800F5C4B1
:102D50001CF520EE02F00850D9260950DA22DE5088
:102D6000DE10DE10D8B413D020EE02F00850D926C1
:102D70000950DA2201D820D00500FA6EDE50FD6E2F
:102D8000DE50FE6EDE50FF6EFA501C50120008C579
:102D9000D9F409C5DAF4DEC40EF5DDC40FF50EC5AD
:102DA000D9F40FC5DAF41CC5DFF408C5D9F409C598
:102DB000DAF4DE2A000EDD2215061528D8A4A3D7E2
:102DC0000AC5F6F40BC5F7F40A4A0B2A000EF86E92
:102DD0000800F5C41CF51C50D8A428D5000E096EB7
:102DE000000E086E120091C5D9F492C5DAF4DEC463
:102DF000A8F5DDC4A9F59351941195119611D8A4A5
:102E00002DD020EE0CF0A851D926A951DA22DEC42B
:102E1000A0F5DEC4A1F5DEC4A2F5DEC4A3F5A05181
:102E2000A111A211A311D8B410D020EE14F0A85112
:102E3000D926A951DA22DE50A05DDE50A159DE501C
:102E4000A259DE50A359D8A05BD0010EA06F000E8E
:102E5000A16F000EA26F000EA36F52D091C570F546
:102E600092C571F593C572F594C573F595C574F562
:102E700096C575F5EBECA4F070C5AAF571C5ABF578
:102E800072C5ACF573C5ADF50501AD51AC11AB1113
:102E90000DE1020EAA5DD8B009D0010E916F000EAF
:102EA000926F000E936F000E946F1200AA2910E12A
:102EB000AB290EE1AC290CE1AD29D8A409D0AAC5F3
:102EC00091F5ABC592F5ACC593F5ADC594F512007F
:102ED00020EE14F0A851D926A951DA22DE50AA5DBD
:102EE000DE50AB59DE50AC59DE50AD59D8A0E7D713
:102EF00093C5A0F594C5A1F595C5A2F596C5A3F512
:102F000020EE10F0A851D926A951DA22DE50DE10A9
:102F1000DE10DE10D8A409D0000E916F000E926F63
:102F2000000E936F000E946F1200000EA46F000E3F
:102F3000A56F000EA66F000EA76F9351A01909E1AF
:102F40009451A11906E19551A21903E19651A319D3
:102F5000D8A486D0010EA025A46F000EA121A56FD4
:102F6000000EA221A66F000EA321A76F20EE14F081
:102F7000A851D926A951DA22DE50A45DDE50A55908
:102F8000DE50A659DE50A759D8A008D0020EA46F73
:102F9000000EA56F000EA66F000EA76F91C570F50D
:102FA00092C571F5A4C572F5A5C573F5A6C574F5EE
:102FB000A7C575F5EBECA4F070C5AAF571C5ABF526
:102FC00072C5ACF573C5ADF50501AA05AB11AC1121
:102FD000AD11D8B474D7AA2907E1AB2905E1AC2912
:102FE00003E1AD29D8B46BD7AA51AB11AC11AD1127
:102FF000D8B436D020EE0CF0A851D926A951DA2247
:10300000DEC4AAF5DEC4ABF5DEC4ACF5DEC4ADF5B6
:10301000AD51AC11AB1104E1020EAA5DD8A018D0DD
:1030200020EE14F0A851D926A951DA22DE50AA5D6B
:10303000DE50AB59DE50AC59DE50AD59D8B008D097
:10304000AAC5A0F5ABC5A1F5ACC5A2F5ADC5A3F564
:10305000000EA46F000EA56F000EA66F000EA76FE6
:10306000A451A511A611A711D8A468D0A0C5A4F594
:10307000A1C5A5F5A2C5A6F5A3C5A7F5010EA42770
:10308000000EA523A623A72320EE14F0A851D926CD
:10309000A951DA22DE50A45DDE50A559DE50A659B2
:1030A000DE50A759D8A010D0020EA46F000EA56F55
:1030B000000EA66F000EA76FA351A211A11104E18B
:1030C000020EA05DD8A028D791C570F592C571F504
:1030D000A4C572F5A5C573F5A6C574F5A7C575F5A4
:1030E000EBECA4F070C5AAF571C5ABF572C5ACF5F3
:1030F00073C5ADF50501AA51AB11AC11AD11D8B432
:103100001DD0AA05AB11AC11AD11D8B4D8D6AA29DF
:1031100007E1AB2905E1AC2903E1AD29D8B4CFD64D
:10312000A051A419ABE1A151A519A8E1A251A6197A
:10313000A5E1A351A719D8B4EFD6A0D7A8C570F5BB
:10314000A9C571F5A4C572F5A5C573F5A6C574F535
:10315000A7C575F5FF0E766FFF0E776FFF0E786FC0
:10316000FF0E796F74EC9BF09F6F9F51D8A41DD018
:103170009351941195119611D8B417D0A8C570F534
:10318000A9C571F593C572F594C573F595C574F528
:1031900096C575F5A4C576F5A5C577F5A6C578F5E8
:1031A000A7C579F574EC9BF09F6F9F51D8A444D0CC
:1031B00020EE0CF0A851D926A951DA22A4C5DEF4DC
:1031C000A5C5DEF4A6C5DEF4A7C5DEF420EE10F03A
:1031D000A851D926A951DA2210EE14F0A851E126FF
:1031E000A951E222FE0EE6249B6FFF0EE6209C6FA3
:1031F000FF0EE6209D6FFF0EE6209E6FDE509B5D6A
:10320000DE509C59DE509D59DE509E59D8A00BD0FF
:1032100020EE10F0A851D926A951DA22DE06000EC0
:10322000DE5ADE5ADE5A20EE05F0A851D926A95101
:10323000DA22000EDB8010D09F05D8B409D0010E31
:10324000A46F000EA56F000EA66F000EA76F04D02E
:10325000A469A569A669A769A4C591F5A5C592F554
:10326000A6C593F5A7C594F5120090C6D9F491C6EA
:10327000DAF4DEC4A7F6DDC4A8F6925193119411D6
:103280009511D8A42DD020EE0CF0A751D926A85125
:10329000DA22DEC49FF6DEC4A0F6DEC4A1F6DEC4E8
:1032A000A2F69F51A011A111A211D8B410D020EE06
:1032B00014F0A751D926A851DA22DE509F5DDE50C6
:1032C000A059DE50A159DE50A259D8A05AD0010E03
:1032D0009F6F000EA06F000EA16F000EA26F51D065
:1032E00090C66FF691C670F692C671F693C672F6E6
:1032F00094C673F695C674F699ECA6F06FC6A9F657
:1033000070C6AAF671C6ABF672C6ACF6AC51AB117C
:10331000AA110DE1020EA95DD8B009D0010E906F7F
:10332000000E916F000E926F000E936F1200A9298C
:1033300010E1AA290EE1AB290CE1AC29D8A409D0EF
:10334000A9C690F6AAC691F6ABC692F6ACC693F69D
:10335000120020EE14F0A751D926A851DA22DE502F
:10336000A95DDE50AA59DE50AB59DE50AC59D8A049
:10337000E7D792C69FF693C6A0F694C6A1F695C667
:10338000A2F620EE10F0A751D926A851DA22DE507D
:10339000DE10DE10DE10D8A409D0000E906F000EF3
:1033A000916F000E926F000E936F1200000EA36FCC
:1033B000000EA46F000EA56F000EA66F92519F190C
:1033C00009E19351A01906E19451A11903E1955126
:1033D000A219D8A485D0010E9F25A36F000EA021AD
:1033E000A46F000EA121A56F000EA221A66F20EEF2
:1033F00014F0A751D926A851DA22DE50A35DDE5081
:10340000A459DE50A559DE50A659D8A008D0020E06
:10341000A36F000EA46F000EA56F000EA66F90C6DE
:103420006FF691C670F6A3C671F6A4C672F6A5C66D
:1034300073F6A6C674F699ECA6F06FC6A9F670C628
:10344000AAF671C6ABF672C6ACF6A905AA11AB1105
:10345000AC11D8B475D7A92907E1AA2905E1AB2990
:1034600003E1AC29D8B46CD7A951AA11AB11AC11A6
:10347000D8B436D020EE0CF0A751D926A851DA22C4
:10348000DEC4A9F6DEC4AAF6DEC4ABF6DEC4ACF632
:10349000AC51AB11AA1104E1020EA95DD8A018D05D
:1034A00020EE14F0A751D926A851DA22DE50A95DEA
:1034B000DE50AA59DE50AB59DE50AC59D8B008D016
:1034C000A9C69FF6AAC6A0F6ABC6A1F6ACC6A2F6E0
:1034D000000EA36F000EA46F000EA56F000EA66F66
:1034E000A351A411A511A611D8A467D09FC6A3F615
:1034F000A0C6A4F6A1C6A5F6A2C6A6F6010EA327ED
:10350000000EA423A523A62320EE14F0A751D9264C
:10351000A851DA22DE50A35DDE50A459DE50A55931
:10352000DE50A659D8A010D0020EA36F000EA46FD3
:10353000000EA56F000EA66FA251A111A01104E10B
:10354000020E9F5DD8A029D790C66FF691C670F67F
:10355000A3C671F6A4C672F6A5C673F6A6C674F61F
:1035600099ECA6F06FC6A9F670C6AAF671C6ABF6BE
:1035700072C6ACF6A951AA11AB11AC11D8B41DD0CA
:10358000A905AA11AB11AC11D8B4DAD6A92907E163
:10359000AA2905E1AB2903E1AC29D8B4D1D69F51C2
:1035A000A319ACE1A051A419A9E1A151A519A6E163
:1035B000A251A619D8B4F1D6A1D7A7C66FF6A8C64E
:1035C00070F6A3C671F6A4C672F6A5C673F6A6C6B3
:1035D00074F6FF0E756FFF0E766FFF0E776FFF0E9E
:1035E000786F87EC9FF09E6F9E51D8A41DD09251AA
:1035F000931194119511D8B417D0A7C66FF6A8C629
:1036000070F692C671F693C672F694C673F695C6B6
:1036100074F6A3C675F6A4C676F6A5C677F6A6C652
:1036200078F687EC9FF09E6F9E51D8A444D020EE90
:103630000CF0A751D926A851DA22A3C6DEF4A4C6FD
:10364000DEF4A5C6DEF4A6C6DEF420EE10F0A75127
:10365000D926A851DA2210EE14F0A751E126A8517C
:10366000E222FE0EE6249A6FFF0EE6209B6FFF0E0D
:10367000E6209C6FFF0EE6209D6FDE509A5DDE50C7
:103680009B59DE509C59DE509D59D8A00BD020EE9E
:1036900010F0A751D926A851DA22DE06000EDE5A14
:1036A000DE5ADE5A20EE05F0A751D926A851DA22BB
:1036B000000EDB8010D09E05D8B409D0010EA36F98
:1036C000000EA46F000EA56F000EA66F04D0A369B4
:1036D000A469A569A669A3C690F6A4C691F6A5C675
:1036E00092F6A6C693F61200020E906F75517411F1
:1036F000731104E1020E725DD8A0FED120EE14F029
:103700007051D9267151DA22DE50725DDE50735944
:10371000DE507459DE507559D8A0E0D1EDD172C594
:103720008EF573C58FF5D8908F317B6F8E317A6FA0
:103730007A518E277B518F2370C555F571C556F58B
:1037400020EE20F07051D9267151DA22DEC47AF5CC
:10375000DEC47BF5DEC47CF5DEC47DF58EC57EF56A
:103760008FC57FF5090E806FD8907F337E33802F11
:10377000FBD77E517A25576E7F517B21586E000E04
:103780007C21596E000E7D215A6ECCECBDF00501F6
:10379000906F9051D8A4B0D1FF0E8E157A6F010EA4
:1037A0008F157B6F7A5170257C6F7B5171217D6FF6
:1037B000300E7C258C6F000E7D218D6F8E4B8F2BF4
:1037C00072B104D076C588F5896B1AD076517A6FBC
:1037D0007B6B7A3B7B3BF00E7B177A510F0B7B1395
:1037E000F00E7A178CC5D9F48DC5DAF4DF500F0BC3
:1037F0007C6F7D6B7A517C11886F7B517D11896F55
:103800008CC5D9F48DC5DAF488C5DFF420EE04F058
:103810007051D9267151DA22010EDF6E70C555F54F
:1038200071C556F520EE20F07051D9267151DA227B
:10383000DEC47AF5DEC47BF5DEC47CF5DEC47DF53E
:103840008EC57EF58FC57FF5090E806FD8907F33CA
:103850007E33802FFBD77E517A25576E7F517B2197
:10386000586E000E7C21596E000E7D215A6ECCECF4
:10387000BDF00501906F9051D8A43ED1FF0E8E157A
:103880007A6F010E8F157B6F7A5170257C6F7B519B
:1038900071217D6F300E7C258C6F000E7D218D6F28
:1038A00072B10ED077C57AF50F0E7A178CC5D9F4A0
:1038B0008DC5DAF4DF50F00B7A117B6F7B5112D09B
:1038C00076C57AF577C57BF578C57CF579C57DF544
:1038D000050E05D0D8907D337C337B337A33E82EC8
:1038E000F9D77A518A6F8B6B8CC5D9F48DC5DAF410
:1038F0008AC5DFF4EAD070C555F571C556F520EEDE
:1039000020F07051D9267151DA22DEC47AF5DEC476
:103910007BF5DEC47CF5DEC47DF573517E6F74519A
:103920007F6F7551806F816B7A517E25576E7B5109
:103930007F21586E7C518021596E7D5181215A6EB4
:10394000CCECBDF00501906F9051D8A4D5D072C5D4
:103950007AF573C57BF5D8907A377B37FF0E7A15E9
:103960007C6F010E7B157D6F7C5170257E6F7D51C4
:1039700071217F6F300E7E25016E000E7F21026E59
:1039800076C503F577C504F58DECC6F09ED070C5FD
:1039900055F571C556F520EE20F07051D9267151BC
:1039A000DA22DEC47AF5DEC47BF5DEC47CF5DEC443
:1039B0007DF572C57EF573C57FF574C580F575C557
:1039C00081F5080E05D0D890813380337F337E3364
:1039D000E82EF9D77A517E25576E7B517F21586E9C
:1039E0007C518021596E7D5181215A6ECCECBDF005
:1039F0000501906F9051D8A47FD072C57AF573C538
:103A00007BF5D8907A377B37D8907A377B37FF0EA3
:103A10007A157C6F010E7B157D6F7C5170257E6F52
:103A20007D5171217F6F300E7E25016E000E7F214A
:103A3000026E13ECBCF0000E0114806F000E021435
:103A4000816F000E0314826FF00E0414836FFF0E5B
:103A50007615846FFF0E7715856FFF0E7815866FCC
:103A60000F0E7915876F80518411766F8151851102
:103A7000776F82518611786F83518711796F72C584
:103A80007AF573C57BF5D8907A377B37D8907A373B
:103A90007B37FF0E7A157C6F010E7B157D6F7C5195
:103AA00070257E6F7D5171217F6F300E7E25016EF6
:103AB000000E7F21026E76C503F577C504F578C543
:103AC00005F579C506F50FECC3F020EE04F0705152
:103AD000D9267151DA22010EDF6E0ED070C5D9F4ED
:103AE00071C5DAF4DF50010AD8B419D6030AD8B484
:103AF00002D7010AD8B44BD790511200FAC4DDF5B1
:103B0000FBC4DEF5F6C4DFF5F7C4E0F5F8C4E1F573
:103B1000F5C4E2F5CFC4F7F5CEBA41D0000EC86EB9
:103B200028D0B7C4C0F434D0B7A0FED7C7C2C0F401
:103B30002FD0F551F611D8B42BD0000EF55DD96F0A
:103B4000080EF659DA6FDABF06D0DA5121E1800E9D
:103B5000D95DD8B01DD0F5C5D9F4F6C5DAF4DF507B
:103B6000C06EF54BF62B14D0CBC7C0F411D0C06893
:103B70000FD00501F751000AD8B4D3D7010AD8B441
:103B8000D3D7090AD8B4D5D7060AD8B4EDD7EFD71A
:103B90000001D785D795CEA0FED7C868AAD1000E60
:103BA0000501EC6F000EEB6F45D0B7A2FED7D0C475
:103BB000C9F259D0F551F611D8B455D0000EF55DC3
:103BC000D96F080EF659DA6FDABF06D0DA514BE139
:103BD000800ED95DD8B047D0F5C5D9F4F6C5DAF472
:103BE000D0C4DFF4F54BF62B000EF55DD96F080E4F
:103BF000F659DA6F800ED919DA11D8A434D0000E34
:103C0000EC6F010EEB6F2FD0D0C4FBF52CD0D0C4DD
:103C1000E2F729D0D0C4E1F726D0D0C4FAF5030EDC
:103C2000FA19D8A4ECD71FD0D0C4F9F51CD0D0C451
:103C3000E0F719D0F751010AD8B4B7D7090AD8B4B8
:103C4000B9D7020AD8B4E0D7010AD8B4E0D7070A36
:103C5000D8B4E0D7010AD8B4E0D7020AD8B4E4D780
:103C60001F0AD8B4E4D70501EB51EC11D8A404D055
:103C70000001D785D7953DD1C290000E0201056F96
:103C8000000E036FBE88BE840001D785D795100E45
:103C90000501FB610CD0FB51040D6D0EF324D96EB0
:103CA000070EF420DA6EDE50DE10D8A402D0010E2A
:103CB000B6D0000EC96E000EC76EE2C701F5026AEB
:103CC000FB51040D6B0EF324D96E070EF420DA6E4F
:103CD000DEC403F5DDC404F5C7ECC6F00701E1510D
:103CE0000126000E0222FF0E01240501D96FFF0EEE
:103CF0000220DA6FD9C5E3F5DAC5E4F5E56BE66BCA
:103D0000FB51040D6D0EF324D96E070EF420DA6E0C
:103D1000DEC4EDF5DDC4EEF5EDC5AEF5EEC5AFF5EF
:103D2000E3C5D9F5E4C5DAF5E5C5DBF5E6C5DCF5AF
:103D3000070ED890D937DA37DB37DC37E82EF9D7DA
:103D4000D9C5B0F5DAC5B1F5DBC5B2F5DCC5B3F55B
:103D5000D3EC87F00009D8B407D0800E1D6EFF0E9B
:103D60001E6EAAECC5F0A3D7FA51D8B404D0020E47
:103D7000FA19D8A457D0EDC58AF5EEC58BF5000E1B
:103D80008C6F080E8D6F000E8F6F800E8E6FF30E8E
:103D9000906F050E916F46EC8EF00009D8B407D0F5
:103DA000930E1D6EFF0E1E6EAAECC5F080D7FA5161
:103DB000D8A430D00701E0510501D96FF951E76F60
:103DC000D9C5E8F5000EC86E000EF06F000EEF6F5B
:103DD000E7C5F7F5E8C5F8F5F8C5C1F4F7C5BFF4D0
:103DE000E74BE82BBE94000EEF25D96E080EF021AC
:103DF000DA6EDF50C06EBE84EF4BF02BF0BFE8D719
:103E0000F05104E1800EEF5DD8A0E2D7000EF56F0F
:103E1000000E03D0000EF56F080EF66F000E0701BE
:103E2000CB6F5DD0FA05D8B404D0030EFA19D8A42C
:103E300054D0FA05D8A42CD00701E0510501D96F60
:103E4000F951E96FD9C5EAF5C868000EF26F000EA6
:103E5000F16FF2BF06D0F2511BE1800EF15DD8B0D8
:103E600017D0E9C5F7F5EAC5F8F5F8C5C1F4F7C507
:103E7000BFF4E94BEA2BBE98000EF125D96E080E6F
:103E8000F221DA6EC0C4DFF4BE88F14BF22BE1D729
:103E9000EDC5AEF5EEC5AFF5000EB06F080EB16F13
:103EA000000EB36F800EB26FF30EB46F050EB56FD8
:103EB00063EC84F00009D8B407D06D0E1D6EFF0EC0
:103EC0001E6EAAECC5F0F3D6000E0701CB6F000EF4
:103ED0000501F56F000EF66F02D0010EF6D77F0ECA
:103EE000C96EC768C868010E0201056F020E036F34
:103EF000C280B59AE2C5F5F4E1C5F8F4E0C5F7F47F
:103F0000DFC5F6F4DEC5FBF4DDC5FAF41100020EE0
:103F10008F6F74517311721104E1020E715DD8A09C
:103F2000FAD120EE14F06F51D9267051DA22DE500A
:103F3000715DDE507259DE507359DE507459D8A04D
:103F4000DCD1E9D171C68DF672C68EF6D8908E316D
:103F50007A6F8D31796F79518D277A518E236FC6A3
:103F600064F670C665F620EE20F06F51D9267051C8
:103F7000DA22DEC479F6DEC47AF6DEC47BF6DEC46D
:103F80007CF68DC67DF68EC67EF6090E7F6FD890C4
:103F90007E337D337F2FFBD77D517925666F7E5130
:103FA0007A21676F000E7B21686F000E7C21696F9C
:103FB00078ECBDF08F6F8F51D8A4ADD1FF0E8D1569
:103FC000796F010E8E157A6F79516F257B6F7A515B
:103FD00070217C6F300E7B258B6F000E7C218C6FE7
:103FE0008D4B8E2B71B104D075C687F6886B1AD0B5
:103FF0007551796F7A6B793B7A3BF00E7A1779516C
:104000000F0B7A13F00E79178BC6D9F48CC6DAF43D
:10401000DF500F0B7B6F7C6B79517B11876F7A516F
:104020007C11886F8BC6D9F48CC6DAF487C6DFF4AE
:1040300020EE04F06F51D9267051DA22010EDF6EA6
:104040006FC664F670C665F620EE20F06F51D92673
:104050007051DA22DEC479F6DEC47AF6DEC47BF66D
:10406000DEC47CF68DC67DF68EC67EF6090E7F6FA9
:10407000D8907E337D337F2FFBD77D517925666FB6
:104080007E517A21676F000E7B21686F000E7C21C4
:10409000696F78ECBDF08F6F8F51D8A43CD1FF0EC3
:1040A0008D15796F010E8E157A6F79516F257B6FA3
:1040B0007A5170217C6F300E7B258B6F000E7C2136
:1040C0008C6F71B10ED076C679F60F0E79178BC64C
:1040D000D9F48CC6DAF4DF50F00B79117A6F7A518B
:1040E00012D075C679F676C67AF677C67BF678C6AC
:1040F0007CF6050E05D0D8907C337B337A33793348
:10410000E82EF9D77951896F8A6B8BC6D9F48CC6A2
:10411000DAF489C6DFF4E8D06FC664F670C665F6D7
:1041200020EE20F06F51D9267051DA22DEC479F6E4
:10413000DEC47AF6DEC47BF6DEC47CF672517D6F97
:1041400073517E6F74517F6F806B79517D25666FDF
:104150007A517E21676F7B517F21686F7C5180216E
:10416000696F78ECBDF08F6F8F51D8A4D4D071C631
:1041700079F672C67AF6D89079377A37FF0E7915C4
:104180007B6F010E7A157C6F7B516F257D6F7C51A3
:1041900070217E6F300E7D25006F000E7E21016F35
:1041A00075C602F676C603F679ECC6F09DD06FC6EA
:1041B00064F670C665F620EE20F06F51D926705176
:1041C000DA22DEC479F6DEC47AF6DEC47BF6DEC41B
:1041D0007CF671C67DF672C67EF673C67FF674C62F
:1041E00080F6080E05D0D89080337F337E337D3340
:1041F000E82EF9D779517D25666F7A517E21676F58
:104200007B517F21686F7C518021696F78ECBDF014
:104210008F6F8F51D8A47FD071C679F672C67AF6A7
:10422000D89079377A37D89079377A37FF0E791561
:104230007B6F010E7A157C6F7B516F257D6F7C51F2
:1042400070217E6F300E7D25006F000E7E21016F84
:10425000B7ECBBF0000E00157F6F000E0115806FEC
:10426000000E0215816FF00E0315826FFF0E75159B
:10427000836FFF0E7615846FFF0E7715856F0F0E17
:104280007815866F7F518311756F80518411766F19
:1042900081518511776F82518611786F71C679F6D9
:1042A00072C67AF6D89079377A37D89079377A37D4
:1042B000FF0E79157B6F010E7A157C6F7B516F2590
:1042C0007D6F7C5170217E6F300E7D25006F000E5A
:1042D0007E21016F75C602F676C603F677C604F630
:1042E00078C605F6D9ECC2F020EE04F06F51D9265D
:1042F0007051DA22010EDF6E0ED06FC6D9F470C68F
:10430000DAF4DF50010AD8B41DD6030AD8B404D7B2
:10431000010AD8B44CD78F511200ADC6D9F4AEC63D
:10432000DAF4DEC4C1F6DDC4C2F620EE0EF0AD5103
:10433000D926AE51DA22DEC4B1F6DEC4B2F6DEC44E
:10434000B3F6DEC4B4F6200EB125BD6F000EB22167
:10435000BE6F000EB321BF6F000EB421C06FC051FD
:1043600004E1200EBF5DD8A00AD020EE16F0AD51BA
:10437000D926AE51DA22DE6ADE6ADE6ADD6A20EE16
:1043800016F0AD51D926AE51DA22DE50DE10DE1025
:10439000DE10D8A402D0040E1200FF0EBD15B16FBE
:1043A000010EBE15B26F000EBF15B36F000EC01523
:1043B000B46FB151B211B311B411D8A434D120EEFD
:1043C00016F0AD51D926AE51DA22DE2A000EDE22D9
:1043D000DE22DE2220EE12F0AD51D926AE51DA22D5
:1043E000DE50DE10DE10DE10D8A42CD020EE08F057
:1043F000C151D926C251DA22DEC4B1F6DDC4B2F60B
:10440000B151B36FB251B46FB56BB66BBDC6B7F6F1
:10441000BEC6B8F6BFC6B9F6C0C6BAF6060E05D017
:10442000D890BA33B933B833B733E82EF9D7B3518C
:10443000B75DB451B859B551B959B651BA59D8A0A8
:10444000F2D078D020EE0AF0C151D926C251DA223A
:10445000DEC4B1F6DDC4B2F6FF0EB125B36FFF0EB8
:10446000B221B46FBDC6B5F6BEC6B6F6BFC6B7F6C6
:10447000C0C6B8F60A0E05D0D890B833B733B633F5
:10448000B533E82EF9D7B351B515B96FB451B61598
:10449000BA6F000EB715BB6F000EB815BC6FB951DF
:1044A000BA11BB11BC11D8A4BED0ADC66FF6AEC652
:1044B00070F620EE12F0AD51D926AE51DA22DEC4EC
:1044C00071F6DEC472F6DEC473F6DEC474F699ECDF
:1044D000A6F06FC6C3F670C6C4F671C6C5F672C63E
:1044E000C6F6C651C511C41106E1020EC35DD8B0AF
:1044F00002D0020E1200C32909E1C42907E1C5292F
:1045000005E1C629D8A402D0010E120020EE14F055
:10451000C151D926C251DA22DE50C35DDE50C459E2
:10452000DE50C559DE50C659D8A053D0AF51B01196
:10453000D8A40BD020EE16F0AD51D926AE51DA2218
:10454000DE6ADE6ADE6ADD6A26D7ADC690F6AEC6E2
:1045500091F620EE12F0AD51D926AE51DA22DEC42A
:1045600092F6DEC493F6DEC494F6DEC495F635EC1E
:1045700099F090C6C3F691C6C4F692C6C5F693C626
:10458000C6F6C351C411C511C611D8A402D0070E76
:104590001200C305C411C511C611D8B4AAD7C329C6
:1045A00007E1C42905E1C52903E1C629D8B4ACD780
:1045B000C1C664F6C2C665F6C3C666F6C4C667F66B
:1045C000C5C668F6C6C669F60FECB6F00009D8A4F1
:1045D0009BD720EE12F0AD51D926AE51DA22C3C6D8
:1045E000DEF4C4C6DEF4C5C6DEF4C6C6DEF4C1C65B
:1045F0000CF6C2C60DF6C3C60EF6C4C60FF6C5C687
:1046000010F6C6C611F696ECBAF020EE16F0AD51D3
:10461000D926AE51DA220CC6DEF40DC6DEF40EC683
:10462000DEF40FC6DEF420EE0EF0AD51D926AE5109
:10463000DA22BDC6DEF4BEC6DEF4BFC6DEF4C0C6F6
:10464000DEF4FF0EBD15B16F010EBE15B26FB15194
:10465000C125B36FB251C221B46F300EB327000E23
:10466000B42320EE1AF0AD51D926AE51DA22B3C6EA
:10467000DEF4B4C6DDF4000E1200080E0001B16FC6
:1046800004012093C292CA922091C290CA90000E57
:10469000186F000EC16E000EC96E2095C284CA94B8
:1046A000000E086F000EBF6E000EC76E000E106F7A
:1046B000000EC06E000EC86E3F0E0201046F0401B2
:1046C0000097C696710E436F000E446F030E456F40
:1046D000000E476F4691468B468F0095BE84C69468
:1046E0000099BE88C698000E0201056F010ED56FB5
:1046F000A00ED46FD189D18B0401009FC68E070E06
:104700000201766F0401009DBE8CC69C260E02013C
:10471000076FD28F000E036FC30E06011C6FFF0ED2
:104720001D6F8DECC5F0000E3B6F0A0E3A6F000E48
:104730003D6F000E3C6F000E3F6F640E3E6FCBEC82
:10474000B1F0B20E0701006F1B0E016FF90E026F80
:10475000FF0E036F010E046FF5ECB8F00009D8A44A
:104760007ED0000E676F000E666F6BD06651410FF2
:10477000686F500E06011C6F070E1D6F580E1E6FDE
:10478000FF0E1F6F68C720F6216BE3ECC4F0DEC795
:1047900000F6DFC701F6020E036F220E026FA1ECD6
:1047A000C6F0A20E00250701006F0A0E06010121C6
:1047B0000701016F500E026F070E036F030E046FA7
:1047C00014EC8BF00009D8A43AD00F0E06011C6F30
:1047D000FF0E1D6F68C71EF61F6B68C720F6216BA2
:1047E0008DECC5F0DEC700F6DFC701F6020E036FE1
:1047F000220E026FA1ECC6F0A20E0025FC6F0A0E7D
:104800000121FD6F6B0EFE6F070EFF6F020EFE277C
:10481000000EFF23D89007016635D96E6735DA6E32
:10482000D890D936DA360601FE51D926FF51DA2260
:10483000FCC6DEF4FDC6DDF40701DE4BDF2B664B64
:10484000672B67510CE1100E665DD8B008D0DFBF52
:104850008DD7DF5104E1080EDE5DD8A087D76D51FA
:104860006E11D8A408D0B60E06011C6FFF0E1D6F86
:104870008DECC5F0FFD7000E6A6F000E696F69C737
:10488000F7F56AC7F8F5F8C5C1F4F7C5BFF4BE94EB
:10489000390E6925F66EFE0E6A21F76EF86A000E73
:1048A000F8220800F5C4C0F4BE84694B6A2B6A5133
:1048B00004E1C40E695DD8A0E2D7000E0401186FB0
:1048C0001969C968000E086F0969C768000E106F82
:1048D0001169C86800910181C68000930183C68276
:1048E000009B018BC68A189D198DC98C189FC18E9B
:1048F000C99E010E0201616F000E626F1E0E636F92
:10490000050E656F010E056F020E036F030E206F1B
:10491000000E0001D56F000ED86F020ED96F040E85
:10492000DA6F7F0EDB6F010EDC6F080EDD6F100E8D
:10493000DE6F400EDF6F800ED76F820ED66F010ED6
:10494000D56F000ED86F020ED96F040EDA6F7F0E8E
:10495000DB6F010EDC6F080EDD6F200EDE6F400E88
:10496000DF6F800ED76F820ED66F020ED56F010EED
:10497000D86F7F0ED96F7F0EDA6F7F0EDB6F010E5F
:10498000DC6F000EDD6F000EDE6F000EDF6F820E3B
:10499000D76F8C0ED66F000ED46F550E0401596F71
:1049A000AA0E596F5991080E5D6F000E5E6F000ED2
:1049B0005F6F550E596FAA0E596F5981B59AA58A26
:1049C000D68EC280C282C30E06011C6FFF0E1D6F01
:1049D0008DECC5F0FFD770C5D9F471C5DAF4DEC42B
:1049E00088F5DDC489F575517411731104E1020E67
:1049F000725DD8A010D020EE14F08851D9268951CC
:104A0000DA22DE50725DDE507359DE507459DE508A
:104A10007559D8A008D0010E806F000E816F000E6E
:104A2000826F000E6CD1806981698269836969D166
:104A300072C586F573C587F5D8908731776F863153
:104A4000766F765186277751872388C555F589C5B6
:104A500056F520EE20F08851D9268951DA22DEC49D
:104A600076F5DEC477F5DEC478F5DEC479F586C563
:104A70007AF587C57BF5090E7C6FD8907B337A3346
:104A80007C2FFBD77A517625576E7B517721586E54
:104A9000000E7821596E000E79215A6ECCECBDF0D3
:104AA0000009D8A43DD1FF0E05018615766F010ED1
:104AB0008715776F76518825786F77518921796FBF
:104AC000300E7825D96E000E7921DA6EDF507A6FBC
:104AD0007A51846F856B864B872B88C555F589C5C0
:104AE00056F520EE20F08851D9268951DA22DEC40D
:104AF00076F5DEC477F5DEC478F5DEC479F586C5D3
:104B00007AF587C57BF5090E7C6FD8907B337A33B5
:104B10007C2FFBD77A517625576E7B517721586EC3
:104B2000000E7821596E000E79215A6ECCECBDF042
:104B30000009D8A4F5D0FF0E05018615766F010E89
:104B40008715776F76518825786F77518921796F2E
:104B5000300E7825D96E000E7921DA6EDF507A6F2B
:104B60007A517C6F7B6B7B5184137C51851372B1BE
:104B700007D0FF0E84157E6F0F0E85157F6F0FD047
:104B800084C576F585C577F5040E786FD8907733B0
:104B90007633782FFBD776C57EF577C57FF57EC552
:104BA00080F57FC581F54AD088C555F589C556F58C
:104BB00020EE20F08851D9268951DA22DEC476F51C
:104BC000DEC477F5DEC478F5DEC479F573517A6F0B
:104BD00074517B6F75517C6F7D6B76517A25576E62
:104BE00077517B21586E78517C21596E79517D2106
:104BF0005A6ECCECBDF00009D8A492D072C576F5FF
:104C000073C577F5D890050176377737FF0E76159F
:104C1000786F010E7715796F785188257A6F795101
:104C200089217B6F300E7A25016E000E7B21026E8A
:104C3000FFECC5F001C580F502C581F5826B836B81
:104C40006FD088C555F589C556F520EE20F08851FE
:104C5000D9268951DA22DEC476F5DEC477F5DEC4C2
:104C600078F5DEC479F572C57AF573C57BF574C540
:104C70007CF575C57DF5080E05D0D8907D337C3365
:104C80007B337A33E82EF9D776517A25576E7751F0
:104C90007B21586E78517C21596E79517D215A6E55
:104CA000CCECBDF00009D8A43BD072C576F573C535
:104CB00077F50501D89076377737D89076377737FC
:104CC000FF0E7615786F010E7715796F785188256C
:104CD0007A6F795189217B6F300E7A25016E000E33
:104CE0007B21026E13ECBCF0FF0E0114806FFF0EEF
:104CF0000214816FFF0E0314826F0F0E0414836F72
:104D00000FD088C5D9F489C5DAF4DF50010AD8B4C8
:104D10008FD6030AD8B448D7010AD8B492D77BD625
:104D200080C570F581C571F582C572F583C573F5CF
:104D300012006FC6D9F470C6DAF4DEC487F6DDC49B
:104D400088F6060174517311721104E1020E715D4F
:104D5000D8A010D020EE14F08751D9268851DA223D
:104D6000DE50715DDE507259DE507359DE50745959
:104D7000D8A008D0010E7F6F000E806F000E816FEB
:104D8000000E68D17F6980698169826965D171C6C9
:104D900085F672C686F6D8908631766F8531756F46
:104DA000755185277651862387C664F688C665F6D1
:104DB00020EE20F08751D9268851DA22DEC475F61C
:104DC000DEC476F6DEC477F6DEC478F685C679F6FC
:104DD00086C67AF6090E7B6FD8907A3379337B2FAB
:104DE000FBD779517525666F7A517621676F000E72
:104DF0007721686F000E7821696F78ECBDF00009AB
:104E0000D8A439D1FF0E8515756F010E8615766F02
:104E100075518725776F76518821786F300E772509
:104E2000D96E000E7821DA6EDF50796F7951836F79
:104E3000846B854B862B87C664F688C665F620EEA4
:104E400020F08751D9268851DA22DEC475F6DEC4F7
:104E500076F6DEC477F6DEC478F685C679F686C6C1
:104E60007AF6090E7B6FD8907A3379337B2FFBD794
:104E700079517525666F7A517621676F000E77211B
:104E8000686F000E7821696F78ECBDF00009D8A436
:104E9000F2D0FF0E8515756F010E8615766F755170
:104EA0008725776F76518821786F300E7725D96EF8
:104EB000000E7821DA6EDF50796F79517B6F7A6B53
:104EC0007A5183137B51841371B107D0FF0E831580
:104ED0007D6F0F0E84157E6F0FD083C675F684C666
:104EE00076F6040E776FD89076337533772FFBD72D
:104EF00075C67DF676C67EF67DC67FF67EC680F6E2
:104F000049D087C664F688C665F620EE20F0875142
:104F1000D9268851DA22DEC475F6DEC476F6DEC400
:104F200077F6DEC478F67251796F73517A6F7451E7
:104F30007B6F7C6B75517925666F76517A21676F2F
:104F400077517B21686F78517C21696F78ECBDF0D7
:104F50000009D8A490D071C675F672C676F6D890BE
:104F600075377637FF0E7515776F010E7615786FEA
:104F700077518725796F785188217A6F300E79259E
:104F8000006F000E7A21016FC7ECC5F000C67FF6F6
:104F900001C680F6816B826B6ED087C664F688C6C8
:104FA00065F620EE20F08751D9268851DA22DEC43A
:104FB00075F6DEC476F6DEC477F6DEC478F671C622
:104FC00079F672C67AF673C67BF674C67CF6080E5E
:104FD00005D0D8907C337B337A337933E82EF9D7F8
:104FE00075517925666F76517A21676F77517B21EC
:104FF000686F78517C21696F78ECBDF00009D8A406
:105000003AD071C675F672C676F6D890753776378F
:10501000D89075377637FF0E7515776F010E7615B8
:10502000786F77518725796F785188217A6F300EA4
:105030007925006F000E7A21016FB7ECBBF0FF0EEF
:1050400000157F6FFF0E0115806FFF0E0215816F37
:105050000F0E0315826F0FD087C6D9F488C6DAF415
:10506000DF50010AD8B493D6030AD8B44AD7010A4C
:10507000D8B493D77FD67FC66FF680C670F681C648
:1050800071F682C672F6120089C6D9F48AC6DAF4BD
:10509000DEC4A1F6DDC4A2F68E510AE1200E8D5DBC
:1050A000D8B006D08BC68FF61F0E8F17D8B402D09B
:1050B000020E120020EE0EF08951D9268A51DA2212
:1050C0008BC6DEF48CC6DEF48DC6DEF48EC6DEF44E
:1050D00020EE06F08951D9268A51DA22DEC49DF6E7
:1050E000DEC49EF6DEC49FF6DEC4A0F69D519E117E
:1050F0009F11A011D8A415D0A1C6D9F4A2C6DAF484
:10510000020EDF640ED020EE24F0A151D926A25168
:10511000DA22DEC49DF6DEC49EF6DEC49FF6DEC44F
:10512000A0F69D519E119F11A011D8A440D020EE51
:1051300008F0A151D926A251DA22DEC48FF6DDC4CF
:1051400090F68F51916F9051926F936B946B8BC6C9
:1051500095F68CC696F68DC697F68EC698F6060E10
:1051600005D0D8909833973396339533E82EF9D7F6
:105170009151955D925196599351975994519859DF
:10518000D8B096D720EE24F0A151D926A251DA2228
:1051900010EE16F08951E1268A51E222DEC4E6F4CF
:1051A000DEC4E6F4DEC4E6F4DEC4E6F488D020EE25
:1051B0000AF0A151D926A251DA22DEC48FF6DDC44D
:1051C00090F68F51916F9051926F936B946B090E83
:1051D000D8909137923793379437E82EF9D791C604
:1051E00099F692C69AF693C69BF694C69CF641D061
:1051F00089C66FF68AC670F69DC671F69EC672F6AF
:105200009FC673F6A0C674F699ECA6F06FC69DF61D
:1052100070C69EF671C69FF672C6A0F69D2909E17A
:105220009E2907E19F2905E1A029D8A402D0010EFB
:105230001200A0519F119E1104E1020E9D5DD8A0A5
:1052400037D720EE14F0A151D926A251DA22DE5030
:105250009D5DDE509E59DE509F59DE50A059D8B05A
:1052600027D799518B5F9A518C5B9B518D5B9C51D9
:105270008E5B99518B5D9A518C599B518D599C51E4
:105280008E59D8B0B5D7A1C60CF6A2C60DF69DC6EC
:105290000EF69EC60FF69FC610F6A0C611F696EC47
:1052A000BAF020EE16F08951D9268A51DA220CC6BE
:1052B000DEF40DC6DEF40EC6DEF40FC6DEF420EE1C
:1052C00012F08951D9268A51DA229DC6DEF49EC693
:1052D000DEF49FC6DEF4A0C6DEF420EE16F089519F
:1052E000D9268A51DA22DE50DE10DE10DE10D8B464
:1052F000DFD68BC68FF68CC690F68DC691F68EC61D
:1053000092F60A0E05D0D8909233913390338F33B2
:10531000E82EF9D720EE16F08951D9268A51DA22E3
:105320008F51DE269051DE229151DE229251DE22F3
:10533000FF0E8B158F6F010E8C15906F8F51A1256D
:10534000916F9051A221926F300E9127000E9223FF
:1053500020EE1AF08951D9268A51DA2291C6DEF45C
:1053600092C6DDF4000E12000AC6D9F40BC6DAF4B8
:10537000DEC414F6DDC415F61C0E0825186F000EE9
:105380000921196F18C600F619C601F6000E036F41
:10539000200E026F000E056F0B0E046F4DECC6F071
:1053A000000E1B6F000E1A6F1AC616F61BC617F6F4
:1053B000000E136F080E126F165114250C6F175143
:1053C00015210D6F0CC6F6F40DC6F7F4000EF86E3D
:1053D000250EF76403D00800F55005D0F6C4E9F4B3
:1053E000F7C4EAF4EF5006011C6F164B172B210E81
:1053F0001C6101D0C7D02F0E1C19D8B408D05C0E88
:105400001C19D8B404D039D00601164B172B1651ED
:1054100014250C6F175115210D6F0CC6F6F40DC62F
:10542000F7F4000EF86E250EF76403D00800F5506F
:1054300005D0F6C4E9F4F7C4EAF4EF502F0AD8B463
:10544000E3D70601165114250C6F175115210D6F66
:105450000CC6F6F40DC6F7F4000EF86E250EF764D0
:1054600003D00800F55005D0F6C4E9F4F7C4EAF417
:10547000EF505C0AD8A486D0C7D72E0E1C19D8B41A
:1054800006D012511A5D13511B59D8A013D00B0E20
:1054900012191311D8B404D02E0E1C19D8B402D08E
:1054A000060E1200000E1B6F080E1A6F000E136F0F
:1054B0000B0E81D71C51F9ECC1F000510111D8B489
:1054C00041D0165114250C6F175115210D6F0CC6C4
:1054D000F6F40DC6F7F4000EF86E250EF76403D04F
:1054E0000800F55005D0F6C4E9F4F7C4EAF4EF502B
:1054F0000601116F164B172B11511FECBEF0005116
:105500000111D8B4CDD7FF0E12250C6FFF0E132159
:105510000D6F0C511A5D0D511B59D8B0C1D71A51DE
:105520001825D96E1B511921DA6E1CC6DFF41A4BEF
:105530001B2B1A511825D96E1B511921DA6E11C671
:10554000DFF41DD0C60E006FFF0E016F1CC602F601
:10555000036B06ECC5F000510111D8A4A1D7600E71
:105560001C6505D07B0E1C6102D0200E1C5F1A51F9
:105570001825D96E1B511921DA6E1CC6DFF41A4B9F
:105580001B2B1AD70601165114250C6F1751152124
:105590000D6F0AC6D9F40BC6DAF40CC6DEF40DC6DC
:1055A000DDF41A511B11D8B47BD718C6D9F419C62B
:1055B000DAF4E50EDE18D8A406D018C6D9F419C658
:1055C000DAF4050EDF6E200E1C6520D0165114256E
:1055D0000C6F175115210D6F0CC6F6F40DC6F7F4BC
:1055E000000EF86E250EF76403D00800F55005D0C4
:1055F000F6C4E9F4F7C4EAF4EF5006010E6F200E8A
:105600000E6504D0000E106F000E03D0000E106F58
:10561000040E0F6F20EE0BF01851D9261951DA2223
:105620000FC6DFF4000E1200000E3D6F050E3C6F3A
:10563000000E456F000E446F4669000E3F6F000E6E
:105640003E6F14D044C600F645C601F6460E026F02
:10565000060E036F000E056F010E046FC9ECBCF05F
:1056600000C644F601C645F63E4B3F2B31513E5D28
:105670003F51800A376F3251800A3759D8A0E2D79C
:1056800044C600F645C601F633C602F634C603F634
:1056900035C604F636C605F6C9ECBCF000C644F6BD
:1056A00001C645F6000E416F000E406F14D044C68F
:1056B00000F645C601F6460E026F060E036F000E99
:1056C000056F010E046FC9ECBCF000C644F601C6BC
:1056D00045F6404B412B31C637F632C638F6371FF8
:1056E000381F374B382B3551375F3651385B000E3A
:1056F0003725396F020E38213A6F3951405D4151DB
:10570000800A3B6F3A51800A3B59D8A0D0D72DC6AA
:105710001FF62EC620F62FC621F630C622F6460EFC
:105720000601236F060E246F180EBAECBEF01FC6DA
:1057300042F620C643F642514311D8A494D04651B4
:10574000D8B404D0000E436F030E8CD0FE0E466F0B
:10575000460E106F060E116F000E136F010E126FC2
:1057600046ECC1F031C619F632C61AF60AECC1F0A1
:1057700033C610F634C611F635C612F636C613F621
:1057800046ECC1F031C637F632C638F60601371F8F
:10579000381F374B382B3551375F3651385B000E89
:1057A0003725196F020E38211A6F0AECC1F045C671
:1057B00046F6460E106F060E116F000E136F010EA7
:1057C000126F46ECC1F044C646F6460E0601106F55
:1057D000060E116F000E136F010E126F46ECC1F032
:1057E0000B0E06011B6FB80E1A6FFF0E36ECC6F0DB
:1057F0001A51466F4629D8A404D0000E436F010EFB
:1058000031D046511F0B050AD8B41DD046511F0B8D
