:0400000081EF00F09C
:100008005503550355035503400055034000550358
:100018005503550355035503550355035503550318
:100028005503400040004000550355035503550350
:1000380055035503550355035503550355035503F8
:100048005503550355035503400040005503550318
:1000580055035503550340005503550355035503F0
:1000680055035503550355035503550355035503C8
:1000780055035503550355034000550355035503D0
:1000880055035503550355035503550355035503A8
:1000980055035503550355034000550340004000E0
:1000A8005503550355035503550355035503550388
:1000B8005503550355035503550355035503550378
:1000C8005503550355035503550355035503550368
:1000D8005503550355035503550355035503550358
:1000E80040005503550355034000400040004000C0
:1000F8005503550355035503FF007DEFEFF0BCC6CC
:10010800D9F4BDC6DAF4DE50DE10D8B41ED0BCC6B1
:10011800D9F4BDC6DAF4DEC4BEF6DDC4BFF6BEC689
:10012800D9F4BFC6DAF4DF50D8B40FD0BCC6D9F4BE
:10013800BDC6DAF4DEC438F5DDC439F5DFECE4F029
:1001480038C53FF739C540F705D0000E0701406FA5
:10015800010E3F6F000E0601BB6F000EBA6F120052
:1001680004D0084A092A0A4A0B2A08C5D9F409C53D
:10017800DAF4DF500C6E0AC5F6F40BC5F7F4000E7E
:10018800F86E0800F5500C18D8A407D008C5D9F4A3
:1001980009C5DAF4DF50D8A4E4D708C5D9F409C5ED
:1001A800DAF4DF500C6E0AC5F6F40BC5F7F4000E4E
:1001B800F86E0800F5500C5C086E096AD8A00906AC
:1001C8001200000E106E08C511F509C512F50A5087
:1001D80011240C6E0B5012200D6E1CD011C5D9F4D1
:1001E80012C5DAF4DF50101A114A122A000E0F6EE7
:1001F800000E0E6E10AE02D0890E101AD89010366E
:100208000E4A0F2A0FBEF6D70F5004E1080E0E5CF7
:10021800D8A0F0D70C50115C0D501258D8A0DED7DA
:10022800105012000701EF29F011D8B41200EF5155
:100238000501F46F0701F0510501F56FF66BF76BD7
:10024800F5C5F7F5F4C5F6F5F56BF46B690EF4250D
:10025800E06F000EF521E16F000EF621E26F000E4F
:10026800F721E36F7D0EE46F090EE56F000EE76F6F
:100278002D0EE66FC9ECD8F0000E0701F06FEF699C
:100288001200E929EA11D8B41200E9510501F46F06
:100298000701EA510501F56FF66BF76BF5C5F7F540
:1002A800F4C5F6F5F56BF46B0B0EF425E06F000E54
:1002B800F521E16F000EF621E26F000EF721E36FE2
:1002C800500EE46F090EE56F000EE76F2D0EE66F16
:1002D800C9ECD8F0000E0701EA6FE969120000FFC7
:1002E800060006A5065A06FF0A000AA50A5A0AFFCA
:1002F800286E756C6C29001A0000001A0000001A9C
:100308000000001A000000000000000000000000CB
:100318000000000000000080000000800000008055
:100328000000008000000000000000000000000045
:07033800000000644000001A
:10034000516E0701FC51D8B404D0AA0E5118D8A49C
:100350001200AA0E5118D8A403D0000EFC6F120090
:1003600051AC0CD0D90E0501BE6FF20EBF6F000E5E
:10037000C16FA00EC06F72EC07F0FF0051AE12000B
:10038000440E0501BE6FF30EBF6F000EC16FA00ECD
:10039000C06F72EC07F0FFD70BBE07D00B500A10EE
:1003A00009101DE10804D8B01AD008C50CF509C51C
:1003B0000DF50AC50EF50BC50FF50C1E0D1E0E1E14
:1003C0000F1E0C2A000E0D220E220F220CC508F55E
:1003D0000DC509F50EC50AF50FC50BF5120008C5C8
:1003E00008F509C509F50AC50AF50BC50BF5120094
:1003F000516E5150D8B40ED00601F351F411D8B457
:1004000007D0870E0501BE6FF40EBF6F72EC07F0C8
:10041000020E12000701DD2914E1DE2912E1DF29B5
:1004200010E1E029D8A40DD00601F351F411D8B49D
:10043000EFD7D20E0501BE6FF50EBF6F72EC07F05D
:10044000E7D7000E1200000E106E000E116E000EA7
:10045000126E000E136E08A008D00C5010260D501E
:1004600011220E5012220F501322D8900C360D3646
:100470000E360F36D8900B320A3209320832085045
:1004800009100A100B10D8A4E6D710C508F511C53D
:1004900009F512C50AF513C50BF51200186812C547
:1004A00008F513C509F5D0EC03F0000E176E000E29
:1004B000166E10D012C508F513C509F5180E0A6E90
:1004C000050E0B6E000E0D6E010E0C6E52ECFFF061
:1004D000164A172A1450165C15501758D8A0EAD798
:1004E00012C508F513C509F5DEEC05F01200C20EC1
:1004F000D16F050ED26FBEC5C6F5BFC5C7F5000EDC
:10050000CA6F000EC96F000ED06F000ECF6FC60EFF
:10051000B66F050EB76FC0C5B8F5C1C5B9F5D10E38
:10052000BA6F050EBB6F85ECFFF0C951BE25D96EC1
:10053000CA51BF21DA6E000EDF6E12000CC50EF537
:100540000DC50FF520EE05F00E50D9260F50DA221A
:10055000C8C4DFF4C896C898C88A20EE03F00E50CD
:10056000D9260F50DA22DF50D8B402D0C08801D08B
:10057000C098C0860CC508F50DC509F5000E0B6EB8
:10058000010E0A6E97EC08F01200066ED69E070167
:1005900038511AE1500E375DD8B016D03751352595
:1005A000016E38513621026E000E046E500E036E3D
:1005B0002CEC05F0000E0124D96E0A0E0220DA6E32
:1005C00006C5DFF4374B382B385103E1400E375D59
:1005D000D8B0A790D68E1200070149514A11D8B45D
:1005E0001200B5BA1200C2906A0EE82EFED700D0F3
:1005F000B5AA02D0C2801200000E07014A6F000E99
:10060000496F000E0501676F010E666F8AEC05F0F9
:100610007DEC08F0000E0501676F000E666F8AEC36
:1006200005F0E8D70D6ED69E0701345104E1500E57
:10063000335DD8A004D0B7A2FED738EC03F0335115
:100640003125086E34513221096E000E0B6E500EAA
:100650000A6EEAEC04F0000E0824D96E090E092097
:10066000DA6E0DC5DFF4334B342BA782D68E120021
:100670001DD0000E3125D96E090E3221DA6EDF5001
:100680000201C96F010E07013125086E000E3221EB
:10069000096E000E0B6E500E0A6EEAEC04F008C5EF
:1006A00031F709C532F73307D8A0340707013351B2
:1006B0003411D8B41200B7A21200DBD7010E146EA9
:1006C000200E0E10106E000E0F10116E9F0E1024D3
:1006D000126EFF0E1120136E135004E11A0E125CFD
:1006E000D8A00ED0D00E0E24106EFF0E0F20116E6B
:1006F000115004E10A0E105CD8A002D0000E146E56
:1007000014C50EF50F6A1200760E086E070E096EFC
:1007100072EC08F008500910D8B414D0760E356E7B
:10072000070E366E000E386E000E376E40504110C8
:10073000D8A402D0010E01D0000E396E3A6A72ECD4
:10074000EBF0120040504110D8A402D0C284120035
:10075000C29412001DD0000E3125D96E090E32212F
:10076000DA6EDF500201C96F010E07013125016EFB
:10077000000E3221026E000E046E500E036E2CEC41
:1007800005F001C531F702C532F73307D8A03407A9
:10079000070133513411D8B41200B7A21200DBD7CD
:1007A00008C50AF509C50BF520EE02F00A50D92656
:1007B0000B50DA22DF50D8A410D0310E0201126F94
:1007C000320E116F20EE03F00A50D9260B50DA22B8
:1007D000C8C4DFF4C890C892C88420EE02F00A5062
:1007E000D9260B50DA22DF2A12000501F451F66FE8
:1007F000F551F76FF86BF96BF7C5F9F5F6C5F8F534
:10080000F76BF66B660EF625E06F000EF721E16FD1
:10081000000EF821E26F000EF921E36F990EE46FEC
:10082000E90EE56F000EE76F030EE66FC9ECD8F036
:10083000120012D008C5D9F409C5DAF4DFC40AF5EC
:10084000010EDE26DFC40BF5000EDD220AC5D9F449
:100850000BC5DAF4000EDF6E08C5D9F409C5DAF469
:10086000DEC40AF5DDC40BF50AC5D9F40BC5DAF40C
:10087000200EDE18D8A41200DDD70501F451F66F62
:10088000F551F76FF86BF96BF7C5F9F5F6C5F8F5A3
:10089000F76BF66B080EF625E06F000EF721E16F9F
:1008A000000EF821E26F000EF921E36F390EE46FBC
:1008B000EA0EE56F000EE76F030EE66FC9ECD8F0A5
:1008C0001200000E251A000E261A000E271A800E9E
:1008D000281A21C508F522C509F523C50AF524C53E
:1008E0000BF525C50CF526C50DF527C50EF528C554
:1008F0000FF5D5ECBCF008C521F509C522F50AC5F0
:1009000023F50BC524F5120008C5F6F409C5F7F464
:10091000000EF86E0800F5500A18D8A405D008C5D6
:1009200008F509C509F5120008C5F6F409C5F7F47C
:10093000084A092A000EF86E0800F5500009D8A4EC
:10094000E3D7000E086E000E096E12000AC511F5FD
:100950000BC512F508C50FF509C510F510D011C566
:10096000D9F412C5DAF4DF500E6E114A122A0FC5FF
:10097000D9F410C5DAF40EC5DFF40F4A102A0C06BC
:10098000D8A00D060C28EBE10D28D8B41200E7D74B
:1009900008C50AF509C50BF502D0084A092A08C599
:1009A000F6F409C5F7F4000EF86E250EF76403D0CF
:1009B0000800F55005D0F6C4E9F4F7C4EAF4EF50A6
:1009C0000009D8A4EAD70A50085C086E0B500958F1
:1009D000096E12000A500B10D8B418D0010E0C6E1C
:1009E00004D0D8900A360B360C2A0BAEFAD70A5030
:1009F000085C0B500958D8A004D00A50085E0B5070
:100A0000095AD8900B320A320C2EF1D708C508F5D6
:100A100009C509F512001A0E0E24086E000E0F20EB
:100A2000096E10C50AF511C50BF55EEC07F00CC593
:100A3000D9F40DC5DAF4030EDE18D8A41200140E92
:100A40000E24086E000E0F20096E12C50AF513C59C
:100A50000BF55EEC07F0120003500410D8B418D068
:100A6000010E056E04D0D89003360436052A04AE74
:100A7000FAD70350015C04500258D8A004D00350A8
:100A8000015E0450025AD89004320332052EF1D789
:100A900001C501F502C502F51200008040C020A08A
:100AA00060E0109050D030B070F00008040C020AE2
:100AB000060E0109050D030B070F008040C020A0A2
:100AC00060E0109050D030B070F00008040C020AC2
:100AD000060E0109050D030B070F0AC50CF50BC522
:100AE0000DF508C50EF509C50FF50CC5F6F40DC5D5
:100AF000F7F40C4A0D2A000EF86E0EC5D9F40FC596
:100B0000DAF40E4A0F2A0800F5C4DFF4DF50D8B437
:100B10001200EBD766516711D8B40CD0000E020159
:100B2000056F000E036FBE88BE84400EC96E000EB6
:100B3000C76E1200F3ECF9F07F0EC96EC768C86883
:100B4000010E0201056F020E036F120020EE01F08C
:100B50000850D9260950DA22DF500A6E0A500D6E6D
:100B60000E6A08C5D9F409C5DAF4DF500A6E0D50D3
:100B70000B6E0A500D6E0BC50EF50DC508F50EC5B2
:100B800009F51200000E186E000E176E0BD016C578
:100B900009F50A6A14C50BF515C50CF56DECF8F0EE
:100BA000174A182A17501224D96E18501320DA6EDB
:100BB000DF50166E1650D8B41200E9D708C50AF5F2
:100BC00009C50BF520EE02F00A50D9260B50DA22A7
:100BD000DF06DF50D8A41200000E0201126F000ED3
:100BE000116F20EE03F00A50D9260B50DA22DF50A5
:100BF000C86E12000D6E0D500F0B086E096AAA0E1A
:100C00000824D96E090E0920DA6EDF500A6E0D38FD
:100C10000F0B0F0B0B6E0C6ABA0E0B24D96E090E5C
:100C20000C20DA6EDF500A10120007D008C5D9F484
:100C300009C5DAF4DE2A000EDD2208C5D9F409C59B
:100C4000DAF4DEC40AF5DDC40BF50AC5D9F40BC528
:100C5000DAF4200EDE18D8A41200E8D732C515F554
:100C600033C516F534C517F535C518F536C519F56C
:100C700037C51AF5000E1B6EA6ECB9F015C532F596
:100C800016C533F517C534F518C535F512001BBE6A
:100C900005D01B5010E11A04D8B00DD01AC51CF5B0
:100CA0001BC51DF51C1E1D1E1C4A1D2A1CC51AF540
:100CB0001DC51BF512001AC51AF51BC51BF5120040
:100CC000010E0C6E200E08180910D8B40ED0F70EC5
:100CD00008240A6EFF0E09200B6E0B5004E1050E6E
:100CE0000A5CD8A002D0000E0C6E0CC508F5096A8B
:100CF0001200176E00C718F501C719F518C512F5CF
:100D000019C513F505EC08F01A6E17501A18D8A477
:100D100007D01506D8A0160615501610D8A4EED781
:100D20001A501200200E08100A6E000E09100B6EE9
:100D30009F0E0A240C6EFF0E0B200D6E0D5006E167
:100D40001A0E0C5CD8B002D0010E01D0000E086E55
:100D5000096A1200B7A00ED0C7C207F50750D8B471
:100D600004D00750C5EC02F005D0000E07014A6F11
:100D7000010E496FAAEC03F033513411D8A41100CD
:100D8000A7921100D6510701435D4451800A516E6C
:100D90000501D751800A5158D8B012002C0EBE6FF1
:100DA000EC0EBF6FD6C5C0F5D7C5C1F572EC07F024
:100DB0001200E1C5D6F5E2C5D7F5E30ED86F050EF2
:100DC000D96F7FECF1F0E56FE551D8A41200E1C5D1
:100DD000D9F4E2C5DAF4000EDE6E000EDD6E12000C
:100DE000085009100A100B10D8B408D0000E081AC9
:100DF000000E091A000E0A1A800E0B1A08C508F513
:100E000009C509F50AC50AF50BC50BF512000CC595
:100E10000EF50DC50FF50CC508F50DC509F5000E4D
:100E20000B6E000E0A6E97EC08F020EE05F00E50E7
:100E3000D9260F50DA22DF50C86E12009F0E0C2404
:100E40000E6EFF0E0D200F6E0F5009E11A0E0E5C94
:100E5000D8B005D05F0E0C140C6E0D6A12000CC5D4
:100E60000CF50DC50DF5120008C50CF509C50DF5FD
:100E70000CC5D9F40DC5DAF40AC5DFF40C4A0D2A05
:100E80000CC5D9F40DC5DAF40BC5DFF40C4A0D2AF4
:100E9000120000C744F501C745F544C542F545C5F4
:100EA00043F527EC08F044C512F545C513F5000ECF
:100EB000156E010E146E4EEC02F0120008C5D9F446
:100EC00009C5DAF40AC5DFF4084A092A0BC50AF590
:100ED0000B6A08C5D9F409C5DAF40AC5DFF4084A73
:100EE000092A1200C00E0501D46F050ED56F000E41
:100EF000B66F000EB76FBEC5B8F5BFC5B9F5D40E55
:100F0000BA6F050EBB6F85ECFFF012000CD0050E1A
:100F1000096E0F0E086EF10EE82EFED7082EFCD7D4
:100F2000092EFAD700F0070133513411D8B412005A
:100F3000EED708500A02F3C40CF5F4C40DF50850BE
:100F40000B02F3500D2609500A02F3500D260CC572
:100F500008F50DC509F51200FE51FF11D8B407D0F0
:100F600056C5F8F557C5F9F51DECF8F0120056C551
:100F7000F8F557C5F9F5CDECF7F012009F0E0824EF
:100F80000A6EFF0E09200B6E0B5006E11A0E0A5C6A
:100F9000D8B002D0010E01D0000E086E096A12000E
:100FA000BF0E08240A6EFF0E09200B6E0B5006E1DF
:100FB0001A0E0A5CD8B002D0010E01D0000E086EE5
:100FC000096A1200D00E08240A6EFF0E09200B6E6B
:100FD0000B5006E10A0E0A5CD8B002D0010E01D017
:100FE000000E086E096A12002D682BC51CF52CC571
:100FF0001DF52D0E1E6E050E1F6E000E216E010ECC
:10100000206EBDECF8F02D501200146812C508F5E2
:1010100013C509F5140E0A6E050E0B6E000E0D6E4B
:10102000010E0C6EB7ECFFF01450120042C508F52B
:1010300043C509F5D0EC03F042C53EF543C53FF585
:10104000000E416E010E406E84EC03F0120042C5AA
:101050003EF543C53FF5000E416E000E406E84EC38
:1010600003F042C508F543C509F5DEEC05F01200B2
:10107000FFFFFFFF940886080D0072FFFF003CEAA7
:1010800039EAFF009CE999E901007808760701FF39
:01109000CF90
:10109200760E356E070E366E000E386E040E376E03
:1010A200000E3A6E000E396E72ECEBF01200F3C6CF
:1010B2000AF5F4C60BF508C5F3F609C5F4F60AC538
:1010C20008F50BC509F5120054C50AF555C50BF50F
:1010D20008C554F509C555F50AC508F50BC509F546
:1010E200120020EE02F00850D9260950DA22DEC49E
:1010F20008F5DDC409F5120056C5F4F557C5F5F536
:10110200F5EC03F049EC08F01200000E086E000E38
:10111200096E210E0A6E000E0B6E1200B80E070148
:10112200226FF80E236F010E246F12000A500B106B
:10113200D8A402D0C2841200C2941200FF00000E92
:101142000601BB6F000EBA6F1200B7A0FED7C7C26E
:1011520008F5096A1200086EB7A2FED708C5C9F2DF
:10116200120004012095C284CA941200000EBB6FC3
:0E117200010EBA6F12000701FC5112001200AC
:10E3D80000C1F88F07006EF69007003DF691070020
:10E3E800ACF59207007EF6930701DAF683070099E9
:10E3F800F58407004CF5850700F7F486070066F7F3
:10E4080087070008F6880700BFF589070037F58AEF
:10E418000700F6F58B0702819FE0FC407E80FC0038
:10E42800003800960010000000E5FF0201FEF7002A
:10E43800025EFB000325FD0004A1FE00059BFE0112
:10E4480006F8F800078BFF00085BF90009E7F900F8
:10E458000A65F9000B1EFD000CBFFE000DB9FE0198
:10E468000E55FA000F90FF011066FC021116F80015
:10E4780012BFF90013A3FD0014E3FE0015DDFE0131
:10E488001603F90017D1FF011861FF001905FA00FA
:10E498001A6FF9001B9CFD001C01FF001DFBFE010B
:10E4A8001E5FFA001FD5FF0120FAFA02212EF8029A
:10E4B800224AF7002328FE00241FFF002519FF0128
:10E4C800260EF90027CDFF01285EFC002941FA023B
:10E4D8002AE8F6002B21FE002C3DFF002D37FF0116
:10E4E8002E69FA002FE1FF0130F1FA023146F802F5
:10E4F800328DF7003344FE0034B2FA0035A9FA0130
:10E508003604F70037DDFF013856FC00394BFA02B4
:10E518003A80F7003B3DFE003C83FE003D7DFE0156
:10E528003EEDF8003FD9FF0040C3FC0041F4FC0079
:10E538004241FD004372FD0044C6FD0045F7FD0061
:10E548004683F9004792FC0048CAFC0049FBFC00DE
:10E558004A48FD004B79FD004CCDFD004DFEFD0005
:10E568004E8DF9004F99FC0050D1FC005102FD007E
:10E57800524FFD005380FD0054D4FD005505FE00A8
:10E588005697F90057A0FC0058D8FC005909FD001F
:10E598005A56FD005B87FD005CDBFD005D0CFE004C
:10E5A8005EA1F9005FA7FC0060DFFC006110FD00C0
:10E5B800625DFD00638EFD0064E2FD006513FE00F0
:10E5C80066ABF90067AEFC0068E6FC006917FD0061
:10E5D8006A64FD006B95FD006CE9FD006D1AFE0094
:10E5E8006EB5F9006FB5FC0070D3F90071DDF90064
:10E5F80072F1F90073FBF900740FFA007537FA002D
:10E6080076B3FF0077C9F90078BCFC0079EDFC000F
:10E618007A3AFD007B6BFD007CBFFD007DF0FD00BC
:10E628007E79F9007F8BFC008076FB00818EFB00F1
:10E6380082AEFB0083C6FB0084EEFB008546FC002F
:10E6480086E2F8008756FB00886EFB008986FB008F
:10E658008AA6FB008BBEFB008CE6FB008D3EFC000F
:10E668008ED7F8008F4EFB009095FE0091B3FE0008
:10E6780092D7FE0093F5FE009413FF009531FF003A
:10E6880096A0FA009777FE009866FB00997EFB003B
:10E698009A9EFB009BB6FB009CDEFB009D36FC00AF
:10E6A8009ECCF8009F46FB00A0A7FE00A1C5FE0077
:10E6B800A2E9FE00A307FF00A425FF00A543FF0071
:10E6C800A6BBFA00A789FE00A8ADFE00A9CBFE00F4
:10E6D800AAEFFE00AB0DFF00AC2BFF00AD49FF0019
:10E6E800AEC4FA00AF8FFE00B0AEFE00B1CCFE00A3
:10E6F800B2F0FE00B30EFF00B42CFF00B54AFF00D5
:10E70800B6C5FA00B790FE00B895FF00B99AFF00A9
:10E71800BA9FFF00BBA4FF00BCA9FF00BDAEFF006D
:10E72800BE36FB00BF86FF00C04BFE00C12CFD02B9
:10E73800C252F802C3D6FA02C43CF700C596FB01E0
:10E74800C6F2F700C7F6FB00C85BFF00C9E9FF0285
:10E75800CA45F900CB000002CCC1F702CD19F90176
:10E76800CEE6F700CF16FC00D033FD00D1AAFD029B
:10E77800D20AF801D3F6F602D412F700D5CEFB017F
:10E78800D619FA00D7FEFB00D8D1FE00D9EDFF025A
:10E79800DA24F901DB73F702DCB4F700DD000001CD
:10E7A800DEDAF700DF1EFC00E036FE00E12FFE0295
:10E7B800E23AF800E350F902E42EF700E54EFC01D6
:10E7C800E623FA00E706FC00E8B1FD00E93EFB029B
:10E7D800EA22F800EBDFFA02EC20F700ED00000176
:10E7E800EE2DFA00EF26FC00F055FF00F1B8FD020F
:10E7F800F23AF900F3F8FF02F4A7F700F5D6FB01A7
:10E80800F62EFA00F70EFC00F84FFF00F9E8FA02BE
:10E81800FA2FF900FBFBFF02FC9AF700FD0000014C
:10E82800FECDFA00FF2EFCF0000000C3BB00000084
:10E8380000000000000000000000000000000000D0
:10E8480000000000000000000000000000000000C0
:10E8580000000000000000000000000000000000B0
:10E8680000000000000000000000000000000000A0
:10E878000000000000000000000000000000000090
:10E888000000000000000000000000000000000080
:10E898000000000000000000000000000000000070
:10E8A8000000000000000000000000424F4F543AF2
:10E8B800206572726F7220626F6F74696E670D0ADD
:10E8C8000043502F4D20626F6F742D6C6F6164652B
:10E8D8007220666F72205A38302D53696D756C61DD
:10E8E800746F720D0A002196007ED30123B7C2BE51
:10E8F80000010100210000AFD30A78D30B79D30CB3
:10E908007DD30F7CD310AFD30DDB0EB7CA0000C682
:10E9180030D3013E0DD3013E0AD3012180007EB7DA
:10E92800CAFE00D30123C3F300F376000000000001
:10E9380000000000000000000000000000000000CF
:10E9480000000000000000000000000000000000BF
:10E9580000000000000000000000000000000000AF
:10E96800000000000000000000000000000000009F
:10E97800000000000000000000000000000000008F
:10E98800000000000000000000000000000000007F
:10E9980000D3AB00ED739400319400F5C5D5E5DDE7
:10E9A800E5FDE5D3ACFDE1DDE1E1D1C1F1ED7B941D
:10E9B80000ED45000000000000000000000000001D
:10E9C8000093F60184BD0100008EF6009AFC010058
:10E9D8000097FA006E11000000CEF702DC940100E7
:10E9E80000F5FF02DC940100008EFA04E0560100F5
:10E9F8000081FF027A9E01000071FE003E110000B6
:10EA0800007DFC02C4AB01000073FE028E2F0101E1
:10EA18000077FF01060100000084FC00B4870100B4
:10EA2800007CFF00EAFA010000000000000000007E
:10EA380000D3AD00ED733600313600F5C5D5E5DD00
:10EA4800E5FDE5D3AEFDE1DDE1E1D1C1F1ED7B36D8
:10EA580000ED4D0000000000000000000000000074
:10EA6800004449534B3A204F503D253032782044DA
:10EA78002F542F533D25642F2533642F25336420CD
:10EA88002020202020202020202020414444523DC6
:10EA980025303278253032782028524541442049A3
:10EAA800474E4F524544290A0D002F55736572731E
:10EAB8002F74616B656D7572612F776F726B7370F0
:10EAC8006163652F6769746875622F537570657225
:10EAD8004D455A38302F6469736B696F2F706963BD
:10EAE80031386634377134335F7370692E6300448C
:10EAF80049534B3A204F503D2530327820442F540B
:10EB08002F533D25642F2533642F25336420782522
:10EB180033643D25356C6420414444523D253032F0
:10EB28007825303278202E2E2E2053543D25303231
:10EB3800780A0D004449534B3A204F503D25303256
:10EB48007820442F542F533D25642F2533642F25D7
:10EB58003364202020202020202020202020414411
:10EB680044523D2530327825303278202849474EA6
:10EB78004F524544290A0D004449534B3A204F50FF
:10EB88003D2530327820442F542F533D25642F25BE
:10EB980033642F25336420202020202020202020AB
:10EBA8002020414444523D253032782530327820A7
:10EBB8002E2E2E200A0D00534420436172643A2001
:10EBC800726561643531323A20435243206572726E
:10EBD8006F7220282530347820213D202530347864
:10EBE8002C2072657472793D2564290A0D005741FD
:10EBF800524E494E473A206E6F204750494F206584
:10EC08007870616E64657220746F20636F6E7472C1
:10EC18006F6C2068696768657220616464726573E7
:10EC2800730A0D005741524E494E473A20746F6F90
:10EC3800206D616E792062616E6B732072657175EB
:10EC480065737465642E2028726571756573742008
:10EC58006973202564290A0D007479706520276876
:10EC6800656C702720746F20736565207468652053
:10EC78006C697374206F6620617661696C61626C7F
:10EC88006520636F6D6D616E64730A0D00496D6177
:10EC980067652066696C652025732F44524956457F
:10ECA80025632E44534B2069732061737369676E23
:10ECB800656420746F2064726976652025630A0D87
:10ECC800005741524E494E473A20756E6B6E6F772A
:10ECD8006E20492F4F2077726974652025642C2097
:10ECE8002564202825303258482C202530325848B1
:10ECF800290A0D006469736B5F696F63746C3A204D
:10ED0800706472763D25642C20636D643D25642C07
:10ED180020627566663D3078256C783A2072657396
:10ED28003D25640A0D00534420436172643A202053
:10ED3800726561643531323A20616464723D253808
:10ED48006C642C206F6666733D25642C20636F7598
:10ED58006E743D25640A0D00534420436172643A81
:10ED68002077726974653531323A20616464723D86
:10ED780025386C642C206F6666733D25642C2063EF
:10ED88006F756E743D25640A0D005344204361720B
:10ED9800643A2077726974653531323A2066616960
:10EDA8006C656420746F2067657420746F6B656E82
:10EDB8002C2074696D656F75740A0D004449534BB6
:10EDC8003A20207265616420442F542F533D2564F6
:10EDD8002F2533642F25336420782533643D25356A
:10EDE8006C643A204552524F520A0D005344204356
:10EDF8006172643A2077726974653531323A2074E9
:10EE0800696D656F75742C20726573706F6E7365AC
:10EE180020697320253032780A0D0053442043615D
:10EE280072643A20434D4435382C2052333D253006
:10EE3800327820253032782025303278202530323B
:10EE48007820253032780A0D0053442043617264DB
:10EE58003A20434D44382C2052373D253032782013
:10EE68002530327820253032782025303278202518
:10EE78003032780A0D004449534B3A2020726561BC
:10EE88006420442F542F533D25642F2533642F25A8
:10EE9800336420782533643D25356C643A204F4B24
:10EEA8000A0D006469736B5F696F63746C3A207054
:10EEB8006472763D25642C20636D643D25643A2098
:10EEC8004E6F742068616E646C65642E0A0D006470
:10EED80069736B5F726561643A2020706472763D75
:10EEE80025642C20736563746F723D256C642C2037
:10EEF800636F756E743D25640A0D006469736B5FFA
:10EF080077726974653A20706472763D25642C20A6
:10EF1800736563746F723D256C642C20636F756E26
:10EF2800743D25640A0D00534420436172643A20FD
:10EF380043435320284361726420436170616369CD
:10EF48007479205374617475732920697320300AA9
:10EF58000D00534420436172643A207772697465E6
:10EF68003531323A20435243206572726F7220283D
:10EF780072657472793D2564290A0D005344204353
:10EF88006172643A204361726420706F7765722001
:10EF98007570207374617475732062697320697366
:10EFA80020300A0D0072656164204D425220706164
:10EFB80072746974696F6E207461626C6520617423
:10EFC80020736563746F7220300A0D005741524EEA
:10EFD800494E473A20756E6B6E6F776E20492F4FFA
:10EFE800207265616420256420282530325848291C
:10EFF8000A0D00534420436172643A20207265610F
:10F00800643531323A20736563746F723D256C64E0
:10F018003A204552524F520A0D0025733A20455264
:10F02800524F523A206D6F64652025642069732021
:10F038006E6F7420737570706F727465640A0D005A
:10F04800534420436172643A2053444843206F720A
:10F058002053445843206361726420646574656377
:10F068007465640A0D00534420436172643A206950
:10F078006E697469616C697A65202E2E2E2073750D
:10F08800636365656465640A0D00534420436172D7
:10F09800643A20756E65787065637465642072657E
:10F0A80073706F6E736520253032780A0D005344F3
:10F0B80020436172643A2020726561643531323AC6
:10F0C80020736563746F723D256C643A204F4B0A58
:10F0D8000D0053757065724D455A38302B535049A1
:10F0E8002077697468204750494F20657870616EB1
:10F0F8006465720A0D00534420436172643A2041EA
:10F10800434D44343120726573706F6E73652069A6
:10F118007320253032780A0D00534420436172640D
:10F128003A2077726974653531323A20746F6B65AD
:10F138006E20697320253032780A0D004552524FEF
:10F14800523A2062616E6B202564206973206E6FCD
:10F158007420617661696C61626C652E0A0D0053DA
:10F168004420436172643A20434D44353920726526
:10F1780073706F6E736520697320253032780A0DBD
:10F18800004D656D6F727920303030303030202D71
:10F19800202530366C5848202564204B42204F4BA0
:10F1A8000D0A00706172746974696F6E20737461FE
:10F1B80072747320617420736563746F7220256C98
:10F1C800640A0D00557365205241332065787465D3
:10F1D800726E616C20636C6F636B20666F72205A6D
:10F1E80038300A0D00557365204E434F20252E32C6
:10F1F80066204D487A20666F72205A383020636C3A
:10F208006F636B0A0D00665F777269746528293A27
:10F21800204552524F52207265733D25642C206E52
:10F228003D25640A0D00665F7265616428293A20ED
:10F238004552524F52207265733D25642C206E3D15
:10F2480025640A0D006661696C656420746F207717
:10F258007269746520736563746F7220256C640A23
:10F268000D006661696C656420746F207265616465
:10F2780020736563746F7220256C640A0D000A0D93
:10F28800534420436172643A20696E697469616C01
:10F29800697A65202E2E2E0A0D00436C6561722056
:10F2A800627265616B706F696E74206174202530BD
:10F2B800346C580A0D00534420436172643A20416B
:10F2C800434D4434312C2052313D253032780A0DDB
:10F2D800000A0D526573657420627920494F2070C9
:10F2E8006F72742025303258480A0D004661696CE7
:10F2F800656420746F206F70656E205344204361ED
:10F3080072642E2E0A0D004661696C656420746F64
:10F31800206D6F756E7420534420436172642E0A09
:10F328000D006661696C656420746F2072656164A4
:10F3380020736563746F7220300A0D000A0D48410E
:10F348004C5420627920494F20706F727420253008
:10F358003258480A0D0053657420627265616B70FB
:10F368006F696E74206174202530346C580A0D0062
:10F378006469736B5F696E697469616C697A652821
:10F388002564292E2E2E0A0D0053442043617264F1
:10F398003A206E6F74207375706F70727465640AAA
:10F3A8000D00534420436172643A20434D44302C8D
:10F3B8002052313D253032780A0D00496E76616C55
:10F3C800696420617267756D656E743A20272573CC
:10F3D800270A0D005354415455533A202563256399
:10F3E8002563256325632563256325630020202085
:10F3F8002020202020202020202020202020202005
:10F40800202020200D007761697420666F722070BB
:10F41800726F6772616D6D6572202E2E2E0D00253C
:10F42800732535337320434845434B53554D3A2094
:10F43800253032780A0D00556E6B6E6F776E207628
:10F4480061726961626C6520272573270A0D004285
:10F458007265616B706F696E74206973206E6F746A
:10F46800207365740A0D004D656D6F727920303018
:10F4780030303030202D202530366C58480D007043
:10F488006879736963616C2064726976657220219A
:10F498003D20300A0D00416D626967756F757320F4
:10F4A800636F6D6D616E642025730A0D00665F6C75
:10F4B8007365656B28293A204552524F52202564BE
:10F4C8000A0D00427265616B706F696E7420697312
:10F4D800202530346C580A0D00556E6B6E6F776EB0
:10F4E80020636F6D6D616E643A2025730A0D0064A8
:10F4F800656275675F6661746469736B5F76657270
:10F50800626F7365006E6F2046415433322070611C
:10F5180072746974696F6E0A0D00665F73796E6341
:10F5280028293A204552524F522025640A0D00647A
:10F53800656275675F7364636172645F7665726242
:10F548006F73650064656275675F6661746469738B
:10F558006B5F7772697465006E6F204D425220733D
:10F5680069676E61747572650A0D005344204361C2
:10F5780072643A2074696D656F75740A0D00696E5E
:10F5880076616C69642064726976652025640A0D69
:10F598000064656275675F6661746469736B5F7246
:10F5A8006561640064656275675F6469736B5F7643
:10F5B8006572626F73650064656275675F73646323
:10F5C8006172645F7772697465006E6F2076616C32
:10F5D800696420766F6C756D650A0D00534420438D
:10F5E8006172643A2072656164792E0A0D007A3876
:10F5F800305F636C6F636B5F4E434F31494E43001E
:10F6080064656275675F7364636172645F72656184
:10F61800640025732069732073656C656374656481
:10F628002E0A0D004D4D553A2062616E6B20253033
:10F63800325820200064656275675F6469736B5F88
:10F6480077726974650025733D256C642028256CE4
:10F658005868290A0D00427265616B206174202583
:10F668003034580A0D0064656275675F6469736BAE
:10F678005F726561640064656275675F6469736B76
:10F688005F6D61736B00636C656172627265616B5B
:10F69800706F696E74004E6F20626F6F74206469BA
:10F6A800736B2E0A0D002A2B2C3A3B3C3D3E5B5DCA
:10F6B8007C223F7F0025732F445249564525632EEF
:10F6C80044534B0025733D25642028255868290A92
:10F6D8000D0064656275675F6661746469736B00C9
:10F6E8004C4420484C2C28253034584829004F5584
:10F6F8005420282530325848292C41004C442028D1
:10F70800484C292C25303258480043414C4C204E57
:10F71800432C25303458480043414C4C2050452C4C
:10F7280025303458480043414C4C20504F2C25304C
:10F738003458480043414C4C204E5A2C25303458FC
:10F7480048004C4420282530345848292C484C007F
:10F758004E6F20534420436172643F0A0D00646574
:10F768006275675F73646361726400494E20412C5F
:10F7780028253032584829004C4420412C2825306F
:10F7880034584829004C4420282530345848292C1E
:10F79800410043414C4C204D2C25303458480043FF
:10F7A800414C4C20502C25303458480043414C4C97
:10F7B80020582C25303458480043414C4C205A2CB2
:10F7C800253034584800646973617373656D626CE1
:10F7D800650053424320412C2530325848004144AB
:10F7E8004320412C25303258480041444420412CC4
:10F7F8002530325848004C442042432C2530345898
:10F8080048004A50204E432C2530345848004C4478
:10F818002044452C2530345848004A502050452C67
:10F828002530345848004C4420484C2C2530345856
:10F8380048004A5020504F2C2530345848004C443A
:10F848002053502C2530345848004A50204E5A2C0A
:10F8580025303458480070726F6772616D3A0A0D2E
:10F868000049593A20253034580A0D0042433A20BD
:10F878002530345820200050433A20253034582071
:10F88800200044453A202530345820200041463A8B
:10F898002025303458202000484C3A202530345850
:10F8A80020200053503A2025303458202000495851
:10F8B8003A202530345820200064656275675F64FB
:10F8C80069736B0053424320412C28484C2900415E
:10F8D800444320412C28484C290041444420412CD1
:10F8E80028484C29004C4420412C253032584800E7
:10F8F8004C4420422C2530325848004C4420442C9B
:10F908002530325848004C4420482C25303258487D
:10F918000043414C4C202530345848004A5020437D
:10F928002C2530345848004A50204D2C2530345866
:10F9380048004A5020502C2530345848004A50205E
:10F948005A2C253034584800455820285350292C23
:10F95800484C0045582041462C414627004C44203D
:10F96800412C28424329004C4420412C2844452955
:10F97800004C4420412C28484C29004C4420422C5F
:10F9880028484C29004C4420432C28484C29004C3A
:10F998004420442C28484C29004C4420452C284815
:10F9A8004C29004C4420482C28484C29004C442021
:10F9B8004C2C28484C29004C4420284445292C41EB
:10F9C800004C442028484C292C41004C442028480D
:10F9D8004C292C42004C442028484C292C430041F7
:10F9E800444420484C2C4243004C442028484C298D
:10F9F8002C44004C442028484C292C4500414444C0
:10FA080020484C2C4445004C442028484C292C487C
:10FA18000053554220253032584800414E44202595
:10FA28003032584800584F52202530325848004C40
:10FA3800442028484C292C4C0041444420484C2C54
:10FA4800484C0041444420484C2C5350004C44201E
:10FA5800432C25303258004C4420452C2530325850
:10FA6800004C44204C2C2530325800257325303664
:10FA78006C783A0046415433322020200073746178
:10FA8800636B3A0A0D006469736B726561640063A5
:10FA98006F6E74696E7565005355422028484C296D
:10FAA800004445432028484C2900494E4320284813
:10FAB8004C2900414E442028484C2900584F5220D8
:10FAC80028484C29004350202530325848004A50D5
:10FAD8002025303458480045582044452C484C00CF
:10FAE8004C442053502C484C004A52204E432C255D
:10FAF80064004A52204E5A2C25640025643A202579
:10FB0800730A0D0053656C6563743A200043504DC9
:10FB18004449534B53002573253034783A004572D5
:10FB2800726F720A0D000D257325730A0D0043507C
:10FB38002028484C29004A502028484C2900534284
:10FB48004320412C410041444320412C4100414481
:10FB58004420412C41004C442042432C4100534254
:10FB68004320412C420041444320412C420041445F
:10FB78004420412C420053424320412C430041443D
:10FB88004320412C430041444420412C430050551C
:10FB980053482042430053424320412C44004144EF
:10FBA8004320412C440041444420412C440053420A
:10FBB8004320412C450041444320412C4500414409
:10FBC8004420412C45005055534820444500505589
:10FBD80053482041460053424320412C48004144A9
:10FBE8004320412C480041444420412C48005253B2
:10FBF800542030304800525354203130480052537A
:10FC08005420323048005253542033304800525365
:10FC18005420303848005253542031384800525349
:10FC28005420323848005253542033384800534245
:10FC38004320412C4C0041444320412C4C0041447A
:10FC48004420412C4C005055534820484C004A52FF
:10FC580020432C2564004A52205A2C256400444A2B
:10FC68004E5A2C25640043504D4449537E003C2590
:10FC7800643E0A0D00736472656164007374617494
:10FC88007573004C4420412C41004C4420422C41C7
:10FC9800004C4420432C41004C4420442C41004C4F
:10FCA8004420452C41004C4420482C41004C442021
:10FCB8004C2C41004C4420412C42004C4420422C06
:10FCC80042004C4420432C42004C4420442C420027
:10FCD8004C4420452C42004C4420482C42004C44C3
:10FCE800204C2C42004C4420412C43004C442042E0
:10FCF8002C43004C4420432C43004C4420442C43C8
:10FD0800004C4420452C43004C4420482C43004CD4
:10FD180044204C2C430044454320424300494E4371
:10FD280020424300504F5020424300524554204E39
:10FD380043004C4420412C44004C4420422C4400B5
:10FD48004C4420432C44004C4420442C44004C4454
:10FD580020452C44004C4420482C44004C44204C62
:10FD68002C44004C4420412C45004C4420422C4556
:10FD7800004C4420432C45004C4420442C45004C66
:10FD88004420452C45004C4420482C45004C442038
:10FD98004C2C450044454320444500494E432044EB
:10FDA8004500504F502044450052455420504500CE
:10FDB800504F50204146004C4420412C48004C44B0
:10FDC80020422C48004C4420432C48004C442044FA
:10FDD8002C48004C4420452C48004C4420482C48D2
:10FDE800004C44204C2C48004C4420412C4C004CE6
:10FDF8004420422C4C004C4420432C4C004C4420C2
:10FE0800442C4C004C4420452C4C004C4420482C9D
:10FE18004C004C44204C2C4C0044454320484C009A
:10FE2800494E4320484C00504F5020484C00524502
:10FE38005420504F0044454320535000494E43201E
:10FE4800535000524554204E5A002530366C5820E5
:10FE5800002025303278006661743A2000627566A9
:10FE68003A20000D2573200D0072657365740053E8
:10FE78005542204100444543204100494E4320411A
:10FE880000414E44204100584F52204100535542F2
:10FE9800204200444543204200494E43204200414D
:10FEA8004E44204200584F522042005355422043AE
:10FEB80000444543204300494E43204300414E44FB
:10FEC800204300584F5220430052455420430053CA
:10FED8005542204400444543204400494E432044B1
:10FEE80000414E44204400584F522044005355428C
:10FEF800204500444543204500494E4320450041E4
:10FF08004E44204500584F52204500535542204842
:10FF180000444543204800494E43204800414E4490
:10FF2800204800584F52204800535542204C004466
:10FF38004543204C00494E43204C00414E44204C40
:10FF480000584F52204C00524554204D0052455401
:10FF5800205000524554205A004A5220256400255A
:10FF6800303258200053443A20004D4F4E3E007323
:10FF78007465700068656C700064756D700043503E
:10FF8800204100524C43410052524341004350200B
:10FF98004200435020430043502044004350204532
:10FFA8000043502048004350204C0048414C540026
:10FFB800303A2F2F00696E66006E616E006C6C73AC
:10FFC800000D25730044414100524C4100525241FA
:10FFD80000434346005343460043504C004E4F50A5
:10FFE8000052455400455858003F3F3F006469009F
:07FFF80044490045490000E7
:020000040001F9
:1000000095C5D9F496C5DAF4DEC4F6F4DDC4F7F488
:10001000000EF86E0800F550250AD8A45EEF86F0B1
:1000200095C5D9F496C5DAF4DE2A000EDD22000E5D
:100030000601F26F000EF16FF1C658F55268536871
:10004000000E0501A86F000E14D0588095C5D9F494
:1000500096C5DAF4DE2A000EDD2230D05882F6D7BB
:100060005884F4D75886F2D75888F0D7000EA86F76
:10007000010EA76F23D095C5D9F496C5DAF4DEC476
:10008000F6F4DDC4F7F4000EF86E0800F550996F31
:100090009A6B9A51000AD8A4E9D79951200AD8B48A
:1000A000E1D7030AD8B4E0D7080AD8B4D9D7060AEA
:1000B000D8B4CBD71D0AD8B4D1D7D8D7A751A81157
:1000C000D8B4D9D758B0589295C5D9F496C5DAF4B2
:1000D000DEC4F6F4DDC4F7F4000EF86E0800F55047
:1000E0002A0AD8A424D095C5D9F496C5DAF4DE2A14
:1000F000000EDD2297C5D9F498C5DAF4DFC499F56E
:10010000020EDE26DFC49AF5000EDD2299C5D9F471
:100110009AC5DAF4DEC4F1F6DDC4F2F60601F2AFF8
:1001200036D05880F16DF21FD8B0F22B30D095C583
:10013000D9F496C5DAF4DEC40EF5DDC40FF550EC43
:10014000E8F00EC5F1F60FC5F2F607D095C5D9F463
:1001500096C5DAF4DE2A000EDD2295C5D9F496C5DF
:10016000DAF4DEC4F6F4DDC4F7F4000EF86E08002D
:10017000F5C499F5D00E050199259A6F9B6BFF0E7A
:100180009B239B5104E10A0E9A5DD8A0DFD795C549
:10019000D9F496C5DAF4DEC4F6F4DDC4F7F4000E43
:1001A000F86E0800F5502E0AD8A466D0000E536EE3
:1001B000000E526E95C5D9F496C5DAF4DE2A000E0B
:1001C000DD2295C5D9F496C5DAF4DEC4F6F4DDC4B3
:1001D000F7F4000EF86E0800F5502A0AD8A41CD0D7
:1001E00095C5D9F496C5DAF4DE2A000EDD2297C54E
:1001F000D9F498C5DAF4DFC499F5020EDE26DFC41F
:100200009AF5000EDD2299C5D9F49AC5DAF4DEC458
:1002100052F5DDC453F530D095C5D9F496C5DAF45E
:10022000DEC40EF5DDC40FF550ECE8F00EC552F556
:100230000FC553F507D095C5D9F496C5DAF4DE2A73
:10024000000EDD2295C5D9F496C5DAF4DEC4F6F4C5
:10025000DDC4F7F4000EF86E0800F5C499F5D00E71
:10026000050199259A6F9B6BFF0E9B239B5104E11F
:100270000A0E9A5DD8A0DFD795C5D9F496C5DAF4F1
:10028000DEC4F6F4DDC4F7F4000EF86E0800F55095
:10029000630AD8A427D095C5D9F496C5DAF4DE2A26
:1002A000000EDD2297C5D9F498C5DAF4DFC499F5BC
:1002B000020EDE26DFC49AF5000EDD2299C5D9F4C0
:1002C0009AC5DAF4DF500501B36F93C512F594C5F2
:1002D00013F5B3C514F50BECF9F012C593F513C57E
:1002E00094F5120095C5D9F496C5DAF4DEC4B4F5D8
:1002F000DDC4B5F5B4C5F6F4B5C5F7F4000EF86E77
:100300000800F5C4B3F517D0B44BB52BB4C5F6F45B
:10031000B5C5F7F4000EF86E0800F550680AD8A4C9
:1003200035D0480EB36FB44BB52B30D0690E01D029
:10033000000EB36F2BD00501B351996F9A6B9A5190
:10034000000AD8A4F5D79951580AD8B4EFD73C0A77
:10035000D8B4ECD70C0AD8B4D7D7010AD8B4E6D7AA
:10036000050AD8B4E0D7020AD8B4E0D7010AD8B455
:10037000DDD71B0AD8B4D7D7010AD8B4D7D70D0A0E
:10038000D8B4D4D7020AD8B4CED7D2D7B4C5F6F4ED
:10039000B5C5F7F4000EF86E0800F550640AD8B43D
:1003A0009AD0B4C5F6F4B5C5F7F4000EF86E08009F
:1003B000F550690AD8B48FD0D1D097C5D9F498C573
:1003C000DAF4DFC499F5020EDE26DFC49AF5000EDA
:1003D000DD2299C5D9F49AC5DAF4DF50AB6F000E6F
:1003E000ABBFFF0EAC6F51D097C5D9F498C5DAF406
:1003F000DFC499F5040EDE26DFC49AF5000EDD2277
:1004000099C5D9F49AC5DAF4DEC49BF5DEC49CF52F
:10041000DEC49DF5DEC49EF59BC59FF59CC5A0F589
:100420009DC5A1F59EC5A2F5A36BA2BFA369A3C5F7
:10043000A4F5A3C5A5F5A3C5A6F59FC5ABF5A0C5B5
:10044000ACF5A1C5ADF5A2C5AEF5A3C5AFF5A4C584
:10045000B0F5A5C5B1F5A6C5B2F557D097C5D9F485
:1004600098C5DAF4DFC499F5020EDE26DFC49AF5EA
:10047000000EDD2299C5D9F49AC5DAF4DEC4ABF5D5
:10048000DDC4ACF5000EACBFFF0EAD6FAE6FAF6F4D
:10049000B06FB16FB26F39D097C5D9F498C5DAF49F
:1004A000DFC499F5020EDE26DFC49AF5000EDD22C8
:1004B00099C5D9F49AC5DAF4DEC49BF5DDC49CF580
:1004C0009BC5ABF59CC5ACF5AD6BAE6BAF6BB06BC4
:1004D000B16BB26B1AD0B351996F9A6B9A51000AF3
:1004E000D8A413D09951480AD8B467D7200AD8B4F1
:1004F000B5D7010AD8B4B2D7050AD8B475D7180A47
:10050000D8B4ACD70E0AD8B4C7D7010EB425996FAA
:10051000000EB5219A6F95C5D9F496C5DAF499C540
:10052000DEF49AC5DDF493C524F594C525F5ABC575
:1005300026F5ACC527F5ADC528F5AEC529F5AFC57F
:100540002AF5B0C52BF5B1C52CF5B2C52DF514ECC7
:10055000C5F024C593F525C594F51200B4C5F6F48D
:10056000B5C5F7F4000EF86E0800F550780AD8B457
:1005700096D0B4C5F6F4B5C5F7F4000EF86E0800D1
:10058000F550580AD8B48BD0B4C5F6F4B5C5F7F415
:10059000000EF86E0800F5506F0AD8B480D0B4C5CC
:1005A000F6F4B5C5F7F4000EF86E0800F550750ABC
:1005B000D8B475D012D197C5D9F498C5DAF4DFC490
:1005C00099F5020EDE26DFC49AF5000EDD2299C5EC
:1005D000D9F49AC5DAF4DF509B6F9B51AB6FAC6BCB
:1005E00057D097C5D9F498C5DAF4DFC499F5040E4D
:1005F000DE26DFC49AF5000EDD2299C5D9F49AC52E
:10060000DAF4DEC49BF5DEC49CF5DEC49DF5DEC4E1
:100610009EF59B51AB6F9C51AC6F9D51AD6F9E5140
:10062000AE6F38D097C5D9F498C5DAF4DFC499F520
:10063000020EDE26DFC49AF5000EDD2299C5D9F43C
:100640009AC5DAF4DEC4ABF5DDC4ACF5000EACBF80
:10065000FF0EAD6FAE6FAF6FB06FB16FB26F39D0CD
:1006600097C5D9F498C5DAF4DFC499F5020EDE26F1
:10067000DFC49AF5000EDD2299C5D9F49AC5DAF4E3
:10068000DEC49BF5DDC49CF59BC5ABF59CC5ACF504
:10069000AD6BAE6BAF6BB06BB16BB26B1AD0B351CD
:1006A000996F9A6B9A51000AD8A413D09951480AAD
:1006B000D8B481D7200AD8B4D3D7010AD8B4D0D7B8
:1006C000050AD8B48ED7180AD8B4ACD70E0AD8B455
:1006D000C7D7010EB425996F000EB5219A6F95C545
:1006E000D9F496C5DAF499C5DEF49AC5DDF45AD08A
:1006F00093C524F594C525F5ABC526F5ACC527F5FE
:10070000ADC528F5AEC529F5AFC52AF5B0C52BF5A1
:10071000B1C52CF5B2C52DF558ECD7F024C593F52D
:1007200025C594F5120093C524F594C525F5ABC5F0
:1007300026F5ACC527F5ADC528F5AEC529F5AFC57D
:100740002AF5B0C52BF5B1C52CF5B2C52DF5DEECFB
:10075000D1F024C593F525C594F5120093C524F571
:1007600094C525F5ABC526F5ACC527F5ADC528F56F
:10077000AEC529F5AFC52AF5B0C52BF5B1C52CF529
:10078000B2C52DF5B4C5F6F4B5C5F7F4000EF86E94
:100790000800F5C42EF571ECCBF024C593F525C502
:1007A00094F51200B4C5F6F4B5C5F7F4000EF86E72
:1007B0000800F550996F9A6B9A51000AD8A40DD091
:1007C0009951580AD8B4CAD7370AD8B491D71A0A57
:1007D000D8B4A9D70D0AD8B4C1D7B4C5F6F4B5C5F5
:1007E000F7F4000EF86E0800F5506E0AD8B408D180
:1007F00035D197C5D9F498C5DAF4DFC499F5020E5E
:10080000DE26DFC49AF5000EDD2299C5D9F49AC51B
:10081000DAF4DEC49BF5DDC49CF59BC5F6F49CC5FB
:10082000F7F4000EF86E250EF76407D027C7F5F42D
:100830000D0028C7F5F40C0001D0D9D0FBD097C526
:10084000D9F498C5DAF4DFC499F5020EDE26DFC4C8
:100850009AF5000EDD2299C5D9F49AC5DAF4DEC402
:100860009BF5DDC49CF59BC5F6F49CC5F7F4000E22
:10087000F86E250EF76407D027C7F5F40D0028C7DA
:10088000F5F40C0001D0B3D0D5D097C5D9F498C5F4
:10089000DAF4DFC499F5020EDE26DFC49AF5000E05
:1008A000DD2299C5D9F49AC5DAF4DEC49BF5DDC41E
:1008B0009CF59BC5F6F49CC5F7F4000EF86E250E6A
:1008C000F76404D027C7F5F40C0006D0F6C4E9F4A9
:1008D000F7C4EAF427C7EFF4ADD027C799F528C7C6
:1008E0009AF5000E9ABFFF0E9B6F9C6F97C5D9F4C7
:1008F00098C5DAF4DFC49DF5020EDE26DFC49EF54E
:10090000000EDD229DC5D9F49EC5DAF4DEC49FF544
:10091000DDC4A0F59FC5F6F4A0C5F7F4000EF86E8F
:10092000250EF7640DD099C5F5F40D009AC5F5F4C0
:100930000D009BC5F5F40D009CC5F5F40C000CD022
:10094000F6C4E9F4F7C4EAF499C5EEF49AC5EEF4F6
:100950009BC5EEF49CC5EFF46DD097C5D9F498C54E
:10096000DAF4DFC499F5020EDE26DFC49AF5000E34
:10097000DD2299C5D9F49AC5DAF4DEC49BF5DDC44D
:100980009CF59BC5F6F49CC5F7F4000EF86E250E99
:10099000F76407D027C7F5F40D0028C7F5F40C005D
:1009A00001D025D047D097C5D9F498C5DAF4DFC473
:1009B00099F5020EDE26DFC49AF5000EDD2299C5F8
:1009C000D9F49AC5DAF4DEC49BF5DDC49CF59BC569
:1009D000F6F49CC5F7F4000EF86E250EF76407D008
:1009E00027C7F5F40D0028C7F5F40C0008D0F6C4AD
:1009F000E9F4F7C4EAF427C7EEF428C7EFF41AD0F5
:100A0000B351996F9A6B9A51000AD8A413D0995197
:100A1000480AD8B43AD7200AD8B411D7010AD8B4B2
:100A2000E8D6050AD8B459D7180AD8B496D70E0A0A
:100A3000D8B4B9D7010E0501B425996F000EB521C0
:100A40009A6F95C5D9F496C5DAF499C5DEF49AC5BE
:100A5000DDF4000E946F000E936F120095C5D9F46B
:100A600096C5DAF4DEC4F6F4DDC4F7F4000EF86ED1
:100A70000800F550730AD8B416D095C5D9F496C5B8
:100A8000DAF4DEC408F5DDC409F5C50E0A6EFF0E02
:100A90000B6E000E0D6E030E0C6E6DECECF008503C
:100AA0000910D8A440D095C5D9F496C5DAF4DEC4AF
:100AB000F6F4DDC4F7F4000EF86E0800F550730A82
:100AC000D8B405D0000E0501AA6F030E04D0000EA5
:100AD0000501AA6F010EA96F95C5D9F496C5DAF480
:100AE000A951DE26AA51DD2293C512F594C513F54E
:100AF00097C5D9F498C5DAF4DFC499F5020EDE265D
:100B0000DFC49AF5000EDD2299C5D9F49AC5DAF44E
:100B1000DEC414F5DDC415F504ECE0F012C593F560
:100B200013C594F5120095C5D9F496C5DAF4DEC460
:100B3000B4F5DDC4B5F5B4C5F6F4B5C5F7F4000EEB
:100B4000F86E0800F5C4B3F508D0B44BB52B18D037
:100B50006C0E01D0000EB36F13D00501B351996F25
:100B60009A6B9A51000AD8A4F5D799514C0AD8B477
:100B7000ECD72A0AD8B4ECD70A0AD8B4E6D7EAD711
:100B8000B4C5F6F4B5C5F7F4000EF86E0800F550DC
:100B9000660AD8B41AD064D097C5D9F498C5DAF4E7
:100BA000DFC499F5040EDE26DFC49AF5000EDD22BF
:100BB00099C5D9F49AC5DAF4DEC4ABF5DEC4ACF558
:100BC000DEC4ADF5DEC4AEF50ED0B351996F9A6BAD
:100BD0009A51000AD8A407D099514C0AD8B4DCD74E
:100BE000200AD8B4D9D7010EB425996F000EB521CB
:100BF0009A6F95C5D9F496C5DAF499C5DEF49AC50D
:100C0000DDF41CD093C560F594C561F5ABC562F504
:100C1000ACC563F5ADC564F5AEC565F5B4C5F6F410
:100C2000B5C5F7F4000EF86E0800F5C466F553EC90
:100C30008BF060C593F561C594F51200B4C5F6F468
:100C4000B5C5F7F4000EF86E0800F550996F9A6B71
:100C50009A51000AD8A404D09951660AD8B4D2D7C0
:100C600095C5D9F496C5DAF4DEC4F6F4DDC4F7F41C
:100C7000000EF86E0800F550250AD8A417D095C5C7
:100C8000D9F496C5DAF4DE2A000EDD22000E0A6ED3
:100C9000250E096E93C50BF594C50CF56DECF8F0B7
:100CA000000E0501946F010E936F120095C5D9F4E3
:100CB00096C5DAF4DE2A000EDD22CBD695C5D9F42E
:100CC00096C5DAF4DEC4F6F4DDC4F7F4000EF86E6F
:100CD0000800F550096E0A6A93C50BF594C50CF52A
:100CE0006DECF8F095C5D9F496C5DAF4DE2A000E5D
:100CF000DD22D6D7ECEC02F0B5AA1200000E0901F5
:100D0000F86F000EF76FCFC4FEF9D0C4FFF9CEBA6A
:100D1000A4D1000EC86E74D0070137513811D8B471
:100D200002D0C06886D0000E56D086EC07F0ABEC3F
:100D3000FDF00901F26FF2C9C0F47BD007012D511B
:100D40002E11D8B41BD0500E2D5D0601D46F0A0EA3
:100D500007012E590601D56FD5BF06D0D5510EE13A
:100D6000800ED45DD8B00AD02DC7D9F42EC7DAF4DE
:100D7000DF50C06E07012D4B2E2B5BD007018F512A
:100D8000D8A409D09051D8A406D09151D8A403D0AA
:100D90009251D8B44ED0690E0501BE6FEA0EBF6FF6
:100DA000F7C6C0F5C16BF8C6C2F5C36B4BC7C4F537
:100DB000C56B2FC7C6F530C7C7F5F5C6C8F5C96BF3
:100DC000F6C6CAF5CB6B72EC07F033D0FBC7C0F4A4
:100DD00030D0BCEC08F0C06E2CD0D40E0501BE6F34
:100DE000EF0EBF6FFEC9C0F5C16BFEC9C2F5C36B84
:100DF00072EC07F0000E07014A6F010E496F91D7A0
:100E0000FE510601D46FD56BD551000AD8A4E5D7A1
:100E1000D451000AD8B480D7010AD8B486D7090AB9
:100E2000D8B48CD7060AD8B4D1D7AE0AD8B4D1D7A3
:100E3000D4D7070149514A11D8A449EC08F0C2900F
:100E40000001D785D795CEA0FED7C86807014951C4
:100E50004A11D8A44FD150EF8BF00901FF5112EC89
:100E600003F0414B422B36D107012D512E11D8B43E
:100E70002ED0500E2D5D0601D46F0A0E07012E599B
:100E80000601D56FD5BF06D0D55121E1800ED45DC6
:100E9000D8B01DD02DC7D9F42EC7DAF4FFC9DFF4BE
:100EA00007012D4B2E2B500E2D5D0601D46F0A0E1F
:100EB00007012E590601D56F800ED419D511D8A47B
:100EC00009D1000E0901F86F010EF76F03D1070178
:100ED0008F51D8A409D09051D8A406D09151D8A44C
:100EE00003D09251D8B4F6D03C0E0501BE6FEB0E84
:100EF000BF6FF7C6C0F5C16BF8C6C2F5C36B4BC771
:100F0000C4F5C56B2FC7C6F530C7C7F5F5C6C8F51C
:100F1000C96BF6C6CAF5CB6B72EC07F0DBD0FFC924
:100F2000F8F6D8D0FFC94BF7D5D0000E07012F1522
:100F30000601D46FFF0E070130150601D56F0901B8
:100F4000FF510601D41107012F6F0601D55116D0AC
:100F50000901FF510601D56FD46BFF0E07012F1554
:100F60000601D66F000E070130150601D76FD45168
:100F7000D61107012F6F0601D551D7110701306F28
:100F8000A9D0FFC9F7F6030EF719D8A406D0500E62
:100F900007012D6F0A0E2E6F05D0000E0901F86FA4
:100FA000010EF76F07019051D8B408D00601F75130
:100FB000D8B410D0020EF719D8B40CD00701915153
:100FC000D8B488D00601F705D8B404D0030EF719B9
:100FD000D8A480D007019251D8B47CD0800E0501EE
:100FE000BE6FEB0EBF6FF7C6C0F5C16BF8C6C2F59A
:100FF000C36B4BC7C4F5C56B2FC7C6F530C7C7F564
:10100000F5C6C8F5C96BF6C6CAF5CB6B72EC07F02E
:1010100061D0FFC9F6F65ED0FFC9F5F65BD00901D5
:10102000FF51A0EC01F056D0C90E0501BE6FEC0EC9
:10103000BF6FFEC9C0F5C16BFFC9C2F5C36BFEC966
:10104000C4F5C56BFFC9C6F5C76B72EC07F0000E9F
:1010500007014A6F010E496F3DD0FE510601D46F62
:10106000D56BD551000AD8A4DFD7D451010AD8B422
:10107000F4D6090AD8B4F8D6020AD8B450D7010A6F
:10108000D8B450D7070AD8B450D7010AD8B479D702
:10109000020AD8B4BED71F0AD8B4BED7010AD8B442
:1010A00057D7050AD8B40DD7010AD8B40AD7B50A5C
:1010B000D8B4B5D70A0AD8B404D7010AD8B401D72E
:1010C000070AD8B4FED6010AD8B4FBD6030AD8B4AE
:1010D000F8D6AAD7C2900001D785D795CEA0FED763
:1010E0000901F751F811D8A405D0070149514A1157
:1010F000D8B4D6D2000E0501676F010E666F8AEC78
:1011000005F00901F751F811D8B4B8D23BD0FFC9A6
:10111000D6F50501D76BC2EC06F0B0D2FFC9FEF5DB
:101120000501FF6B5AECF3F0A9D2AB0E0901FE19D1
:10113000D8A402D0010E01D0000E0501FE6FFF6B96
:10114000ACEC07F09BD2AC0E0901FE19D8A402D07A
:10115000010E01D0000E0501F76FF86B81ECB4F0C1
:1011600007013F514011D8A407D020ECDEF0060162
:10117000D005D111D8A4F4D77DECDDF07FD2CFEC2F
:10118000FCF07CD2FE510601D46FD56BD551000A1C
:10119000D8A416D0D451140AD8B4B9D7010AD8B4F7
:1011A000BDD7BF0AD8B4EBD7010AD8B4BED7070A57
:1011B000D8B4C9D7010AD8B4B8D7030AD8B4C3D7AA
:1011C000000E0701466F010E456F000E0901F36F17
:1011D000000EF46F000EF56F000EF66F100E060194
:1011E000F8610CD0F851040DB50EF324D96E080E39
:1011F000F420DA6EDE50DE10D8A403D0010E070111
:101200000FD14BC708F5096AF851040DB30EF3244A
:10121000D96E080EF420DA6EDEC40AF5DDC40BF5D3
:1012200099EC07F007012F51082630510922FF0ED3
:1012300008240601D46FFF0E0920D56FD4C6F3F938
:10124000D5C6F4F90901F56BF66B0601F851040DEA
:10125000B50EF324D96E080EF420DA6EDEC4F9F967
:10126000DDC4FAF9F9C97CF6FAC97DF6F3C9D4F6FA
:10127000F4C9D5F6F5C9D6F6F6C9D7F6070ED89053
:10128000D437D537D637D737E82EF9D7D4C67EF638
:10129000D5C67FF6D6C680F6D7C681F67BEC9EF023
:1012A0000901FB6FFB51D8B40BD0B50E0501BE6F21
:1012B000F40EBF6FFBC9C0F5C16B72EC07F09ED78F
:1012C0000601F751D8B404D0020EF719D8A4AAD059
:1012D000F9C958F6FAC959F6500E5A6F0A0E5B6FE3
:1012E000000E5D6F800E5C6FFC0E5E6F090E5F6F0F
:1012F000C0ECA1F00901FB6FFB51D8A405D0800E12
:10130000FC19FD11D8B40FD02E0E0501BE6FF20EE0
:10131000BF6FFBC9C0F5C16BFCC9C2F5FDC9C3F500
:1013200072EC07F06BD707019051D8B42CD09251D2
:10133000D8B429D0F8C6D4F6010E0601D56F000E38
:10134000D66FD42B03D0D890D537D637D42FFBD730
:10135000070193510601D517070194510601D617CD
:10136000D551D611D8A40FD0650E0501F36FFE0E2E
:10137000F46F500EF56F0A0EF66F000EF86F800EC8
:10138000F76FE6ECFBF00601F751D8A443D0F55116
:10139000D56FD46B5650D66F5750D76FD86BD96B6B
:1013A000D7C6D9F6D6C6D8F6D76BD66BD451D611D8
:1013B000DA6FD551D711DB6F000ED811DC6F000E3C
:1013C000D911DD6FF651DA110901EA6F0601DB511F
:1013D0000901EB6F0601DC510901EC6F0601DD51DB
:1013E0000901ED6FEAC9E0F5EBC9E1F5ECC9E2F5F9
:1013F000EDC9E3F5500E0501E46F0A0EE56F000E2E
:10140000E76F800EE66FC9ECD8F0000E07012D6F74
:10141000000E04D0500E07012D6F0A0E2E6F000E25
:10142000FB6FC4D0F705D8B404D0030EF719D8A4C5
:10143000BBD0F705D8A43ED0F551D56FD46B56502C
:10144000D66F5750D76FD86BD96BD7C6D9F6D6C6DB
:10145000D8F6D76BD66BD451D611DA6FD551D711D8
:10146000DB6F000ED811DC6F000ED911DD6FF65165
:10147000DA110901EE6F0601DB510901EF6F060178
:10148000DC510901F06F0601DD510901F16FEEC970
:10149000E0F5EFC9E1F5F0C9E2F5F1C9E3F5500E69
:1014A0000501E46F0A0EE56F000EE76F800EE66F30
:1014B0009BECE6F007019151D8B42CD09251D8B4EE
:1014C00029D0F8C6D4F6010E0601D56F000ED66FEE
:1014D000D42B03D0D890D537D637D42FFBD70701DC
:1014E00093510601D517070194510601D617D5511E
:1014F000D611D8A40FD0650E0501F36FFE0EF46F60
:10150000500EF56F0A0EF66F000EF86F800EF76F33
:10151000E6ECFBF0F9C97CF6FAC97DF6500E06013F
:101520007E6F0A0E7F6F000E816F800E806FFC0E43
:10153000826F090E836F53EC94F00901FB6FFB512E
:10154000D8A405D0800EFC19FD11D8B40FD00E0E12
:101550000501BE6FF20EBF6FFBC9C0F5C16BFCC9C0
:10156000C2F5FDC9C3F572EC07F048D6F9C93EF6DD
:10157000FAC93FF64DECCEF00901FB6FFB51D8B430
:101580000BD0220E0501BE6FF50EBF6FFBC9C0F573
:10159000C16B72EC07F032D6000E0701FB6F000E34
:1015A0002D6F000E2E6F02D0010EF7D79051D8B4D8
:1015B00008D00601F751D8B410D0020EF719D8B4EC
:1015C0000CD007019151D8B454D00601F705D8B416
:1015D00004D0030EF719D8A44CD0F8C6D4F6010EE7
:1015E000D56F000ED66FD42B03D0D890D537D63711
:1015F000D42FFBD7070193510601D517070194514A
:101600000601D617D551D611D8A433D0F70E05014F
:10161000BE6FEA0EBF6FF7C6C0F5C16BF8C6C2F564
:10162000C36B4BC7C4F5C56B2FC7C6F530C7C7F52D
:101630000601F851040DB30EF324D96E080EF42000
:10164000DA6EDEC4C8F5DDC4C9F5F3C9CAF5F4C95C
:10165000CBF5F5C9CCF5F6C9CDF5F5C6CEF5050146
:10166000CF6BF6C6D0F5D16BFBC7D2F5D36B72EC5E
:1016700007F0000E0701466F000E456F0701495144
:101680004A11D8B406D0000E4A6F000E496F7DECA7
:1016900008F0000E0501676F000E666F8AEC05F01A
:1016A000B59AC2801200000E886F62C589F563C5C5
:1016B0008AF564C58BF565C58CF58CAF14D0010E29
:1016C000886F89C508F58AC509F58BC50AF58CC5EB
:1016D0000BF5F0EC06F008C589F509C58AF50AC5D1
:1016E0008BF50BC58CF5000E8E6F000E8D6FF1C65D
:1016F0007CF5F2C67DF58851D8A402D058A40ED04E
:101700008851D8A404D0000E6E6F2B0E03D0000EAB
:101710006E6F2D0E6D6F6DC588F504D058A602D082
:10172000200E886F89C508F58AC509F58BC50AF5AD
:101730008CC50BF5B4ECF0F008040910D8A431D036
:1017400005018851D8B409D088C500F87C07D8A015
:101750007D07000E8E6F010E8D6F000E8D25086EB9
:10176000080E8E21096EBD0E0A6EFF0E0B6E6DEC1B
:1017700005F00501FD0E7C27FF0E7D2360C519F5E0
:1017800061C51AF5000E1B6E080E1C6E7CC51DF59A
:101790007DC51EF53FECFAF019C560F51AC561F577
:1017A000120089C508F58AC509F58BC50AF58CC5EF
:1017B0000BF5B4ECF0F008500910D8A41AD00501CC
:1017C0008851D8B409D088C500F87C07D8A07D0717
:1017D000000E8E6F010E8D6F000E8D25086E080EA7
:1017E0008E21096EC10E0A6EFF0E0B6E6DEC05F0B8
:1017F000C0D7000E05018F6F000E906F800E916FA5
:101800003F0E926F000E776F000E766F89C508F558
:101810008AC509F58BC50AF58CC50BF5000E0C6E53
:10182000000E0D6E000E0E6E000E0F6E1DECFBF026
:10183000D8A00CD0BED078C58FF579C590F57AC503
:1018400091F57BC592F50501764B772B8FC508F591
:1018500090C509F591C50AF592C50BF5000E0C6E01
:10186000000E0D6E200E0E6E410E0F6E3FECBBF0A3
:1018700008C578F509C579F50AC57AF50BC57BF574
:1018800005017851895D086E79518A59096E7A513E
:101890008B590A6E7B518C590B6ECCEC01F00BBE50
:1018A000CAD70B500A10091004E1020E085CD8A038
:1018B000C2D778C521F579C522F57AC523F57BC550
:1018C00024F589C525F58AC526F58BC527F58CC570
:1018D00028F5E5ECEFF0D8A0AED705018F51895D72
:1018E000086E90518A59096E91518B590A6E925126
:1018F0008C590B6ECCEC01F00BBE08D00B500A10CB
:10190000091043E1020E085CD8B03FD08FC589F5BD
:1019100090C58AF591C58BF592C58CF54AD08FC5D7
:1019200022F590C523F591C524F592C525F5000E45
:10193000266E000E276E200E286E410E296E96EC44
:10194000C2F022C58FF523C590F524C591F525C5B4
:1019500092F505017607D8A077078F51895D086E4B
:1019600090518A59096E91518B590A6E92518C5936
:101970000B6ECCEC01F00BBEC9D70B500A1009104E
:1019800004E1020E085CD8A0C1D789C521F58AC53B
:1019900022F58BC523F58CC524F58FC525F590C59B
:1019A00026F591C527F592C528F5E5ECEFF0D8A00E
:1019B000B6D766C56FF56FC570F553BE05D052C575
:1019C00069F553C56AF505D0000E05016A6F060E6C
:1019D000696F69C574F56AC575F50501744B752B9A
:1019E000660E7019D8A416D077AF0CD0000E8F6F8A
:1019F000000E906F800E916F3F0E926F000E776F0A
:101A0000000E766F670E6F19D8B404D07651742724
:101A100077517523000E876F000E866F89C57EF59E
:101A20008AC57FF58BC580F58CC581F58FC578F5A6
:101A300090C579F591C57AF592C57BF57BD07EC5C9
:101A400022F57FC523F580C524F581C525F58FC511
:101A500026F590C527F591C528F592C529F596EC90
:101A6000C2F022C53BF523C53CF524C53DF525C58F
:101A70003EF5B5ECD2F03BC582F53CC583F53DC5DE
:101A800084F53EC585F582C508F583C509F584C58D
:101A90000AF585C50BF5FDECF2F008C572F509C530
:101AA00073F57EC521F57FC522F580C523F581C577
:101AB00024F582C50CF583C50DF584C50EF585C5E5
:101AC0000FF58FC508F590C509F591C50AF592C5C2
:101AD0000BF53FECBBF008C525F509C526F50AC591
:101AE00027F50BC528F561EC04F021C57EF522C56C
:101AF0007FF523C580F524C581F58FC522F590C5F6
:101B000023F591C524F592C525F5000E266E000E2D
:101B1000276E200E286E410E296E96ECC2F022C56B
:101B20008FF523C590F524C591F525C592F50501DE
:101B3000864B872B7451865D8751800A4F6E755195
:101B4000800A4F58D8A07BD78FC508F590C509F5F6
:101B500091C50AF592C50BF5000E0C6E000E0D6EC8
:101B6000A00E0E6E400E0F6E3FECBBF008C582F566
:101B700009C583F50AC584F50BC585F57EC521F534
:101B80007FC522F580C523F581C524F582C525F5DD
:101B900083C526F584C527F585C528F5E5ECEFF066
:101BA000D8B003D0000E050118D07EC508F57FC55A
:101BB00009F580C50AF581C50BF582C50CF583C50D
:101BC0000DF584C50EF585C50FF51DECFBF0D8A00D
:101BD0000BD0050172B108D0000E826F000E836F2A
:101BE000000E846F000E856F89C508F58AC509F55A
:101BF0008BC50AF58CC50BF582C50CF583C50DF5B3
:101C000084C50EF585C50FF5D5ECBCF008C57EF58D
:101C100009C57FF50AC580F50BC581F57EC521F59F
:101C20007FC522F580C523F581C524F5000E0C6E15
:101C3000000E0D6E200E0E6E410E0F6E78C508F56B
:101C400079C509F57AC50AF57BC50BF53FECBBF004
:101C500008C525F509C526F50AC527F50BC528F5DC
:101C6000E5ECEFF0D8A024D00501764B772B78C5B2
:101C700008F579C509F57AC50AF57BC50BF5000E9F
:101C80000C6E000E0D6E200E0E6E410E0F6E3FECB0
:101C9000BBF008C578F509C579F50AC57AF50BC515
:101CA0007BF5660E05017019D8A402D0744B752B14
:101CB00078C58FF579C590F57AC591F57BC592F514
:101CC00076C567F577C568F5000E0501716F000EE2
:101CD0006C6F000E6B6F000E876F000E866FCDD09D
:101CE0007EC522F57FC523F580C524F581C525F580
:101CF0008FC526F590C527F591C528F592C529F51C
:101D000096ECC2F022C53BF523C53CF524C53DF554
:101D100025C53EF5B5ECD2F03BC582F53CC583F553
:101D20003DC584F53EC585F582C508F583C509F531
:101D300084C50AF585C50BF5FDECF2F009BE06D0A9
:101D4000095013E10A0E085CD8B00FD082C508F51F
:101D500083C509F584C50AF585C50BF5FDECF2F0E0
:101D600008C572F509C573F505D0000E0501736F3E
:101D7000090E726F05017151D8B468AF20D0000E02
:101D80008D25D96E080E8E21DA6E2E0EDF6E8D4BEC
:101D90008E2B7C07D8A07D07010E716F10D0000E2E
:101DA0008D25D96E080E8E21DA6E300EDF6E8D4BCA
:101DB0008E2B7C07D8A07D076B07D8A06C076B51D2
:101DC0006C11D8A4ECD7000E8D25D96E080E8E218B
:101DD000DA6E7251300FDF6E8D4B8E2B7C07D8A0E0
:101DE0007D077EC521F57FC522F580C523F581C518
:101DF00024F582C50CF583C50DF584C50EF585C5A2
:101E00000FF58FC508F590C509F591C50AF592C57E
:101E10000BF53FECBBF008C525F509C526F50AC54D
:101E200027F50BC528F561EC04F021C57EF522C528
:101E30007FF523C580F524C581F58FC522F590C5B2
:101E400023F591C524F592C525F5000E266E000EEA
:101E5000276E200E286E410E296E96ECC2F022C528
:101E60008FF523C590F524C591F525C592F505019B
:101E70006707D8A06807864B872B7451865D87510A
:101E8000800A4F6E7551800A4F58D8B008D08EBF67
:101E900027D78E5104E14B0E8D5DD8A021D771510B
:101EA000D8B458A80AD0000E8D25D96E080E8E2100
:101EB000DA6E2E0EDF6E8D4B8E2B000E876F4F0E5F
:101EC000866F000E8625D96E080E8721DA6E000E09
:101ED000DF6E000E4F6E080E506E8D514F5E8E51AC
:101EE000505A86514F24086E87515020096E000EBB
:101EF0000A6E080E0B6E8DC50CF58EC50DF5A6ECA1
:101F000004F005018D51865D8D6F8E5187598E6F5E
:101F10008851D8B402D0010E01D0000E866F876BB5
:101F200058B20FD022D08D07D8A08E07000E8D2575
:101F3000D96E080E8E21DA6E300EDF6E7C07D8A0C7
:101F40007D077C51865D8751800A4F6E7D51800AE6
:101F50004F58D8B00AD08D51865D8751800A4F6E98
:101F60008E51800A4F58D8A0DED78851D8B40BD0F4
:101F70008D07D8A08E07000E8D25D96E080E8E21F4
:101F8000DA6E88C5DFF486517C5F87517D5B60C562
:101F900019F561C51AF5000E8D251B6E080E8E21F0
:101FA0001C6E7CC51DF57DC51EF53FECFAF019C50C
:101FB00060F51AC561F512009CC6D9F49DC6DAF425
:101FC000000EDE6E000EDD6E9AC608F59BC609F5A2
:101FD00035ECDCF008C5ABF609C5ACF60601ACAFD4
:101FE00002D00B0E1200D890AB35D96EAC35DA6E3C
:101FF0002B0ED926070EDA22DEC4C6F6DDC4C7F6DC
:10200000C651C711D8A402D00C0E12009CC6D9F438
:102010009DC6DAF4C6C6DEF4C7C6DDF49E91C6C618
:10202000D9F4C7C6DAF4DF50D8B415D020EE01F0E9
:10203000C651D926C751DA22DF50F8EC01F006016B
:10204000BB6FBBB108D09E51D8A4BBA502D00A0E6D
:102050001200000E1200C6C6D9F4C7C6DAF4000E8C
:10206000DF6E20EE01F0C651D926C751DA22DF50CB
:1020700068ECC9F00601BB6FBBA102D0030E1200D1
:102080009E51D8B402D0BBB5E2D7C6C64CF6C7C67F
:102090004DF6000E4F6F000E4E6F5CECD4F04CC648
:1020A000C4F64DC6C5F6040EC419C511D8A402D095
:1020B000010E1200C55104E1020EC45DD8A002D089
:1020C0000D0E120020EE2CF0C651D926C751DA228F
:1020D000DEC4B7F6DEC4B8F6DEC4B9F6DEC4BAF6BE
:1020E0003B0EC625086E000EC721096EA6EC05F052
:1020F000020E09180810D8A4E3D7460E0601C6251B
:10210000086E000EC721096EA6EC05F008C5C0F6E2
:1021100009C5C1F60601C26BC36BC051C111C21122
:10212000C311D8A410D0540EC625086E000EC721C6
:10213000096EB6ECF3F008C5C0F609C5C1F60AC5CC
:10214000C2F60BC5C3F6060120EE18F0C651D9261B
:10215000C751DA22C0C6DEF4C1C6DEF4C2C6DEF460
:10216000C3C6DEF420EE40F0C651D926C751DA22AC
:1021700010EE03F0C651E126C751E222DFC4E7F4B6
:1021800020EE03F0C651D926C751DA22DE04D8B4B6
:102190000AD020EE03F0C651D926C751DA22020E2A
:1021A000DE18D8A48DD7C0C608F5C1C609F5C2C6C9
:1021B0000AF5C3C60BF520EE03F0C651D926C75168
:1021C000DA22DF509F6F9F510C6E0D6A0E6A0F6A04
:1021D00023EC02F008C5C0F609C5C1F60AC5C2F66F
:1021E0000BC5C3F6060120EE3DF0C651D926C751F6
:1021F000DA22DF509F6FA06B20EE0AF0C651D9267D
:10220000C751DA229FC6DEF4A0C6DDF420EE0AF044
:10221000C651D926C751DA22DE50DE10D8B450D7C5
:1022200020EE0AF0C651D926C751DA22DEC49FF645
:10223000DDC4A0F620EE0AF0C651D926C751DA2235
:10224000DEC4A1F6DDC4A2F6FF0EA125A36FFF0E2A
:10225000A221A46F9F51A315A56FA051A415A66F2D
:10226000A551A611D8A42CD7410EC625086E000E84
:10227000C721096EA6EC05F0060120EE08F0C65154
:10228000D926C751DA2208C5DEF409C5DDF420EEEF
:1022900008F0C651D926C751DA22DF509F6F0F0EC2
:1022A0009F17D8A40DD7430EC625086E000EC72170
:1022B000096EA6EC05F008C5B3F609C5B4F606012B
:1022C000B56BB66BB351B411B511B611D8A410D01B
:1022D000500EC625086E000EC721096EB6ECF3F04D
:1022E00008C5B3F609C5B4F60AC5B5F60BC5B6F60A
:1022F0003E0E0601C625086E000EC721096EA6EC2B
:1023000005F008C5B1F609C5B2F60601B151B21122
:10231000D8B4D6D620EE08F0C651D926C751DA2255
:10232000DEC49FF6DDC4A0F6040EA16FD890A033E2
:102330009F33A12FFBD7B1519F25A26FB251A0218E
:10234000A36FA46BD8B0A42BA56BC051A225AD6F11
:10235000C151A321AE6FC251A421AF6FC351A521BA
:10236000B06FAD51B35DAE51B459AF51B559B05125
:10237000B659D8A0A5D6AD51B35D086EAE51B459CB
:10238000096EAF51B5590A6EB051B6590B6E20EEB9
:102390000AF0C651D926C751DA22DEC49FF6DDC441
:1023A000A0F69FC60CF5A0C60DF50E6A0F6AA5EC47
:1023B000FBF008C5BCF609C5BDF60AC5BEF60BC5DF
:1023C000BFF60601BC51BD11BE11BF11D8B478D6FD
:1023D000000EC56F000EC46FF60EBC5DFF0EBD593A
:1023E000FF0EBE590F0EBF59D8B004D0000EC56FF6
:1023F000030EC46FBF51BE110AE1F60EBC5DFF0EA5
:10240000BD59D8B004D0000EC56F020EC46FBF51C5
:10241000BE110AE1F60EBC5D0F0EBD59D8B004D056
:10242000000EC56F010EC46FC451C511D8B448D693
:10243000020EBC259F6F000EBD21A06F000EBE21B5
:10244000A16F000EBF21A26F20EE14F0C651D92655
:10245000C751DA229FC6DEF4A0C6DEF4A1C6DEF4C0
:10246000A2C6DEF420EE1CF0C651D926C751DA22EE
:10247000B7C6DEF4B8C6DEF4B9C6DEF4BAC6DEF41A
:10248000B151B7259F6FB251B821A06F000EB9218D
:10249000A16F000EBA21A26F20EE20F0C651D926FE
:1024A000C751DA229FC6DEF4A0C6DEF4A1C6DEF470
:1024B000A2C6DEF4AD51B7259F6FAE51B821A06F13
:1024C000AF51B921A16FB051BA21A26F20EE28F00F
:1024D000C651D926C751DA229FC6DEF4A0C6DEF463
:1024E000A1C6DEF4A2C6DEF4030EC419C511D8A439
:1024F0004DD05A0EC625086E000EC721096EA6ECF7
:1025000005F008500910D8A4DBD5060120EE08F02C
:10251000C651D926C751DA22DE50DE10D8A4D0D554
:102520005C0EC625086E000EC721096EB6ECF3F0EE
:10253000060120EE24F0C651D926C751DA2208C57B
:10254000DEF409C5DEF40AC5DEF40BC5DEF420EEC8
:1025500014F0C651D926C751DA22DEC49FF6DEC474
:10256000A0F6DEC4A1F6DEC4A2F6020ED8909F3714
:10257000A037A137A237E82EF9D79FC6A7F6A0C685
:10258000A8F6A1C6A9F6A2C6AAF692D020EE08F037
:10259000C651D926C751DA22DE50DE10D8B490D504
:1025A00020EE20F0C651D926C751DA22DEC49FF6AC
:1025B000DEC4A0F6DEC4A1F6DEC4A2F6C0519F259B
:1025C000A36FC151A021A46FC251A121A56FC35116
:1025D000A221A66F20EE24F0C651D926C751DA22D7
:1025E000A3C6DEF4A4C6DEF4A5C6DEF4A6C6DEF4F9
:1025F000020EC419C511D8B444D020EE14F0C6514F
:10260000D926C751DA22DEC49FF6DEC4A0F6DEC4A6
:10261000A1F6DEC4A2F6010E9F15A36F000EA01551
:10262000A46F000EA115A56F000EA215A66F20EED7
:1026300014F0C651D926C751DA22DEC408F5DEC42B
:1026400009F5DEC40AF5DEC40BF5030E0C6E000EB0
:102650000D6E000E0E6E000E0F6E23EC02F0D89081
:102660000B320A32093208320601A3510824A76F3F
:10267000A4510920A86FA5510A20A96FA6510B20CB
:1026800016D020EE14F0C651D926C751DA22DEC486
:102690009FF6DEC4A0F6DEC4A1F6DEC4A2F6D89092
:1026A0009F35A76FA035A86FA135A96FA235AA6F76
:1026B000FF0EA7259F6F010EA821A06F000EA92174
:1026C000A16F000EAA21A26F0A0E05D0D890A233E6
:1026D000A133A0339F33E82EF9D720EE18F0C6516E
:1026E000D926C751DA229F51DE5CA051DE58A15194
:1026F000DE58A251DE58D8A0E3D420EE10F0C65127
:10270000D926C751DA22FF0EDE6EFF0EDE6EFF0EF7
:10271000DE6EFF0EDD6EDD52DD5210EE0CF0C651A6
:10272000E126C751E222DEC4E6F4DEC4E6F4DEC4EC
:10273000E6F4DEC4E6F420EE05F0C651D926C75112
:10274000DA22800EDF6E030EC419C511D8A495D00D
:10275000600EC625086E000EC721096EA6EC05F0B6
:1027600008040910D8A489D0C6C634F6C7C635F601
:10277000010E0601B725366F000EB821376F000E27
:10278000B921386F000EBA21396F12ECF4F000094C
:10279000D8A473D0060120EE05F0C651D926C75142
:1027A000DA22000EDF6E2E0EC625086E020EC7213D
:1027B000096EA6EC05F0550E08185FE1AA0E09187F
:1027C000D8A45BD0300E0601C625086E000EC721C6
:1027D000096EB6ECF3F0520E08184FE1520E0918CC
:1027E0004CE1610E0A1849E1410E0B18D8A445D0FE
:1027F000140E0601C625086E020EC721096EB6EC3E
:10280000F3F0720E081839E1720E091836E1410E24
:102810000A1833E1610E0B18D8A42FD0180E060148
:10282000C625086E020EC721096EB6ECF3F006014C
:1028300020EE10F0C651D926C751DA2208C5DEF4C1
:1028400009C5DEF40AC5DEF40BC5DEF41C0EC62590
:10285000086E020EC721096EB6ECF3F0060120EEF9
:102860000CF0C651D926C751DA2208C5DEF409C5D5
:10287000DEF40AC5DEF40BC5DEF4C6C6D9F4C7C65D
:10288000DAF4C4C6DFF40701294B2A2B060120EE37
:1028900006F0C651D926C751DA2229C7DEF42AC765
:1028A000DDF429EF90F07EC695F67FC696F682C6D7
:1028B000D9F483C6DAF4000EDE6E000EDD6E7CC63F
:1028C000D6F57DC6D7F5A50E0501D86F060ED96FD2
:1028D0007FECF1F00601946F9451D8A40BD020EE58
:1028E0000FF07C51D9267D51DA22DF50946F94513C
:1028F000D8B402D09451120020EE0EF07C51D926AB
:102900007D51DA22DFB202D0070E120020EE10F065
:102910007C51D9267D51DA2210EE10F07C51E1264F
:102920007D51E222E6C488F6E6C489F6E6C48AF65A
:10293000E6C48BF6805188258C6F815189218D6F7B
:10294000000E8A218E6F000E8B218F6FDE508C5D02
:10295000DE508D59DE508E59DE508F59D8B00ED0D2
:1029600020EE10F07C51D9267D51DA22DEC484F6A7
:10297000DDC485F6841D806F851D816F80518111B6
:10298000D8B4FBD220EE10F07C51D9267D51DA224A
:10299000FF0EDE14846F010EDE14856F000EDE1450
:1029A000866F000EDE14876F8451851186118711A2
:1029B000D8A43FD220EE10F07C51D9267D51DA22E6
:1029C000DEC484F6DEC485F6DEC486F6DEC487F691
:1029D0000A0E05D0D8908733863385338433E82EAA
:1029E000F9D720EE0AF0A551D926A651DA22DEC485
:1029F00088F6DDC489F6FF0E88258A6FFF0E8921CF
:102A00008B6F84518A15976F85518B15986F9751ED
:102A10009811D8A49CD020EE10F07C51D9267D517D
:102A2000DA22DE50DE10DE10DE10D8A423D020EE35
:102A300006F07C51D9267D51DA22DEC49BF6DEC435
:102A40009CF6DEC49DF6DEC49EF69B519C119D1142
:102A50009E11D8A42BD07CC65FF67DC660F6000E12
:102A6000616F000E626F000E636F000E646F1AECF0
:102A7000A7F014D07CC65FF67DC660F620EE14F099
:102A80007C51D9267D51DA22DEC461F6DEC462F6BD
:102A9000DEC463F6DEC464F61AECA7F05FC69BF6EC
:102AA00060C69CF661C69DF662C69EF69B519C115F
:102AB0009D119E11D8B461D29B059C119D119E1150
:102AC000D8A40AD020EE0FF07C51D9267D51DA220D
:102AD000020EDF6E020E12009B2911E19C290FE10C
:102AE0009D290DE19E29D8A40AD020EE0FF07C513B
:102AF000D9267D51DA22010EDF6E010E120020EE82
:102B000014F07C51D9267D51DA229BC6DEF49CC696
:102B1000DEF49DC6DEF49EC6DEF420EE06F07C51A7
:102B2000D9267D51DA22DE50DE10DE10DE10D8A468
:102B30000ED020EE06F07C51D9267D51DA229BC6BC
:102B4000DEF49CC6DEF49DC6DEF49EC6DEF420EE06
:102B50000EF07C51D9267D51DA22DFAE2DD0220E27
:102B60007C25176F000E7D21186F20EE18F07C5128
:102B7000D9267D51DA22DEC419F6DEC41AF6DEC487
:102B80001BF6DEC41CF6000E1E6F010E1D6F20EE3C
:102B900001F0A551D926A651DA22DF50AEECE3F0C0
:102BA0000009D8A435D1060120EE0EF07C51D926BB
:102BB0007D51DA227F0EDF16A5C614F5A6C615F5DF
:102BC00020EE14F07C51D9267D51DA22DEC416F5B0
:102BD000DEC417F5DEC418F5DEC419F540ECF2F0DA
:102BE00014C5A1F615C5A2F616C5A3F617C5A4F619
:102BF0000601A151A211A311A411D8B463D7975112
:102C0000A1279851A223000EA323000EA42380C65F
:102C100084F681C685F6090E866FD8908533843395
:102C2000862FFBD784C699F685C69AF699519A11D4
:102C3000D8B4A7D099519725846F9A519821856F60
:102C400020EE0AF0A551D926A651DA228451DE5C85
:102C50008551DE58D8B010D020EE0AF0A551D92603
:102C6000A651DA22DEC484F6DDC485F69751845D70
:102C7000996F985185599A6F95C617F696C618F6AA
:102C8000A1C619F6A2C61AF6A3C61BF6A4C61CF660
:102C900099C61DF69AC61EF620EE01F0A551D9265A
:102CA000A651DA22DF50AEECE3F00009D8A4B0D090
:102CB00006019951846F9A51856F866B876B20EE60
:102CC00018F07C51D9267D51DA22DEC488F6DEC4A4
:102CD00089F6DEC48AF6DEC48BF6A151885D8C6F5E
:102CE000A25189598D6FA3518A598E6FA4518B5966
:102CF0008F6F84518C5D85518D5986518E598751C6
:102D00008F59D8B02FD0220E7C25086E000E7D2161
:102D1000096E20EE18F07C51D9267D51DA22DEC4EE
:102D200084F6DDC485F6A151845FA251855B090E4E
