:0400000081EF00F09C
:100008000078007800780078400000784000007898
:100018000078007800780078007800780078007818
:1000280000784000400040000078007800780078B0
:1000380000780078007800780078007800780078F8
:100048000078007800780078400040000078007858
:100058000078007800784000007800780078007810
:1000680000780078007800780078007800780078C8
:1000780000780078007800784000007800780078F0
:1000880000780078007800780078007800780078A8
:100098000078007800780078400000784000400040
:1000A8000078007800780078007800780078007888
:1000B8000078007800780078007800780078007878
:1000C8000078007800780078007800780078007868
:1000D8000078007800780078007800780078007858
:1000E8004000007800780078400040004000400060
:0E00F8000078007800780078FF0017EFE2F043
:10E38A0000ACF8B4070067F6B5070046F6B6070012
:10E39A00A5F5B7070077F6B80701C5F6A6070092F4
:10E3AA00F5A7070045F5A80700F0F4A9070051F7FB
:10E3BA00AA0700EFF5AB0700B8F5AC070030F5ADDA
:10E3CA0007000100000008000000400000000002F1
:10E3DA00000000100000008000000000040000009F
:10E3EA0020000000000100000008000000400100B9
:10E3FA0000000A00000064000000E8030000102783
:10E40A000000A086010040420F008096980000E1BB
:10E41A00F50500CA9A3B0100000010000000000147
:10E42A0000000010000000000100000010000000C1
:10E43A00000100000010819FE0FC407E80FC00008B
:10E44A003800960010000000E5FF0201E9F700021B
:10E45A0063FB000331FD0004ADFE0005A7FE0106C3
:10E46A00E3F8000797FF000846F90009D2F9000A05
:10E47A0050F9000B2AFD000CCBFE000DC5FE010E63
:10E48A0040FA000F9CFF01106BFC021101F8001208
:10E49A00AAF90013AFFD0014EFFE0015E9FE0116FC
:10E4AA00EEF80017D1FF01186DFF0019F0F9001AF4
:10E4BA005AF9001BA8FD001C0DFF001D07FF011ED5
:10E4CA004AFA001FD5FF0120F7FA022119F80222A1
:10E4DA0035F7002334FE00242BFF002525FF0126F3
:10E4EA00F9F80027CDFF012863FC00292CFA022A3B
:10E4FA00D3F6002B2DFE002C49FF002D43FF012EE1
:10E50A0054FA002FE1FF0130EEFA023131F80232FB
:10E51A0078F7003350FE0034AFFA0035A6FA013618
:10E52A00EFF60037DDFF01385BFC003936FA023AB4
:10E53A006BF7003B49FE003C8FFE003D89FE013E21
:10E54A00D8F8003FD9FF0040CFFC004100FD00424F
:10E55A004DFD00437EFD0044D2FD004503FE00460A
:10E56A006EF900479EFC0048D6FC004907FD004AA8
:10E57A0054FD004B85FD004CD9FD004D0AFE004EAE
:10E58A0078F9004FA5FC0050DDFC00510EFD005249
:10E59A005BFD00538CFD0054E0FD005511FE005652
:10E5AA0082F90057ACFC0058E4FC005915FD005AEA
:10E5BA0062FD005B93FD005CE7FD005D18FE005EF6
:10E5CA008CF9005FB3FC0060EBFC00611CFD00628B
:10E5DA0069FD00639AFD0064EEFD00651FFE00669A
:10E5EA0096F90067BAFC0068F2FC006923FD006A2C
:10E5FA0070FD006BA1FD006CF5FD006D26FE006E3E
:10E60A00A0F9006FC1FC0070BEF90071C8F9007270
:10E61A00DCF90073E6F90074FAF9007522FA00765B
:10E62A00BFFF0077B4F90078C8FC0079F9FC007ADA
:10E63A0046FD007B77FD007CCBFD007DFCFD007E66
:10E64A0064F9007F97FC00807BFB008193FB0082CA
:10E65A00B3FB0083CBFB0084F3FB00854BFC0086F5
:10E66A00CDF800875BFB008873FB00898BFB008A6F
:10E67A00ABFB008BC3FB008CEBFB008D43FC008ED5
:10E68A00C2F8008F53FB0090A1FE0091BFFE0092DA
:10E69A00E3FE009301FF00941FFF00953DFF0096E3
:10E6AA009DFA009783FE00986BFB009983FB009A02
:10E6BA00A3FB009BBBFB009CE3FB009D3BFC009E75
:10E6CA00B7F8009F4BFB00A0B3FE00A1D1FE00A249
:10E6DA00F5FE00A313FF00A431FF00A54FFF00A61B
:10E6EA00B8FA00A795FE00A8B9FE00A9D7FE00AAAD
:10E6FA00FBFE00AB19FF00AC37FF00AD55FF00AEC3
:10E70A00C1FA00AF9BFE00B0BAFE00B1D8FE00B25B
:10E71A00FCFE00B31AFF00B438FF00B556FF00B67E
:10E72A00C2FA00B79CFE00B8A1FF00B9A6FF00BA62
:10E73A00ABFF00BBB0FF00BCB5FF00BDBAFF00BE17
:10E74A003BFB00BF92FF00C057FE00C138FD02C26A
:10E75A003DF802C3D3FA02C427F700C59BFB01C6E2
:10E76A00DDF700C7FBFB00C867FF00C9E9FF02CA63
:10E77A0030F900CB000002CCACF702CD04F901CE8F
:10E78A00D1F700CF1BFC00D03FFD00D1B6FD02D26D
:10E79A00F5F701D3E1F602D4FDF600D5D3FB01D695
:10E7AA0004FA00D703FC00D8DDFE00D9EDFF02DA37
:10E7BA000FF901DB5EF702DC9FF700DD000001DEE6
:10E7CA00C5F700DF23FC00E042FE00E13BFE02E267
:10E7DA0025F800E33BF902E419F700E553FC01E6EA
:10E7EA000EFA00E70BFC00E8BDFD00E943FB02EA74
:10E7FA000DF800EBDCFA02EC0BF700ED000001EE7D
:10E80A0018FA00EF2BFC00F061FF00F1C4FD02F2E0
:10E81A0025F900F3F8FF02F492F700F5DBFB01F6A5
:10E82A0019FA00F713FC00F85BFF00F9E5FA02FA9F
:10E83A001AF900FBFBFF02FC85F700FD000001FE50
:10E84A00CAFA00FF33FCF0000000C3BB000000005E
:10E85A0000000000000000000000000000000000AE
:10E86A00000000000000000000000000000000009E
:10E87A00000000000000000000000000000000008E
:10E88A00000000000000000000000000000000007E
:10E89A00000000000000000000000000000000006E
:10E8AA00000000000000000000000000000000005E
:10E8BA00000000000000000000000000000000004E
:10E8CA0000000000000000000000424F4F543A20B0
:10E8DA006572726F7220626F6F74696E670D0A00DB
:10E8EA0043502F4D20626F6F742D6C6F6164657297
:10E8FA0020666F72205A38302D53696D756C6174B9
:10E90A006F720D0A002196007ED30123B7C2BE00A2
:10E91A00010100210000AFD30A78D30B79D30C7D13
:10E92A00D30F7CD310AFD30DDB0EB7CA0000C630AD
:10E93A00D3013E0DD3013E0AD3012180007EB7CA1E
:10E94A00FE00D30123C3F300F376000000000000A9
:10E95A0000000000000000000000000000000000AD
:10E96A00000000000000000000000000000000009D
:10E97A00000000000000000000000000000000008D
:10E98A00000000000000000000000000000000007D
:10E99A00000000000000000000000000000000006D
:10E9AA00000000000000000000000000000000005D
:10E9BA00D3AB00ED739400319400F5C5D5E5DDE5E0
:10E9CA00FDE5D3ACFDE1DDE1E1D1C1F1ED7B9400E0
:10E9DA00ED450000000000000000000000000000FB
:10E9EA008CF6013C9C01000087F600BED0010000B5
:10E9FA0082FA0018E4010000B9F702CE7A01000099
:10EA0A00F5FF02CE7A01000079FA040054010000F1
:10EA1A008DFF021A850100007DFE00F4E30100006B
:10EA2A0089FC0268930100007FFE02263D01010075
:10EA3A0083FF0168CF01000090FC005278010000BA
:10EA4A0088FF0008D201000000000000000000005A
:10EA5A00D3AD00ED733600313600F5C5D5E5DDE5F9
:10EA6A00FDE5D3AEFDE1DDE1E1D1C1F1ED7B36009B
:10EA7A00ED4D000000000000000000000000000052
:10EA8A004449534B3A204F503D2530327820442F89
:10EA9A00542F533D25642F2533642F2533642020BA
:10EAAA0020202020202020202020414444523D259F
:10EABA00303278253032782028524541442049475F
:10EACA004E4F524544290A0D002F55736572732F14
:10EADA0074616B656D7572612F776F726B7370619C
:10EAEA0063652F6769746875622F53757065724D17
:10EAFA00455A38302F6469736B696F2F70696331B7
:10EB0A00386634377134335F7370692E6300444951
:10EB1A00534B3A204F503D2530327820442F542F02
:10EB2A00533D25642F2533642F25336420782533FC
:10EB3A00643D25356C6420414444523D2530327889
:10EB4A0025303278202E2E2E2053543D253032780F
:10EB5A000A0D004449534B3A204F503D2530327834
:10EB6A0020442F542F533D25642F2533642F2533FA
:10EB7A0064202020202020202020202020414444DE
:10EB8A00523D2530327825303278202849474E4F79
:10EB9A00524544290A0D004449534B3A204F503DEF
:10EBAA002530327820442F542F533D25642F2533A6
:10EBBA00642F25336420202020202020202020209C
:10EBCA0020414444523D2530327825303278202E77
:10EBDA002E2E200A0D00534420436172643A20729B
:10EBEA006561643531323A20435243206572726F4F
:10EBFA007220282530347820213D20253034782C85
:10EC0A002072657472793D2564290A0D00574152B4
:10EC1A004E494E473A206E6F204750494F2065783B
:10EC2A0070616E64657220746F20636F6E74726FA8
:10EC3A006C206869676865722061646472657373C1
:10EC4A000A0D005741524E494E473A20746F6F20C1
:10EC5A006D616E792062616E6B7320726571756584
:10EC6A00737465642E2028726571756573742069E2
:10EC7A0073202564290A0D00747970652027686558
:10EC8A006C702720746F2073656520746865206C2A
:10EC9A00697374206F6620617661696C61626C6564
:10ECAA0020636F6D6D616E64730A0D00496D616753
:10ECBA00652066696C652025732F4452495645259F
:10ECCA00632E44534B2069732061737369676E65C1
:10ECDA006420746F2064726976652025630A0D00CA
:10ECEA005741524E494E473A20756E6B6E6F776E9A
:10ECFA0020492F4F2077726974652025642C2025BE
:10ED0A0064202825303258482C202530325848298A
:10ED1A000A0D006469736B5F696F63746C3A2070E3
:10ED2A006472763D25642C20636D643D25642C2035
:10ED3A00627566663D3078256C783A207265733D57
:10ED4A0025640A0D00534420436172643A202072FC
:10ED5A006561643531323A20616464723D25386CEC
:10ED6A00642C206F6666733D25642C20636F756E74
:10ED7A00743D25640A0D00534420436172643A20AD
:10ED8A0077726974653531323A20616464723D255F
:10ED9A00386C642C206F6666733D25642C20636F83
:10EDAA00756E743D25640A0D0053442043617264F4
:10EDBA003A2077726974653531323A206661696C36
:10EDCA00656420746F2067657420746F6B656E2CA0
:10EDDA002074696D656F75740A0D004449534B3A86
:10EDEA0020207265616420442F542F533D25642FDF
:10EDFA002533642F25336420782533643D25356C0B
:10EE0A00643A204552524F520A0D0053442043613E
:10EE1A0072643A2077726974653531323A207469BE
:10EE2A006D656F75742C20726573706F6E736520D3
:10EE3A00697320253032780A0D00534420436172E9
:10EE4A00643A20434D4435382C2052333D25303224
:10EE5A0078202530327820253032782025303278D3
:10EE6A0020253032780A0D00534420436172643AF7
:10EE7A0020434D44382C2052373D25303278202506
:10EE8A0030327820253032782025303278202530EB
:10EE9A0032780A0D004449534B3A20207265616466
:10EEAA0020442F542F533D25642F2533642F2533B7
:10EEBA006420782533643D25356C643A204F4B0A2B
:10EECA000D006469736B5F696F63746C3A207064D8
:10EEDA0072763D25642C20636D643D25643A204E8C
:10EEEA006F742068616E646C65642E0A0D00646933
:10EEFA00736B5F726561643A2020706472763D2597
:10EF0A00642C20736563746F723D256C642C2063D6
:10EF1A006F756E743D25640A0D006469736B5F77C3
:10EF2A00726974653A20706472763D25642C207388
:10EF3A006563746F723D256C642C20636F756E7403
:10EF4A003D25640A0D00534420436172643A20430C
:10EF5A00435320284361726420436170616369747A
:10EF6A0079205374617475732920697320300A0DEE
:10EF7A0000534420436172643A207772697465359C
:10EF8A0031323A20435243206572726F72202872DE
:10EF9A00657472793D2564290A0D00534420436142
:10EFAA0072643A204361726420706F7765722075CB
:10EFBA007020737461747573206269732069732099
:10EFCA00300A0D0072656164204D425220706172F0
:10EFDA00746974696F6E207461626C652061742053
:10EFEA00736563746F7220300A0D005741524E499F
:10EFFA004E473A20756E6B6E6F776E20492F4F2001
:10F00A007265616420256420282530325848290A0F
:10F01A000D00534420436172643A20207265616492
:10F02A003531323A20736563746F723D256C643AE8
:10F03A00204552524F520A0D0025733A204552522A
:10F04A004F523A206D6F6465202564206973206EE3
:10F05A006F7420737570706F727465640A0D005353
:10F06A004420436172643A2053444843206F72201B
:10F07A005344584320636172642064657465637401
:10F08A0065640A0D00534420436172643A20696E34
:10F09A00697469616C697A65202E2E2E20737563F6
:10F0AA006365656465640A0D0053442043617264B4
:10F0BA003A20756E6578706563746564207265734D
:10F0CA00706F6E736520253032780A0D0053442024
:10F0DA00436172643A2020726561643531323A20A4
:10F0EA00736563746F723D256C643A204F4B0A0D49
:10F0FA000053757065724D455A38302B535049206C
:10F10A0077697468204750494F20657870616E644A
:10F11A0065720A0D00534420436172643A204143E8
:10F12A004D44343120726573706F6E736520697354
:10F13A0020253032780A0D00534420436172643A24
:10F14A002077726974653531323A20746F6B656E57
:10F15A0020697320253032780A0D004552524F52E9
:10F16A003A2062616E6B202564206973206E6F7489
:10F17A0020617661696C61626C652E0A0D005344E8
:10F18A0020436172643A20434D44353920726573D5
:10F19A00706F6E736520697320253032780A0D000E
:10F1AA004D656D6F727920303030303030202D202F
:10F1BA002530366C5848202564204B42204F4B0D91
:10F1CA000A00706172746974696F6E207374617277
:10F1DA00747320617420736563746F7220256C6484
:10F1EA000A0D00665F777269746528293A204552CC
:10F1FA00524F52207265733D25642C206E3D256462
:10F20A000A0D00665F7265616428293A20455252E8
:10F21A004F52207265733D25642C206E3D25640A89
:10F22A000D006661696C656420746F207772697479
:10F23A006520736563746F7220256C640A0D00661D
:10F24A0061696C656420746F2072656164207365FE
:10F25A0063746F7220256C640A0D000A0D534420F2
:10F26A00436172643A20696E697469616C697A658E
:10F27A00202E2E2E0A0D00436C6561722062726583
:10F28A00616B706F696E74206174202530346C581C
:10F29A000A0D00534420436172643A2041434D44AD
:10F2AA0034312C2052313D253032780A0D000A0DB6
:10F2BA00526573657420627920494F20706F7274A9
:10F2CA002025303258480A0D004661696C65642071
:10F2DA00746F206F70656E20534420436172642EF0
:10F2EA002E0A0D004661696C656420746F206D6F8B
:10F2FA00756E7420534420436172642E0A0D0066B1
:10F30A0061696C656420746F20726561642073653D
:10F31A0063746F7220300A0D000A0D48414C542064
:10F32A00627920494F20706F727420253032584814
:10F33A000A0D0053657420627265616B706F696EA5
:10F34A0074206174202530346C580A0D000A4D650A
:10F35A006D6F7279206572726F7220617420253028
:10F36A00366C58480A0D006469736B5F696E69747C
:10F37A0069616C697A65282564292E2E2E0A0D008A
:10F38A00534420436172643A206E6F74207375701F
:10F39A006F70727465640A0D00534420436172648D
:10F3AA003A20434D44302C2052313D253032780AE0
:10F3BA000D00496E76616C696420617267756D65CE
:10F3CA006E743A20272573270A0D00535441545569
:10F3DA00533A202563256325632563256325632521
:10F3EA0063256300202020202020202020202020A8
:10F3FA0020202020202020202020200D0077616955
:10F40A007420666F722070726F6772616D6D6572BB
:10F41A00202E2E2E0D0025732535337320434845A3
:10F42A00434B53554D3A20253032780A0D00556E1C
:10F43A006B6E6F776E207661726961626C652027E8
:10F44A002573270A0D00427265616B706F696E74CD
:10F45A00206973206E6F74207365740A0D004D6500
:10F46A006D6F727920303030303030202D202530C9
:10F47A00366C58480D00706879736963616C206452
:10F48A00726976657220213D20300A0D00416D6255
:10F49A006967756F757320636F6D6D616E64202582
:10F4AA00730A0D00665F6C7365656B28293A2045FF
:10F4BA0052524F522025640A0D00427265616B70E8
:10F4CA006F696E74206973202530346C580A0D00F8
:10F4DA00556E6B6E6F776E20636F6D6D616E643AF9
:10F4EA002025730A0D0064656275675F666174643E
:10F4FA0069736B5F766572626F7365006E6F204623
:10F50A004154333220706172746974696F6E0A0DE6
:10F51A0000665F73796E6328293A204552524F522A
:10F52A002025640A0D0064656275675F7364636110
:10F53A0072645F766572626F73650064656275678F
:10F54A005F6661746469736B5F7772697465006E74
:10F55A006F204D4252207369676E61747572650A35
:10F56A000D00534420436172643A2074696D656FDB
:10F57A0075740A0D00696E76616C6964206472693B
:10F58A0076652025640A0D0064656275675F6661A9
:10F59A00746469736B5F7265616400646562756740
:10F5AA005F6469736B5F766572626F736500646529
:10F5BA006275675F7364636172645F7772697465A9
:10F5CA00006E6F2076616C696420766F6C756D656C
:10F5DA000A0D00534420436172643A2072656164E3
:10F5EA00792E0A0D0064656275675F7364636172E0
:10F5FA00645F726561640025732069732073656CAA
:10F60A0065637465642E0A0D003031323334353641
:10F61A003738394142434445460030313233343574
:10F62A0036373839616263646566004D4D553A2054
:10F63A0062616E6B20253032582020006465627545
:10F64A00675F6469736B5F7772697465004272659C
:10F65A00616B20617420253034580A0D006465629C
:10F66A0075675F6469736B5F726561640064656284
:10F67A0075675F6469736B5F6D61736B00636C655B
:10F68A006172627265616B706F696E74004E6F2091
:10F69A00626F6F74206469736B2E0A0D002A2B2C1B
:10F6AA003A3B3C3D3E5B5D7C223F7F0025732F4405
:10F6BA005249564525632E44534B0064656275676B
:10F6CA005F6661746469736B004C4420484C2C2853
:10F6DA00253034584829004F5554202825303258AF
:10F6EA0048292C41004C442028484C292C253032EA
:10F6FA0058480043414C4C204E432C25303458483E
:10F70A000043414C4C2050452C2530345848004386
:10F71A00414C4C20504F2C25303458480043414C22
:10F72A004C204E5A2C2530345848004C4420282569
:10F73A0030345848292C484C004E6F2053442043FB
:10F74A006172643F0A0D0064656275675F73646382
:10F75A0061726400494E20412C28253032584829CC
:10F76A00004C4420412C28253034584829004C4468
:10F77A0020282530345848292C410043414C4C203C
:10F78A004D2C25303458480043414C4C20502C25F0
:10F79A00303458480043414C4C20582C25303458BA
:10F7AA00480043414C4C205A2C25303458480064B8
:10F7BA006973617373656D626C65005342432041DE
:10F7CA002C25303258480041444320412C25303200
:10F7DA0058480041444420412C2530325848004CB6
:10F7EA00442042432C2530345848004A50204E4386
:10F7FA002C2530345848004C442044452C253034BC
:10F80A005848004A502050452C2530345848004C5E
:10F81A004420484C2C2530345848004A5020504F38
:10F82A002C2530345848004C442053502C25303471
:10F83A005848004A50204E5A2C25303458480070F7
:10F84A00726F6772616D3A0A0D0049593A20253084
:10F85A0034580A0D0042433A2025303458202000FB
:10F86A0050433A202530345820200044453A202578
:10F87A0030345820200041463A2025303458202080
:10F88A0000484C3A202530345820200053503A2062
:10F89A002530345820200049583A20253034582041
:10F8AA00200064656275675F6469736B0053424345
:10F8BA0020412C28484C290041444320412C284807
:10F8CA004C290041444420412C28484C29004C44EE
:10F8DA0020412C2530325848004C4420422C2530F7
:10F8EA00325848004C4420442C2530325848004CA9
:10F8FA004420482C25303258480043414C4C20259E
:10F90A0030345848004A5020432C25303458480097
:10F91A004A50204D2C2530345848004A5020502C4B
:10F92A002530345848004A50205A2C25303458483B
:10F93A0000455820285350292C484C00455820414E
:10F94A00462C414627004C4420412C28424329009A
:10F95A004C4420412C28444529004C4420412C2861
:10F96A00484C29004C4420422C28484C29004C443D
:10F97A0020432C28484C29004C4420442C28484C2D
:10F98A0029004C4420452C28484C29004C44204846
:10F99A002C28484C29004C44204C2C28484C29003F
:10F9AA004C4420284445292C41004C442028484CEA
:10F9BA00292C41004C442028484C292C42004C4414
:10F9CA002028484C292C430041444420484C2C42CE
:10F9DA0043004C442028484C292C44004C442028FD
:10F9EA00484C292C450041444420484C2C444500AD
:10F9FA004C442028484C292C480053554220253095
:10FA0A0032584800414E4420253032584800584F59
:10FA1A0052202530325848004C442028484C292C82
:10FA2A004C0041444420484C2C484C00414444205A
:10FA3A00484C2C5350004C4420432C25303258005B
:10FA4A004C4420452C25303258004C44204C2C255F
:10FA5A003032580025732530366C783A00464154C6
:10FA6A00333220202000737461636B3A0A0D0064FC
:10FA7A0069736B7265616400636F6E74696E756534
:10FA8A00002077726974653A200076657269667932
:10FA9A003A20005355422028484C29004445432027
:10FAAA0028484C2900494E432028484C2900414EF9
:10FABA00442028484C2900584F522028484C2900F5
:10FACA004350202530325848004A502025303458B7
:10FADA00480045582044452C484C004C442053507B
:10FAEA002C484C004A52204E432C2564004A52208E
:10FAFA004E5A2C25640025643A2025730A0D0053BA
:10FB0A00656C6563743A200043504D4449534B5326
:10FB1A00002573253034783A0025733D25640A0D93
:10FB2A00004572726F720A0D000D257325730A0D56
:10FB3A000043502028484C29004A502028484C2984
:10FB4A000053424320412C410041444320412C416F
:10FB5A000041444420412C41004C442042432C4162
:10FB6A000053424320412C420041444320412C424D
:10FB7A000041444420412C420053424320412C433B
:10FB8A000041444320412C430041444420412C433A
:10FB9A0000505553482042430053424320412C44CD
:10FBAA000041444320412C440041444420412C4418
:10FBBA000053424320412C450041444320412C45F7
:10FBCA000041444420412C450050555348204445A7
:10FBDA0000505553482041460053424320412C4887
:10FBEA000041444320412C480041444420412C48D0
:10FBFA000052535420303048005253542031304878
:10FC0A000052535420323048005253542033304863
:10FC1A000052535420303848005253542031384847
:10FC2A000052535420323848005253542033384833
:10FC3A000053424320412C4C0041444320412C4C68
:10FC4A000041444420412C4C005055534820484C14
:10FC5A00004A5220432C2564004A52205A2C25641B
:10FC6A0000444A4E5A2C25640043504D4449537E61
:10FC7A0000286E756C6C29003C25643E0A0D0073E1
:10FC8A00647265616400737461747573004C442016
:10FC9A00412C41004C4420422C41004C4420432C2E
:10FCAA0041004C4420442C41004C4420452C410046
:10FCBA004C4420482C41004C44204C2C41004C44DC
:10FCCA0020412C42004C4420422C42004C44204308
:10FCDA002C42004C4420442C42004C4420452C42E7
:10FCEA00004C4420482C42004C44204C2C42004CEE
:10FCFA004420412C43004C4420422C43004C4420D5
:10FD0A00432C43004C4420442C43004C4420452CB3
:10FD1A0043004C4420482C43004C44204C2C4300C4
:10FD2A0044454320424300494E4320424300504F3A
:10FD3A005020424300524554204E43004C44204137
:10FD4A002C44004C4420422C44004C4420432C4474
:10FD5A00004C4420442C44004C4420452C44004C84
:10FD6A004420482C44004C44204C2C44004C442051
:10FD7A00412C45004C4420422C45004C4420432C45
:10FD8A0045004C4420442C45004C4420452C450059
:10FD9A004C4420482C45004C44204C2C45004445FA
:10FDAA004320444500494E4320444500504F5020CB
:10FDBA0044450052455420504500504F502041467A
:10FDCA00004C4420412C48004C4420422C48004C12
:10FDDA004420432C48004C4420442C48004C4420E6
:10FDEA00452C48004C4420482C48004C44204C2CBC
:10FDFA0048004C4420412C4C004C4420422C4C00DE
:10FE0A004C4420432C4C004C4420442C4C004C4481
:10FE1A0020452C4C004C4420482C4C004C44204C8F
:10FE2A002C4C0044454320484C00494E4320484C42
:10FE3A0000504F5020484C0052455420504F004427
:10FE4A00454320535000494E4320535000524554D5
:10FE5A00204E5A002530366C582000202530327842
:10FE6A00006661743A20006275663A20000D2573B7
:10FE7A00200D007265736574005355422041004499
:10FE8A004543204100494E43204100414E44204110
:10FE9A0000584F52204100535542204200444543E6
:10FEAA00204200494E43204200414E44204200581D
:10FEBA004F522042005355422043004445432043B9
:10FECA0000494E43204300414E44204300584F52BC
:10FEDA0020430052455420430053554220440044D5
:10FEEA004543204400494E43204400414E442044A7
:10FEFA0000584F5220440053554220450044454380
:10FF0A00204500494E43204500414E4420450058B3
:10FF1A004F5220450053554220480044454320484B
:10FF2A0000494E43204800414E44204800584F5251
:10FF3A00204800535542204C00444543204C004978
:10FF4A004E43204C00414E44204C00584F52204C06
:10FF5A0000524554204D00524554205000524554F9
:10FF6A00205A004A52202564002530325820005376
:10FF7A00443A20004D4F4E3E007374657000686528
:10FF8A006C700064756D70004350204100524C4300
:10FF9A004100525243410043502042004350204303
:10FFAA00004350204400435020450043502048005D
:10FFBA004350204C0048414C5400303A2F2F000D3A
:10FFCA0025730044414100524C41005252410043C2
:10FFDA004346005343460043504C004E4F50005294
:10FFEA00455400455858003F3F3F00646900444962
:05FFFA00004549000074
:020000040001F9
:100000000CEF88F0250E3F18D8B436D020EE02F061
:100010001E50D9261F50DA22DE50DE10DE10D8B472
:1000200014D020EE02F01E50D9261F50DA2202D83A
:100030000CEF88F00500FA6EDE50FD6EDE50FE6EAD
:10004000DE50FF6EFA503F5012001EC5D9F41FC596
:10005000DAF4DEC424F5DDC425F524C5D9F425C5BC
:10006000DAF43FC5DFF41EC5D9F41FC5DAF4DE2A81
:10007000000EDD220CEF88F0000E3E6E000E3D6E8D
:10008000000E416E000E406E09D0408605D04080C3
:1000900003D0418601D04084204A212A20C5F6F4AD
:1000A00021C5F7F4000EF86E0800F550200AD8B408
:1000B000EED7030AD8B4EDD70E0AD8B4E6D71D0A96
:1000C000D8B4E9D740B6409420C5F6F421C5F7F47A
:1000D000000EF86E0800F5509AECF1F0D8A034D07C
:1000E000000E3E6E000E3D6E3DC508F53EC509F59D
:1000F000000E0B6E0A0E0A6E02ECF1F008C53DF51B
:1001000009C53EF520C5F6F421C5F7F4000EF86EDA
:100110000800F5C424F5D00E2424256E266AFF0EAF
:10012000262225503D2626503E22204A212A20C53F
:10013000F6F421C5F7F4000EF86E0800F5509AECBD
:10014000F1F0D8A022D0D0D720C5F6F421C5F7F41D
:10015000000EF86E0800F5502A0AD8A416D022C561
:10016000D9F423C5DAF4DFC424F5020EDE26DFC499
:1001700025F5000EDD2224C5D9F425C5DAF4DEC448
:100180003DF5DDC43EF5204A212A20C5F6F421C5FF
:10019000F7F4000EF86E0800F5502E0AD8A461D0CE
:1001A000418C204A212A20C5F6F421C5F7F4000E1F
:1001B000F86E0800F5502A0AD8A41ED022C5D9F43A
:1001C00023C5DAF4DFC424F5020EDE26DFC425F5EC
:1001D000000EDD2224C5D9F425C5DAF4DEC43BF5D2
:1001E000DDC43CF53CAE05D0000E3C6E000E3B6E0F
:1001F000419C204A212A9DD1000E3C6E000E3B6E90
:1002000023D03BC508F53CC509F5000E0B6E0A0E60
:100210000A6E02ECF1F008C53BF509C53CF520C5B6
:10022000F6F421C5F7F4000EF86E0800F5C424F5C5
:10023000D00E2424256E266AFF0E262225503B264A
:1002400026503C22204A212A20C5F6F421C5F7F485
:10025000000EF86E0800F5509AECF1F0D8A069D1C4
:10026000D0D7000E3C6E000E3B6E63D1408861D14A
:10027000408C8BD1408A408E88D122C5D9F423C5C9
:10028000DAF4DFC424F5020EDE26DFC425F5000E05
:10029000DD2224C5D9F425C5DAF4DEC433F5DDC486
:1002A00034F533503410D8A404D07B0E336EFC0EDA
:1002B000346E000E366E000E356E02D0354A362A88
:1002C00035503324246E36503420256E24C5F6F480
:1002D00025C5F7F4000EF86E250EF76403D008006C
:1002E000F55005D0F6C4E9F4F7C4EAF4EF5000097C
:1002F000D8A4E4D73B503C10D8B40ED035503B5C6A
:100300003C50800A246E3650800A2458D8B004D05D
:100310003BC535F53CC536F53D50355C3E5036584D
:10032000D8B005D035503D5E36503E5A04D0000E50
:100330003E6E000E3D6E40A634D094D020EE02F00A
:100340001E50D9261F50DA22DE50DE10DE10D8B43F
:1003500013D020EE02F01E50D9261F50DA2201D809
:1003600020D00500FA6EDE50FD6EDE50FE6EDE50CF
:10037000FF6EFA50200E12001EC5D9F41FC5DAF424
:10038000DEC424F5DDC425F524C5D9F425C5DAF489
:10039000200EDF6E1EC5D9F41FC5DAF4DE2A000E6A
:1003A000DD223D06D8A03E063D28C8E13E28D8B44F
:1003B00059D0C4D720EE02F01E50D9261F50DA22A1
:1003C000DE50DE10DE10D8B426D020EE02F01E5033
:1003D000D9261F50DA2201D81BD00500FA6EDE5054
:1003E000FD6EDE50FE6EDE50FF6EFA5033C5F6F441
:1003F00034C5F7F4000EF86E250EF76403D008003C
:10040000F55005D0F6C4E9F4F7C4EAF4EF50120051
:10041000334A342A27D033C5F6F434C5F7F4000E36
:10042000F86E1EC5D9F41FC5DAF4DEC424F5DDC4A8
:1004300025F524C5D9F425C5DAF4250EF76403D0D3
:100440000800F55005D0F6C4E9F4F7C4EAF4EF501B
:10045000DF6E334A342A1EC5D9F41FC5DAF4DE2A0A
:10046000000EDD223506D8A036063528A3E1362851
:10047000D8A4A0D740B635D00CEF88F020EE02F01B
:100480001E50D9261F50DA22DE50DE10DE10D8B4FE
:1004900013D020EE02F01E50D9261F50DA2201D8C8
:1004A00020D00500FA6EDE50FD6EDE50FE6EDE508E
:1004B000FF6EFA50200E12001EC5D9F41FC5DAF4E3
:1004C000DEC424F5DDC425F524C5D9F425C5DAF448
:1004D000200EDF6E1EC5D9F41FC5DAF4DE2A000E29
:1004E000DD223D06D8A03E063D28C8E13E28D8B40E
:1004F0000CEF88F0C3D722C5D9F423C5DAF4DFC4E2
:1005000024F5020EDE26DFC425F5000EDD2224C50B
:10051000D9F425C5DAF4DF503F6E3F0E336E050E79
:10052000346E000E366E010E356EE4D6C00E4012EB
:100530002CD020C5F6F421C5F7F4204A212A000E5C
:10054000F86E0800F5C43FF53F50000AD8B41BEF21
:1005500088F0580AD8B48ED63B0AD8B4CCD7070A4C
:10056000D8B413D00D0AD8B410D0050AD8B47ED6AA
:10057000030AD8B47DD61C0AD8B47FD6060AD8B4EC
:10058000D5D70D0AD8B477D6C8D740C524F5C00E44
:100590002416D8A441D040A819D022C5D9F423C527
:1005A000DAF4DFC424F5040EDE26DFC425F5000EE0
:1005B000DD2224C5D9F425C5DAF4DEC437F5DEC45E
:1005C00038F5DEC439F5DEC43AF519D022C5D9F4C0
:1005D00023C5DAF4DFC424F5020EDE26DFC425F5D8
:1005E000000EDD2224C5D9F425C5DAF4DEC437F5C2
:1005F000DDC438F5000E38BEFF0E396E3A6E3AAEE5
:1006000040D0030E40123A1E391E381E376C000EC1
:10061000382239223A2235D040A819D022C5D9F43F
:1006200023C5DAF4DFC424F5040EDE26DFC425F585
:10063000000EDD2224C5D9F425C5DAF4DEC437F571
:10064000DEC438F5DEC439F5DEC43AF51AD022C569
:10065000D9F423C5DAF4DFC424F5020EDE26DFC4A4
:1006600025F5000EDD2224C5D9F425C5DAF4DEC453
:1006700026F5DDC427F526C537F527C538F5396ACF
:100680003A6A3B503C10D8A46CD03750381039101F
:100690003A10D8A466D03B4A3C2A63D0010E3F6E84
:1006A0000A0E3F18D8B46BD03F50040DF80EF32457
:1006B000F66EE30EF420F76EF86A000EF8220900D9
:1006C000F550375C0900F55038580900F550395895
:1006D0000900F5503A58D8A052D03F2AE1D7010E70
:1006E0003F6E080E3F18D8B44AD03F50040D200E7C
:1006F000F324F66EE40EF420F76EF86A000EF8228A
:100700000900F550375C0900F55038580900F550DC
:1007100039580900F5503A58D8A031D03F2AE1D7CE
:10072000010E3F6E0B0E3F18D8B429D03F50040D78
:10073000CC0EF324F66EE30EF420F76EF86A000E8A
:10074000F8220900F550375C0900F55038580900C7
:10075000F55039580900F5503A58D8A010D03F2A22
:10076000E1D74050C00B000AD8B498D7400AD8B49B
:10077000D7D7C00AD8B4B3D7400AD8B48FD73F5020
:10078000246E256A3B50245C2550800A266E3C501E
:10079000800A2658D8B003D03BC53FF510D03F5053
:1007A000246E256A24503B5C3C50800A266E2550FE
:1007B000800A2658D8B003D03FC53BF53C6A3D506F
:1007C0003E10D8B409D040C524F5030E2416D8B481
:1007D00003D03D06D8A03E0641AC13D03D503B5C53
:1007E0003C50800A246E3E50800A2458D8B005D070
:1007F0003B503D5E3C503E5A04D0000E3E6E000E13
:100800003D6EC40E4014246E080E4114256E400E39
:1008100024180CE1080E2518D8A408D03D503E102D
:10082000D8B422D03D06D8A03E061ED0C00E40143B
:10083000246E080E4114256E800E241815E1080E52
:100840002518D8A411D03EBE0BD03E5004E1030EB3
:100850003D5CD8A005D0FE0E3D26FF0E3E2204D002
:10086000000E3E6E000E3D6E3F50246E256A3D50D8
:10087000245C2550800A266E3E50800A2658D8B047
:1008800005D03F503D5E000E3E5A04D0000E3E6E35
:10089000000E3D6E40A423D140C524F5030E24165E
:1008A000D8B42CD020EE02F01E50D9261F50DA22E8
:1008B000DE50DE10DE10D8B413D020EE02F01E5051
:1008C000D9261F50DA2201D8CFD00500FA6EDE50AB
:1008D000FD6EDE50FE6EDE50FF6EFA502D0E1200E1
:1008E0001EC5D9F41FC5DAF4DEC424F5DDC425F530
:1008F00024C5D9F425C5DAF42D0E2DD040A02DD075
:1009000020EE02F01E50D9261F50DA22DE50DE10F3
:10091000DE10D8B413D020EE02F01E50D9261F509E
:10092000DA2201D8A1D00500FA6EDE50FD6EDE504D
:10093000FE6EDE50FF6EFA50200E12001EC5D9F476
:100940001FC5DAF4DEC424F5DDC425F524C5D9F4C9
:1009500025C5DAF4200EDF6E80D0C00E4014246E60
:10096000080E4114256E800E24187EE1080E25180D
:10097000D8A47AD020EE02F01E50D9261F50DA22D9
:10098000DE50DE10DE10D8B413D020EE02F01E5080
:10099000D9261F50DA2201D820D00500FA6EDE5089
:1009A000FD6EDE50FE6EDE50FF6EFA50300E12000D
:1009B0001EC5D9F41FC5DAF4DEC424F5DDC425F55F
:1009C00024C5D9F425C5DAF4300EDF6E1EC5D9F47E
:1009D0001FC5DAF4DE2A000EDD2220EE02F01E50E2
:1009E000D9261F50DA22DE50DE10DE10D8B41DD01A
:1009F00040BA04D0000E2A6E780E03D0000E2A6E84
:100A0000580E296E20EE02F01E50D9261F50DA2211
:100A100001D82AD00500FA6EDE50FD6EDE50FE6E63
:100A2000DE50FF6EFA502950120040BA04D0000E7A
:100A30002C6E780E03D0000E2C6E580E2B6E1EC539
:100A4000D9F41FC5DAF4DEC424F5DDC425F524C5C8
:100A5000D9F425C5DAF42BC5DFF41EC5D9F41FC5BA
:100A6000DAF4DE2A000EDD223D503E10D8B48AD2E0
:100A700020EE02F01E50D9261F50DA22DE50DE1082
:100A8000DE10D8B413D020EE02F01E50D9261F502D
:100A9000DA2201D820D00500FA6EDE50FD6EDE505D
:100AA000FE6EDE50FF6EFA50300E12001EC5D9F4F5
:100AB0001FC5DAF4DEC424F5DDC425F524C5D9F458
:100AC00025C5DAF4300EDF6E1EC5D9F41FC5DAF481
:100AD000DE2A000EDD223D06D8A03E06C5D73D50D9
:100AE0003E10D8A440B63AD020EE02F01E50D926CF
:100AF0001F50DA22DE50DE10DE10D8B413D020EE04
:100B000002F01E50D9261F50DA2201D820D005004D
:100B1000FA6EDE50FD6EDE50FE6EDE50FF6EFA5055
:100B2000200E12001EC5D9F41FC5DAF4DEC424F568
:100B3000DDC425F524C5D9F425C5DAF4200EDF6E11
:100B40001EC5D9F41FC5DAF4DE2A000EDD223D06EB
:100B5000D8A03E063D503E10D8A4C6D740C524F5C7
:100B6000030E2416D8B42CD020EE02F01E50D92645
:100B70001F50DA22DE50DE10DE10D8B413D020EE83
:100B800002F01E50D9261F50DA2201D84ED005009F
:100B9000FA6EDE50FD6EDE50FE6EDE50FF6EFA50D5
:100BA0002D0E12001EC5D9F41FC5DAF4DEC424F5DB
:100BB000DDC425F524C5D9F425C5DAF42D0E2DD0D4
:100BC00040A033D020EE02F01E50D9261F50DA226A
:100BD000DE50DE10DE10D8B413D020EE02F01E502E
:100BE000D9261F50DA2201D820D00500FA6EDE5037
:100BF000FD6EDE50FE6EDE50FF6EFA50200E1200CB
:100C00001EC5D9F41FC5DAF4DEC424F5DDC425F50C
:100C100024C5D9F425C5DAF4200EDF6E1EC5D9F43B
:100C20001FC5DAF4DE2A000EDD22C00E4014246E49
:100C3000080E4114256E400E241831E1080E2518C7
:100C4000D8A42DD020EE02F01E50D9261F50DA2253
:100C5000DE50DE10DE10D8B413D020EE02F01E50AD
:100C6000D9261F50DA2201D88DD10500FA6EDE5048
:100C7000FD6EDE50FE6EDE50FF6EFA50300E12003A
:100C80001EC5D9F41FC5DAF4DEC424F5DDC425F58C
:100C900024C5D9F425C5DAF4300EDF6E6CD1C00E50
:100CA0004014246E080E4114256E800E241803E1B2
:100CB000080E2518D8A466D120EE02F01E50D926C1
:100CC0001F50DA22DE50DE10DE10D8B413D020EE32
:100CD00002F01E50D9261F50DA2201D820D005007C
:100CE000FA6EDE50FD6EDE50FE6EDE50FF6EFA5084
:100CF000300E12001EC5D9F41FC5DAF4DEC424F587
:100D0000DDC425F524C5D9F425C5DAF4300EDF6E2F
:100D10001EC5D9F41FC5DAF4DE2A000EDD2220EE4E
:100D200002F01E50D9261F50DA22DE50DE10DE10EF
:100D3000D8B41DD040BA04D0000E2E6E780E03D069
:100D4000000E2E6E580E2D6E20EE02F01E50D9268B
:100D50001F50DA2201D816D10500FA6EDE50FD6E62
:100D6000DE50FE6EDE50FF6EFA502D50120040BA7B
:100D700004D0000E306E780E03D0000E306E580E88
:100D80002F6E1EC5D9F41FC5DAF4DEC424F5DDC408
:100D900025F524C5D9F425C5DAF42FC5DFF4EBD049
:100DA0003BC524F53CC525F5D89024362536D8908A
:100DB00024362536F80E2424F66EE30E2520F76E31
:100DC000F86A000EF8220900F5C40CF50900F5C414
:100DD0000DF50900F5C40EF50A00F5C40FF537C589
:100DE00008F538C509F539C50AF53AC50BF50AEC19
:100DF000E6F008C515F509C516F50AC517F50BC5C2
:100E000018F50A0E196E000E1A6E000E1B6E000EFB
:100E10001C6E11ECEAF0155071D037C508F538C5D5
:100E200009F539C50AF53AC50BF53BC524F53CC5AE
:100E300025F5D89024362536D89024362536200E30
:100E40002424F66EE40E2520F76EF86A000EF822D0
:100E50000900F5C40CF50900F5C40DF50900F5C449
:100E60000EF50A00F5C40FF50AECE6F008500F0B7A
:100E7000286E40BA04D0240E316EF60E03D0130E45
:100E8000316EF60E326E28503124246E000E322060
:100E9000256E24C5F6F425C5F7F4000EF86E08009B
:100EA000F5C43FF53CD037C508F538C509F539C557
:100EB0000AF53AC50BF53BC524F53CC525F5D89098
:100EC00024362536D89024362536CC0E2424F66ECA
:100ED000E30E2520F76EF86A000EF8220900F5C42B
:100EE0000CF50900F5C40DF50900F5C40EF50A006E
:100EF000F5C40FF50AECE6F00850070B300F3F6E13
:100F00000ED04050C00B000AD8B44AD7400AD8B41B
:100F1000CAD7C00AD8B481D7400AD8B441D720EE86
:100F200002F01E50D9261F50DA22DE50DE10DE10ED
:100F3000D8B413D020EE02F01E50D9261F50DA226A
:100F400001D820D00500FA6EDE50FD6EDE50FE6E38
:100F5000DE50FF6EFA503F5012001EC5D9F41FC577
:100F6000DAF4DEC424F5DDC425F524C5D9F425C59D
:100F7000DAF43FC5DFF41EC5D9F41FC5DAF4DE2A62
:100F8000000EDD223B06D8A03C063B28BAE13C28F7
:100F9000D8A4B7D740B63EBE3FD03E5003E13D0493
:100FA000D8A03AD020EE02F01E50D9261F50DA22E7
:100FB000DE50DE10DE10D8B413D020EE02F01E504A
:100FC000D9261F50DA2201D820D00500FA6EDE5053
:100FD000FD6EDE50FE6EDE50FF6EFA50200E1200E7
:100FE0001EC5D9F41FC5DAF4DEC424F5DDC425F529
:100FF00024C5D9F425C5DAF4200EDF6E1EC5D9F458
:101000001FC5DAF4DE2A000EDD223D06D8A03E061A
:101010003D503E10D8A4C6D720C5F6F421C5F7F43C
:10102000204A212A000EF86E0800F5C43FF53F5013
:10103000D8A402EF80F0000E1F6E000E1E6E12008C
:1010400083C6D9F484C6DAF4000EDE6E000EDD6EBF
:1010500081C608F582C609F574ECCFF008C58AF69A
:1010600009C58BF606018BAF02D00B0E1200D8908B
:101070008A35D96E8B35DA6E230ED926070EDA2221
:10108000DEC4A5F6DDC4A6F6A551A611D8A402D0EB
:101090000C0E120083C6D9F484C6DAF4A5C6DEF4B9
:1010A000A6C6DDF48591A5C6D9F4A6C6DAF4DF504C
:1010B000D8B415D020EE01F0A551D926A651DA22D8
:1010C000DF504FECECF006019A6F9AB108D08551D1
:1010D000D8A49AA502D00A0E1200000E1200A5C6CE
:1010E000D9F4A6C6DAF4000EDF6E20EE01F0A551A9
:1010F000D926A651DA22DF5092ECC0F006019A6F91
:101100009AA102D0030E12008551D8B402D09AB52C
:10111000E2D7A5C6E8F5A6C6E9F5000E0501EB6F16
:10112000000EEA6F05ECC8F0E8C5A3F6E9C5A4F621
:10113000040E0601A319A411D8A402D0010E1200B6
:10114000A45104E1020EA35DD8A002D00D0E12003E
:1011500020EE2CF0A551D926A651DA22DEC496F64F
:10116000DEC497F6DEC498F6DEC499F63B0EA525DC
:10117000086E000EA621096E61ECEFF0020E091850
:101180000810D8A4E3D7460E0601A525086E000E68
:10119000A621096E61ECEFF008C59FF609C5A0F61F
:1011A0000601A16BA26B9F51A011A111A211D8A49D
:1011B00010D0540EA525086E000EA621096EF9EC7C
:1011C000DEF008C59FF609C5A0F60AC5A1F60BC555
:1011D000A2F6060120EE18F0A551D926A651DA2272
:1011E0009FC6DEF4A0C6DEF4A1C6DEF4A2C6DEF41D
:1011F00020EE40F0A551D926A651DA2210EE03F0D8
:10120000A551E126A651E222DFC4E7F420EE03F067
:10121000A551D926A651DA22DE04D8B40AD020EE90
:1012200003F0A551D926A651DA22020EDE18D8A461
:101230008DD79FC608F5A0C609F5A1C60AF5A2C6B6
:101240000BF520EE03F0A551D926A651DA22DF5086
:101250000501F26FF2510C6E0D6A0E6A0F6A24ECF2
:10126000ECF008C59FF609C5A0F60AC5A1F60BC5A6
:10127000A2F6060120EE3DF0A551D926A651DA22AC
:10128000DF500501F26FF36B060120EE0AF0A55165
:10129000D926A651DA22F2C5DEF4F3C5DDF420EE3C
:1012A0000AF0A551D926A651DA22DE50DE10D8B4B4
:1012B0004DD720EE0AF0A551D926A651DA22DEC478
:1012C000F2F5DDC4F3F520EE0AF0A551D926A651BA
:1012D000DA22DEC4F4F5DDC4F5F5FF0E0501F425D0
:1012E000F66FFF0EF521F76FF251F615F86FF35117
:1012F000F715F96FF851F911D8A428D7410E060156
:10130000A525086E000EA621096E61ECEFF006011E
:1013100020EE08F0A551D926A651DA2208C5DEF440
:1013200009C5DDF420EE08F0A551D926A651DA2230
:10133000DF500501F26F0F0EF217D8A407D7430E46
:101340000601A525086E000EA621096E61ECEFF0DE
:1013500008C592F609C593F60601946B956B9251F8
:10136000931194119511D8A410D0500EA525086E94
:10137000000EA621096EF9ECDEF008C592F609C54B
:1013800093F60AC594F60BC595F63E0E0601A52503
:10139000086E000EA621096E61ECEFF008C590F60C
:1013A00009C591F6060190519111D8B4CFD620EE1F
:1013B00008F0A551D926A651DA22DEC4F2F5DDC423
:1013C000F3F5040E0501F46FD890F333F233F42FE4
:1013D000FBD7060190510501F225F56F06019151E9
:1013E0000501F321F66FF76BD8B0F72BF86B060108
:1013F0009F510501F52506018C6FA0510501F621CD
:1014000006018D6FA1510501F72106018E6FA251D2
:101410000501F82106018F6F8C51925D8D51935912
:101420008E5194598F519559D8A090D68C51925D78
:10143000086E8D519359096E8E5194590A6E8F51D1
:1014400095590B6E20EE0AF0A551D926A651DA2245
:10145000DEC4F2F5DDC4F3F5F2C50CF5F3C50DF508
:101460000E6A0F6A0AECE6F008C59BF609C59CF601
:101470000AC59DF60BC59EF606019B519C119D1158
:101480009E11D8B463D6000EA46F000EA36FF60EA3
:101490009B5DFF0E9C59FF0E9D590F0E9E59D8B0B3
:1014A00004D0000EA46F030EA36F9E519D110AE19C
:1014B000F60E9B5DFF0E9C59D8B004D0000EA46FB1
:1014C000020EA36F9E519D110AE1F60E9B5D0F0E59
:1014D0009C59D8B004D0000EA46F010EA36FA35185
:1014E000A411D8B433D6020E9B250501F26F000E6D
:1014F00006019C210501F36F000E06019D210501E7
:10150000F46F000E06019E210501F56F060120EE25
:1015100014F0A551D926A651DA22F2C5DEF4F3C59E
:10152000DEF4F4C5DEF4F5C5DEF420EE1CF0A551C2
:10153000D926A651DA2296C6DEF497C6DEF498C6FE
:10154000DEF499C6DEF4905196250501F26F06018E
:10155000915197210501F36F000E060198210501B5
:10156000F46F000E060199210501F56F060120EECA
:1015700020F0A551D926A651DA22F2C5DEF4F3C532
:10158000DEF4F4C5DEF4F5C5DEF48C5196250501D4
:10159000F26F06018D5197210501F36F06018E51FF
:1015A00098210501F46F06018F5199210501F56F0E
:1015B000060120EE28F0A551D926A651DA22F2C55F
:1015C000DEF4F3C5DEF4F4C5DEF4F5C5DEF4030E97
:1015D000A319A411D8A44ED05A0EA525086E000E4A
:1015E000A621096E61ECEFF008500910D8A4AED521
:1015F000060120EE08F0A551D926A651DA22DE50C8
:10160000DE10D8A4A3D55C0EA525086E000EA62179
:10161000096EF9ECDEF0060120EE24F0A551D92682
:10162000A651DA2208C5DEF409C5DEF40AC5DEF4E7
:101630000BC5DEF420EE14F0A551D926A651DA220E
:10164000DEC4F2F5DEC4F3F5DEC4F4F5DEC4F5F570
:10165000020ED8900501F237F337F437F537E82E4C
:10166000F8D7F2C586F6F3C587F6F4C588F6F5C552
:1016700089F6AAD020EE08F0A551D926A651DA2283
:10168000DE50DE10D8B462D520EE20F0A551D92668
:10169000A651DA22DEC4F2F5DEC4F3F5DEC4F4F5B9
:1016A000DEC4F5F59F510501F225F66F0601A05144
:1016B0000501F321F76F0601A1510501F421F86F2F
:1016C0000601A2510501F521F96F060120EE24F073
:1016D000A551D926A651DA22F6C5DEF4F7C5DEF407
:1016E000F8C5DEF4F9C5DEF4020EA319A411D8B4CE
:1016F0004CD020EE14F0A551D926A651DA22DEC432
:10170000F2F5DEC4F3F5DEC4F4F5DEC4F5F5010E42
:101710000501F215F66F000EF315F76F000EF415C4
:10172000F86F000EF515F96F060120EE14F0A551C3
:10173000D926A651DA22DEC408F5DEC409F5DEC4D6
:101740000AF5DEC40BF5030E0C6E000E0D6E000ED6
:101750000E6E000E0F6E24ECECF0D8900B320A32B5
:10176000093208320501F65108240601866F050189
:10177000F75109200601876F0501F8510A2006017B
:10178000886F0501F9510B201DD020EE14F0A551F2
:10179000D926A651DA22DEC4F2F5DEC4F3F5DEC4A2
:1017A000F4F5DEC4F5F5D8900501F2350601866F33
:1017B0000501F3350601876F0501F4350601886FD1
:1017C0000501F5350601896FFF0E06018625050125
:1017D000F26F010E060187210501F36F000E06016D
:1017E00088210501F46F000E060189210501F56FBE
:1017F0000A0E05D0D890F533F433F333F233E82EE4
:10180000F9D7060120EE18F0A551D926A651DA2203
:101810000501F251DE5CF351DE58F451DE58F5510A
:10182000DE58D8A093D4060120EE10F0A551D92699
:10183000A651DA22FF0EDE6EFF0EDE6EFF0EDE6EAA
:10184000FF0EDD6EDD52DD5210EE0CF0A551E126EB
:10185000A651E222DEC4E6F4DEC4E6F4DEC4E6F419
:10186000DEC4E6F420EE05F0A551D926A651DA2211
:10187000800EDF6E030EA319A411D8A49CD0600EB5
:10188000A525086E000EA621096E61ECEFF0080494
:101890000910D8A490D0A5C6CFF5A6C6D0F5010EE4
:1018A000060196250501D16F000E0601972105015D
:1018B000D26F000E060198210501D36F000E0601BC
:1018C00099210501D46FC1ECE1F00009D8A473D0CF
:1018D000060120EE05F0A551D926A651DA22000E08
:1018E000DF6E2E0EA525086E020EA621096E61EC94
:1018F000EFF0550E08185FE1AA0E0918D8A45BD0C6
:10190000300E0601A525086E000EA621096EF9EC21
:10191000DEF0520E08184FE1520E09184CE1610E2C
:101920000A1849E1410E0B18D8A445D0140E06013F
:10193000A525086E020EA621096EF9ECDEF0720EE6
:10194000081839E1720E091836E1410E0A1833E120
:10195000610E0B18D8A42FD0180E0601A525086E0D
:10196000020EA621096EF9ECDEF0060120EE10F061
:10197000A551D926A651DA2208C5DEF409C5DEF440
:101980000AC5DEF40BC5DEF41C0EA525086E020E9A
:10199000A621096EF9ECDEF0060120EE0CF0A5514F
:1019A000D926A651DA2208C5DEF409C5DEF40AC537
:1019B000DEF40BC5DEF4A5C6D9F4A6C6DAF4A3C6D8
:1019C000DFF40701214B222B060120EE06F0A55182
:1019D000D926A651DA2221C7DEF422C7DDF46DEF45
:1019E00088F0EDECECF0B5AA1200000E0601CB6F0A
:1019F000000ECA6FCFC4D1F6D0C4D2F6CEBA93D1FE
:101A0000000EC86E74D007012F513011D8B402D027
:101A1000C0687ED0000E56D0EFECF0F03AECE9F062
:101A20000601C56FC5C6C0F473D007012551261144
:101A3000D8B41BD0500E255D0601B36F090E070107
:101A400026590601B46FB4BF06D0B4510EE1800E22
:101A5000B35DD8B00AD025C7D9F426C7DAF4DF5071
:101A6000C06E0701254B262B53D00701B451D8A4D3
:101A700009D0B551D8A406D0B651D8A403D0B751D7
:101A8000D8B446D08A0E0501606FEA0E616FFDC6BC
:101A900062F5636B58C564F5656B45C766F5676BA2
:101AA00027C768F528C769F543C76AF56B6B44C754
:101AB0006CF56D6B28ECEFF02BD0DDC7C0F428D0AF
:101AC00016ECF2F0C06E24D0F50E0501606FEF0E3B
:101AD000616FD1C662F5636BD1C664F5656B28ECA6
:101AE000EFF0000E0701426F010E416F91D7D15107
:101AF000000AD8B488D7010AD8B48ED7090AD8B456
:101B000094D7060AD8B4D9D7AE0AD8B4D9D7DCD777
:101B1000070141514211D8A47CECF1F0C2900001C0
:101B2000D785D795CEA0FED7C8680701415142118D
:101B3000D8A43ED1FBD3D25113ECEDF0394B3A2B64
:101B400027D1070125512611D8B42DD0500E255D7F
:101B50000601B36F090E070126590601B46FB4BF21
:101B600006D0B45120E1800EB35DD8B01CD025C79B
:101B7000D9F426C7DAF4D2C6DFF40701254B262BA9
:101B8000500E255D0601B36F090E070126590601A7
:101B9000B46F800EB319B411D8A4FAD0000ECB6F75
:101BA000010ECA6FF5D00701B451D8A409D0B551C0
:101BB000D8A406D0B651D8A403D0B751D8B4E8D031
:101BC0005D0E0501606FEB0E616FFDC662F5636B24
:101BD00058C564F5656B45C766F5676B27C768F53B
:101BE00028C769F543C76AF56B6B44C76CF56D6B25
:101BF00028ECEFF0CDD0D2C658F5CAD0D2C645F702
:101C0000C7D0000E070127150601B36FFF0E0701AD
:101C100028150601B46FD251B3110701276F0601D1
:101C2000B45114D0D251B46FB36BFF0E0701271516
:101C30000601B56F000E070128150601B66FB351F6
:101C4000B5110701276F0601B451B6110701286FBE
:101C50009FD0D2C6FDF6030EFD19D8A406D0500EB3
:101C60000701256F090E266F04D0000ECB6F010E01
:101C7000CA6F0701B551D8B408D00601FD51D8B4D8
:101C800010D0020EFD19D8B40CD00701B651D8B44B
:101C90007FD00601FD05D8B404D0030EFD19D8A4E9
:101CA00077D00701B751D8B473D0A10E0501606F8A
:101CB000EB0E616FFDC662F5636B58C564F5656B2D
:101CC00045C766F5676B27C768F528C769F543C739
:101CD0006AF56B6B44C76CF56D6B28ECEFF058D070
:101CE000D2C644F755D0D2C643F752D0D251F8EC01
:101CF000EBF04ED0EA0E0501606FEC0E616FD1C6BD
:101D000062F5636BD2C664F5656BD1C666F5676B29
:101D1000D2C668F5696B28ECEFF0000E0701426F40
:101D2000010E416F35D0D151010AD8B404D7090A48
:101D3000D8B407D7020AD8B45ED7010AD8B45ED7A0
:101D4000070AD8B45ED7010AD8B483D7020AD8B438
:101D5000C7D71F0AD8B4C7D7010AD8B463D7050AB2
:101D6000D8B41CD7010AD8B419D7B50AD8B4BED78D
:101D70000A0AD8B413D7010AD8B410D7070AD8B4BE
:101D80000DD7010AD8B40AD7030AD8B407D7B2D7F7
:101D90000601CA51CB11D8A405D007014151421107
:101DA000D8B4C4D2C2900001D785D795CEA0FED7B3
:101DB000000E0501676F010E666F45ECEFF006013E
:101DC000CA51CB11D8B4A0D238D0D2C649F54A6A8C
:101DD0002FECF0F099D2D2C6A1F50501A26B55EC1B
:101DE000DFF092D2AB0ED119D8A402D0010E01D0EF
:101DF000000E05019E6F9F6B15ECF1F085D2AC0EC5
:101E0000D119D8A402D0010E01D0000E0501EF6F48
:101E1000F06B2AECB3F0070137513811D8A407D082
:101E20005CECD1F006016D056E11D8A4F4D718EC66
:101E3000D0F06AD2EDECE7F067D2D151140AD8B4F1
:101E4000C4D7010AD8B4C7D7BF0AD8B4F3D7010A98
:101E5000D8B4C8D7070AD8B4D2D7010AD8B4C2D7E1
:101E6000030AD8B4CCD7000E07013E6F010E3D6FB8
:101E7000000E0601C66F000EC76F000EC86F000E81
:101E8000C96F100E58600CD05850040D540EF32436
:101E9000D96E080EF420DA6EDE50DE10D8A403D01E
:101EA000010E070109D145C708F5096A5850040D0C
:101EB000520EF324D96E080EF420DA6EDEC40AF551
:101EC000DDC40BF502ECF1F007012751082628517B
:101ED0000922FF0E08240601B36FFF0E0920B46F1C
:101EE000B3C6C6F6B4C6C7F6C86BC96B5850040D66
:101EF000540EF324D96E080EF420DA6EDEC4CCF64C
:101F0000DDC4CDF6CCC61DF6CDC61EF6C6C6B3F6EC
:101F1000C7C6B4F6C8C6B5F6C9C6B6F6070ED89099
:101F2000B337B437B537B637E82EF9D7B3C61FF68F
:101F3000B4C620F6B5C621F6B6C622F619EC95F061
:101F4000CE6FCE51D8B40BD0AE0E0501606FF40E3B
:101F5000616FCEC662F5636B28ECEFF0A1D7FD513F
:101F6000D8B404D0020EFD19D8A4A8D0CCC6F4F57C
:101F7000CDC6F5F5500E0501F66F090EF76F000E90
:101F8000F96F800EF86FCF0EFA6F060EFB6F7EECC6
:101F90009BF00601CE6FCE51D8A405D0800ECF198C
:101FA000D011D8B40FD00D0E0501606FF20E616F25
:101FB000CEC662F5636BCFC664F5D0C665F528EC76
:101FC000EFF06ED70701B551D8B42CD0B751D8B4C3
:101FD00029D058C5B3F6010E0601B46F000EB56FD7
:101FE000B32B03D0D890B437B537B32FFBD7070145
:101FF000B8510601B4170701B9510601B517B4511C
:10200000B511D8A40FD0710E05018B6FFE0E8C6F29
:10201000500E8D6F090E8E6F000E906F800E8F6FB9
:1020200005ECE7F00601FD51D8A440D0070143516B
:102030000601B46FB36B5650B56F5750B66FB76BA0
:10204000B86BB6C6B8F6B5C6B7F6B66BB56BB351D6
:10205000B511B96FB451B611BA6F000EB711BB6F9D
:10206000000EB811BC6F070144510601B911BD6FD4
:10207000BA51BE6FBB51BF6FBC51C06FBDC680F5BA
:10208000BEC681F5BFC682F5C0C683F5500E0501F8
:10209000846F090E856F000E876F800E866FBAEC15
:1020A000CCF0000E0701256F000E04D0500E070182
:1020B000256F090E266F000EDD6FC0D0FD05D8B468
:1020C00004D0030EFD19D8A4B7D0FD05D8A43BD089
:1020D000070143510601B46FB36B5650B56F5750AB
:1020E000B66FB76BB86BB6C6B8F6B5C6B7F6B66B13
:1020F000B56BB351B511B96FB451B611BA6F000ECB
:10210000B711BB6F000EB811BC6F07014451060137
:10211000B911C16FBA51C26FBB51C36FBC51C46F0B
:10212000C1C680F5C2C681F5C3C682F5C4C683F5B3
:10213000500E0501846F090E856F000E876F800EAB
:10214000866F48ECD7F00701B651D8B42CD0B75100
:10215000D8B429D058C5B3F6010E0601B46F000EED
:10216000B56FB32B03D0D890B437B537B32FFBD7A7
:102170000701B8510601B4170701B9510601B51797
:10218000B451B511D8A40FD0710E05018B6FFE0E9E
:102190008C6F500E8D6F090E8E6F000E906F800E3B
:1021A0008F6F05ECE7F0CCC61DF6CDC61EF6500EBF
:1021B00006011F6F090E206F000E226F800E216F27
:1021C000CF0E236F060E246F9CEC91F0CE6FCE5194
:1021D000D8A405D0800ECF19D011D8B40FD0ED0EF1
:1021E0000501606FF10E616FCEC662F5636BCFC6FD
:1021F00064F5D0C665F528ECEFF052D6CCC6DAF51A
:10220000CDC6DBF576ECC4F00601CE6FCE51D8B466
:102210000BD01B0E0501606FF50E616FCEC662F527
:10222000636B28ECEFF03CD6000E0701DD6F000E6B
:10223000256F000E266F02D0010EF7D7B551D8B426
:1022400008D00601FD51D8B410D0020EFD19D8B443
:102250000CD00701B651D8B452D00601FD05D8B450
:1022600004D0030EFD19D8A44AD058C5B3F6010E08
:10227000B46F000EB56FB32B03D0D890B437B53719
:10228000B32FFBD70701B8510601B4170701B951A5
:102290000601B517B451B511D8A431D0180E0501F7
:1022A000606FEB0E616FFDC662F5636B58C564F538
:1022B000656B45C766F5676B27C768F528C769F57D
:1022C0005850040D520EF324D96E080EF420DA6E25
:1022D000DEC46AF5DDC46BF5C6C66CF5C7C66DF520
:1022E000C8C66EF5C9C66FF543C770F5716B44C7B4
:1022F00072F5736BDDC774F5756B28ECEFF0000EAB
:1023000007013E6F000E3D6F070141514211D8B4E5
:1023100006D0000E426F000E416FD8ECF1F0000EB7
:102320000501676F000E666F45ECEFF0B59AC2804D
:102330000001D785D79512001FC636F620C637F69E
:1023400023C6D9F424C6DAF4000EDE6E000EDD6E6C
:102350001DC64AF51EC64BF5460E4C6E060E4D6E5A
:10236000DAECDDF00601356F3551D8A40BD020EE44
:102370000FF01D51D9261E51DA22DF50356F35512D
:10238000D8B402D03551120020EE0EF01D51D926DE
:102390001E51DA22DFB202D0070E120020EE10F03A
:1023A0001D51D9261E51DA2210EE10F01D51E126E2
:1023B0001E51E222E6C429F6E6C42AF6E6C42BF64C
:1023C000E6C42CF6215129252D6F22512A212E6F8A
:1023D000000E2B212F6F000E2C21306FDE502D5D53
:1023E000DE502E59DE502F59DE503059D8B00ED065
:1023F00020EE10F01D51D9261E51DA22DEC425F63A
:10240000DDC426F6251D216F261D226F21512211C4
:10241000D8B405D320EE10F01D51D9261E51DA2272
:10242000FF0EDE14256F010EDE14266F000EDE1483
:10243000276F000EDE14286F255126112711281151
:10244000D8A449D220EE10F01D51D9261E51DA220F
:10245000DEC425F6DEC426F6DEC427F6DEC428F682
:102460000A0E05D0D8902833273326332533E82E9B
:10247000F9D720EE0AF04651D9264751DA22DEC4B8
:1024800029F6DDC42AF6FF0E29252B6FFF0E2A211F
:102490002C6F25512B15386F26512C15396F38515B
:1024A0003911D8A49CD020EE10F01D51D9261E5110
:1024B000DA22DE50DE10DE10DE10D8A423D020EEAB
:1024C00006F01D51D9261E51DA22DEC43CF6DEC4C8
:1024D0003DF6DEC43EF6DEC43FF63C513D113E11F2
:1024E0003F11D8A42BD01DC600F61EC601F6000E63
:1024F000026F000E036F000E046F000E056F7FEC7D
:10250000A3F014D01DC600F61EC601F620EE14F08E
:102510001D51D9261E51DA22DEC402F6DEC403F6AE
:10252000DEC404F6DEC405F67FECA3F000C63CF67C
:1025300001C63DF602C63EF603C63FF63C513D11CC
:102540003E113F11D8B46BD23C053D113E113F11F5
:10255000D8A40AD020EE0FF01D51D9261E51DA2240
:10256000020EDF6E020E12003C2911E13D290FE13F
:102570003E290DE13F29D8A40AD020EE0FF01D51CD
:10258000D9261E51DA22010EDF6E010E120020EE56
:1025900014F01D51D9261E51DA223CC6DEF43DC688
:1025A000DEF43EC6DEF43FC6DEF420EE06F01D513A
:1025B000D9261E51DA22DE50DE10DE10DE10D8A43D
:1025C0000ED020EE06F01D51D9261E51DA223CC64F
:1025D000DEF43DC6DEF43EC6DEF43FC6DEF420EE99
:1025E0000EF01D51D9261E51DA22DFAE33D0220E55
:1025F0001D250501B46F000E06011E210501B56FF2
:10260000060120EE18F01D51D9261E51DA22DEC433
:10261000B6F5DEC4B7F5DEC4B8F5DEC4B9F5000E14
:102620000501BB6F010EBA6F060120EE01F04651A5
:10263000D9264751DA22DF5063ECD4F00009D8A440
:1026400039D1060120EE0EF01D51D9261E51DA2295
:102650007F0EDF1646C614F547C615F520EE14F0BA
:102660001D51D9261E51DA22DEC416F5DEC417F537
:10267000DEC418F5DEC419F53DECDEF014C542F6F3
:1026800015C543F616C544F617C545F60601425171
:10269000431144114511D8B45DD7385142273951FF
:1026A0004323000E4423000E452321C625F622C6EF
:1026B00026F6090E276FD89026332533272FFBD710
:1026C00025C63AF626C63BF63A513B11D8B4A7D0F8
:1026D0003A513825256F3B513921266F20EE0AF0FB
:1026E0004651D9264751DA222551DE5C2651DE5863
:1026F000D8B010D020EE0AF04651D9264751DA2240
:10270000DEC425F6DDC426F63851255D3A6F395111
:1027100026593B6F36C6B4F537C6B5F542C6B6F591
:1027200043C6B7F544C6B8F545C6B9F53AC6BAF5D5
:102730003BC6BBF520EE01F04651D9264751DA22BF
:10274000DF5063ECD4F00009D8A4B4D006013A51AC
:10275000256F3B51266F276B286B20EE18F01D511B
:10276000D9261E51DA22DEC429F6DEC42AF6DEC4DA
:102770002BF6DEC42CF64251295D2D6F43512A59A8
:102780002E6F44512B592F6F45512C59306F2551C5
:102790002D5D26512E5927512F5928513059D8B027
:1027A0002FD0220E1D25086E000E1E21096E20EE70
:1027B00018F01D51D9261E51DA22DEC425F6DDC4DB
:1027C00026F64251255F4351265B090ED8902537E6
:1027D0002637E82EFBD7255136250A6E265137219C
:1027E0000B6E020E0D6E000E0C6EA3ECEEF00601E9
:1027F00020EE0EF01D51D9261E51DA227F0EDF1673
:102800003AC625F63BC626F6090ED8902537263758
:10281000E82EFBD725C640F626C641F6ADD020EE01
:1028200018F01D51D9261E51DA224251DE180AE154
:102830004351DE1807E14451DE1804E14551DE182A
:10284000D8B43AD020EE0AF01D51D9261E51DA2212
:1028500010EE10F01D51E1261E51E222DE50E65C22
:10286000DE50E658DE50E658DE50E658D8B024D0A8
:10287000220E1D250501B66F000E06011E21050161
:10288000B76F42C6B8F543C6B9F544C6BAF545C6F2
:10289000BBF5000EBD6F010EBC6F060120EE01F00E
:1028A0004651D9264751DA22DF50F8ECD4F000091E
:1028B000D8B402D0060161D6060120EE18F01D51F1
:1028C000D9261E51DA2242C6DEF443C6DEF444C6DF
:1028D000DEF445C6DEF420EE10F01D51D9261E515F
:1028E000DA22DEC425F6DDC426F6FF0E2515276F95
:1028F000010E2615286F27510008406F2851D8A0D7
:10290000E82A0208416F4051215D41512259D8B057
:1029100004D021C640F622C641F620EE10F01D512B
:10292000D9261E51DA22DEC425F6DDC426F6FF0EB6
:102930002515276F010E2615286F27511D25296F94
:1029400028511E212A6F220E2925086E000E2A21E9
:10295000096E36C60AF537C60BF540C60CF541C6FA
:102960000DF5A3ECEEF0060120EE0EF01D51D92678
:102970001E51DA22000EDB8E4051215F4151225B55
:1029800023C6D9F424C6DAF44051DE264151DD22B3
:10299000405136274151372320EE10F01D51D926E2
:1029A0001E51DA224051DE264151DE22000EDE2287
:1029B000DE2220EE10F01D51D9261E51DA2210EE33
:1029C0000AF01D51E1261E51E222DE50E65CDE5087
:1029D000E658DE50E658DE50E658D8A003D020EE88
:1029E0000AF002D020EE10F01D51D9261E51DA2235
:1029F000DEC431F6DEC432F6DEC433F6DEC434F6AD
:102A000020EE0AF01D51D9261E51DA2231C6DEF41D
:102A100032C6DEF433C6DEF434C6DEF4F7D420EE7C
:102A20000EF01D51D9261E51DA22000EDB8C000E4D
:102A300012001DC64AF51EC64BF5400E4C6E060E22
:102A40004D6EDAECDDF006013B6F3B51D8A408D0A7
:102A500020EE0FF01D51D9261E51DA22DF503B6FB8
:102A60003B51D8B402D03B51120020EE0AF01D5168
:102A7000D9261E51DA221F51DE5C2051DE58215129
:102A8000DE582251DE58D8B016D020EE0EF01D517F
:102A9000D9261E51DA22DFB20ED020EE0AF01D51E7
:102AA000D9261E51DA22DEC41FF6DEC420F6DEC4AB
:102AB00021F6DEC422F620EE10F01D51D9261E515B
:102AC000DA22DEC433F6DEC434F6DEC435F6DEC404
:102AD00036F6000E376F000E386F000E396F000E9D
:102AE0003A6F20EE10F01D51D9261E51DA2237C65A
:102AF000DEF438C6DEF439C6DEF43AC6DEF41F5121
:102B0000201121112211D8B416D220EE0AF0405122
:102B1000D9264151DA22DEC423F6DDC424F623513E
:102B2000256F2451266F276B286B090ED890253707
:102B3000263727372837E82EF9D725C63CF626C68C
:102B40003DF627C63EF628C63FF6335134113511FF
:102B50003611D8B497D0FF0E1F25086EFF0E202126
:102B6000096EFF0E21210A6EFF0E22210B6E3CC65C
:102B70000CF53DC60DF53EC60EF53FC60FF50AEC49
:102B8000E6F008C523F609C524F60AC525F60BC5E7
:102B900026F6FF0E06013325086EFF0E3421096E5E
:102BA000FF0E35210A6EFF0E36210B6E3CC60CF56A
:102BB0003DC60DF53EC60EF53FC60FF50AECE6F034
:102BC00008500601235D095024590A5025590B501D
:102BD0002659D8A057D0FF0E3C25236FFF0E3D216C
:102BE000246FFF0E3E21256FFF0E3F21266F231D10
:102BF000276F241D286F251D296F261D2A6FFF0EA4
:102C000033252B6FFF0E34212C6FFF0E35212D6FD6
:102C1000FF0E36212E6F27512B152F6F28512C15A3
:102C2000306F29512D15316F2A512E15326F20EE3C
:102C300010F01D51D9261E51DA222FC6DEF430C6FF
:102C4000DEF431C6DEF432C6DEF420EE10F01D51A3
:102C5000D9261E51DA22DE501F5FDE50205BDE5087
:102C6000215BDD50225B20EE14F01D51D9261E5150
:102C7000DA22DEC442F6DEC443F6DEC444F6DEC425
:102C800045F669D020EE06F01D51D9261E51DA22F4
:102C9000DEC442F6DEC443F6DEC444F6DEC445F6C6
:102CA0004251431144114511D8A447D01DC600F626
:102CB0001EC601F6000E026F000E036F000E046FB9
:102CC000000E056F7FECA3F000C642F601C643F686
:102CD00002C644F603C645F64205431144114511A8
:102CE000D8A40AD020EE0FF01D51D9261E51DA22A9
:102CF000020EDF6E020E1200422911E143290FE19C
:102D000044290DE14529D8A40AD020EE0FF01D5129
:102D1000D9261E51DA22010EDF6E010E120020EEBE
:102D200006F01D51D9261E51DA2242C6DEF443C6F2
:102D3000DEF444C6DEF445C6DEF420EE14F01D5188
:102D4000D9261E51DA2242C6DEF443C6DEF444C65A
:102D5000DEF445C6DEF44251431144114511D8A4B6
:102D60008AD0E9D03C511F5F3D51205B3E51215B31
:102D70003F51225B20EE10F01D51D9261E51DA2260
:102D80003C51DE263D51DE223E51DE223F51DE2205
:102D900020EE0EF01D51D9261E51DA22DFA225D0D9
:102DA0001DC600F61EC601F642C602F643C603F66D
:102DB00044C604F645C605F67FECA3F000C642F60D
:102DC00001C643F602C644F603C645F64251431116
:102DD00044114511D8A41FD0000E1F6F000E206FA4
:102DE000000E216F000E226F50D01DC6DAF51EC6F0
:102DF000DBF542C6DCF543C6DDF544C6DEF545C667
:102E0000DFF5E4ECB4F0DAC542F6DBC543F6DCC529
:102E100044F6DDC545F60601422907E1432905E1EF
:102E2000442903E14529D8B470D7455144114311D1
:102E300004E1020E425DD8A055D720EE14F04051B7
:102E4000D9264151DA22DE50425DDE504359DE5030
:102E50004459DE504559D8B045D720EE14F01D51E5
:102E6000D9261E51DA2242C6DEF443C6DEF444C639
:102E7000DEF445C6DEF41F513C5D20513D59215121
:102E80003E5922513F59D8A06DD720EE10F01D5168
:102E9000D9261E51DA221F51DE262051DE22215171
:102EA000DE222251DE22FF0E1F15236F010E201598
:102EB000246F000E2115256F000E2215266F235159
:102EC000241125112611D8B436D040C614F541C6B8
:102ED00015F542C616F543C617F544C618F545C69E
:102EE00019F53DECDEF014C537F615C538F616C5F4
:102EF00039F617C53AF606013751381139113A112A
:102F0000D8B4F0D61FC623F620C624F621C625F66F
:102F100022C626F60A0E05D0D89026332533243350
:102F20002333E82EF9D7235137272451382325514D
:102F3000392326513A2320EE10F01D51D9261E5177
:102F4000DA2210EE0AF01D51E1261E51E222DE5077
:102F5000E65CDE50E658DE50E658DE50E658D8B063
:102F60001CD020EE10F01D51D9261E51DA2210EE91
:102F70000AF01D51E1261E51E222DEC4E6F4DEC451
:102F8000E6F4DEC4E6F4DEC4E6F420EE0EF01D51F5
:102F9000D9261E51DA22000EDB8C20EE10F01D51D6
:102FA000D9261E51DA22FF0EDE14236F010EDE1425
:102FB000246F000EDE14256F000EDE14266F2351E1
:102FC000241125112611D8B44ED520EE18F01D512C
:102FD000D9261E51DA223751DE180AE13851DE189F
:102FE00007E13951DE1804E13A51DE18D8B43BD577
:102FF00020EE0EF01D51D9261E51DA22DFAE33D05D
:10300000220E1D250501B46F000E06011E210501CB
:10301000B56F060120EE18F01D51D9261E51DA2297
:10302000DEC4B6F5DEC4B7F5DEC4B8F5DEC4B9F566
:10303000000E0501BB6F010EBA6F060120EE01F014
:103040004051D9264151DA22DF5063ECD4F0000917
:10305000D8A42BD0060120EE0EF01D51D9261E510A
:10306000DA227F0EDF16220E1D250501B66F000E37
:1030700006011E210501B76F37C6B8F538C6B9F588
:1030800039C6BAF53AC6BBF5000EBD6F010EBC6F6E
:10309000060120EE01F04051D9264151DA22DF50DD
:1030A000F8ECD4F00009D8B402D006012ED60601FF
:1030B00020EE18F01D51D9261E51DA2237C6DEF453
:1030C00038C6DEF439C6DEF43AC6DEF4CCD4A751F5
:1030D000A811D8A402D0090E12003F0EAB17A90EFA
:1030E000816F060E826FCC0E836F060E846FABC6A7
:1030F00085F620EC88F00601CE6FCE51D8A4F0D230
:10310000CCC6CFF6CDC6D0F6CF0E3B6F060E3C6FC9
:10311000A9C63DF6AAC63EF6DFECC8F0CE6FCE518A
:10312000D8B4F6AF02D0060ECE6FABC6ACF61C0E0E
:10313000AC17D8B4ECD0CE51D8B40DD0040ECE1903
:10314000D8A407D0CF0E3F6F060E406F11ECDDF014
:10315000CE6FAB870CD0D3C6ACF6110EAC17D8B47B
:1031600002D0070E03D0ABA502D0080ECE6FCE5111
:10317000D8B4ABA7D8D0E1ECF1F008C5B8F609C5D2
:10318000B9F60AC5BAF60BC5BBF60E0E0601E9255F
:10319000086E000EEA21096EB8C60AF5B9C60BF52D
:1031A000BAC60CF5BBC60DF570ECE9F0160E0601BB
:1031B000E925086E000EEA21096EB8C60AF5B9C6FF
:1031C0000BF5BAC60CF5BBC60DF570ECE9F0CCC634
:1031D0000FF5CDC610F5E9C611F5EAC612F540ECBB
:1031E000E7F00FC5BCF610C5BDF611C5BEF612C599
:1031F000BFF6060120EE0BF0E951D926EA51DA229A
:10320000200EDF6ECCC60CF5CDC60DF5E9C60EF569
:10321000EAC60FF5000E106E000E116E000E126E53
:10322000000E136EE6ECEEF01C0E0601E925086EAA
:10323000000EEA21096E000E0A6E000E0B6E000EE3
:103240000C6E000E0D6E70ECE9F0060120EE04F03D
:10325000CC51D926CD51DA22010EDF6EBC51BD1101
:10326000BE11BF11D8B45FD020EE2CF0CC51D926BE
:10327000CD51DA22DEC4C0F6DEC4C1F6DEC4C2F629
:10328000DEC4C3F6CF0E006F060E016FBCC602F699
:10329000BDC603F6BEC604F6BFC605F6000E066F31
:1032A000000E076F000E086F000E096F26ECC7F0C6
:1032B000CE6FCE51D8A437D0CCC6CFF5CDC6D0F581
:1032C000C0C6D1F5C1C6D2F5C2C6D3F5C3C6D4F5C2
:1032D000C1ECE1F00601CE6FFF0EBC25AC6FFF0E16
:1032E000BD21AD6FFF0EBE21AE6FFF0EBF21AF6FD0
:1032F00020EE0CF0CC51D926CD51DA22ACC6DEF44A
:10330000ADC6DEF4AEC6DEF4AFC6DEF40CD0CE51F0
:10331000D8A409D0D3A902D0040E04D0ABB3D3A152
:1033200002D0070ECE6FCE51D8A420D0ABB7AB8D54
:1033300020EE2CF0CC51D926CD51DA2210EE1CF023
:10334000A751E126A851E222DEC4E6F4DEC4E6F489
:10335000DEC4E6F4DEC4E6F420EE20F0A751D92660
:10336000A851DA22E9C6DEF4EAC6DDF4CE51D8A4CB
:10337000B7D1CCC60FF5CDC610F5E9C611F5EAC632
:1033800012F540ECE7F0060120EE06F0A751D92631
:10339000A851DA220FC5DEF410C5DEF411C5DEF443
:1033A00012C5DEF41C0EE925086E000EEA21096E36
:1033B000F9ECDEF0060120EE0AF0A751D926A8515B
:1033C000DA2208C5DEF409C5DEF40AC5DEF40BC551
:1033D000DEF4A7C6D9F4A8C6DAF4CCC6DEF4CDC6AE
:1033E000DDF420EE06F0CC51D926CD51DA2210EED4
:1033F00002F0A751E126A851E222DEC4E6F4DDC4C2
:10340000E5F420EE0EF0A751D926A851DA22ABC67A
:10341000DFF420EE0FF0A751D926A851DA22000ED2
:10342000DF6E20EE18F0A751D926A851DA22DE6A05
:10343000DE6ADE6ADD6A20EE10F0A751D926A851B7
:10344000DA22DE6ADE6ADE6ADD6A220EA725086EEF
:10345000000EA821096E000E0B6E000E0A6E020E01
:103460000D6E000E0C6E74ECF0F00601ABAB38D1B3
:1034700020EE0AF0A751D926A851DA22DE50DE103C
:10348000DE10DE10D8B42CD120EE0AF0A751D926D8
:10349000A851DA2210EE10F0A751E126A851E2223D
:1034A000DEC4E6F4DEC4E6F4DEC4E6F4DEC4E6F42C
:1034B00020EE0AF0CC51D926CD51DA22DEC4ACF68A
:1034C000DDC4ADF6AC51AE6FAD51AF6FB06BB16B4B
:1034D000090ED890AE37AF37B037B137E82EF9D7ED
:1034E000AEC6B4F6AFC6B5F6B0C6B6F6B1C6B7F658
:1034F00020EE06F0A751D926A851DA22DEC4C8F67C
:10350000DEC4C9F6DEC4CAF6DEC4CBF620EE0AF08D
:10351000A751D926A851DA22DEC4C4F6DEC4C5F606
:10352000DEC4C6F6DEC4C7F634D0A7C6DAF5A8C630
:10353000DBF5C8C6DCF5C9C6DDF5CAC6DEF5CBC607
:10354000DFF5E4ECB4F0DAC5C8F6DBC5C9F6DCC5D6
:10355000CAF6DDC5CBF60601CB51CA11C91106E189
:10356000020EC85DD8B002D0020ECE6FC82909E1A4
:10357000C92907E1CA2905E1CB29D8A402D0010E47
:10358000CE6FB451C45FB551C55BB651C65BB75180
:10359000C75BCE51D8A40AD0C451B45DC551B5594A
:1035A000C651B659C751B759D8A0BFD720EE14F0AD
:1035B000A751D926A851DA22C8C6DEF4C9C6DEF45E
:1035C000CAC6DEF4CBC6DEF4CE51D8A489D0FF0E35
:1035D000C415AC6F010EC515AD6F000EC615AE6FEC
:1035E000000EC715AF6FAC51AD11AE11AF11D8B40D
:1035F00077D0CCC614F5CDC615F5C8C616F5C9C624
:1036000017F5CAC618F5CBC619F53DECDEF014C5A2
:10361000C0F615C5C1F616C5C2F617C5C3F6060134
:10362000C051C111C211C311D8A402D0020E57D08B
:10363000C4C6ACF6C5C6ADF6C6C6AEF6C7C6AFF6CE
:103640000A0E05D0D890AF33AE33AD33AC33E82E8D
:10365000F9D7C051AC25B06FC151AD21B16FC25186
:10366000AE21B26FC351AF21B36F20EE18F0A75156
:10367000D926A851DA22B0C6DEF4B1C6DEF4B2C64D
:10368000DEF4B3C6DEF4220EA7250501B66F000EE8
:103690000601A8210501B76F060120EE18F0A75119
:1036A000D926A851DA22DEC4B8F5DEC4B9F5DEC4E5
:1036B000BAF5DEC4BBF5000E0501BD6F010EBC6F8F
:1036C000060120EE01F0CC51D926CD51DA22DF508F
:1036D000F8ECD4F00009D8B403D0010E0601CE6F87
:1036E0000601CE51D8B408D0A7C6D9F4A8C6DAF4DA
:1036F000000EDE6E000EDD6ECE511200F6C515F620
:10370000F7C516F6FAC5D9F4FBC5DAF4000EDE6E7D
:10371000000EDD6EF4C54AF5F5C54BF5210E4C6E75
:10372000060E4D6EDAECDDF00601106F1051D8A4D4
:103730000DD0050120EE0FF0F451D926F551DA2213
:10374000DF500601106F1051D8B402D01051120092
:10375000050120EE0EF0F451D926F551DA22DFB042
:1037600002D0070E120020EE10F0F451D926F551C8
:10377000DA22DEC400F6DEC401F6DEC402F6DEC4E0
:1037800003F620EE0AF0F451D926F551DA22DEC410
:1037900004F6DEC405F6DEC406F6DEC407F606014E
:1037A0000051045D0C6F015105590D6F025106590E
:1037B0000E6F035107590F6F0501F8510601006F95
:1037C0000501F9510601016F026B036B00510C5D9D
:1037D00001510D5902510E5903510F59D8B004D05F
:1037E0000CC6F8F50DC6F9F50501F851F911D8B474
:1037F00098D220EE10F0F451D926F551DA22FF0EBE
:10380000DE140601006F010EDE14016F000EDE14DF
:10381000026F000EDE14036F00510111021103113B
:10382000D8A408D2050120EE10F0F451D926F551A4
:10383000DA22DEC400F6DEC401F6DEC402F6DEC41F
:1038400003F60A0E06D00601D89003330233013383
:103850000033E82EF8D720EE0AF02151D926225164
:10386000DA22DEC404F6DDC405F6FF0E0425066F79
:10387000FF0E0521076F00510615176F015107153F
:10388000186F17511811D8A46FD0050120EE10F051
:10389000F451D926F551DA22DE50DE10DE10DE10AA
:1038A000D8A40FD020EE06F0F451D926F551DA2233
:1038B000DEC411F6DEC412F6DEC413F6DEC414F65E
:1038C0001CD0F4C5DAF5F5C5DBF520EE14F0F451A3
:1038D000D926F551DA22DEC4DCF5DEC4DDF5DEC41E
:1038E000DEF5DEC4DFF5E4ECB4F0DAC511F6DBC5D5
:1038F00012F6DCC513F6DDC514F6060114511311DA
:1039000012110FE1020E115DD8B00BD0050120EEAF
:103910000FF0F451D926F551DA22020EDF6E020EB5
:103920001200112912E1122910E113290EE11429C4
:10393000D8A40BD0050120EE0FF0F451D926F55193
:10394000DA22010EDF6E010E1200050120EE14F0E6
:10395000F451D926F551DA2211C6DEF412C6DEF48E
:1039600013C6DEF414C6DEF421C614F522C615F51E
:10397000050120EE14F0F451D926F551DA22DEC407
:1039800016F5DEC417F5DEC418F5DEC419F53DECF6
:10399000DEF014C51DF615C51EF616C51FF617C5B3
:1039A00020F606011D511E111F112011D8B4AED7EB
:1039B00017511D2718511E23000E1F23000E202310
:1039C000F8C500F6F9C501F6090E026FD89001336B
:1039D0000033022FFBD700C619F601C61AF619519B
:1039E0001A11D8B4ADD019511725006F1A511821EA
:1039F000016F20EE0AF02151D9262251DA2200511E
:103A0000DE5C0151DE58D8B010D020EE0AF0215112
:103A1000D9262251DA22DEC400F6DDC401F61751A0
:103A2000005D196F185101591A6F15C6B6F516C603
:103A3000B7F51DC6B8F51EC6B9F51FC6BAF520C63E
:103A4000BBF519C6BCF51AC6BDF520EE01F0215133
:103A5000D9262251DA22DF50F8ECD4F00009D8A49C
:103A600069D7050120EE0EF0F451D926F551DA227E
:103A7000DFAE56D006011951006F1A51016F026B6B
:103A8000036B050120EE18F0F451D926F551DA2226
:103A9000DEC404F6DEC405F6DEC406F6DEC407F6B0
:103AA00006011D51045D086F1E510559096F1F5114
:103AB00006590A6F205107590B6F0051085D0151DB
:103AC000095902510A5903510B59D8B029D005019F
:103AD00020EE18F0F451D926F551DA22DEC400F6B2
:103AE000DDC401F606011D51005F1E51015B090E88
:103AF000D89000370137E82EFBD700511525086E06
:103B000001511621096E220E0501F4250A6E000EE0
:103B1000F5210B6E020E0D6E000E0C6EA3ECEEF096
:103B200019C600F61AC601F6090ED890060100372C
:103B30000137E82EFAD700C61BF601C61CF6CCD01A
:103B4000050120EE18F0F451D926F551DA220601CC
:103B50001D51DE180AE11E51DE1807E11F51DE1863
:103B600004E12051DE18D8B456D0050120EE0EF045
:103B7000F451D926F551DA22DFAE2ED0220EF425EB
:103B8000B46F000EF521B56F20EE18F0F451D92670
:103B9000F551DA22DEC4B6F5DEC4B7F5DEC4B8F5F9
:103BA000DEC4B9F5000EBB6F010EBA6F060120EE40
:103BB00001F02151D9262251DA22DF5063ECD4F0F2
:103BC0000009D8A4B7D6050120EE0EF0F451D9268D
:103BD000F551DA227F0EDF16220EF425B66F000EA5
:103BE000F521B76F1DC6B8F51EC6B9F51FC6BAF5E3
:103BF00020C6BBF5000EBD6F010EBC6F060120EEA6
:103C000001F02151D9262251DA22DF50F8ECD4F00C
:103C10000009D8A48FD6050120EE18F0F451D9265A
:103C2000F551DA221DC6DEF41EC6DEF41FC6DEF430
:103C300020C6DEF4050120EE10F0F451D926F5512E
:103C4000DA22DEC400F6DDC401F6FF0E060100151F
:103C5000026F010E0115036F025100081B6F035123
:103C6000D8A0E82A02081C6F1B510501F85D060167
:103C70001C510501F959D8B004D0F8C51BF6F9C597
:103C80001CF615C608F516C609F520EE10F0F4511D
:103C9000D926F551DA22DEC400F6DDC401F6FF0EA6
:103CA00006010015026F010E0115036F0251050197
:103CB000F4250601046F03510501F5210601056F86
:103CC000220E04250A6E000E05210B6E1BC60CF594
:103CD0001CC60DF5A3ECEEF006011B510501F85FC3
:103CE00006011C510501F95BFAC5D9F4FBC5DAF4EC
:103CF00006011B51DE261C51DD221B5115271C51CC
:103D00001623050120EE10F0F451D926F551DA22E0
:103D100006011B51DE261C51DE22000EDE22DE22B1
:103D200063D5000E12006BECE2F059C6D9F45AC606
:103D3000DAF4DE50DE10D8B40FD059C6D9F45AC622
:103D4000DAF4DEC45BF6DDC45CF65BC6D9F45CC6AF
:103D5000DAF4DF50D8A4C3D0000E0601646F000E61
