:0400000081EF00F09C
:10000800DB79DB79DB79DB794000DB794000DB7970
:10001800DB79DB79DB79DB79DB79DB79DB79DB7938
:10002800DB79400040004000DB79DB79DB79DB7964
:10003800DB79DB79DB79DB79DB79DB79DB79DB7918
:10004800DB79DB79DB79DB7940004000DB79DB7930
:10005800DB79DB79DB794000DB79DB79DB79DB790C
:10006800DB79DB79DB79DB79DB79DB79DB79DB79E8
:10007800DB79DB79DB79DB7940009B4EDB79DB7957
:10008800DB79DB79DB79DB79DB79DB79DB79DB79C8
:10009800DB79DB79DB79DB794000DB7940004000F4
:1000A800DB79DB79DB79DB79DB79DB79DB79DB79A8
:1000B800DB79DB79DB79DB79DB79DB79DB79DB7998
:1000C800DB79DB79DB79DB79DB79DB79DB79DB7988
:1000D800DB79DB79DB79DB79DB79DB79DB79DB7978
:1000E8004000DB79DB79DB794000400040004000CC
:1000F800DB79DB79DB79DB79FF00F1EFD8F00DC62E
:1001080011F60EC612F611C6D9F412C6DAF40FC6E5
:10011800DFF4114B122B11C6D9F412C6DAF410C64B
:10012800DFF4114B122B120036C764F837C765F895
:1001380064C834F765C835F762ECFFF064C84CF85A
:1001480065C84DF8000E4F6F010E4E6FFDECF1F0D3
:10015800120000CCD9F401CCDAF402CCDFF4004B65
:10016800012B03CC02FC036B00CCD9F401CCDAF4EC
:1001780002CCDFF4004B012B12000C01006F0C01C4
:100188000051D8B402D0020E12000801AE2907E1CE
:10019800AF2905E1B02903E1B129D8B4F4D7000E9D
:1001A800120006010D510F03F3C411F6F4C412F640
:1001B8000D511003F35012270E510F03F35012275D
:1001C80011C60DF612C60EF612000DC6D9F40EC6EB
:1001D800DAF40FC6DFF40D4B0E2B10C60FF6106BBA
:1001E8000DC6D9F40EC6DAF40FC6DFF40D4B0E2B8C
:1001F80012000C01256923CC14FC24CC15FC250E17
:10020800166F0C0E176F000E196F010E186F90EC19
:10021800EEF00C012551120000510203F3C404FC56
:10022800F4C405FC00510303F350052701510203F0
:10023800F350052704CC00FC05CC01FC12000C018E
:10024800256923CC14FC24CC15FC250E166F0C0E46
:10025800176F000E196F010E186F34ECEFF00C01D8
:10026800255112000D6F06010D51D8B402D0020EAF
:1002780012000801AE2907E1AF2905E1B02903E121
:10028800B129D8B4F4D7000E12000701346918C692
:1002980025F719C626F7340E276F070E286F000EAC
:1002A8002A6F010E296F44ECEDF00701345112005A
:1002B80006010F6F000E06010E6F3A0E0F6105D092
:1002C8002F0E0F6502D0010E0E6F0EC60DF60D3102
:1002D8001200026F000E0C01016F3A0E026105D088
:1002E8002F0E026502D0010E016F01CC00FC003117
:1002F80012000F6F000E06010E6F5B0E0F6105D026
:10030800400E0F6502D0010E0E6F0EC60DF60D31B0
:1003180012000C0120EE02F00051D9260151DA2218
:10032800DEC400FCDDC401FC1200060120EE02F070
:100338000D51D9260E51DA22DEC40DF6DDC40EF6B3
:10034800120006010D6F7B0E06010D6104D0600ED0
:100358000D6501D00D9B0D511200D7AE02D0D6EF1E
:1003680001F00C01006FB7A2FED700CCC9F2120051
:10037800000E0C01006F000E016F210E026F000EBF
:10038800036F120002510311D8A402D0C2841200D4
:10039800C29412000F511011D8A402D0C2841200C6
:1003A800C294120006010D6FB7A2FED70DC6C9F29E
:1003B800120004012095C284CA94120004012095F9
:1003C800C284CA941200FFFF7CFFFF01008305CF9F
:0803D8004B093E09FFFFFFFF86
:10ED020000010000000800000040000000000200B6
:10ED1200000010000000800000000004000000203D
:10ED22000000000001000000080000004001000097
:10ED3200000A00000064000000E803000010270041
:10ED420000A086010040420F008096980000E1F585
:10ED52000500CA9A3B62D7F8014374FE0063A4FA25
:10ED62000064E4F702788BFF027280FE005381FF99
:10ED7200017393FC006886FF000100000010000090
:10ED8200000001000000100000000001000000105F
:10ED9200000000000100000010819FE0FC407E8026
:10EDA200FC000010000000E8FF020114F800026DF0
:10EDB200FB000334FD0004B0FE0005AAFE01060EAE
:10EDC200F9000795FF000871F90009FDF9000A7BB7
:10EDD200F9000B2DFD000CCEFE000DC8FE010E6BDE
:10EDE200FA000F9AFF011075FC02112CF80012D5DF
:10EDF200F90013B2FD0014F2FE0015ECFE01161923
:10EE0200F90017D4FF011870FF00191BFA001A85C8
:10EE1200F9001BABFD001C10FF001D0AFF011E754F
:10EE2200FA001FD8FF012019FB022144F802226DCB
:10EE3200F7002337FE00242EFF002528FF01262499
:10EE4200F90027D0FF01286DFC002957FA022A0B8E
:10EE5200F7002B30FE002C4CFF002D46FF012E7FC9
:10EE6200FA002FE4FF013010FB02315CF80232A3FA
:10EE7200F7003353FE0034D1FA0035C8FA013627C1
:10EE8200F70037E0FF013865FC003961FA023A9673
:10EE9200F7003B4CFE003C92FE003D8CFE013E031F
:10EEA200F9003FDCFF0040D2FC004103FD0042506C
:10EEB200FD004381FD0044D5FD004506FE00469954
:10EEC200F90047A1FC0048D9FC00490AFD004A5755
:10EED200FD004B88FD004CDCFD004D0DFE004EA3F5
:10EEE200F9004FA8FC0050E0FC005111FD00525EF9
:10EEF200FD00538FFD0054E3FD005514FE0056AD96
:10EF0200F90057AFFC0058E7FC005918FD005A659C
:10EF1200FD005B96FD005CEAFD005D1BFE005EB736
:10EF2200F9005FB6FC0060EEFC00611FFD00626C40
:10EF3200FD00639DFD0064F1FD006522FE0066C1D7
:10EF4200F90067BDFC0068F5FC006926FD006A73E4
:10EF5200FD006BA4FD006CF8FD006D29FE006ECB78
:10EF6200F9006FC4FC0070E9F90071F3F90072074F
:10EF7200FA007311FA007425FA00754DFA0076BD95
:10EF8200FF0077DFF90078CBFC0079FCFC007A49BE
:10EF9200FD007B7AFD007CCEFD007DFFFD007E8FB3
:10EFA200F9007F9AFC008085FB00819DFB0082BDF9
:10EFB200FB0083D5FB0084FDFB008555FC0086F831
:10EFC200F8008765FB00887DFB008995FB008AB508
:10EFD200FB008BCDFB008CF5FB008D4DFC008EED14
:10EFE200F8008F5DFB0090A4FE0091C2FE0092E645
:10EFF200FE009304FF009422FF009540FF0096BF9D
:10F00200FA009786FE009875FB00998DFB009AAD79
:10F01200FB009BC5FB009CEDFB009D45FC009EE2B6
:10F02200F8009F55FB00A0B6FE00A1D4FE00A2F896
:10F03200FE00A316FF00A434FF00A552FF00A6DACB
:10F04200FA00A798FE00A8BCFE00A9DAFE00AAFEFC
:10F05200FE00AB1CFF00AC3AFF00AD58FF00AEE370
:10F06200FA00AF9EFE00B0BDFE00B1DBFE00B2FFB3
:10F07200FE00B31DFF00B43BFF00B559FF00B6E42C
:10F08200FA00B79FFE00B89FFF00B9A4FF00BAA91B
:10F09200FF00BBAEFF00BCB3FF00BDB8FF00BE4522
:10F0A200FB00BF90FF00C05AFE00C13BFD02C268D8
:10F0B200F802C3F5FA02C45FF700C5A5FB01C60852
:10F0C200F800C705FC00C86AFF00C9ECFF02CA5B72
:10F0D200F900CB000002CCD7F702CD2FF901CEFC0C
:10F0E200F700CF25FC00D042FD00D1B9FD02D220AD
:10F0F200F801D319F702D435F700D5DDFB01D62F7D
:10F10200FA00D70DFC00D8E0FE00D9F0FF02DA3A8F
:10F11200F901DB89F702DCCAF700DD000001DEF04D
:10F12200F700DF2DFC00E045FE00E13EFE02E2506A
:10F13200F800E366F902E451F700E55DFC01E63907
:10F14200FA00E715FC00E8C0FD00E94DFB02EA38D1
:10F15200F800EBFEFA02EC43F700ED000001EE438B
:10F16200FA00EF35FC00F064FF00F1C7FD02F25037
:10F17200F900F3F8FF02F4BDF700F5E5FB01F644F0
:10F18200FA00F71DFC00F85EFF00F907FB02FA45E2
:10F19200F900FBFBFF02FCB0F700FD000001FEECF2
:10F1A200FA00FF3DFCF0000000C3BF0000000000B9
:10F1B200000000000000000000000000000000004D
:10F1C200000000000000000000000000000000003D
:10F1D200000000000000000000000000000000002D
:10F1E200000000000000000000000000000000001D
:10F1F200000000000000000000000000000000000D
:10F2020000000000000000000000000000000000FC
:10F2120000000000000000000000000000000000EC
:10F22200000000000000000000424F4F543A2065E9
:10F2320072726F7220626F6F74696E670D0A00439B
:10F24200502F4D20322E3220626F6F742D6C6F6101
:10F2520064657220666F72205A38302D53696D755D
:10F262006C61746F720D0A002196007ED30123B780
:10F27200C2C200010100210000AFD30A78D30B798A
:10F28200D30C7DD30F7CD310AFD30DDB0EB7CA00E6
:10F2920000C630D3013E0DD3013E0AD301218000C6
:10F2A2007EB7CA0201D30123C3F700F37600000040
:10F2B200000000000000000000000000000000004C
:10F2C200000000000000000000000000000000003C
:10F2D200000000000000000000000000000000002C
:10F2E200000000000000000000000000000000001C
:10F2F200000000000000000000000000000000000C
:10F3020000000000000000000000000000000000FB
:10F31200000000ED739100319100F5C5D5E5DDE502
:10F32200FDE5D3AAFDE1DDE1E1D1C1F1ED7B910083
:10F33200ED45000000000000000000000000000099
:10F342000000000000000000ED733300313300F5CF
:10F35200C5D5E5DDE5FDE5D3ACFDE1DDE1E1D1C1FA
:10F36200F1ED7B3300ED4D000000000000000000D5
:10F3720000000000005741524E494E473A206E6F3E
:10F38200204750494F20657870616E646572207421
:10F392006F20636F6E74726F6C2068696768657244
:10F3A20020616464726573730A0D005741524E49BD
:10F3B2004E473A20746F6F206D616E792062616EE4
:10F3C2006B73207265717565737465642E20287283
:10F3D200657175657374206973202564290A0D00AF
:10F3E200496D6167652066696C652025732F4452FB
:10F3F20049564525632E44534B206973206173732C
:10F4020069676E656420746F206472697665202571
:10F41200630A0D005741524E494E473A20756E6BB2
:10F422006E6F776E20492F4F2077726974652025A1
:10F43200642C202564202825303258482C20253081
:10F44200325848290A0D005741524E494E473A2038
:10F45200756E6B6E6F776E20492F4F2072656164F7
:10F4620020256420282530325848290A0D0053757A
:10F472007065724D455A38302B5350492077697464
:10F4820068204750494F20657870616E6465720A42
:10F492000D004552524F523A2062616E6B20256434
:10F4A200206973206E6F7420617661696C61626C91
:10F4B200652E0A0D004D656D6F7279203030303047
:10F4C2003030202D202530366C5848202564204BC2
:10F4D20042204F4B0D0A000A0D526573657420627B
:10F4E2007920494F20706F72742025303258480AB3
:10F4F2000D00436C65617220627265616B706F69A9
:10F502006E7420617420253034580A0D00466169FA
:10F512006C656420746F206F70656E2053442043C5
:10F522006172642E2E0A0D004661696C6564207456
:10F532006F206D6F756E7420534420436172642E88
:10F542000A0D000A0D48414C5420627920494F208F
:10F55200706F72742025303258480A0D000A4D65CA
:10F562006D6F7279206572726F722061742025301E
:10F57200366C58480A0D0053657420627265616BDF
:10F58200706F696E7420617420253034580A0D0042
:10F592005354415455533A2025632563256325630B
:10F5A2002563256325632563002020202020202059
:10F5B2002020202020202020202020202020202049
:10F5C2000D007761697420666F722070726F6772C6
:10F5D200616D6D6572202E2E2E0D0025732535333B
:10F5E2007320434845434B53554D3A2025303278DA
:10F5F2000A0D00427265616B706F696E74206973E7
:10F60200206E6F74207365740A0D004D656D6F7204
:10F612007920303030303030202D202530366C5873
:10F62200480D00756E6B6E6F776E20636F6D6D6146
:10F632006E643A2025730A0D00427265616B706F29
:10F64200696E7420697320253034580A0D00665F94
:10F65200777269746528293A204552524F520A0D31
:10F6620000665F6C7365656B28293A204552524FDC
:10F67200520A0D00665F7265616428293A2045527C
:10F68200524F520A0D0025732069732073656C6511
:10F69200637465642E0A0D003031323334353637E7
:10F6A20038394142434445460030313233343536ED
:10F6B200373839616263646566004D4D553A2062A0
:10F6C200616E6B2025303258202000427265616BDA
:10F6D20020617420253034580A0D004E6F20626F6D
:10F6E2006F74206469736B2E0A0D002A2B2C3A3B2F
:10F6F2003C3D3E5B5D7C223F7F0025732F44524997
:10F70200564525632E44534B004C4420484C2C282C
:10F71200253034584829004F555420282530325876
:10F7220048292C41004C442028484C292C253032B1
:10F7320058480043414C4C204E432C253034584805
:10F742000043414C4C2050452C253034584800434E
:10F75200414C4C20504F2C25303458480043414CEA
:10F762004C204E5A2C2530345848004C4420282531
:10F7720030345848292C484C004E6F2053442043C3
:10F782006172643F0A0D00494E20412C2825303217
:10F79200584829004C4420412C2825303458482907
:10F7A200004C4420282530345848292C410043413C
:10F7B2004C4C204D2C25303458480043414C4C20B1
:10F7C200502C25303458480043414C4C20582C25AD
:10F7D200303458480043414C4C205A2C2530345880
:10F7E2004800646973617373656D626C65005342AE
:10F7F2004320412C25303258480041444320412CBB
:10F8020025303258480041444420412C253032589A
:10F8120048004C442042432C2530345848004A507A
:10F82200204E432C2530345848004C442044452C6B
:10F832002530345848004A502050452C2530345841
:10F8420048004C4420484C2C2530345848004A503B
:10F8520020504F2C2530345848004C442053502C13
:10F862002530345848004A50204E5A2C25303458FE
:10F87200480070726F6772616D3A0A0D0049593A19
:10F8820020253034580A0D0042433A20253034589E
:10F8920020200050433A202530345820200044458F
:10F8A2003A202530345820200041463A2025303471
:10F8B20058202000484C3A2025303458202000534C
:10F8C200503A202530345820200049583A2025301B
:10F8D2003458202000627265616B706F696E74002B
:10F8E20053424320412C28484C29004144432041A3
:10F8F2002C28484C290041444420412C28484C29BA
:10F90200004C4420412C2530325848004C442042BF
:10F912002C2530325848004C4420442C2530325893
:10F9220048004C4420482C25303258480043414C72
:10F932004C202530345848004A5020432C2530347E
:10F942005848004A50204D2C2530345848004A501F
:10F9520020502C2530345848004A50205A2C25304B
:10F9620034584800455820285350292C484C00450B
:10F97200582041462C414627004C4420412C284225
:10F982004329004C4420412C28444529004C442062
:10F99200412C28484C29004C4420422C28484C2910
:10F9A200004C4420432C28484C29004C4420442C31
:10F9B20028484C29004C4420452C28484C29004C0E
:10F9C2004420482C28484C29004C44204C2C2848E0
:10F9D2004C29004C4420284445292C41004C442009
:10F9E20028484C292C41004C442028484C292C42C0
:10F9F200004C442028484C292C43004144442048D0
:10FA02004C2C4243004C442028484C292C44004CA6
:10FA1200442028484C292C450041444420484C2C81
:10FA22004445004C442028484C292C480053554258
:10FA320020253032584800414E4420253032584863
:10FA420000584F52202530325848004C4420284854
:10FA52004C292C4C0041444420484C2C484C004139
:10FA6200444420484C2C5350004C4420432C253015
:10FA72003258004C4420452C25303258004C44204A
:10FA82004C2C253032580025732530366C783A00DC
:10FA9200464154333220202000737461636B3A0A6A
:10FAA2000D00636F6E74696E7565002077726974FC
:10FAB200653A20007665726966793A2000535542AC
:10FAC2002028484C29004445432028484C29004915
:10FAD2004E432028484C2900414E442028484C29B6
:10FAE20000584F522028484C2900435020253032DC
:10FAF2005848004A50202530345848004558204480
:10FB0200452C484C004C442053502C484C004A523F
:10FB1200204E432C2564004A52204E5A2C25640064
:10FB220025643A2025730A0D0053656C6563743AA7
:10FB3200200043504D4449534B5300257325303424
:10FB4200783A0043502028484C29004A502028483F
:10FB52004C290053424320412C410041444320415F
:10FB62002C410041444420412C41004C442042435A
:10FB72002C410053424320412C4200414443204146
:10FB82002C420041444420412C4200534243204134
:10FB92002C430041444320412C4300414444204132
:10FBA2002C430050555348204243005342432041C6
:10FBB2002C440041444320412C4400414444204110
:10FBC2002C440053424320412C45004144432041F0
:10FBD2002C450041444420412C45005055534820B7
:10FBE200444500505553482041460053424320416A
:10FBF2002C480041444320412C48004144442041C8
:10FC02002C48005253542030304800525354203173
:10FC1200304800525354203230480052535420335B
:10FC22003048005253542030384800525354203147
:10FC3200384800525354203238480052535420332B
:10FC420038480053424320412C4C00414443204158
:10FC52002C4C0041444420412C4C00505553482028
:10FC6200484C004A5220432C2564004A52205A2C08
:10FC7200256400444A4E5A2C25640043504D4449A1
:10FC8200537E00286E756C6C29003C25643E0A0D7B
:10FC920000737461747573004C4420412C41004C14
:10FCA2004420422C41004C4420432C41004C44202F
:10FCB200442C41004C4420452C41004C4420482C0B
:10FCC20041004C44204C2C41004C4420412C420029
:10FCD2004C4420422C42004C4420432C42004C44D1
:10FCE20020442C42004C4420452C42004C442048E5
:10FCF2002C42004C44204C2C42004C4420412C43CA
:10FD0200004C4420422C43004C4420432C43004CE2
:10FD12004420442C43004C4420452C43004C4420B6
:10FD2200482C43004C44204C2C4300444543204281
:10FD32004300494E4320424300504F50204243006B
:10FD4200524554204E43004C4420412C44004C4424
:10FD520020422C44004C4420432C44004C44204478
:10FD62002C44004C4420452C44004C4420482C4454
:10FD7200004C44204C2C44004C4420412C45004C67
:10FD82004420422C45004C4420432C45004C442046
:10FD9200442C45004C4420452C45004C4420482C22
:10FDA20045004C44204C2C4500444543204445002A
:10FDB200494E4320444500504F502044450052458F
:10FDC2005420504500504F50204146004C442041A1
:10FDD2002C48004C4420422C48004C4420432C48E0
:10FDE200004C4420442C48004C4420452C48004CF4
:10FDF2004420482C48004C44204C2C48004C4420C1
:10FE0200412C4C004C4420422C4C004C4420432CAE
:10FE12004C004C4420442C4C004C4420452C4C00BB
:10FE22004C4420482C4C004C44204C2C4C00444563
:10FE32004320484C00494E4320484C00504F50202C
:10FE4200484C0052455420504F00444543205350E3
:10FE520000494E4320535000524554204E5A00252B
:10FE620030366C5820002025303278000D25732062
:10FE72000D00636C656172000D2573257300726558
:10FE820073657400535542204100444543204100AC
:10FE9200494E43204100414E44204100584F5220D8
:10FEA2004100535542204200444543204200494EFE
:10FEB20043204200414E44204200584F522042000B
:10FEC200535542204300444543204300494E4320BA
:10FED2004300414E44204300584F522043005245B4
:10FEE20054204300535542204400444543204400DB
:10FEF200494E43204400414E44204400584F522072
:10FF02004400535542204500444543204500494E94
:10FF120043204500414E44204500584F52204500A1
:10FF2200535542204800444543204800494E43204F
:10FF32004800414E44204800584F52204800535533
:10FF420042204C00444543204C00494E43204C0083
:10FF5200414E44204C00584F52204C0052455420F0
:10FF62004D00524554205000524554205A004A52E6
:10FF7200202564002530325820004D4F4E3E00733C
:10FF82007465700068656C700064756D7000435034
:10FF9200204100524C434100525243410043502001
:10FFA2004200435020430043502044004350204528
:10FFB2000043502048004350204C0048414C54001C
:10FFC20025640A0D00303A2F2F000D25730044419D
:10FFD2004100524C410052524100434346005343B8
:10FFE200460043504C004E4F500052455400455875
:0DFFF20058003F3F3F0044490045490000D2
:020000040001F9
:100000008EEF88F0250E6319D8B438D0070120EEA2
:1000100002F02451D9262551DA22DE50DE10DE10FE
:10002000D8B415D020EE02F02451D9262551DA2279
:1000300002D88EEF88F00500FA6EDE50FD6EDE50BD
:10004000FE6EDE50FF6EFA5008016351120024C7A5
:10005000D9F425C7DAF4DEC42AF7DDC42BF72AC7A2
:10006000D9F42BC7DAF463C8DFF424C7D9F425C761
:10007000DAF4DE2A000EDD228EEF88F0000E626FC9
:10008000000E616F000E656F000E646F0ED00801E8
:10009000648708D00801648105D00801658702D013
:1000A000080164850701264B272B26C7F6F427C7CE
:1000B000F7F4000EF86E0800F550200AD8B4EAD71D
:1000C000030AD8B4EAD70E0AD8B4E1D71D0AD8B4C7
:1000D000E7D7080164B7649526C7F6F427C7F7F495
:1000E000000EF86E0800F5505CEC01F0D8A03BD093
:1000F000000E0801626F000E616F61C80DF662C8E4
:100100000EF6000E0601106F0A0E0F6FD5EC00F010
:100110000DC661F80EC662F826C7F6F427C7F7F4D5
:10012000000EF86E0800F5C42AF7D00E07012A2544
:100130002B6F2C6BFF0E2C232B510801612707011D
:100140002C51080162230701264B272B26C7F6F402
:1001500027C7F7F4000EF86E0800F5505CEC01F0CC
:10016000D8A023D0CAD726C7F6F427C7F7F4000EC5
:10017000F86E0800F5502A0AD8A417D028C7D9F479
:1001800029C7DAF4DFC42AF7020EDE26DFC42BF714
:10019000000EDD222AC7D9F42BC7DAF4DEC461F8D9
:1001A000DDC462F80701264B272B26C7F6F427C7C4
:1001B000F7F4000EF86E0800F5502E0AD8A46BD0A4
:1001C0000801658D0701264B272B26C7F6F427C7A4
:1001D000F7F4000EF86E0800F5502A0AD8A420D0D3
:1001E00028C7D9F429C7DAF4DFC42AF7020EDE26BD
:1001F000DFC42BF7000EDD222AC7D9F42BC7DAF4AF
:10020000DEC45FF8DDC460F8080160AF05D0000E01
:10021000606F000E5F6F659D0701264B272BB4D1E1
:10022000000E0801606F000E5F6F28D05FC80DF6EA
:1002300060C80EF6000E106F0A0E0F6FD5EC00F0BE
:100240000DC65FF80EC660F826C7F6F427C7F7F4A8
:10025000000EF86E0800F5C42AF7D00E07012A2513
:100260002B6F2C6BFF0E2C232B5108015F270701EE
:100270002C51080160230701264B272B26C7F6F4D3
:1002800027C7F7F4000EF86E0800F5505CEC01F09B
:10029000D8A07AD1CBD7000E0801606F000E5F6F37
:1002A00073D1648971D1648D9DD1648B648F9AD12F
:1002B00028C7D9F429C7DAF4DFC42AF7020EDE26EC
:1002C000DFC42BF7000EDD222AC7D9F42BC7DAF4DE
:1002D000DEC457F8DDC458F857515811D8A404D0DB
:1002E000850E576FFC0E586F000E5A6F000E596F37
:1002F00003D00801594B5A2B5951572507012A6F32
:1003000008015A51582107012B6F2AC7F6F42BC751
:10031000F7F4000EF86E250EF76403D00800F550D0
:1003200005D0F6C4E9F4F7C4EAF4EF500009D8A404
:10033000E0D708015F516011D8B411D059515F5D09
:100340006051800A07012A6F08015A51800A07018B
:100350002A59D8B004D05FC859F860C85AF80801C3
:100360006151595D62515A59D8B005D05951615FF8
:100370005A51625B04D0000E626F000E616F64A779
:1003800035D099D0070120EE02F02451D92625510D
:10039000DA22DE50DE10DE10D8B413D020EE02F0E8
:1003A0002451D9262551DA2201D820D00500FA6E31
:1003B000DE50FD6EDE50FE6EDE50FF6EFA50200EF7
:1003C000120024C7D9F425C7DAF4DEC42AF7DDC445
:1003D0002BF72AC7D9F42BC7DAF4200EDF6E24C717
:1003E000D9F425C7DAF4DE2A000EDD220801610700
:1003F000D8A062076129C6E16229D8B45CD0C2D70F
:10040000070120EE02F02451D9262551DA22DE50D0
:10041000DE10DE10D8B427D020EE02F02451D92609
:100420002551DA2201D81BD00500FA6EDE50FD6E90
:10043000DE50FE6EDE50FF6EFA5057C8F6F458C814
:10044000F7F4000EF86E250EF76403D00800F5509F
:1004500005D0F6C4E9F4F7C4EAF4EF50120008013D
:10046000574B582B28D057C8F6F458C8F7F4000E4D
:10047000F86E24C7D9F425C7DAF4DEC42AF7DDC440
:100480002BF72AC7D9F42BC7DAF4250EF76403D06B
:100490000800F55005D0F6C4E9F4F7C4EAF4EF50CB
:1004A000DF6E0801574B582B24C7D9F425C7DAF45F
:1004B000DE2A000EDD225907D8A05A075929A0E1EB
:1004C0005A29D8A49DD764B736D08EEF88F007019B
:1004D00020EE02F02451D9262551DA22DE50DE101A
:1004E000DE10D8B413D020EE02F02451D9262551C5
:1004F000DA2201D820D00500FA6EDE50FD6EDE5003
:10050000FE6EDE50FF6EFA50200E120024C7D9F4A2
:1005100025C7DAF4DEC42AF7DDC42BF72AC7D9F4DD
:100520002BC7DAF4200EDF6E24C7D9F425C7DAF41E
:10053000DE2A000EDD2208016107D8A062076129CA
:10054000C6E16229D8B48EEF88F0C1D728C7D9F4A4
:1005500029C7DAF4DFC42AF7020EDE26DFC42BF740
:10056000000EDD222AC7D9F42BC7DAF4DF50636FFF
:10057000630E576F080E586F000E5A6F010E596FB9
:10058000D8D6C00E64132ED026C7F6F427C7F7F4CA
:100590000701264B272B000EF86E0800F5C463F800
:1005A00008016351000AD8B49FEF88F0580AD8B404
:1005B0007CD63B0AD8B4CAD7070AD8B413D00D0AE0
:1005C000D8B410D0050AD8B46CD6030AD8B46BD608
:1005D0001C0AD8B46DD6060AD8B4D3D70D0AD8B43D
:1005E00065D6C6D764C82AF7C00E07012A17D8A453
:1005F00042D0080164A919D028C7D9F429C7DAF470
:10060000DFC42AF7040EDE26DFC42BF7000EDD223E
:100610002AC7D9F42BC7DAF4DEC45BF8DEC45CF871
:10062000DEC45DF8DEC45EF819D028C7D9F429C746
:10063000DAF4DFC42AF7020EDE26DFC42BF7000E41
:10064000DD222AC7D9F42BC7DAF4DEC45BF8DDC497
:100650005CF8000E5CBFFF0E5D6F5E6F5EAF41D059
:10066000030E64135E1F5D1F5C1F5B6D000E5C2339
:100670005D235E2336D0080164A919D028C7D9F4B8
:1006800029C7DAF4DFC42AF7040EDE26DFC42BF70D
:10069000000EDD222AC7D9F42BC7DAF4DEC45BF8DA
:1006A000DEC45CF8DEC45DF8DEC45EF81AD028C78C
:1006B000D9F429C7DAF4DFC42AF7020EDE26DFC434
:1006C0002BF7000EDD222AC7D9F42BC7DAF4DEC4DB
:1006D0002CF7DDC42DF72CC75BF82DC75CF85D6BDC
:1006E0005E6B5F516011D8A46CD05B515C115D11E1
:1006F0005E11D8A466D05F4B602B63D0010E636F90
:100700000A0E6319D8B46BD06351040D2F0EF32475
:10071000F66EED0EF420F76EF86A000EF82209006E
:10072000F5505B5D0900F5505C590900F5505D59C5
:100730000900F5505E59D8A052D0632BE1D7010EC5
:10074000636F080E6319D8B44AD06351040D7B0E51
:10075000F324F66EED0EF420F76EF86A000EF82220
:100760000900F5505B5D0900F5505C590900F55032
:100770005D590900F5505E59D8A031D0632BE1D7FF
:10078000010E636F0B0E6319D8B429D06351040DA9
:10079000030EF324F66EED0EF420F76EF86A000EE9
:1007A000F8220900F5505B5D0900F5505C5909001D
:1007B000F5505D590900F5505E59D8A010D0632B53
:1007C000E1D76451C00B000AD8B498D7400AD8B416
:1007D000D7D7C00AD8B4B3D7400AD8B48FD763519B
:1007E00007012A6F2B6B08015F5107012A5D2B510E
:1007F000800A2C6F08016051800A07012C59D8B07B
:1008000003D05FC863F815D00801635107012A6F50
:100810002B6B2A5108015F5D6051800A07012C6F24
:100820002B51800A2C59D8B004D063C85FF8080156
:10083000606B080161516211D8B40BD064C82AF70B
:10084000030E07012A17D8B404D008016107D8A005
:100850006207080165AD18D061515F5D6051800A83
:1008600007012A6F08016251800A07012A59D8B08E
:1008700006D008015F51615F6051625B05D0000ED8
:100880000801626F000E616FC40E641507012A6FC4
:10089000080E0801651507012B6F400E2A190DE19E
:1008A000080E2B19D8A409D0080161516211D8B4DF
:1008B00027D06107D8A0620723D0C00E08016415B5
:1008C00007012A6F080E0801651507012B6F800EBE
:1008D0002A1916E1080E2B19D8A412D0080162BFFC
:1008E0000BD0625104E1030E615DD8A005D0FE0E6D
:1008F0006127FF0E622304D0000E626F000E616F4D
:100900000801635107012A6F2B6B08016151070130
:100910002A5D2B51800A2C6F08016251800A070161
:100920002C59D8B006D008016351615F000E625B9C
:1009300005D0000E0801626F000E616F64A531D111
:1009400064C82AF7030E07012A17D8B42CD020EE6A
:1009500002F02451D9262551DA22DE50DE10DE10B5
:10096000D8B413D020EE02F02451D9262551DA2232
:1009700001D8D9D00500FA6EDE50FD6EDE50FE6E55
:10098000DE50FF6EFA502D0E120024C7D9F425C791
:10099000DAF4DEC42AF7DDC42BF72AC7D9F42BC753
:1009A000DAF42D0E2FD0080164A12ED0070120EE1D
:1009B00002F02451D9262551DA22DE50DE10DE1055
:1009C000D8B413D020EE02F02451D9262551DA22D2
:1009D00001D8A9D00500FA6EDE50FD6EDE50FE6E25
:1009E000DE50FF6EFA50200E120024C7D9F425C73E
:1009F000DAF4DEC42AF7DDC42BF72AC7D9F42BC7F3
:100A0000DAF4200EDF6E88D0C00E641507012A6F5D
:100A1000080E0801651507012B6F800E2A1903E1E6
:100A2000080E2B19D8A47FD020EE02F02451D9262D
:100A30002551DA22DE50DE10DE10D8B413D020EEBD
:100A400002F02451D9262551DA2201D820D0050000
:100A5000FA6EDE50FD6EDE50FE6EDE50FF6EFA5016
:100A6000300E120024C7D9F425C7DAF4DEC42AF701
:100A7000DDC42BF72AC7D9F42BC7DAF4300EDF6EAA
:100A800024C7D9F425C7DAF4DE2A000EDD220701D7
:100A900020EE02F02451D9262551DA22DE50DE1054
:100AA000DE10D8B420D0080164BB04D0000E4E6F15
:100AB000780E03D0000E4E6F580E4D6F070120EEDA
:100AC00002F02451D9262551DA2201D82CD0050074
:100AD000FA6EDE50FD6EDE50FE6EDE50FF6EFA5096
:100AE00008014D511200080164BB04D0000E506F84
:100AF000780E03D0000E506F580E4F6F24C7D9F4F4
:100B000025C7DAF4DEC42AF7DDC42BF72AC7D9F4E7
:100B10002BC7DAF44FC8DFF424C7D9F425C7DAF4B9
:100B2000DE2A000EDD22080161516211D8B4A9D27B
:100B3000070120EE02F02451D9262551DA22DE5099
:100B4000DE10DE10D8B413D020EE02F02451D926E6
:100B50002551DA2201D820D00500FA6EDE50FD6E54
:100B6000DE50FE6EDE50FF6EFA50300E120024C7CB
:100B7000D9F425C7DAF4DEC42AF7DDC42BF72AC777
:100B8000D9F42BC7DAF4300EDF6E24C7D9F425C7A9
:100B9000DAF4DE2A000EDD2208016107D8A0620720
:100BA000C3D761516211D8A464B73CD0070120EECD
:100BB00002F02451D9262551DA22DE50DE10DE1053
:100BC000D8B413D020EE02F02451D9262551DA22D0
:100BD00001D820D00500FA6EDE50FD6EDE50FE6EAC
:100BE000DE50FF6EFA50200E120024C7D9F425C73C
:100BF000DAF4DEC42AF7DDC42BF72AC7D9F42BC7F1
:100C0000DAF4200EDF6E24C7D9F425C7DAF4DE2A21
:100C1000000EDD2208016107D8A062076151621150
:100C2000D8A4C4D764C82AF7030E07012A17D8B47A
:100C30002CD020EE02F02451D9262551DA22DE50A4
:100C4000DE10DE10D8B413D020EE02F02451D926E5
:100C50002551DA2201D850D00500FA6EDE50FD6E23
:100C6000DE50FE6EDE50FF6EFA502D0E120024C7CD
:100C7000D9F425C7DAF4DEC42AF7DDC42BF72AC776
:100C8000D9F42BC7DAF42D0E2FD0080164A134D08B
:100C9000070120EE02F02451D9262551DA22DE5038
:100CA000DE10DE10D8B413D020EE02F02451D92685
:100CB0002551DA2201D820D00500FA6EDE50FD6EF3
:100CC000DE50FE6EDE50FF6EFA50200E120024C77A
:100CD000D9F425C7DAF4DEC42AF7DDC42BF72AC716
:100CE000D9F42BC7DAF4200EDF6E24C7D9F425C758
:100CF000DAF4DE2A000EDD22C00E080164150701B9
:100D00002A6F080E0801651507012B6F400E2A197E
:100D100031E1080E2B19D8A42DD020EE02F0245179
:100D2000D9262551DA22DE50DE10DE10D8B413D0D9
:100D300020EE02F02451D9262551DA2201D8A1D182
:100D40000500FA6EDE50FD6EDE50FE6EDE50FF6E68
:100D5000FA50300E120024C7D9F425C7DAF4DEC4E5
:100D60002AF7DDC42BF72AC7D9F42BC7DAF4300EE3
:100D7000DF6E80D1C00E0801641507012A6F080ECE
:100D80000801651507012B6F800E2A1903E1080E73
:100D90002B19D8A476D120EE02F02451D926255162
:100DA000DA22DE50DE10DE10D8B413D020EE02F0CE
:100DB0002451D9262551DA2201D820D00500FA6E17
:100DC000DE50FD6EDE50FE6EDE50FF6EFA50300ECD
:100DD000120024C7D9F425C7DAF4DEC42AF7DDC42B
:100DE0002BF72AC7D9F42BC7DAF4300EDF6E24C7ED
:100DF000D9F425C7DAF4DE2A000EDD22070120EE41
:100E000002F02451D9262551DA22DE50DE10DE1000
:100E1000D8B420D0080164BB04D0000E526F780E05
:100E200003D0000E526F580E516F070120EE02F0F2
:100E30002451D9262551DA2201D823D10500FA6E92
:100E4000DE50FD6EDE50FE6EDE50FF6EFA50080181
:100E500051511200080164BB04D0000E546F780E8B
:100E600003D0000E546F580E536F24C7D9F425C712
:100E7000DAF4DEC42AF7DDC42BF72AC7D9F42BC76E
:100E8000DAF453C8DFF4F6D05FC82AF760C82BF74E
:100E90000701D8902A372B37D8902A372B372F0EB7
:100EA0002A25F66EED0E2B21F76EF86A000EF82259
:100EB0000900F5C411F60900F5C412F60900F5C4DD
:100EC00013F60A00F5C414F65BC80DF65CC80EF6FE
:100ED0005DC80FF65EC810F6FEECF3F00DC61BF70A
:100EE0000EC61CF70FC61DF710C61EF70A0E070127
:100EF0001F6F000E206F000E216F000E226F38EC66
:100F0000F9F01B5177D05BC80DF65CC80EF65DC8D2
:100F10000FF65EC810F65FC82AF760C82BF7070106
:100F2000D8902A372B37D8902A372B377B0E2A2593
:100F3000F66EED0E2B21F76EF86A000EF82209000E
:100F4000F5C411F60900F5C412F60900F5C413F64C
:100F50000A00F5C414F6FEECF3F00D510F0B080176
:100F60004C6F64BB04D0AB0E556FF60E03D09A0ED7
:100F7000556FF60E566F4C51552507012A6F000E1E
:100F80000801562107012B6F2AC7F6F42BC7F7F487
:100F9000000EF86E0800F5C463F83ED05BC80DF68D
:100FA0005CC80EF65DC80FF65EC810F65FC82AF77B
:100FB00060C82BF70701D8902A372B37D8902A37EB
:100FC0002B37030E2A25F66EED0E2B21F76EF86AED
:100FD000000EF8220900F5C411F60900F5C412F656
:100FE0000900F5C413F60A00F5C414F6FEECF3F09C
:100FF0000D51070B300F0801636F0ED06451C00B09
:10100000000AD8B441D7400AD8B4C8D7C00AD8B467
:101010007AD7400AD8B438D7070120EE02F024511D
:10102000D9262551DA22DE50DE10DE10D8B414D0D5
:1010300020EE02F02451D9262551DA2201D821D000
:101040000500FA6EDE50FD6EDE50FE6EDE50FF6E65
:10105000FA5008016351120024C7D9F425C7DAF405
:10106000DEC42AF7DDC42BF72AC7D9F42BC7DAF47C
:1010700063C8DFF424C7D9F425C7DAF4DE2A000EEA
:10108000DD2208015F07D8A060075F29B7E160296A
:10109000D8A4B4D764B762BF41D0625103E16105FF
:1010A000D8A03CD0070120EE02F02451D9262551CA
:1010B000DA22DE50DE10DE10D8B413D020EE02F0BB
:1010C0002451D9262551DA2201D820D00500FA6E04
:1010D000DE50FD6EDE50FE6EDE50FF6EFA50200ECA
:1010E000120024C7D9F425C7DAF4DEC42AF7DDC418
:1010F0002BF72AC7D9F42BC7DAF4200EDF6E24C7EA
:10110000D9F425C7DAF4DE2A000EDD2208016107D2
:10111000D8A0620761516211D8A4C4D726C7F6F4DB
:1011200027C7F7F40701264B272B000EF86E08009F
:10113000F5C463F808016351D8A402EF80F0000EF3
:101140000701256F000E246F1200BFEF90F0250EEF
:101150003719D8B436D020EE02F01651D9261751DF
:10116000DA22DE50DE10DE10D8B414D020EE02F009
:101170001651D9261751DA2202D8BFEF90F0050098
:10118000FA6EDE50FD6EDE50FE6EDE50FF6EFA50DF
:101190003751120016CCD9F417CCDAF4DEC41CFC9B
:1011A000DDC41DFC1CCCD9F41DCCDAF437CCDFF443
:1011B00016CCD9F417CCDAF4DE2A000EDD22BFEF0C
:1011C00090F0000E366F000E356F000E396F000E76
:1011D000386F09D0388705D0388103D0398701D0DE
:1011E0003885184B192B18CCF6F419CCF7F4000EEF
:1011F000F86E0800F550200AD8B4EED7030AD8B428
:10120000EDD70E0AD8B4E6D71D0AD8B4E9D738B757
:10121000389518CCF6F419CCF7F4000EF86E0800E7
:10122000F5506DEC01F0D8A034D0000E366F000EF2
:10123000356F35CC00FC36CC01FC000E036F0A0E76
:10124000026F10EC01F000CC35FC01CC36FC18CC60
:10125000F6F419CCF7F4000EF86E0800F5C41CFC87
:10126000D00E1C251D6F1E6BFF0E1E231D51352732
:101270001E513623184B192B18CCF6F419CCF7F461
:10128000000EF86E0800F5506DEC01F0D8A022D0E9
:10129000D0D718CCF6F419CCF7F4000EF86E08008D
:1012A000F5502A0AD8A416D01ACCD9F41BCCDAF4FB
:1012B000DFC41CFC020EDE26DFC41DFC000EDD2296
:1012C0001CCCD9F41DCCDAF4DEC435FCDDC436FC0C
:1012D000184B192B18CCF6F419CCF7F4000EF86E55
:1012E0000800F5502E0AD8A461D0398D184B192B5F
:1012F00018CCF6F419CCF7F4000EF86E0800F5508F
:101300002A0AD8A41ED01ACCD9F41BCCDAF4DFC434
:101310001CFC020EDE26DFC41DFC000EDD221CCCF0
:10132000D9F41DCCDAF4DEC433FCDDC434FC34AFB4
:1013300005D0000E346F000E336F399D184B192BFA
:10134000A3D1000E346F000E336F23D033CC00FCDA
:1013500034CC01FC000E036F0A0E026F10EC01F09A
:1013600000CC33FC01CC34FC18CCF6F419CCF7F4E7
:10137000000EF86E0800F5C41CFCD00E1C251D6F75
:101380001E6BFF0E1E231D5133271E513423184B95
:10139000192B18CCF6F419CCF7F4000EF86E0800EF
:1013A000F5506DEC01F0D8A06FD1D0D7000E346F9E
:1013B000000E336F69D1388967D1388D91D1388B60
:1013C000388F8ED11ACCD9F41BCCDAF4DFC41CFCD4
:1013D000020EDE26DFC41DFC000EDD221CCCD9F47B
:1013E0001DCCDAF4DEC42BFCDDC42CFC2B512C11FB
:1013F000D8A404D0850E2B6FFC0E2C6F000E2E6F20
:10140000000E2D6F03D00C012D4B2E2B2D512B25B3
:101410001C6F2E512C211D6F1CCCF6F41DCCF7F443
:10142000000EF86E250EF76403D00800F55005D0C5
:10143000F6C4E9F4F7C4EAF4EF500009D8A4E3D7FE
:101440000C0133513411D8B40ED02D51335D3451C9
:10145000800A1C6F2E51800A1C59D8B004D033CC9E
:101460002DFC34CC2EFC35512D5D36512E59D8B083
:1014700005D02D51355F2E51365B04D0000E366FEE
:10148000000E356F38A734D097D020EE02F01651F9
:10149000D9261751DA22DE50DE10DE10D8B413D070
:1014A00020EE02F01651D9261751DA2201D820D0A9
:1014B0000500FA6EDE50FD6EDE50FE6EDE50FF6EF1
:1014C000FA50200E120016CCD9F417CCDAF4DEC490
:1014D0001CFCDDC41DFC1CCCD9F41DCCDAF4200EA0
:1014E000DF6E16CCD9F417CCDAF4DE2A000EDD223A
:1014F0000C013507D8A036073529C7E13629D8B4FD
:101500005BD0C3D720EE02F01651D9261751DA224C
:10151000DE50DE10DE10D8B427D020EE02F01651D7
:10152000D9261751DA2201D81BD00500FA6EDE50F9
:10153000FD6EDE50FE6EDE50FF6EFA502BCCF6F4E0
:101540002CCCF7F4000EF86E250EF76403D00800DB
:10155000F55005D0F6C4E9F4F7C4EAF4EF501200F0
:101560000C012B4B2C2B28D02BCCF6F42CCCF7F4E5
:10157000000EF86E16CCD9F417CCDAF4DEC41CFCDD
:10158000DDC41DFC1CCCD9F41DCCDAF4250EF764A7
:1015900003D00800F55005D0F6C4E9F4F7C4EAF426
:1015A000EF50DF6E0C012B4B2C2B16CCD9F417CC43
:1015B000DAF4DE2A000EDD222D07D8A02E072D2911
:1015C000A1E12E29D8A49ED738B735D0BFEF90F02F
:1015D00020EE02F01651D9261751DA22DE50DE1025
:1015E000DE10D8B413D020EE02F01651D9261751D0
:1015F000DA2201D820D00500FA6EDE50FD6EDE50F2
:10160000FE6EDE50FF6EFA50200E120016CCD9F49A
:1016100017CCDAF4DEC41CFCDDC41DFC1CCCD9F4F0
:101620001DCCDAF4200EDF6E16CCD9F417CCDAF428
:10163000DE2A000EDD220C013507D8A03607352939
:10164000C7E13629D8B4BFEF90F0C2D71ACCD9F48D
:101650001BCCDAF4DFC41CFC020EDE26DFC41DFC4A
:10166000000EDD221CCCD9F41DCCDAF4DF50376F2C
:10167000370E2B6F0C0E2C6F000E2E6F010E2D6F80
:10168000DFD6C00E38132CD018CCF6F419CCF7F4F2
:10169000184B192B000EF86E0800F5C437FC3751B3
:1016A000000AD8B4CFEF90F0580AD8B488D63B0AD5
:1016B000D8B4CCD7070AD8B413D00D0AD8B410D0F8
:1016C000050AD8B478D6030AD8B477D61C0AD8B499
:1016D00079D6060AD8B4D5D70D0AD8B471D6C8D7EA
:1016E00038CC1CFCC00E1C17D8A441D038A919D086
:1016F0001ACCD9F41BCCDAF4DFC41CFC040EDE26B1
:10170000DFC41DFC000EDD221CCCD9F41DCCDAF4A4
:10171000DEC42FFCDEC430FCDEC431FCDEC432FC8F
:1017200019D01ACCD9F41BCCDAF4DFC41CFC020E9D
:10173000DE26DFC41DFC000EDD221CCCD9F41DCC3E
:10174000DAF4DEC42FFCDDC430FC000E30BFFF0E27
:10175000316F326F32AF40D0030E3813321F311F5A
:10176000301F2F6D000E30233123322335D038A99E
:1017700019D01ACCD9F41BCCDAF4DFC41CFC040E4B
:10178000DE26DFC41DFC000EDD221CCCD9F41DCCEE
:10179000DAF4DEC42FFCDEC430FCDEC431FCDEC46F
:1017A00032FC1AD01ACCD9F41BCCDAF4DFC41CFCFE
:1017B000020EDE26DFC41DFC000EDD221CCCD9F497
:1017C0001DCCDAF4DEC41EFCDDC41FFC1ECC2FFCD5
:1017D0001FCC30FC316B326B33513411D8A46CD038
:1017E0002F51301131113211D8A466D0334B342B24
:1017F00063D0010E376F0A0E3719D8B46BD037514A
:10180000040D2F0EF324F66EED0EF420F76EF86A39
:10181000000EF8220900F5502F5D0900F5503059EF
:101820000900F55031590900F5503259D8A052D06D
:10183000372BE1D7010E376F080E3719D8B44AD0CD
:101840003751040D7B0EF324F66EED0EF420F76E87
:10185000F86A000EF8220900F5502F5D0900F550D6
:1018600030590900F55031590900F5503259D8A0C6
:1018700031D0372BE1D7010E376F0B0E3719D8B4A3
:1018800029D03751040D030EF324F66EED0EF4202B
:10189000F76EF86A000EF8220900F5502F5D090076
:1018A000F55030590900F55031590900F5503259B9
:1018B000D8A010D0372BE1D73851C00B000AD8B4CC
:1018C00098D7400AD8B4D7D7C00AD8B4B3D7400AFB
:1018D000D8B48FD737511C6F1D6B33511C5D1D5110
:1018E000800A1E6F3451800A1E59D8B003D033CC01
:1018F00037FC10D037511C6F1D6B1C51335D3451B8
:10190000800A1E6F1D51800A1E59D8B003D037CCF3
:1019100033FC346B35513611D8B409D038CC1CFCAB
:10192000030E1C17D8B403D03507D8A0360739AD3D
:1019300013D03551335D3451800A1C6F3651800A03
:101940001C59D8B005D03351355F3451365B04D0C3
:10195000000E366F000E356FC40E38151C6F080E62
:1019600039151D6F400E1C190CE1080E1D19D8A465
:1019700008D035513611D8B422D03507D8A0360753
:101980001ED0C00E38151C6F080E39151D6F800E45
:101990001C1915E1080E1D19D8A411D036BF0BD0A3
:1019A000365104E1030E355DD8A005D0FE0E352773
:1019B000FF0E362304D0000E366F000E356F375100
:1019C0001C6F1D6B35511C5D1D51800A1E6F3651F9
:1019D000800A1E59D8B005D03751355F000E365BEE
:1019E00004D0000E366F000E356F38A526D138CCE6
:1019F0001CFC030E1C17D8B42CD020EE02F016519C
:101A0000D9261751DA22DE50DE10DE10D8B413D0FA
:101A100020EE02F01651D9261751DA2201D8D0D083
:101A20000500FA6EDE50FD6EDE50FE6EDE50FF6E7B
:101A3000FA502D0E120016CCD9F417CCDAF4DEC40D
:101A40001CFCDDC41DFC1CCCD9F41DCCDAF42D0E1D
:101A50002DD038A12DD020EE02F01651D9261751E5
:101A6000DA22DE50DE10DE10D8B413D020EE02F001
:101A70001651D9261751DA2201D8A2D00500FA6EE4
:101A8000DE50FD6EDE50FE6EDE50FF6EFA50200E10
:101A9000120016CCD9F417CCDAF4DEC41CFCDDC479
:101AA0001DFC1CCCD9F41DCCDAF4200EDF6E81D0E5
:101AB000C00E38151C6F080E39151D6F800E1C19CD
:101AC0007FE1080E1D19D8A47BD020EE02F016513C
:101AD000D9261751DA22DE50DE10DE10D8B413D02A
:101AE00020EE02F01651D9261751DA2201D820D063
:101AF0000500FA6EDE50FD6EDE50FE6EDE50FF6EAB
:101B0000FA50300E120016CCD9F417CCDAF4DEC439
:101B10001CFCDDC41DFC1CCCD9F41DCCDAF4300E49
:101B2000DF6E16CCD9F417CCDAF4DE2A000EDD22F3
:101B30000C0120EE02F01651D9261751DA22DE50A0
:101B4000DE10DE10D8B41DD038BB04D0000E226FDA
:101B5000780E03D0000E226F580E216F20EE02F097
:101B60001651D9261751DA2201D82AD00500FA6E6B
:101B7000DE50FD6EDE50FE6EDE50FF6EFA502151DB
:101B8000120038BB04D0000E246F780E03D0000E74
:101B9000246F580E236F16CCD9F417CCDAF4DEC4B8
:101BA0001CFCDDC41DFC1CCCD9F41DCCDAF423CC08
:101BB000DFF416CCD9F417CCDAF4DE2A000EDD22DD
:101BC0000C0135513611D8B48ED220EE02F01651E8
:101BD000D9261751DA22DE50DE10DE10D8B413D029
:101BE00020EE02F01651D9261751DA2201D820D062
:101BF0000500FA6EDE50FD6EDE50FE6EDE50FF6EAA
:101C0000FA50300E120016CCD9F417CCDAF4DEC438
:101C10001CFCDDC41DFC1CCCD9F41DCCDAF4300E48
:101C2000DF6E16CCD9F417CCDAF4DE2A000EDD22F2
:101C30000C013507D8A03607C4D735513611D8A4C2
:101C400038B73BD020EE02F01651D9261751DA22D0
:101C5000DE50DE10DE10D8B413D020EE02F01651A4
:101C6000D9261751DA2201D820D00500FA6EDE50AD
:101C7000FD6EDE50FE6EDE50FF6EFA50200E12003A
:101C800016CCD9F417CCDAF4DEC41CFCDDC41DFC80
:101C90001CCCD9F41DCCDAF4200EDF6E16CCD9F4AE
:101CA00017CCDAF4DE2A000EDD220C013507D8A0AD
:101CB000360735513611D8A4C5D738CC1CFC030ED5
:101CC0001C17D8B42CD020EE02F01651D92617518B
:101CD000DA22DE50DE10DE10D8B413D020EE02F08F
:101CE0001651D9261751DA2201D84ED00500FA6EC6
:101CF000DE50FD6EDE50FE6EDE50FF6EFA502D0E91
:101D0000120016CCD9F417CCDAF4DEC41CFCDDC406
:101D10001DFC1CCCD9F41DCCDAF42D0E2DD038A12D
:101D200033D020EE02F01651D9261751DA22DE50B8
:101D3000DE10DE10D8B413D020EE02F01651D926F2
:101D40001751DA2201D820D00500FA6EDE50FD6E60
:101D5000DE50FE6EDE50FF6EFA50200E120016CCE2
:101D6000D9F417CCDAF4DEC41CFCDDC41DFC1CCC99
:101D7000D9F41DCCDAF4200EDF6E16CCD9F417CCD2
:101D8000DAF4DE2A000EDD22C00E0C0138151C6FBD
:101D9000080E39151D6F400E1C1931E1080E1D1972
:101DA000D8A42DD020EE02F01651D9261751DA22F0
:101DB000DE50DE10DE10D8B413D020EE02F0165143
:101DC000D9261751DA2201D88ED10500FA6EDE50DD
:101DD000FD6EDE50FE6EDE50FF6EFA50300E1200C9
:101DE00016CCD9F417CCDAF4DEC41CFCDDC41DFC1F
:101DF0001CCCD9F41DCCDAF4300EDF6E6DD1C00EE0
:101E000038151C6F080E39151D6F800E1C1903E163
:101E1000080E1D19D8A467D120EE02F01651D9265C
:101E20001751DA22DE50DE10DE10D8B413D020EEC7
:101E300002F01651D9261751DA2201D820D0050018
:101E4000FA6EDE50FD6EDE50FE6EDE50FF6EFA5012
:101E5000300E120016CCD9F417CCDAF4DEC41CFC18
:101E6000DDC41DFC1CCCD9F41DCCDAF4300EDF6EC1
:101E700016CCD9F417CCDAF4DE2A000EDD220C01E0
:101E800020EE02F01651D9261751DA22DE50DE106C
:101E9000DE10D8B41DD038BB04D0000E266F780EEB
:101EA00003D0000E266F580E256F20EE02F016515B
:101EB000D9261751DA2201D816D10500FA6EDE5064
:101EC000FD6EDE50FE6EDE50FF6EFA5025511200A0
:101ED00038BB04D0000E286F780E03D0000E286F98
:101EE000580E276F16CCD9F417CCDAF4DEC41CFCDC
:101EF000DDC41DFC1CCCD9F41DCCDAF427CCDFF4F6
:101F0000EBD033CC1CFC34CC1DFCD8901C371D37D7
:101F1000D8901C371D372F0E1C25F66EED0E1D2197
:101F2000F76EF86A000EF8220900F5C404FC0900F7
:101F3000F5C405FC0900F5C406FC0A00F5C407FC5D
:101F40002FCC00FC30CC01FC31CC02FC32CC03FCA9
:101F500082ECF4F000CC0DFC01CC0EFC02CC0FFCAA
:101F600003CC10FC0A0E116F000E126F000E136FDF
:101F7000000E146F05ECF9F00D5171D02FCC00FC60
:101F800030CC01FC31CC02FC32CC03FC33CC1CFC49
:101F900034CC1DFCD8901C371D37D8901C371D370A
:101FA0007B0E1C25F66EED0E1D21F76EF86A000EF5
:101FB000F8220900F5C404FC0900F5C405FC090079
:101FC000F5C406FC0A00F5C407FC82ECF4F00051ED
:101FD0000F0B206F38BB04D0AB0E296FF60E03D069
:101FE0009A0E296FF60E2A6F205129251C6F000EBC
:101FF0002A211D6F1CCCF6F41DCCF7F4000EF86EF0
:102000000800F5C437FC3CD02FCC00FC30CC01FCE0
:1020100031CC02FC32CC03FC33CC1CFC34CC1DFC98
:10202000D8901C371D37D8901C371D37030E1C2540
:10203000F66EED0E1D21F76EF86A000EF82209000B
:10204000F5C404FC0900F5C405FC0900F5C406FC50
:102050000A00F5C407FC82ECF4F00051070B300FC6
:10206000376F0ED03851C00B000AD8B44AD7400A97
:10207000D8B4CAD7C00AD8B481D7400AD8B441D797
:1020800020EE02F01651D9261751DA22DE50DE106A
:10209000DE10D8B413D020EE02F01651D926175115
:1020A000DA2201D820D00500FA6EDE50FD6EDE5037
:1020B000FE6EDE50FF6EFA503751120016CCD9F486
:1020C00017CCDAF4DEC41CFCDDC41DFC1CCCD9F436
:1020D0001DCCDAF437CCDFF416CCD9F417CCDAF413
:1020E000DE2A000EDD220C013307D8A03407332985
:1020F000B9E13429D8A4B6D738B736BF40D0365165
:1021000003E13505D8A03BD020EE02F01651D926C8
:102110001751DA22DE50DE10DE10D8B413D020EED4
:1021200002F01651D9261751DA2201D820D0050025
:10213000FA6EDE50FD6EDE50FE6EDE50FF6EFA501F
:10214000200E120016CCD9F417CCDAF4DEC41CFC35
:10215000DDC41DFC1CCCD9F41DCCDAF4200EDF6EDE
:1021600016CCD9F417CCDAF4DE2A000EDD220C01ED
:102170003507D8A0360735513611D8A4C5D718CCA5
:10218000F6F419CCF7F40C01184B192B000EF86E6D
:102190000800F5C437FC3751D8A4A7EF88F0000E2B
:1021A000176F000E166F1200F3CCD9F4F4CCDAF4EA
:1021B000000EDE6E000EDD6EF1CC00FCF2CC01FCF8
:1021C00049ECD8F000CC04FD01CC05FD0D0105AFB4
:1021D00002D00B0E1200D8900435D96E0535DA6E98
:1021E0003B0ED926070EDA22DEC41FFDDDC420FD1A
:1021F0001F512011D8A402D00C0E1200F3CCD9F438
:10220000F4CCDAF41FCDDEF420CDDDF40C01F59131
:102210001FCDD9F420CDDAF4DF50D8B419D00D0198
:1022200020EE01F01F51D9262051DA22DF50C1ECF7
:1022300000F00D01146F14B10BD00C01F551D8B49E
:1022400005D00D0114A502D00A0E1200000E1200D6
:102250001FCDD9F420CDDAF4000EDF6E0D0120EE93
:1022600001F01F51D9262051DA22DF507EECDEF03A
:102270000D01146F14A102D0030E12000C01F551D0
:10228000D8B403D00D0114B5DFD71FCDA0FC20CDED
:10229000A1FC000E0C01A36F000EA26F73ECD0F036
:1022A000A0CC1DFDA1CC1EFD040E0D011D191E119B
:1022B000D8A402D0010E12001E5104E1020E1D5DD1
:1022C000D8A002D00D0E120020EE2CF01F51D926FE
:1022D0002051DA22DEC410FDDEC411FDDEC412FD81
:1022E000DEC413FD3B0E1F250C01006F000E0D0117
:1022F00020210C01016F3EECFEF0020E01190011CD
:10230000D8A4E0D7460E0D011F250C01006F000E6A
:102310000D0120210C01016F3EECFEF000CC19FDF7
:1023200001CC1AFD0D011B6B1C6B19511A111B11ED
:102330001C11D8A413D0540E1F250C01006F000EE1
:102340000D0120210C01016FD9ECE9F000CC19FD41
:1023500001CC1AFD02CC1BFD03CC1CFD0D0120EEAF
:1023600018F01F51D9262051DA2219CDDEF41ACDEA
:10237000DEF41BCDDEF41CCDDEF420EE40F01F5168
:10238000D9262051DA2210EE03F01F51E126205108
:10239000E222DFC4E7F420EE03F01F51D9262051DA
:1023A000DA22DE04D8B40AD020EE03F01F51D92679
:1023B0002051DA22020EDE18D8A484D719CD00FCF1
:1023C0001ACD01FC1BCD02FC1CCD03FC20EE03F05A
:1023D0001F51D9262051DA22DF500C01F66FF65139
:1023E000046F056B066B076B8FECFAF000CC19FDE0
:1023F00001CC1AFD02CC1BFD03CC1CFD0D0120EE0F
:102400003DF01F51D9262051DA22DF500C01F66F22
:10241000F76B0D0120EE0AF01F51D9262051DA2268
:10242000F6CCDEF4F7CCDDF420EE0AF01F51D9260D
:102430002051DA22DE50DE10D8B444D720EE0AF064
:102440001F51D9262051DA22DEC4F6FCDDC4F7FC88
:1024500020EE0AF01F51D9262051DA22DEC4F8FC02
:10246000DDC4F9FCFF0E0C01F825FA6FFF0EF9210F
:10247000FB6FF651FA15FC6FF751FB15FD6FFC5120
:10248000FD11D8A41FD7410E0D011F250C01006FAF
:10249000000E0D0120210C01016F3EECFEF00D013C
:1024A00020EE08F01F51D9262051DA220C0100CC71
:1024B000DEF401CCDDF40D0120EE08F01F51D92629
:1024C0002051DA22DF500C01F66F0F0EF617D8A458
:1024D000F9D6430E0D011F250C01006F000E0D01F2
:1024E00020210C01016F3EECFEF000CC0CFD01CC74
:1024F0000DFD0D010E6B0F6B0C510D110E110F1117
:10250000D8A413D0500E1F250C01006F000E0D0132
:1025100020210C01016FD9ECE9F000CC0CFD01CCBD
:102520000DFD02CC0EFD03CC0FFD3E0E0D011F254F
:102530000C01006F000E0D0120210C01016F3EEC1B
:10254000FEF000CC0AFD01CC0BFD0D010A510B1170
:10255000D8B4B8D620EE08F01F51D9262051DA227F
:10256000DEC4F6FCDDC4F7FC040E0C01F86FD89055
:10257000F733F633F82FFBD70D010A510C01F6257E
:10258000F96F0D010B510C01F721FA6FFB6BD8B0FD
:10259000FB2BFC6B0D0119510C01F9250D01066F88
:1025A0001A510C01FA210D01076F1B510C01FB217F
:1025B0000D01086F1C510C01FC210D01096F065122
:1025C0000C5D07510D5908510E5909510F59D8A0EA
:1025D00079D606510C5D0C01006F0D0107510D59A4
:1025E0000C01016F0D0108510E590C01026F0D0114
:1025F00009510F590C01036F0D0120EE0AF01F5114
:10260000D9262051DA22DEC4F6FCDDC4F7FCF6CC74
:1026100004FCF7CC05FC0C01066B076B82ECF4F0B4
:1026200000CC15FD01CC16FD02CC17FD03CC18FD26
:102630000D011551161117111811D8B443D6000EFB
:102640001E6F000E1D6FF60E155DFF0E1659FF0E64
:1026500017590F0E1859D8B004D0000E1E6F030E74
:102660001D6F185117110AE1F60E155DFF0E165970
:10267000D8B004D0000E1E6F020E1D6F1851171136
:102680000AE1F60E155D0F0E1659D8B004D0000EF3
:102690001E6F010E1D6F1D511E11D8B413D6020EF0
:1026A00015250C01F66F000E0D0116210C01F76FB8
:1026B000000E0D0117210C01F86F000E0D011821FD
:1026C0000C01F96F0D0120EE14F01F51D926205195
:1026D000DA22F6CCDEF4F7CCDEF4F8CCDEF4F9CC7A
:1026E000DEF420EE1CF01F51D9262051DA2210CD45
:1026F000DEF411CDDEF412CDDEF413CDDEF40A519A
:1027000010250C01F66F0D010B5111210C01F76F13
:10271000000E0D0112210C01F86F000E0D011321A6
:102720000C01F96F0D0120EE20F01F51D926205128
:10273000DA22F6CCDEF4F7CCDEF4F8CCDEF4F9CC19
:10274000DEF4065110250C01F66F0D010751112121
:102750000C01F76F0D01085112210C01F86F0D01EA
:10276000095113210C01F96F0D0120EE28F01F51C2
:10277000D9262051DA22F6CCDEF4F7CCDEF4F8CC00
:10278000DEF4F9CCDEF4030E1D191E11D8A456D0C8
:102790005A0E1F250C01006F000E0D0120210C01A7
:1027A000016F3EECFEF000510111D8A48BD50D0154
:1027B00020EE08F01F51D9262051DA22DE50DE101B
:1027C000D8A480D55C0E1F250C01006F000E0D01F2
:1027D00020210C01016FD9ECE9F00D0120EE24F06D
:1027E0001F51D9262051DA220C0100CCDEF401CC95
:1027F000DEF402CCDEF403CCDEF40D0120EE14F0A6
:102800001F51D9262051DA22DEC4F6FCDEC4F7FCC3
:10281000DEC4F8FCDEC4F9FC020ED8900C01F637D9
:10282000F737F837F937E82EF8D7F6CC00FDF7CCB4
:1028300001FDF8CC02FDF9CC03FDAAD020EE08F092
:102840001F51D9262051DA22DE50DE10D8B43AD5F5
:1028500020EE20F01F51D9262051DA22DEC4F6FCEA
:10286000DEC4F7FCDEC4F8FCDEC4F9FC19510C012F
:10287000F625FA6F0D011A510C01F721FB6F0D01BE
:102880001B510C01F821FC6F0D011C510C01F921A9
:10289000FD6F0D0120EE24F01F51D9262051DA22C0
:1028A000FACCDEF4FBCCDEF4FCCCDEF4FDCCDEF4C2
:1028B000020E1D191E11D8B44CD020EE14F01F5179
:1028C000D9262051DA22DEC4F6FCDEC4F7FCDEC4D1
:1028D000F8FCDEC4F9FC010E0C01F615FA6F000ECF
:1028E000F715FB6F000EF815FC6F000EF915FD6F64
:1028F0000D0120EE14F01F51D9262051DA22DEC43A
:1029000000FCDEC401FCDEC402FCDEC403FC030EDA
:102910000C01046F000E056F000E066F000E076FAE
:102920008FECFAF0D8900333023301330033FA51BD
:1029300000250D01006F0C01FB5101210D01016FFC
:102940000C01FC5102210D01026F0C01FD5103210C
:102950001DD020EE14F01F51D9262051DA22DEC4FA
:10296000F6FCDEC4F7FCDEC4F8FCDEC4F9FCD8904B
:102970000C01F6350D01006F0C01F7350D01016FEB
:102980000C01F8350D01026F0C01F9350D01036FD3
:10299000FF0E0D0100250C01F66F010E0D01012146
:1029A0000C01F76F000E0D0102210C01F86F000EF3
:1029B0000D0103210C01F96F0A0E05D0D890F933EF
:1029C000F833F733F633E82EF9D70D0120EE18F07F
:1029D0001F51D9262051DA220C01F651DE5CF75145
:1029E000DE58F851DE58F951DE58D8A06BD40D01ED
:1029F00020EE10F01F51D9262051DA22FF0EDE6E94
:102A0000FF0EDE6EFF0EDE6EFF0EDD6EDD52DD525E
:102A100010EE0CF01F51E1262051E222DEC4E6F454
:102A2000DEC4E6F4DEC4E6F4DEC4E6F420EE05F02F
:102A30001F51D9262051DA22800EDF6E030E1D1998
:102A40001E11D8A4B1D0600E1F250C01006F000E1E
:102A50000D0120210C01016F3EECFEF0000501117B
:102A6000D8A4A2D01FCD87FC20CD88FC010E0D017B
:102A700010250C01896F000E0D0111210C018A6FC8
:102A8000000E0D0112210C018B6F000E0D011321A0
:102A90000C018C6F48ECECF00009D8A485D00D0136
:102AA00020EE05F01F51D9262051DA22000EDF6EEC
:102AB0002E0E1F250C01006F020E0D0120210C01AE
:102AC000016F3EECFEF0550E00196EE1AA0E0119E1
:102AD000D8A46AD0300E0D011F250C01006F000E26
:102AE0000D0120210C01016FD9ECE9F0520E001903
:102AF0005BE1520E011958E1610E021955E1410ED8
:102B00000319D8A451D0140E0D011F250C01006F1C
:102B1000020E0D0120210C01016FD9ECE9F0720EBB
:102B2000001942E1720E01193FE1410E02193CE128
:102B3000610E0319D8A438D0180E0D011F250C0101
:102B4000006F020E0D0120210C01016FD9ECE9F09C
:102B50000D0120EE10F01F51D9262051DA220C0170
:102B600000CCDEF401CCDEF402CCDEF403CCDEF4E7
:102B70001C0E0D011F250C01006F020E0D012021FE
:102B80000C01016FD9ECE9F00D0120EE0CF01F51A2
:102B9000D9262051DA220C0100CCDEF401CCDEF47F
:102BA00002CCDEF403CCDEF41FCDD9F420CDDAF470
:102BB0001DCDDFF40F4A102A0D0120EE06F01F5143
:102BC000D9262051DA220FC5DEF410C5DDF426EF38
:102BD00091F0F4C9D1FAF5C9D2FAF8C9D9F4F9C912
:102BE000DAF4000EDE6E000EDD6EF2C90EF6F3C9E9
:102BF0000FF6E10E0601106F0A0E116FBDECE8F042
:102C00000A01D06FD051D8A40DD0090120EE0FF0E9
:102C1000F251D926F351DA22DF500A01D06FD05198
:102C2000D8B402D0D0511200090120EE0EF0F251BA
:102C3000D926F351DA22DFB202D0070E120020EEBD
:102C400010F0F251D926F351DA2210EE10F0F251C1
:102C5000E126F351E222E6C4C4FAE6C4C5FAE6C4AA
:102C6000C6FAE6C4C7FAF6510A01C425C86F0901BD
:102C7000F7510A01C521C96F000EC621CA6F000EA7
:102C8000C721CB6FDE50C85DDE50C959DE50CA592E
:102C9000DE50CB59D8B013D0090120EE10F0F2511C
:102CA000D926F351DA22DEC4C0FADDC4C1FA0A0122
:102CB000C01D0901F66F0A01C11D0901F76F090165
:102CC000F651F711D8B432D320EE10F0F251D926D4
:102CD000F351DA22FF0EDE140A01C06F010EDE147A
:102CE000C16F000EDE14C26F000EDE14C36FC05140
:102CF000C111C211C311D8A460D2090120EE10F095
:102D0000F251D926F351DA22DEC4C0FADEC4C1FA88
:102D1000DEC4C2FADEC4C3FA0A0E06D00A01D89095
:102D2000C333C233C133C033E82EF8D720EE0AF0E4
:102D3000E151D926E251DA22DEC4C4FADDC4C5FA73
:102D4000FF0EC425C66FFF0EC521C76FC051C61543
:102D5000D36FC151C715D46FD351D411D8A4A3D008
:102D6000090120EE10F0F251D926F351DA22DE509B
:102D7000DE10DE10DE10D8A425D020EE06F0F251D1
:102D8000D926F351DA22DEC4D7FADEC4D8FADEC47B
:102D9000D9FADEC4DAFA0A01D751D811D911DA11F9
:102DA000D8A42CD0F2C9D5F9F3C9D6F9000E09017F
:102DB000D76F000ED86F000ED96F000EDA6FA0EC3F
:102DC000A6F014D0F2C9D5F9F3C9D6F920EE14F063
:102DD000F251D926F351DA22DEC4D7F9DEC4D8F98C
:102DE000DEC4D9F9DEC4DAF9A0ECA6F0D5C9D7FA69
:102DF000D6C9D8FAD7C9D9FAD8C9DAFA0A01D75147
:102E0000D811D911DA11D8B491D2D705D811D91166
:102E1000DA11D8A40BD0090120EE0FF0F251D92617
:102E2000F351DA22020EDF6E020E1200D72912E1F0
:102E3000D82910E1D9290EE1DA29D8A40BD009014B
:102E400020EE0FF0F251D926F351DA22010EDF6E97
:102E5000010E1200090120EE14F0F251D926F351AF
:102E6000DA22D7CADEF4D8CADEF4D9CADEF4DACA66
:102E7000DEF420EE06F0F251D926F351DA22DE50CC
:102E8000DE10DE10DE10D8A40ED020EE06F0F251D7
:102E9000D926F351DA22D7CADEF4D8CADEF4D9CA69
:102EA000DEF4DACADEF4090120EE0EF0F251D92682
:102EB000F351DA22DFAE33D0220EF2250801906FF3
:102EC000000E0901F3210801916F090120EE18F0AD
:102ED000F251D926F351DA22DEC492F8DEC493F817
:102EE000DEC494F8DEC495F8000E0801976F010E59
:102EF000966F0A0120EE01F0E151D926E251DA2263
:102F0000DF50ABECF6F00009D8A499D7090120EE08
:102F10000EF0F251D926F351DA227F0EDF16E1CA04
:102F20001BF7E2CA1CF720EE14F0F251D926F35138
:102F3000DA22DEC41DF7DEC41EF7DEC41FF7DEC4CE
:102F400020F7D6ECE4F01BC7DDFA1CC7DEFA1DC77C
:102F5000DFFA1EC7E0FA0A01DD51DE11DF11E011D0
:102F6000D8B459D7D351DD27D451DE23000EDF2347
:102F7000000EE023F6C9C0FAF7C9C1FA090EC26F04
:102F8000D890C133C033C22FFBD7C0CAD5FAC1CA4B
:102F9000D6FAD551D611D8B4B3D0D551D325C06FF8
:102FA000D651D421C16F20EE0AF0E151D926E25169
:102FB000DA22C051DE5CC151DE58D8B010D020EE0C
:102FC0000AF0E151D926E251DA22DEC4C0FADDC4AA
:102FD000C1FAD351C05DD56FD451C159D66FD1CA92
:102FE00090F8D2CA91F8DDCA92F8DECA93F8DFCA27
:102FF00094F8E0CA95F8D5CA96F8D6CA97F820EEA4
:1030000001F0E151D926E251DA22DF50ABECF6F0C3
:103010000009D8A414D70A01D551C06FD651C16F89
:10302000C26BC36B090120EE18F0F251D926F3519F
:10303000DA22DEC4C4FADEC4C5FADEC4C6FADEC4CF
:10304000C7FA0A01DD51C45DC86FDE51C559C96FA9
:10305000DF51C659CA6FE051C759CB6FC051C85D27
:10306000C151C959C251CA59C351CB59D8B038D02E
:10307000220E0901F22506010D6F000E0901F32150
:1030800006010E6F090120EE18F0F251D926F35116
:10309000DA22DEC4C0FADDC4C1FA0A01DD51C05F24
:1030A000DE51C15B090ED890C037C137E82EFBD77F
:1030B000C051D12506010F6F0A01C151D22106016D
:1030C000106F020E126F000E116F60ECFAF0090122
:1030D00020EE0EF0F251D926F351DA227F0EDF16E0
:1030E000D5CAC0FAD6CAC1FA090ED8900A01C037AB
:1030F000C137E82EFAD7C0CADBFAC1CADCFABBD0A6
:10310000090120EE18F0F251D926F351DA220A0112
:10311000DD51DE180AE1DE51DE1807E1DF51DE186D
:1031200004E1E051DE18D8B439D0090120EE0AF0EC
:10313000F251D926F351DA2210EE10F0F251E126C5
:10314000F351E222DE50E65CDE50E658DE50E658EF
:10315000DE50E658D8B022D0220EF2250801926F38
:10316000000E0901F3210801936FDDCA94F8DECA4D
:1031700095F8DFCA96F8E0CA97F8000E996F010E2D
:10318000986F0A0120EE01F0E151D926E251DA22CE
:10319000DF50E4ECF6F00009D8A451D6090120EE86
:1031A00018F0F251D926F351DA22DDCADEF4DECA74
:1031B000DEF4DFCADEF4E0CADEF4090120EE10F02E
:1031C000F251D926F351DA22DEC4C0FADDC4C1FAC5
:1031D000FF0E0A01C015C26F010EC115C36FC251A7
:1031E0000008DB6FC351D8A0E82A0208DC6FDB516E
:1031F0000901F65D0A01DC510901F759D8B004D084
:10320000F6C9DBFAF7C9DCFA20EE10F0F251D92644
:10321000F351DA22DEC4C0FADDC4C1FAFF0E0A019E
:10322000C015C26F010EC115C36FC2510901F2254D
:103230000A01C46FC3510901F3210A01C56F220EAF
:10324000C42506010D6F000E0A01C52106010E6F8F
:10325000D1CA0FF6D2CA10F6DBCA11F6DCCA12F6D2
:1032600060ECFAF0090120EE0EF0F251D926F3518C
:10327000DA22000EDB8E0A01DB510901F65F0A013A
:10328000DC510901F75BF8C9D9F4F9C9DAF40A018C
:10329000DB51DE26DC51DD22DB51D127DC51D2238C
:1032A000090120EE10F0F251D926F351DA220A0179
:1032B000DB51DE26DC51DE22000EDE22DE22090199
:1032C00020EE10F0F251D926F351DA2210EE0AF076
:1032D000F251E126F351E222DE50E65CDE50E65880
:1032E000DE50E658DE50E658D8A003D020EE0AF0B3
:1032F00002D020EE10F0F251D926F351DA22DEC4CA
:10330000CCFADEC4CDFADEC4CEFADEC4CFFA20EEAB
:103310000AF0F251D926F351DA22CCCADEF4CDCA32
:10332000DEF4CECADEF4CFCADEF4C9D4090120EE41
:103330000EF0F251D926F351DA22000EDB8C000E8A
:103340001200F2C90EF6F3C90FF6DD0E0601106F7A
:103350000A0E116FBDECE8F00A01D46FD451D8A465
:103360000AD0090120EE0FF0F251D926F351DA22EA
:10337000DF500A01D46FD451D8B403D00A01D4511C
:103380001200090120EE0AF0F251D926F351DA2297
:10339000F451DE5CF551DE58F651DE58F751DE5837
:1033A000D8B016D020EE0EF0F251D926F351DA2221
:1033B000DFB20ED020EE0AF0F251D926F351DA2214
:1033C000DEC4F4F9DEC4F5F9DEC4F6F9DEC4F7F9BB
:1033D00020EE10F0F251D926F351DA22DEC4D0FAF1
:1033E000DEC4D1FADEC4D2FADEC4D3FA000E0A017A
:1033F000D56F000ED66F000ED76F000ED86F090183
:1034000020EE10F0F251D926F351DA22D5CADEF4BB
:10341000D6CADEF4D7CADEF4D8CADEF4F451F51108
:10342000F611F711D8B452D20A0120EE0AF0DD519C
:10343000D926DE51DA22DEC4C0FADDC4C1FAC05199
:10344000C26FC151C36FC46BC56B090ED890C23730
:10345000C337C437C537E82EF9D7C2CAD9FAC3CAA9
:10346000DAFAC4CADBFAC5CADCFAD051D111D211DA
:10347000D311D8B4ADD0FF0E0901F42506010D6FAC
:10348000FF0E0901F52106010E6FFF0E0901F6215D
:1034900006010F6FFF0E0901F7210601106FD9CA4F
:1034A00011F6DACA12F6DBCA13F6DCCA14F6FEEC21
:1034B000F3F00DC6C0FA0EC6C1FA0FC6C2FA10C6A6
:1034C000C3FAFF0E0A01D02506010D6FFF0E0A0197
:1034D000D12106010E6FFF0E0A01D22106010F6FE6
:1034E000FF0E0A01D3210601106FD9CA11F6DACAFC
:1034F00012F6DBCA13F6DCCA14F6FEECF3F00D513B
:103500000A01C05D06010E510A01C15906010F51A1
:103510000A01C259060110510A01C359D8A058D056
:10352000FF0ED925C06FFF0EDA21C16FFF0EDB2120
:10353000C26FFF0EDC21C36FC01DC46FC11DC56FFC
:10354000C21DC66FC31DC76FFF0ED025C86FFF0E0B
:10355000D121C96FFF0ED221CA6FFF0ED321CB6FCD
:10356000C451C815CC6FC551C915CD6FC651CA1508
:10357000CE6FC751CB15CF6F090120EE10F0F2517D
:10358000D926F351DA22CCCADEF4CDCADEF4CECA93
:10359000DEF4CFCADEF420EE10F0F251D926F3515A
:1035A000DA22DE50F45FDE50F55BDE50F65BDD5074
:1035B000F75B20EE14F0F251D926F351DA22DEC483
:1035C000DFFADEC4E0FADEC4E1FADEC4E2FA71D06A
:1035D000090120EE06F0F251D926F351DA22DEC4B9
:1035E000DFFADEC4E0FADEC4E1FADEC4E2FA0A0180
:1035F000DF51E011E111E211D8A44CD0F2C9D5F9A4
:10360000F3C9D6F9000E0901D76F000ED86F000E6E
:10361000D96F000EDA6FA0ECA6F0D5C9DFFAD6C9D3
:10362000E0FAD7C9E1FAD8C9E2FA0A01DF05E011E8
:10363000E111E211D8A40BD0090120EE0FF0F251F4
:10364000D926F351DA22020EDF6E020E1200DF29B4
:1036500012E1E02910E1E1290EE1E229D8A40BD022
:10366000090120EE0FF0F251D926F351DA22010EB2
:10367000DF6E010E1200090120EE06F0F251D9268C
:10368000F351DA22DFCADEF4E0CADEF4E1CADEF486
:10369000E2CADEF4090120EE14F0F251D926F3510A
:1036A000DA22DFCADEF4E0CADEF4E1CADEF4E2CAFE
:1036B000DEF40A01DF51E011E111E211D8A496D045
:1036C00005D1D9510901F45F0A01DA510901F55B0D
:1036D0000A01DB510901F65B0A01DC510901F75BC4
:1036E00020EE10F0F251D926F351DA220A01D95115
:1036F000DE26DA51DE22DB51DE22DC51DE22090138
:1037000020EE0EF0F251D926F351DA22DFA227D0B3
:10371000F2C9D5F9F3C9D6F9DFCAD7F9E0CAD8F9A1
:10372000E1CAD9F9E2CADAF9A0ECA6F0D5C9DFFA04
:10373000D6C9E0FAD7C9E1FAD8C9E2FA0A01DF51DD
:10374000E011E111E211D8A420D0000E0901F46FBC
:10375000000EF56F000EF66F000EF76F59D0F2C92C
:10376000B4F9F3C9B5F9DFCAB6F9E0CAB7F9E1CAE5
:10377000B8F9E2CAB9F931ECB7F0B4C9DFFAB5C9A2
:10378000E0FAB6C9E1FAB7C9E2FA0A01DF2907E1AE
:10379000E02905E1E12903E1E229D8B461D7E2514A
:1037A000E111E01104E1020EDF5DD8A045D720EE63
:1037B00014F0DD51D926DE51DA22DE50DF5DDE5015
:1037C000E059DE50E159DE50E259D8B035D7090151
:1037D00020EE14F0F251D926F351DA22DFCADEF4DA
:1037E000E0CADEF4E1CADEF4E2CADEF40901F45113
:1037F0000A01D95D0901F5510A01DA590901F651A9
:103800000A01DB590901F7510A01DC59D8A059D73F
:10381000090120EE10F0F251D926F351DA22F451C9
:10382000DE26F551DE22F651DE22F751DE22FF0EB2
:10383000F4150A01C06F010E0901F5150A01C16FE7
:10384000000E0901F6150A01C26F000E0901F715F5
:103850000A01C36FC051C111C211C311D8B436D00F
:10386000DDCA1BF7DECA1CF7DFCA1DF7E0CA1EF768
:10387000E1CA1FF7E2CA20F7D6ECE4F01BC7D5FA7D
:103880001CC7D6FA1DC7D7FA1EC7D8FA0A01D551E8
:10389000D611D711D811D8B4CFD6F4C9C0FAF5C90A
:1038A000C1FAF6C9C2FAF7C9C3FA0A0E05D0D89010
:1038B000C333C233C133C033E82EF9D7C051D52743
:1038C000C151D623C251D723C351D823090120EEB9
:1038D00010F0F251D926F351DA2210EE0AF0F2512B
:1038E000E126F351E222DE50E65CDE50E658DE507F
:1038F000E658DE50E658D8B01CD020EE10F0F25159
:10390000D926F351DA2210EE0AF0F251E126F351F2
:10391000E222DEC4E6F4DEC4E6F4DEC4E6F4DEC48D
:10392000E6F420EE0EF0F251D926F351DA22000E21
:10393000DB8C20EE10F0F251D926F351DA22FF0E83
:10394000DE140A01C06F010EDE14C16F000EDE141A
:10395000C26F000EDE14C36FC051C111C211C3117A
:10396000D8B40CD5090120EE18F0F251D926F35144
:10397000DA220A01D551DE180AE1D651DE1807E134
:10398000D751DE1804E1D851DE18D8B4F7D40901B4
:1039900020EE0EF0F251D926F351DA22DFAE33D009
:1039A000220EF2250801906F000E0901F321080193
:1039B000916F090120EE18F0F251D926F351DA2265
:1039C000DEC492F8DEC493F8DEC494F8DEC495F841
:1039D000000E0801976F010E966F0A0120EE01F0AC
:1039E000DD51D926DE51DA22DF50ABECF6F00009CA
:1039F000D8A436D6090120EE0EF0F251D926F351A3
:103A0000DA227F0EDF16220EF2250801926F000ED9
:103A10000901F3210801936FD5CA94F8D6CA95F825
:103A2000D7CA96F8D8CA97F8000E996F010E986F0A
:103A30000A0120EE01F0DD51D926DE51DA22DF50F5
:103A4000E4ECF6F00009D8A40BD6090120EE18F03A
:103A5000F251D926F351DA22D5CADEF4D6CADEF401
:0B3A6000D7CADEF4D8CADEF489D40116
:103A6C00FAC4EDFAFBC4EEFAF6C4EFFAF7C4F0FAB6
:103A7C00F8C4F1FAF5C4F2FAD69ECFC481FBCEBAE3
:103A8C006DD0000EC86E51D0070143514411D8B40B
:103A9C0002D0C0685CD0000E34D060ECFBF00B019F
:103AAC007A6F7A51D8A405D0000E0701486F010E29
:103ABC00476F7ACBC0F44BD007013D513E11D8B4BF
:103ACC0046D0000E3D5D0A01E36F0A0E07013E5918
:103ADC000A01E46FE4BF06D0E45139E1800EE35DE6
:103AEC00D8B035D03DC7D9F43EC7DAF4DF50C06E3C
:103AFC0007013D4B3E2B2BD04EC7C0F428D0FDEC1C
:103B0C00FFF0C06E24D0490E0801666FF40E676F8B
:103B1C0081CB68F8696B81CB6AF86B6BC9ECFDF0F3
:103B2C00000E486F010E476FB4D70B018151000A8C
:103B3C00D8B4AAD7010AD8B4B0D7090AD8B4BCD71C
:103B4C00060AD8B4D9D7AE0AD8B4D9D7DCD7000175
:103B5C00D785D795CEA0FED7C868ABD2000E0B0187
:103B6C007E6F000E7D6F81CB78FB796BD0C476FBBA
:103B7C00776B9CD0B7A2FED7D0C4C9F2C6D00701D0
:103B8C003D513E11D8B4C1D0000E3D5D0A01E36F2A
:103B9C000A0E07013E590A01E46FE4BF06D0E45156
:103BAC0003E1800EE35DD8B0B0D03DC7D9F43EC779
:103BBC00DAF4D0C4DFF407013D4B3E2B000E3D5D23
:103BCC000A01E36F0A0E07013E590A01E46F800EE9
:103BDC00E319E411D8A499D0000E0B017E6F010EED
:103BEC007D6F93D0D0C44DF790D0D0C44CF78DD00E
:103BFC00000E07013F150A01E36FFF0E0701401588
:103C0C000A01E46FD050E31107013F6F0A01E45140
:103C1C0015D0D0500A01E46FE36BFF0E07013F157E
:103C2C000A01E56F000E070140150A01E66FE3512A
:103C3C00E51107013F6F0A01E451E6110701406FDE
:103C4C0064D0D0C44BF7030E07014B19D8A4C4D7CA
:103C5C00000E3D6F0A0E3E6F58D0D0C44AF755D0B7
:103C6C00D0C449F752D0D0C478F80801796B76ECFF
:103C7C00FCF04BD0D050CFECF9F047D0160E080129
:103C8C00666FF40E676F81CB68F8696BD0C46AF805
:103C9C006B6B81CB6CF86D6BD0C46EF86F6BC9EC31
:103CAC00FDF0000E486F010E476F2FD08151010AB5
:103CBC00D8B460D7090AD8B462D7020AD8B492D75C
:103CCC00010AD8B492D7070AD8B492D7010AD8B44B
:103CDC00B8D7020AD8B4C1D71F0AD8B4C1D7010AC1
:103CEC00D8B497D7050AD8B4BED7010AD8B474D7BC
:103CFC00B50AD8B4BFD70A0AD8B46ED7010AD8B45B
:103D0C006BD7070AD8B468D7B9D70B017D517E1190
:103D1C00D8A409D0070147514811D8A404D00001F8
:103D2C00D785D795C6D1C2900001D785D795000EFF
:103D3C0006010E6F010E0D6FE4ECFEF00B017D51D0
:103D4C007E11D8B4A3D126D076CB78F877CB79F87E
:103D5C00F0ECECF09BD1AA0E0B0178197911D8A4D8
:103D6C0002D0010E01D0000E0801956F966B54EC39
:103D7C00B5F006011E511F11D8A406D09BECD5F04E
:103D8C00AB51AC11D8B4F5D7EAECD4F07FD17CECC4
:103D9C00E9F07CD178CBE3FA79CBE4FA0A01E4516F
:103DAC00000AD8A40DD0E351150AD8B4CDD7BF0A58
:103DBC00D8B4D1D7010AD8B4EAD7070AD8B4CBD72C
:103DCC00100E07014D610CD04D51040D820EF324E1
:103DDC00D96E0A0EF420DA6EDE50DE10D8A402D0B2
:103DEC00010EDBD04CC70DF606010E6B07014D51D1
:103DFC00040D800EF324D96E0A0EF420DA6EDEC4A4
:103E0C000FF6DDC410F6D5EC00F007013F510601AA
:103E1C000D270701405106010E23FF0E0D250A0147
:103E2C00E36FFF0E06010E210A01E46FE3CA6AFB81
:103E3C00E4CA6BFB0B016C6B6D6B07014D51040DF0
:103E4C00820EF324D96E0A0EF420DA6EDEC47BFBEC
:103E5C00DDC47CFB7BCBF2F97CCBF3F96ACBE3FAC8
:103E6C006BCBE4FA6CCBE5FA6DCBE6FA070ED89087
:103E7C000A01E337E437E537E637E82EF8D7E3CA2B
:103E8C00F4F9E4CAF5F9E5CAF6F9E6CAF7F9A1ECD2
:103E9C0099F00009D8B408D0630E0801666FF60ECD
:103EAC00676FC9ECFDF09CD707014B51D8B404D017
:103EBC00020E4B19D8A473D07BCBCEF97CCBCFF9A7
:103ECC00000E0901D06F0A0ED16F000ED36F800E59
:103EDC00D26F7F0ED46F0B0ED56FA0ECA3F0000940
:103EEC00D8B408D0760E0801666FF60E676FC9EC71
:103EFC00FDF076D707014B51D8A44AD049510A019D
:103F0C00E46FE36B070145510A01E56F0701465168
:103F1C000A01E66FE76BE86BE6CAE8FAE5CAE7FA6E
:103F2C00E66BE56BE351E511E96FE451E611EA6FDD
:103F3C00000EE711EB6F000EE811EC6F07014A5110
:103F4C000A01E9110B016E6F0A01EA510B016F6F47
:103F5C000A01EB510B01706F0A01EC510B01716FEF
:103F6C006ECB80F86FCB81F870CB82F871CB83F875
:103F7C00000E0801846F0A0E856F000E876F800E8D
:103F8C00866F38ECD1F0000E07013D6F000E03D0A8
:103F9C00000E3D6F0A0E3E6F000E4E6F77D04B0534
:103FAC00D8B404D0030E4B19D8A46ED04B05D8A4AA
:103FBC0045D049510A01E46FE36B070145510A01F1
:103FCC00E56F070146510A01E66FE76BE86BE6CA3D
:103FDC00E8FAE5CAE7FAE66BE56BE351E511E96F40
:103FEC00E451E611EA6F000EE711EB6F000EE811D9
:103FFC00EC6F07014A510A01E9110B01726F0A01BA
:10400C00EA510B01736F0A01EB510B01746F0A013A
:10401C00EC510B01756F72CB80F873CB81F874CBBC
:10402C0082F875CB83F8000E0801846F0A0E856F39
:10403C00000E876F800E866F7AECDBF07BCBF2F98B
:10404C007CCBF3F9000E0901F46F0A0EF56F000E2C
:10405C00F76F800EF66F7F0EF86F0B0EF96FE9ECB1
:10406C0095F00009D8B408D0500E0801666FF60E12
:10407C00676FC9ECFDF0B4D6000E07014E6F000E51
:10408C003D6F000E3E6F02D0010EF8D7070147516D
:10409C004811D8B406D0000E486F000E476F9CEC48
:1040AC00ECF0000E06010E6F000E0D6FE4ECFEF04E
:1040BC00C280B59AD68EF2CAF5F4F1CAF8F4F0CAF9
:1040CC00F7F4EFCAF6F4EECAFBF4EDCAFAF41100F9
:1040DC0021512211D8A402D0090E12003F0E25172F
:1040EC00230E0C01F16F0D0EF26F460EF36F0D0ED9
:1040FC00F46F25CDF5FCD4EC90F00D01486F4851D0
:10410C00D8A40AD346CD49FD47CD4AFD490E0C0132
:10411C00F26F0D0EF36F23CDF4FC24CDF5FCA2EC65
:10412C00CFF00D01486F4851D8B470AF02D0060ED5
:10413C00486F25CD26FD1C0E2617D8B4FAD0485151
:10414C00D8B40FD0040E4819D8A409D0490E0C01CC
:10415C00F66F0D0EF76F37ECE7F00D01486F258702
:10416C000CD04DCD26FD110E2617D8B402D0070E5B
:10417C0003D025A502D0080E486F4851D8B425A706
:10418C00E4D0BCEC01F000CC32FD01CC33FD02CC10
:10419C0034FD03CC35FD0E0E0D0163250C01006FB3
:1041AC00000E0D0164210C01016F32CD02FC33CDE8
:1041BC0003FC34CD04FC35CD05FCFBECF7F0160EFE
:1041CC000D0163250C01006F000E0D0164210C0123
:1041DC00016F32CD02FC33CD03FC34CD04FC35CD64
:1041EC0005FCFBECF7F046CD07FC47CD08FC63CD96
:1041FC0009FC64CD0AFCFCECF5F007CC36FD08CCD0
:10420C0037FD09CC38FD0ACC39FD0D0120EE0BF041
:10421C006351D9266451DA22200EDF6E46CD04FCA0
:10422C0047CD05FC63CD06FC64CD07FC000E0C01EC
:10423C00086F000E096F000E0A6F000E0B6F2AEC50
:10424C00FDF01C0E0D0163250C01006F000E0D011D
:10425C0064210C01016F000E026F000E036F000E43
:10426C00046F000E056FFBECF7F00D0120EE04F06F
:10427C004651D9264751DA22010EDF6E36513711DD
:10428C0038113911D8B461D020EE2CF04651D92612
:10429C004751DA22DEC43AFDDEC43BFDDEC43CFDF0
:1042AC00DEC43DFD490E0C01B36F0D0EB46F36CD5F
:1042BC00B5FC37CDB6FC38CDB7FC39CDB8FC000E0B
:1042CC00B96F000EBA6F000EBB6F000EBC6FC8EC5E
:1042DC00CEF00D01486F4851D8A437D046CD87FC9D
:1042EC0047CD88FC3ACD89FC3BCD8AFC3CCD8BFC80
:1042FC003DCD8CFC48ECECF00D01486FFF0E3625E3
:10430C00266FFF0E3721276FFF0E3821286FFF0E07
:10431C003921296F20EE0CF04651D9264751DA226B
:10432C0026CDDEF427CDDEF428CDDEF429CDDEF467
:10433C000CD04851D8A409D04DA902D0040E04D0F9
:10434C0025B34DA102D0070E486F4851D8A420D0F8
:10435C0025B7258D20EE2CF04651D9264751DA226F
:10436C0010EE1CF02151E1262251E222DEC4E6F4CB
:10437C00DEC4E6F4DEC4E6F4DEC4E6F420EE20F09F
:10438C002151D9262251DA2263CDDEF464CDDDF43D
:10439C004851D8A4C1D146CD07FC47CD08FC63CD0C
:1043AC0009FC64CD0AFCFCECF5F00D0120EE06F0E6
:1043BC002151D9262251DA220C0107CCDEF408CC8B
:1043CC00DEF409CCDEF40ACCDEF41C0E0D01632500
:1043DC000C01006F000E0D0164210C01016FD9EC72
:1043EC00E9F00D0120EE0AF02151D9262251DA22F2
