:0400000081EF00F09C
:10000800720872087208720840007208400072088C
:100018007208720872087208720872087208720808
:1000280072084000400040007208720872087208A6
:1000380072087208720872087208720872087208E8
:10004800720872087208720840004000720872084C
:100058007208720872084000720872087208720802
:1000680072087208720872087208720872087208B8
:1000780072087208720872084000720872087208E2
:100088007208720872087208720872087208720898
:100098007208720872087208400072084000400036
:1000A8007208720872087208720872087208720878
:1000B8007208720872087208720872087208720868
:1000C8007208720872087208720872087208720858
:1000D8007208720872087208720872087208720848
:1000E800400072087208720840004000400040005A
:1000F8007208720872087208FF0094EFF7F0000E99
:1001080006013F6F20EE2CF03551D9263651DA2200
:100118003751DE180AE13851DE1807E13951DE1887
:1001280004E13A51DE18D8B43FD035C623F636C6B6
:1001380024F62DECDFF006013F6F3F51D8A434D0F0
:10014800300E3525196F000E36211A6F37C61BF68B
:1001580038C61CF639C61DF63AC61EF6000E206FC4
:10016800010E1F6F20EE01F03551D9263651DA22E3
:10017800DF508BECE8F00009D8B407D006013769E6
:10018800386939693A69010E3F6F060120EE2CF093
:100198003551D9263651DA2237C6DEF438C6DEF4B0
:1001A80039C6DEF43AC6DEF43F5112001050111081
:1001B800121013101410151016101710D8B43CD0C4
:1001C800010E186E0AD0D890103611361236133632
:1001D8001436153616361736182A17AEF4D71050B7
:1001E800085C1150095812500A5813500B581450F3
:1001F8000C5815500D5816500E5817500F58D8A0B7
:1002080010D01050085E1150095A12500A5A135053
:100218000B5A14500C5A15500D5A16500E5A1750A6
:100228000F5AD8901732163215321432133212324E
:1002380011321032182ED3D708C508F509C509F5AB
:100248000AC50AF50BC50BF50CC50CF50DC50DF562
:100258000EC50EF50FC50FF512000AC513F50BC52F
:1002680014F50C501324116E0D501420126E41D049
:1002780008C50EF509C508F50EC509F513C5D9F465
:1002880014C5DAF4DF500E6E0E50081A134A142AF9
:1002980008C50EF509C50FF5040E106ED8900F327B
:1002A8000E32102EFBD70F0E0E16000E0F160E5024
:1002B800081A0F50091A08C50EF509C50FF50C0ED6
:1002C800D8900E360F36E82EFBD70E50081A0F506E
:1002D800091AFF0E08140E6E000E09140F6E050E93
:1002E800D8900E360F36E82EFBD70E50081A0F504E
:1002F800091A1150135C12501458D8A0B9D708C560
:1003080008F509C509F51200A5C6D8F5A6C6D9F598
:10031800A90E0501DA6F060EDB6F7EECFCF0060114
:10032800AB6FAB51D8A444D0A751A811D8A40FD013
:10033800A5C65AF6A6C65BF6000E5C6F000E5D6F8A
:10034800000E5E6F000E5F6F49ECC1F030D0A5C69D
:1003580098F6A6C699F6000E9B6F000E9A6F12ECDF
:10036800EEF0AB6F040EAB19D8A402D0000EAB6F41
:10037800AB51D8A41DD0A5C615F5A6C616F5A7C6B7
:1003880017F5A8C618F5B5ECD4F0A5C67EF6A6C62E
:100398007FF6000E0601816F000E806F70ECB9F0D9
:1003A8000601AB6F040EAB19D8A402D0000EAB6FD8
:1003B800AB51120008C510F509C511F50AC512F5AB
:1003C8000BC513F507D00C06D8A00D06104A112A44
:1003D800124A132A0C500D10D8B41AD010C5D9F4EB
:1003E80011C5DAF4DF500E6E12C5F6F413C5F7F432
:1003F800000EF86E250EF76403D00800F55005D0FE
:10040800F6C4E9F4F7C4EAF4EF500E18D8B4DBD711
:100418000C500D10D8A405D0000E096E000E086E01
:10042800120010C5D9F411C5DAF4DF500E6E12C5EA
:10043800F6F413C5F7F4000EF86E250EF76403D032
:100448000800F55005D0F6C4E9F4F7C4EAF4EF5013
:100458000F6E0F500E5C086E096AD8A009061200CC
:10046800000E496E000E4A6E000E4B6E000E4C6E6A
:10047800000E4D6E000E4E6E000E4F6E000E506E4A
:10048800498E43B04D8E498441C545F542C546F570
:1004980043C547F544C548F5120E05D0D8904832F3
:1004A800473246324532E82EF9D745A04D84498671
:1004B80041C545F542C546F543C547F544C548F528
:1004C800130E05D0D8904832473246324532E82ECE
:1004D800F9D745B04D86660E356E070E366E49C59E
:1004E80037F54AC538F54BC539F54CC53AF54DC50C
:1004F8003BF54EC53CF54FC53DF550C53EF50DECF9
:10050800FFF012000701F729F811D8A466EC0BF0E8
:100518000501EE51F06FEF51F16FF26BF36BF1C51E
:10052800F3F5F0C5F2F5F16BF06B660EF025E26FAE
:10053800000EF121E36F000EF221E46F000EF321AB
:10054800E56F770EE66F070EE76F000EE96F030E93
:10055800E86F82EC06F00501EE51F06FEF51F16F94
:10056800F26BF36BF1C5F3F5F0C5F2F5F16BF06BD7
:10057800660EF025E26F000EF121E36F000EF22106
:10058800E46F000EF321E56FEF0EE66FE40EE76F00
:10059800000EE96F030EE86FBEEC06F0EEC5F7F744
:1005A800EFC5F8F712000D500E10D8B404D00D5056
:1005B8000E10D8A404D00B5021EC13F0120020EE3A
:1005C80009F00D50D9260E50DA22DE50DE10D8B4CC
:1005D80016D020EE09F00D50D9260E50DA2210EE72
:1005E80003F00D50E1260E50E222DE50E65CE650A4
:1005F800800A136EDE50800A1358D8B0120020EE1D
:1006080003F00D50D9260E50DA22DEC40FF5DDC4F2
:1006180010F50DC5D9F40EC5DAF4DEC411F5DDC444
:1006280012F50F501124D96E10501220DA6E0BC536
:10063800DFF420EE03F00D50D9260E50DA22DE2A20
:10064800000EDD2212001CC529F51DC52AF520EE75
:100658000BF02950D9262A50DA22DE50DE10DE109F
:10066800D8B41ED01CC508F51DC509F51EC50AF568
:100678001FC50BF520C50CF521C50DF520EE0BF0B7
:100688002950D9262A50DA2201D812000500FA6E1C
:10069800DE50FD6EDE50FE6EDE50FF6EFA50120028
:1006A8001EC525F51FC526F5000E286E000E276EFF
:1006B80011D01CC50EF51DC50FF5FF0E106E0EEC02
:1006C800EBF025C5D9F426C5DAF4DF6E254A262ACB
:1006D800274A282A2050275C21502858D8B01200D1
:1006E800E8D70701F929FA11D8A4ECEC0BF00501B9
:1006F800EE51F06FEF51F16FF26BF36BF1C5F3F55B
:10070800F0C5F2F5F16BF06BF0C5E2F5F1C5E3F574
:10071800F2C5E4F5F3C5E5F5000EE66F0B0EE76FDD
:10072800010EE96F000EE86F82EC06F00501EE514C
:10073800F06FEF51F16FF26BF36BF1C5F3F5F0C5A4
:10074800F2F5F16BF06BF0C5E2F5F1C5E3F5F2C532
:10075800E4F5F3C5E5F5890EE66FE40EE76F000EE4
:10076800E96FB50EE86FBEEC06F0EEC5F9F7EFC518
:10077800FAF7000E0701456F000E446F12000601DC
:10078800EF51F011D8A405D0EFC61AF5F0C61BF545
:1007980006D0FF0EEF251A6EFF0EF0211B6E58A033
:1007A80009D016C50BF50C6A14C50DF515C50EF55F
:1007B800D7EC02F01BAE04D0000E1B6E000E1A6EB2
:1007C800000E196E000E186E0CD0000E0C6E200E66
:1007D8000B6E14C50DF515C50EF5D7EC02F0184AC9
:1007E800192A1A50185C1950800A176E1B50800A73
:1007F8001758D8A0EAD758B009D016C50BF50C6A17
:1008080014C50DF515C50EF5D7EC02F0010E182428
:10081800146E000E1920156E12000A6E7B0EF66E0D
:10082800DF0EF76E000EF86E0900F5500A5CD8A0CE
:100838003CD07C0EF66EDF0EF76E000EF86E0A5096
:100848000900F55CD8A005D0000E096E010E086EEF
:1008580012007D0EF66EDF0EF76E000EF86E0900C0
:10086800F5500A5CD8A00BD07E0EF66EDF0EF76E40
:10087800000EF86E0A500900F55CD8B0E5D77F0E77
:10088800F66EDF0EF76E000EF86E0900F5500A5C82
:10089800D8A00BD0800EF66EDF0EF76E000EF86E45
:1008A8000A500900F55CD8B0CFD7000E096E000ECB
:1008B800086E12001CC529F51DC52AF520EE08F0A2
:1008C8002950D9262A50DA22DE50DE10DE10D8B49C
:1008D8001ED01CC508F51DC509F51EC50AF51FC59E
:1008E8000BF520C50CF521C50DF520EE08F02950B3
:1008F800D9262A50DA2201D812000500FA6EDE50F5
:10090800FD6EDE50FE6EDE50FF6EFA5012001EC500
:1009180025F51FC526F5000E286E000E276E10D08F
:100928001CC50EF51DC50FF525C5D9F426C5DAF485
:10093800DF50106E0EECEBF0254A262A274A282AAB
:100948002050275C21502858D8B01200E9D758A069
:100958000AD01DC514F51EC515F51BC516F51CC511
:1009680017F5E2EC0FF020BE05D01FC524F520C511
:1009780025F504D0000E256E000E246E000E236EA1
:10098800000E226E0CD0000E0C6E200E0B6E1BC5D6
:100998000DF51CC50EF5D7EC02F0224A232A245087
:1009A800225C2350800A216E2550800A2158D8A045
:1009B800EAD758B00AD01DC514F51EC515F51BC5D4
:1009C80016F51CC517F5E2EC0FF01DC508F51EC598
:1009D80009F508EC0FF0245008241B6E2550092057
:1009E8001C6E12000501DD6F010E0501DE6F10D0CF
:1009F800000EDE6F23D0150EBE6FEC0EBF6FDDC587
:100A0800C0F5C16BD8C5C2F5C36BADEC11F016D0FB
:100A1800D851DB6FDC6BDC51000AD8A4ECD7DB5172
:100A2800000AD8B4E5D7010AD8B4E5D7030AD8B480
:100A3800E2D7010AD8B4DFD7070ADDD70601F1519A
:100A4800F211D8B416D0080E0501BE6FEA0EBF6FBA
:100A5800DDC5C0F5C16BD8C5C2F5C36BD9C5C4F532
:100A6800DAC5C5F5C66BC76BDEC5C8F5C96BADEC95
:100A780011F00501DE511200000E0814106E000E70
:100A88000914116E800E0A14126E7F0E0B14136E69
:100A98001050111012101310D8A408D0000E086EB0
:100AA800000E096E000E0A6E000E0B6E000E0C147E
:100AB800106E000E0D14116E800E0E14126E7F0E45
:100AC8000F14136E1050111012101310D8A408D060
:100AD800000E0C6E000E0D6E000E0E6E000E0F6EE8
:100AE8000C5008180AE10D50091807E10E500A18B1
:100AF80004E10F500B18D8B402D0D8901200D88057
:100B08001200000E0D6E000E0C6E0801CC51D8B408
:100B180002D0010E01D0000E0C12CD51D8A40C82C7
:100B2800CE51D8A40C84CF51D8A40C860CC508F596
:100B38000DC509F5ABEC12F0000E0D6E000E0C6E33
:100B48000801D051D8B402D0010E01D0000E0C1209
:100B5800D151D8A40C82D251D8A40C84D351D8A492
:100B68000C860CC508F50DC509F5B8EC12F0D4C80B
:100B780043F4D5C844F4D6C845F4D4C843F4D5C81A
:100B880044F4D6C845F41200000E106E000E116E23
:100B9800000E126E000E136E0C500D100E100F107A
:100BA800D8B42AD0010E146E06D0D8900C360D3663
:100BB8000E360F36142A0FAEF8D7D89010361136E5
:100BC800123613360C50085C0D5009580E500A584E
:100BD8000F500B58D8A009D00C50085E0D50095A78
:100BE8000E500A5A0F500B5A1080D8900F320E32FE
:100BF8000D320C32142EE1D710C508F511C509F5D0
:100C080012C50AF513C50BF5120000FF060006A56C
:100C1800065A06FF0A000AA50A5A0AFF008040C0C1
:100C280020A060E0109050D030B070F00008040CA4
:100C3800020A060E0109050D030B070F286E756CD5
:100C48006C29001A0000001A0000001A0000001A9F
:100C5800000000000000000000000000000000008C
:100C6800000000800000008000000080000000807C
:100C78000000000000000000000000000000006408
:030C880040000029
:100C8C00ECEC0BF066EC0BF060516111D8A429D0A0
:100C9C0056C5EAF557C5EBF539EC0EF05650050183
:100CAC00F06F5750F16FF26BF36BF1C5F3F5F0C5C4
:100CBC00F2F5F16BF06B0B0EF025E26F000EF121EB
:100CCC00E36F000EF221E46F000EF321E56FE70EE7
:100CDC00E66FE50EE76F000EE96F010EE86FBEECF4
:100CEC0006F0070142514311D8B41200000E060160
:100CFC00F46F010EF36F1200E2C5D8F5E3C5D9F518
:100D0C00E4C5DAF5E5C5DBF501D80BD00500FA6EC4
:100D1C000701DB51FD6EDC51FE6EDD51FF6EFA50AA
:100D2C00120001D80CD00500FA6E0701DE51FD6EE1
:100D3C00DF51FE6EE051FF6EFA50FF0E1200E2C55D
:100D4C0008F5E3C509F5E6C50AF5E7C50BF5E8C5F1
:100D5C000CF5E9C50DF501D812000500FA6E080175
:100D6C00EE51FD6EEF51FE6EF051FF6EFA50120017
:100D7C00E2C5D8F5E3C5D9F5E4C5DAF5E5C5DBF58B
:100D8C0001D80BD00500FA6E0701DB51FD6EDC516A
:100D9C00FE6EDD51FF6EFA50120001D80CD005002A
:100DAC00FA6E0701DE51FD6EDF51FE6EE051FF6EF3
:100DBC00FA50000E1200E2C508F5E3C509F5E6C5C8
:100DCC000AF5E7C50BF5E8C50CF5E9C50DF501D835
:100DDC0012000500FA6E0801F451FD6EF551FE6E1D
:100DEC00F651FF6EFA5012001A0E1124086E000E06
:100DFC001220096EC6EC0FF008C517F509C518F5D9
:100E0C00196A1A6A0FC5D9F410C5DAF4030EDE1884
:100E1C00D8A41CD0140E1124086E000E1220096EDA
:100E2C00C6EC0FF00850136E0950146E156A166A52
:100E3C0014C516F513C515F5146A136A1350171259
:100E4C00145018121550191216501A1217C50FF506
:100E5C0018C510F519C511F51AC512F51200F5C50E
:100E6C00D8F5F6C5D9F5F7C5DAF5F8C5DBF5F9C54A
:100E7C00DCF5FAC5DDF5A2ECF2F0000EFF6FF7C55C
:100E8C00FBF5F8C5FCF5000EFE6F000EFD6F0AD0E9
:100E9C00FBC5D9F4FCC5DAF4DF50FF27FB4BFC2B68
:100EAC00FD4BFE2BF951FD5DFA51FE59D8A0F0D740
:100EBC00210EBE6FF30EBF6FF5C5C0F5F6C5C1F5BB
:100ECC004C0EC26FF00EC36FFFC5C4F5C56BADEC15
:100EDC0011F01200080E0001B16F000E0401006F3A
:100EEC00000E086F000E106F000E186F20912093EB
:100EFC002095C292CA92010E0201D56FA00ED46F3A
:100F0C00D189D18BC68E070E766FBE8CC69C260EF1
:100F1C00076FD28FC290CA90000EBF6E000EC76EC4
:100F2C00000EC06E000EC86E3F0E046FC696320ED9
:100F3C000401436F330E446F030E456F000E476F71
:100F4C004691468B468F120008C512F509C513F55C
:100F5C0013C5C1F412C5BFF4000E116E000E106E55
:100F6C0026D0BE9810500A240E6E11500B200F6E16
:100F7C000EC5F6F40FC5F7F4000EF86E250EF764E7
:100F8C0004D0D0C4F5F40C0006D0F6C4E9F4F7C4D0
:100F9C00EAF4D0C4EFF4BE88122A12C5BFF4125082
:100FAC00D8A403D0132A13C5C1F4104A112A0C502B
:100FBC00105C0D501158D8B01200D3D74D51D8B485
:100FCC001200F2C5F4F5010E0501F56F000EF66F77
:100FDC00F42B03D0D890F537F637F42FFBD7070155
:100FEC003E510501F51707013F510501F617F55163
:100FFC00F611D8A41200F2C5EAF5F3C5EBF539ECFD
:10100C000EF0F2C5F4F5010E0501F56F000EF66F4A
:10101C00F42B03D0D890F537F637F42FFBD7050116
:10102C00F55107013E130501F65107013F1312005C
:10103C002EC5D9F42FC5DAF4DEC435F5DDC436F58A
:10104C0020EE06F02E50D9262F50DA22DF50316ECA
:10105C00D89031344109326E30C533F535C50CF5B5
:10106C0036C50DF5E4EC0CF035C51CF536C51DF593
:10107C00320E1E6E050E1F6E000E216E020E206EBD
:10108C005EEC04F035C52BF536C52CF51DEC12F0D5
:10109C00346E35C50CF536C50DF541EC11F03450F8
:1010AC00120008C512F509C513F513C5C1F412C514
:1010BC00BFF4000E116E000E106E25D0BE941050B1
:1010CC000A240E6E11500B200F6E0EC5F6F40FC5D0
:1010DC00F7F4000EF86E250EF76403D00800F550F7
:1010EC0005D0F6C4E9F4F7C4EAF4EF50C06EBE8440
:1010FC00122A12C5BFF41250D8A403D0132A13C558
:10110C00C1F4104A112A0C50105C0D501158D8B073
:10111C001200D4D70A6E770EF66EDF0EF76E000E45
:10112C00F86E0900F5500A5CD8A026D0780EF66E41
:10113C00DF0EF76E000EF86E0A500900F55CD8A0B1
:10114C0005D0000E096E010E086E1200790EF66EB7
:10115C00DF0EF76E000EF86E0900F5500A5CD8A091
:10116C000BD07A0EF66EDF0EF76E000EF86E0A508C
:10117C000900F55CD8B0E5D7000E096E000E086EBC
:10118C001200D69E070138513911D8B41FD0B00EB9
:10119C003625D96E0A0E3721DA6EDF500E6E010E2F
:1011AC003625086E000E3721096E000E0B6E500EA0
:1011BC000A6E2AEC0FF008C536F709C537F7380761
:1011CC00D8A03907A780D68E0E5012000601F35115
:1011DC00F411D8B403D0D68E000E1200D68E150E94
:1011EC000D6EC60EE82EFED70D2EFCD700D0C9D73B
:1011FC004A6E00C74BF501C74CF56EC54FF56FC570
:10120C0050F56AC544F56BC545F56CC546F56DC51D
:10121C0047F54FC548F550C549F54A5065ECFFF008
:10122C0044C54DF545C54EF54D504E10D8B403D0C0
:10123C0084EC11F012004BC508F54CC509F5010EF4
:10124C004F240A6E000E50200B6EFF0E70250C6E94
:10125C00FF0E71210D6EF7ECC8F0EAD708C5D9F472
:10126C0009C5DAF40AC5DFF4084A092A0B500A6EDC
:10127C000C500B6E0D500C6E0D6A08C5D9F409C5D7
:10128C00DAF40AC5DFF4084A092A0B500A6E0C502E
:10129C000B6E0D500C6E0D6A08C5D9F409C5DAF445
:1012AC000AC5DFF4084A092A0B500A6E0C500B6E63
:1012BC000D500C6E0D6A08C5D9F409C5DAF40AC5CF
:1012CC00DFF4084A092A120010C5F6F411C5F7F428
:1012DC00000EF86E0800F5500C6E0D6A6EEC11F0F5
:1012EC000CC517F50DC518F5104A112A12C5D9F4FD
:1012FC0013C5DAF4DF50146E14500C6E0D6A6EECDC
:10130C0011F00CC515F50DC516F5124A132A15501A
:10131C00171808E116501818D8A404D01750181034
:10132C00D8A4D2D71550175C106E16501858116EE1
:10133C001200660E356E070E366E000E386E010EFC
:10134C00376EB0ECDDF035C53FF536C540F5660EB1
:10135C00356E070E366E000E386E050E376E000EAB
:10136C003A6E010E396EAEECF4F0660E356E070E69
:10137C00366E000E386E060E376E000E3A6E010E8B
:10138C00396EAEECF4F0660E356E070E366E3FC558
:10139C0037F540C538F5B0ECDDF012003EC540F530
:1013AC003FC541F520EE02F04050D9264150DA22DB
:1013BC00000EDF6E000E0001846F000E856F110EA3
:1013CC0002016A6F120E6B6F660E086E070E096EC5
:1013DC00D1EC12F008500910D8B40FD0660E356E4F
:1013EC00070E366E000E386E000E376E000E3A6E1B
:1013FC00010E396E2CECF5F001D0CA940001848FEB
:10140C0012000C500D100E100F10D8B424D0010E79
:10141C00106E06D0D8900C360D360E360F36102ABC
:10142C000FAEF8D70C50085C0D5009580E500A58E6
:10143C000F500B58D8A008D00C50085E0D50095A0C
:10144C000E500A5A0F500B5AD8900F320E320D32E2
:10145C000C32102EE7D708C508F509C509F50AC5E1
:10146C000AF50BC50BF512002BC5D9F42CC5DAF413
:10147C00DEC433F5DDC434F520EE06F02B50D9264E
:10148C002C50DA22DF502F6ED8902F344009306E5A
:10149C002DC531F52EC532F533C50CF534C50DF51A
:1014AC00E4EC0CF033C51CF534C51DF5300E1E6E86
:1014BC00050E1F6E000E216E030E206E5EEC04F006
:1014CC0033C50CF534C50DF541EC11F012000AC50D
:1014DC0010F50BC511F50C500D10D8B412000DC53C
:1014EC0083F00CC582F010C5D9F411C5DAF4DF50C5
:1014FC000001816F104A112A000E0F6E010E0E6E44
:10150C000ED010C5D9F411C5DAF4DF50816F104A32
:10151C00112AB1A0FED7000180510E4A0F2A0C509F
:10152C000E5C0D500F58D8A0ECD7B1A0FED700011F
:10153C008051120052ECFBF056500501F86F5750D9
:10154C00F96FFA6BFB6BF9C5FBF5F8C5FAF5F96B9E
:10155C00F86BF8C541F5F9C542F5FAC543F5FBC57D
:10156C0044F501D80BD00500FA6E0701D851FD6E79
:10157C00D951FE6EDA51FF6EFA50120001D81200EA
:10158C000500FA6E0801EB51FD6EEC51FE6EED514B
:10159C00FF6EFA50010E1200B8C5BCF5B9C5BDF509
:1015AC00000E0701236F000E226F17D0B6C593F5FE
:1015BC00B7C594F5BC0E0501956F050E966FBAC5AF
:1015CC0097F5BBC598F500EC80F005019351070128
:1015DC0022270501945107012323BCC5F6F4BDC590
:1015EC00F7F4000EF86E0800F5500009D8A4DED709
:1015FC00000E0501B76F000EB66F120004D0084A3A
:10160C00092A0A4A0B2A08C5D9F409C5DAF4DF50AD
:10161C000C6E0AC5F6F40BC5F7F4000EF86E080054
:10162C00F5500C18D8A407D008C5D9F409C5DAF4BC
:10163C00DF50D8A4E4D708C5D9F409C5DAF4DF50D3
:10164C000C6E0AC5F6F40BC5F7F4000EF86E080024
:10165C00F5500C5C086E096AD8A009061200000E41
:10166C00106E08C511F509C512F50A5011240C6E3F
:10167C000B5012200D6E1CD011C5D9F412C5DAF422
:10168C00DF50101A114A122A000E0F6E000E0E6E49
:10169C0010AE02D0890E101AD89010360E4A0F2AAE
:1016AC000FBEF6D70F5004E1080E0E5CD8A0F0D791
:1016BC000C50115C0D501258D8A0DED710501200EF
:1016CC00F729F811D8B41200F7510501EA6F070198
:1016DC00F8510501EB6FEC6BED6BEBC5EDF5EAC565
:1016EC00ECF5EB6BEA6B660EEA25E26F000EEB2174
:1016FC00E36F000EEC21E46F000EED21E56F770E29
:10170C00E66F070EE76F000EE96F030EE86FBEEC95
:10171C0006F0000E0701F86FF7691200516E070111
:10172C00FB51D8B404D0AA0E5118D8A41200AA0E9A
:10173C005118D8A403D0000EFB6F120051AC0CD082
:10174C00D30E0501BE6FF10EBF6F000EC16FA00E60
:10175C00C06FADEC11F0FF0051AE12003E0E050152
:10176C00BE6FF20EBF6F000EC16FA00EC06FADEC5E
:10177C0011F0FFD70BBE07D00B500A1009101DE15A
:10178C000804D8B01AD008C50CF509C50DF50AC562
:10179C000EF50BC50FF50C1E0D1E0E1E0F1E0C2A82
:1017AC00000E0D220E220F220CC508F50DC509F5F1
:1017BC000EC50AF50FC50BF5120008C508F509C5CD
:1017CC0009F50AC50AF50BC50BF512000701F92935
:1017DC00FA11D8B41200F9510501EA6F0701FA5158
:1017EC000501EB6FEC6BED6BEBC5EDF5EAC5ECF5BC
:1017FC00EB6BEA6BEAC5E2F5EBC5E3F5ECC5E4F59A
:10180C00EDC5E5F5000EE66F0B0EE76F010EE96F07
:10181C00000EE86FBEEC06F0000E0701FA6FF969D6
:10182C001200516E5150D8B40ED00601F151F21184
:10183C00D8B407D0810E0501BE6FF30EBF6FADECAF
:10184C0011F0020E12000701E72914E1E82912E158
:10185C00E92910E1EA29D8A40DD00601F151F211C1
:10186C00D8B4EFD77E0E0501BE6FF50EBF6FADEC91
:10187C0011F0E7D7000E1200000E106E000E116E64
:10188C00000E126E000E136E08A008D00C5010261D
:10189C000D5011220E5012220F501322D8900C36DC
:1018AC000D360E360F36D8900B320A32093208320A
:1018BC00085009100A100B10D8A4E6D710C508F56B
:1018CC0011C509F512C50AF513C50BF512001868F8
:1018DC0012C508F513C509F5F0EC0DF0000E176EE6
:1018EC00000E166E10D012C508F513C509F5180EAA
:1018FC000A6E050E0B6E000E0D6E010E0C6E6DEC6D
:10190C000AF0164A172A1450165C15501758D8A00E
:10191C00EAD712C508F513C509F5FEEC0FF0120055
:10192C005A0E0501BE6FE80EBF6FADEC11F0D60E6E
:10193C00BE6FF20EBF6FADEC11F0110E0501D96F39
:10194C003C0ED86FCB0EE82EFED7D82FFCD7D92F54
:10195C00FAD7BD0E0501BE6FF20EBF6FADEC11F0E4
:10196C005A0EBE6FE80EBF6FADEC11F01200C20E36
:10197C00D16F050ED26FBEC5C6F5BFC5C7F5000E3B
:10198C00CA6F000EC96F000ED06F000ECF6FC60E5F
:10199C00B66F050EB76FC0C5B8F5C1C5B9F5D10E98
:1019AC00BA6F050EBB6FD2EC0AF0C951BE25D96EC9
:1019BC00CA51BF21DA6E000EDF6E12000CC50EF597
:1019CC000DC50FF520EE05F00E50D9260F50DA227A
:1019DC00C8C4DFF4C896C898C88A20EE03F00E502D
:1019EC00D9260F50DA22DF50D8B402D0C08801D0EB
:1019FC00C098C0860CC508F50DC509F5000E0B6E18
:101A0C00010E0A6E29EC13F01200066ED69E070129
:101A1C0039511AE1500E385DD8B016D038513625F0
:101A2C00016E39513721026E000E046E500E036E9A
:101A3C006CEC0FF0B00E0124D96E0A0E0220DA6E97
:101A4C0006C5DFF4384B392B395103E1400E385DB4
:101A5C00D8B0A790D68E1200010E146E200E0E1068
:101A6C00106E000E0F10116E9F0E1024126EFF0ED2
:101A7C001120136E135004E11A0E125CD8A00ED074
:101A8C00D00E0E24106EFF0E0F20116E115004E1BB
:101A9C000A0E105CD8A002D0000E146E14C50EF500
:101AAC000F6A12000D6ED69E0701355104E1500EDF
:101ABC00345DD8A004D0B7A2FED77EEC0DF0345123
:101ACC003225086E35513321096E000E0B6E500E07
:101ADC000A6E2AEC0FF0600E0824D96E0A0E09204B
:101AEC00DA6E0DC5DFF4344B352BA782D68E12007F
:101AFC001DD0600E3225D96E0A0E3321DA6EDF50FE
:101B0C000201C96F010E07013225086E000E332148
:101B1C00096E000E0B6E500E0A6E2AEC0FF008C503
:101B2C0032F709C533F73407D8A03507070134510C
:101B3C003511D8B41200B7A21200DBD7660E086EAE
:101B4C00070E096ED1EC12F008500910D8B414D05D
:101B5C00660E356E070E366E000E386E000E376E42
:101B6C0040504110D8A402D0010E01D0000E396EA5
:101B7C003A6A2CECF5F0120040504110D8A402D077
:101B8C00C2841200C29412001DD0600E3225D96E90
:101B9C000A0E3321DA6EDF500201C96F010E070104
:101BAC003225016E000E3321026E000E046E500EB3
:101BBC00036E6CEC0FF001C532F702C533F7340736
:101BCC00D8A03507070134513511D8B41200B7A28B
:101BDC001200DBD708C50AF509C50BF520EE02F09B
:101BEC000A50D9260B50DA22DF50D8A410D0310E6F
:101BFC000201126F320E116F20EE03F00A50D9263B
:101C0C000B50DA22C8C4DFF4C890C892C88420EE06
:101C1C0002F00A50D9260B50DA22DF2A120012D019
:101C2C0008C5D9F409C5DAF4DFC40AF5010EDE26BD
:101C3C00DFC40BF5000EDD220AC5D9F40BC5DAF4AE
:101C4C00000EDF6E08C5D9F409C5DAF4DEC40AF556
:101C5C00DDC40BF50AC5D9F40BC5DAF4200EDE1879
:101C6C00D8A41200DDD70501EA51EC6FEB51ED6FF2
:101C7C00EE6BEF6BEDC5EFF5ECC5EEF5ED6BEC6BCC
:101C8C00080EEC25E26F000EED21E36F000EEE2145
:101C9C00E46F000EEF21E56F910EE66FE40EE76F37
:101CAC00000EE96F060EE86FBEEC06F01200000E97
:101CBC00251A000E261A000E271A800E281A21C586
:101CCC0008F522C509F523C50AF524C50BF525C56C
:101CDC000CF526C50DF527C50EF528C50FF551ECED
:101CEC00BEF008C521F509C522F50AC523F50BC5BB
:101CFC0024F5120008C5F6F409C5F7F4000EF86EC9
:101D0C000800F5500A18D8A405D008C508F509C56F
:101D1C0009F5120008C5F6F409C5F7F4084A092AB2
:101D2C00000EF86E0800F5500009D8A4E3D7000E99
:101D3C00086E000E096E120004011969C968096960
:101D4C00C7681169C8680181C6800183C682018B8E
:101D5C00C68A198DC98CC18EC99E550E596FAA0E93
:101D6C00596F5991080E5D6F000E5E6F000E5F6F1C
:101D7C00550E596FAA0E596F59811200CC0E0601DF
:101D8C00CC6F180ECD6FB00ECE6FFF0ECF6F010E55
:101D9C00D06FB2ECF9F00009D8B40DD0090E0501E2
:101DAC00BE6FF20EBF6FADEC11F0FF0E0601D96FD6
:101DBC00FE0ED86F1200000ED96F000ED86F1200F5
:101DCC000AC511F50BC512F508C50FF509C510F5B7
:101DDC0010D011C5D9F412C5DAF4DF500E6E114AC9
:101DEC00122A0FC5D9F410C5DAF40EC5DFF40F4A68
:101DFC00102A0C06D8A00D060C28EBE10D28D8B43F
:101E0C001200E7D708C50AF509C50BF502D0084A38
:101E1C00092A08C5F6F409C5F7F4000EF86E250E6C
:101E2C00F76403D00800F55005D0F6C4E9F4F7C404
:101E3C00EAF4EF500009D8A4EAD70A50085C086EFF
:101E4C000B500958096E12000A500B10D8B418D058
:101E5C00010E0C6E04D0D8900A360B360C2A0BAE41
:101E6C00FAD70A50085C0B500958D8A004D00A5075
:101E7C00085E0B50095AD8900B320A320C2EF1D74F
:101E8C0008C508F509C509F512001A0E0E24086ECE
:101E9C00000E0F20096E10C50AF511C50BF599EC53
:101EAC0011F00CC5D9F40DC5DAF4030EDE18D8A464
:101EBC001200140E0E24086E000E0F20096E12C5AF
:101ECC000AF513C50BF599EC11F012000350041030
:101EDC00D8B418D0010E056E04D0D8900336043651
:101EEC00052A04AEFAD70350015C04500258D8A05E
:101EFC0004D00350015E0450025AD89004320332CD
:101F0C00052EF1D701C501F502C502F512000AC56F
:101F1C000CF50BC50DF508C50EF509C50FF50CC56F
:101F2C00F6F40DC5F7F40C4A0D2A000EF86E0EC52A
:101F3C00D9F40FC5DAF40E4A0F2A0800F5C4DFF401
:101F4C00DF50D8B41200EBD741504210D8B40CD0AB
:101F5C00000E0201056F000E036FBE88BE84400E9A
:101F6C00C96E000EC76E12009FEC09F07F0EC96E91
:101F7C00C768C868010E0201056F020E036F1200DC
:101F8C0020EE01F00850D9260950DA22DF500A6EF3
:101F9C000A500D6E0E6A08C5D9F409C5DAF4DF5083
:101FAC000A6E0D500B6E0A500D6E0BC50EF50DC55D
:101FBC0008F50EC509F51200000E1A6E000E196E0A
:101FCC000BD018C50BF50C6A16C50DF517C50EF51B
:101FDC00D7EC02F0194A1A2A19501424D96E1A5047
:101FEC001520DA6EDF50186E1850D8B41200E9D7ED
:101FFC0008C50AF509C50BF520EE02F00A50D926E2
:10200C000B50DA22DF06DF50D8A41200000E0201BA
:10201C00126F000E116F20EE03F00A50D9260B50F0
:10202C00DA22DF50C86E12000D6E0D500F0B086EC9
:10203C00096A120E0824D96E080E0920DA6EDF50D8
:10204C000A6E0D380F0B0F0B0B6E0C6A220E0B2445
:10205C00D96E080E0C20DA6EDF500A10120007D071
:10206C0008C5D9F409C5DAF4DE2A000EDD2208C54C
:10207C00D9F409C5DAF4DEC40AF5DDC40BF50AC5DA
:10208C00D9F40BC5DAF4200EDE18D8A41200E8D768
:10209C0032C515F533C516F534C517F535C518F524
:1020AC0036C519F537C51AF5000E1B6E22ECBBF0C0
:1020BC0015C532F516C533F517C534F518C535F504
:1020CC0012005B0EBE6FEF0EBF6FD8C5C0F5D9C541
:1020DC00C1F5DAC5C2F5DBC5C3F5DEC5C4F5DFC590
:1020EC00C5F5DCC5C6F5DDC5C7F5ADEC11F072EC78
:1020FC0013F012001BBE05D01B5010E11A04D8B00F
:10210C000DD01AC51CF51BC51DF51C1E1D1E1C4A29
:10211C001D2A1CC51AF51DC51BF512001AC51AF58A
:10212C001BC51BF51200010E0C6E200E08180910B1
:10213C00D8B40ED0F70E08240A6EFF0E09200B6ED1
:10214C000B5004E1050E0A5CD8A002D0000E0C6EF8
:10215C000CC508F5096A12001B6E00C71CF501C7F7
:10216C001DF51CC516F51DC517F53FEC12F01E6EBE
:10217C001B501E18D8A407D01906D8A01A0619503F
:10218C001A10D8A4EED71E501200200E08100A6E9A
:10219C00000E09100B6E9F0E0A240C6EFF0E0B2006
:1021AC000D6E0D5006E11A0E0C5CD8B002D0010E6B
:0A21BC0001D0000E086E096A12003F
:1021C800B7A00ED0C7C207F50750D8B404D007503F
:1021D8000BEC0DF005D0000E0601F46F010EF36F45
:1021E800CAEC0DF034513511D8A41100A792110092
:1021F800E3C5D8F5E4C5D9F5E50EDA6F050EDB6F52
:102208007EECFCF0E76FE751D8A41200E3C5D9F4DF
:10221800E4C5DAF4000EDE6E000EDD6E1200D85151
:102228000701465D4751800A516E0501D951800A60
:102238005158D8B01200380EBE6FE90EBF6FD8C51E
:10224800C0F5D9C5C1F5ADEC11F012000850091060
:102258000A100B10D8B408D0000E081A000E091A7C
:10226800000E0A1A800E0B1A08C508F509C509F5EB
:102278000AC50AF50BC50BF512000CC50EF50DC500
:102288000FF50CC508F50DC509F5000E0B6E000E0F
:102298000A6E29EC13F020EE05F00E50D9260F50E7
:1022A800DA22DF50C86E12000501F4510701F9194E
:1022B80006E10501F5510701FA19D8B406D0F4C5AD
:1022C800EEF5F5C5EFF575EC03F0000E456F010E60
:1022D800446F12009F0E0C240E6EFF0E0D200F6E21
:1022E8000F5009E11A0E0E5CD8B005D05F0E0C1421
:1022F8000C6E0D6A12000CC50CF50DC50DF512001B
:1023080000C744F501C745F544C542F545C543F541
:1023180061EC12F044C512F545C513F5000E156EB3
:10232800010E146E6DEC0CF0120008C5D9F409C545
:10233800DAF40AC5DFF4084A092A0BC50AF50B6A5C
:1023480008C5D9F409C5DAF40AC5DFF4084A092A28
:102358001200C00E0501D66F050ED76F000EB66FBE
:10236800000EB76FBEC5B8F5BFC5B9F5D60EBA6FC2
:10237800050EBB6FD2EC0AF012000CD0050E096EE8
:102388000F0E086EF10EE82EFED7082EFCD7092E88
:10239800FAD700F0070134513511D8B41200EED73E
:1023A80008500A02F3C40CF5F4C40DF508500B02EA
:1023B800F3500D2609500A02F3500D260CC508F5F6
:1023C8000DC509F512009F0E08240A6EFF0E09209C
:1023D8000B6E0B5006E11A0E0A5CD8B002D0010E43
:1023E80001D0000E086E096A1200BF0E08240A6E9A
:1023F800FF0E09200B6E0B5006E11A0E0A5CD8B0CE
:1024080002D0010E01D0000E086E096A1200D00E2B
:1024180008240A6EFF0E09200B6E0B5006E10A0E07
:102428000A5CD8B002D0010E01D0000E086E096A0D
:1024380012002D682BC51CF52CC51DF52D0E1E6E22
:10244800050E1F6E000E216E010E206E27EC03F0A4
:102458002D50120043C541F544C542F501D812007C
:102468000500FA6E0801FD51FD6EFE51FE6EFF512A
:10247800FF6EFA501200186816C508F517C509F559
:10248800180E0A6E050E0B6E000E0D6E010E0C6E08
:10249800F7ECC8F01850120042C508F543C509F515
:1024A800F0EC0DF042C53EF543C53FF5000E416E18
:1024B800010E406EA4EC0DF0120042C53EF543C576
:1024C8003FF5000E416E000E406EA4EC0DF042C5C3
:1024D80008F543C509F5FEEC0FF01200BDECFFF05E
:1024E80001D812000500FA6E0801FA51FD6EFB5181
:1024F800FE6EFC51FF6EFA5012003E6E660E356E8F
:10250800070E366E000E386E040E376E3EC539F56E
:102518003A6A2CECF5F0120001D812000500FA6EA8
:102528000801EB51FD6EEC51FE6EED51FF6EFA5055
:10253800000E120001D812000500FA6E0701E151E1
:10254800FD6EE251FE6EE351FF6EFA501200F1C6C5
:102558000AF5F2C60BF508C5F1F609C5F2F60AC583
:1025680008F50BC509F5120054C50AF555C50BF554
:1025780008C554F509C555F50AC508F50BC509F58B
:102588001200FFFFFFFFBE08D808010066070B0016
:092598006FFFFF00FF00FFCF01FF
:1025A20020EE02F00850D9260950DA22DEC408F5DE
:1025B200DDC409F5120056C5EEF557C5EFF586ECF8
:1025C20002F090EC12F01200EEEC12F00AC508F5DF
:1025D2000BC509F598EC13F0120001D04C07070166
:1025E2004C51800A7F0FD8A01200F8D7000E086E57
:1025F200C00E096EFF0E0A6EFF0E0B6E1200000E69
:10260200086E000E096E210E0A6E000E0B6E12008D
:10261200C80E07011D6F0F0E1E6F000E1F6F1200F6
:10262200B5BA12000601F351F411D8A41200F8D77A
:10263200086E0804D8A412000001D785D7951200AD
:102642000A6EC1EC11F0B7A2FED70AC5C9F2120098
:102652000A500B10D8A402D0C2841200C2941200F5
:10266200FF00000E0601BD6F000EBC6F1200086E67
:1026720008A002D0C2821200C292120056C5EEF524
:1026820057C5EFF575EC03F01200086E08A002D0F2
:10269200C18E1200C19E1200086E08A002D0C28034
:1026A2001200C2901200000E07013B6F0A0E3A6F31
:1026B2001200000E0601BD6F010EBC6F1200B5BA0A
:1026C20002D0D8901200D8801200CEBA02D0D89090
:1026D2001200D8801200CEB002D0D8901200D8805A
:1026E2001200FF0E0B6E0A68E5EC12F012000401F4
:1026F2002095C284CA9412003AC708F53BC709F56F
:1027020012003F0E096E08681200086E08C5C0F478
:102712001200086E08C5C8F41200B59A1200D05013
:102722001200CF501200FB51120012001200FFD70C
:0127320001A5
:10DF300000B3F87107003BF6720700FAF5730700AB
:10DF400032F57407004BF6750701C2F6CC08001FC6
:10DF5000F5CD080084F4CE0800F1F3CF080040F7B7
:10DF6000D00800B4F5D1080045F5D208005BF4D321
:10DF70000800A2F5D40802819FE0FC407E80FC00EE
:10DF8000009F0010000000E1FF0201E5F700025BC6
:10DF9000FB000322FD00049EFE000598FE0106F52D
:10DFA000F8000783FF000858F90009E4F9000A6245
:10DFB000F9000B1BFD000CBCFE000DB6FE010E525D
:10DFC000FA000F88FF011063FC0211FDF70012BC7C
:10DFD000F90013A0FD0014E0FE0015DAFE011600A2
:10DFE000F90017CDFF01185EFF001902FA001A6C44
:10DFF000F9001B99FD001CFEFE001DF8FE011E5CD1
:10E00000FA001FD1FF0120F7FA022115F80222328F
:10E01000F7002325FE00241CFF002516FF01260B18
:10E02000F90027C9FF01285BFC00293EFA022AD02B
:10E03000F6002B1EFE002C3AFF002D34FF012E6649
:10E04000FA002FDDFF0130EEFA02312DF8023274B2
:10E05000F7003341FE0034AFFA0035A6FA0136EC82
:10E06000F60037D9FF013853FC003948FA023A6705
:10E07000F7003B3AFE003C80FE003D7AFE013EEA9E
:10E08000F8003FD5FF0040C0FC0041F1FC00423EDB
:10E09000FD00436FFD0044C3FD0045F4FD004680D4
:10E0A000F900478FFC0048C7FC0049F8FC004A45CE
:10E0B000FD004B76FD004CCAFD004DFBFD004E8A75
:10E0C000F9004F96FC0050CEFC0051FFFC00524C72
:10E0D000FD00537DFD0054D1FD005502FE00569415
:10E0E000F900579DFC0058D5FC005906FD005A5315
:10E0F000FD005B84FD005CD8FD005D09FE005E9EB6
:10E10000F9005FA4FC0060DCFC00610DFD00625AB8
:10E11000FD00638BFD0064DFFD006510FE0066A856
:10E12000F90067ABFC0068E3FC006914FD006A615C
:10E13000FD006B92FD006CE6FD006D17FE006EB2F7
:10E14000F9006FB2FC0070D0F90071DAF90072EEDC
:10E15000F90073F8F900740CFA007534FA0076AB24
:10E16000FF0077C6F90078B9FC0079EAFC007A373D
:10E17000FD007B68FD007CBCFD007DEDFD007E7632
:10E18000F9007F88FC008073FB00818BFB0082AB71
:10E19000FB0083C3FB0084EBFB008543FC0086DFB0
:10E1A000F8008753FB00886BFB008983FB008AA380
:10E1B000FB008BBBFB008CE3FB008D3BFC008ED493
:10E1C000F8008F4BFB009092FE0091B0FE0092D4BD
:10E1D000FE0093F2FE009410FF00952EFF00969D26
:10E1E000FA009774FE009863FB00997BFB009A9BF2
:10E1F000FB009BB3FB009CDBFB009D33FC009EC936
:10E20000F8009F43FB00A0A4FE00A1C2FE00A2E60E
:10E21000FE00A304FF00A422FF00A540FF00A6B853
:10E22000FA00A786FE00A8AAFE00A9C8FE00AAEC74
:10E23000FE00AB0AFF00AC28FF00AD46FF00AEC1F8
:10E24000FA00AF8CFE00B0ABFE00B1C9FE00B2ED2B
:10E25000FE00B30BFF00B429FF00B547FF00B6C2B4
:10E26000FA00B78DFE00B88DFF00B992FF00BA9793
:10E27000FF00BB9CFF00BCA1FF00BDA6FF00BE339A
:10E28000FB00BF7EFF00C048FE00C129FD02C2396D
:10E29000F802C3D3FA02C424F700C593FB01C6D920
:10E2A000F700C7F3FB00C858FF00C9E5FF02CA42E8
:10E2B000F900CB000002CCA8F702CD16F901CECDB3
:10E2C000F700CF13FC00D030FD00D1A7FD02D2F142
:10E2D000F701D3DEF602D4FAF600D5CBFB01D61651
:10E2E000FA00D7FBFB00D8CEFE00D9E9FF02DA2105
:10E2F000F901DB5AF702DC9BF700DD000001DEC10B
:10E30000F700DF1BFC00E033FE00E12CFE02E221FF
:10E31000F800E34DF902E416F700E54BFC01E620B6
:10E32000FA00E703FC00E8AEFD00E93BFB02EA0966
:10E33000F800EBDCFA02EC08F700ED000001EE2A31
:10E34000FA00EF23FC00F052FF00F1B5FD02F237B6
:10E35000F900F3F8FF02F48EF700F5D3FB01F62B7A
:10E36000FA00F70BFC00F84CFF00F9E5FA02FA2C72
:10E37000F900FBFBFF02FC81F700FD000001FECA73
:10E38000FA00FF2BFCF0000000C3BB0000000000FF
:10E39000000000000000000000000000000000007D
:10E3A000000000000000000000000000000000006D
:10E3B000000000000000000000000000000000005D
:10E3C000000000000000000000000000000000004D
:10E3D000000000000000000000000000000000003D
:10E3E000000000000000000000000000000000002D
:10E3F000000000000000000000000000000000001D
:10E40000000000000000000000424F4F543A206519
:10E4100072726F7220626F6F74696E670D0A0043CB
:10E42000502F4D20626F6F742D6C6F616465722088
:10E43000666F72205A38302D53696D756C61746F38
:10E44000720D0A002196007ED30123B7C2BE0001DF
:10E450000100210000AFD30A78D30B79D30C7DD310
:10E460000F7CD310AFD30DDB0EB7CA0000C630D37C
:10E47000013E0DD3013E0AD3012180007EB7CAFEC2
:10E4800000D30123C3F300F376D3AC182731000087
:10E4900000D3AB00C30E00ED73AF0031AB00F5AF9E
:10E4A00032B300C5D5E5DDE5FDE5ED7BAF00E1224A
:10E4B000AD0018D53AB300219A00B72803219C007B
:10E4C0004E23462BED4398002AB1007DB7B4282E89
:10E4D000110000060E1A77231310FA2AB100110456
:10E4E000001922AB0018170000000000000000D344
:10E4F000AB00ED73AF0031AB00F53E0118A2DD2A91
:10E50000B1003EAADD77092AAF00DD7505DD74068E
:10E510003A9E00DD770B319F00FDE1DDE1E1D1C1E5
:10E52000F1ED45ED4DED45C9000000000000000093
:10E53000000000000400000000000000000094FA49
:10E5400000B4260000004CF037EFB5F702589A01EE
:10E5500000002BF699ECF5FF02589A01000000002C
:10E5600000008BFA04725D010000D0EA34EE79FFFE
:10E5700002D6A50100002BF609F06EFE006226000F
:10E58000000058F500007AFC02E0BC0100007AF6B9
:10E590000DEE70FE0228320101000CF5F0EC81FC5A
:10E5A000004A8D0100004CF047F152F5028CD80171
:10E5B00002004DF745ED74FF00DEB901000046F49E
:10E5C0000000D3AD180500000000002A0400ED5B38
:10E5D00006003A0800477E12231310FA3E0018E2A4
:10E5E0003E00D3AD7618F9C9696F5F737461742802
:10E5F00029203D3D20494F5F535441545F4E4F54B5
:10E600005F53544152544544207C7C20696F5F73B2
:10E610007461742829203D3D20494F5F5354415473
:10E620005F53544F50504544207C7C20696F5F738A
:10E630007461742829203D3D20494F5F5354415453
:10E640005F494E544552525550544544207C7C20DD
:10E65000696F5F737461742829203D3D20494F5FC5
:10E66000535441545F50524550494E564F4B4520EC
:10E670007C7C20696F5F737461742829203D3D2084
:10E68000494F5F535441545F4D4F4E49544F5200D0
:10E69000696F5F737461742829203D3D20494F5F85
:10E6A000535441545F4E4F545F5354415254454468
:10E6B000207C7C20696F5F737461742829203D3D44
:10E6C00020494F5F535441545F53544F5050454479
:10E6D000207C7C20696F5F737461742829203D3D24
:10E6E00020494F5F535441545F4D4F4E49544F5250
:10E6F000004449534B3A204F503D25303278204456
:10E700002F542F533D25642F2533642F2533642048
:10E710002020202020202020202020414444523D41
:10E72000253031782530327825303278202852440F
:10E730002049474E4F524544290A0D004449534B46
:10E740003A204F503D2530327820442F542F533DEE
:10E7500025642F2533642F2533642020202020209A
:10E76000202020202020414444523D25303178256E
:10E7700030327825303278202857522049474E4F82
:10E78000524544290A0D0025733A204552524F52F2
:10E790003A20492F4F20253573202533642C20251E
:10E7A0003364202825303258482C202530325848F0
:10E7B00029207768696C652077616974696E6720C4
:10E7C000666F7220256420282530325848290A0DAA
:10E7D000004449534B3A204F503D25303278204475
:10E7E0002F542F533D25642F2533642F2533642068
:10E7F000782533643D25356C6420414444523D25E1
:10E800003031782530327825303278202E2E2E2067
:10E8100053543D253032780A0D004449534B3A2079
:10E820004F503D2530327820442F542F533D2564DE
:10E830002F2533642F253364202020202020202002
:10E8400020202020414444523D253031782530326B
:10E850007825303278202E2E2E200A0D002F557369
:10E860006572732F74616B656D7572612F776F724E
:10E870006B73706163652F6769746875622F537578
:10E880007065724D455A38302F7372632F6D656D08
:10E890006F72792E6300534420436172643A207290
:10E8A0006561643531323A20435243206572726F9C
:10E8B0007220282530347820213D20253034782CD2
:10E8C0002072657472793D2564290A0D0057415202
:10E8D0004E494E473A206E6F204750494F20657889
:10E8E00070616E64657220746F20636F6E74726FF6
:10E8F0006C2068696768657220616464726573730F
:10E900000A0D002F55736572732F74616B656D75F9
:10E9100072612F776F726B73706163652F676974B3
:10E920006875622F53757065724D455A38302F7374
:10E9300072632F696F2E63005741524E494E473A1A
:10E9400020746F6F206D616E792062616E6B732031
:10E950007265717565737465642E202872657175B2
:10E96000657374206973202564290A0D0074797019
:10E9700065202768656C702720746F20736565209B
:10E98000746865206C697374206F662061766169B4
:10E990006C61626C6520636F6D6D616E64730A0DEE
:10E9A00000496D6167652066696C652025732F4499
:10E9B0005249564525632E44534B20697320617399
:10E9C0007369676E656420746F2064726976652070
:10E9D00025630A0D005741524E494E473A20756E45
:10E9E0006B6E6F776E20492F4F20777269746520A8
:10E9F00025642C202564202825303258482C2025D9
:10EA000030325848290A0D006469736B5F696F637F
:10EA1000746C3A20706472763D25642C20636D64BA
:10EA20003D25642C20627566663D3078256C783A09
:10EA3000207265733D25640A0D00534420436172C2
:10EA4000643A2020726561643531323A2061646431
:10EA5000723D25386C642C206F6666733D25642CEE
:10EA600020636F756E743D25640A0D005344204386
:10EA70006172643A2077726974653531323A206187
:10EA80006464723D25386C642C206F6666733D2586
:10EA9000642C20636F756E743D25640A0D00534429
:10EAA00020436172643A2077726974653531323A75
:10EAB000206661696C656420746F206765742074DA
:10EAC0006F6B656E2C2074696D656F75740A0D002F
:10EAD0005B64726976655D5B2C747261636B5D5B10
:10EAE0002C736563746F725D5B2C6C656E67746804
:10EAF0005D206F72205B64726976652C5D4C4241CB
:10EB0000004449534B3A20207265616420442F54DD
:10EB10002F533D25642F2533642F2533642078251A
:10EB200033643D25356C643A204552524F520A0DEC
:10EB300000534420436172643A20777269746535EA
:10EB400031323A2074696D656F75742C207265736B
:10EB5000706F6E736520697320253032780A0D005E
:10EB6000534420436172643A20434D4435382C208D
:10EB700052333D253032782025303278202530320E
:10EB800078202530327820253032780A0D00257320
:10EB90003A204552524F523A20636C6F636B207398
:10EBA00070656564202564206973206E6F7420731E
:10EBB0007570706F727465640A0D00534420436170
:10EBC00072643A20434D44382C2052373D25303270
:10EBD0007820253032782025303278202530327860
:10EBE00020253032780A0D004449534B3A202072D8
:10EBF00065616420442F542F533D25642F253364D1
:10EC00002F25336420782533643D25356C643A2004
:10EC10004F4B0A0D006469736B5F696F63746C3AE4
:10EC200020706472763D25642C20636D643D2564FC
:10EC30003A204E6F742068616E646C65642E0A0D14
:10EC4000006469736B5F726561643A20207064725E
:10EC5000763D25642C20736563746F723D256C646A
:10EC60002C20636F756E743D25640A0D0064697312
:10EC70006B5F77726974653A20706472763D2564C3
:10EC80002C20736563746F723D256C642C20636F58
:10EC9000756E743D25640A0D005472616E736C616B
:10ECA0007465206D616368696E6520636F646520BB
:10ECB0006F6E2074686520746172676574206D657D
:10ECC0006D6F727900534420436172643A2043436C
:10ECD00053202843617264204361706163697479D1
:10ECE000205374617475732920697320300A0D00F4
:10ECF000446973706C6179206F72206368616E671C
:10ED00006520737065636966696564206465627512
:10ED100067207661726961626C65005344204361CB
:10ED200072643A2077726974653531323A20435201
:10ED300043206572726F72202872657472793D2566
:10ED400064290A0D00577269746520627974652020
:10ED50006F7220737472696E6720746F20746865B7
:10ED600020746172676574206D656D6F72790053F0
:10ED70004420436172643A204361726420706F776B
:10ED80006572207570207374617475732062697385
:10ED900020697320300A0D0072656164204D425273
:10EDA00020706172746974696F6E207461626C6541
:10EDB00020617420736563746F7220300A0D0057F0
:10EDC00041524E494E473A20756E6B6E6F776E20FA
:10EDD000492F4F2072656164202564202825303238
:10EDE0005848290A0D00534420436172643A202098
:10EDF000726561643531323A20736563746F723DB8
:10EE0000256C643A204552524F520A0D00446973F2
:10EE1000706C6179206461746120626C6F636B282F
:10EE200073292066726F6D207468652053442043F7
:10EE300061726400446973706C61792073656374F6
:10EE40006F722873292066726F6D206469736B205E
:10EE5000696D6167652066696C6500534420436194
:10EE600072643A2053444843206F722053445843FD
:10EE700020636172642064657465637465640A0D5F
:10EE80000025733A204552524F523A206D6F646507
:10EE9000202564206973206E6F7420737570706F05
:10EEA000727465640A0D00534420436172643A2011
:10EEB000696E697469616C697A65202E2E2E2073E3
:10EEC00075636365656465640A0D005375706572EA
:10EED0004D455A38302B5350492077697468204784
:10EEE00050494F20657870616E6465720A0D005359
:10EEF0004420436172643A20756E6578706563746E
:10EF0000656420726573706F6E736520253032788A
:10EF10000A0D00534420436172643A2020726561F7
:10EF2000643531323A20736563746F723D256C64C9
:10EF30003A204F4B0A0D0045786974206D6F6E6959
:10EF4000746F7220616E6420636F6E74696E756594
:10EF500020657865637574696F6E004173736572BF
:10EF600074696F6E206661696C65643A2025732050
:10EF70002825733A2025733A202564290A00534432
:10EF800020436172643A2041434D4434312072651C
:10EF900073706F6E736520697320253032780A0DA7
:10EFA00000534420436172643A2077726974653576
:10EFB00031323A20746F6B656E20697320253032D0
:10EFC000780A0D004552524F523A2062616E6B2012
:10EFD0002564206973206E6F7420617661696C61AD
:10EFE000626C652E0A0D00534420436172643A201E
:10EFF000434D44353920726573706F6E73652069B7
:10F000007320253032780A0D00446973706C617981
:10F010002064617461206F6E207468652074617271
:10F02000676574206D656D6F7279004D656D6F72E7
:10F030007920303030303030202D202530366C585B
:10F0400048202564204B42204F4B0D0A007061720E
:10F05000746974696F6E2073746172747320617463
:10F0600020736563746F7220256C640A0D005573FC
:10F0700065205241332065787465726E616C20633F
:10F080006C6F636B20666F72205A38300A0D005522
:10F090007365204E434F20252E3266204D487A203E
:10F0A000666F72205A383020636C6F636B0A0D00F4
:10F0B000665F777269746528293A204552524F522B
:10F0C000207265733D25642C206E3D25640A0D0079
:10F0D000665F7265616428293A204552524F52207A
:10F0E0007265733D25642C206E3D25640A0D006910
:10F0F0006F5F696E766F6B655F7461726765745F71
:10F100006370755F74656172646F776E00666169C4
:10F110006C656420746F2077726974652073656311
:10F12000746F7220256C640A0D00696F5F696E76DA
:10F130006F6B655F7461726765745F6370755F7034
:10F1400072657061726500446973706C61792073D7
:10F150007461747573206F662074686520746172C1
:10F16000676574006661696C656420746F20726500
:10F17000616420736563746F7220256C640A0D00EE
:10F180000A0D534420436172643A20696E697469C0
:10F19000616C697A65202E2E2E0A0D00436C656124
:10F1A0007220627265616B706F696E742061742089
:10F1B0002530346C580A0D00534420436172643A80
:10F1C0002041434D4434312C2052313D253032789A
:10F1D0000A0D000A0D526573657420627920494F4B
:10F1E00020706F72742025303258480A0D00466135
:10F1F000696C656420746F206F70656E20534420C5
:10F20000436172642E2E0A0D004661696C656420AC
:10F21000746F206D6F756E74205344204361726467
:10F220002E0A0D006661696C656420746F2072653A
:10F23000616420736563746F7220300A0D000A0DDB
:10F2400048414C5420627920494F20706F727420DD
:10F2500025303258480A0D0053657420627265618A
:10F260006B706F696E74206174202530346C580A9D
:10F270000D006469736B5F696E697469616C697AAA
:10F2800065282564292E2E2E0A0D00534420436143
:10F2900072643A206E6F74207375706F707274654B
:10F2A000640A0D00534420436172643A20434D4484
:10F2B000302C2052313D253032780A0D002020209C
:10F2C000202020202020202020202020202020203E
:10F2D000202020200D007761697420666F722070F5
:10F2E000726F6772616D6D6572202E2E2E0D004952
:10F2F0006E76616C696420617267756D656E743AD3
:10F3000020272573270A0D005354415455533A20A2
:10F3100025632563256325632563256325632563AD
:10F320000025732535337320434845434B53554DD2
:10F330003A20253032780A0D00556E6B6E6F776E6D
:10F34000207661726961626C6520272573270A0D3A
:10F3500000427265616B706F696E74206973206E14
:10F360006F74207365740A0D004D656D6F7279209E
:10F37000303030303030202D202530366C58480D5C
:10F3800000706879736963616C2064726976657274
:10F3900020213D20300A0D00416D626967756F754F
:10F3A0007320636F6D6D616E642025730A0D0066B6
:10F3B0005F6C7365656B28293A204552524F522085
:10F3C00025640A0D00427265616B706F696E74206E
:10F3D0006973202530346C580A0D00556E6B6E6FC2
:10F3E000776E20636F6D6D616E643A2025730A0D30
:10F3F0000064656275675F6661746469736B5F76EC
:10F400006572626F7365006E6F204641543332201F
:10F41000706172746974696F6E0A0D00665F73794A
:10F420006E6328293A204552524F522025640A0D16
:10F4300000696F5F696E766F6B655F746172676597
:10F44000745F63707500446973706C6179207468CF
:10F450006973206D657373616765006465627567C4
:10F460005F7364636172645F766572626F73650077
:10F470005350495F494F4558505F636F6E666967E7
:10F480007572650064656275675F6661746469734F
:10F490006B5F77726974650073697A656F6628704F
:10F4A0006172616D7329203D3D2035004D3A204D3C
:10F4B0006F6E69746F722070726F6D70740A0D00D8
:10F4C0006E6F204D4252207369676E61747572656C
:10F4D0000A0D00534420436172643A2074696D65DB
:10F4E0006F75740A0D00696E76616C6964206472D0
:10F4F0006976652025640A0D007772697465205B62
:10F50000616464725D2C76616C0A0D005B766172D9
:10F510006961626C655D5B3D76616C75655D00641B
:10F52000656275675F6661746469736B5F7265615C
:10F53000640064656275675F6469736B5F766572AA
:10F54000626F73650064656275675F73646361729F
:10F55000645F7772697465005265737461727420B8
:10F560007468652073797374656D005F5F6D656D98
:10F570006370795F6F6E5F746172676574006E6F40
:10F580002076616C696420766F6C756D650A0D007C
:10F59000534420436172643A2072656164792E0A93
:10F5A0000D007A38305F636C6F636B5F4E434F3191
:10F5B000494E430064656275675F7364636172649A
:10F5C0005F726561640025732069732073656C65E3
:10F5D000637465642E0A0D005350495F53445F63A2
:10F5E0006F6E666967757265004D4D553A206261B0
:10F5F0006E6B202530325820200064656275675F8D
:10F600006469736B5F77726974650025733D256C5F
:10F61000642028256C5868290A0D00427265616BC8
:10F6200020617420253034580A0D005B61646472D7
:10F630005D5B2C6C656E6774685D00646562756700
:10F640005F6469736B5F72656164006465627567AE
:10F650005F6469736B5F6D61736B004E6F20626FE7
:10F660006F74206469736B2E0A0D002A2B2C3A3BB1
:10F670003C3D3E5B5D7C223F7F005B4C42415D5BDD
:10F680002C6C656E6774685D0025732F4452495673
:10F690004525632E44534B004E6F20534420436155
:10F6A00072643F0A0D00696F5F776169745F7772FA
:10F6B0006974650025733D25642028255868290A4A
:10F6C0000D0064656275675F6661746469736B00E1
:10F6D0004C4420484C2C28253034584829004F559C
:10F6E0005420282530325848292C41004C442028E9
:10F6F000484C292C25303258480043414C4C204E70
:10F70000432C25303458480043414C4C2050452C64
:10F7100025303458480043414C4C20504F2C253064
:10F720003458480043414C4C204E5A2C2530345814
:10F7300048004C4420282530345848292C484C0097
:10F7400064656275675F736463617264005B6164C2
:10F7500064725D2C76616C756500494E20412C28E1
:10F76000253032584829004C4420412C282530347B
:10F77000584829004C4420282530345848292C4129
:10F780000043414C4C204D2C253034584800434117
:10F790004C4C20502C25303458480043414C4C20D0
:10F7A000582C25303458480043414C4C205A2C25C5
:10F7B0003034584800646973617373656D626C65B9
:10F7C0000053424320412C253032584800414443E5
:10F7D00020412C25303258480041444420412C25FA
:10F7E00030325848004C442042432C25303458488D
:10F7F000004A50204E432C2530345848004C4420B9
:10F8000044452C2530345848004A502050452C257A
:10F8100030345848004C4420484C2C25303458484B
:10F82000004A5020504F2C2530345848004C44207A
:10F8300053502C2530345848004A50204E5A2C251D
:10F84000303458480070726F6772616D3A0A0D006B
:10F8500049593A20253034580A0D000A0D2020203D
:10F860002025730A0D0042433A20253034582020C9
:10F870000050433A202530345820200044453A2097
:10F880002530345820200041463A20253034582075
:10F890002000484C3A202530345820200053503A5C
:10F8A000202530345820200049583A20253034583B
:10F8B00020200064656275675F6469736B006C6526
:10F8C0006E203C3D203235360053424320412C28E7
:10F8D000484C290041444320412C28484C290041F0
:10F8E000444420412C28484C29004C4420412C25DC
:10F8F00030325848004C4420422C253032584800C1
:10F900004C4420442C2530325848004C4420482C8C
:10F9100025303258480043414C4C2025303458485B
:10F92000004A5020432C2530345848004A50204D7E
:10F930002C2530345848004A5020502C253034585B
:10F9400048004A50205A2C25303458480045582049
:10F95000285350292C484C0045582041462C4146FC
:10F9600027004C4420412C28424329004C4420418C
:10F970002C28444529004C4420412C28484C29007F
:10F980004C4420422C28484C29004C4420432C282D
:10F99000484C29004C4420442C28484C29004C4415
:10F9A00020452C28484C29004C4420482C28484C01
:10F9B00029004C44204C2C28484C29004C44202839
:10F9C0004445292C41004C442028484C292C410016
:10F9D0004C442028484C292C42004C442028484CB8
:10F9E000292C430041444420484C2C4243004C44C1
:10F9F0002028484C292C44004C442028484C292CD1
:10FA0000450041444420484C2C4445004C442028A7
:10FA1000484C292C48005355422025303258480084
:10FA2000414E4420253032584800584F522025304E
:10FA3000325848004C442028484C292C4C00414462
:10FA40004420484C2C484C0041444420484C2C5302
:10FA500050004C4420432C25303258004C44204563
:10FA60002C25303258004C44204C2C253032580084
:10FA700025732530366C783A0046415433322020C5
:10FA80002000737461636B3A0A0D006469736B72D2
:10FA900065616400636F6E74696E756500535542ED
:10FAA0002028484C29004445432028484C29004937
:10FAB0004E432028484C2900414E442028484C29D8
:10FAC00000584F522028484C2900435020253032FE
:10FAD0005848004A502025303458480045582044A2
:10FAE000452C484C004C442053502C484C004A5262
:10FAF000204E432C2564004A52204E5A2C25640087
:10FB000025643A2025730A0D0053656C6563743AC9
:10FB1000200043504D4449534B5300257325303446
:10FB2000783A004572726F720A0D000D25732573C5
:10FB30000A0D0043502028484C29004A50202848EC
:10FB40004C290053424320412C4100414443204171
:10FB50002C410041444420412C41004C442042436C
:10FB60002C410053424320412C4200414443204158
:10FB70002C420041444420412C4200534243204146
:10FB80002C430041444320412C4300414444204144
:10FB90002C430050555348204243005342432041D8
:10FBA0002C440041444320412C4400414444204122
:10FBB0002C440053424320412C4500414443204102
:10FBC0002C450041444420412C45005055534820C9
:10FBD000444500505553482041460053424320417C
:10FBE0002C480041444320412C48004144442041DA
:10FBF0002C48005253542030304800525354203186
:10FC0000304800525354203230480052535420336D
:10FC10003048005253542030384800525354203159
:10FC2000384800525354203238480052535420333D
:10FC300038480053424320412C4C0041444320416A
:10FC40002C4C0041444420412C4C0050555348203A
:10FC5000484C004A5220432C2564004A52205A2C1A
:10FC6000256400444A4E5A2C25640043504D4449B3
:10FC7000537E003C25643E0A0D0073647265616426
:10FC800000737461747573004C4420412C41004C26
:10FC90004420422C41004C4420432C41004C442041
:10FCA000442C41004C4420452C41004C4420482C1D
:10FCB00041004C44204C2C41004C4420412C42003B
:10FCC0004C4420422C42004C4420432C42004C44E3
:10FCD00020442C42004C4420452C42004C442048F7
:10FCE0002C42004C44204C2C42004C4420412C43DC
:10FCF000004C4420422C43004C4420432C43004CF5
:10FD00004420442C43004C4420452C43004C4420C8
:10FD1000482C43004C44204C2C4300444543204293
:10FD20004300494E4320424300504F50204243007D
:10FD3000524554204E43004C4420412C44004C4436
:10FD400020422C44004C4420432C44004C4420448A
:10FD50002C44004C4420452C44004C4420482C4466
:10FD6000004C44204C2C44004C4420412C45004C79
:10FD70004420422C45004C4420432C45004C442058
:10FD8000442C45004C4420452C45004C4420482C34
:10FD900045004C44204C2C4500444543204445003C
:10FDA000494E4320444500504F50204445005245A1
:10FDB0005420504500504F50204146004C442041B3
:10FDC0002C48004C4420422C48004C4420432C48F2
:10FDD000004C4420442C48004C4420452C48004C06
:10FDE0004420482C48004C44204C2C48004C4420D3
:10FDF000412C4C004C4420422C4C004C4420432CC1
:10FE00004C004C4420442C4C004C4420452C4C00CD
:10FE10004C4420482C4C004C44204C2C4C00444575
:10FE20004320484C00494E4320484C00504F50203E
:10FE3000484C0052455420504F00444543205350F5
:10FE400000494E4320535000524554204E5A00253D
:10FE500030366C5820002025303278006661743AC4
:10FE600020006275663A20000D2573200D00726532
:10FE700073657400535542204100444543204100BE
:10FE8000494E43204100414E44204100584F5220EA
:10FE90004100535542204200444543204200494E10
:10FEA00043204200414E44204200584F522042001D
:10FEB000535542204300444543204300494E4320CC
:10FEC0004300414E44204300584F522043005245C6
:10FED00054204300535542204400444543204400ED
:10FEE000494E43204400414E44204400584F522084
:10FEF0004400535542204500444543204500494EA7
:10FF000043204500414E44204500584F52204500B3
:10FF1000535542204800444543204800494E432061
:10FF20004800414E44204800584F52204800535545
:10FF300042204C00444543204C00494E43204C0095
:10FF4000414E44204C00584F52204C005245542002
:10FF50004D00524554205000524554205A004A52F8
:10FF60002025640025303258200053443A20004DAB
:10FF70004F4E3E0068656C700064756D70004350B4
:10FF8000204100524C434100525243410043502013
:10FF9000420043502043004350204400435020453A
:10FFA0000043502048004350204C0048414C54002E
:10FFB000303A2F2F00696E66006E616E006C6C73B4
:10FFC000000D2573002025730044414100524C412F
:10FFD0000052524100434346005343460043504CB5
:10FFE000004E4F500052455400455858003F3F3F87
:0FFFF000004D0A0D0064690044490045490000B6
:020000040001F9
:1000000095C5D9F496C5DAF4DEC4F6F4DDC4F7F488
:10001000000EF86E0800F550250AD8A45EEF86F0B1
:1000200095C5D9F496C5DAF4DE2A000EDD22000E5D
:100030000601F06F000EEF6FEFC658F55268536877
:10004000000E0501A86F000E14D0588095C5D9F494
:1000500096C5DAF4DE2A000EDD2230D05882F6D7BB
:100060005884F4D75886F2D75888F0D7000EA86F76
:10007000010EA76F23D095C5D9F496C5DAF4DEC476
:10008000F6F4DDC4F7F4000EF86E0800F550996F31
:100090009A6B9A51000AD8A4E9D79951200AD8B48A
:1000A000E1D7030AD8B4E0D7080AD8B4D9D7060AEA
:1000B000D8B4CBD71D0AD8B4D1D7D8D7A751A81157
:1000C000D8B4D9D758B0589295C5D9F496C5DAF4B2
:1000D000DEC4F6F4DDC4F7F4000EF86E0800F55047
:1000E0002A0AD8A424D095C5D9F496C5DAF4DE2A14
:1000F000000EDD2297C5D9F498C5DAF4DFC499F56E
:10010000020EDE26DFC49AF5000EDD2299C5D9F471
:100110009AC5DAF4DEC4EFF6DDC4F0F60601F0AFFE
:1001200036D05880EF6DF01FD8B0F02B30D095C589
:10013000D9F496C5DAF4DEC40EF5DDC40FF584EC0F
:10014000F1F00EC5EFF60FC5F0F607D095C5D9F45E
:1001500096C5DAF4DE2A000EDD2295C5D9F496C5DF
:10016000DAF4DEC4F6F4DDC4F7F4000EF86E08002D
:10017000F5C499F5D00E050199259A6F9B6BFF0E7A
:100180009B239B5104E10A0E9A5DD8A0DFD795C549
:10019000D9F496C5DAF4DEC4F6F4DDC4F7F4000E43
:1001A000F86E0800F5502E0AD8A466D0000E536EE3
:1001B000000E526E95C5D9F496C5DAF4DE2A000E0B
:1001C000DD2295C5D9F496C5DAF4DEC4F6F4DDC4B3
:1001D000F7F4000EF86E0800F5502A0AD8A41CD0D7
:1001E00095C5D9F496C5DAF4DE2A000EDD2297C54E
:1001F000D9F498C5DAF4DFC499F5020EDE26DFC41F
:100200009AF5000EDD2299C5D9F49AC5DAF4DEC458
:1002100052F5DDC453F530D095C5D9F496C5DAF45E
:10022000DEC40EF5DDC40FF584ECF1F00EC552F519
:100230000FC553F507D095C5D9F496C5DAF4DE2A73
:10024000000EDD2295C5D9F496C5DAF4DEC4F6F4C5
:10025000DDC4F7F4000EF86E0800F5C499F5D00E71
:10026000050199259A6F9B6BFF0E9B239B5104E11F
:100270000A0E9A5DD8A0DFD795C5D9F496C5DAF4F1
:10028000DEC4F6F4DDC4F7F4000EF86E0800F55095
:10029000630AD8A427D095C5D9F496C5DAF4DE2A26
:1002A000000EDD2297C5D9F498C5DAF4DFC499F5BC
:1002B000020EDE26DFC49AF5000EDD2299C5D9F4C0
:1002C0009AC5DAF4DF500501B36F93C514F594C5F0
:1002D00015F5B3C516F5C3EC03F014C593F515C5B4
:1002E00094F5120095C5D9F496C5DAF4DEC4B4F5D8
:1002F000DDC4B5F5B4C5F6F4B5C5F7F4000EF86E77
:100300000800F5C4B3F517D0B44BB52BB4C5F6F45B
:10031000B5C5F7F4000EF86E0800F550680AD8A4C9
:1003200035D0480EB36FB44BB52B30D0690E01D029
:10033000000EB36F2BD00501B351996F9A6B9A5190
:10034000000AD8A4F5D79951580AD8B4EFD73C0A77
:10035000D8B4ECD70C0AD8B4D7D7010AD8B4E6D7AA
:10036000050AD8B4E0D7020AD8B4E0D7010AD8B455
:10037000DDD71B0AD8B4D7D7010AD8B4D7D70D0A0E
:10038000D8B4D4D7020AD8B4CED7D2D7B4C5F6F4ED
:10039000B5C5F7F4000EF86E0800F550640AD8B43D
:1003A0009AD0B4C5F6F4B5C5F7F4000EF86E08009F
:1003B000F550690AD8B48FD0D1D097C5D9F498C573
:1003C000DAF4DFC499F5020EDE26DFC49AF5000EDA
:1003D000DD2299C5D9F49AC5DAF4DF50AB6F000E6F
:1003E000ABBFFF0EAC6F51D097C5D9F498C5DAF406
:1003F000DFC499F5040EDE26DFC49AF5000EDD2277
:1004000099C5D9F49AC5DAF4DEC49BF5DEC49CF52F
:10041000DEC49DF5DEC49EF59BC59FF59CC5A0F589
:100420009DC5A1F59EC5A2F5A36BA2BFA369A3C5F7
:10043000A4F5A3C5A5F5A3C5A6F59FC5ABF5A0C5B5
:10044000ACF5A1C5ADF5A2C5AEF5A3C5AFF5A4C584
:10045000B0F5A5C5B1F5A6C5B2F557D097C5D9F485
:1004600098C5DAF4DFC499F5020EDE26DFC49AF5EA
:10047000000EDD2299C5D9F49AC5DAF4DEC4ABF5D5
:10048000DDC4ACF5000EACBFFF0EAD6FAE6FAF6F4D
:10049000B06FB16FB26F39D097C5D9F498C5DAF49F
:1004A000DFC499F5020EDE26DFC49AF5000EDD22C8
:1004B00099C5D9F49AC5DAF4DEC49BF5DDC49CF580
:1004C0009BC5ABF59CC5ACF5AD6BAE6BAF6BB06BC4
:1004D000B16BB26B1AD0B351996F9A6B9A51000AF3
:1004E000D8A413D09951480AD8B467D7200AD8B4F1
:1004F000B5D7010AD8B4B2D7050AD8B475D7180A47
:10050000D8B4ACD70E0AD8B4C7D7010EB425996FAA
:10051000000EB5219A6F95C5D9F496C5DAF499C540
:10052000DEF49AC5DDF493C526F594C527F5ABC571
:1005300028F5ACC529F5ADC52AF5AEC52BF5AFC577
:100540002CF5B0C52DF5B1C52EF5B2C52FF5D3EC00
:10055000C7F026C593F527C594F51200B4C5F6F487
:10056000B5C5F7F4000EF86E0800F550780AD8B457
:1005700096D0B4C5F6F4B5C5F7F4000EF86E0800D1
:10058000F550580AD8B48BD0B4C5F6F4B5C5F7F415
:10059000000EF86E0800F5506F0AD8B480D0B4C5CC
:1005A000F6F4B5C5F7F4000EF86E0800F550750ABC
:1005B000D8B475D012D197C5D9F498C5DAF4DFC490
:1005C00099F5020EDE26DFC49AF5000EDD2299C5EC
:1005D000D9F49AC5DAF4DF509B6F9B51AB6FAC6BCB
:1005E00057D097C5D9F498C5DAF4DFC499F5040E4D
:1005F000DE26DFC49AF5000EDD2299C5D9F49AC52E
:10060000DAF4DEC49BF5DEC49CF5DEC49DF5DEC4E1
:100610009EF59B51AB6F9C51AC6F9D51AD6F9E5140
:10062000AE6F38D097C5D9F498C5DAF4DFC499F520
:10063000020EDE26DFC49AF5000EDD2299C5D9F43C
:100640009AC5DAF4DEC4ABF5DDC4ACF5000EACBF80
:10065000FF0EAD6FAE6FAF6FB06FB16FB26F39D0CD
:1006600097C5D9F498C5DAF4DFC499F5020EDE26F1
:10067000DFC49AF5000EDD2299C5D9F49AC5DAF4E3
:10068000DEC49BF5DDC49CF59BC5ABF59CC5ACF504
:10069000AD6BAE6BAF6BB06BB16BB26B1AD0B351CD
:1006A000996F9A6B9A51000AD8A413D09951480AAD
:1006B000D8B481D7200AD8B4D3D7010AD8B4D0D7B8
:1006C000050AD8B48ED7180AD8B4ACD70E0AD8B455
:1006D000C7D7010EB425996F000EB5219A6F95C545
:1006E000D9F496C5DAF499C5DEF49AC5DDF45AD08A
:1006F00093C526F594C527F5ABC528F5ACC529F5F6
:10070000ADC52AF5AEC52BF5AFC52CF5B0C52DF599
:10071000B1C52EF5B2C52FF5E7ECDFF026C593F590
:1007200027C594F5120093C526F594C527F5ABC5EA
:1007300028F5ACC529F5ADC52AF5AEC52BF5AFC575
:100740002CF5B0C52DF5B1C52EF5B2C52FF54BEC86
:10075000D7F026C593F527C594F5120093C526F565
:1007600094C527F5ABC528F5ACC529F5ADC52AF567
:10077000AEC52BF5AFC52CF5B0C52DF5B1C52EF521
:10078000B2C52FF5B4C5F6F4B5C5F7F4000EF86E92
:100790000800F5C430F52DECCEF026C593F527C53D
:1007A00094F51200B4C5F6F4B5C5F7F4000EF86E72
:1007B0000800F550996F9A6B9A51000AD8A40DD091
:1007C0009951580AD8B4CAD7370AD8B491D71A0A57
:1007D000D8B4A9D70D0AD8B4C1D7B4C5F6F4B5C5F5
:1007E000F7F4000EF86E0800F5506E0AD8B408D180
:1007F00035D197C5D9F498C5DAF4DFC499F5020E5E
:10080000DE26DFC49AF5000EDD2299C5D9F49AC51B
:10081000DAF4DEC49BF5DDC49CF59BC5F6F49CC5FB
:10082000F7F4000EF86E250EF76407D022C7F5F432
:100830000D0023C7F5F40C0001D0D9D0FBD097C52B
:10084000D9F498C5DAF4DFC499F5020EDE26DFC4C8
:100850009AF5000EDD2299C5D9F49AC5DAF4DEC402
:100860009BF5DDC49CF59BC5F6F49CC5F7F4000E22
:10087000F86E250EF76407D022C7F5F40D0023C7E4
:10088000F5F40C0001D0B3D0D5D097C5D9F498C5F4
:10089000DAF4DFC499F5020EDE26DFC49AF5000E05
:1008A000DD2299C5D9F49AC5DAF4DEC49BF5DDC41E
:1008B0009CF59BC5F6F49CC5F7F4000EF86E250E6A
:1008C000F76404D022C7F5F40C0006D0F6C4E9F4AE
:1008D000F7C4EAF422C7EFF4ADD022C799F523C7D5
:1008E0009AF5000E9ABFFF0E9B6F9C6F97C5D9F4C7
:1008F00098C5DAF4DFC49DF5020EDE26DFC49EF54E
:10090000000EDD229DC5D9F49EC5DAF4DEC49FF544
:10091000DDC4A0F59FC5F6F4A0C5F7F4000EF86E8F
:10092000250EF7640DD099C5F5F40D009AC5F5F4C0
:100930000D009BC5F5F40D009CC5F5F40C000CD022
:10094000F6C4E9F4F7C4EAF499C5EEF49AC5EEF4F6
:100950009BC5EEF49CC5EFF46DD097C5D9F498C54E
:10096000DAF4DFC499F5020EDE26DFC49AF5000E34
:10097000DD2299C5D9F49AC5DAF4DEC49BF5DDC44D
:100980009CF59BC5F6F49CC5F7F4000EF86E250E99
:10099000F76407D022C7F5F40D0023C7F5F40C0067
:1009A00001D025D047D097C5D9F498C5DAF4DFC473
:1009B00099F5020EDE26DFC49AF5000EDD2299C5F8
:1009C000D9F49AC5DAF4DEC49BF5DDC49CF59BC569
:1009D000F6F49CC5F7F4000EF86E250EF76407D008
:1009E00022C7F5F40D0023C7F5F40C0008D0F6C4B7
:1009F000E9F4F7C4EAF422C7EEF423C7EFF41AD0FF
:100A0000B351996F9A6B9A51000AD8A413D0995197
:100A1000480AD8B43AD7200AD8B411D7010AD8B4B2
:100A2000E8D6050AD8B459D7180AD8B496D70E0A0A
:100A3000D8B4B9D7010E0501B425996F000EB521C0
:100A40009A6F95C5D9F496C5DAF499C5DEF49AC5BE
:100A5000DDF4000E946F000E936F120095C5D9F46B
:100A600096C5DAF4DEC4F6F4DDC4F7F4000EF86ED1
:100A70000800F550730AD8B416D095C5D9F496C5B8
:100A8000DAF4DEC408F5DDC409F5BD0E0A6EFF0E0A
:100A90000B6E000E0D6E030E0C6E27ECF6F0085078
:100AA0000910D8A440D095C5D9F496C5DAF4DEC4AF
:100AB000F6F4DDC4F7F4000EF86E0800F550730A82
:100AC000D8B405D0000E0501AA6F030E04D0000EA5
:100AD0000501AA6F010EA96F95C5D9F496C5DAF480
:100AE000A951DE26AA51DD2293C514F594C515F54A
:100AF00097C5D9F498C5DAF4DFC499F5020EDE265D
:100B0000DFC49AF5000EDD2299C5D9F49AC5DAF44E
:100B1000DEC416F5DDC417F5CEECE9F014C593F587
:100B200015C594F5120095C5D9F496C5DAF4DEC45E
:100B3000B4F5DDC4B5F5B4C5F6F4B5C5F7F4000EEB
:100B4000F86E0800F5C4B3F508D0B44BB52B18D037
:100B50006C0E01D0000EB36F13D00501B351996F25
:100B60009A6B9A51000AD8A4F5D799514C0AD8B477
:100B7000ECD72A0AD8B4ECD70A0AD8B4E6D7EAD711
:100B8000B4C5F6F4B5C5F7F4000EF86E0800F550DC
:100B9000660AD8B41AD064D097C5D9F498C5DAF4E7
:100BA000DFC499F5040EDE26DFC49AF5000EDD22BF
:100BB00099C5D9F49AC5DAF4DEC4ABF5DEC4ACF558
:100BC000DEC4ADF5DEC4AEF50ED0B351996F9A6BAD
:100BD0009A51000AD8A407D099514C0AD8B4DCD74E
:100BE000200AD8B4D9D7010EB425996F000EB521CB
:100BF0009A6F95C5D9F496C5DAF499C5DEF49AC50D
:100C0000DDF41CD093C560F594C561F5ABC562F504
:100C1000ACC563F5ADC564F5AEC565F5B4C5F6F410
:100C2000B5C5F7F4000EF86E0800F5C466F5A1EC42
:100C30008CF060C593F561C594F51200B4C5F6F467
:100C4000B5C5F7F4000EF86E0800F550996F9A6B71
:100C50009A51000AD8A404D09951660AD8B4D2D7C0
:100C600095C5D9F496C5DAF4DEC4F6F4DDC4F7F41C
:100C7000000EF86E0800F550250AD8A417D095C5C7
:100C8000D9F496C5DAF4DE2A000EDD22000E0C6ED1
:100C9000250E0B6E93C50DF594C50EF5D7EC02F03D
:100CA000000E0501946F010E936F120095C5D9F4E3
:100CB00096C5DAF4DE2A000EDD22CBD695C5D9F42E
:100CC00096C5DAF4DEC4F6F4DDC4F7F4000EF86E6F
:100CD0000800F5500B6E0C6A93C50DF594C50EF522
:100CE000D7EC02F095C5D9F496C5DAF4DE2A000EE9
:100CF000DD22D6D7B7ECFBF001D80BD00500FA6E99
:100D00000701D551FD6ED651FE6ED751FF6EFA50D8
:100D10001200D8A01200000E0901F06F000EEF6F54
:100D200001D80BD00500FA6E0801E851FD6EE951BB
:100D3000FE6EEA51FF6EFA5012000901F46F01D8FD
:100D40000BD00500FA6E0801E551FD6EE651FE6E0E
:100D5000E751FF6EFA5012000901F76F01D80BD06E
:100D60000500FA6E0701D251FD6ED351FE6ED451CB
:100D7000FF6EFA501200D8A006D0000E07013B6F9C
:100D8000280E3A6F63D2000E07013B6F1E0E3A6FBA
:100D900001D8CDD00500FA6EDE51FD6EDF51FE6E3A
:100DA000E051FF6EFA50000E120007013851391160
:100DB000D8B405D001D8D5D00500FA6EAFD001D88F
:100DC000D0D00500FA6ECF51FD6ED051FE6ED151DC
:100DD000FF6EFA50000E1200C1EC11F0C7EC08F0E3
:100DE0000901EA6F01D8BDD00500FA6E0701CF51A5
:100DF000FD6ED051FE6ED151FF6EFA500901EA51DD
:100E0000120007012E512F11D8B427D0120E2E5DDB
:100E10000601D46F090E07012F590601D56FD5BF02
:100E200006D0D5511AE1800ED45DD8B016D001D8C5
:100E300010D00500FA6E0701CF51FD6ED051FE6E45
:100E4000D151FF6EFA502EC7D9F42FC7DAF4DF5014
:100E5000120007012E4B2F2B84D007017151D8A40B
:100E600009D07251D8A406D07351D8A403D07451BC
:100E7000D8B477D0F10E0501BE6FE60EBF6FF7C68E
:100E8000C0F5C16BF9C6C2F5C36BF8C6C4F5C56B36
:100E900030C7C6F531C7C7F556C5C8F557C5C9F53A
:100EA000F5C6CAF5CB6BF6C6CCF5CD6BADEC11F043
:100EB00058D001D856D00500FA6E0701CF51FD6E0B
:100EC000D051FE6ED151FF6EFA500601FD51120055
:100ED00001D847D00500FA6E0701CF51FD6ED05101
:100EE000FE6ED151FF6EFA5094EC13F01200BF0E5B
:100EF0000501BE6FED0EBF6FF4C9C0F5C16BF4C93B
:100F0000C2F5C36BADEC11F0000E0601F46F010EDB
:100F1000F36F01D826D00500FA6E0701CF51FD6EA0
:100F2000D051FE6ED151FF6EFA50FF0E1200090132
:100F3000F4510601D46FD56BD551000AD8A4D7D788
:100F4000D451000AD8B431D7010AD8B445D7090A18
:100F5000D8B457D7060AD8B4ACD7AE0AD8B4B8D7E5
:100F6000C6D70601F351F411D8A490EC12F001D8C1
:100F70000CD00500FA6E0601FA51FD6EFB51FE6EB3
:100F8000FC51FF6EFA50000E120001D80BD0050084
:100F9000FA6E0701CC51FD6ECD51FE6ECE51FF6E43
:100FA000FA50120001D80CD00500FA6E0701C951A1
:100FB000FD6ECA51FE6ECB51FF6EFA50010E12004B
:100FC00001D80BD00500FA6E0701C651FD6EC7515E
:100FD000FE6EC851FF6EFA501200D8A0F1D701D8AA
:100FE0000CD00500FA6E0701DE51FD6EDF51FE6E7A
:100FF000E051FF6EFA50FF0E12000601F351F4119A
:10100000D8A4A3D18DEF8CF00901F75158EC0DF065
:101010002A4B2B2B53D107012E512F11D8B42ED090
:10102000120E2E5D0601D46F090E07012F5906011D
:10103000D56FD5BF06D0D55121E1800ED45DD8B093
:101040001DD02EC7D9F42FC7DAF4F7C9DFF4070192
:101050002E4B2F2B120E2E5D0601D46F090E0701A9
:101060002F590601D56F800ED419D511D8A426D1D9
:10107000000E0901F06F010EEF6F20D107017151D1
:10108000D8A409D07251D8A406D07351D8A403D0E3
:101090007451D8B413D13C0E0501BE6FE70EBF6F7B
:1010A000F7C6C0F5C16BF9C6C2F5C36BF8C6C4F587
:1010B000C56B30C7C6F531C7C7F556C5C8F557C5A6
:1010C000C9F5F5C6CAF5CB6BF6C6CCF5CD6BADEC64
:1010D00011F0F4D0F7C9F9F6F1D0F7C9F8F6EED06F
:1010E000000E070130150601D46FFF0E0701311500
:1010F0000601D56F0901F7510601D4110701306FC0
:101100000601D55116D00901F7510601D56FD46BF0
:10111000FF0E070130150601D66F000E07013115CD
:101120000601D76FD451D6110701306F0601D55192
:10113000D7110701316FC2D0F7C9F7F6030EF719BF
:10114000D8A406D0120E07012E6F090E2F6F05D0FE
:10115000000E0901F06F010EEF6F07017251D8B454
:1011600008D00601F751D8B410D0020EF719D8B440
:101170000CD007017351D8B4A1D00601F705D8B43B
:1011800004D0030EF719D8A499D007017451D8B42C
:1011900095D0F9C6D4F6010E0601D56F000ED66FB4
:1011A000D42B03D0D890D537D637D42FFBD707010F
:1011B00075510601D517070176510601D617D5518D
:1011C000D611D8A47BD01A0E0501BE6FE80EBF6FF2
:1011D000F7C6C0F5C16BF9C6C2F5C36BF8C6C4F556
:1011E000C56B30C7C6F531C7C7F556C5C8F557C575
:1011F000C9F5F5C6CAF5CB6BF6C6CCF5CD6BADEC33
:1012000011F05CD0F7C9F6F659D0F7C9F5F656D00B
:101210000901F75194EC0BF051D0D50E0501BE6FCA
:10122000E90EBF6FF4C9C0F5C16BF7C9C2F5C36B56
:10123000F4C9C4F5C56BF7C9C6F5C76BADEC11F0C1
:10124000000E0601F46F010EF36F38D00901F4515E
:101250000601D46FD56BD551000AD8A4DED7D4517E
:10126000010AD8B4D1D6090AD8B4D5D6020AD8B45E
:1012700031D7010AD8B431D7070AD8B431D7010A17
:10128000D8B45AD7020AD8B4BDD71F0AD8B4BDD72C
:10129000010AD8B438D7050AD8B4EAD6010AD8B4B6
:1012A000E7D6B50AD8B4B4D70A0AD8B4E1D6010A49
:1012B000D8B4DED6070AD8B4DBD6AFD701D80CD065
:1012C0000500FA6E0601FA51FD6EFB51FE6EFC51EF
