:0400000081EF00F09C
:10000800057A057A057A057A4000057A4000057A6E
:10001800057A057A057A057A057A057A057A057AE0
:10002800057A400040004000057A057A057A057A8D
:10003800057A057A057A057A057A057A057A057AC0
:10004800057A057A057A057A40004000057A057A2E
:10005800057A057A057A4000057A057A057A057ADF
:10006800057A057A057A057A057A057A057A057A90
:10007800057A057A057A057A40000450057A057AEA
:10008800057A057A057A057A057A057A057A057A70
:10009800057A057A057A057A4000057A400040001D
:1000A800057A057A057A057A057A057A057A057A50
:1000B800057A057A057A057A057A057A057A057A40
:1000C800057A057A057A057A057A057A057A057A30
:1000D800057A057A057A057A057A057A057A057A20
:1000E8004000057A057A057A40004000400040004B
:1000F800057A057A057A057AFF0079EFDBF03ACDC3
:100108003CFD3BCD3DFD3ACD36FD3BCD37FD000EE8
:100118000D01396F000E386FF7ECFCF00D0120EE81
:1001280005F03C51D9263D51DA22DF50C86E120045
:1001380004CD06FD05CD07FD04CD00FD05CD01FD6F
:10014800000E0D01036F000E026FEEEC02F00D01C0
:1001580020EE05F00651D9260751DA22DF50C86E85
:1001680012000CC60EF60DC60FF60CC608F60DC624
:1001780009F6000E06010B6F000E0A6FF6EC02F08E
:10018800060120EE05F00E51D9260F51DA22DF5074
:10019800C86E120007D008C6D9F409C6DAF4DE2AF8
:1001A800000EDD2208C6D9F409C6DAF4DEC40AF660
:1001B800DDC40BF60AC6D9F40BC6DAF4200EDE1835
:1001C800D8A41200E8D761CB63FB62CB64FB61CB98
:1001D8005DFB62CB5EFB000E0B01606F000E5F6F74
:1001E800A8ECFCF00B0120EE05F06351D926645110
:1001F800DA22DF50C86E12000CCD01FD0DCD02FDD4
:100208000F0E036F0D0E046F1EECEAF00E6F0E5109
:10021800D8A412000CCDD9F40DCDDAF4000EDE6EA0
:10022800000EDD6E12000FC79EFB10C79FFB1FEC70
:10023800F0F014C657FB15C658FB000E0B015A6F99
:10024800040E596F000E5C6F000E5B6FC0ECF0F08F
:10025800120006010D6F010E06010C6F7B0E0D6179
:1002680003D0610E0D6107D00D5195EC02F0D8B0A6
:1002780002D0000E0C6F0CC60BF60B31120008C62C
:100288000EF609C60FF608D00EC6D9F40FC6DAF472
:100298000AC6DFF40E4B0F2B0C07D8A00D070C294C
:1002A800F3E10D29D8B41200EFD78A298B11D8B4FD
:1002B80006D0A6CB9EFBA7CB9FFB1FECF0F0050159
:1002C80086298711D8B41200A6CB9EFBA7CB9FFB2B
:1002D80060ECF1F0120000C765FB01C766FB65CB57
:1002E80061FB66CB62FBE7EC00F065CB3AF866CBC6
:1002F8003BF8000E08013D6F010E3C6F99ECF2F0DF
:10030800120000C73EFD01C73FFD3ECD3AFD3FCD7F
:100318003BFD83EC00F03ECD23FD3FCD24FD000ED8
:10032800266F010E256FC2ECF3F0120006010A6F6A
:10033800010E0601096F200E0A19D8B408D00E0E56
:100348000A6103D0090E0A6102D0000E096F09C6BE
:1003580008F60831120008C60CF609C60DF60CC6D8
:10036800D9F40DC6DAF40AC6DFF40C4B0D2B0CC613
:10037800D9F40DC6DAF40BC6DFF40C4B0D2B1200C2
:1003880000CDD9F401CDDAF402CDDFF4004B012B16
:1003980003CD02FD036B00CDD9F401CDDAF402CD13
:1003A800DFF4004B012B12000D01006F0D0100510D
:1003B800D8B402D0020E12000801432907E14429EB
:1003C80005E1452903E14629D8B4F4D7000E120007
:1003D800060108510A03F3C40CF6F4C40DF60851DB
:1003E8000B03F3500D2709510A03F3500D270CC6D0
:1003F80008F60DC609F6120008C6D9F409C6DAF4DB
:100408000AC6DFF4084B092B0BC60AF60B6B08C6A5
:10041800D9F409C6DAF40AC6DFF4084B092B12002E
:1004280006010F693AC82BF83BC82CF80F0E0801D3
:100438002D6F060E2E6F000E306F010E2F6FE9EC38
:10044800ECF006010F5112000D01256923CD14FDB2
:1004580024CD15FD250E166F0D0E176F000E196FA2
:10046800010E186F35ECEEF00D0125511200005108
:100478000203F3C404FDF4C405FD00510303F35063
:10048800052701510203F350052704CD00FD05CDD2
:1004980001FD12000D01256923CD14FD24CD15FDA4
:1004A800250E166F0D0E176F000E196F010E186FBF
:1004B800D9ECEEF00D0125511200086F0601085124
:1004C800D8B402D0020E12000801432907E14429DA
:1004D80005E1452903E14629D8B4F4D7000E1200F6
:1004E80006010A6F000E0601096F3A0E0A6105D06F
:1004F8002F0E0A6502D0010E096F09C608F60831E9
:100508001200026F000E0D01016F3A0E026105D054
:100518002F0E026502D0010E016F01CD00FD0031E2
:1005280012000A6F000E0601096F5B0E0A6105D002
:10053800400E0A6502D0010E096F09C608F6083197
:1005480012000D0120EE02F00051D9260151DA22E5
:10055800DEC400FDDDC401FD1200060120EE02F03C
:100568000851D9260951DA22DEC408F6DDC409F695
:1005780012000601086F7B0E0601086104D0600EA8
:10058800086501D0089B08511200D7AE02D0FEEFD3
:1005980002F00D01006FB7A2FED700CDC9F212001C
:1005A800000E0D01006F000E016F210E026F000E8C
:1005B800036F1200FFFF7DFFFF0044F3FF000FF3FE
:1005C8000100FFCFB20E0501686F020E696F000EC1
:1005D8006A6F120002510311D8A402D0C28412001B
:1005E800C29412000A510B11D8A402D0C28412007E
:1005F800C29412000601086FB7A2FED708C6C9F256
:10060800120004012095C284CA94120004012095A6
:10061800C284CA94120005019051120078096B092E
:09062800FFFFFFFF85091200012C
:10ED000000010000000800000040000000000200B8
:10ED1000000010000000800000000004000000203F
:10ED20000000000001000000080000004001000099
:10ED3000000A00000064000000E803000010270043
:10ED400000A086010040420F008096980000E1F587
:10ED50000500CA9A3B62D8F8014375FE0063A5FA24
:10ED60000064E5F702788CFF027281FE005382FF97
:10ED7000017394FC006887FF000100000010000090
:10ED80000000010000001000000000010000001061
:10ED9000000000000100000010819FE0FC407E8028
:10EDA000FC000010000000E9FF020115F800026EEF
:10EDB000FB000335FD0004B1FE0005ABFE01060FAC
:10EDC000F9000796FF000872F90009FEF9000A7CB5
:10EDD000F9000B2EFD000CCFFE000DC9FE010E6CDC
:10EDE000FA000F9BFF011076FC02112DF80012D6DD
:10EDF000F90013B3FD0014F3FE0015EDFE01161A21
:10EE0000F90017D5FF011871FF00191CFA001A86C6
:10EE1000F9001BACFD001C11FF001D0BFF011E764D
:10EE2000FA001FD9FF01201AFB022145F802226EC9
:10EE3000F7002338FE00242FFF002529FF01262597
:10EE4000F90027D1FF01286EFC002958FA022A0C8C
:10EE5000F7002B31FE002C4DFF002D47FF012E80C7
:10EE6000FA002FE5FF013011FB02315DF80232A4F8
:10EE7000F7003354FE0034D2FA0035C9FA013628BF
:10EE8000F70037E1FF013866FC003962FA023A9771
:10EE9000F7003B4DFE003C93FE003D8DFE013E041D
:10EEA000F9003FDDFF0040D3FC004104FD0042516A
:10EEB000FD004382FD0044D6FD004507FE00469A52
:10EEC000F90047A2FC0048DAFC00490BFD004A5853
:10EED000FD004B89FD004CDDFD004D0EFE004EA4F3
:10EEE000F9004FA9FC0050E1FC005112FD00525FF7
:10EEF000FD005390FD0054E4FD005515FE0056AE94
:10EF0000F90057B0FC0058E8FC005919FD005A669A
:10EF1000FD005B97FD005CEBFD005D1CFE005EB834
:10EF2000F9005FB7FC0060EFFC006120FD00626D3E
:10EF3000FD00639EFD0064F2FD006523FE0066C2D5
:10EF4000F90067BEFC0068F6FC006927FD006A74E2
:10EF5000FD006BA5FD006CF9FD006D2AFE006ECC76
:10EF6000F9006FC5FC0070EAF90071F4F90072084D
:10EF7000FA007312FA007426FA00754EFA0076BE93
:10EF8000FF0077E0F90078CCFC0079FDFC007A4ABC
:10EF9000FD007B7BFD007CCFFD007D00FE007E90B0
:10EFA000F9007F9BFC008086FB00819EFB0082BEF7
:10EFB000FB0083D6FB0084FEFB008556FC0086F92F
:10EFC000F8008766FB00887EFB008996FB008AB606
:10EFD000FB008BCEFB008CF6FB008D4EFC008EEE12
:10EFE000F8008F5EFB0090A5FE0091C3FE0092E743
:10EFF000FE009305FF009423FF009541FF0096C09B
:10F00000FA009787FE009876FB00998EFB009AAE77
:10F01000FB009BC6FB009CEEFB009D46FC009EE3B4
:10F02000F8009F56FB00A0B7FE00A1D5FE00A2F994
:10F03000FE00A317FF00A435FF00A553FF00A6DBC9
:10F04000FA00A799FE00A8BDFE00A9DBFE00AAFFFA
:10F05000FE00AB1DFF00AC3BFF00AD59FF00AEE46E
:10F06000FA00AF9FFE00B0BEFE00B1DCFE00B200B1
:10F07000FF00B31EFF00B43CFF00B55AFF00B6E529
:10F08000FA00B7A0FE00B8A0FF00B9A5FF00BAAA19
:10F09000FF00BBAFFF00BCB4FF00BDB9FF00BE4620
:10F0A000FB00BF91FF00C05BFE00C13CFD02C269D6
:10F0B000F802C3F6FA02C460F700C5A6FB01C60950
:10F0C000F800C706FC00C86BFF00C9EDFF02CA5C70
:10F0D000F900CB000002CCD8F702CD30F901CEFD0B
:10F0E000F700CF26FC00D043FD00D1BAFD02D221AB
:10F0F000F801D31AF702D436F700D5DEFB01D6307B
:10F10000FA00D70EFC00D8E1FE00D9F1FF02DA3B8D
:10F11000F901DB8AF702DCCBF700DD000001DEF14C
:10F12000F700DF2EFC00E046FE00E13FFE02E25168
:10F13000F800E367F902E452F700E55EFC01E63A05
:10F14000FA00E716FC00E8C1FD00E94EFB02EA39CF
:10F15000F800EBFFFA02EC44F700ED000001EE448A
:10F16000FA00EF36FC00F065FF00F1C8FD02F25135
:10F17000F900F3F9FF02F4BEF700F5E6FB01F645EE
:10F18000FA00F71EFC00F85FFF00F908FB02FA46E0
:10F19000F900FBFCFF02FCB1F700FD000001FEEDF1
:10F1A000FA00FF3EFCF0000000C3BB0000000000BE
:10F1B000000000000000000000000000000000004F
:10F1C000000000000000000000000000000000003F
:10F1D000000000000000000000000000000000002F
:10F1E000000000000000000000000000000000001F
:10F1F000000000000000000000000000000000000F
:10F2000000000000000000000000000000000000FE
:10F2100000000000000000000000000000000000EE
:10F22000000000000000000000424F4F543A2065EB
:10F2300072726F7220626F6F74696E670D0A00439D
:10F24000502F4D20626F6F742D6C6F61646572205A
:10F25000666F72205A38302D53696D756C61746F0A
:10F26000720D0A002196007ED30123B7C2BE0001B1
:10F270000100210000AFD30A78D30B79D30C7DD3E2
:10F280000F7CD310AFD30DDB0EB7CA0000C630D34E
:10F29000013E0DD3013E0AD3012180007EB7CAFE94
:10F2A00000D30123C3F300F3760000000000000048
:10F2B000000000000000000000000000000000004E
:10F2C000000000000000000000000000000000003E
:10F2D000000000000000000000000000000000002E
:10F2E000000000000000000000000000000000001E
:10F2F000000000000000000000000000000000000E
:10F30000000000000000000000000000000000ED10
:10F31000739100319100F5C5D5E5DDE5FDE5D3AA92
:10F32000FDE1DDE1E1D1C1F1ED7B9100ED450000B2
:10F3300000000000000000000000000000000000CD
:10F3400000000000ED733300313300F5C5D5E5DD75
:10F35000E5FDE5D3ACFDE1DDE1E1D1C1F1ED7B33CC
:10F3600000ED4D0000000000000000000000000063
:10F3700000350093005741524E494E473A206E6F78
:10F38000204750494F20657870616E646572207423
:10F390006F20636F6E74726F6C2068696768657246
:10F3A00020616464726573730A0D005741524E49BF
:10F3B0004E473A20746F6F206D616E792062616EE6
:10F3C0006B73207265717565737465642E20287285
:10F3D000657175657374206973202564290A0D00B1
:10F3E000496D6167652066696C652025732F4452FD
:10F3F00049564525632E44534B206973206173732E
:10F4000069676E656420746F206472697665202573
:10F41000630A0D005741524E494E473A20756E6BB4
:10F420006E6F776E20492F4F2077726974652025A3
:10F43000642C202564202825303258482C20253083
:10F44000325848290A0D005741524E494E473A203A
:10F45000756E6B6E6F776E20492F4F2072656164F9
:10F4600020256420282530325848290A0D0053757C
:10F470007065724D455A38302B5350492077697466
:10F4800068204750494F20657870616E6465720A44
:10F490000D004552524F523A2062616E6B20256436
:10F4A000206973206E6F7420617661696C61626C93
:10F4B000652E0A0D004D656D6F7279203030303049
:10F4C0003030202D202530366C5848202564204BC4
:10F4D00042204F4B0D0A00436C65617220627265D9
:10F4E000616B706F696E74206174202530346C58C4
:10F4F0000A0D000A0D526573657420627920494F28
:10F5000020706F72742025303258480A0D00466111
:10F51000696C656420746F206F70656E20534420A1
:10F52000436172642E2E0A0D004661696C65642089
:10F53000746F206D6F756E74205344204361726444
:10F540002E0A0D000A0D48414C5420627920494F83
:10F5500020706F72742025303258480A0D005365B0
:10F560007420627265616B706F696E7420617420C3
:10F570002530346C580A0D000A4D656D6F72792084
:10F580006572726F72206174202530366C58480A9B
:10F590000D005354415455533A2025632563256388
:10F5A0002563256325632563256300202020202013
:10F5B000202020202020202020202020202020204B
:10F5C00020200D007761697420666F722070726F61
:10F5D0006772616D6D6572202E2E2E0D00257325CC
:10F5E00035337320434845434B53554D3A2025301E
:10F5F00032780A0D00427265616B706F696E74201B
:10F600006973206E6F74207365740A0D004D656D0B
:10F610006F727920303030303030202D2025303658
:10F620006C58480D00427265616B706F696E742092
:10F630006973202530346C580A0D00756E6B6E6F3F
:10F64000776E20636F6D6D616E643A2025730A0DCD
:10F6500000665F777269746528293A204552524FD7
:10F66000520A0D00665F6C7365656B28293A204568
:10F6700052524F520A0D00665F7265616428293A42
:10F68000204552524F520A0D002573206973207392
:10F69000656C65637465642E0A0D00303132333455
:10F6A00035363738394142434445460030313233EC
:10F6B000343536373839616263646566004D4D55BF
:10F6C0003A2062616E6B2025303258202000427251
:10F6D00065616B20617420253034580A0D004E6F2F
:10F6E00020626F6F74206469736B2E0A0D002A2BE1
:10F6F0002C3A3B3C3D3E5B5D7C223F7F0025732FD7
:10F70000445249564525632E44534B004C442048EF
:10F710004C2C28253034584829004F555420282592
:10F7200030325848292C41004C442028484C292C80
:10F7300025303258480043414C4C204E432C253054
:10F740003458480043414C4C2050452C2530345807
:10F75000480043414C4C20504F2C25303458480031
:10F7600043414C4C204E5A2C2530345848004C44D0
:10F7700020282530345848292C484C004E6F2053FF
:10F780004420436172643F0A0D00494E20412C28F9
:10F79000253032584829004C4420412C282530344B
:10F7A000584829004C4420282530345848292C41F9
:10F7B0000043414C4C204D2C2530345848004341E7
:10F7C0004C4C20502C25303458480043414C4C20A0
:10F7D000582C25303458480043414C4C205A2C2595
:10F7E0003034584800646973617373656D626C6589
:10F7F0000053424320412C253032584800414443B5
:10F8000020412C25303258480041444420412C25C9
:10F8100030325848004C442042432C25303458485C
:10F82000004A50204E432C2530345848004C442088
:10F8300044452C2530345848004A502050452C254A
:10F8400030345848004C4420484C2C25303458481B
:10F85000004A5020504F2C2530345848004C44204A
:10F8600053502C2530345848004A50204E5A2C25ED
:10F87000303458480070726F6772616D3A0A0D003B
:10F8800049593A20253034580A0D0042433A202580
:10F8900030345820200050433A202530345820205E
:10F8A0000044453A202530345820200041463A2073
:10F8B00025303458202000484C3A20253034582038
:10F8C000200053503A202530345820200049583A1F
:10F8D0002025303458202000627265616B706F699A
:10F8E0006E740053424320412C28484C2900414467
:10F8F0004320412C28484C290041444420412C28D5
:10F90000484C29004C4420412C2530325848004CAA
:10F910004420422C2530325848004C4420442C25A9
:10F9200030325848004C4420482C2530325848008A
:10F9300043414C4C202530345848004A5020432C39
:10F940002530345848004A50204D2C253034584832
:10F95000004A5020502C2530345848004A50205A34
:10F960002C253034584800455820285350292C481D
:10F970004C0045582041462C414627004C4420412C
:10F980002C28424329004C4420412C28444529007E
:10F990004C4420412C28484C29004C4420422C281F
:10F9A000484C29004C4420432C28484C29004C4406
:10F9B00020442C28484C29004C4420452C28484CF5
:10F9C00029004C4420482C28484C29004C44204C09
:10F9D0002C28484C29004C4420284445292C41001F
:10F9E0004C442028484C292C41004C442028484CA9
:10F9F000292C42004C442028484C292C43004144E7
:10FA00004420484C2C4243004C442028484C292C8C
:10FA100044004C442028484C292C450041444420B3
:10FA2000484C2C4445004C442028484C292C480084
:10FA300053554220253032584800414E442025304D
:10FA400032584800584F52202530325848004C4414
:10FA50002028484C292C4C0041444420484C2C4838
:10FA60004C0041444420484C2C5350004C4420430B
:10FA70002C25303258004C4420452C25303258007B
:10FA80004C44204C2C253032580025732530366CE0
:10FA9000783A004641543332202020007374616369
:10FAA0006B3A0A0D00636F6E74696E75650020779E
:10FAB000726974653A20007665726966793A200049
:10FAC0005355422028484C29004445432028484C9F
:10FAD0002900494E432028484C2900414E44202803
:10FAE000484C2900584F522028484C2900435020A8
:10FAF0002530325848004A502025303458480045B7
:10FB0000582044452C484C004C442053502C484C21
:10FB1000004A52204E432C2564004A52204E5A2C53
:10FB200025640025643A2025730A0D0053656C6531
:10FB300063743A200043504D4449534B530025739E
:10FB4000253034783A0043502028484C29004A5048
:10FB50002028484C290053424320412C4100414475
:10FB60004320412C410041444420412C41004C445D
:10FB70002042432C410053424320412C4200414447
:10FB80004320412C420041444420412C4200534236
:10FB90004320412C430041444320412C4300414435
:10FBA0004420412C430050555348204243005342C7
:10FBB0004320412C440041444320412C4400414413
:10FBC0004420412C440053424320412C45004144F1
:10FBD0004320412C450041444420412C45005055D0
:10FBE0005348204445005055534820414600534255
:10FBF0004320412C480041444320412C48004144CB
:10FC00004420412C48005253542030304800525375
:10FC1000542031304800525354203230480052535F
:10FC20005420333048005253542030384800525347
:10FC3000542031384800525354203238480052532F
:10FC400054203338480053424320412C4C00414457
:10FC50004320412C4C0041444420412C4C00505541
:10FC6000534820484C004A5220432C2564004A52F5
:10FC7000205A2C256400444A4E5A2C2564004350D7
:10FC80004D4449537E00286E756C6C29003C2564F8
:10FC90003E0A0D00737461747573004C4420412C4E
:10FCA00041004C4420422C41004C4420432C410054
:10FCB0004C4420442C41004C4420452C41004C44F1
:10FCC00020482C41004C44204C2C41004C44204105
:10FCD0002C42004C4420422C42004C4420432C42F5
:10FCE000004C4420442C42004C4420452C42004C03
:10FCF0004420482C42004C44204C2C42004C4420D0
:10FD0000412C43004C4420422C43004C4420432CC3
:10FD100043004C4420442C43004C4420452C4300D9
:10FD20004C4420482C43004C44204C2C4300444578
:10FD30004320424300494E4320424300504F50204D
:10FD4000424300524554204E43004C4420412C4431
:10FD5000004C4420422C44004C4420432C44004C92
:10FD60004420442C44004C4420452C44004C442066
:10FD7000482C44004C44204C2C44004C4420412C42
:10FD800045004C4420422C45004C4420432C450067
:10FD90004C4420442C45004C4420452C45004C4408
:10FDA00020482C45004C44204C2C45004445432021
:10FDB000444500494E4320444500504F502044459F
:10FDC0000052455420504500504F50204146004CB1
:10FDD0004420412C48004C4420422C48004C4420F4
:10FDE000432C48004C4420442C48004C4420452CD3
:10FDF00048004C4420482C48004C44204C2C4800DF
:10FE00004C4420412C4C004C4420422C4C004C448F
:10FE100020432C4C004C4420442C4C004C442045A6
:10FE20002C4C004C4420482C4C004C44204C2C4C76
:10FE30000044454320484C00494E4320484C005064
:10FE40004F5020484C0052455420504F00444543E9
:10FE500020535000494E4320535000524554204EE9
:10FE60005A002530366C5820002025303278000D9D
:10FE70002573200D00636C656172000D2573257379
:10FE80000072657365740053554220410044454338
:10FE9000204100494E43204100414E44204100583A
:10FEA0004F522041005355422042004445432042D6
:10FEB00000494E43204200414E44204200584F52D8
:10FEC000204200535542204300444543204300490B
:10FED0004E43204300414E44204300584F5220439C
:10FEE00000524554204300535542204400444543AA
:10FEF000204400494E43204400414E4420440058D1
:10FF00004F5220440053554220450044454320456C
:10FF100000494E43204500414E44204500584F5271
:10FF2000204500535542204800444543204800499D
:10FF30004E43204800414E44204800584F5220482C
:10FF400000535542204C00444543204C00494E4349
:10FF5000204C00414E44204C00584F52204C00523F
:10FF60004554204D00524554205000524554205ACB
:10FF7000004A52202564002530325820004D4F4E53
:10FF80003E00737465700068656C700064756D7018
:10FF9000004350204100524C434100525243410023
:10FFA000435020420043502043004350204400432C
:10FFB0005020450043502048004350204C00484109
:10FFC0004C540025640A0D00303A2F2F000D257384
:10FFD0000044414100524C410052524100434346CB
:10FFE000005343460043504C004E4F50005245547E
:10FFF00000455858003F3F3F004449004549000034
:020000040001F9
:1000000090EF88F0250E6919D8B438D0080120EE99
:1000100002F02A51D9262B51DA22DE50DE10DE10F2
:10002000D8B415D020EE02F02A51D9262B51DA226D
:1000300002D890EF88F00500FA6EDE50FD6EDE50BB
:10004000FE6EDE50FF6EFA500B01695112002AC895
:10005000D9F42BC8DAF4DEC430F8DDC431F830C886
:10006000D9F431C8DAF469CBDFF42AC8D9F42BC843
:10007000DAF4DE2A000EDD2290EF88F0000E686FC1
:10008000000E676F000E6B6F000E6A6F0ED00B01D3
:100090006A8708D00B016A8105D00B016B8702D0FB
:1000A0000B016A8508012C4B2D2B2CC8F6F42DC8AA
:1000B000F7F4000EF86E0800F550200AD8B4EAD71D
:1000C000030AD8B4EAD70E0AD8B4E1D71D0AD8B4C7
:1000D000E7D70B016AB76A952CC8F6F42DC8F7F478
:1000E000000EF86E0800F55074EC02F0D8A03BD07A
:1000F000000E0B01686F000E676F67CB08F668CBC8
:1001000009F6000E06010B6F0A0E0A6FECEC01F007
:1001100008C667FB09C668FB2CC8F6F42DC8F7F4BF
:10012000000EF86E0800F5C430F8D00E0801302536
:10013000316F326BFF0E322331510B0167270801FB
:1001400032510B01682308012C4B2D2B2CC8F6F4DF
:100150002DC8F7F4000EF86E0800F55074EC02F0AC
:10016000D8A023D0CAD72CC8F6F42DC8F7F4000EB7
:10017000F86E0800F5502A0AD8A417D02EC8D9F472
:100180002FC8DAF4DFC430F8020EDE26DFC431F8FF
:10019000000EDD2230C8D9F431C8DAF4DEC467FBC2
:1001A000DDC468FB08012C4B2D2B2CC8F6F42DC8A0
:1001B000F7F4000EF86E0800F5502E0AD8A46BD0A4
:1001C0000B016B8D08012C4B2D2B2CC8F6F42DC880
:1001D000F7F4000EF86E0800F5502A0AD8A420D0D3
:1001E0002EC8D9F42FC8DAF4DFC430F8020EDE26A8
:1001F000DFC431F8000EDD2230C8D9F431C8DAF49A
:10020000DEC465FBDDC466FB0B0166AF05D0000EE6
:10021000666F000E656F6B9D08012C4B2D2BB4D1C2
:10022000000E0B01666F000E656F28D065CB08F6D7
:1002300066CB09F6000E0B6F0A0E0A6FECEC01F0AC
:1002400008C665FB09C666FB2CC8F6F42DC8F7F492
:10025000000EF86E0800F5C430F8D00E0801302505
:10026000316F326BFF0E322331510B0165270801CC
:1002700032510B01662308012C4B2D2B2CC8F6F4B0
:100280002DC8F7F4000EF86E0800F55074EC02F07B
:10029000D8A07AD1CBD7000E0B01666F000E656F28
:1002A00073D16A8971D16A8D9DD16A8B6A8F9AD117
:1002B0002EC8D9F42FC8DAF4DFC430F8020EDE26D7
:1002C000DFC431F8000EDD2230C8D9F431C8DAF4C9
:1002D000DEC45DFBDDC45EFB5D515E11D8A404D0BD
:1002E000860E5D6FFC0E5E6F000E606F000E5F6F1E
:1002F00003D00B015F4B602B5F515D250801306F10
:100300000B0160515E210801316F30C8F6F431C82D
:10031000F7F4000EF86E250EF76403D00800F550D0
:1003200005D0F6C4E9F4F7C4EAF4EF500009D8A404
:10033000E0D70B0165516611D8B411D05F51655DEE
:100340006651800A0801306F0B016051800A080174
:100350003059D8B004D065CB5FFB66CB60FB0B0196
:1003600067515F5D68516059D8B005D05F51675FD4
:100370006051685B04D0000E686F000E676F6AA75B
:1003800035D099D0080120EE02F02A51D9262B5100
:10039000DA22DE50DE10DE10D8B413D020EE02F0E8
:1003A0002A51D9262B51DA2201D820D00500FA6E25
:1003B000DE50FD6EDE50FE6EDE50FF6EFA50200EF7
:1003C00012002AC8D9F42BC8DAF4DEC430F8DDC430
:1003D00031F830C8D9F431C8DAF4200EDF6E2AC8FB
:1003E000D9F42BC8DAF4DE2A000EDD220B016707F0
:1003F000D8A068076729C6E16829D8B45CD0C2D7FD
:10040000080120EE02F02A51D9262B51DA22DE50C3
:10041000DE10DE10D8B427D020EE02F02A51D92603
:100420002B51DA2201D81BD00500FA6EDE50FD6E8A
:10043000DE50FE6EDE50FF6EFA505DCBF6F45ECB02
:10044000F7F4000EF86E250EF76403D00800F5509F
:1004500005D0F6C4E9F4F7C4EAF4EF5012000B013A
:100460005D4B5E2B28D05DCBF6F45ECBF7F4000E2F
:10047000F86E2AC8D9F42BC8DAF4DEC430F8DDC42B
:1004800031F830C8D9F431C8DAF4250EF76403D056
:100490000800F55005D0F6C4E9F4F7C4EAF4EF50CB
:1004A000DF6E0B015D4B5E2B2AC8D9F42BC8DAF442
:1004B000DE2A000EDD225F07D8A060075F29A0E1D9
:1004C0006029D8A49DD76AB736D090EF88F008018C
:1004D00020EE02F02A51D9262B51DA22DE50DE100E
:1004E000DE10D8B413D020EE02F02A51D9262B51B9
:1004F000DA2201D820D00500FA6EDE50FD6EDE5003
:10050000FE6EDE50FF6EFA50200E12002AC8D9F49B
:100510002BC8DAF4DEC430F8DDC431F830C8D9F4C1
:1005200031C8DAF4200EDF6E2AC8D9F42BC8DAF409
:10053000DE2A000EDD220B016707D8A068076729B5
:10054000C6E16829D8B490EF88F0C1D72EC8D9F495
:100550002FC8DAF4DFC430F8020EDE26DFC431F82B
:10056000000EDD2230C8D9F431C8DAF4DF50696FEB
:10057000690E5D6F0B0E5E6F000E606F010E5F6F98
:10058000D8D6C00E6A132ED02CC8F6F42DC8F7F4B6
:1005900008012C4B2D2B000EF86E0800F5C469FBEA
:1005A0000B016951000AD8B4A1EF88F0580AD8B4F9
:1005B0007CD63B0AD8B4CAD7070AD8B413D00D0AE0
:1005C000D8B410D0050AD8B46CD6030AD8B46BD608
:1005D0001C0AD8B46DD6060AD8B4D3D70D0AD8B43D
:1005E00065D6C6D76ACB30F8C00E08013017D8A43C
:1005F00042D00B016AA919D02EC8D9F42FC8DAF459
:10060000DFC430F8040EDE26DFC431F8000EDD2230
:1006100030C8D9F431C8DAF4DEC461FBDEC462FB51
:10062000DEC463FBDEC464FB19D02EC8D9F42FC826
:10063000DAF4DFC430F8020EDE26DFC431F8000E33
:10064000DD2230C8D9F431C8DAF4DEC461FBDDC480
:1006500062FB000E62BFFF0E636F646F64AF41D038
:10066000030E6A13641F631F621F616D000E622315
:100670006323642336D00B016AA919D02EC8D9F49C
:100680002FC8DAF4DFC430F8040EDE26DFC431F8F8
:10069000000EDD2230C8D9F431C8DAF4DEC461FBC3
:1006A000DEC462FBDEC463FBDEC464FB1AD02EC86A
:1006B000D9F42FC8DAF4DFC430F8020EDE26DFC426
:1006C00031F8000EDD2230C8D9F431C8DAF4DEC4C6
:1006D00032F8DDC433F832C861FB33C862FB636BA8
:1006E000646B65516611D8A46CD0615162116311BD
:1006F0006411D8A466D0654B662B63D0010E696F78
:100700000A0E6919D8B46BD06951040D2D0EF3246B
:10071000F66EED0EF420F76EF86A000EF82209006E
:10072000F550615D0900F55062590900F5506359B3
:100730000900F5506459D8A052D0692BE1D7010EB9
:10074000696F080E6919D8B44AD06951040D790E41
:10075000F324F66EED0EF420F76EF86A000EF82220
:100760000900F550615D0900F55062590900F55026
:1007700063590900F5506459D8A031D0692BE1D7ED
:10078000010E696F0B0E6919D8B429D06951040D97
:10079000010EF324F66EED0EF420F76EF86A000EEB
:1007A000F8220900F550615D0900F5506259090011
:1007B000F55063590900F5506459D8A010D0692B41
:1007C000E1D76A51C00B000AD8B498D7400AD8B410
:1007D000D7D7C00AD8B4B3D7400AD8B48FD7695195
:1007E0000801306F316B0B0165510801305D3151EB
:1007F000800A326F0B016651800A08013259D8B065
:1008000003D065CB69FB15D00B0169510801306F2E
:10081000316B30510B01655D6651800A0801326F02
:100820003151800A3259D8B004D069CB65FB0B0135
:10083000666B0B0167516811D8B40BD06ACB30F8E6
:10084000030E08013017D8B404D00B016707D8A0F5
:1008500068070B016BAD18D06751655D6651800A62
:100860000801306F0B016851800A08013059D8B077
:1008700006D00B016551675F6651685B05D0000EBD
:100880000B01686F000E676FC40E6A150801306FA8
:10089000080E0B016B150801316F400E30190DE188
:1008A000080E3119D8A409D00B0167516811D8B4CA
:1008B00027D06707D8A0680723D0C00E0B016A15A0
:1008C0000801306F080E0B016B150801316F800EA7
:1008D000301916E1080E3119D8A412D00B0168BFE7
:1008E0000BD0685104E1030E675DD8A005D0FE0E61
:1008F0006727FF0E682304D0000E686F000E676F35
:100900000B0169510801306F316B0B016751080110
:10091000305D3151800A326F0B016851800A080145
:100920003259D8B006D00B016951675F000E685B81
:1009300005D0000E0B01686F000E676F6AA531D1FC
:100940006ACB30F8030E08013017D8B42CD020EE53
:1009500002F02A51D9262B51DA22DE50DE10DE10A9
:10096000D8B413D020EE02F02A51D9262B51DA2226
:1009700001D8D9D00500FA6EDE50FD6EDE50FE6E55
:10098000DE50FF6EFA502D0E12002AC8D9F42BC883
:10099000DAF4DEC430F8DDC431F830C8D9F431C837
:1009A000DAF42D0E2FD00B016AA12ED0080120EE13
:1009B00002F02A51D9262B51DA22DE50DE10DE1049
:1009C000D8B413D020EE02F02A51D9262B51DA22C6
:1009D00001D8A9D00500FA6EDE50FD6EDE50FE6E25
:1009E000DE50FF6EFA50200E12002AC8D9F42BC830
:1009F000DAF4DEC430F8DDC431F830C8D9F431C8D7
:100A0000DAF4200EDF6E88D0C00E6A150801306F50
:100A1000080E0B016B150801316F800E301903E1D0
:100A2000080E3119D8A47FD020EE02F02A51D92621
:100A30002B51DA22DE50DE10DE10D8B413D020EEB7
:100A400002F02A51D9262B51DA2201D820D00500F4
:100A5000FA6EDE50FD6EDE50FE6EDE50FF6EFA5016
:100A6000300E12002AC8D9F42BC8DAF4DEC430F8EC
:100A7000DDC431F830C8D9F431C8DAF4300EDF6E95
:100A80002AC8D9F42BC8DAF4DE2A000EDD220801C8
:100A900020EE02F02A51D9262B51DA22DE50DE1048
:100AA000DE10D8B420D00B016ABB04D0000E546F06
:100AB000780E03D0000E546F580E536F080120EECD
:100AC00002F02A51D9262B51DA2201D82CD0050068
:100AD000FA6EDE50FD6EDE50FE6EDE50FF6EFA5096
:100AE0000B01535112000B016ABB04D0000E566F6C
:100AF000780E03D0000E566F580E556F2AC8D9F4E1
:100B00002BC8DAF4DEC430F8DDC431F830C8D9F4CB
:100B100031C8DAF455CBDFF42AC8D9F42BC8DAF49B
:100B2000DE2A000EDD220B0167516811D8B4ABD26A
:100B3000080120EE02F02A51D9262B51DA22DE508C
:100B4000DE10DE10D8B413D020EE02F02A51D926E0
:100B50002B51DA2201D820D00500FA6EDE50FD6E4E
:100B6000DE50FE6EDE50FF6EFA50300E12002AC8C4
:100B7000D9F42BC8DAF4DEC430F8DDC431F830C85B
:100B8000D9F431C8DAF4300EDF6E2AC8D9F42BC894
:100B9000DAF4DE2A000EDD220B016707D8A0680711
:100BA000C3D767516811D8A46AB73CD0080120EEBA
:100BB00002F02A51D9262B51DA22DE50DE10DE1047
:100BC000D8B413D020EE02F02A51D9262B51DA22C4
:100BD00001D820D00500FA6EDE50FD6EDE50FE6EAC
:100BE000DE50FF6EFA50200E12002AC8D9F42BC82E
:100BF000DAF4DEC430F8DDC431F830C8D9F431C8D5
:100C0000DAF4200EDF6E2AC8D9F42BC8DAF4DE2A13
:100C1000000EDD220B016707D8A068076751681135
:100C2000D8A4C4D76ACB30F8030E08013017D8B463
:100C30002CD020EE02F02A51D9262B51DA22DE5098
:100C4000DE10DE10D8B413D020EE02F02A51D926DF
:100C50002B51DA2201D850D00500FA6EDE50FD6E1D
:100C6000DE50FE6EDE50FF6EFA502D0E12002AC8C6
:100C7000D9F42BC8DAF4DEC430F8DDC431F830C85A
:100C8000D9F431C8DAF42D0E2FD00B016AA134D07B
:100C9000080120EE02F02A51D9262B51DA22DE502B
:100CA000DE10DE10D8B413D020EE02F02A51D9267F
:100CB0002B51DA2201D820D00500FA6EDE50FD6EED
:100CC000DE50FE6EDE50FF6EFA50200E12002AC873
:100CD000D9F42BC8DAF4DEC430F8DDC431F830C8FA
:100CE000D9F431C8DAF4200EDF6E2AC8D9F42BC843
:100CF000DAF4DE2A000EDD22C00E0B016A150801AF
:100D0000306F080E0B016B150801316F400E301962
:100D100031E1080E3119D8A42DD020EE02F02A516D
:100D2000D9262B51DA22DE50DE10DE10D8B413D0D3
:100D300020EE02F02A51D9262B51DA2201D8A3D174
:100D40000500FA6EDE50FD6EDE50FE6EDE50FF6E68
:100D5000FA50300E12002AC8D9F42BC8DAF4DEC4D7
:100D600030F8DDC431F830C8D9F431C8DAF4300EC7
:100D7000DF6E82D1C00E0B016A150801306F080EBC
:100D80000B016B150801316F800E301903E1080E5D
:100D90003119D8A478D120EE02F02A51D9262B514E
:100DA000DA22DE50DE10DE10D8B413D020EE02F0CE
:100DB0002A51D9262B51DA2201D820D00500FA6E0B
:100DC000DE50FD6EDE50FE6EDE50FF6EFA50300ECD
:100DD00012002AC8D9F42BC8DAF4DEC430F8DDC416
:100DE00031F830C8D9F431C8DAF4300EDF6E2AC8D1
:100DF000D9F42BC8DAF4DE2A000EDD22080120EE39
:100E000002F02A51D9262B51DA22DE50DE10DE10F4
:100E1000D8B420D00B016ABB04D0000E586F780EF6
:100E200003D0000E586F580E576F080120EE02F0E5
:100E30002A51D9262B51DA2201D825D10500FA6E84
:100E4000DE50FD6EDE50FE6EDE50FF6EFA500B017E
:100E5000575112000B016ABB04D0000E5A6F780E76
:100E600003D0000E5A6F580E596F2AC8D9F42BC8F8
:100E7000DAF4DEC430F8DDC431F830C8D9F431C852
:100E8000DAF459CBDFF4F8D065CB30F866CB31F823
:100E90000801D89030373137D890303731372D0EA0
:100EA0003025F66EED0E3121F76EF86A000EF8224D
:100EB0000900F5C40CF60900F5C40DF60900F5C4E7
:100EC0000EF60A00F5C40FF661CB08F662CB09F600
:100ED00063CB0AF664CB0BF6E5ECF2F008C621F81A
:100EE00009C622F80AC623F80BC624F80A0E080120
:100EF000256F000E266F000E276F000E286F6FEC17
:100F0000FAF0215179D061CB08F662CB09F663CBB8
:100F10000AF664CB0BF665CB30F866CB31F80801E6
:100F2000D89030373137D89030373137790E302577
:100F3000F66EED0E3121F76EF86A000EF822090008
:100F4000F5C40CF60900F5C40DF60900F5C40EF65B
:100F50000A00F5C40FF6E5ECF2F0060108510F0B9C
:100F60000B01526F6ABB04D0AC0E5B6FF60E03D060
:100F70009B0E5B6FF60E5C6F52515B250801306F64
:100F8000000E0B015C210801316F30C8F6F431C846
:100F9000F7F4000EF86E0800F5C469FB3FD061CB92
:100FA00008F662CB09F663CB0AF664CB0BF665CB89
:100FB00030F866CB31F80801D89030373137D89007
:100FC00030373137010E3025F66EED0E3121F76ED8
:100FD000F86A000EF8220900F5C40CF60900F5C401
:100FE0000DF60900F5C40EF60A00F5C40FF6E5EC9F
:100FF000F2F006010851070B300F0B01696F0ED09C
:101000006A51C00B000AD8B43FD7400AD8B4C7D73A
:10101000C00AD8B478D7400AD8B436D7080120EE31
:1010200002F02A51D9262B51DA22DE50DE10DE10D2
:10103000D8B414D020EE02F02A51D9262B51DA224E
:1010400001D821D00500FA6EDE50FD6EDE50FE6E36
:10105000DE50FF6EFA500B01695112002AC8D9F414
:101060002BC8DAF4DEC430F8DDC431F830C8D9F466
:1010700031C8DAF469CBDFF42AC8D9F42BC8DAF422
:10108000DE2A000EDD220B016507D8A06607652960
:10109000B7E16629D8A4B4D76AB768BF41D0685110
:1010A00003E16705D8A03CD0080120EE02F02A51E8
:1010B000D9262B51DA22DE50DE10DE10D8B413D040
:1010C00020EE02F02A51D9262B51DA2201D820D065
:1010D0000500FA6EDE50FD6EDE50FE6EDE50FF6ED5
:1010E000FA50200E12002AC8D9F42BC8DAF4DEC454
:1010F00030F8DDC431F830C8D9F431C8DAF4200E44
:10110000DF6E2AC8D9F42BC8DAF4DE2A000EDD22FD
:101110000B016707D8A0680767516811D8A4C4D726
:101120002CC8F6F42DC8F7F408012C4B2D2B000E1B
:10113000F86E0800F5C469FB0B016951D8A402EFF1
:1011400080F0000E08012B6F000E2A6F1200C1EF15
:1011500090F0250E3719D8B436D020EE02F0165193
:10116000D9261751DA22DE50DE10DE10D8B414D0A2
:1011700020EE02F01651D9261751DA2202D8C1EF1B
:1011800090F00500FA6EDE50FD6EDE50FE6EDE5011
:10119000FF6EFA503751120016CDD9F417CDDAF49C
:1011A000DEC41CFDDDC41DFD1CCDD9F41DCDDAF45B
:1011B00037CDDFF416CDD9F417CDDAF4DE2A000EE0
:1011C000DD22C1EF90F0000E366F000E356F000E7D
:1011D000396F000E386F09D0388705D0388103D0B9
:1011E000398701D03885184B192B18CDF6F419CD55
:1011F000F7F4000EF86E0800F550200AD8B4EED7C8
:10120000030AD8B4EDD70E0AD8B4E6D71D0AD8B46D
:10121000E9D738B7389518CDF6F419CDF7F4000EA4
:10122000F86E0800F55085EC02F0D8A034D0000E1E
:10123000366F000E356F35CD00FD36CD01FD000E49
:10124000036F0A0E026F3BEC02F000CD35FD01CDBD
:1012500036FD18CDF6F419CDF7F4000EF86E08003F
:10126000F5C41CFDD00E1C251D6F1E6BFF0E1E232A
:101270001D5135271E513623184B192B18CDF6F466
:1012800019CDF7F4000EF86E0800F55085EC02F069
:10129000D8A022D0D0D718CDF6F419CDF7F4000E8F
:1012A000F86E0800F5502A0AD8A416D01ACDD9F441
:1012B0001BCDDAF4DFC41CFD020EDE26DFC41DFDEB
:1012C000000EDD221CCDD9F41DCDDAF4DEC435FDCF
:1012D000DDC436FD184B192B18CDF6F419CDF7F4F3
:1012E000000EF86E0800F5502E0AD8A461D0398D92
:1012F000184B192B18CDF6F419CDF7F4000EF86E33
:101300000800F5502A0AD8A41ED01ACDD9F41BCD56
:10131000DAF4DFC41CFD020EDE26DFC41DFD000E64
:10132000DD221CCDD9F41DCDDAF4DEC433FDDDC4DD
:1013300034FD34AF05D0000E346F000E336F399D8D
:10134000184B192BA3D1000E346F000E336F23D02E
:1013500033CD00FD34CD01FD000E036F0A0E026F88
:101360003BEC02F000CD33FD01CD34FD18CDF6F499
:1013700019CDF7F4000EF86E0800F5C41CFDD00E70
:101380001C251D6F1E6BFF0E1E231D5133271E5182
:101390003423184B192B18CDF6F419CDF7F4000EA1
:1013A000F86E0800F55085EC02F0D8A06FD1D0D7C8
:1013B000000E346F000E336F69D1388967D1388DD4
:1013C00091D1388B388F8ED11ACDD9F41BCDDAF468
:1013D000DFC41CFD020EDE26DFC41DFD000EDD2273
:1013E0001CCDD9F41DCDDAF4DEC42BFDDDC42CFDFB
:1013F0002B512C11D8A404D0860E2B6FFC0E2C6F11
:10140000000E2E6F000E2D6F03D00D012D4B2E2BD5
:101410002D512B251C6F2E512C211D6F1CCDF6F448
:101420001DCDF7F4000EF86E250EF76403D008000A
:10143000F55005D0F6C4E9F4F7C4EAF4EF5000091A
:10144000D8A4E3D70D0133513411D8B40ED02D51A7
:10145000335D3451800A1C6F2E51800A1C59D8B05C
:1014600004D033CD2DFD34CD2EFD35512D5D3651BB
:101470002E59D8B005D02D51355F2E51365B04D092
:10148000000E366F000E356F38A734D097D020EE9F
:1014900002F01651D9261751DA22DE50DE10DE1086
:1014A000D8B413D020EE02F01651D9261751DA2203
:1014B00001D820D00500FA6EDE50FD6EDE50FE6EC3
:1014C000DE50FF6EFA50200E120016CDD9F417CD63
:1014D000DAF4DEC41CFDDDC41DFD1CCDD9F41DCD28
:1014E000DAF4200EDF6E16CDD9F417CDDAF4DE2A49
:1014F000000EDD220D013507D8A036073529C7E1DA
:101500003629D8B45BD0C3D720EE02F01651D926C5
:101510001751DA22DE50DE10DE10D8B427D020EECC
:1015200002F01651D9261751DA2201D81BD0050036
:10153000FA6EDE50FD6EDE50FE6EDE50FF6EFA502B
:101540002BCDF6F42CCDF7F4000EF86E250EF764D3
:1015500003D00800F55005D0F6C4E9F4F7C4EAF466
:10156000EF5012000D012B4B2C2B28D02BCDF6F475
:101570002CCDF7F4000EF86E16CDD9F417CDDAF4B1
:10158000DEC41CFDDDC41DFD1CCDD9F41DCDDAF477
:10159000250EF76403D00800F55005D0F6C4E9F431
:1015A000F7C4EAF4EF50DF6E0D012B4B2C2B16CD58
:1015B000D9F417CDDAF4DE2A000EDD222D07D8A0EB
:1015C0002E072D29A1E12E29D8A49ED738B735D0D2
:1015D000C1EF90F020EE02F01651D9261751DA2211
:1015E000DE50DE10DE10D8B413D020EE02F016511B
:1015F000D9261751DA2201D820D00500FA6EDE5024
:10160000FD6EDE50FE6EDE50FF6EFA50200E1200B0
:1016100016CDD9F417CDDAF4DEC41CFDDDC41DFDF2
:101620001CCDD9F41DCDDAF4200EDF6E16CDD9F421
:1016300017CDDAF4DE2A000EDD220D013507D8A021
:1016400036073529C7E13629D8B4C1EF90F0C2D7A3
:101650001ACDD9F41BCDDAF4DFC41CFD020EDE2650
:10166000DFC41DFD000EDD221CCDD9F41DCDDAF442
:10167000DF50376F370E2B6F0D0E2C6F000E2E6F55
:10168000010E2D6FDFD6C00E38132CD018CDF6F416
:1016900019CDF7F4184B192B000EF86E0800F5C49D
:1016A00037FD3751000AD8B4D1EF90F0580AD8B4BA
:1016B00088D63B0AD8B4CCD7070AD8B413D00D0AC1
:1016C000D8B410D0050AD8B478D6030AD8B477D6DF
:1016D0001C0AD8B479D6060AD8B4D5D70D0AD8B41E
:1016E00071D6C8D738CD1CFDC00E1C17D8A441D068
:1016F00038A919D01ACDD9F41BCDDAF4DFC41CFDFA
:10170000040EDE26DFC41DFD000EDD221CCDD9F443
:101710001DCDDAF4DEC42FFDDEC430FDDEC431FDA4
:10172000DEC432FD19D01ACDD9F41BCDDAF4DFC4F2
:101730001CFD020EDE26DFC41DFD000EDD221CCDC9
:10174000D9F41DCDDAF4DEC42FFDDDC430FD000E6A
:1017500030BFFF0E316F326F32AF40D0030E3813FF
:10176000321F311F301F2F6D000E302331233223E3
:1017700035D038A919D01ACDD9F41BCDDAF4DFC48D
:101780001CFD040EDE26DFC41DFD000EDD221CCD77
:10179000D9F41DCDDAF4DEC42FFDDEC430FDDEC485
:1017A00031FDDEC432FD1AD01ACDD9F41BCDDAF4E6
:1017B000DFC41CFD020EDE26DFC41DFD000EDD228F
:1017C0001CCDD9F41DCDDAF4DEC41EFDDDC41FFD31
:1017D0001ECD2FFD1FCD30FD316B326B33513411D7
:1017E000D8A46CD02F51301131113211D8A466D049
:1017F000334B342B63D0010E376F0A0E3719D8B430
:101800006BD03751040D2D0EF324F66EED0EF4203F
:10181000F76EF86A000EF8220900F5502F5D0900F6
:10182000F55030590900F55031590900F550325939
:10183000D8A052D0372BE1D7010E376F080E3719D9
:10184000D8B44AD03751040D790EF324F66EED0E5C
:10185000F420F76EF86A000EF8220900F5502F5DAB
:101860000900F55030590900F55031590900F5507B
:101870003259D8A031D0372BE1D7010E376F0B0E7C
:101880003719D8B429D03751040D010EF324F66E60
:10189000ED0EF420F76EF86A000EF8220900F550FC
:1018A0002F5D0900F55030590900F55031590900F4
:1018B000F5503259D8A010D0372BE1D73851C00B92
:1018C000000AD8B498D7400AD8B4D7D7C00AD8B439
:1018D000B3D7400AD8B48FD737511C6F1D6B335123
:1018E0001C5D1D51800A1E6F3451800A1E59D8B0EC
:1018F00003D033CD37FD10D037511C6F1D6B1C51F9
:10190000335D3451800A1E6F1D51800A1E59D8B0B4
:1019100003D037CD33FD346B35513611D8B409D0EF
:1019200038CD1CFD030E1C17D8B403D03507D8A042
:10193000360739AD13D03551335D3451800A1C6FF1
:101940003651800A1C59D8B005D03351355F345117
:10195000365B04D0000E366F000E356FC40E38159E
:101960001C6F080E39151D6F400E1C190CE1080E76
:101970001D19D8A408D035513611D8B422D0350756
:10198000D8A036071ED0C00E38151C6F080E3915AA
:101990001D6F800E1C1915E1080E1D19D8A411D059
:1019A00036BF0BD0365104E1030E355DD8A005D00B
:1019B000FE0E3527FF0E362304D0000E366F000EC4
:1019C000356F37511C6F1D6B35511C5D1D51800AE1
:1019D0001E6F3651800A1E59D8B005D03751355F79
:1019E000000E365B04D0000E366F000E356F38A542
:1019F00026D138CD1CFD030E1C17D8B42CD020EEF8
:101A000002F01651D9261751DA22DE50DE10DE1010
:101A1000D8B413D020EE02F01651D9261751DA228D
:101A200001D8D0D00500FA6EDE50FD6EDE50FE6E9D
:101A3000DE50FF6EFA502D0E120016CDD9F417CDE0
:101A4000DAF4DEC41CFDDDC41DFD1CCDD9F41DCDB2
:101A5000DAF42D0E2DD038A12DD020EE02F0165143
:101A6000D9261751DA22DE50DE10DE10D8B413D09A
:101A700020EE02F01651D9261751DA2201D8A2D051
:101A80000500FA6EDE50FD6EDE50FE6EDE50FF6E1B
:101A9000FA50200E120016CDD9F417CDDAF4DEC4B8
:101AA0001CFDDDC41DFD1CCDD9F41DCDDAF4200EC6
:101AB000DF6E81D0C00E38151C6F080E39151D6FF2
:101AC000800E1C197FE1080E1D19D8A47BD020EED2
:101AD00002F01651D9261751DA22DE50DE10DE1040
:101AE000D8B413D020EE02F01651D9261751DA22BD
:101AF00001D820D00500FA6EDE50FD6EDE50FE6E7D
:101B0000DE50FF6EFA50300E120016CDD9F417CD0C
:101B1000DAF4DEC41CFDDDC41DFD1CCDD9F41DCDE1
:101B2000DAF4300EDF6E16CDD9F417CDDAF4DE2AF2
:101B3000000EDD220D0120EE02F01651D9261751BC
:101B4000DA22DE50DE10DE10D8B41DD038BB04D04F
:101B5000000E226F780E03D0000E226F580E216FF8
:101B600020EE02F01651D9261751DA2201D82AD0D8
:101B70000500FA6EDE50FD6EDE50FE6EDE50FF6E2A
:101B8000FA502151120038BB04D0000E246F780E99
:101B900003D0000E246F580E236F16CDD9F417CD45
:101BA000DAF4DEC41CFDDDC41DFD1CCDD9F41DCD51
:101BB000DAF423CDDFF416CDD9F417CDDAF4DE2A2A
:101BC000000EDD220D0135513611D8B48ED220EE33
:101BD00002F01651D9261751DA22DE50DE10DE103F
:101BE000D8B413D020EE02F01651D9261751DA22BC
:101BF00001D820D00500FA6EDE50FD6EDE50FE6E7C
:101C0000DE50FF6EFA50300E120016CDD9F417CD0B
:101C1000DAF4DEC41CFDDDC41DFD1CCDD9F41DCDE0
:101C2000DAF4300EDF6E16CDD9F417CDDAF4DE2AF1
:101C3000000EDD220D013507D8A03607C4D7355177
:101C40003611D8A438B73BD020EE02F01651D92671
:101C50001751DA22DE50DE10DE10D8B413D020EE99
:101C600002F01651D9261751DA2201D820D00500EA
:101C7000FA6EDE50FD6EDE50FE6EDE50FF6EFA50E4
:101C8000200E120016CDD9F417CDDAF4DEC41CFDF7
:101C9000DDC41DFD1CCDD9F41DCDDAF4200EDF6EA0
:101CA00016CDD9F417CDDAF4DE2A000EDD220D01AF
:101CB0003507D8A0360735513611D8A4C5D738CD49
:101CC0001CFD030E1C17D8B42CD020EE02F01651C8
:101CD000D9261751DA22DE50DE10DE10D8B413D028
:101CE00020EE02F01651D9261751DA2201D84ED033
:101CF0000500FA6EDE50FD6EDE50FE6EDE50FF6EA9
:101D0000FA502D0E120016CDD9F417CDDAF4DEC438
:101D10001CFDDDC41DFD1CCDD9F41DCDDAF42D0E46
:101D20002DD038A133D020EE02F01651D92617510C
:101D3000DA22DE50DE10DE10D8B413D020EE02F02E
:101D40001651D9261751DA2201D820D00500FA6E93
:101D5000DE50FD6EDE50FE6EDE50FF6EFA50200E3D
:101D6000120016CDD9F417CDDAF4DEC41CFDDDC4A3
:101D70001DFD1CCDD9F41DCDDAF4200EDF6E16CD7D
:101D8000D9F417CDDAF4DE2A000EDD22C00E0D01E3
:101D900038151C6F080E39151D6F400E1C1931E1E6
:101DA000080E1D19D8A42DD020EE02F01651D92608
:101DB0001751DA22DE50DE10DE10D8B413D020EE38
:101DC00002F01651D9261751DA2201D88ED105001A
:101DD000FA6EDE50FD6EDE50FE6EDE50FF6EFA5083
:101DE000300E120016CDD9F417CDDAF4DEC41CFD86
:101DF000DDC41DFD1CCDD9F41DCDDAF4300EDF6E2F
:101E00006DD1C00E38151C6F080E39151D6F800E70
:101E10001C1903E1080E1D19D8A467D120EE02F0A9
:101E20001651D9261751DA22DE50DE10DE10D8B452
:101E300013D020EE02F01651D9261751DA2201D81C
:101E400020D00500FA6EDE50FD6EDE50FE6EDE50D4
:101E5000FF6EFA50300E120016CDD9F417CDDAF419
:101E6000DEC41CFDDDC41DFD1CCDD9F41DCDDAF48E
:101E7000300EDF6E16CDD9F417CDDAF4DE2A000E5F
:101E8000DD220D0120EE02F01651D9261751DA227B
:101E9000DE50DE10DE10D8B41DD038BB04D0000EEA
:101EA000266F780E03D0000E266F580E256F20EE99
:101EB00002F01651D9261751DA2201D816D10500A1
:101EC000FA6EDE50FD6EDE50FE6EDE50FF6EFA5092
:101ED0002551120038BB04D0000E286F780E03D0B5
:101EE000000E286F580E276F16CDD9F417CDDAF4EF
:101EF000DEC41CFDDDC41DFD1CCDD9F41DCDDAF4FE
:101F000027CDDFF4EBD033CD1CFD34CD1DFDD890B3
:101F10001C371D37D8901C371D372D0E1C25F66E2B
:101F2000ED0E1D21F76EF86A000EF8220900F5C4C7
:101F300004FD0900F5C405FD0900F5C406FD0A000D
:101F4000F5C407FD2FCD00FD30CD01FD31CD02FDE3
:101F500032CD03FD96ECF4F000CD0DFD01CD0EFD6C
:101F600002CD0FFD03CD10FD0A0E116F000E126F92
:101F7000000E136F000E146F3CECFAF00D5171D08F
:101F80002FCD00FD30CD01FD31CD02FD32CD03FD61
:101F900033CD1CFD34CD1DFDD8901C371D37D89096
:101FA0001C371D37790E1C25F66EED0E1D21F76EC0
:101FB000F86A000EF8220900F5C404FD0900F5C412
:101FC00005FD0900F5C406FD0A00F5C407FD96EC01
:101FD000F4F000510F0B206F38BB04D0AC0E296F0A
:101FE000F60E03D09B0E296FF60E2A6F205129257D
:101FF0001C6F000E2A211D6F1CCDF6F41DCDF7F4C9
:10200000000EF86E0800F5C437FD3CD02FCD00FD62
:1020100030CD01FD31CD02FD32CD03FD33CD1CFDB0
:1020200034CD1DFDD8901C371D37D8901C371D3777
:10203000010E1C25F66EED0E1D21F76EF86A000EDE
:10204000F8220900F5C404FD0900F5C405FD0900E6
:10205000F5C406FD0A00F5C407FD96ECF4F0005146
:10206000070B300F376F0ED03851C00B000AD8B4B1
:102070004AD7400AD8B4CAD7C00AD8B481D7400AD0
:10208000D8B441D720EE02F01651D9261751DA22E2
:10209000DE50DE10DE10D8B413D020EE02F0165160
:1020A000D9261751DA2201D820D00500FA6EDE5069
:1020B000FD6EDE50FE6EDE50FF6EFA50375112009C
:1020C00016CDD9F417CDDAF4DEC41CFDDDC41DFD38
:1020D0001CCDD9F41DCDDAF437CDDFF416CDD9F40B
:1020E00017CDDAF4DE2A000EDD220D013307D8A069
:1020F00034073329B9E13429D8A4B6D738B736BF65
:1021000040D0365103E13505D8A03BD020EE02F097
:102110001651D9261751DA22DE50DE10DE10D8B45F
:1021200013D020EE02F01651D9261751DA2201D829
:1021300020D00500FA6EDE50FD6EDE50FE6EDE50E1
:10214000FF6EFA50200E120016CDD9F417CDDAF436
:10215000DEC41CFDDDC41DFD1CCDD9F41DCDDAF49B
:10216000200EDF6E16CDD9F417CDDAF4DE2A000E7C
:10217000DD220D013507D8A0360735513611D8A418
:10218000C5D718CDF6F419CDF7F40D01184B192B5E
:10219000000EF86E0800F5C437FD3751D8A4A9EF3A
:1021A00088F0000E176F000E166F1200F3CDD9F4F1
:1021B000F4CDDAF4000EDE6E000EDD6EF1CD00FD22
:1021C000F2CD01FDEDECD8F000CD04FE01CD05FE11
:1021D0000E0105AF02D00B0E1200D8900435D96E57
:1021E0000535DA6E050ED926070EDA22DEC41FFE8B
:1021F000DDC420FE1F512011D8A402D00C0E120005
:10220000F3CDD9F4F4CDDAF41FCEDEF420CEDDF434
:102210000D01F5911FCED9F420CEDAF4DF50D8B4F9
:1022200019D00E0120EE01F01F51D9262051DA22DB
:10223000DF50D8EC01F00E01146F14B10BD00D017A
:10224000F551D8B405D00E0114A502D00A0E120023
:10225000000E12001FCED9F420CEDAF4000EDF6E8D
:102260000E0120EE01F01F51D9262051DA22DF5055
:102270007CECDEF00E01146F14A102D0030E1200EC
:102280000D01F551D8B403D00E0114B5DFD71FCE20
:10229000A0FD20CEA1FD000E0D01A36F000EA26FC8
:1022A000AAECCFF0A0CD1DFEA1CD1EFE040E0E01A6
:1022B0001D191E11D8A402D0010E12001E5104E1F6
:1022C000020E1D5DD8A002D00D0E120020EE2CF0E3
:1022D0001F51D9262051DA22DEC410FEDEC411FEC1
:1022E000DEC412FEDEC413FE3B0E1F250D01006F7F
:1022F000000E0E0120210D01016F2AECFFF0020EED
:1023000001190011D8A4E0D7460E0E011F250D01BA
:10231000006F000E0E0120210D01016F2AECFFF06D
:1023200000CD19FE01CD1AFE0E011B6B1C6B19515D
:102330001A111B111C11D8A413D0540E1F250D0106
:10234000006F000E0E0120210D01016F7FECEAF0FD
:1023500000CD19FE01CD1AFE02CD1BFE03CD1CFEE1
:102360000E0120EE18F01F51D9262051DA2219CE85
:10237000DEF41ACEDEF41BCEDEF41CCEDEF420EE4C
:1023800040F01F51D9262051DA2210EE03F01F51E0
:10239000E1262051E222DFC4E7F420EE03F01F51D2
:1023A000D9262051DA22DE04D8B40AD020EE03F078
:1023B0001F51D9262051DA22020EDE18D8A484D764
:1023C00019CE00FD1ACE01FD1BCE02FD1CCE03FD71
:1023D00020EE03F01F51D9262051DA22DF500D01E3
:1023E000F66FF651046F056B066B076B61ECFBF043
:1023F00000CD19FE01CD1AFE02CD1BFE03CD1CFE41
:102400000E0120EE3DF01F51D9262051DA22DF5077
:102410000D01F66FF76B0E0120EE0AF01F51D92661
:102420002051DA22F6CDDEF4F7CDDDF420EE0AF00D
:102430001F51D9262051DA22DE50DE10D8B444D7FD
:1024400020EE0AF01F51D9262051DA22DEC4F6FD13
:10245000DDC4F7FD20EE0AF01F51D9262051DA2203
:10246000DEC4F8FDDDC4F9FDFF0E0D01F825FA6F9D
:10247000FF0EF921FB6FF651FA15FC6FF751FB15B2
:10248000FD6FFC51FD11D8A41FD7410E0E011F2571
:102490000D01006F000E0E0120210D01016F2AECCD
:1024A000FFF00E0120EE08F01F51D9262051DA224C
:1024B0000D0100CDDEF401CDDDF40E0120EE08F0BB
:1024C0001F51D9262051DA22DF500D01F66F0F0E71
:1024D000F617D8A4F9D6430E0E011F250D01006F83
:1024E000000E0E0120210D01016F2AECFFF000CD3E
:1024F0000CFE01CD0DFE0E010E6B0F6B0C510D117C
:102500000E110F11D8A413D0500E1F250D01006F0E
:10251000000E0E0120210D01016F7FECEAF000CDCD
:102520000CFE01CD0DFE02CD0EFE03CD0FFE3E0EC4
:102530000E011F250D01006F000E0E0120210D015F
:10254000016F2AECFFF000CD0AFE01CD0BFE0E015B
:102550000A510B11D8B4B8D620EE08F01F51D92675
:102560002051DA22DEC4F6FDDDC4F7FD040E0D01B4
:10257000F86FD890F733F633F82FFBD70E010A51D6
:102580000D01F625F96F0E010B510D01F721FA6FC0
:10259000FB6BD8B0FB2BFC6B0E0119510D01F9251B
:1025A0000E01066F1A510D01FA210E01076F1B5122
:1025B0000D01FB210E01086F1C510D01FC210E01C4
:1025C000096F06510C5D07510D5908510E590951FB
:1025D0000F59D8A079D606510C5D0D01006F0E0180
:1025E00007510D590D01016F0E0108510E590D01D2
:1025F000026F0E0109510F590D01036F0E0120EEFC
:102600000AF01F51D9262051DA22DEC4F6FDDDC4BE
:10261000F7FDF6CD04FDF7CD05FD0D01066B076B4B
:1026200096ECF4F000CD15FE01CD16FE02CD17FE9E
:1026300003CD18FE0E011551161117111811D8B43B
:1026400043D6000E1E6F000E1D6FF60E155DFF0EB9
:102650001659FF0E17590F0E1859D8B004D0000E96
:102660001E6F030E1D6F185117110AE1F60E155D4E
:10267000FF0E1659D8B004D0000E1E6F020E1D6F4B
:10268000185117110AE1F60E155D0F0E1659D8B044
:1026900004D0000E1E6F010E1D6F1D511E11D8B407
:1026A00013D6020E15250D01F66F000E0E01162130
:1026B0000D01F76F000E0E0117210D01F86F000ECE
:1026C0000E0118210D01F96F0E0120EE14F01F51BB
:1026D000D9262051DA22F6CDDEF4F7CDDEF4F8CD9E
:1026E000DEF4F9CDDEF420EE1CF01F51D926205186
:1026F000DA2210CEDEF411CEDEF412CEDEF413CEEA
:10270000DEF40A5110250D01F66F0E010B51112157
:102710000D01F76F000E0E0112210D01F86F000E72
:102720000E0113210D01F96F0E0120EE20F01F5153
:10273000D9262051DA22F6CDDEF4F7CDDEF4F8CD3D
:10274000DEF4F9CDDEF4065110250D01F66F0E0111
:10275000075111210D01F76F0E01085112210D01D2
:10276000F86F0E01095113210D01F96F0E0120EED2
:1027700028F01F51D9262051DA22F6CDDEF4F7CD0C
:10278000DEF4F8CDDEF4F9CDDEF4030E1D191E11D2
:10279000D8A456D05A0E1F250D01006F000E0E0151
:1027A00020210D01016F2AECFFF000510111D8A486
:1027B0008BD50E0120EE08F01F51D9262051DA22C8
:1027C000DE50DE10D8A480D55C0E1F250D01006FF1
:1027D000000E0E0120210D01016F7FECEAF00E01C9
:1027E00020EE24F01F51D9262051DA220D0100CD10
:1027F000DEF401CDDEF402CDDEF403CDDEF40E0115
:1028000020EE14F01F51D9262051DA22DEC4F6FD45
:10281000DEC4F7FDDEC4F8FDDEC4F9FD020ED8907B
:102820000D01F637F737F837F937E82EF8D7F6CD38
:1028300000FEF7CD01FEF8CD02FEF9CD03FEAAD0D1
:1028400020EE08F01F51D9262051DA22DE50DE108A
:10285000D8B43AD520EE20F01F51D9262051DA22E3
:10286000DEC4F6FDDEC4F7FDDEC4F8FDDEC4F9FD0E
:1028700019510D01F625FA6F0E011A510D01F721BC
:10288000FB6F0E011B510D01F821FC6F0E011C5155
:102890000D01F921FD6F0E0120EE24F01F51D92604
:1028A0002051DA22FACDDEF4FBCDDEF4FCCDDEF4ED
:1028B000FDCDDEF4020E1D191E11D8B44CD020EE51
:1028C00014F01F51D9262051DA22DEC4F6FDDEC4F1
:1028D000F7FDDEC4F8FDDEC4F9FD010E0D01F615AD
:1028E000FA6F000EF715FB6F000EF815FC6F000E67
:1028F000F915FD6F0E0120EE14F01F51D92620515D
:10290000DA22DEC400FDDEC401FDDEC402FDDEC449
:1029100003FD030E0D01046F000E056F000E066F20
:10292000000E076F61ECFBF0D890033302330133E4
:102930000033FA5100250E01006F0D01FB510121FA
:102940000E01016F0D01FC5102210E01026F0D01FC
:10295000FD5103211DD020EE14F01F51D926205126
:10296000DA22DEC4F6FDDEC4F7FDDEC4F8FDDEC407
:10297000F9FDD8900D01F6350E01006F0D01F73508
:102980000E01016F0D01F8350E01026F0D01F935D1
:102990000E01036FFF0E0E0100250D01F66F010EF3
:1029A0000E0101210D01F76F000E0E0102210D0134
:1029B000F86F000E0E0103210D01F96F0A0E05D00C
:1029C000D890F933F833F733F633E82EF9D70E0100
:1029D00020EE18F01F51D9262051DA220D01F651B0
:1029E000DE5CF751DE58F851DE58F951DE58D8A0B8
:1029F0006BD40E0120EE10F01F51D9262051DA229F
:102A0000FF0EDE6EFF0EDE6EFF0EDE6EFF0EDD6E63
:102A1000DD52DD5210EE0CF01F51E1262051E22272
:102A2000DEC4E6F4DEC4E6F4DEC4E6F4DEC4E6F4B6
:102A300020EE05F01F51D9262051DA22800EDF6EDC
:102A4000030E1D191E11D8A4B1D0600E1F250D0153
:102A5000006F000E0E0120210D01016F2AECFFF026
:102A600000050111D8A4A2D01FCE87FD20CE88FD7D
:102A7000010E0E0110250D01896F000E0E011121AE
:102A80000D018A6F000E0E0112210D018B6F000ED9
:102A90000E0113210D018C6F95ECECF00009D8A408
:102AA00085D00E0120EE05F01F51D9262051DA22E3
:102AB000000EDF6E2E0E1F250D01006F020E0E019F
:102AC00020210D01016F2AECFFF0550E00196EE177
:102AD000AA0E0119D8A46AD0300E0E011F250D01CF
:102AE000006F000E0E0120210D01016F7FECEAF056
:102AF000520E00195BE1520E011958E1610E0219E4
:102B000055E1410E0319D8A451D0140E0E011F2512
:102B10000D01006F020E0E0120210D01016F7FECEF
:102B2000EAF0720E001942E1720E01193FE1410E06
:102B300002193CE1610E0319D8A438D0180E0E0119
:102B40001F250D01006F020E0E0120210D01016FE6
:102B50007FECEAF00E0120EE10F01F51D926205133
:102B6000DA220D0100CDDEF401CDDEF402CDDEF47B
:102B700003CDDEF41C0E0E011F250D01006F020EA9
:102B80000E0120210D01016F7FECEAF00E0120EE15
:102B90000CF01F51D9262051DA220D0100CDDEF4B0
:102BA00001CDDEF402CDDEF403CDDEF41FCED9F488
:102BB00020CEDAF41DCEDFF40D4A0E2A0E0120EEEF
:102BC00006F01F51D9262051DA220DC5DEF40EC5BC
:102BD000DDF428EF91F04BCC62FC4CCC63FC4FCC85
:102BE000D9F450CCDAF4000EDE6E000EDD6E49CC66
:102BF00009F64ACC0AF6720E06010B6F0C0E0C6F2A
:102C000034ECE8F00C01616F6151D8A40BD020EED8
:102C10000FF04951D9264A51DA22DF50616F6151D4
:102C2000D8B402D06151120020EE0EF04951D926DD
:102C30004A51DA22DFB202D0070E120020EE10F065
:102C40004951D9264A51DA2210EE10F04951E126B5
:102C50004A51E222E6C455FCE6C456FCE6C457FCE1
:102C6000E6C458FC4D515525596F4E5156215A6FA7
:102C7000000E57215B6F000E58215C6FDE50595DCE
:102C8000DE505A59DE505B59DE505C59D8B00ED038
:102C900020EE10F04951D9264A51DA22DEC451FC07
:102CA000DDC452FC511D4D6F521D4E6F4D514E11E2
:102CB000D8B40FD320EE10F04951D9264A51DA2268
:102CC000FF0EDE14516F010EDE14526F000EDE1483
:102CD000536F000EDE14546F5151521153115411A1
:102CE000D8A450D220EE10F04951D9264A51DA2208
:102CF000DEC451FCDEC452FCDEC453FCDEC454FC12
:102D00000A0E05D0D8905433533352335133E82E42
:102D1000F9D720EE0AF07251D9267351DA22DEC4B7
:102D200055FCDDC456FCFF0E5525576FFF0E56218E
:102D3000586F51515715646F52515815656F645152
:102D40006511D8A49CD020EE10F04951D9264A51E3
:102D5000DA22DE50DE10DE10DE10D8A423D020EE02
:102D600006F04951D9264A51DA22DEC468FCDEC495
:102D700069FCDEC46AFCDEC46BFC685169116A112F
:102D80006B11D8A42BD049CC2CFC4ACC2DFC000EC6
:102D90002E6F000E2F6F000E306F000E316F6FEC34
:102DA000A8F014D049CC2CFC4ACC2DFC20EE14F019
:102DB0004951D9264A51DA22DEC42EFCDEC42FFC4A
:102DC000DEC430FCDEC431FC6FECA8F02CCC68FC17
:102DD0002DCC69FC2ECC6AFC2FCC6BFC68516911A0
:102DE0006A116B11D8B475D2680569116A116B113B
:102DF000D8A40AD020EE0FF04951D9264A51DA2240
:102E0000020EDF6E020E1200682911E169290FE13E
:102E10006A290DE16B29D8A40AD020EE0FF04951A0
:102E2000D9264A51DA22010EDF6E010E120020EE81
:102E300014F04951D9264A51DA2268CCDEF469CC23
:102E4000DEF46ACCDEF46BCCDEF420EE06F0495101
:102E5000D9264A51DA22DE50DE10DE10DE10D8A468
:102E60000ED020EE06F04951D9264A51DA2268CC1C
:102E7000DEF469CCDEF46ACCDEF46BCCDEF420EE5A
:102E80000EF04951D9264A51DA22DFAE33D0220E54
:102E900049250B01916F000E0C014A210B01926F25
:102EA0000C0120EE18F04951D9264A51DA22DEC42D
:102EB00093FBDEC494FBDEC495FBDEC496FB000EE0
:102EC0000B01986F010E976F0C0120EE01F072510B
:102ED000D9267351DA22DF50D7ECF4F00009D8A4D8
:102EE00040D10C0120EE0EF04951D9264A51DA2288
:102EF0007F0EDF1672CC21F873CC22F820EE14F08E
:102F00004951D9264A51DA22DEC423F8DEC424F816
:102F1000DEC425F8DEC426F82FECE6F021C86EFCEE
:102F200022C86FFC23C870FC24C871FC0C016E51D0
:102F30006F1170117111D8B45DD764516E2765514E
:102F40006F23000E7023000E71234DCC51FC4ECC2C
:102F500052FC090E536FD89052335133532FFBD785
:102F600051CC66FC52CC67FC66516711D8B4AED028
:102F700066516425516F67516521526F20EE0AF04A
:102F80007251D9267351DA225151DE5C5251DE580A
:102F9000D8B010D020EE0AF07251D9267351DA223F
:102FA000DEC451FCDDC452FC6451515D666F655155
:102FB0005259676F62CC91FB63CC92FB6ECC93FB52
:102FC0006FCC94FB70CC95FB71CC96FB66CC97FBD9
:102FD00067CC98FB20EE01F07251D9267351DA22AA
:102FE000DF50D7ECF4F00009D8A4BBD00C01665137
:102FF000516F6751526F536B546B20EE18F049516B
:10300000D9264A51DA22DEC455FCDEC456FCDEC4A1
:1030100057FCDEC458FC6E51555D596F6F515659BF
:103020005A6F705157595B6F715158595C6F5151BC
:10303000595D52515A5953515B5954515C59D8B04A
:1030400036D0220E49250601086F000E0C014A21D8
:103050000601096F0C0120EE18F04951D9264A519A
:10306000DA22DEC451FCDDC452FC6E51515F6F5157
:10307000525B090ED89051375237E82EFBD7515189
:10308000622506010A6F0C015251632106010B6F84
:10309000020E0D6F000E0C6F8BECFDF00C0120EE9C
:1030A0000EF04951D9264A51DA227F0EDF1666CC3E
:1030B00051FC67CC52FC090ED89051375237E82E9C
:1030C000FBD751CC6CFC52CC6DFCB0D020EE18F08C
:1030D0004951D9264A51DA226E51DE180AE16F5160
:1030E000DE1807E17051DE1804E17151DE18D8B422
:1030F0003AD020EE0AF04951D9264A51DA2210EE90
:1031000010F04951E1264A51E222DE50E65CDE50E1
:10311000E658DE50E658DE50E658D8B024D0220EED
:1031200049250B01936F000E0C014A210B01946F8E
:103130006ECC95FB6FCC96FB70CC97FB71CC98FB5B
:10314000000E9A6F010E996F0C0120EE01F0725182
:10315000D9267351DA22DF5018ECF5F00009D8B403
:1031600002D00C015AD60C0120EE18F04951D92694
:103170004A51DA226ECCDEF46FCCDEF470CCDEF491
:1031800071CCDEF420EE10F04951D9264A51DA22F2
:10319000DEC451FCDDC452FCFF0E5115536F010E0D
:1031A0005215546F535100086C6F5451D8A0E82A3F
:1031B00002086D6F6C514D5D6D514E59D8B004D001
:1031C0004DCC6CFC4ECC6DFC20EE10F04951D92654
:1031D0004A51DA22DEC451FCDDC452FCFF0E511507
:1031E000536F010E5215546F53514925556F545169
:1031F0004A21566F220E55250601086F000E0C015C
:1032000056210601096F62CC0AF663CC0BF66CCC32
:103210000CF66DCC0DF68BECFDF00C0120EE0EF0F3
:103220004951D9264A51DA22000EDB8E6C514D5F8E
:103230006D514E5B4FCCD9F450CCDAF46C51DE2694
:103240006D51DD226C5162276D51632320EE10F029
:103250004951D9264A51DA226C51DE266D51DE22BF
:10326000000EDE22DE2220EE10F04951D9264A510E
:10327000DA2210EE0AF04951E1264A51E222DE50EC
:10328000E65CDE50E658DE50E658DE50E658D8A040
:1032900003D020EE0AF002D020EE10F04951D926DA
:1032A0004A51DA22DEC45DFCDEC45EFCDEC45FFC93
:1032B000DEC460FC20EE0AF04951D9264A51DA22D8
:1032C0005DCCDEF45ECCDEF45FCCDEF460CCDEF40C
:1032D000EDD420EE0EF04951D9264A51DA22000EE3
:1032E000DB8C000E120049CC09F64ACC0AF66C0EB3
:1032F00006010B6F0C0E0C6F34ECE8F00C01636FE1
:103300006351D8A408D020EE0FF04951D9264A5174
:10331000DA22DF50636F6351D8B402D063511200D8
:1033200020EE0AF04951D9264A51DA224B51DE5C8F
:103330004C51DE584D51DE584E51DE58D8B016D0A3
:1033400020EE0EF04951D9264A51DA22DFB20ED0D2
:1033500020EE0AF04951D9264A51DA22DEC44BFC4C
:10336000DEC44CFCDEC44DFCDEC44EFC20EE10F08E
:103370004951D9264A51DA22DEC45FFCDEC460FC22
:10338000DEC461FCDEC462FC000E646F000E656F7B
:10339000000E666F000E676F20EE10F04951D926BF
:1033A0004A51DA2264CCDEF465CCDEF466CCDEF47D
:1033B00067CCDEF44B514C114D114E11D8B42AD2CA
:1033C00020EE0AF06C51D9266D51DA22DEC44FFC92
:1033D000DDC450FC4F51516F5051526F536B546BC1
:1033E000090ED8905137523753375437E82EF9D752
:1033F00051CC68FC52CC69FC53CC6AFC54CC6BFCBD
:103400005F51601161116211D8B4ACD0FF0E4B2531
:103410000601086FFF0E0C014C210601096FFF0E1B
:103420000C014D2106010A6FFF0E0C014E21060111
:103430000B6F68CC0CF669CC0DF66ACC0EF66BCC33
:103440000FF6E5ECF2F008C64FFC09C650FC0AC6C0
:1034500051FC0BC652FCFF0E0C015F250601086FE4
:10346000FF0E0C0160210601096FFF0E0C016121A6
:1034700006010A6FFF0E0C01622106010B6F68CC7A
:103480000CF669CC0DF66ACC0EF66BCC0FF6E5ECBB
:10349000F2F0060108510C014F5D060109510C01C3
:1034A000505906010A510C01515906010B510C01EA
:1034B0005259D8A057D0FF0E68254F6FFF0E6921D3
:1034C000506FFF0E6A21516FFF0E6B21526F4F1D1F
:1034D000536F501D546F511D556F521D566FFF0E87
:1034E0005F25576FFF0E6021586FFF0E6121596FE6
:1034F000FF0E62215A6F535157155B6F5451581587
:103500005C6F555159155D6F56515A155E6F20EE1F
:1035100010F04951D9264A51DA225BCCDEF45CCC5A
:10352000DEF45DCCDEF45ECCDEF420EE10F049512A
:10353000D9264A51DA22DE504B5FDE504C5BDE501A
:103540004D5BDD504E5B20EE14F04951D9264A51B7
:10355000DA22DEC46EFCDEC46FFCDEC470FCDEC4A6
:1035600071FC69D020EE06F04951D9264A51DA2281
:10357000DEC46EFCDEC46FFCDEC470FCDEC471FC15
:103580006E516F1170117111D8A447D049CC2CFC29
:103590004ACC2DFC000E2E6F000E2F6F000E306FE8
:1035A000000E316F6FECA8F02CCC6EFC2DCC6FFCB4
:1035B0002ECC70FC2FCC71FC6E056F117011711147
:1035C000D8A40AD020EE0FF04951D9264A51DA2268
:1035D000020EDF6E020E12006E2911E16F290FE15B
:1035E00070290DE17129D8A40AD020EE0FF04951BD
:1035F000D9264A51DA22010EDF6E010E120020EEAA
:1036000006F04951D9264A51DA226ECCDEF46FCC4D
:10361000DEF470CCDEF471CCDEF420EE14F049510F
:10362000D9264A51DA226ECCDEF46FCCDEF470CCAF
:10363000DEF471CCDEF46E516F1170117111D8A4EB
:1036400089D0E8D068514B5F69514C5B6A514D5B42
:103650006B514E5B20EE10F04951D9264A51DA22C7
:103660006851DE266951DE226A51DE226B51DE226C
:1036700020EE0EF04951D9264A51DA22DFA225D098
:1036800049CC2CFC4ACC2DFC6ECC2EFC6FCC2FFCF4
:1036900070CC30FC71CC31FC6FECA8F02CCC6EFC03
:1036A0002DCC6FFC2ECC70FC2FCC71FC6E516F11A9
:1036B00070117111D8A41FD0000E4B6F000E4C6F0B
:1036C000000E4D6F000E4E6F4FD049CC0BFC4ACC14
:1036D0000CFC6ECC0DFC6FCC0EFC70CC0FFC71CCD6
:1036E00010FC31ECB7F00BCC6EFC0CCC6FFC0DCCAD
:1036F00070FC0ECC71FC6E2907E16F2905E1702981
:1037000003E17129D8B471D7715170116F1104E1BF
:10371000020E6E5DD8A056D720EE14F06C51D9265B
:103720006D51DA22DE506E5DDE506F59DE507059F9
:10373000DE507159D8B046D720EE14F04951D92641
:103740004A51DA226ECCDEF46FCCDEF470CCDEF4BB
:1037500071CCDEF44B51685D4C5169594D516A5939
:103760004E516B59D8A06ED720EE10F04951D92692
:103770004A51DA224B51DE264C51DE224D51DE22D7
:103780004E51DE22FF0E4B154F6F010E4C15506F40
:10379000000E4D15516F000E4E15526F4F515011C6
:1037A00051115211D8B436D06CCC21F86DCC22F81E
:1037B0006ECC23F86FCC24F870CC25F871CC26F8A9
:1037C0002FECE6F021C864FC22C865FC23C866FC27
:1037D00024C867FC0C016451651166116711D8B4E7
:1037E000F1D64BCC4FFC4CCC50FC4DCC51FC4ECCCC
:1037F00052FC0A0E05D0D8905233513350334F3318
:10380000E82EF9D74F516427505165235151662353
:103810005251672320EE10F04951D9264A51DA223D
:1038200010EE0AF04951E1264A51E222DE50E65CF0
:10383000DE50E658DE50E658DE50E658D8B01CD0D0
:1038400020EE10F04951D9264A51DA2210EE0AF042
:103850004951E1264A51E222DEC4E6F4DEC4E6F430
:10386000DEC4E6F4DEC4E6F420EE0EF04951D926BB
:103870004A51DA22000EDB8C20EE10F04951D92695
:103880004A51DA22FF0EDE144F6F010EDE14506F24
:10389000000EDE14516F000EDE14526F4F515011A6
:1038A00051115211D8B43AD520EE18F04951D92609
:1038B0004A51DA226451DE180AE16551DE1807E147
:1038C0006651DE1804E16751DE18D8B427D520EE22
:1038D0000EF04951D9264A51DA22DFAE33D0220EFA
:1038E00049250B01916F000E0C014A210B01926FCB
:1038F0000C0120EE18F04951D9264A51DA22DEC4D3
:1039000093FBDEC494FBDEC495FBDEC496FB000E85
:103910000B01986F010E976F0C0120EE01F06C51B6
:10392000D9266D51DA22DF50D7ECF4F00009D8A483
:103930002BD00C0120EE0EF04951D9264A51DA2243
:103940007F0EDF16220E49250B01936F000E0C012E
:103950004A210B01946F64CC95FB65CC96FB66CC39
:1039600097FB67CC98FB000E9A6F010E996F0C01C4
:1039700020EE01F06C51D9266D51DA22DF5018EC9F
:10398000F5F00009D8B402D00C012FD60C0120EEBE
:1039900018F04951D9264A51DA2264CCDEF465CCBC
:1039A000DEF466CCDEF467CCDEF4B8D4215122110B
:1039B000D8A402D0090E12003F0E2517230E0D01C8
:1039C000F16F0E0EF26F460EF36F0E0EF46F25CEF2
:1039D000F5FDD6EC90F00E01486F4851D8A40AD3FB
:1039E00046CE49FE47CE4AFE490E0D01F26F0E0E3D
:1039F000F36F23CEF4FD24CEF5FDD9ECCEF00E010D
:103A0000486F4851D8B470AF02D0060E486F25CE2B
:103A100026FE1C0E2617D8B4FAD04851D8B40FD0C1
:103A2000040E4819D8A409D0490E0D01F66F0E0EE8
:103A3000F76FF9ECE8F00E01486F25870CD04DCEFA
:103A400026FE110E2617D8B402D0070E03D025A5E6
:103A500002D0080E486F4851D8B425A7E4D0D4EC62
:103A600002F000CD32FE01CD33FE02CD34FE03CD97
:103A700035FE0E0E0E0163250D01006F000E0E01C6
:103A800064210D01016F32CE02FD33CE03FD34CE31
:103A900004FD35CE05FD60ECF8F0160E0E01632531
:103AA0000D01006F000E0E0164210D01016F32CE79
:103AB00002FD33CE03FD34CE04FD35CE05FD60ECB2
:103AC000F8F046CE07FD47CE08FD63CE09FD64CE73
:103AD0000AFDD3ECF6F007CD36FE08CD37FE09CD52
:103AE00038FE0ACD39FE0E0120EE0BF06351D926C7
:103AF0006451DA22200EDF6E46CE04FD47CE05FD6E
:103B000063CE06FD64CE07FD000E0D01086F000EAA
:103B1000096F000E0A6F000E0B6F16ECFEF01C0E04
:103B20000E0163250D01006F000E0E0164210D01D1
:103B3000016F000E026F000E036F000E046F000E87
:103B4000056F60ECF8F00E0120EE04F04651D92626
:103B50004751DA22010EDF6E365137113811391113
:103B6000D8B461D020EE2CF04651D9264751DA2244
:103B7000DEC43AFEDEC43BFEDEC43CFEDEC43DFED7
:103B8000490E0D01B36F0E0EB46F36CEB5FD37CEB4
:103B9000B6FD38CEB7FD39CEB8FD000EB96F000EB8
:103BA000BA6F000EBB6F000EBC6FFFECCDF00E01C4
:103BB000486F4851D8A437D046CE87FD47CE88FD00
:103BC0003ACE89FD3BCE8AFD3CCE8BFD3DCE8CFDB1
:103BD00095ECECF00E01486FFF0E3625266FFF0EB8
:103BE0003721276FFF0E3821286FFF0E3921296FEB
:103BF00020EE0CF04651D9264751DA2226CEDEF4CB
:103C000027CEDEF428CEDEF429CEDEF40CD04851E7
:103C1000D8A409D04DA902D0040E04D025B34DA1DB
:103C200002D0070E486F4851D8A420D025B7258D63
:103C300020EE2CF04651D9264751DA2210EE1CF026
:103C40002151E1262251E222DEC4E6F4DEC4E6F48C
:103C5000DEC4E6F4DEC4E6F420EE20F02151D926DD
:103C60002251DA2263CEDEF464CEDDF44851D8A4CA
:103C7000C1D146CE07FD47CE08FD63CE09FD64CE17
:103C80000AFDD3ECF6F00E0120EE06F02151D92604
:103C90002251DA220D0107CDDEF408CDDEF409CD84
:103CA000DEF40ACDDEF41C0E0E0163250D01006F5B
:103CB000000E0E0164210D01016F7FECEAF00E0190
:103CC00020EE0AF02151D9262251DA220D0100CD31
:103CD000DEF401CDDEF402CDDEF403CDDEF421CE40
:103CE000D9F422CEDAF446CEDEF447CEDDF40E016E
:103CF00020EE06F04651D9264751DA2210EE02F0A6
:103D00002151E1262251E222DEC4E6F4DDC4E5F4CD
:103D100020EE0EF02151D9262251DA2225CEDFF4F1
:103D200020EE0FF02151D9262251DA22000EDF6E4B
:103D300020EE18F02151D9262251DA22DE6ADE6AFD
:103D4000DE6ADD6A20EE10F02151D9262251DA22F6
:103D5000DE6ADE6ADE6ADD6A220E21250D01006F51
:103D6000000E0E0122210D01016F000E036F000EE7
:103D7000026F020E056F000E046FEAECFFF00E01F9
:103D800025AB38D120EE0AF02151D9262251DA2272
:103D9000DE50DE10DE10DE10D8B42CD120EE0AF09A
:103DA0002151D9262251DA2210EE10F02151E126BC
:103DB0002251E222DEC4E6F4DEC4E6F4DEC4E6F418
:103DC000DEC4E6F420EE0AF04651D9264751DA2245
:103DD000DEC426FEDDC427FE2651286F2751296F39
:103DE0002A6B2B6B090ED890283729372A372B37A7
:103DF000E82EF9D728CE2EFE29CE2FFE2ACE30FE71
:103E00002BCE31FE20EE06F02151D9262251DA22A6
:103E1000DEC442FEDEC443FEDEC444FEDEC445FE14
:103E200020EE0AF02151D9262251DA22DEC43EFECC
:103E3000DEC43FFEDEC440FEDEC441FE34D021CEEF
:103E400092FD22CE93FD42CE94FD43CE95FD44CE0D
:103E500096FD45CE97FD99ECBAF092CD42FE93CDFA
:103E600043FE94CD44FE95CD45FE0E0145514411CF
:103E7000431106E1020E425DD8B002D0020E486F37
:103E8000422909E1432907E1442905E14529D8A44C
:103E900002D0010E486F2E513E5F2F513F5B3051D3
:103EA000405B3151415B4851D8A40AD03E512E5D50
:103EB0003F512F594051305941513159D8A0BFD7A6
:103EC00020EE14F02151D9262251DA2242CEDEF41E
:103ED00043CEDEF444CEDEF445CEDEF44851D8A421
:103EE00089D0FF0E3E15266F010E3F15276F000E7D
:103EF0004015286F000E4115296F265127112811F2
:103F00002911D8B477D046CE0CFD47CE0DFD42CE58
:103F10000EFD43CE0FFD44CE10FD45CE11FDBDEC90
:103F2000E9F00CCD3AFE0DCD3BFE0ECD3CFE0FCDA3
:103F30003DFE0E013A513B113C113D11D8A402D077
:103F4000020E57D03ECE26FE3FCE27FE40CE28FEA4
:103F500041CE29FE0A0E05D0D890293328332733C5
:103F60002633E82EF9D73A5126252A6F3B512721CF
:103F70002B6F3C5128212C6F3D5129212D6F20EEB4
:103F800018F02151D9262251DA222ACEDEF42BCE86
:103F9000DEF42CCEDEF42DCEDEF4220E21250D0132
:103FA0006C6F000E0E0122210D016D6F0E0120EECF
:103FB00018F02151D9262251DA22DEC46EFDDEC46A
:103FC0006FFDDEC470FDDEC471FD000E0D01736F68
:103FD000010E726F0E0120EE01F04651D9264751B5
:103FE000DA22DF5059ECF5F00009D8B403D0010E05
:103FF0000E01486F0E014851D8B408D021CED9F433
:1040000022CEDAF4000EDE6E000EDD6E4851120094
:10401000FAC4ADFCFBC4AEFCF6C4AFFCF7C4B0FC04
:10402000F8C4B1FCF5C4B2FCD69ECFC4CAFCCEBA6B
:104030006ED0000EC86E52D007010D510E11D8B4CB
:1040400002D0C0685DD0000E34D007ECFCF00C014B
:10405000C36FC351D8A405D0000E0701126F010E23
:10406000116FC3CCC0F44CD0070107510811D8B46C
:1040700047D0000E075D0C01A36F0A0E0701085917
:104080000C01A46FA4BF06D0A4513AE1800EA35D39
:10409000D8B036D007C7D9F408C7DAF4DF50C06EFD
:1040A0000701074B082B2CD022C7C0F429D00FECF6
:1040B00003F0C06E25D0470E0B016C6FF40E6D6FD0
:1040C000CACC6EFB6F6BCACC70FB716BB5ECFEF0AB
:1040D000000E0701126F010E116FB3D70C01CA5108
:1040E000000AD8B4A9D7010AD8B4AFD7090AD8B4FE
:1040F000BBD7060AD8B4D8D7AE0AD8B4D8D7DBD73E
:104100000001D785D795CEA0FED7C8689BD2000EF8
:104110000C01C76F000EC66FCACCC1FCC26BD0C405
:10412000BFFCC06B9CD0B7A2FED7D0C4C9F2C6D02A
:10413000070107510811D8B4C1D0000E075D0C016A
:10414000A36F0A0E070108590C01A46FA4BF06D083
:10415000A45103E1800EA35DD8B0B0D007C7D9F455
:1041600008C7DAF4D0C4DFF40701074B082B000EB0
:10417000075D0C01A36F0A0E070108590C01A46F1B
:10418000800EA319A411D8A499D0000E0C01C76FFA
:10419000010EC66F93D0D0C417F790D0D0C416F7D5
:1041A0008DD0000E070109150C01A36FFF0E07014A
