:0400000085EF00F098
:1000080081488148814881488148814881488148A0
:100018008148814881488148814881488148814890
:100028008148814881488148814881488148814880
:100038008148814881488148814881488148814870
:100048008148814881488148814881488148814860
:100058008148814881488148814881488148814850
:100068008148814881488148814881488148814840
:1000780081488148814881484200DA47814881485F
:100088008148814881488148814881488148814820
:100098008148814881488148420081488148814897
:1000A8008148814881488148814881488148814800
:1000B80081488148814881488148814881488148F0
:1000C80081488148814881488148814881488148E0
:1000D80081488148814881488148814881488148D0
:1000E8004200814881488148814881488148814847
:1000F80081488148814881488148814881488148B0
:06010800FF00ADEF90F0D6
:10DFE00000F331F020C33C00FFC33100FFFFFFFF0F
:10DFF000FFC31B00FFFFFFFFFFC32C00DB01CB476C
:10E0000028FADB00FE61D8FE7BD0E6DFC9DB01CB5E
:10E0100047C9F5DB01CB4F28FAF1D300C9C33F0054
:10E02000C34500C3BA00C34C00FD0873102145204E
:10E03000F9C38E1C11240306632145201A7723138C
:10E0400005C25B00F9CD2505CDF30A32EF20323E43
:10E050002121A221237CB5CA82007E472F77BE7082
:10E06000CA73002B11A121CDBB06DAC30011CEFF6C
:10E0700022F42019229F20CD00052A9F2011EFFFB6
:10E0800019113E217D936F7C9A67E521DB00CD91CC
:10E0900011E1CD341821CC00CD911131AB20CD252B
:10E0A00005C33E04211201CD9111C3C9002042795C
:10E0B00074657320667265650D0A00005A38302059
:10E0C00042415349432056657220342E37620D0A6F
:10E0D000436F707972696768742028432920313949
:10E0E0003738206279204D6963726F736F66740DE3
:10E0F0000A00004D656D6F72792073697A65206E34
:10E100006F7420656E6F7567680D0A5468652073BB
:10E11000797374656D2069732073746F70706564B2
:10E120002E0D0A0000A9166D17BF1648205110D6F3
:10E13000137F103319121A4E158119871A8D1AEE92
:10E140001A031B2A146E1B962003131B119D131216
:10E15000132313901B231C331363136D13C54E44F9
:10E16000C64F52CE455854C4415441C94E505554DF
:10E17000C4494DD2454144CC4554C74F544FD25564
:10E180004EC946D24553544F5245C74F535542D2BC
:10E19000455455524ED2454DD3544F50CF5554CF80
:10E1A0004ECE554C4CD7414954C44546D04F4B45B3
:10E1B000C44F4B45D3435245454ECC494E4553C3BE
:10E1C0004C53D749445448CD4F4E49544F52D345F0
:10E1D00054D245534554D052494E54C34F4E54CC5B
:10E1E000495354C34C454152C34C4F4144C353411E
:10E1F0005645CE4557D4414228D44FC64ED35043FE
:10E2000028D448454ECE4F54D3544550ABADAAAF59
:10E21000DEC14E44CF52BEBDBCD3474EC94E54C1E1
:10E220004253D55352C65245C94E50D04F53D35185
:10E2300052D24E44CC4F47C55850C34F53D3494E8A
:10E24000D4414EC1544ED045454BC445454BD04FAB
:10E25000494E54CC454ED3545224D6414CC153431D
:10E26000C3485224C8455824C2494E24CC4546547C
:10E2700024D24947485424CD494424809508920724
:10E280006D0CE209740BA90EA30BF9099F09820911
:10E29000710A5B088E09BD09E4099308E213530A69
:10E2A000D408E81387103114791BE4095F1B521B53
:10E2B000571B8B1C99209C20950AC10807073C0915
:10E2C000E409E409FF04791B18794F147C8D157C4F
:10E2D000EE157F3C1950020E46010E4E46534E522B
:10E2E000474F4446434F564F4D554C425344442F9D
:10E2F000304944544D4F534C535354434E55464D5F
:10E300004F4858424EC3BA00C31209D300C9D600C1
:10E310006F7CDE006778DE00473E00C900000035F4
:10E320004ACA99391C76982295B3980ADD479853C2
:10E33000D199990A1A9F9865BCCD98D6773E985284
:10E34000C74F80DB00C901FF1C000014001400004F
:10E35000000000C33806C30000C30000C30000A2D1
:10E3600021FEFF3F21204572726F720020696E20EE
:10E37000004F6B0D0A0000427265616B00210400C2
:10E38000397E23FE81C04E234623E569607AB3EBD4
:10E39000CAB603EBCDBB06010D00E1C809C3A0035B
:10E3A000CDD903C5E3C1CDBB067E02C80B2BC3C5C7
:10E3B00003E52A1F21060009093EE53ED0956F3E80
:10E3C000FF9CDAE8036739E1D81E0CC307042A0E64
:10E3D0002122A1201E02011E14011E00011E120195
:10E3E0001E22011E0A011E18CD2505328A20CDE607
:10E3F0000A21FA02573E3FCDCC06197ECDCC06CD80
:10E400004B08CDCC06218403CD91112AA12011FE09
:10E41000FFCDBB06CA4C007CA53CC42C183EC1AF46
:10E42000328A20CDE60A219003CD911121FFFF22EF
:10E43000A120CD3806DA4B04CD4B083C3DCA4B0435
:10E44000F5CD1709D5CD4F0547D1F1D22B08D5C54C
:10E45000AF321121CD4B08B7F5CDDF04DA8404F1DA
:10E46000F5CAB809B7C5D29B04EB2A1B211A0203CF
:10E4700013CDBB06C28C046069221B21D1F1CAC234
:10E48000042A1B21E3C109E5CDBF03E1221B21EBD7
:10E4900074D123237323722311A6201A772313B771
:10E4A000C2BA04CD0B0523EB626B7E23B6CA4B04C4
:10E4B000232323AFBE23C2D304EB732372C3C70449
:10E4C0002AA320444D7E23B62BC823237E23666FC8
:10E4D000CDBB0660697E23666F3FC83FD0C3E204B0
:10E4E000C02AA320AF77237723221B212AA3202B26
:10E4F0002213212AF420220821AFCD5B082A1B21F8
:10E50000221D21221F21C12A9F20F921F82022F655
:10E5100020AF6F67221921321021222321E5C52A5D
:10E520001321C93E3FCDCC063E20CDCC06C393205F
:10E53000AF32F3200E0511A6207EFE20CAD7054774
:10E54000FE22CAF705B7CAFE053AF320B77EC2D746
:10E5500005FE3F3E9ECAD7057EFE30DA8205FE3CB0
:10E56000DAD705D5117B01C501D305C5067F7EFE2F
:10E5700061DA9B05FE7BD29B05E65F774EEB23B607
:10E58000F29D05047EE67FC8B9C29D05EBE5131A2E
:10E59000B7FACF054F78FE88C2BE05CD4B082B23B6
:10E5A0007EFE61DAC705E65FB9CAAD05E1C39B052A
:10E5B00048F1EBC9EB79C1D12312130CD63ACAE565
:10E5C00005FE49C2E80532F320D654C25805477EFD
:10E5D000B7CAFE05B8CAD70523120C13C3EE05212E
:10E5E000A5201213121312C93A8920B73E003289AE
:10E5F00020C21B0605CA3806CDCC063E052BCA2F05
:10E60000067ECDCC06C34106052BCDCC06C2410605
:10E61000CDCC06CDF30AC3380621A6200601AF32C1
:10E620008920CDF6064FFE7FCA07063A8920B7CA71
:10E630005A063E00CDCC06AF32892079FE07CA9E2D
:10E6400006FE03CCF30A37C8FE0DCAEE0AFE15CA51
:10E650003206FE40CA2F06FE5FCA2706FE08CA27FA
:10E6600006FE12C29906C5D5E53600CD9D1C21A631
:10E6700020CD9111E1D1C1C34106FE20DA410678D7
:10E68000FE493E07D2B30679713211212304CDCC65
:10E6900006C34106CDCC063E08C3AD067C92C07DC4
:10E6A00093C97EE3BE23E3CA4B08C3F303F53A8A5A
:10E6B00020B7C2C611F1C5F5FE20DAF0063A872070
:10E6C000473AF02004CAEC0605B8CCF30A3C32F015
:10E6D00020F1C1CD881CC9CD501BE67FFE0FC03A8A
:10E6E0008A202F328A20AFC9CD1709C0C1CDDF04DF
:10E6F000C5CD5D07E14E23462378B1CA3E04CD6601
:10E7000007CD7608C5CDF30A5E235623E5EBCD345D
:10E71000183E20E1CDCC067EB723CA1307F233079B
:10E72000D67F4F117C011A13B7F245070DC245077A
:10E73000E67FCDCC061A13B7F24F07C33607E52A9A
:10E740008D20228B20E1C9E5D52A8B2011FFFFED1A
:10E750005A228B20D1E1F0E52A8D20228B20CD504A
:10E760001BFE03CA8907E1C366072A8D20228B207E
:10E77000C3BD003E64321021CDF909C1E5CDE209E7
:10E78000220C2121020039CDA003D1C2C20709D534
:10E790002B562B5E2323E52A0C21CDBB06E1C2A616
:10E7A00007D1F9EB0E08CDD003E52A0C21E3E52AC9
:10E7B000A120E3CDBB0CCDC106A6CDB80CE5CDE6BE
:10E7C00016E1C5D5010081515A7EFEAB3E01C2FE65
:10E7D00007CD4B08CDB80CE5CDE616CD9A16E1C5B0
:10E7E000D5F533E52A1321E30681C533CD7608221A
:10E7F00013217EFE3ACA2B08B7C2F303237E23B649
:10E80000CA9D08235E2356EB22A120EBCD4B0811B5
:10E810000B08D5C8D680DAF909FE25D2F303074FD5
:10E820000600EB219B02094E2346C5EB237EFE3AF0
:10E83000D0FE20CA4B08FE303F3C3DC9EB2AA32046
:10E84000CA7008EBCD1709E5CDDF046069D1D2B8F5
:10E85000092B222121EBC9DFC8D7FE1B2811FE039B
:10E86000280DFE13C0D7FE11C8FE03280718F63E78
:10E87000FF329220C0F6C022132121F6FFC12AA147
:10E8800020F57DA43CCAB0082217212A13212219A1
:10E8900021AF328A20CDE60AF1219603C22704C3B4
:10E8A0003E042A19217CB51E20CA0704EB2A172131
:10E8B00022A120EBC9CD1914C0328620C9E52A8FC8
:10E8C0002006004F09228F20E1C97EFE41D8FE5B61
:10E8D0003FC9CD4B08CDB80CCD9A16FA12093A2C87
:10E8E00021FE90DA4217018090110000E5CD151746
:10E8F000E151C81E08C307042B110000CD4B08D0FE
:10E90000E5F5219819CDBB06DAF303626B192919D5
:10E9100029F1D6305F160019EBE1C31B09CA0F05B8
:10E92000CDF4082BCD4B08E52AF420CA5F09E1CDD0
:10E93000C1062CD5CDF4082BCD4B08C2F303E3EB75
:10E940007D935F7C9A57DAE803E52A1B21012800B2
:10E9500009CDBB06D2E803EB229F20E122F420E19F
:10E96000C30F05CA0B05CD0F05010B08C39E090E89
:10E9700003CDD003C1E5E52AA120E33E8CF533C5E4
:10E98000CD1709CDE409E52AA120CDBB06E123DCA2
:10E99000E204D4DF0460692BD81E0EC30704C0163E
:10E9A000FFCD9C03F9FE8C1E04C20704E122A120C6
:10E9B000237CB5C2DC093A1121B7C23D04210B0802
:10E9C000E33EE1013A0E0006007948477EB7C8B839
:10E9D000C823FE22CAE809C3EB09CDAE0ECDC1069D
:10E9E000B4D53AF220F5CDCA0CF1E32213211FCDA4
:10E9F000BD0CCA4C0AE52A2921E523235E23562AA9
:10EA0000A320CDBB06D23B0A2A9F20CDBB06D1D284
:10EA1000430A210421CDBB06D2430A3ED1CDF212D6
:10EA2000EBCD2B11CDF212E1CDF516E1C9E5CDF21A
:10EA300016D1E1C9CD19147E47FE8CCA620ACDC138
:10EA400006882B4B0D78CA3308CD1809FE2CC0C39D
:10EA5000630ACDCA0C7EFE88CA7F0ACDC106A92BE7
:10EA6000CDBB0CCD9A16CAE409CD4B08DA9F09C379
:10EA700032082BCD4B08CAF30AC8FEA5CA260BFEE6
:10EA8000A8CA260BE5FE2CCA0F0BFE3BCA490BC1D8
:10EA9000CDCA0CE53AF220B7C2DF0ACD3F18CD4F00
:10EAA0001136202A2921342A29213A87204704CAED
:10EAB000DB0A043AF020863DB8D4F30ACD9411AFB6
:10EAC000C49411E1C3910A3AF020B7C8C3F30A36DF
:10EAD0000021A5203E0DCDCC063E0ACDCC06AF329E
:10EAE000F0203A86203DC8F5AFCDCC06F1C3040B2B
:10EAF0003A8820473AF020B8D4F30AD2490BD60E10
:10EB0000D21D0B2FC33E0BF5CD1614CDC106292BFC
:10EB1000F1D6A8E5CA390B3AF0202F83D2490B3C35
:10EB2000473E20CDCC0605C2420BE1CD4B08C39831
:10EB30000A3F5265646F2066726F6D207374617254
:10EB4000740D0A003A1221B7C2ED03C121500BCD5A
:10EB50009111C33E05CDFC107EFE223E00328A207C
:10EB6000C28E0BCD5011CDC1063BE5CD94113EE5D3
:10EB7000CD4205C1DA9A08237EB72BC5CAE1093612
:10EB80002CC3A80BE52A2121F6AF321221E3C3B42E
:10EB90000BCDC1062CCDAE0EE3D57EFE2CCADC0B10
:10EBA0003A1221B7C2490C3E3FCDCC06CD4205D129
:10EBB000C1DA9A08237EB72BC5CAE109D53AF220FB
:10EBC000B7CA060CCD4B085747FE22CAFA0B3A12B9
:10EBD00021B757CAF70B163A062C2BCD5311EB2150
:10EBE000110CE3D5C3140ACD4B08CDA117E3CDF228
:10EBF00016E12BCD4B08CA1D0CFE2CC2630BE32B78
:10EC0000CD4B08C2B00BD13A1221B7EBC27108D577
:10EC1000B621380CC49111E1C93F45787472612066
:10EC200069676E6F7265640D0A00CDE209B7C26252
:10EC30000C237E23B61E06CA0704235E2356EB224E
:10EC40000E21EBCD4B08FE83C2490CC3DC0B110037
:10EC500000C4AE0E221321CD9C03C2F903F9D57E68
:10EC600023F5D5CDD816E3E5CD4514E1CDF216E177
:10EC7000CDE916E5CD1517E1C190CDE916CAA80C6E
:10EC8000EB22A1206960C30708F92A13217EFE2C1C
:10EC9000C20B08CD4B08CD700CCDCA0CF6373AF23A
:10ECA000208FB7E8C30504CDC106282B1600D50E6A
:10ECB00001CDD003CD410D2215212A1521C178FEA9
:10ECC00078D4BB0C7E1600D6B3DA020DFE03D20256
:10ECD0000DFE0117AABA57DAF303220A21CD4B0819
:10ECE000C3E60C7AB7C2290E7E220A21D6ACD8FE22
:10ECF00007D05F3AF2203DB37BCA871207835F21BA
:10ED0000E502197856BAD023CDBB0CC501D90CC584
:10ED1000434ACDCB1658514E234623C52A0A21C358
:10ED2000CD0CAF32F220CD4B081E24CA0704DAA165
:10ED300017CDE908D2A80DFE262012CD4B08FE48BB
:10ED4000CAE51BFE42CA551C1E02CA0704FEACCA15
:10ED5000410DFE2ECAA117FEADCA970DFE22CA5064
:10ED600011FEAACA890EFEA7CAB410D6B6D2B90D32
:10ED7000CDC60CCDC10629C9167DCDCD0C2A1521D5
:10ED8000E5CDC316CDBB0CE1C9CDAE0EE5EB222916
:10ED9000213AF220B7CCD816E1C90600074FC5CDFD
:10EDA0004B0879FE31DAE00DCDC60CCDC1062CCD75
:10EDB000BC0CEB2A2921E3E5EBCD1914EBE3C3E806
:10EDC0000DCD8F0DE311A30DD5014401094E23662E
:10EDD00069E915FEADC8FE2DC814FE2BC8FEACC8EF
:10EDE0002BC9F6AFF5CDBB0CCDFD08F1EBC1E3EBC4
:10EDF000CDDB16F5CDFD08F1C179217210C2240ECC
:10EE0000A34F78A2E9B34F78B2E9213B0E3AF22042
:10EE10001F7A175F166478BAD0C32A0D3D0E79B7F2
:10EE20001FC1D1F5CDBD0C217F0EE5CA1517AF323C
:10EE3000F220D5CDD4127E23234E2346D1C5F5CD65
:10EE4000D812CDE916F157E17BB2C87AD601D8AF16
:10EE5000BB3CD0151D0ABE2303CA670E3FC3A516CF
:10EE60003C8FC1A0C6FF9FC3AC16165ACDCD0CCDAA
:10EE7000BB0CCDFD087B2F4F7A2FCD7210C1C3D9AB
:10EE80000C2BCD4B08C8CDC1062C01A00EC5F6AF8A
:10EE900032F12046CDE908DAF303AF4F32F220CD4C
:10EEA0004B08DACA0ECDE908DAD70E4FCD4B08DA97
:10EEB000CB0ECDE908D2CB0ED624C2E60E3C32F200
:10EEC000200F814FCD4B083A10213DCA930FF2F627
:10EED0000E7ED628CA6B0FAF321021E550592A2377
:10EEE00021CDBB06112521CADB152A1D21EB2A1BCA
:10EEF00021CDBB06CA290F799623C21E0F7896230F
:10EF0000CA5D0F23232323C3100FE1E3D511AB0DFB
:10EF1000CDBB06D1CA600FE3E5C50106002A1F215B
:10EF2000E509C1E5CDBF03E1221F216069221D2152
:10EF30002B3600CDBB06C24F0FD173237223EBE1FA
:10EF4000C9322C21218F03222921E1C9E52AF12090
:10EF5000E357D5C5CDF108C1F1EBE3E5EB3C577EB6
:10EF6000FE2CCA710FCDC10629221521E122F12004
:10EF70001E00D511E5F52A1D213E19EB2A1F21EBB4
:10EF8000CDBB06CACB0F7EB923C2AD0F7EB8235EC0
:10EF9000235623C2990F3AF120B7C2FC03F1444D26
:10EFA000CADB1596CA29101E10C30704110400F10C
:10EFB000CA1209712370234FCDD0032323220A21C3
:10EFC00071233AF1201779010B00D2EE0FC10371C2
:10EFD000237023F5E5CD8617EBE1F13DC2E60FF591
:10EFE000424BEB19DAE803CDD903221F212B36005F
:10EFF000CDBB06C20C1003572A0A215EEB2909EB90
:10F000002B2B73237223F1DA4D10474F7E2316E129
:10F010005E235623E3F5CDBB06D2C60FE5CD86179A
:10F02000D119F13D444DC22E102929C109EB2A15F1
:10F0300021C92A1F21EB210000393AF220B7CA6DFD
:10F0400010CDD412CDD4112A9F20EB2A08217D9314
:10F050004F7C9A41501E0021F220730690C3B116D6
:10F060003AF02047AFC37310CD0A11CDFC1001E276
:10F0700009C5D5CDC10628CDAE0EE5EB2B562B5ECE
:10F08000E1CDBB0CCDC10629CDC106B4444DE37121
:10F090002370C34911CD0A11D5CD8F0DCDBB0CE323
:10F0A0005E2356237AB3CAFF037E23666FE52A23C5
:10F0B00021E32223212A2721E52A2521E5212521D3
:10F0C000D5CDF216E1CDB80C2BCD4B08C2F303E140
:10F0D000222521E1222721E1222321E1C9E52AA1DC
:10F0E00020237CB5E1C01E16C30704CDC106A73E90
:10F0F00080321021B647CDB30EC3BB0CCDBB0CCDB7
:10F100003F18CD4F11CDD412012F13C57E2323E517
:10F11000CDAA11E14E2346CD4311E56FCDC712D1E3
:10F12000C9CDAA11210421E5772323732372E1C9F4
:10F130002B062250E50EFF237E0CB7CA6511BACA12
:10F140006511B8C25611FE22CC4B08E323EB79CDF2
:10F1500043111104212AF6202229213E0132F220F6
:10F16000CDF516CDBB0622F620E17EC01E1EC307DC
:10F170000423CD4F11CDD412CDE9161C1DC80ACDE4
:10F18000CC06FE0DCCFD0A03C39B11B70EF1F52A88
:10F190009F20EB2A08212F4F06FF0923CDBB06DA5B
:10F1A000C81122082123EBF1C9F11E1ACA0704BFB6
:10F1B000F501AC11C52AF420220821210000E52A1E
:10F1C0009F20E521F820EB2AF620EBCDBB0601E5D8
:10F1D00011C239122A1B21EB2A1D21EBCDBB06CA15
:10F1E0000C127E2323B7CD3C12C3F611C1EB2A1FAC
:10F1F00021EBCDBB06CA6212CDE9167BE509B7F259
:10F200000B12220A21E14E0600090923EB2A0A21EA
:10F21000EBCDBB06CA0C12012B12C5F6807E232350
:10F220005E235623F0B7C8444D2A0821CDBB0660A3
:10F2300069D8E1E3CDBB06E3E56069D0C1F1F1E552
:10F24000D5C5C9D1E17DB4C82B462B4EE52B2B6E1D
:10F2500026000950592B444D2A0821CDC203E171E3
:10F26000237069602BC3D711C5E52A2921E3CD415D
:10F270000DE3CDBC0C7EE52A2921E5861E1CDA07AC
:10F2800004CD4011D1CDD812E3CDD712E52A062105
:10F29000EBCDBE12CDBE1221D60CE3E5C37111E158
:10F2A000E37E23234E23466F2C2DC80A120313C37B
:10F2B000C812CDBC0C2A2921EBCDF212EBC0D550DF
:10F2C000591B4E2A0821CDBB06C2F012470922085D
:10F2D00021E1C92AF6202B462B4E2B2BCDBB06C095
:10F2E00022F620C9018210C5CDD112AF5732F220CB
:10F2F0007EB7C9018210C5CD0713CA120923235E48
:10F3000023561AC93E01CD4011CD1C142A06217383
:10F31000C1C37111CDCC13AFE34FE57EB8DA411311
:10F3200078110E00C5CDAA11C1E1E523234623665D
:10F3300068060009444DCD43116FCDC712D1CDD819
:10F3400012C37111CDCC13D1D51A90C33713EB7EF4
:10F35000CDD1130405CA1209C51EFFFE29CA8613A2
:10F36000CDC1062CCD1914CDC10629F1E301391305
:10F37000C53DBE0600D04F7E91BB47D843C9CD07DF
:10F3800013CABA145F23237E23666FE5194672E31E
:10F39000C57EFE24C2BB13CDE51B180DFE25C2C5DC
:10F3A00013CD551C1803CDA117C1E170C9EBCDC118
:10F3B0000629C1D1C543C9CD1C14328420CD832078
:10F3C000C38210CD0614C34B20CD0614F51E002BAE
:10F3D000CD4B08CAFC13CDC1062CCD1914C1CD8369
:10F3E00020ABA0CAFD13C9CD1914328420324C20A1
:10F3F000CDC1062CC31914CD4B08CDB80CCDF708E0
:10F400007AB7C212092BCD4B087BC9CDFD081AC3B0
:10F410008210CDB80CCDFD08D5CDC1062CCD191468
:10F42000D112C9211819CDE916C35414CDE91621FA
:10F43000C1D1CDC31678B7C83A2C21B7CADB169014
:10F44000D26E142F3CEBCDCB16EBCDDB16C1D1FE2B
:10F4500019D0F5CD001767F1CD1915B4212921F286
:10F460009414CDF914D2DA142334CA02042E01CD37
:10F470002F15C3DA14AF90477E9B5F237E9A5723E4
:10F480007E994FDC05156863AF4779B7C2C7144A48
:10F4900054656F78D608FEE0C2A814AF322C21C99B
:10F4A00005297A1757798F4FF2BF14785C45B7CA90
:10F4B000DA14212C218677D2BA14C878212C21B7EE
:10F4C000FCEC1446237EE680A94FC3DB161CC01457
:10F4D000C00CC00E8034C0C302047E835F237E8ACA
:10F4E00057237E894FC9212D217E2F77AF6F9047FB
:10F4F0007D9B5F7D9A577D994FC90600D608DA2813
:10F5000015435A510E00C31B15C6096FAF2DC8799C
:10F510001F4F7A1F577B1F5F781F47C32B150000B3
:10F52000008103AA561980F122768045AA3882CD3F
:10F530009A16B7EA1209212C217E01358011F304B5
:10F5400090F570D5C5CD5414C1D104CDF015213D31
:10F5500015CD4B14214115CDE21901808011000019
:10F56000CD5414F1CD151801318011187221C1D17B
:10F57000CD9A16C82E00CD581679323B21EB223C8D
:10F5800021010000505821A514E521B115E5E52120
:10F5900029217E23B7CADD15E52E081F6779D2CB56
:10F5A00015E52A3C2119EBE13A3B21891F4F7A1FCF
:10F5B000577B1F5F781F472D7CC2BA15E1C9435A9C
:10F5C000514FC9CDCB16012084110000CDDB16C1EF
:10F5D000D1CD9A16CAF6032EFFCD581634342B7EA1
:10F5E0003257202B7E3253202B7E324F2041EBAFFF
:10F5F0004F575F325A20E5C57DCD4E20DE003FD209
:10F600002816325A20F1F137D2C1E1793C3D1FFA78
:10F61000DB14177B175F7A175779174F297817472D
:10F620003A5A2017325A2079B2B3C21516E5212C66
:10F630002135E1C21516C3020478B7CA7C167D21B4
:10F640002C21AE80471FA878F27B16C68077CADBD4
:10F6500015CD0017772BC9CD9A162FE1B7E1F2BA75
:10F6600014C30204CDE61678B7C8C602DA0204470E
:10F67000CD5414212C2134C0C302043A2C21B7C824
:10F680003A2B21FE2F179FC03CC9CD9A1606881130
:10F690000000212C214F70060023368017C3A214CE
:10F6A000CD9A16F0212B217EEE8077C9EB2A2921F5
:10F6B000E3E52A2B21E3E5EBC9CDE916EB2229216D
:10F6C0006069222B21EBC92129215E2356234E2379
:10F6D0004623C911292106041A77132305C2F716F8
:10F6E000C9212B217E07371F773F1F2323777907F7
:10F6F000371F4F1FAEC978B7CA9A1621A316E5CD9A
:10F700009A1679C8212B21AE79F8CD2F171FA9C9D8
:10F710002378BEC02B79BEC02B7ABEC02B7B96C08F
:10F72000E1E1C9474F575FB7C8E5CDE616CD0017F1
:10F73000AE67FC66173E9890CD19157C17DCEC146B
:10F740000600DC0515E1C91B7AA33CC00BC9212CBE
:10F75000217EFE983A2921D07ECD421736987BF53E
:10F760007917CDA214F1C921000078B1C83E102943
:10F77000DAC60FEB29EBD29C1709DAC60F3DC28E11
:10F7800017C9FE2DF5CAAD17FE2BCAAD172BCDBA82
:10F790001447575F2F4FCD4B08DAFE17FE2ECAD9FC
:10F7A00017FE45C2DD17CD4B08CDF10DCD4B08DA64
:10F7B000201814C2DD17AF935F0C0CCAB517E57B98
:10F7C00090F4F617F2EC17F5CDE215F13CC2E01714
:10F7D000D1F1CCC316EBC9C8F5CD8316F13DC9D51F
:10F7E00057788947C5E5D5CD8316F1D630CD1518A4
:10F7F000E1C1D1C3B517CDCB16CDAC16C1D1C35421
:10F80000147B0707830786D6305FC3CB17E5218BB0
:10F8100003CD9111E1EBAF0698CDB116219011E522
:10F82000212E21E5CD9A163620F24D18362D23369D
:10F8300030CA0319E5FCC316AFF5CD091901439190
:10F8400011F84FCD1517B7E27A18F1CDF717F5C3B8
:10F850005C18CDE215F13CF5CD0919CD42143CCD33
:10F860004217CDDB16010603F1813CFA9618FE081B
:10F87000D296183C473E023D3DE1F5111C1905C2E8
:10F88000A718362E2336302305362ECCF016C5E5C4
:10F89000D5CDE616E1062F047B965F237A9E57238B
:10F8A000799E4F2B2BD2B618CDF91423CDDB16EB56
:10F8B000E17023C10DC2A71805CAE7182B7EFE30E0
:10F8C000CADB18FE2EC4F016F1CA061936452336D7
:10F8D0002BF2F718362D2F3C062F04D60AD2F91832
:10F8E000C63A237023772371E1C901749411F72379
:10F8F000CD1517B7E1E27118E900000080A086017C
:10F90000102700E803006400000A00000100002145
:10F91000C316E3E9CDCB16211819CDD816C1D1CD28
:10F920009A1678CA8119F24C19B7CAF603B7CABB3E
:10F9300014D5C579F67FCDE616F26919D5C5CD6D1A
:10F9400017C1D1F5CD1517E17C1FE1222B21E12252
:10F950002921DC2E19CCC316D5C5CD4E15C1D1CD6C
:10F960008F15CDCB16013881113BAACD8F153A2CBE
:10F9700021FE88D27616CD6D17C680C602DA7616BD
:10F98000F5213D15CD4514CD8615F1C1D1F5CD51EB
:10F9900014CDC31621C119CDF119110000C14AC3FC
:10F9A0008F1508402E9474704F2E776E02887AE679
:10F9B000A02A7C50AAAA7EFFFF7F7F0000808100E2
:10F9C000000081CDCB16118D15D5E5CDE616CD8F76
:10F9D00015E1CDCB167E23CDD81606F1C1D13DC899
:10F9E000D5C5F5E5CD8F15E1CDE916E5CD5414E18A
:10F9F000C3FA19CD9A16215E20FA731A217F20CD01
:10FA0000D816215E20C886E6070600772387874F31
:10FA100009CDE916CD8F153A5D203CE6030600FEC0
:10FA20000188325D2021771A87874F09CD4514CD93
:10FA3000E6167B59EE4F4F36802B463680215C20F0
:10FA4000347ED6ABC26A1A770C151CCDA514217F63
:10FA500020C3F216772B772B77C34E1A68B146680E
:10FA600099E9926910D1756821D11ACD4514CDCB91
:10FA70001601498311DB0FCDDB16C1D1CDF015CDB9
:10FA8000CB16CD6D17C1D1CD511421D51ACD4B1444
:10FA9000CD9A1637F2BD1ACD4214CD9A16B7F5F4A9
:10FAA000C31621D51ACD4514F1D4C31621D91AC3D2
:10FAB000E219DB0F49810000007F05BAD71E86647A
:10FAC00026998758342387E05DA586DA0F4983CDD0
:10FAD000CB16CD8D1AC1E1CDCB16EBCDDB16CD8784
:10FAE0001AC3EE15CD9A16FC2E19FCC3163A2C211A
:10FAF000FE81DA201B0100815159CDF015214B14F4
:10FB0000E5212A1BCDE21921D11AC9094AD73B7830
:10FB1000026E847BFEC12F7C74319A7D843D5A7DB8
:10FB2000C87F917EE4BB4C7E6CAAAA7F0000008156
:10FB3000C9D7C93E0CC3881CCD19147B328720C994
:10FB4000CDB80CCDFD08ED538B20ED538D20C9CDE4
:10FB5000FD08D5E146237EC37310CDB80CCDFD085A
:10FB6000D5CDC1062CCDB80CCDFD08E3732372E1D1
:10FB7000C9CDBB0CCDFD08C5212E217AFE00280C75
:10FB8000CDC81B78FE302802702371237BCDC81BA3
:10FB90007AFE00200578FE30280270237123AF77AB
:10FBA0002377C1212E21C3211147E60FFE0A380217
:10FBB000C607C6304F780F0F0F0FE60FFE0A380248
:10FBC000C607C63047C9EB210000CDFE1BDA1E1C5C
:10FBD0001805CDFE1B381F29292929B56F18F313E5
:10FBE0001AFE20CAFE1BD630D8FE0A3805D607FEFC
:10FBF0000AD8FE103FC9EB7A4BE5CD7210E1C91E61
:10FC000026C30704CDBB0CCDFD08C5212E2106114E
:10FC10000578FE012808CB13CB1230F41804CB135F
:10FC2000CB123E30CE0077230520F3AF772377C188
:10FC3000212E21C32111EB210000CD721CDA801C82
:10FC4000D63029B56FCD721C30F6EB7A4BE5CD720C
:10FC500010E1C9131AFE20CA721CFE30D8FE323FD2
:10FC6000C91E28C30704C34C00C30800C300003EDC
:10FC700000329220C35300F5A0C1B83E00C9CDCCDC
:10FC800006C3F30A000000000000000000000000AE
:10FC90000000000000000000000000000000000064
:10FCA0000000000000000000000000000000000054
:10FCB0000000000000000000000000000000000044
:10FCC0000000000000000000000000000000000034
:10FFE000000D0A4D455A383052414D2025322E33EE
:10FFF000664D487A0D0A00696E66006E616E0000FB
:020000040001F9
:10000000000E816F57C584F558C585F559C586F52D
:100010005AC587F587AF14D0010E816F84C501F5ED
:1000200085C502F586C503F587C504F596EC90F005
:1000300001C584F502C585F503C586F504C587F5B8
:10004000000E836F000E826FBCC571F5BDC572F5E1
:100050008151D8B40DD08151D8A404D0000E676F5F
:100060002B0E03D0000E676F2D0E666F66C581F5EF
:1000700084C501F585C502F586C503F587C504F578
:1000800009EC8EF001040210D8A42CD00501815196
:10009000D8B409D081C500F67107D8A07207000E48
:1000A000836F010E826F000E8225016E060E832182
:1000B000026EF70E036EFF0E046E44EC90F0FD0E20
:1000C0007127FF0E722355C512F556C513F5000EA4
:1000D000146E060E156E71C516F572C517F511EC86
:1000E0008FF0120084C501F585C502F586C503F5BC
:1000F00087C504F509EC8EF001500210D8A42CD06D
:1001000005018151D8B409D081C500F67107D8A086
:100110007207000E836F010E826F000E8225016E42
:10012000060E8321026EFB0E036EFF0E046E44EC7E
:1001300090F0FD0E7127FF0E722355C512F556C5BE
:1001400013F5000E146E060E156E71C516F572C508
:1001500017F511EC8FF01200000E0501886F000EEC
:10016000896F800E8A6F3F0E8B6F000E706F000ECE
:100170006F6F84C501F585C502F586C503F587C592
:1001800004F5000E056E000E066E000E076E000EE2
:10019000086ECCEC8EF0D8A00CD0BED073C588F51C
:1001A00074C589F575C58AF576C58BF505016F4B64
:1001B000702B88C50FF589C510F58AC511F58BC55B
:1001C00012F5000E136E000E146E200E156E410E09
:1001D000166E00EC86F00FC573F510C574F511C5E9
:1001E00075F512C576F505017351845D016E745184
:1001F0008559026E75518659036E76518759046E82
:1002000087EC8FF004BECAD704500310021004E13B
:10021000020E015CD8A0C2D773C528F574C529F5B4
:1002200075C52AF576C52BF584C52CF585C52DF544
:1002300086C52EF587C52FF5A1EC8DF0D8A0AED7D9
:1002400005018851845D016E89518559026E8A517C
:100250008659036E8B518759046E87EC8FF004BE6C
:1002600008D004500310021043E1020E015CD8B024
:100270003FD088C584F589C585F58AC586F58BC5C7
:1002800087F54AD088C528F589C529F58AC52AF594
:100290008BC52BF5000E2C6E000E2D6E200E2E6ED3
:1002A000410E2F6E1CEC89F028C588F529C589F50B
:1002B0002AC58AF52BC58BF505016F07D8A07007F5
:1002C0008851845D016E89518559026E8A51865923
:1002D000036E8B518759046E87EC8FF004BEC9D72B
:1002E00004500310021004E1020E015CD8A0C1D733
:1002F00084C528F585C529F586C52AF587C52BF55A
:1003000088C52CF589C52DF58AC52EF58BC52FF529
:10031000A1EC8DF0D8A0B6D75BC569F569C56AF5C3
:100320000501BFBF05D0BEC562F5BFC563F504D0EA
:10033000000E636F060E626F62C56DF563C56EF5E4
:100340006D4B6E2B660E6A19D8A416D070AF0CD008
:10035000000E886F000E896F800E8A6F3F0E8B6FC4
:10036000000E706F000E6F6F670E6919D8B404D05D
:100370006F516D2770516E23000E786F000E776FEE
:1003800084C579F585C57AF586C57BF587C57CF585
:1003900088C573F589C574F58AC575F58BC576F57D
:1003A0007BD079C528F57AC529F57BC52AF57CC5AA
:1003B0002BF588C52CF589C52DF58AC52EF58BC57D
:1003C0002FF51CEC89F028C541F529C542F52AC551
:1003D00043F52BC544F59DEC8BF041C57DF542C539
:1003E0007EF543C57FF544C580F57DC501F57EC525
:1003F00002F57FC503F580C504F56FEC8EF001C5ED
:100400006BF502C56CF579C528F57AC529F57BC56C
:100410002AF57CC52BF57DC513F57EC514F57FC582
:1004200015F580C516F588C50FF589C510F58AC57F
:1004300011F58BC512F500EC86F00FC52CF510C533
:100440002DF511C52EF512C52FF5FFEC8FF028C53F
:1004500079F529C57AF52AC57BF52BC57CF588C5C4
:1004600028F589C529F58AC52AF58BC52BF5000E17
:100470002C6E000E2D6E200E2E6E410E2F6E1CEC7B
:1004800089F028C588F529C589F52AC58AF52BC5BF
:100490008BF50501774B782B6D51775D7851800A8C
:1004A0005C6E6E51800A5C58D8A07BD788C50FF56A
:1004B00089C510F58AC511F58BC512F5000E136EAE
:1004C000000E146EA00E156E400E166E00EC86F037
:1004D0000FC57DF510C57EF511C57FF512C580F5F8
:1004E00079C528F57AC529F57BC52AF57CC52BF594
:1004F0007DC52CF57EC52DF57FC52EF580C52FF564
:10050000A1EC8DF0D8B003D0000E050118D079C54C
:1005100001F57AC502F57BC503F57CC504F57DC5FB
:1005200005F57EC506F57FC507F580C508F5CCEC59
:100530008EF0D8A00BD005016BB108D0000E7D6FF6
:10054000000E7E6F000E7F6F000E806F84C501F578
:1005500085C502F586C503F587C504F57DC505F596
:100560007EC506F57FC507F580C508F596EC87F0D2
:1005700001C579F502C57AF503C57BF504C57CF59F
:1005800079C528F57AC529F57BC52AF57CC52BF5F3
:10059000000E136E000E146E200E156E410E166EB8
:1005A00073C50FF574C510F575C511F576C512F54F
:1005B00000EC86F00FC52CF510C52DF511C52EF5F4
:1005C00012C52FF5A1EC8DF0D8A024D005016F4BFA
:1005D000702B73C50FF574C510F575C511F576C58B
:1005E00012F5000E136E000E146E200E156E410EE5
:1005F000166E00EC86F00FC573F510C574F511C5C5
:1006000075F512C576F5660E05016A19D8A402D0F3
:100610006D4B6E2B73C588F574C589F575C58AF564
:1006200076C58BF56FC560F570C561F5000E0501E7
:10063000686F000E656F000E646F000E786F000E1D
:10064000776FCDD079C528F57AC529F57BC52AF510
:100650007CC52BF588C52CF589C52DF58AC52EF5E9
:100660008BC52FF51CEC89F028C541F529C542F54D
:100670002AC543F52BC544F59DEC8BF041C57DF5AE
:1006800042C57EF543C57FF544C580F57DC501F5BE
:100690007EC502F57FC503F580C504F56FEC8EF0CD
:1006A00002BE06D0025013E10A0E015CD8B00FD092
:1006B0007DC501F57EC502F57FC503F580C504F54E
:1006C0006FEC8EF001C56BF502C56CF505D0000E20
:1006D00005016C6F090E6B6F05016851D8B461AFED
:1006E00020D0000E8225D96E060E8321DA6E2E0EE2
:1006F000DF6E824B832B7107D8A07207010E686FE3
:1007000010D0000E8225D96E060E8321DA6E300ECF
:10071000DF6E824B832B7107D8A072076407D8A0C5
:10072000650764516511D8A4ECD7000E8225D96EF7
:10073000060E8321DA6E6B51300FDF6E824B832BF6
:100740007107D8A0720779C528F57AC529F57BC548
:100750002AF57CC52BF57DC513F57EC514F57FC53F
:1007600015F580C516F588C50FF589C510F58AC53C
:1007700011F58BC512F500EC86F00FC52CF510C5F0
:100780002DF511C52EF512C52FF5FFEC8FF028C5FC
:1007900079F529C57AF52AC57BF52BC57CF588C581
:1007A00028F589C529F58AC52AF58BC52BF5000ED4
:1007B0002C6E000E2D6E200E2E6E410E2F6E1CEC38
:1007C00089F028C588F529C589F52AC58AF52BC57C
:1007D0008BF505016007D8A06107774B782B6D5129
:1007E000775D7851800A5C6E6E51800A5C58D8B093
:1007F00008D083BF27D7835104E14B0E825DD8A078
:1008000021D7000E786F4F0E776F000E7725D96EC7
:10081000060E7821DA6E000EDF6E000E5C6E060E9C
:100820005D6E82515C5E83515D5A77515C24016E2E
:1008300078515D20026E000E036E060E046E82C5B6
:1008400005F583C506F522EC90F08251775D826F45
:1008500083517859836F8151D8B402D0010E01D0F1
:10086000000E776F786B8151D8B40BD08207D8A077
:100870008307000E8225D96E060E8321DA6E81C5AC
:10088000DFF47751715F7851725B55C512F556C52B
:1008900013F5000E8225146E060E8321156E71C5A8
:1008A00016F572C517F511EC8FF012008EC5D9F44C
:1008B0008FC5DAF4DEC4F6F4DDC4F7F4000EF86E8A
:1008C0000800F550250AD8A486D18EC5D9F48FC565
:1008D000DAF4DE2A000EDD22000EBD6F000EBC6FC2
:1008E000BCC5C2F5BE69BF698EC5D9F48FC5DAF43F
:1008F000DEC4F6F4DDC4F7F4000EF86E0800F5501F
:100900002A0AD8A423D08EC5D9F48FC5DAF4DE2AFA
:10091000000EDD2290C5D9F491C5DAF4DFC492F55A
:10092000020EDE26DFC493F5000EDD2292C5D9F457
:1009300093C5DAF4DEC4BCF5DDC4BDF5BDAF36D079
:10094000C281BC6DBD1FD8B0BD2B30D08EC5D9F4CF
:100950008FC5DAF4DEC407F5DDC408F511EC8DF0BF
:1009600007C5BCF508C5BDF507D08EC5D9F48FC540
:10097000DAF4DE2A000EDD228EC5D9F48FC5DAF452
:10098000DEC4F6F4DDC4F7F4000EF86E0800F5C41A
:1009900092F5D00E05019225936F946BFF0E942370
:1009A000945104E10A0E935DD8A0DFD78EC5D9F427
:1009B0008FC5DAF4DEC4F6F4DDC4F7F4000EF86E89
:1009C0000800F5502E0AD8A466D0000EBF6F000EA6
:1009D000BE6F8EC5D9F48FC5DAF4DE2A000EDD2293
:1009E0008EC5D9F48FC5DAF4DEC4F6F4DDC4F7F4AD
:1009F000000EF86E0800F5502A0AD8A41CD08EC547
:100A0000D9F48FC5DAF4DE2A000EDD2290C5D9F4C0
:100A100091C5DAF4DFC492F5020EDE26DFC493F549
:100A2000000EDD2292C5D9F493C5DAF4DEC4BEF51A
:100A3000DDC4BFF530D08EC5D9F48FC5DAF4DEC47D
:100A400007F5DDC408F511EC8DF007C5BEF508C546
:100A5000BFF507D08EC5D9F48FC5DAF4DE2A000EB3
:100A6000DD228EC5D9F48FC5DAF4DEC4F6F4DDC418
:100A7000F7F4000EF86E0800F5C492F5D00E0501EB
:100A80009225936F946BFF0E9423945104E10A0E08
:100A9000935DD8A0DFD78EC5D9F48FC5DAF4DEC454
:100AA0009EF5DDC49FF59EC5F6F49FC5F7F4000ED4
:100AB000F86E0800F5C49DF508D09E4B9F2B17D00B
:100AC0006C0E01D0000E9D6F12D09D51926F936BF2
:100AD0009351000AD8A4F6D792514C0AD8B4EDD756
:100AE0002A0AD8B4EDD70A0AD8B4E7D7EBD79EC5FF
:100AF000F6F49FC5F7F4000EF86E0800F550660A8C
:100B0000D8B41AD060D090C5D9F491C5DAF4DFC456
:100B100092F5040EDE26DFC493F5000EDD2292C5A9
:100B2000D9F493C5DAF4DEC495F5DEC496F5DEC4D7
:100B300097F5DEC498F50ED09D51926F936B93514B
:100B4000000AD8A407D092514C0AD8B4DCD7200AA6
:100B5000D8B4D9D7010E9E25926F000E9F21936FB6
:100B60008EC5D9F48FC5DAF492C5DEF493C5DDF4F1
:100B700018D08CC555F58DC556F595C557F596C554
:100B800058F597C559F598C55AF59EC5F6F49FC511
:100B9000F7F4000EF86E0800F5C45BF500EC80F089
:100BA00012009EC5F6F49FC5F7F4000EF86E08001B
:100BB000F550926F936B9351000AD8A404D09251D0
:100BC000660AD8B4D6D78EC5D9F48FC5DAF4DE2A32
:100BD000000EDD2212008EC5D9F48FC5DAF4DEC412
:100BE000F6F4DDC4F7F4000EF86E0800F550026E5E
:100BF000036A8CC504F58DC505F551EC8FF0E3D77C
:100C00001250800B1B6E12501224216E11BE2180D7
:100C10002150D8B40DD02128D8A408D0000E0F6ED2
:100C2000000E106E000E116E000E126E118E08D0A6
:100C3000000E0F6E000E106E000E116E000E126E82
:100C40001650800B1B1A165016241C6E15BE1C80E5
:100C50001C50D8B40DD01C28D8A408D0000E136E98
:100C6000000E146E000E156E000E166E158E08D056
:100C7000000E136E000E146E000E156E000E166E32
:100C80001C50D8B403D02150D8A409D0000E0F6E48
:100C9000000E106E000E116E000E126E1200155036
:100CA0000F02F3C426F5F4C427F526501D6E1E6A04
:100CB0001F6A206A2750226E236A246A256A14500C
:100CC0001002F3C426F5F4C427F526501D26000EA5
:100CD0001E221F22202227502226000E23222422F9
:100CE000252213501102F3C426F5F4C427F526502B
:100CF0001D26000E1E221F22202227502226000E13
:100D00002322242225221FC520F51EC51FF51DC53F
:100D10001EF51D6A13501002F3C426F5F4C427F51E
:100D200026501D2627501E22000E1F22000E2022B4
:100D300014500F02F3C426F5F4C427F526501D26DF
:100D400027501E22000E1F22000E20221FC520F554
:100D50001EC51FF51DC51EF51D6A13500F02F3C4F5
:100D600026F5F4C427F526501D2627501E22000E16
:100D70001F22000E202215501002F3C426F5F4C4E1
:100D800027F52650222627502322000E2422000E6B
:100D9000252214501102F3C426F5F4C427F5265079
:100DA000222627502322000E2422000E2522155031
:100DB0001102F3C426F5F4C427F52650176E275008
:100DC000186E196A1A6A19C51AF518C519F517C5E2
:100DD00018F5176A1750222618502322195024227A
:100DE0001A50252220502226000E232224222522BA
:100DF0001FC520F51EC51FF51DC51EF51D6A1C501B
:100E000021C517F5186A1726000E1822820E17241E
:100E1000266EFF0E1820276E0FD0D890223623366C
:100E20002436253620BE2280D8901D361E361F3629
:100E300020362606D8A0270624AEEFD7000E1C6E5B
:100E400020AE17D0FF0E1D14176EFF0E1E14186E65
:100E5000FF0E1F14196E7F0E20141A6E17501810F3
:100E600019101A10D8B403D0010E1C6E02D022B093
:100E7000FBD71C50D8B41FD0010E2226000E23220F
:100E80002422252225A017D022C517F523C518F541
:100E900024C519F525C51AF51A341A321932183233
:100EA000173217C522F518C523F519C524F51AC53B
:100EB00025F5264A272A27BE0DD0275003E12628EC
:100EC000D8A008D0000E226E000E236E800E246E75
:100ED0007F0E20D027BE05D027500EE12604D8B0C3
:100EE0000BD0000E226E000E236E000E246E000E3C
:100EF000256E000E1B6E0FD026C521F5FF0E2216A3
:100F0000FF0E23167F0E2416000E251621B0248E08
:100F1000D8902130256E1B50251222C50FF523C510
:100F200010F524C511F525C512F512000450800BEB
:100F30000D6E045004240F6E03BE0F800F50D8B402
:100F40000DD00F28D8A408D0000E016E000E026E3E
:100F5000000E036E000E046E038E06D0000E016EAE
:100F6000000E026E000E036E000E046E0850800B21
:100F70000E6E0D500E18D8A40D8C085008240E6E5D
:100F800007BE0E800E50D8B40DD00E28D8A408D0BD
:100F9000000E056E000E066E000E076E000E086E47
:100FA000078E06D0000E056E000E066E000E076E50
:100FB000000E086E0F500E5CD8B022D00DAC02D0DF
:100FC000800E0D1A0FC510F50EC50FF510C50EF5E4
:100FD00001C510F505C501F510C505F502C510F5EB
:100FE00006C502F510C506F503C510F507C503F5DE
:100FF00010C507F504C510F508C504F510C508F5BA
:10100000000E106E0F500EC509F50A6A095E000E3B
:101010000A5A0ABE2CD00A5004E11A0E095CD8A064
:1010200026D00150021003100410D8B402D0010ED3
:1010300001D0000E106E000E016E000E026E000E4A
:10104000036E000E046E0EC50FF515D010A005D06E
:10105000D89010300109106E02D0D890103201B033
:10106000108E043404320332023201320F2A0E5041
:101070000F5CD8A0EBD70DBC28D00F50D8A409D056
:10108000000E016E000E026E000E036E000E046E66
:101090001200055001260650022207500322085074
:1010A000042204A071D010A005D0D89010300109FE
:1010B000106E02D0D890103201B0108E0434043279
:1010C0000332023201320F2A5FD00550015C065014
:1010D0000258075003580450800A096E0850800ACD
:1010E0000958D8B025D00150055C096E0250065849
:1010F0000A6E035007580B6E045008580C6EFF0E12
:101100000924016EFF0E0A20026EFF0E0B20036EF3
:10111000FF0E0C20046E800E0D1A106C1050D8A417
:101120000FD0010E0126000E02220322042208D055
:101130000550015E0650025A0750035A0850045ADF
:101140000150021003100410D8A41CD01050D8A4D1
:1011500019D0000E016E000E026E000E036E000E1E
:10116000046E1200D890013602360336043610BEE3
:10117000018010A002D0D88001D0D89010360F5036
:10118000D8A40F0603AEEED7000E0E6E10AE0BD035
:1011900010C509F57F0E0916D8B403D0010E0E6EE6
:1011A00002D001B0FBD70E50D8B420D0010E0126DA
:1011B000000E02220322042204A018D001C509F562
:1011C00002C50AF503C50BF504C50CF50C340C3249
:1011D0000B320A32093209C501F50AC502F50BC501
:1011E00003F50CC504F50F28D8A40F2A0F28D8B48E
:1011F00003D00F50D8A40DD0000E016E000E026E69
:10120000000E036E000E046E0F50D8A402D0000E24
:101210000D6E0FA002D0038E01D0039ED8900F3028
:10122000046E0DBE048E01C501F502C502F503C5AD
:1012300003F504C504F512002B50800B386E2B50BB
:101240002B243F6E2ABE3F803F50D8B40DD03F289C
:10125000D8A408D0000E286E000E296E000E2A6E4B
:10126000000E2B6E2A8E06D0000E286E000E296E00
:10127000000E2A6E000E2B6E2F50800B381A2F5046
:101280002F24406E2EBE40804050D8B40DD0402850
:10129000D8A408D0000E2C6E000E2D6E000E2E6EFF
:1012A000000E2F6E2E8E06D0000E2C6E000E2D6EB0
:1012B000000E2E6E000E2F6E2C502D102E102F10A3
:1012C000D8A417D0000E286E000E296E000E2A6ECC
:1012D000000E2B6E800E2A127F0E2B1238502B120E
:1012E00028C528F529C529F52AC52AF52BC52BF5CA
:1012F00012003F50D8A409D0000E286E000E296EAF
:10130000000E2A6E000E2B6E120040503FC530F5C5
:10131000316A305E000E315A7F0E3024396E000E75
:1013200031203A6E28C534F529C535F52AC536F57C
:101330002BC537F5000E286E000E296E000E2A6EA2
:10134000000E2B6E000E3B6E000E3C6E000E3D6ECE
:10135000000E3E6E000E406E28D04050D8B411D022
:10136000D8903436353636363736D8902836293642
:101370002A362B363EBE2880D8903B363C363D364A
:101380003E362C50345C2D5035582E5036582F5048
:101390003758D8A009D03E8C2C50345E2D50355A89
:1013A0002E50365A2F50375A402A190E4064D5D73E
:1013B0003450351036103710D8B411D03B800FD0D0
:1013C000D890283629362A362B363EBE2880D8902B
:1013D0003B363C363D363E363906D8A03A062AAE74
:1013E000EFD7000E406E3EAE17D0FF0E3B14306EAE
:1013F000FF0E3C14316EFF0E3D14326E7F0E3E1414
:10140000336E3050311032103310D8B403D0010E87
:10141000406E02D028B0FBD74050D8B41FD0010E88
:101420002826000E29222A222B222BA017D028C5DD
:1014300030F529C531F52AC532F52BC533F53334DE
:10144000333232323132303230C528F531C529F5E8
:1014500032C52AF533C52BF5394A3A2A3ABE10D09F
:101460003A5003E13928D8A00BD0000E3A6E396803
:10147000000E286E000E296E000E2A6E000E2B6ED6
:101480003ABE05D03A5011E13904D8B00ED0000E62
:101490003A6E000E396E000E286E000E296E000E98
:1014A0002A6E000E2B6E000E386E39C53FF53FA038
:1014B00002D02A8E01D02A9ED8903F302B6E0ED7B4
:1014C000080E0001B16F04012093C292CA922091CC
:1014D000C290CA90000E186F000EC16E400EC96E09
:1014E0002095C294CA94000E086F000EBF6E000EC5
:1014F000C76E000E106F000EC06E000EC86E3F0E5D
:101500000201046F04010097C696000E436F000E9F
:10151000446F030E456F000E476F4691468B468F12
:101520000095BE84C6940099BE88C698010E02013B
:10153000D56FA00ED46FD189D18B0401009FC68EC8
:10154000070E0201766F0401009DBE8CC69C260E1C
:101550000201076FD28F000E036F000E0501B36FFB
:10156000000EB26FB2C5C0F5B3C5C1F5C1C5C1F4B7
:10157000C0C5BFF4BE94E10EB225F66EDF0EB321F6
:10158000F76EF86A000EF8220800F5C4C0F4BE84B5
:10159000B24BB32B200EB35DD8A0E4D7000E0401EC
:1015A000186F1969C96820952185CA84000E086FD3
:1015B0000969C768000E106F1169C8680091018140
:1015C000C68000930183C682009B018BC68A189D4A
:1015D000198DC98C189FC18EC99E000E136E240EE2
:1015E000146EF40E156E410E166E4351016E445189
:1015F000026E4551036E046A000E71EC8CF001C559
:101600000FF502C510F503C511F504C512F500EC80
:1016100086F00FC528F510C529F511C52AF512C5A4
:101620002BF5000E2C6E240E2D6E740E2E6E490EB0
:101630002F6E1CEC89F028C5AEF529C5AFF52AC57B
:10164000B0F52BC5B1F5E10E0501A66FFF0EA76F32
:10165000AEC5A8F5AFC5A9F5B0C5AAF5B1C5ABF53E
:10166000C3EC90F0010E0201616F000E626F1E0E5E
:10167000636F050E656F010E056F020E036F030E9B
:10168000206F000E0001D56F000ED86F020ED96FCB
:10169000040EDA6F7F0EDB6F010EDC6F080EDD6F5C
:1016A000100EDE6F400EDF6F800ED76F820ED66F8A
:1016B000010ED56F000ED86F020ED96F040EDA6FCF
:1016C0007F0EDB6F010EDC6F080EDD6F200EDE6F0C
:1016D000400EDF6F800ED76F820ED66F020ED56F71
:1016E000010ED86F7F0ED96F7F0EDA6F7F0EDB6F22
:1016F000010EDC6F000EDD6F000EDE6F000EDF6F7F
:10170000820ED76F8C0ED66F000ED46F550E04016B
:10171000596FAA0E596F5991080E5D6F000E5E6FDA
:10172000000E5F6F550E596FAA0E596F5981B59A09
:10173000A58AD68EC280C282FFD7B4C551F5B5C581
:1017400052F5B6C553F5B7C554F541C551F542C577
:1017500052F543C553F544C554F5810E456EFF0E51
:10176000466E51C547F552C548F553C549F554C5B0
:101770004AF5180E05D0D8904A32493248324732DD
:10178000E82EF9D7475045244F6E000E4620506E84
:1017900050BE0FD0505004E1170E4F5CD8A009D0B6
:1017A00041C541F542C542F543C543F544C544F53D
:1017B000120050BE5BD04FC545F5FF0E466EFF0EC2
:1017C000476E7F0E486E000E496E456601D007D009
:1017D00049344932483247324632452EF6D746C55B
:1017E0004BF547C54CF548C54DF549C54EF54B5031
:1017F0005114456E4C505214466E4D505314476E62
:101800004E505414486E4550461047104810D8B4F6
:10181000C7D751C545F552C546F553C547F554C51B
:1018200048F5200E05D0D89048324732463245322E
:10183000E82EF9D74550D8B408D04B5051264C501B
:1018400052224D5053224E5054224B1C456E4C1C7C
:10185000466E4D1C476E4E1C486E45505116465004
:101860005216475053164850541632D051C545F5BC
:1018700052C546F553C547F554C548F5200E05D069
:10188000D8904832473246324532E82EF9D745667D
:1018900008D0000E516E000E526E000E536E000EF8
:1018A00016D0D8905134456E5234466E5334476E3C
:1018B0005434486E4550461047104810D8B408D0EC
:1018C000000E516E000E526E800E536EBF0E546E9F
:1018D00051C541F552C542F553C543F554C544F5CC
:1018E0001200096E0950D8A404AE1AD001C505F53E
:1018F00002C506F503C507F504C508F5051E061E55
:10190000071E081E052A000E06220722082205C50A
:101910000BF506C50CF507C50DF508C50EF508D085
:1019200001C50BF502C50CF503C50DF504C50EF593
:101930000150021003100410D8A409D0000E016E4B
:10194000000E026E000E036E000E046E1200960E64
:101950000A6E06D00A2AD8900E320D320C320B32A3
:10196000000E0B14056E000E0C14066E000E0D1406
:10197000076EFE0E0E14086E0550061007100810B4
:10198000D8B40DD0E7D70A2A010E0B26000E0C2280
:101990000D220E22D8900E320D320C320B32000E78
:1019A0000B14056E000E0C14066E000E0D14076E5F
:1019B000FF0E0E14086E0550061007100810D8B45C
:1019C00007D0E1D70A06D8900B360C360D360E3606
:1019D0000DBE03D0020E0A60F5D70AA00D9ED89066
:1019E0000A320AC505F5066A076A086A05C508F5D8
:1019F000076A066A056A05500B1206500C1207505A
:101A00000D1208500E120950D8A404AE01D00E8E4B
:101A10000BC501F50CC502F50DC503F50EC504F5A2
:101A20001200000E0F6E000E0E6E000E0D6E000EF8
:101A30000C6E02D0074A082A07C5F6F408C5F7F469
:101A4000000EF86E0800F550200AD8B4F3D707C589
:101A5000F6F408C5F7F4000EF86E0800F5C409F5B1
:101A6000F70E09240A6E0B6AFF0E0B220B500CE1D5
:101A7000050E0A5CD8B008D0DDD7000E0D6E010E41
:101A80000C6E074A082A32D007C5F6F408C5F7F4E9
:101A9000000EF86E0800F550096E0A6A0A50000A36
:101AA000D8A424D009502B0AD8B4EBD7060AD8B44E
:101AB000E4D71CD00EC501F50FC502F5000E046E6B
:101AC0000A0E036ED6EC90F007C5F6F408C5F7F4DD
:101AD000000EF86E0800F550015E000E025A300E3E
:101AE00001240E6E000E02200F6ECBD707C5F6F450
:101AF00008C5F7F4000EF86E0800F5C409F5D00E1D
:101B000009240A6E0B6AFF0E0B220B5004E10A0E29
:101B10000A5CD8A0CFD70C500D10D8A40DD00EC59C
:101B200009F50FC50AF5091E0A1E094A0A2A09C540
:101B300007F50AC508F512000EC507F50FC508F52B
:101B40001200000E2814306E000E2914316E800E23
:101B50002A14326E7F0E2B14336E30503110321037
:101B60003310D8A408D0000E286E000E296E000E87
:101B70002A6E000E2B6E000E2C14306E000E2D14EB
:101B8000316E800E2E14326E7F0E2F14336E305055
:101B9000311032103310D8A408D0000E2C6E000E75
:101BA0002D6E000E2E6E000E2F6E2BAE09D0286CFF
:101BB000291ED8B0292A2A1ED8B02A2A800E2B56D0
:101BC0002FAE09D02C6C2D1ED8B02D2A2E1ED8B0C9
:101BD0002E2A800E2F56000E281A000E291A000EEB
:101BE0002A1A800E2B1A000E2C1A000E2D1A000E27
:101BF0002E1A800E2F1A2C50285C2D5029582E504A
:101C00002A582F502B58D8B002D0D8901200D88024
:101C10001200B8C50BF5B9C50CF5BAC50DF5BBC5B5
:101C20000EF501C50BF502C50CF503C50DF504C590
:101C30000EF50BC505F50CC506F50DC507F50EC56A
:101C400008F5180E05D0D890083207320632053252
:101C5000E82EF9D70550096E0A6A09500A10D8A46F
:101C600019D0D8900B34056E0C34066E0D34076E07
:101C70000E34086E0550061007100810D8A405D0C1
:101C8000000E026E020E016E1200000E026E030EB6
:101C9000016E120009280A10D8A41CD00BC505F546
:101CA0000CC506F50DC507F50EC508F5090ED8904B
:101CB0000536063607360836E82EF9D705500610E1
:101CC00007100810D8A402D0010E01D0000E016E3A
:101CD000026A1200000E026E040E016E120003343E
:101CE00004340A6E0A50D8A409D0000E016E000E0A
:101CF000026E000E036E000E046E120001C505F5A3
:101D000002C506F503C507F504C508F5200E05D084
:101D1000D8900832073206320532E82EF9D705503E
:101D2000096E038EFF0E0116FF0E0216FF0E03163C
:101D3000000E0416960E0A5E0AAE0DD00A50800AF6
:101D4000970FD8A0D2D7D890043203320232013292
:101D50000A3EF9D70DD01F0E0A6407D0C6D7D89017
:101D600001360236033604360A060A50D8A4F7D7DD
:101D70000950D8B408D0041E031E021E016C000EC8
:101D800002220322042201C501F502C502F503C5A2
:101D900003F504C504F51200000E0114096E000ECF
:101DA00002140A6E800E03140B6E7F0E04140C6E68
:101DB00009500A100B100C10D8A408D0000E016EA8
:101DC000000E026E000E036E000E046E000E05146F
:101DD000096E000E06140A6E800E07140B6E7F0E3D
:101DE00008140C6E09500A100B100C10D8A408D05F
:101DF000000E056E000E066E000E076E000E086ED9
:101E0000055001180AE10650021807E107500318AF
:101E100004E108500418D8B402D0D8901200D88039
:101E20001200C2A10AD014C50BF515C50CF512C5D8
:101E30000DF513C50EF561EC90F017BE05D016C573
:101E40001BF517C51CF504D0000E1C6E000E1B6E92
:101E5000000E1A6E000E196E0CD0000E036E200ECE
:101E6000026E12C504F513C505F551EC8FF0194A41
:101E70001A2A1B50195C1A50800A186E1C50800ACE
:101E80001858D8A0EAD70501C2B1120014C50BF545
:101E900015C50CF512C50DF513C50EF561EC90F0E6
:101EA000120004500510D8B404D004500510D8A472
:101EB00004D00250FBEC90F0120020EE09F0045028
:101EC000D9260550DA22DE50DE10D8B416D020EE26
:101ED00009F00450D9260550DA2210EE03F0045020
:101EE000E1260550E222DE50E65CE650800A0A6EEA
:101EF000DE50800A0A58D8B0120020EE03F00450D9
:101F0000D9260550DA22DE2A000EDD22120004BE98
:101F100007D00450031002101DE10104D8B01AD0FC
:101F200001C505F502C506F503C507F504C508F5A5
:101F3000051E061E071E081E052A000E0622072281
:101F4000082205C501F506C502F507C503F508C554
:101F500004F5120001C501F502C502F503C503F53C
:061F600004C504F51200A7
:101F6800CFC4C0F5CEAA0AD00501C051D8B4D0C498
:101F7800C9F20001D785D795B59A1100000EC86E31
:101F88000501C005D8A403D0B7C4C0F407D0C05118
:101F9800D8A403D0C7C2C0F401D0C0680001D78557
:101FA800D795D1AEFED7C868B59A1100A2C55EF51F
:101FB800A3C55FF50FD0A0C58CF5A1C58DF55E0E44
:101FC80005018E6F050E8F6FA4C590F5A5C591F517
:101FD80056EC84F05EC5F6F45FC5F7F4000EF86EB3
:101FE8000800F5500009D8A4E6D7000E0501A16F36
:101FF800000EA06F1200000E2C1A000E2D1A000EF3
:102008002E1A800E2F1A28C501F529C502F52AC5F2
:1020180003F52BC504F52CC505F52DC506F52EC50C
:1020280007F52FC508F596EC87F001C528F502C518
:1020380029F503C52AF504C52BF5120003C509F5D2
:1020480004C50AF501C507F502C508F510D009C58C
:10205800D9F40AC5DAF4DF500B6E094A0A2A07C513
:10206800D9F408C5DAF40BC5DFF4074A082A0506CF
:10207800D8A006060528EBE10628D8B41200E7D751
:1020880003C505F504C506F501C507F502C508F53C
:1020980005C5F6F406C5F7F4054A062A000EF86EDB
:1020A80007C5D9F408C5DAF4074A082A0800F5C4B0
:1020B800DFF4DF50D8B41200EBD7000E116E000E1B
:1020C800106E0BD00FC502F5036A0DC504F50EC5D9
:1020D80005F551EC8FF0104A112A10500B24D96ED7
:1020E80011500C20DA6EDF500F6E0F50D8B412006A
:1020F800E9D7010E056E200E01180210D8B40ED0D3
:10210800F70E0124036EFF0E0220046E045004E152
:10211800050E035CD8A002D0000E056E05C501F5BA
:10212800026A12000150021003100410D8B408D03B
:10213800000E011A000E021A000E031A800E041A6D
:1021480001C501F502C502F503C503F504C504F58B
:10215800120001EE00F2500EEE6AE806FDE101EE13
:10216800B4F10F0EEE6AE806FDE10401080E5D6F9A
:10217800000E5E6F000E5F6F000160EF8AF0A80E20
:10218800AC6F050EAD6F000EA06F000EA16FA6C557
:10219800A2F5A7C5A3F5AC0EA46F050EA56FDAECE2
:1021A8008FF0120001500302F3C405F5F4C406F5DC
:1021B80001500402F350062602500302F35006268B
:1021C80005C501F506C502F51200D00E0124036EFF
:1021D800FF0E0220046E045006E10A0E035CD8B01C
:1021E80002D0010E01D0000E016E026A1200016ECB
:0A21F800B7A2FED701C5C9F212001C
:022204001100C7
:020000040020DA
:10000000FF0FFF0FFF0FFF0FFF0FFF0FFF0FFF0F80
:10001000FF0FFF0FFF0FFF0FFF0FFF0FFF0FFF0F70
:10002000FF0FFF0FFF0FFF0FFF0FFF0FFF0FFF0F60
:10003000FF0FFF0FFF0FFF0FFF0FFF0FFF0FFF0F50
:020000040030CA
:100000008C2FFFF79FFFFFFFFFFFFFFFFFFFFFFFAB
:10001000FFFFFFFFFFFFFFFFFFFFFFFFFFFFFFFFF0
:03002000FFFFFFE0
:00000001FF
