:0400000081EF00F09C
:100008000A7F0A7F0A7F0A7F40000A7F40000A7F32
:100018000A7F0A7F0A7F0A7F0A7F0A7F0A7F0A7F90
:100028000A7F4000400040000A7F0A7F0A7F0A7F5B
:100038000A7F0A7F0A7F0A7F0A7F0A7F0A7F0A7F70
:100048000A7F0A7F0A7F0A7F400040000A7F0A7FF2
:100058000A7F0A7F0A7F40000A7F0A7F0A7F0A7F99
:100068000A7F0A7F0A7F0A7F0A7F0A7F0A7F0A7F40
:100078000A7F0A7F0A7F0A7F40000A7F0A7F0A7F79
:100088000A7F0A7F0A7F0A7F0A7F0A7F0A7F0A7F20
:100098000A7F0A7F0A7F0A7F40000A7F40004000EB
:1000A8000A7F0A7F0A7F0A7F0A7F0A7F0A7F0A7F00
:1000B8000A7F0A7F0A7F0A7F0A7F0A7F0A7F0A7FF0
:1000C8000A7F0A7F0A7F0A7F0A7F0A7F0A7F0A7FE0
:1000D8000A7F0A7F0A7F0A7F0A7F0A7F0A7F0A7FD0
:1000E80040000A7F0A7F0A7F40004000400040002D
:1000F8000A7F0A7F0A7F0A7FFF0090EFEFF020EE69
:1001080002F00850D9260950DA22DEC408F5DDC409
:1001180009F51200086E7B0E086004D0600E0864B2
:1001280001D0089A0850120056C5C9F557C5CAF536
:10013800A7ECFBF0B7ECFFF01200000E086E000E03
:10014800096E210E0A6E000E0B6E1200380E0701A2
:100158001E6FEB0E1F6F010E206F12000A500B105E
:10016800D8A402D0C2841200C2941200FF00000E6C
:100178000601926F000E916F1200086EB7A2FED7AB
:1001880008C5C9F2120004012095C284CA9412005D
:10019800000E926F010E916F1200B7A0FED70201F8
:0A01A800C75112000701E2511200D6
:10E2FA0000C7F8B9070074F6BA070043F6BB07006F
:10E30A0090F5BC070084F6BD0701E0F6A707007D7B
:10E31A00F5A8070030F5A90700DBF4AA07006CF797
:10E32A00AB0700ECF5AC0700A3F5AD07001BF5AE93
:10E33A000700DAF5AF0702010000000800000040FC
:10E34A000000000002000000100000008000000031
:10E35A000004000000200000000001000000080086
:10E36A0000004000803F00204100C842007A44403B
:10E37A001C4650C34724744997184BBCBE4C6B6E5D
:10E38A004E03155079AD60F3497100803FCDCC3D05
:10E39A00D7233C12833AB7D138C62737388635C0D7
:10E3AA00D633CC2B32708930E7DB2EE53C1E42A2F5
:10E3BA000D01000000100000000001000000100024
:10E3CA000000000100000010000000000100000031
:10E3DA0010819FE0FC407E80FC000038009600100F
:10E3EA00000000E6FF020104F8000264FB000332A9
:10E3FA00FD0004AEFE0005A8FE0106FEF80007981F
:10E40A00FF000861F90009EDF9000A6BF9000B2B0E
:10E41A00FD000CCCFE000DC6FE010E5BFA000F9D3E
:10E42A00FF01106CFC02111CF80012C5F90013B0B0
:10E43A00FD0014F0FE0015EAFE011609F90017D2D4
:10E44A00FF01186EFF00190BFA001A75F9001BA9D3
:10E45A00FD001C0EFF001D08FF011E65FA001FD6F5
:10E46A00FF012000FB022134F8022250F700233575
:10E47A00FE00242CFF002526FF012614F90027CED2
:10E48A00FF012864FC002947FA022AEEF6002B2E27
:10E49A00FE002C4AFF002D44FF012E6FFA002FE2E6
:10E4AA00FF0130F7FA02314CF8023293F700335188
:10E4BA00FE0034B8FA0035AFFA01360AF70037DE43
:10E4CA00FF01385CFC003951FA023A86F7003B4AF0
:10E4DA00FE003C90FE003D8AFE013EF3F8003FDA62
:10E4EA00FF0040D0FC004101FD00424EFD00437F89
:10E4FA00FD0044D3FD004504FE004689F900479F0C
:10E50A00FC0048D7FC004908FD004A55FD004B862F
:10E51A00FD004CDAFD004D0BFE004E93F9004FA6AC
:10E52A00FC0050DEFC00510FFD00525CFD00538DD3
:10E53A00FD0054E1FD005512FE00569DF90057AD4D
:10E54A00FC0058E5FC005916FD005A63FD005B9477
:10E55A00FD005CE8FD005D19FE005EA7F9005FB4EE
:10E56A00FC0060ECFC00611DFD00626AFD00639B1B
:10E57A00FD0064EFFD006520FE0066B1F90067BB8F
:10E58A00FC0068F3FC006924FD006A71FD006BA2BF
:10E59A00FD006CF6FD006D27FE006EBBF9006FC230
:10E5AA00FC0070D9F90071E3F90072F7F900730100
:10E5BA00FA007415FA00753DFA0076C0FF0077CFAD
:10E5CA00F90078C9FC0079FAFC007A47FD007B78EB
:10E5DA00FD007CCCFD007DFDFD007E7FF9007F986B
:10E5EA00FC00807CFB008194FB0082B4FB0083CC9E
:10E5FA00FB0084F4FB00854CFC0086E8F800875C8D
:10E60A00FB008874FB00898CFB008AACFB008BC47E
:10E61A00FB008CECFB008D44FC008EDDF8008F546F
:10E62A00FB0090A2FE0091C0FE0092E4FE0093025D
:10E63A00FF009420FF00953EFF0096A6FA009784FB
:10E64A00FE00986CFB009984FB009AA4FB009BBC1B
:10E65A00FB009CE4FB009D3CFC009ED2F8009F4C12
:10E66A00FB00A0B4FE00A1D2FE00A2F6FE00A31495
:10E67A00FF00A432FF00A550FF00A6C1FA00A7962A
:10E68A00FE00A8BAFE00A9D8FE00AAFCFE00AB1A3A
:10E69A00FF00AC38FF00AD56FF00AECAFA00AF9CCF
:10E6AA00FE00B0BBFE00B1D9FE00B2FDFE00B31BF6
:10E6BA00FF00B439FF00B557FF00B6CBFA00B79D8B
:10E6CA00FE00B8A2FF00B9A7FF00BAACFF00BBB1B9
:10E6DA00FF00BCB6FF00BDBBFF00BE3CFB00BF9302
:10E6EA00FF00C058FE00C139FD02C258F802C3DC5F
:10E6FA00FA02C442F700C59CFB01C6F8F700C7FC42
:10E70A00FB00C868FF00C9EAFF02CA4BF900CB0048
:10E71A000002CCC7F702CD1FF901CEECF700CF1CDF
:10E72A00FC00D040FD00D1B7FD02D210F801D3FCA5
:10E73A00F602D418F700D5D4FB01D61FFA00D70485
:10E74A00FC00D8DEFE00D9EEFF02DA2AF901DB79F5
:10E75A00F702DCBAF700DD000001DEE0F700DF2493
:10E76A00FC00E043FE00E13CFE02E240F800E35612
:10E77A00F902E434F700E554FC01E629FA00E70C53
:10E78A00FC00E8BEFD00E944FB02EA28F800EBE5DC
:10E79A00FA02EC26F700ED000001EE33FA00EF2C46
:10E7AA00FC00F062FF00F1C5FD02F240F900F3F946
:10E7BA00FF02F4ADF700F5DCFB01F634FA00F714BA
:10E7CA00FC00F85CFF00F9EEFA02FA35F900FBFCEE
:10E7DA00FF02FCA0F700FD000001FED3FA00FF349F
:10E7EA00FCF0000000C3BB000000000000000000B5
:10E7FA00000000000000000000000000000000000F
:10E80A0000000000000000000000000000000000FE
:10E81A0000000000000000000000000000000000EE
:10E82A0000000000000000000000000000000000DE
:10E83A0000000000000000000000000000000000CE
:10E84A0000000000000000000000000000000000BE
:10E85A0000000000000000000000000000000000AE
:10E86A000000000000424F4F543A206572726F72E6
:10E87A0020626F6F74696E670D0A0043502F4D2036
:10E88A00626F6F742D6C6F6164657220666F72209F
:10E89A005A38302D53696D756C61746F720D0A00A8
:10E8AA002196007ED30123B7C2BE000101002100D8
:10E8BA0000AFD30A78D30B79D30C7DD30F7CD31056
:10E8CA00AFD30DDB0EB7CA0000C630D3013E0DD35D
:10E8DA00013E0AD3012180007EB7CAFE00D301237C
:10E8EA00C3F300F3760000000000000000000000FF
:10E8FA00000000000000000000000000000000000E
:10E90A0000000000000000000000000000000000FD
:10E91A0000000000000000000000000000000000ED
:10E92A0000000000000000000000000000000000DD
:10E93A0000000000000000000000000000000000CD
:10E94A000000000000000000000000D3AB00ED73DF
:10E95A009400319400F5C5D5E5DDE5FDE5D3ACFDC0
:10E96A00E1DDE1E1D1C1F1ED7B9400ED450000006C
:10E97A00000000000000000000000099F601D8B76E
:10E98A0001000094F6000EEF0100009DFA009801C4
:10E99A00000000D4F7023C8F010000F6FF023C8F12
:10E9AA0001000094FA04005C0100008EFF02F69850
:10E9BA000100007EFE0074010000008AFC02DCA750
:10E9CA0001000080FE02E03401010084FF010CF125
:10E9DA0001000091FC00728401000089FF00F4EC40
:10E9EA000100000000000000000000D3AD00ED733C
:10E9FA003600313600F5C5D5E5DDE5FDE5D3AEFDDA
:10EA0A00E1DDE1E1D1C1F1ED7B3600ED4D00000021
:10EA1A000000000000000000000000010000000AE1
:10EA2A0000000064000000E803000010270000A0B6
:10EA3A0086010040420F008096980000E1F505002B
:10EA4A00CA9A3B4449534B3A204F503D25303278BD
:10EA5A0020442F542F533D25642F2533642F25330B
:10EA6A0064202020202020202020202020414444EF
:10EA7A00523D25303278253032782028524541449B
:10EA8A002049474E4F524544290A0D002F557365B8
:10EA9A0072732F74616B656D7572612F776F726B0C
:10EAAA0073706163652F6769746875622F53757037
:10EABA0065724D455A38302F6469736B696F2F70D0
:10EACA00696331386634377134335F7370692E6322
:10EADA00004449534B3A204F503D25303278204468
:10EAEA002F542F533D25642F2533642F253364205B
:10EAFA00782533643D25356C6420414444523D25D4
:10EB0A0030327825303278202E2E2E2053543D254F
:10EB1A003032780A0D004449534B3A204F503D2574
:10EB2A0030327820442F542F533D25642F253364E7
:10EB3A002F25336420202020202020202020202060
:10EB4A00414444523D2530327825303278202849D4
:10EB5A00474E4F524544290A0D004449534B3A2027
:10EB6A004F503D2530327820442F542F533D256491
:10EB7A002F2533642F2533642020202020202020B5
:10EB8A0020202020414444523D253032782530321D
:10EB9A0078202E2E2E200A0D0053442043617264E1
:10EBAA003A20726561643531323A20435243206516
:10EBBA0072726F7220282530347820213D2025304A
:10EBCA0034782C2072657472793D2564290A0D0007
:10EBDA005741524E494E473A206E6F204750494F8F
:10EBEA0020657870616E64657220746F20636F6E41
:10EBFA0074726F6C206869676865722061646472F8
:10EC0A006573730A0D005741524E494E473A2074B4
:10EC1A006F6F206D616E792062616E6B7320726511
:10EC2A00717565737465642E2028726571756573D4
:10EC3A0074206973202564290A0D0074797065208F
:10EC4A002768656C702720746F2073656520746867
:10EC5A0065206C697374206F6620617661696C61E6
:10EC6A00626C6520636F6D6D616E64730A0D004995
:10EC7A006D6167652066696C652025732F4452496A
:10EC8A00564525632E44534B20697320617373697B
:10EC9A00676E656420746F206472697665202563E7
:10ECAA000A0D005741524E494E473A20756E6B6E17
:10ECBA006F776E20492F4F2077726974652025641B
:10ECCA002C202564202825303258482C2025303223
:10ECDA005848290A0D006469736B5F696F63746C25
:10ECEA003A20706472763D25642C20636D643D255C
:10ECFA00642C20627566663D3078256C783A2072FD
:10ED0A0065733D25640A0D00534420436172643AD9
:10ED1A002020726561643531323A20616464723D43
:10ED2A0025386C642C206F6666733D25642C20633D
:10ED3A006F756E743D25640A0D0053442043617259
:10ED4A00643A2077726974653531323A20616464B5
:10ED5A00723D25386C642C206F6666733D25642CE1
:10ED6A0020636F756E743D25640A0D005344204379
:10ED7A006172643A2077726974653531323A206675
:10ED8A0061696C656420746F2067657420746F6BA9
:10ED9A00656E2C2074696D656F75740A0D0044499F
:10EDAA00534B3A20207265616420442F542F533DFF
:10EDBA0025642F2533642F25336420782533643D59
:10EDCA0025356C643A204552524F520A0D0053447D
:10EDDA0020436172643A2077726974653531323A38
:10EDEA002074696D656F75742C20726573706F6E0F
:10EDFA00736520697320253032780A0D0053442048
:10EE0A00436172643A20434D4435382C2052333DD5
:10EE1A002530327820253032782025303278202566
:10EE2A0030327820253032780A0D0053442043616D
:10EE3A0072643A20434D44382C2052373D253032F3
:10EE4A0078202530327820253032782025303278E3
:10EE5A0020253032780A0D004449534B3A2020725B
:10EE6A0065616420442F542F533D25642F25336454
:10EE7A002F25336420782533643D25356C643A2088
:10EE8A004F4B0A0D006469736B5F696F63746C3A68
:10EE9A0020706472763D25642C20636D643D256480
:10EEAA003A204E6F742068616E646C65642E0A0D98
:10EEBA00006469736B5F726561643A2020706472E2
:10EECA00763D25642C20736563746F723D256C64EE
:10EEDA002C20636F756E743D25640A0D0064697396
:10EEEA006B5F77726974653A20706472763D256447
:10EEFA002C20736563746F723D256C642C20636FDC
:10EF0A00756E743D25640A0D005344204361726492
:10EF1A003A2043435320284361726420436170615D
:10EF2A006369747920537461747573292069732035
:10EF3A00300A0D00534420436172643A20777269A3
:10EF4A0074653531323A20435243206572726F72CA
:10EF5A00202872657472793D2564290A0D0053448C
:10EF6A0020436172643A204361726420706F77654E
:10EF7A0072207570207374617475732062697320CE
:10EF8A00697320300A0D0072656164204D42522077
:10EF9A00706172746974696F6E207461626C652045
:10EFAA00617420736563746F7220300A0D005741D3
:10EFBA00524E494E473A20756E6B6E6F776E2049F6
:10EFCA002F4F20726561642025642028253032582D
:10EFDA0048290A0D00534420436172643A20207282
:10EFEA006561643531323A20736563746F723D2509
:10EFFA006C643A204552524F520A0D0025733A204A
:10F00A004552524F523A206D6F646520256420693B
:10F01A0073206E6F7420737570706F727465640AF2
:10F02A000D00534420436172643A205344484320FC
:10F03A006F7220534458432063617264206465747C
:10F04A0065637465640A0D00534420436172643A2F
:10F05A0020696E697469616C697A65202E2E2E208A
:10F06A007375636365656465640A0D0053442043E0
:10F07A006172643A20756E657870656374656420A0
:10F08A00726573706F6E736520253032780A0D00D1
:10F09A00534420436172643A2020726561643531B9
:10F0AA00323A20736563746F723D256C643A204F5F
:10F0BA004B0A0D0053757065724D455A38302B5303
:10F0CA0050492077697468204750494F2065787005
:10F0DA00616E6465720A0D00534420436172643A9A
:10F0EA002041434D44343120726573706F6E7365ED
:10F0FA0020697320253032780A0D00534420436179
:10F10A0072643A2077726974653531323A20746FC5
:10F11A006B656E20697320253032780A0D004552DE
:10F12A00524F523A2062616E6B2025642069732027
:10F13A006E6F7420617661696C61626C652E0A0D6E
:10F14A0000534420436172643A20434D44353920C8
:10F15A00726573706F6E736520697320253032781B
:10F16A000A0D004D656D6F727920303030303030C5
:10F17A00202D202530366C5848202564204B42200B
:10F18A004F4B0D0A00706172746974696F6E207357
:10F19A00746172747320617420736563746F722072
:10F1AA00256C640A0D005573652052413320657839
:10F1BA007465726E616C20636C6F636B20666F722C
:10F1CA00205A38300A0D00557365204E434F2025CA
:10F1DA002E3266204D487A20666F72205A383020C7
:10F1EA00636C6F636B0A0D00665F777269746528DA
:10F1FA00293A204552524F52207265733D25642C9C
:10F20A00206E3D25640A0D00665F726561642829D7
:10F21A003A204552524F52207265733D25642C2084
:10F22A006E3D25640A0D006661696C656420746F21
:10F23A0020777269746520736563746F7220256C18
:10F24A00640A0D006661696C656420746F207265DA
:10F25A00616420736563746F7220256C640A0D0003
:10F26A000A0D534420436172643A20696E697469D5
:10F27A00616C697A65202E2E2E0A0D00436C656139
:10F28A007220627265616B706F696E74206174209E
:10F29A002530346C580A0D00534420436172643A95
:10F2AA002041434D4434312C2052313D25303278AF
:10F2BA000A0D000A0D526573657420627920494F60
:10F2CA0020706F72742025303258480A0D0046614A
:10F2DA00696C656420746F206F70656E20534420DA
:10F2EA00436172642E2E0A0D004661696C656420C2
:10F2FA00746F206D6F756E7420534420436172647D
:10F30A002E0A0D006661696C656420746F2072654F
:10F31A00616420736563746F7220300A0D000A0DF0
:10F32A0048414C5420627920494F20706F727420F2
:10F33A0025303258480A0D0053657420627265619F
:10F34A006B706F696E74206174202530346C580AB2
:10F35A000D006469736B5F696E697469616C697ABF
:10F36A0065282564292E2E2E0A0D00534420436158
:10F37A0072643A206E6F74207375706F7072746560
:10F38A00640A0D00534420436172643A20434D4499
:10F39A00302C2052313D253032780A0D00496E76E4
:10F3AA00616C696420617267756D656E743A2027B5
:10F3BA002573270A0D005354415455533A202563A7
:10F3CA00256325632563256325632563256300205B
:10F3DA002020202020202020202020202020202023
:10F3EA002020202020200D007761697420666F722A
:10F3FA002070726F6772616D6D6572202E2E2E0DF0
:10F40A000025732535337320434845434B53554DE7
:10F41A003A20253032780A0D00556E6B6E6F776E82
:10F42A00207661726961626C6520272573270A0D4F
:10F43A0000427265616B706F696E74206973206E29
:10F44A006F74207365740A0D004D656D6F727920B3
:10F45A00303030303030202D202530366C58480D71
:10F46A0000706879736963616C2064726976657289
:10F47A0020213D20300A0D00416D626967756F7564
:10F48A007320636F6D6D616E642025730A0D0066CB
:10F49A005F6C7365656B28293A204552524F52209A
:10F4AA0025640A0D00427265616B706F696E742083
:10F4BA006973202530346C580A0D00556E6B6E6FD7
:10F4CA00776E20636F6D6D616E643A2025730A0D45
:10F4DA000064656275675F6661746469736B5F7601
:10F4EA006572626F7365006E6F2046415433322035
:10F4FA00706172746974696F6E0A0D00665F737960
:10F50A006E6328293A204552524F522025640A0D2B
:10F51A000064656275675F7364636172645F7665D0
:10F52A0072626F73650064656275675F66617464B1
:10F53A0069736B5F7772697465006E6F204D425212
:10F54A00207369676E61747572650A0D00534420F1
:10F55A00436172643A2074696D656F75740A0D00AF
:10F56A00696E76616C6964206472697665202564C7
:10F57A000A0D0064656275675F6661746469736B1E
:10F58A005F726561640064656275675F6469736B65
:10F59A005F766572626F73650064656275675F7333
:10F5AA0064636172645F7772697465006E6F207656
:10F5BA00616C696420766F6C756D650A0D00534441
:10F5CA0020436172643A2072656164792E0A0D00E3
:10F5DA007A38305F636C6F636B5F4E434F31494ECD
:10F5EA00430064656275675F7364636172645F7226
:10F5FA006561640025732069732073656C656374A3
:10F60A0065642E0A0D0030313233343536373839D5
:10F61A004142434445460030313233343536373877
:10F62A0039616263646566004D4D553A2062616EC8
:10F63A006B202530325820200064656275675F644C
:10F64A0069736B5F77726974650025733D256C6415
:10F65A002028256C5868290A0D00427265616B20C2
:10F66A00617420253034580A0D0064656275675F3D
:10F67A006469736B5F726561640064656275675F74
:10F68A006469736B5F6D61736B00636C6561726251
:10F69A007265616B706F696E74004E6F20626F6F76
:10F6AA0074206469736B2E0A0D002A2B2C3A3B3C9A
:10F6BA003D3E5B5D7C223F7F0025732F44524956B5
:10F6CA004525632E44534B0025733D256420282588
:10F6DA005868290A0D0064656275675F666174641B
:10F6EA0069736B004C4420484C2C28253034584808
:10F6FA0029004F555420282530325848292C4100DA
:10F70A004C442028484C292C253032584800434183
:10F71A004C4C204E432C25303458480043414C4C25
:10F72A002050452C25303458480043414C4C205039
:10F73A004F2C25303458480043414C4C204E5A2C0B
:10F74A002530345848004C4420282530345848295C
:10F75A002C484C004E6F20534420436172643F0A88
:10F76A000D0064656275675F736463617264004962
:10F77A004E20412C28253032584829004C4420413B
:10F78A002C28253034584829004C44202825303468
:10F79A005848292C410043414C4C204D2C253034EB
:10F7AA0058480043414C4C20502C253034584800CE
:10F7BA0043414C4C20582C25303458480043414C86
:10F7CA004C205A2C2530345848006469736173738D
:10F7DA00656D626C650053424320412C25303258D6
:10F7EA00480041444320412C2530325848004144C6
:10F7FA004420412C2530325848004C442042432CA6
:10F80A002530345848004A50204E432C253034586D
:10F81A0048004C442044452C2530345848004A506E
:10F82A002050452C2530345848004C4420484C2C54
:10F83A002530345848004A5020504F2C253034582F
:10F84A0048004C442053502C2530345848004A5024
:10F85A00204E5A2C25303458480070726F677261F6
:10F86A006D3A0A0D0049593A20253034580A0D00DC
:10F87A0042433A202530345820200050433A20256C
:10F88A0030345820200044453A202530345820206E
:10F89A000041463A2025303458202000484C3A206E
:10F8AA002530345820200053503A2025303458202F
:10F8BA00200049583A2025303458202000646562D7
:10F8CA0075675F6469736B0053424320412C284873
:10F8DA004C290041444320412C28484C29004144EA
:10F8EA004420412C28484C29004C4420412C2530E6
:10F8FA00325848004C4420422C2530325848004C9B
:10F90A004420442C2530325848004C4420482C25A9
:10F91A00303258480043414C4C2025303458480076
:10F92A004A5020432C2530345848004A50204D2C48
:10F93A002530345848004A5020502C253034584835
:10F94A00004A50205A2C253034584800455820285F
:10F95A005350292C484C0045582041462C414627F3
:10F96A00004C4420412C28424329004C4420412C7D
:10F97A0028444529004C4420412C28484C29004C55
:10F98A004420422C28484C29004C4420432C284827
:10F99A004C29004C4420442C28484C29004C442033
:10F9AA00452C28484C29004C4420482C28484C29EE
:10F9BA00004C44204C2C28484C29004C4420284414
:10F9CA0045292C41004C442028484C292C41004C04
:10F9DA00442028484C292C42004C442028484C29D1
:10F9EA002C430041444420484C2C4243004C4420C0
:10F9FA0028484C292C44004C442028484C292C45A2
:10FA0A000041444420484C2C4445004C442028489A
:10FA1A004C292C4800535542202530325848004181
:10FA2A004E4420253032584800584F522025303253
:10FA3A005848004C442028484C292C4C0041444446
:10FA4A0020484C2C484C0041444420484C2C5350EC
:10FA5A00004C4420432C25303258004C4420452C7D
:10FA6A0025303258004C44204C2C25303258002581
:10FA7A00732530366C783A004641543332202020C0
:10FA8A0000737461636B3A0A0D006469736B726583
:10FA9A00616400636F6E74696E7565005355422028
:10FAAA0028484C29004445432028484C2900494EFF
:10FABA00432028484C2900414E442028484C29001C
:10FACA00584F522028484C2900435020253032589C
:10FADA0048004A50202530345848004558204445AB
:10FAEA002C484C004C442053502C484C004A52207D
:10FAFA004E432C2564004A52204E5A2C2564002578
:10FB0A00643A2025730A0D0053656C6563743A20C4
:10FB1A000043504D4449534B5300257325303478E4
:10FB2A003A004572726F720A0D000D257325730A29
:10FB3A000D0043502028484C29004A502028484CA0
:10FB4A00290053424320412C410041444320412C87
:10FB5A00410041444420412C41004C442042432C62
:10FB6A00410053424320412C420041444320412C4E
:10FB7A00420041444420412C420053424320412C3C
:10FB8A00430041444320412C430041444420412C3A
:10FB9A004300505553482042430053424320412CCE
:10FBAA00440041444320412C440041444420412C18
:10FBBA00440053424320412C450041444320412CF8
:10FBCA00450041444420412C4500505553482044A7
:10FBDA004500505553482041460053424320412C8A
:10FBEA00480041444320412C480041444420412CD0
:10FBFA004800525354203030480052535420313078
:10FC0A004800525354203230480052535420333063
:10FC1A004800525354203038480052535420313847
:10FC2A004800525354203238480052535420333833
:10FC3A00480053424320412C4C0041444320412C6C
:10FC4A004C0041444420412C4C0050555348204814
:10FC5A004C004A5220432C2564004A52205A2C2533
:10FC6A006400444A4E5A2C25640043504D4449537B
:10FC7A007E00286E756C6C29003C25643E0A0D00D6
:10FC8A0073647265616400737461747573004C44C3
:10FC9A0020412C41004C4420422C41004C4420433A
:10FCAA002C41004C4420442C41004C4420452C411A
:10FCBA00004C4420482C41004C44204C2C41004C20
:10FCCA004420412C42004C4420422C42004C442007
:10FCDA00432C42004C4420442C42004C4420452CE6
:10FCEA0042004C4420482C42004C44204C2C4200F8
:10FCFA004C4420412C43004C4420422C43004C44A9
:10FD0A0020432C43004C4420442C43004C442045BF
:10FD1A002C43004C4420482C43004C44204C2C4398
:10FD2A000044454320424300494E43204243005089
:10FD3A004F5020424300524554204E43004C442029
:10FD4A00412C44004C4420422C44004C4420432C77
:10FD5A0044004C4420442C44004C4420452C44008C
:10FD6A004C4420482C44004C44204C2C44004C4425
:10FD7A0020412C45004C4420422C45004C44204351
:10FD8A002C45004C4420442C45004C4420452C452D
:10FD9A00004C4420482C45004C44204C2C4500443F
:10FDAA00454320444500494E4320444500504F50A6
:10FDBA002044450052455420504500504F502041A0
:10FDCA0046004C4420412C48004C4420422C480018
:10FDDA004C4420432C48004C4420442C48004C44BA
:10FDEA0020452C48004C4420482C48004C44204CC8
:10FDFA002C48004C4420412C4C004C4420422C4CB2
:10FE0A00004C4420432C4C004C4420442C4C004CC5
:10FE1A004420452C4C004C4420482C4C004C442097
:10FE2A004C2C4C0044454320484C00494E43204842
:10FE3A004C00504F5020484C0052455420504F001F
:10FE4A0044454320535000494E43205350005245E5
:10FE5A0054204E5A002530366C5820002025303266
:10FE6A0078006661743A20006275663A20000D25B2
:10FE7A0073200D007265736574005355422041006A
:10FE8A00444543204100494E43204100414E44200D
:10FE9A004100584F522041005355422042004445E8
:10FEAA0043204200494E43204200414E4420420032
:10FEBA00584F5220420053554220430044454320A4
:10FECA004300494E43204300414E44204300584FCB
:10FEDA0052204300524554204300535542204400C7
:10FEEA00444543204400494E43204400414E4420A7
:10FEFA004400584F5220440053554220450044457F
:10FF0A0043204500494E43204500414E44204500C8
:10FF1A00584F52204500535542204800444543203B
:10FF2A004800494E43204800414E44204800584F5B
:10FF3A0052204800535542204C00444543204C006F
:10FF4A00494E43204C00414E44204C00584F522009
:10FF5A004C00524554204D00524554205000524501
:10FF6A0054205A004A522025640025303258200075
:10FF7A0053443A20004D4F4E3E007374657000683A
:10FF8A00656C700064756D70004350204100524CDE
:10FF9A004341005252434100435020420043502003
:10FFAA00430043502044004350204500435020481A
:10FFBA00004350204C0048414C5400303A2F2F0047
:10FFCA000D25730044414100524C410052524100F8
:10FFDA00434346005343460043504C004E4F5000A3
:10FFEA0052455400455858003F3F3F006469004459
:06FFFA004900454900002A
:020000040001F9
:10000000BDEF8DF0250E8B19D8B436D020EE02F05E
:100010004350D9264450DA22DE50DE10DE10D8B428
:1000200014D020EE02F04350D9264450DA2202D8F0
:10003000BDEF8DF00500FA6EDE50FD6EDE50FE6EF7
:10004000DE50FF6EFA508B51120043C5D9F444C5FF
:10005000DAF4DEC449F5DDC44AF549C5D9F44AC528
:10006000DAF48BC5DFF443C5D9F444C5DAF4DE2AEB
:10007000000EDD22BDEF8DF0000E886F000E876F41
:10008000000E8D6F000E8C6F09D08C8705D08C818F
:1000900003D08D8701D08C85454A462A45C5F6F4A4
:1000A00046C5F7F4000EF86E0800F550200AD8B4E3
:1000B000EED7030AD8B4EDD70E0AD8B4E6D71D0A96
:1000C000D8B4E9D78CB78C9545C5F6F446C5F7F496
:1000D000000EF86E0800F550D5ECFFF0D8A036D031
:1000E000000E0501886F000E876F87C508F588C56B
:1000F00009F5000E0B6E0A0E0A6E2BECFFF008C518
:1001000087F509C588F545C5F6F446C5F7F4000E30
:10011000F86E0800F5C449F5D00E49244A6E4B6AC2
:10012000FF0E4B224A50050187274B508823454A32
:10013000462A45C5F6F446C5F7F4000EF86E0800E9
:10014000F550D5ECFFF0D8A022D0CFD745C5F6F4B6
:1001500046C5F7F4000EF86E0800F5502A0AD8A438
:1001600016D047C5D9F448C5DAF4DFC449F5020E04
:10017000DE26DFC44AF5000EDD2249C5D9F44AC5A2
:10018000DAF4DEC487F5DDC488F5454A462A45C55C
:10019000F6F446C5F7F4000EF86E0800F5502E0A86
:1001A000D8A464D005018D8D454A462A45C5F6F48C
:1001B00046C5F7F4000EF86E0800F5502A0AD8A4D8
:1001C0001FD047C5D9F448C5DAF4DFC449F5020E9B
:1001D000DE26DFC44AF5000EDD2249C5D9F44AC542
:1001E000DAF4DEC489F5DDC48AF58AAF06D0000EE4
:1001F0008A6F000E896F8D9D8D89454A462AA8D148
:10020000000E8A6F000E896F24D089C508F58AC553
:1002100009F5000E0B6E0A0E0A6E2BECFFF008C5F6
:1002200089F509C58AF545C5F6F446C5F7F4000E0B
:10023000F86E0800F5C449F5D00E49244A6E4B6AA1
:10024000FF0E4B224A50050189274B508A23454A0D
:10025000462A45C5F6F446C5F7F4000EF86E0800C8
:10026000F550D5ECFFF0D8A073D1CFD7000E050123
:100270008A6F000E896F8D896BD18C8969D18D85CC
:1002800097D18C8D95D18C8B8C8F92D147C5D9F419
:1002900048C5DAF4DFC449F5020EDE26DFC44AF5AC
:1002A000000EDD2249C5D9F44AC5DAF4DEC476F57C
:1002B000DDC477F576517711D8A404D07C0E766F23
:1002C000FC0E776F000E796F000E786F03D005017A
:1002D000784B792B78517625496E795177214A6E82
:1002E00049C5F6F44AC5F7F4000EF86E250EF7641A
:1002F00003D00800F55005D0F6C4E9F4F7C4EAF4D9
:10030000EF500009D8A4E3D7050189518A11D8B468
:100310000ED07851895D8A51800A496E7951800AE0
:100320004958D8B004D089C578F58AC579F5875180
:10033000785D88517959D8B005D07851875F795167
:10034000885B04D0000E886F000E876F8CA734D0B6
:1003500097D020EE02F04350D9264450DA22DE50E6
:10036000DE10DE10D8B413D020EE02F04350D926B0
:100370004450DA2201D820D00500FA6EDE50FD6E1E
:10038000DE50FE6EDE50FF6EFA50200E120043C5A6
:10039000D9F444C5DAF4DEC449F5DDC44AF549C5EB
:1003A000D9F44AC5DAF4200EDF6E43C5D9F444C54A
:1003B000DAF4DE2A000EDD2205018707D8A08807BF
:1003C0008729C7E18829D8B45BD0C3D720EE02F0D3
:1003D0004350D9264450DA22DE50DE10DE10D8B465
:1003E00027D020EE02F04350D9264450DA2201D81B
:1003F0001BD00500FA6EDE50FD6EDE50FE6EDE5044
:10040000FF6EFA5076C5F6F477C5F7F4000EF86E75
:10041000250EF76403D00800F55005D0F6C4E9F4C2
:10042000F7C4EAF4EF5012000501764B772B28D081
:1004300076C5F6F477C5F7F4000EF86E43C5D9F427
:1004400044C5DAF4DEC449F5DDC44AF549C5D9F43A
:100450004AC5DAF4250EF76403D00800F55005D03C
:10046000F6C4E9F4F7C4EAF4EF50DF6E0501764B09
:10047000772B43C5D9F444C5DAF4DE2A000EDD2219
:100480007807D8A079077829A1E17929D8A49ED73F
:100490008CB735D0BDEF8DF020EE02F04350D92659
:1004A0004450DA22DE50DE10DE10D8B413D020EE35
:1004B00002F04350D9264450DA2201D820D005005A
:1004C000FA6EDE50FD6EDE50FE6EDE50FF6EFA50AC
:1004D000200E120043C5D9F444C5DAF4DEC449F550
:1004E000DDC44AF549C5D9F44AC5DAF4200EDF6EF9
:1004F00043C5D9F444C5DAF4DE2A000EDD22050135
:100500008707D8A088078729C7E18829D8B4BDEF15
:100510008DF0C2D747C5D9F448C5DAF4DFC449F530
:10052000020EDE26DFC44AF5000EDD2249C5D9F4ED
:100530004AC5DAF4DF508B6F8B0E766F050E776F3E
:10054000000E796F010E786FDFD6C00E8C1330D09D
:1005500045C5F6F446C5F7F4454A462A000EF86E3E
:100560000800F5C48BF505018B51000AD8B4CDEF16
:100570008DF0580AD8B487D63B0AD8B4CBD7070A2F
:10058000D8B416D0020AD8B47AD60F0AD8B410D08C
:10059000050AD8B472D6030AD8B473D61C0AD8B4E4
:1005A00075D6060AD8B4D1D70D0AD8B46DD6C4D73B
:1005B000070E8D15D8B46AEF88F08DA904D0000E0F
:1005C0008A6F060E896F47C5D9F448C5DAF4DFC4CF
:1005D00049F5030EDE26DFC44AF5000EDD2249C5CB
:1005E000D9F44AC5DAF4DEC480F5DEC481F5DDC491
:1005F00082F582AF10D080C508F581C509F582C5A6
:100600000AF550ECFFF008C580F509C581F50AC56B
:1006100082F5030E8C13000E7B6F000E7A6F8051F3
:1006200081118211D8B486D0820E496EFF0E4A6EB7
:1006300080C54BF581C54CF582C54DF583C54EF59A
:10064000100E05D0D8904E324D324C324B32E82E3F
:10065000F9D74B5049247A6F000E4A207B6F7A07F6
:10066000D8A07B077AC508F57BC509F5000E0B6E8F
:10067000030E0A6E2BECFFF008C57AF509C57BF571
:100680007AC50EF57BC50FF5000E116E0A0E106EC1
:100690007AECF3F00EC57AF50FC57BF505017BAF5B
:1006A00003D07A07D8A07B077A510008DCECAFF0C2
:1006B00025C57CF526C57DF527C57EF57CC516F5D7
:1006C0007DC517F57EC518F580C519F581C51AF5E4
:1006D00082C51BF5DBECE5F016C57CF517C57DF58D
:1006E00018C57EF57CC508F57DC509F57EC50AF5FA
:1006F000000E0B6E800E0C6E3F0E0D6EF0ECF4F0E3
:10070000D8B005D005017A07D8A07B0713D07CC5E7
:1007100008F57DC509F57EC50AF5000E0B6E200EA5
:100720000C6E410E0D6EF0ECF4F0D8A003D0050174
:100730007A4B7B2B05018ABF06D08A511BE10D0E37
:10074000895DD8B017D080C531F581C532F582C535
:1007500033F589519AECC6F025C534F526C535F533
:1007600027C536F5FEECCFF031C580F532C581F5F1
:1007700033C582F505017BBF06D07B5120E10A0E0F
:100780007A5DD8B01CD0805181118211D8B456D076
:1007900080C52CF581C52DF582C52EF56AECE9F0F2
:1007A0002C502D102E102F10D8A448D005017BBF3F
:1007B00045D07B5104E1020E7A5DD8A03FD07CC5C4
:1007C00008F57DC509F57EC50AF5700E0B6E890E1C
:1007D0000C6E400E0D6EF0ECF4F0D8B003D00501B5
:1007E000F70E02D00501F80E7A27FF0E7B237A510F
:1007F000DCECAFF025C57CF526C57DF527C57EF57B
:1008000080C508F581C509F582C50AF57CC50BF5DB
:100810007DC50CF57EC50DF565ECE3F008C583F5E7
:1008200009C584F50AC585F50BC586F5000E0501D9
:10083000806F000E816F000E826F33D080C52CF563
:1008400081C52DF582C52EF56AECE9F02CC583F53E
:100850002DC584F52EC585F52FC586F580C53DF5DA
:1008600081C53EF582C53FF583C514F584C515F5F0
:1008700085C516F586C517F574ECF9F014C540F575
:1008800015C541F516C542F5FEECFCF03DC580F5F9
:100890003EC581F53FC582F5000E05017B6F000E58
:1008A0007A6F010E8B6F0A0E8B19D8B41BD08B5147
:1008B000040D250EF324F66EEA0EF420F76EF86AA6
:1008C000000EF8220900F550835D0900F5508459A7
:1008D0000900F55085590900F5508659D8A002D075
:1008E0008B2BE1D78B518925496E000E8A214A6EE8
:1008F0007A5149267B514A224950875F4A50885B8A
:100900008DB704D089518A11D8B403D08707D8A0F5
:1009100088078CC549F5030E4916D8B403D087075C
:10092000D8A088078CA5C4D08CC549F5030E4916FC
:10093000D8B447D020EE02F04350D9264450DA22F2
:10094000DE50DE10DE10D8B41DD08CB104D0000E05
:10095000656F2B0E03D0000E656F2D0E646F20EEB9
:1009600002F04350D9264450DA2201D82AD005009B
:10097000FA6EDE50FD6EDE50FE6EDE50FF6EFA50F7
:10098000645112008CB104D0000E676F2B0E03D09F
:10099000000E676F2D0E666F43C5D9F444C5DAF4B7
:1009A000DEC449F5DDC44AF549C5D9F44AC5DAF4CF
:1009B00066C5DFF443C5D9F444C5DAF4DE2A000E77
:1009C000DD2205018CA16BD020EE02F04350D92628
:1009D0004450DA22DE50DE10DE10D8B413D020EE00
:1009E00002F04350D9264450DA2201D858D00500ED
:1009F000FA6EDE50FD6EDE50FE6EDE50FF6EFA5077
:100A0000200E120043C5D9F444C5DAF4DEC449F51A
:100A1000DDC44AF549C5D9F44AC5DAF4200EDF6EC3
:100A200043C5D9F444C5DAF4DE2A000EDD2237D0FE
:100A300020EE02F04350D9264450DA22DE50DE1078
:100A4000DE10D8B413D020EE02F04350D926445023
:100A5000DA2201D820D00500FA6EDE50FD6EDE509D
:100A6000FE6EDE50FF6EFA50300E120043C5D9F410
:100A700044C5DAF4DEC449F5DDC44AF549C5D9F404
:100A80004AC5DAF4300EDF6E43C5D9F444C5DAF452
:100A9000DE2A000EDD2205018707D8A088070501A0
:100AA00088BF36D18851C4E18705D8A031D1C0D7DD
:100AB0008CA738D03ED020EE02F04350D9264450C7
:100AC000DA22DE50DE10DE10D8B413D020EE02F0B1
:100AD0004350D9264450DA2201D820D00500FA6EBE
:100AE000DE50FD6EDE50FE6EDE50FF6EFA50200EC0
:100AF000120043C5D9F444C5DAF4DEC449F5DDC4B7
:100B00004AF549C5D9F44AC5DAF4200EDF6E43C56B
:100B1000D9F444C5DAF4DE2A000EDD220501870788
:100B2000D8A0880788BF05D08851C5E18705D8B00F
:100B3000C2D78CC549F5030E4916D8B441D020EE72
:100B400002F04350D9264450DA22DE50DE10DE1087
:100B5000D8B41DD08CB104D0000E696F2B0E03D019
:100B6000000E696F2D0E686F20EE02F04350D926FB
:100B70004450DA2201D8CCD00500FA6EDE50FD6E6A
:100B8000DE50FE6EDE50FF6EFA50685112008CB1DE
:100B900004D0000E6B6F2B0E03D0000E6B6F2D0E6A
:100BA0006A6F43C5D9F444C5DAF4DEC449F5DDC43F
:100BB0004AF549C5D9F44AC5DAF46AC5DFF4A1D0CB
:100BC0008CA1A6D020EE02F04350D9264450DA2260
:100BD000DE50DE10DE10D8B413D020EE02F0435009
:100BE000D9264450DA2201D893D00500FA6EDE509F
:100BF000FD6EDE50FE6EDE50FF6EFA50200E1200CB
:100C000043C5D9F444C5DAF4DEC449F5DDC44AF578
:100C100049C5D9F44AC5DAF4200E72D083C508F567
:100C200084C509F585C50AF586C50BF58B51040DFC
:100C3000250EF324F66EEA0EF420F76EF86A000E25
:100C4000F8220900F5C40CF50900F5C40DF50900FA
:100C5000F5C40EF50A00F5C40FF5BCECF3F008C5B9
:100C60007CF509C57DF50AC57EF50BC57FF57CC50C
:100C700015F57DC516F57EC517F57FC518F50A0E65
:100C8000196E000E1A6E000E1B6E000E1C6EBBEC71
:100C9000F7F015C57CF516C57DF517C57EF518C5A9
:100CA0007FF520EE02F04350D9264450DA22DE5080
:100CB000DE10DE10D8B415D020EE02F04350D92655
:100CC0004450DA2201D824D00500FA6EDE50FD6EC1
:100CD000DE50FE6EDE50FF6EFA5005017C51300F83
:100CE000120005017C51300F43C5D9F444C5DAF434
:100CF000DEC449F5DDC44AF549C5D9F44AC5DAF47C
:100D0000DF6E43C5D9F444C5DAF4DE2A000EDD22D5
:100D100005018B078B29D8B438D080D720EE02F09C
:100D20004350D9264450DA22DE50DE10DE10D8B40B
:100D300013D020EE02F04350D9264450DA2201D8D5
:100D400020D00500FA6EDE50FD6EDE50FE6EDE50E5
:100D5000FF6EFA50300E120043C5D9F444C5DAF4E0
:100D6000DEC449F5DDC44AF549C5D9F44AC5DAF40B
:100D7000300EDF6E43C5D9F444C5DAF4DE2A000E26
:100D8000DD2205017A07D8A07B077BBF05D07B5108
:100D9000C5E17A05D8B0C2D78ABF09D08A5104E12B
:100DA000090E895DD8A003D0080E8B6F02D089C5CB
:100DB0008BF58B51895F000E8A5B8B51D8A402D0D2
:100DC0008DA733D020EE02F04350D9264450DA22CA
:100DD000DE50DE10DE10D8B413D020EE02F0435007
:100DE000D9264450DA2201D820D00500FA6EDE5010
:100DF000FD6EDE50FE6EDE50FF6EFA502E0E1200BB
:100E000043C5D9F444C5DAF4DEC449F5DDC44AF576
:100E100049C5D9F44AC5DAF42E0EDF6E43C5D9F4BC
:100E200044C5DAF4DE2A000EDD2205018B51DCEC2C
:100E3000AFF025C560F526C561F527C562F580C50B
:100E400019F581C51AF582C51BF560C516F561C592
:100E500017F562C518F5DBECE5F016C52CF517C5DE
:100E60002DF518C52EF56AECE9F02CC583F52DC5D6
:100E700084F52EC585F52FC586F5A4D083C508F564
:100E800084C509F585C50AF586C50BF58B51040D9A
:100E9000250EF324F66EEA0EF420F76EF86A000EC3
:100EA000F8220900F5C40CF50900F5C40DF5090098
:100EB000F5C40EF50A00F5C40FF5BCECF3F008C557
:100EC0007CF509C57DF50AC57EF50BC57FF57CC5AA
:100ED00015F57DC516F57EC517F57FC518F50A0E03
:100EE000196E000E1A6E000E1B6E000E1C6EBBEC0F
:100EF000F7F015C57CF516C57DF517C57EF518C547
:100F00007FF520EE02F04350D9264450DA22DE501D
:100F1000DE10DE10D8B415D020EE02F04350D926F2
:100F20004450DA2201D824D00500FA6EDE50FD6E5E
:100F3000DE50FE6EDE50FF6EFA5005017C51300F20
:100F4000120005017C51300F43C5D9F444C5DAF4D1
:100F5000DEC449F5DDC44AF549C5D9F44AC5DAF419
:100F6000DF6E43C5D9F444C5DAF4DE2A000EDD2273
:100F700083C515F584C516F585C517F586C518F51D
:100F800005018B51040D250EF324F66EEA0EF420B4
:100F9000F76EF86A000EF8220900F5C419F5090089
:100FA000F5C41AF50900F5C41BF50A00F5C41CF5D3
:100FB000BBECF7F015C583F516C584F517C585F5A7
:100FC00018C586F505018B078B29D8B438D056D7BC
:100FD00020EE02F04350D9264450DA22DE50DE10D3
:100FE000DE10D8B413D020EE02F04350D92644507E
:100FF000DA2201D820D00500FA6EDE50FD6EDE50F8
:10100000FE6EDE50FF6EFA50300E120043C5D9F46A
:1010100044C5DAF4DEC449F5DDC44AF549C5D9F45E
:101020004AC5DAF4300EDF6E43C5D9F444C5DAF4AC
:10103000DE2A000EDD2205018907D8A08A07895122
:101040008A11D8A4C5D78CB788BFBDEF8DF0885161
:1010500004E18705D8A0BDEF8DF020EE02F04350EB
:10106000D9264450DA22DE50DE10DE10D8B413D078
:1010700020EE02F04350D9264450DA2201D820D085
:101080000500FA6EDE50FD6EDE50FE6EDE50FF6E25
:10109000FA50200E120043C5D9F444C5DAF4DEC478
:1010A00049F5DDC44AF549C5D9F44AC5DAF4200E3C
:1010B000DF6E43C5D9F444C5DAF4DE2A000EDD2222
:1010C00005018707D8A0880787518811D8B4BDEFDC
:1010D0008DF0C3D78CC549F5C00E4916D8A441D0B0
:1010E0008CA919D047C5D9F448C5DAF4DFC449F54D
:1010F000040EDE26DFC44AF5000EDD2249C5D9F410
:101100004AC5DAF4DEC483F5DEC484F5DEC485F5B1
:10111000DEC486F519D047C5D9F448C5DAF4DFC472
:1011200049F5020EDE26DFC44AF5000EDD2249C570
:10113000D9F44AC5DAF4DEC483F5DDC484F5000EC3
:1011400084BFFF0E856F866F86AF40D0030E8C1371
:10115000861F851F841F836D000E842385238623AD
:1011600035D08CA919D047C5D9F448C5DAF4DFC405
:1011700049F5040EDE26DFC44AF5000EDD2249C51E
:10118000D9F44AC5DAF4DEC483F5DEC484F5DEC4DE
:1011900085F5DEC486F51AD047C5D9F448C5DAF41A
:1011A000DFC449F5020EDE26DFC44AF5000EDD225B
:1011B00049C5D9F44AC5DAF4DEC44BF5DDC44CF5B3
:1011C0004BC583F54CC584F5856B866B89518A11B7
:1011D000D8A46CD08351841185118611D8A466D00F
:1011E000894B8A2B63D0010E8B6F0A0E8B19D8B4F2
:1011F0006BD08B51040D250EF324F66EEA0EF4200D
:10120000F76EF86A000EF8220900F550835D0900B8
:10121000F55084590900F55085590900F550865953
:10122000D8A052D08B2BE1D7010E8B6F080E8B19F3
:10123000D8B44AD08B51040DBB0EF324F66EE30EE6
:10124000F420F76EF86A000EF8220900F550835D6D
:101250000900F55084590900F55085590900F550E9
:101260008659D8A031D08B2BE1D7010E8B6F0B0E96
:101270008B19D8B429D08B51040D410EF324F66E8E
:10128000E30EF420F76EF86A000EF8220900F5501C
:10129000835D0900F55084590900F550855909000E
:1012A000F5508659D8A010D08B2BE1D78C51C00BAC
:1012B000000AD8B498D7400AD8B4D7D7C00AD8B44F
:1012C000B3D7400AD8B48FD78B51496E4A6A895137
:1012D000495C4A50800A4B6E8A51800A4B58D8B0FC
:1012E00003D089C58BF510D08B51496E4A6A49509D
:1012F000895D8A51800A4B6E4A50800A4B58D8B09B
:1013000003D08BC589F58A6B87518811D8B409D071
:101310008CC549F5030E4916D8B403D08707D8A069
:1013200088078DAD13D08751895D8A51800A496E37
:101330008851800A4958D8B005D08951875F8A51B1
:10134000885B04D0000E886F000E876FC40E8C156A
:10135000496E080E8D154A6E400E49180CE1080EB4
:101360004A18D8A408D087518811D8B422D087074A
:10137000D8A088071ED0C00E8C15496E080E8D159A
:101380004A6E800E491815E1080E4A18D8A411D0EB
:1013900088BF0BD0885104E1030E875DD8A005D02B
:1013A000FE0E8727FF0E882304D0000E886F000EE4
:1013B000876F8B51496E4A6A8751495C4A50800A4F
:1013C0004B6E8851800A4B58D8B005D08B51875F3F
:1013D000000E885B04D0000E886F000E876F8CA50E
:1013E00027D18CC549F5030E4916D8B42CD020EE70
:1013F00002F04350D9264450DA22DE50DE10DE10CF
:10140000D8B413D020EE02F04350D9264450DA224B
:1014100001D8D1D00500FA6EDE50FD6EDE50FE6EB2
:10142000DE50FF6EFA502D0E120043C5D9F444C5AC
:10143000DAF4DEC449F5DDC44AF549C5D9F44AC534
:10144000DAF42D0E2DD08CA12DD020EE02F04350D9
:10145000D9264450DA22DE50DE10DE10D8B413D084
:1014600020EE02F04350D9264450DA2201D8A3D00E
:101470000500FA6EDE50FD6EDE50FE6EDE50FF6E31
:10148000FA50200E120043C5D9F444C5DAF4DEC484
:1014900049F5DDC44AF549C5D9F44AC5DAF4200E48
:1014A000DF6E82D0C00E8C15496E080E8D154A6E07
:1014B000800E491803E1080E4A18D8A47CD020EE0B
:1014C00002F04350D9264450DA22DE50DE10DE10FE
:1014D000D8B413D020EE02F04350D9264450DA227B
:1014E00001D820D00500FA6EDE50FD6EDE50FE6E93
:1014F000DE50FF6EFA50300E120043C5D9F444C5D9
:10150000DAF4DEC449F5DDC44AF549C5D9F44AC563
:10151000DAF4300EDF6E43C5D9F444C5DAF4DE2ABE
:10152000000EDD2220EE02F04350D9264450DA228C
:10153000DE50DE10DE10D8B41ED005018CBB04D006
:10154000000E6D6F780E03D0000E6D6F580E6C6F2D
:1015500020EE02F04350D9264450DA2201D82BD095
:101560000500FA6EDE50FD6EDE50FE6EDE50FF6E40
:10157000FA506C51120005018CBB04D0000E6F6F45
:10158000780E03D0000E6F6F580E6E6F43C5D9F4FE
:1015900044C5DAF4DEC449F5DDC44AF549C5D9F4D9
:1015A0004AC5DAF46EC5DFF443C5D9F444C5DAF4AC
:1015B000DE2A000EDD22050187518811D8B491D2B0
:1015C00020EE02F04350D9264450DA22DE50DE10DD
:1015D000DE10D8B413D020EE02F04350D926445088
:1015E000DA2201D820D00500FA6EDE50FD6EDE5002
:1015F000FE6EDE50FF6EFA50300E120043C5D9F475
:1016000044C5DAF4DEC449F5DDC44AF549C5D9F468
:101610004AC5DAF4300EDF6E43C5D9F444C5DAF4B6
:10162000DE2A000EDD2205018707D8A08807C4D76F
:1016300087518811D8A48CB73BD020EE02F04350DC
:10164000D9264450DA22DE50DE10DE10D8B413D092
:1016500020EE02F04350D9264450DA2201D820D09F
:101660000500FA6EDE50FD6EDE50FE6EDE50FF6E3F
:10167000FA50200E120043C5D9F444C5DAF4DEC492
:1016800049F5DDC44AF549C5D9F44AC5DAF4200E56
:10169000DF6E43C5D9F444C5DAF4DE2A000EDD223C
:1016A00005018707D8A0880787518811D8A4C5D716
:1016B0008CC549F5030E4916D8B42CD020EE02F0A3
:1016C0004350D9264450DA22DE50DE10DE10D8B462
:1016D00013D020EE02F04350D9264450DA2201D82C
:1016E0004ED00500FA6EDE50FD6EDE50FE6EDE500E
:1016F000FF6EFA502D0E120043C5D9F444C5DAF43A
:10170000DEC449F5DDC44AF549C5D9F44AC5DAF461
:101710002D0E2DD08CA133D020EE02F04350D926CF
:101720004450DA22DE50DE10DE10D8B413D020EEA2
:1017300002F04350D9264450DA2201D820D00500C7
:10174000FA6EDE50FD6EDE50FE6EDE50FF6EFA5019
:10175000200E120043C5D9F444C5DAF4DEC449F5BD
:10176000DDC44AF549C5D9F44AC5DAF4200EDF6E66
:1017700043C5D9F444C5DAF4DE2A000EDD22C00EDA
:1017800005018C15496E080E8D154A6E400E4918DC
:1017900031E1080E4A18D8A42DD020EE02F04350B3
:1017A000D9264450DA22DE50DE10DE10D8B413D031
:1017B00020EE02F04350D9264450DA2201D891D1CC
:1017C0000500FA6EDE50FD6EDE50FE6EDE50FF6EDE
:1017D000FA50300E120043C5D9F444C5DAF4DEC421
:1017E00049F5DDC44AF549C5D9F44AC5DAF4300EE5
:1017F000DF6E70D1C00E8C15496E080E8D154A6EC5
:10180000800E491803E1080E4A18D8A46AD120EEC8
:1018100002F04350D9264450DA22DE50DE10DE10AA
:10182000D8B413D020EE02F04350D9264450DA2227
:1018300001D820D00500FA6EDE50FD6EDE50FE6E3F
:10184000DE50FF6EFA50300E120043C5D9F444C585
:10185000DAF4DEC449F5DDC44AF549C5D9F44AC510
:10186000DAF4300EDF6E43C5D9F444C5DAF4DE2A6B
:10187000000EDD2220EE02F04350D9264450DA2239
:10188000DE50DE10DE10D8B41ED005018CBB04D0B3
:10189000000E716F780E03D0000E716F580E706FCE
:1018A00020EE02F04350D9264450DA2201D819D153
:1018B0000500FA6EDE50FD6EDE50FE6EDE50FF6EED
:1018C000FA507051120005018CBB04D0000E736FEA
:1018D000780E03D0000E736F580E726F43C5D9F4A3
:1018E00044C5DAF4DEC449F5DDC44AF549C5D9F486
:1018F0004AC5DAF472C5DFF4EDD089C549F58AC569
:101900004AF5D89049364A36D89049364A36250E97
:101910004924F66EEA0E4A20F76EF86A000EF822A5
:101920000900F5C40CF50900F5C40DF50900F5C46E
:101930000EF50A00F5C40FF583C508F584C509F551
:1019400085C50AF586C50BF5BCECF3F008C515F5A1
:1019500009C516F50AC517F50BC518F50A0E196E57
:10196000000E1A6E000E1B6E000E1C6EBBECF7F024
:10197000155072D083C508F584C509F585C50AF5EB
:1019800086C50BF589C549F58AC54AF5D89049360B
:101990004A36D89049364A36BB0E4924F66EE30ED5
:1019A0004A20F76EF86A000EF8220900F5C40CF51B
:1019B0000900F5C40DF50900F5C40EF50A00F5C4DB
:1019C0000FF5BCECF3F008500F0B0501636F8CBBF7
:1019D00004D0210E746FF60E03D0100E746FF60E45
:1019E000756F63517425496E000E75214A6E49C5A5
:1019F000F6F44AC5F7F4000EF86E0800F5C48BF54E
:101A00003DD083C508F584C509F585C50AF586C5A9
:101A10000BF589C549F58AC54AF5D89049364A3645
:101A2000D89049364A36410E4924F66EE30E4A20D4
:101A3000F76EF86A000EF8220900F5C40CF50900EB
:101A4000F5C40DF50900F5C40EF50A00F5C40FF54F
:101A5000BCECF3F00850070B300F05018B6F0ED074
:101A60008C51C00B000AD8B448D7400AD8B4C9D7A3
:101A7000C00AD8B47FD7400AD8B43FD720EE02F0CE
:101A80004350D9264450DA22DE50DE10DE10D8B49E
:101A900013D020EE02F04350D9264450DA2201D868
:101AA00020D00500FA6EDE50FD6EDE50FE6EDE5078
:101AB000FF6EFA508B51120043C5D9F444C5DAF4D5
:101AC000DEC449F5DDC44AF549C5D9F44AC5DAF49E
:101AD0008BC5DFF443C5D9F444C5DAF4DE2A000E21
:101AE000DD2205018907D8A08A078929B9E18A2959
:101AF000D8A4B6D78CB788BF40D0885103E18705FA
:101B0000D8A03BD020EE02F04350D9264450DA2230
:101B1000DE50DE10DE10D8B413D020EE02F04350B9
:101B2000D9264450DA2201D820D00500FA6EDE50C2
:101B3000FD6EDE50FE6EDE50FF6EFA50200E12007B
:101B400043C5D9F444C5DAF4DEC449F5DDC44AF529
:101B500049C5D9F44AC5DAF4200EDF6E43C5D9F47D
:101B600044C5DAF4DE2A000EDD2205018707D8A07D
:101B7000880787518811D8A4C5D745C5F6F446C54E
:101B8000F7F4454A462A000EF86E0800F5C48BF5B6
:101B900005018B51D8A402EF80F0000E446E000EB8
:101BA000436E1200C4ECFAF0B5AA1200000E070151
:101BB000F26F000EF16FCFC4F8F7D0C4F9F7CEBAC8
:101BC0008DD1000EC86E71D02F513011D8B402D013
:101BD000C0687CD0000E54D018ECFFF0B0ECF6F0EA
:101BE000EC6FECC7C0F472D025512611D8B41BD0CD
:101BF000500E255D0601ED6F090E070126590601FD
:101C0000EE6FEEBF06D0EE510EE1800EED5DD8B066
:101C10000AD025C7D9F426C7DAF4DF50C06E070111
:101C2000254B262B53D00701B951D8A409D0BA515E
:101C3000D8A406D0BB51D8A403D0BC51D8B446D048
:101C40004D0E05018E6FEA0E8F6F45C790F5916BB3
:101C500047C792F5936B46C794F5956B27C796F5E2
:101C600028C797F543C798F5996B44C79AF59B6BBE
:101C70001EECFDF02BD0E1C7C0F428D0D6EC00F06C
:101C8000C06E24D0B80E05018E6FEF0E8F6FF8C7AF
:101C900090F5916BF8C792F5936B1EECFDF0000E7A
:101CA0000701426F010E416F93D7F851000AD8B473
:101CB0008BD7010AD8B490D7090AD8B495D7060AA9
:101CC000D8B4D9D7AE0AD8B4D9D7DCD70701415197
:101CD0004211D8A4B7ECFFF0C2900001D785D79588
:101CE000CEA0FED7C868070141514211D8A43AD10D
:101CF0007BEF92F0F951EAECFAF0394B3A2B23D111
:101D000025512611D8B42ED0500E255D0601ED6F59
:101D1000090E070126590601EE6FEEBF06D0EE51FF
:101D200021E1800EED5DD8B01DD025C7D9F426C7BE
:101D3000DAF4F9C7DFF40701254B262B500E255D99
:101D40000601ED6F090E070126590601EE6F800EA0
:101D5000ED19EE11D8A4F7D0000E0701F26F010EB5
:101D6000F16FF1D00701B951D8A409D0BA51D8A464
:101D700006D0BB51D8A403D0BC51D8B4E4D0200EB7
:101D800005018E6FEB0E8F6F45C790F5916B47C7BE
:101D900092F5936B46C794F5956B27C796F528C7C0
:101DA00097F543C798F5996B44C79AF59B6B1EEC62
:101DB000FDF0C9D0F9C747F7C6D0F9C746F7C3D079
:101DC000000E27150601ED6FFF0E0701281506010D
:101DD000EE6F0701F9510601ED110701276F0601AA
:101DE000EE5115D0F9510601EE6FED6BFF0E0701B4
:101DF00027150601EF6F000E070128150601F06F89
:101E0000ED51EF110701276F0601EE51F0110701A7
:101E1000286F99D0F9C745F7030E4519D8A405D006
:101E2000500E256F090E266F04D0000EF26F010EC2
:101E3000F16FBA51D8B407D04551D8B40ED0020EC4
:101E40004519D8B40AD0BB51D8B47DD04505D8B413
:101E500004D0030E4519D8A476D0BC51D8B473D0A1
:101E6000640E05018E6FEB0E8F6F45C790F5916B79
:101E700047C792F5936B46C794F5956B27C796F5C0
:101E800028C797F543C798F5996B44C79AF59B6B9C
:101E90001EECFDF058D0F9C744F755D0F9C743F709
:101EA00052D0F951CFECF9F04ED0AD0E05018E6F46
:101EB000EC0E8F6FF8C790F5916BF9C792F5936BA5
:101EC000F8C794F5956BF9C796F5976B1EECFDF086
:101ED000000E0701426F010E416F35D0F851010A23
:101EE000D8B408D7090AD8B40BD7020AD8B462D735
:101EF000010AD8B462D7070AD8B462D7010AD8B4A5
:101F000089D7020AD8B4C7D71F0AD8B4C7D7010ADD
:101F1000D8B468D7050AD8B41FD7010AD8B41CD7DB
:101F2000B50AD8B4BED70A0AD8B416D7010AD8B4AD
:101F300013D7070AD8B410D7010AD8B40DD7030AAB
:101F4000D8B40AD7B2D7C2900001D785D795CEA012
:101F5000FED70701F151F211D8A404D0415142112A
:101F6000D8B4C9D2000E0501676F010E666F59EC37
:101F7000FDF00701F151F211D8B4ABD238D0F9C756
:101F80004FF5506A43ECFEF0A4D2F9C7D6F505012F
:101F9000D76B74ECECF09DD2AB0EF819D8A402D03C
:101FA000010E01D0000E0501D36FD46B3EECFFF0A3
:101FB00090D2AC0EF819D8A402D0010E01D0000EB8
:101FC0000501C96FCA6B57ECBCF0070137513811D6
:101FD000D8A407D0ACECDAF00601A705A811D8A464
:101FE000F4D768ECD9F075D263ECF5F072D2F85101
:101FF000140AD8B4C4D7010AD8B4C7D7BF0AD8B412
:10200000F3D7010AD8B4C8D7070AD8B4D2D7010A7F
:10201000D8B4C2D7030AD8B4CCD7000E3E6F010E95
:102020003D6F000EED6F000EEE6F000EEF6F000EB5
:10203000F06F100E47610CD04751040D540EF3247D
:10204000D96E080EF420DA6EDE50DE10D8A403D06C
:10205000010E070110D146C708F5096A4751040D62
:10206000520EF324D96E080EF420DA6EDEC40AF59F
:10207000DDC40BF52BECFFF0070127510826285192
:102080000922FF0E08240601ED6FFF0E0920EE6FF6
:10209000EDC6EDF7EEC6EEF70701EF6BF06B4751BB
:1020A000040D540EF324D96E080EF420DA6EDEC44B
:1020B000F3F7DDC4F4F7F3C753F6F4C754F6EDC7EE
:1020C000EDF6EEC7EEF6EFC7EFF6F0C7F0F6070E47
:1020D000D8900601ED37EE37EF37F037E82EF8D716
:1020E000EDC655F6EEC656F6EFC657F6F0C658F6EC
:1020F000DBEC9DF00701F56FF551D8B40BD0990ECC
:1021000005018E6FF40E8F6FF5C790F5916B1EEC85
:10211000FDF09ED74551D8B404D0020E4519D8A47D
:10212000ACD0F3C72FF6F4C730F6500E0601316F6E
:10213000090E326F000E346F800E336FF60E356F5E
:10214000070E366F3CECA4F00701F56FF551D8A4EB
:1021500005D0800EF619F711D8B40FD0120E050174
:102160008E6FF20E8F6FF5C790F5916BF6C792F5F3
:10217000F7C793F51EECFDF06BD7BA51D8B42CD04D
:10218000BC51D8B429D047C7EDF6010E0601EE6F59
:10219000000EEF6FED2B03D0D890EE37EF37ED2F19
:1021A000FBD70701BD510601EE170701BE5106011D
:1021B000EF17EE51EF11D8A40FD0720E0501C66FC4
:1021C000FE0EC76F500EC86F090EC96F000ECB6FA1
:1021D000800ECA6F7AECF4F007014551D8A446D0BE
:1021E00043510601EE6FED6B5650EF6F5750F06F95
:1021F000F16BF26BF0C6F2F6EFC6F1F6F06BEF6B37
:10220000ED51EF11F36FEE51F011F46F000EF1117B
:10221000F56F000EF211F66F070144510601F3113C
:102220000701E46F0601F4510701E56F0601F5515E
:102230000701E66F0601F6510701E76FE4C7B5F540
:10224000E5C7B6F5E6C7B7F5E7C7B8F5500E05011F
:10225000B96F090EBA6F000EBC6F800EBB6F60ECD9
:10226000D5F0000E0701256F000E03D0500E256F2C
:10227000090E266F000EE16FC6D04505D8B404D014
:10228000030E4519D8A4BDD04505D8A441D043516B
:102290000601EE6FED6B5650EF6F5750F06FF16B1C
:1022A000F26BF0C6F2F6EFC6F1F6F06BEF6BED51A4
:1022B000EF11F36FEE51F011F46F000EF111F56FA5
:1022C000000EF211F66F070144510601F3110701E8
:1022D000E86F0601F4510701E96F0601F5510701A6
:1022E000EA6F0601F6510701EB6FE8C7B5F5E9C7DC
:1022F000B6F5EAC7B7F5EBC7B8F5500E0501B96FEB
:10230000090EBA6F000EBC6F800EBB6FADECE0F033
:102310000701BB51D8B42CD0BC51D8B429D047C781
:10232000EDF6010E0601EE6F000EEF6FED2B03D000
:10233000D890EE37EF37ED2FFBD70701BD510601DF
:10234000EE170701BE510601EF17EE51EF11D8A4A9
:102350000FD0720E0501C66FFE0EC76F500EC86F0C
:10236000090EC96F000ECB6F800ECA6F7AECF4F0C5
:10237000F3C753F6F4C754F6500E0601556F090E15
:10238000566F000E586F800E576FF60E596F070E7E
:102390005A6FF4EC96F00701F56FF551D8A405D00B
:1023A000800EF619F711D8B40FD0F20E05018E6F1A
:1023B000F10E8F6FF5C790F5916BF6C792F5F7C7E1
:1023C00093F51EECFDF044D6F3C718F6F4C719F6E2
:1023D000A3ECC9F00701F56FF551D8B40BD0060E88
:1023E00005018E6FF50E8F6FF5C790F5916B1EECA2
:1023F000FDF02ED6000EE16F000E256F000E266F49
:1024000002D0010EF8D7BA51D8B407D04551D8B48C
:102410000ED0020E4519D8B40AD0BB51D8B454D04E
:102420004505D8B404D0030E4519D8A44DD047C7EC
:10243000EDF6010E0601EE6F000EEF6FED2B03D0EF
:10244000D890EE37EF37ED2FFBD70701BD510601CE
:10245000EE170701BE510601EF17EE51EF11D8A498
:1024600033D0DB0E05018E6FEA0E8F6F45C790F5F6
:10247000916B47C792F5936B46C794F5956B27C749
:1024800096F528C797F507014751040D520EF3241E
:10249000D96E080EF420DA6EDEC498F5DDC499F525
:1024A000EDC79AF5EEC79BF5EFC79CF5F0C79DF514
:1024B00043C79EF505019F6B44C7A0F5A16BE1C71B
:1024C000A2F5A36B1EECFDF0000E07013E6F000E9F
:1024D0003D6F070141514211D8B406D0000E426F42
:1024E000000E416F98EC00F0000E0501676F000EC2
:1024F000666F59ECFDF0B59AC280120083C6D9F41C
:1025000084C6DAF4000EDE6E000EDD6E81C608F5BC
:1025100082C609F5C4ECD8F008C592F609C593F651
:10252000060193AF02D00B0E1200D8909235D96EEF
:102530009335DA6E230ED926070EDA22DEC4ADF605
:10254000DDC4AEF6AD51AE11D8A402D00C0E12000F
:1025500083C6D9F484C6DAF4ADC6DEF4AEC6DDF4C3
:102560008591ADC6D9F4AEC6DAF4DF50D8B415D033
:1025700020EE01F0AD51D926AE51DA22DF5026EC23
:10258000FAF00601A26FA2B108D08551D8A4A2A585
:1025900002D00A0E1200000E1200ADC6D9F4AEC66B
:1025A000DAF4000EDF6E20EE01F0AD51D926AE5107
:1025B000DA22DF50A1ECC8F00601A26FA2A102D07E
:1025C000030E12008551D8B402D0A2B5E2D7ADC631
:1025D00023F6AEC624F6000E266F000E256FA5EC7E
:1025E000D1F023C6ABF624C6ACF6040EAB19AC1181
:1025F000D8A402D0010E1200AC5104E1020EAB5D72
:10260000D8A002D00D0E120020EE2CF0AD51D9262C
:10261000AE51DA22DEC49EF6DEC49FF6DEC4A0F61A
:10262000DEC4A1F63B0EAD25086E000EAE21096E8C
:1026300075ECFDF0020E09180810D8A4E3D7460E79
:102640000601AD25086E000EAE21096E75ECFDF099
:1026500008C5A7F609C5A8F60601A96BAA6BA7517C
:10266000A811A911AA11D8A410D0540EAD25086E36
:10267000000EAE21096E18ECECF008C5A7F609C5EE
:10268000A8F60AC5A9F60BC5AAF620EE18F0AD51BA
:10269000D926AE51DA22A7C6DEF4A8C6DEF4A9C652
:1026A000DEF4AAC6DEF420EE40F0AD51D926AE51DC
:1026B000DA2210EE03F0AD51E126AE51E222DFC482
:1026C000E7F420EE03F0AD51D926AE51DA22DE0454
:1026D000D8B40AD020EE03F0AD51D926AE51DA229B
:1026E000020EDE18D8A48ED7A7C608F5A8C609F52D
:1026F000A9C60AF5AAC60BF520EE03F0AD51D926FE
:10270000AE51DA22DF50866F86510C6E0D6A0E6A6A
:102710000F6AFBECF9F008C5A7F609C5A8F60AC5CB
:10272000A9F60BC5AAF6060120EE3DF0AD51D9265B
:10273000AE51DA22DF50866F876B20EE0AF0AD5182
:10274000D926AE51DA2286C6DEF487C6DDF420EE45
:102750000AF0AD51D926AE51DA22DE50DE10D8B4DF
:1027600051D720EE0AF0AD51D926AE51DA22DEC49F
:1027700086F6DDC487F620EE0AF0AD51D926AE51BB
:10278000DA22DEC488F6DDC489F6FF0E88258A6F5A
:10279000FF0E89218B6F86518A158C6F87518B159F
:1027A0008D6F8C518D11D8A42DD7410EAD25086E9B
:1027B000000EAE21096E75ECFDF0060120EE08F06A
:1027C000AD51D926AE51DA2208C5DEF409C5DDF4D3
:1027D00020EE08F0AD51D926AE51DA22DF50866FD7
:1027E0000F0E8617D8A40ED7430EAD25086E000E27
:1027F000AE21096E75ECFDF008C59AF609C59BF689
:1028000006019C6B9D6B9A519B119C119D11D8A444
:1028100010D0500EAD25086E000EAE21096E18ECDA
:10282000ECF008C59AF609C59BF60AC59CF60BC5DF
:102830009DF63E0EAD25086E000EAE21096E75ECBC
:10284000FDF008C598F609C599F606019851991149
:10285000D8B4D8D620EE08F0AD51D926AE51DA2240
:10286000DEC486F6DDC487F6040E886FD890873301
:102870008633882FFBD798518625896F99518721F8
:102880008A6F8B6BD8B08B2B8C6BA7518925946F7B
:10289000A8518A21956FA9518B21966FAA518C213D
:1028A000976F94519A5D95519B5996519C599751A8
:1028B0009D59D8A0A7D694519A5D086E95519B5901
:1028C000096E96519C590A6E97519D590B6E20EED8
:1028D0000AF0AD51D926AE51DA22DEC486F6DDC447
:1028E00087F686C60CF587C60DF50E6A0F6ABCEC36
:1028F000F3F008C5A3F609C5A4F60AC5A5F60BC5ED
:10290000A6F60601A351A411A511A611D8B47AD632
:10291000000EAC6F000EAB6FF60EA35DFF0EA45958
:10292000FF0EA5590F0EA659D8B004D0000EAC6FFB
:10293000030EAB6FA651A5110AE1F60EA35DFF0EC3
:10294000A459D8B004D0000EAC6F020EAB6FA651E4
:10295000A5110AE1F60EA35D0F0EA459D8B004D05C
:10296000000EAC6F010EAB6FAB51AC11D8B44AD6B0
:10297000020EA325866F000EA421876F000EA521ED
:10298000886F000EA621896F20EE14F0AD51D92674
:10299000AE51DA2286C6DEF487C6DEF488C6DEF4DF
:1029A00089C6DEF420EE1CF0AD51D926AE51DA22F4
:1029B0009EC6DEF49FC6DEF4A0C6DEF4A1C6DEF439
:1029C00098519E25866F99519F21876F000EA021F7
:1029D000886F000EA121896F20EE20F0AD51D9261D
:1029E000AE51DA2286C6DEF487C6DEF488C6DEF48F
:1029F00089C6DEF494519E25866F95519F21876F7D
:102A00009651A021886F9751A121896F20EE28F05F
:102A1000AD51D926AE51DA2286C6DEF487C6DEF481
:102A200088C6DEF489C6DEF4030EAB19AC11D8A457
:102A30004CD05A0EAD25086E000EAE21096E75EC15
:102A4000FDF008500910D8A4DDD5060120EE08F0ED
:102A5000AD51D926AE51DA22DE50DE10D8A4D2D53F
:102A60005C0EAD25086E000EAE21096E18ECECF080
:102A700020EE24F0AD51D926AE51DA2208C5DEF49D
:102A800009C5DEF40AC5DEF40BC5DEF420EE14F051
:102A9000AD51D926AE51DA22DEC486F6DEC487F601
:102AA000DEC488F6DEC489F6020ED89086378737F2
:102AB00088378937E82EF9D786C68EF687C68FF60F
:102AC00088C690F689C691F692D020EE08F0AD51F6
:102AD000D926AE51DA22DE50DE10D8B493D520EEDE
:102AE00020F0AD51D926AE51DA22DEC486F6DEC41E
:102AF00087F6DEC488F6DEC489F6A75186258A6F7C
:102B0000A85187218B6FA95188218C6FAA518921E7
:102B10008D6F20EE24F0AD51D926AE51DA228AC64F
:102B2000DEF48BC6DEF48CC6DEF48DC6DEF4020E57
:102B3000AB19AC11D8B444D020EE14F0AD51D92665
:102B4000AE51DA22DEC486F6DEC487F6DEC488F62D
:102B5000DEC489F6010E86158A6F000E87158B6F0D
:102B6000000E88158C6F000E89158D6F20EE14F005
:102B7000AD51D926AE51DA22DEC408F5DEC409F51E
:102B8000DEC40AF5DEC40BF5030E0C6E000E0D6EEE
:102B9000000E0E6E000E0F6EFBECF9F0D8900B32AB
:102BA0000A320932083206018A5108248E6F8B518D
:102BB00009208F6F8C510A20906F8D510B2016D0F9
:102BC00020EE14F0AD51D926AE51DA22DEC486F6DD
:102BD000DEC487F6DEC488F6DEC489F6D890863572
:102BE0008E6F87358F6F8835906F8935916FFF0EA7
:102BF0008E25866F010E8F21876F000E9021886FC2
:102C0000000E9121896F0A0E05D0D8908933883340
:102C100087338633E82EF9D720EE18F0AD51D92648
:102C2000AE51DA228651DE5C8751DE588851DE587B
:102C30008951DE58D8A0E6D420EE10F0AD51D92647
:102C4000AE51DA22FF0EDE6EFF0EDE6EFF0EDE6E7E
:102C5000FF0EDD6EDD52DD5210EE0CF0AD51E126BF
:102C6000AE51E222DEC4E6F4DEC4E6F4DEC4E6F4ED
:102C7000DEC4E6F420EE05F0AD51D926AE51DA22DD
:102C8000800EDF6E030EAB19AC11D8A497D0600E86
:102C9000AD25086E000EAE21096E75ECFDF008043E
:102CA0000910D8A48BD0ADC6FAF5AEC6FBF5010E5F
:102CB00006019E250501FC6F000E06019F210501FE
:102CC000FD6F000E0601A0210501FE6F000E06013A
:102CD000A1210501FF6FCEECECF00009D8A46ED065
:102CE00020EE05F0AD51D926AE51DA22000EDF6E8E
:102CF0002E0EAD25086E020EAE21096E75ECFDF0AC
:102D0000550E08185BE1AA0E0918D8A457D0300E4A
:102D10000601AD25086E000EAE21096E18ECECF030
:102D2000520E08184BE1520E091848E1610E0A18BC
:102D300045E1410E0B18D8A441D0140EAD25086E04
:102D4000020EAE21096E18ECECF0720E081836E196
:102D5000720E091833E1410E0A1830E1610E0B18AA
:102D6000D8A42CD0180EAD25086E020EAE21096E27
:102D700018ECECF020EE10F0AD51D926AE51DA226D
:102D800008C5DEF409C5DEF40AC5DEF40BC5DEF4C1
:102D90001C0EAD25086E020EAE21096E18ECECF08B
:102DA00020EE0CF0AD51D926AE51DA2208C5DEF482
:102DB00009C5DEF40AC5DEF40BC5DEF4ADC6D9F4F0
:102DC000AEC6DAF4ABC6DFF40701214B222B0601B5
:102DD00020EE06F0AD51D926AE51DA2221C7DEF43D
:102DE00022C7DDF4CBEF92F055C66CF656C66DF6F1
:102DF00059C6D9F45AC6DAF4000EDE6E000EDD6E46
:102E000053C6ABF554C6ACF57C0E0501AD6F060E8E
:102E1000AE6F9AECEAF006016B6F6B51D8A40BD041
:102E200020EE0FF05351D9265451DA22DF506B6F48
:102E30006B51D8B402D06B51120020EE0EF05351FA
:102E4000D9265451DA22DFB202D0070E120020EE4A
:102E500010F05351D9265451DA2210EE10F053518C
:102E6000E1265451E222E6C45FF6E6C460F6E6C409
:102E700061F6E6C462F657515F25636F58516021D1
:102E8000646F000E6121656F000E6221666FDE5077
:102E9000635DDE506459DE506559DE506659D8B026
:102EA0000ED020EE10F05351D9265451DA22DEC450
:102EB0005BF6DDC45CF65B1D576F5C1D586F5751A8
:102EC0005811D8B403D320EE10F05351D9265451E1
:102ED000DA22FF0EDE145B6F010EDE145C6F000E53
:102EE000DE145D6F000EDE145E6F5B515C115D11D0
:102EF0005E11D8A448D220EE10F05351D926545177
:102F0000DA22DEC45BF6DEC45CF6DEC45DF6DEC447
:102F10005EF60A0E05D0D8905E335D335C335B33CA
:102F2000E82EF9D720EE0AF07C51D9267D51DA221D
:102F3000DEC45FF6DDC460F6FF0E5F25616FFF0E35
:102F40006021626F5B5161156E6F5C5162156F6F2E
:102F50006E516F11D8A49CD020EE10F05351D92699
:102F60005451DA22DE50DE10DE10DE10D8A423D059
:102F700020EE06F05351D9265451DA22DEC472F6FF
:102F8000DEC473F6DEC474F6DEC475F672517311D6
:102F900074117511D8A42BD053C636F654C637F623
:102FA000000E386F000E396F000E3A6F000E3B6F47
:102FB0009DECA9F014D053C636F654C637F620EE71
:102FC00014F05351D9265451DA22DEC438F6DEC447
:102FD00039F6DEC43AF6DEC43BF69DECA9F036C6FF
:102FE00072F637C673F638C674F639C675F672517E
:102FF000731174117511D8B469D2720573117411FB
:103000007511D8A40AD020EE0FF05351D92654518F
:10301000DA22020EDF6E020E1200722911E173290C
:103020000FE174290DE17529D8A40AD020EE0FF024
:103030005351D9265451DA22010EDF6E010E1200CF
:1030400020EE14F05351D9265451DA2272C6DEF420
:1030500073C6DEF474C6DEF475C6DEF420EE06F048
:103060005351D9265451DA22DE50DE10DE10DE1024
:10307000D8A40ED020EE06F05351D9265451DA22AE
:1030800072C6DEF473C6DEF474C6DEF475C6DEF412
:1030900020EE0EF05351D9265451DA22DFAE33D050
:1030A000220E53250501E96F000E0601542105018A
:1030B000EA6F060120EE18F05351D9265451DA2256
:1030C000DEC4EBF5DEC4ECF5DEC4EDF5DEC4EEF5F2
:1030D000000E0501F06F010EEF6F060120EE01F00A
:1030E0007C51D9267D51DA22DF5058ECDEF0000900
:1030F000D8A438D1060120EE0EF05351D9265451F0
:10310000DA227F0EDF167CC614F57DC615F520EE9B
:1031100014F05351D9265451DA22DEC416F5DEC418
:1031200017F5DEC418F5DEC419F55BECEBF014C539
:1031300078F615C579F616C57AF617C57BF6060139
:10314000785179117A117B11D8B45DD76E517827F7
:103150006F517923000E7A23000E7B2357C65BF64E
:1031600058C65CF6090E5D6FD8905C335B335D2FFB
:10317000FBD75BC670F65CC671F670517111D8B49E
:10318000A6D070516E255B6F71516F215C6F20EE80
:103190000AF07C51D9267D51DA225B51DE5C5C510C
:1031A000DE58D8B010D020EE0AF07C51D9267D51DF
:1031B000DA22DEC45BF6DDC45CF66E515B5D706FD7
:1031C0006F515C59716F6CC6E9F56DC6EAF578C64A
:1031D000EBF579C6ECF57AC6EDF57BC6EEF570C673
:1031E000EFF571C6F0F520EE01F07C51D9267D5146
:1031F000DA22DF5058ECDEF00009D8A4B3D0060183
:1032000070515B6F71515C6F5D6B5E6B20EE18F0FF
:103210005351D9265451DA22DEC45FF6DEC460F67B
:10322000DEC461F6DEC462F678515F5D636F79518A
:103230006059646F7A516159656F7B516259666F4D
:103240005B51635D5C5164595D5165595E516659CE
:10325000D8B02ED0220E5325086E000E5421096ED0
:1032600020EE18F05351D9265451DA22DEC45BF611
:10327000DDC45CF678515B5F79515C5B090ED890D8
:103280005B375C37E82EFBD75B516C250A6E5C51CF
:103290006D210B6E020E0D6E000E0C6E79ECFCF0C3
:1032A00020EE0EF05351D9265451DA227F0EDF164C
:1032B00070C65BF671C65CF6090ED8905B375C375A
:1032C000E82EFBD75BC676F65CC677F6ACD020EE70
:1032D00018F05351D9265451DA227851DE180AE1F8
:1032E0007951DE1807E17A51DE1804E17B51DE18CE
:1032F000D8B43AD020EE0AF05351D9265451DA22EC
:1033000010EE10F05351E1265451E222DE50E65CFB
:10331000DE50E658DE50E658DE50E658D8B024D0ED
:10332000220E53250501EB6F000E06015421050105
:10333000EC6F78C6EDF579C6EEF57AC6EFF57BC68B
:10334000F0F5000EF26F010EF16F060120EE01F0B4
:103350007C51D9267D51DA22DF50EEECDEF00009F7
:10336000D8B402D0060162D6060120EE18F05351FF
:10337000D9265451DA2278C6DEF479C6DEF47AC64C
:10338000DEF47BC6DEF420EE10F05351D926545102
:10339000DA22DEC45BF6DDC45CF6FF0E5B155D6F02
:1033A000010E5C155E6F5D510008766F5E51D8A00E
:1033B000E82A0208776F7651575D77515859D8B08F
:1033C00004D057C676F658C677F620EE10F0535163
:1033D000D9265451DA22DEC45BF6DDC45CF6FF0E5A
:1033E0005B155D6F010E5C155E6F5D5153255F6F60
:1033F0005E515421606F220E5F25086E000E602121
:10340000096E6CC60AF56DC60BF576C60CF577C667
:103410000DF579ECFCF020EE0EF05351D926545105
:10342000DA22000EDB8E7651575F7751585B59C612
:10343000D9F45AC6DAF47651DE267751DD22765178
:103440006C2777516D2320EE10F05351D92654513B
:10345000DA227651DE267751DE22000EDE22DE22CF
:1034600020EE10F05351D9265451DA2210EE0AF012
:103470005351E1265451E222DE50E65CDE50E6581C
:10348000DE50E658DE50E658D8A003D020EE0AF011
:1034900002D020EE10F05351D9265451DA22DEC466
:1034A00067F6DEC468F6DEC469F6DEC46AF620EEAE
:1034B0000AF05351D9265451DA2267C6DEF468C6A1
:1034C000DEF469C6DEF46AC6DEF4F9D420EE0EF04E
:1034D0005351D9265451DA22000EDB8C000E120013
:1034E000FBECEAF093C6D9F494C6DAF4DE50DE10B1
:1034F000D8B40FD093C6D9F494C6DAF4DEC495F6E6
:10350000DDC496F695C6D9F496C6DAF4DF50D8A491
:1035100011D1000E06019E6F000E9D6F9DC608F52D
:103520009EC609F5000E0B6E050E0A6E2BECFFF021
:10353000020E0826000E0922FB0E0824F66EE20E8B
:103540000920F76EF86A000EF8220900F5C49BF610
:103550000A00F5C49CF69DC608F59EC609F5000E46
:103560000B6E050E0A6E2BECFFF0040E0826000E03
:103570000922FB0E0824F66EE20E0920F76EF86AA7
:10358000000EF8220800F5A23DD09DC608F59EC6A3
:1035900009F5000E0B6E050E0A6E2BECFFF0FB0E0C
:1035A0000824F66EE20E0920F76EF86A000EF82283
:1035B0000900F5C499F60A00F5C49AF6540E0501FF
:1035C0008E6FF60E8F6F99C690F59AC691F59BC6D1
:1035D000D9F49CC6DAF4DEC492F5DEC493F5DEC4F9
:1035E00094F5DEC495F59BC6D9F49CC6DAF4DEC426
:1035F00096F5DEC497F5DEC498F5DEC499F51EECA9
:10360000FDF089D09DC608F59EC609F5000E0B6E2B
:10361000050E0A6E2BECFFF0040E0826000E0922A0
:10362000FB0E0824F66EE20E0920F76EF86A000E13
:10363000F8220800F5A035D09DC608F59EC609F50C
:10364000000E0B6E050E0A6E2BECFFF0FB0E08242D
:10365000F66EE20E0920F76EF86A000EF8220900F5
:10366000F5C499F60A00F5C49AF6D20E05018E6FDC
:10367000F60E8F6F99C690F59AC691F59BC6D9F450
:103680009CC6DAF4DEC492F5DDC493F59BC6D9F48A
:103690009CC6DAF4DEC494F5DDC495F51EECFDF0AD
:1036A0003AD09DC608F59EC609F5000E0B6E050EB4
:1036B0000A6E2BECFFF0FB0E0824F66EE20E0920DA
:1036C000F76EF86A000EF8220900F5C499F60A00B0
:1036D000F5C49AF6D20E05018E6FF60E8F6F99C65D
:1036E00090F59AC691F59BC6D9F49CC6DAF4DF50E2
:1036F0000601956F95510501926F936B9BC6D9F4A6
:103700009CC6DAF4DF500601966F96510501946F5E
:10371000956B1EECFDF006019D4B9E2B9E5104E126
:103720000E0E9D5DD8A0FAD6000E0601926F000E17
:10373000916F1200000E06019E6F000E9D6F9DC6D8
:1037400008F59EC609F5000E0B6E050E0A6E2BECF1
:10375000FFF0FB0E0824F66EE20E0920F76EF86A01
:10376000000EF8220900F5C40EF50A00F5C40FF5A5
:1037700093C6D9F494C6DAF4DEC410F5DDC411F5AD
:10378000E8ECF8F00E500F10D8B409D006019D4BAC
:103790009E2B9E5104E10E0E9D5DD8A0D0D7060150
:1037A0009E5104E10E0E9D5DD8A010D0230E0501A0
:1037B0008E6FF40E8F6F93C6D9F494C6DAF4DEC41C
:1037C00090F5DDC491F51EECFDF0AED720EE02F0D1
:1037D0009351D9269451DA22DE50DE10D8B4EDD0C0
:1037E00020EE02F09351D9269451DA22DEC495F6E8
:1037F000DDC496F695C6D9F496C6DAF4DF50D8B48F
:10380000DCD09DC608F59EC609F5000E0B6E050EB0
:103810000A6E2BECFFF0040E0826000E0922FB0EA8
:103820000824F66EE20E0920F76EF86A000EF82200
:103830000800F5A23BD0060120EE02F09351D926F4
:103840009451DA22DEC424F5DDC425F584ECDFF0E2
:1038500024C595F625C596F626C597F627C598F68C
:103860009DC608F59EC609F5000E0B6E050E0A6E84
:103870002BECFFF0020E0826000E0922FB0E082496
:10388000F66EE20E0920F76EF86A000EF8220900C3
:10389000F5C4D9F40900F5C4DAF495C6DEF496C689
:1038A000DEF497C6DEF498C6DEF485D09DC608F532
:1038B0009EC609F5000E0B6E050E0A6E2BECFFF08E
:1038C000040E0826000E0922FB0E0824F66EE20EF6
:1038D0000920F76EF86A000EF8220800F5A037D02C
:1038E000060120EE02F09351D9269451DA22DEC46B
:1038F00024F5DDC425F584ECDFF024C595F625C557
:1039000096F626C597F627C598F69DC608F59EC675
:1039100009F5000E0B6E050E0A6E2BECFFF0020E81
:103920000826000E0922FB0E0824F66EE20E09207E
:10393000F76EF86A000EF8220900F5C4D9F4090000
:10394000F5C4DAF495C6DEF496C6DDF434D006018B
:1039500020EE02F09351D9269451DA22DEC424F5E8
:10396000DDC425F584ECDFF024C595F625C596F673
:1039700026C597F627C598F69DC608F59EC609F593
:10398000000E0B6E050E0A6E2BECFFF0020E0826E1
:10399000000E0922FB0E0824F66EE20E0920F76ED7
:1039A000F86A000EF8220900F5C4D9F40900F5C43C
:1039B000DAF495C6DFF437ECF3F09DC608F59EC641
:1039C00009F5000E0B6E050E0A6E2BECFFF0020ED1
:1039D0000826000E0922FB0E0824F66EE20E0920CE
:1039E000F76EF86A000EF8220900F5C49BF60A008B
:1039F000F5C49CF69DC608F59EC609F5000E0B6E33
:103A0000050E0A6E2BECFFF0040E0826000E0922AC
:103A1000FB0E0824F66EE20E0920F76EF86A000E1F
:103A2000F8220800F5A23DD09DC608F59EC609F50E
:103A3000000E0B6E050E0A6E2BECFFF0FB0E082439
:103A4000F66EE20E0920F76EF86A000EF822090001
:103A5000F5C499F60A00F5C49AF6540E05018E6F66
:103A6000F60E8F6F99C690F59AC691F59BC6D9F45C
:103A70009CC6DAF4DEC492F5DEC493F5DEC494F598
:103A8000DEC495F59BC6D9F49CC6DAF4DEC496F57F
:103A9000DEC497F5DEC498F5DEC499F51EECFDF0A2
:103AA00043D69DC608F59EC609F5000E0B6E050EA1
:103AB0000A6E2BECFFF0040E0826000E0922FB0E06
:103AC0000824F66EE20E0920F76EF86A000EF8225E
:103AD0000800F5A035D09DC608F59EC609F5000E74
:103AE0000B6E050E0A6E2BECFFF0FB0E0824F66E33
:103AF000E20E0920F76EF86A000EF8220900F5C4FC
:103B000099F60A00F5C49AF6D20E05018E6FF60EEC
:103B10008F6F99C690F59AC691F59BC6D9F49CC64D
:103B2000DAF4DEC492F5DDC493F59BC6D9F49CC6E5
:103B3000DAF4DEC494F5DDC495F51EECFDF0F4D5A1
:103B40009DC608F59EC609F5000E0B6E050E0A6EA1
:103B50002BECFFF0FB0E0824F66EE20E0920F76E48
:103B6000F86A000EF8220900F5C499F60A00F5C4B7
:103B70009AF6D20E05018E6FF60E8F6F99C690F5EC
:103B80009AC691F59BC6D9F49CC6DAF4DF500601BB
:103B9000956F95510501926F936B9BC6D9F49CC6A6
:103BA000DAF4DF500601966F96510501946F956B1C
:103BB0001EECFDF0B9D553C6ABF554C6ACF5760E88
:103BC0000501AD6F060EAE6F9AECEAF00601716F5B
:103BD0007151D8A408D020EE0FF05351D92654517A
:103BE000DA22DF50716F7151D8B402D071511200D6
:103BF00020EE0AF05351D9265451DA225551DE5C99
:103C00005651DE585751DE585851DE58D8B016D0AC
:103C100020EE0EF05351D9265451DA22DFB20ED0E5
