:0400000085EF00F098
:100008009240924092409240924092409240924058
:100018009240924092409240924092409240924048
:100028009240924092409240924092409240924038
:100038009240924092409240924092409240924028
:100048009240924092409240924092409240924018
:100058009240924092409240924092409240924008
:1000680092409240924092409240924092409240F8
:100078009240924092409240420079409240924091
:1000880092409240924092409240924092409240D8
:100098009240924092409240420092409240924058
:1000A80092409240924092409240924092409240B8
:1000B80092409240924092409240924092409240A8
:1000C8009240924092409240924092409240924098
:1000D8009240924092409240924092409240924088
:1000E8004200924092409240924092409240924008
:1000F8009240924092409240924092409240924068
:06010800FF0016EF81F07C
:10DFFE0000F331F020C33C00FFC33100FFFFFFFFF1
:10E00E00FFC31B00FFFFFFFFFFC32C00DB01CB474D
:10E01E0028FADB00FE61D8FE7BD0E6DFC9DB01CB40
:10E02E0047C9F5DB01CB4F28FAF1D300C9C33F0036
:10E03E00C34500C3BA00C34C00FD08731021452030
:10E04E00F9C38E1C11240306632145201A7723136E
:10E05E0005C25B00F9CD2505CDF30A32EF20323E25
:10E06E002121A221237CB5CA82007E472F77BE7064
:10E07E00CA73002B11A121CDBB06DAC30011CEFF4E
:10E08E0022F42019229F20CD00052A9F2011EFFF98
:10E09E0019113E217D936F7C9A67E521DB00CD91AE
:10E0AE0011E1CD341821CC00CD911131AB20CD250D
:10E0BE0005C33E04211201CD9111C3C9002042793E
:10E0CE0074657320667265650D0A00005A3830203B
:10E0DE0042415349432056657220342E37620D0A51
:10E0EE00436F70797269676874202843292031392B
:10E0FE003738206279204D6963726F736F66740DC5
:10E10E000A00004D656D6F72792073697A65206E15
:10E11E006F7420656E6F7567680D0A54686520739D
:10E12E00797374656D2069732073746F7070656494
:10E13E002E0D0A0000A9166D17BF1648205110D6D5
:10E14E00137F103319121A4E158119871A8D1AEE74
:10E15E001A031B2A146E1B962003131B119D1312F8
:10E16E00132313901B231C331363136D13C54E44DB
:10E17E00C64F52CE455854C4415441C94E505554C1
:10E18E00C4494DD2454144CC4554C74F544FD25546
:10E19E004EC946D24553544F5245C74F535542D29E
:10E1AE00455455524ED2454DD3544F50CF5554CF62
:10E1BE004ECE554C4CD7414954C44546D04F4B4595
:10E1CE00C44F4B45D3435245454ECC494E4553C3A0
:10E1DE004C53D749445448CD4F4E49544F52D345D2
:10E1EE0054D245534554D052494E54C34F4E54CC3D
:10E1FE00495354C34C454152C34C4F4144C3534100
:10E20E005645CE4557D4414228D44FC64ED35043DF
:10E21E0028D448454ECE4F54D3544550ABADAAAF3B
:10E22E00DEC14E44CF52BEBDBCD3474EC94E54C1C3
:10E23E004253D55352C65245C94E50D04F53D35167
:10E24E0052D24E44CC4F47C55850C34F53D3494E6C
:10E25E00D4414EC1544ED045454BC445454BD04F8D
:10E26E00494E54CC454ED3545224D6414CC15343FF
:10E27E00C3485224C8455824C2494E24CC4546545E
:10E28E0024D24947485424CD494424809508920706
:10E29E006D0CE209740BA90EA30BF9099F098209F3
:10E2AE00710A5B088E09BD09E4099308E213530A4B
:10E2BE00D408E81387103114791BE4095F1B521B35
:10E2CE00571B8B1C99209C20950AC10807073C09F7
:10E2DE00E409E409FF04791B18794F147C8D157C31
:10E2EE00EE157F3C1950020E46010E4E46534E520D
:10E2FE00474F4446434F564F4D554C425344442F7F
:10E30E00304944544D4F534C535354434E55464D40
:10E31E004F4858424EC3BA00C31209D300C9D600A3
:10E32E006F7CDE006778DE00473E00C900000035D6
:10E33E004ACA99391C76982295B3980ADD479853A4
:10E34E00D199990A1A9F9865BCCD98D6773E985266
:10E35E00C74F80DB00C901FF1C0000140014000031
:10E36E00000000C33806C30000C30000C30000A2B3
:10E37E0021FEFF3F21204572726F720020696E20D0
:10E38E00004F6B0D0A0000427265616B00210400A4
:10E39E00397E23FE81C04E234623E569607AB3EBB6
:10E3AE00CAB603EBCDBB06010D00E1C809C3A0033D
:10E3BE00CDD903C5E3C1CDBB067E02C80B2BC3C5A9
:10E3CE0003E52A1F21060009093EE53ED0956F3E62
:10E3DE00FF9CDAE8036739E1D81E0CC307042A0E46
:10E3EE002122A1201E02011E14011E00011E120177
:10E3FE001E22011E0A011E18CD2505328A20CDE6E9
:10E40E000A21FA02573E3FCDCC06197ECDCC06CD61
:10E41E004B08CDCC06218403CD91112AA12011FEEB
:10E42E00FFCDBB06CA4C007CA53CC42C183EC1AF28
:10E43E00328A20CDE60A219003CD911121FFFF22D1
:10E44E00A120CD3806DA4B04CD4B083C3DCA4B0417
:10E45E00F5CD1709D5CD4F0547D1F1D22B08D5C52E
:10E46E00AF321121CD4B08B7F5CDDF04DA8404F1BC
:10E47E00F5CAB809B7C5D29B04EB2A1B211A0203B1
:10E48E0013CDBB06C28C046069221B21D1F1CAC216
:10E49E00042A1B21E3C109E5CDBF03E1221B21EBB9
:10E4AE0074D123237323722311A6201A772313B753
:10E4BE00C2BA04CD0B0523EB626B7E23B6CA4B04A6
:10E4CE00232323AFBE23C2D304EB732372C3C7042B
:10E4DE002AA320444D7E23B62BC823237E23666FAA
:10E4EE00CDBB0660697E23666F3FC83FD0C3E20492
:10E4FE00C02AA320AF77237723221B212AA3202B08
:10E50E002213212AF420220821AFCD5B082A1B21D9
:10E51E00221D21221F21C12A9F20F921F82022F637
:10E52E0020AF6F67221921321021222321E5C52A3F
:10E53E001321C93E3FCDCC063E20CDCC06C3932041
:10E54E00AF32F3200E0511A6207EFE20CAD7054756
:10E55E00FE22CAF705B7CAFE053AF320B77EC2D728
:10E56E0005FE3F3E9ECAD7057EFE30DA8205FE3C92
:10E57E00DAD705D5117B01C501D305C5067F7EFE11
:10E58E0061DA9B05FE7BD29B05E65F774EEB23B6E9
:10E59E00F29D05047EE67FC8B9C29D05EBE5131A10
:10E5AE00B7FACF054F78FE88C2BE05CD4B082B2398
:10E5BE007EFE61DAC705E65FB9CAAD05E1C39B050C
:10E5CE0048F1EBC9EB79C1D12312130CD63ACAE547
:10E5DE0005FE49C2E80532F320D654C25805477EDF
:10E5EE00B7CAFE05B8CAD70523120C13C3EE052110
:10E5FE00A5201213121312C93A8920B73E00328990
:10E60E0020C21B0605CA3806CDCC063E052BCA2FE6
:10E61E00067ECDCC06C34106052BCDCC06C24106E7
:10E62E00CDCC06CDF30AC3380621A6200601AF32A3
:10E63E008920CDF6064FFE7FCA07063A8920B7CA53
:10E64E005A063E00CDCC06AF32892079FE07CA9E0F
:10E65E0006FE03CCF30A37C8FE0DCAEE0AFE15CA33
:10E66E003206FE40CA2F06FE5FCA2706FE08CA27DC
:10E67E0006FE12C29906C5D5E53600CD9D1C21A613
:10E68E0020CD9111E1D1C1C34106FE20DA410678B9
:10E69E00FE493E07D2B30679713211212304CDCC47
:10E6AE0006C34106CDCC063E08C3AD067C92C07DA6
:10E6BE0093C97EE3BE23E3CA4B08C3F303F53A8A3C
:10E6CE0020B7C2C611F1C5F5FE20DAF0063A872052
:10E6DE00473AF02004CAEC0605B8CCF30A3C32F0F7
:10E6EE0020F1C1CD881CC9CD501BE67FFE0FC03A6C
:10E6FE008A202F328A20AFC9CD1709C0C1CDDF04C1
:10E70E00C5CD5D07E14E23462378B1CA3E04CD66E2
:10E71E0007CD7608C5CDF30A5E235623E5EBCD343F
:10E72E00183E20E1CDCC067EB723CA1307F233077D
:10E73E00D67F4F117C011A13B7F245070DC245075C
:10E74E00E67FCDCC061A13B7F24F07C33607E52A7C
:10E75E008D20228B20E1C9E5D52A8B2011FFFFEDFC
:10E76E005A228B20D1E1F0E52A8D20228B20CD502C
:10E77E001BFE03CA8907E1C366072A8D20228B2060
:10E78E00C3BD003E64321021CDF909C1E5CDE209C9
:10E79E00220C2121020039CDA003D1C2C20709D516
:10E7AE002B562B5E2323E52A0C21CDBB06E1C2A6F8
:10E7BE0007D1F9EB0E08CDD003E52A0C21E3E52AAB
:10E7CE00A120E3CDBB0CCDC106A6CDB80CE5CDE6A0
:10E7DE0016E1C5D5010081515A7EFEAB3E01C2FE47
:10E7EE0007CD4B08CDB80CE5CDE616CD9A16E1C592
:10E7FE00D5F533E52A1321E30681C533CD760822FC
:10E80E0013217EFE3ACA2B08B7C2F303237E23B62A
:10E81E00CA9D08235E2356EB22A120EBCD4B081197
:10E82E000B08D5C8D680DAF909FE25D2F303074FB7
:10E83E000600EB219B02094E2346C5EB237EFE3AD2
:10E84E00D0FE20CA4B08FE303F3C3DC9EB2AA32028
:10E85E00CA7008EBCD1709E5CDDF046069D1D2B8D7
:10E86E00092B222121EBC9DFC8D7FE1B2811FE037D
:10E87E00280DFE13C0D7FE11C8FE03280718F63E5A
:10E88E00FF329220C0F6C022132121F6FFC12AA129
:10E89E0020F57DA43CCAB0082217212A1321221983
:10E8AE0021AF328A20CDE60AF1219603C22704C396
:10E8BE003E042A19217CB51E20CA0704EB2A172113
:10E8CE0022A120EBC9CD1914C0328620C9E52A8FAA
:10E8DE002006004F09228F20E1C97EFE41D8FE5B43
:10E8EE003FC9CD4B08CDB80CCD9A16FA12093A2C69
:10E8FE0021FE90DA4217018090110000E5CD151728
:10E90E00E151C81E08C307042B110000CD4B08D0DF
:10E91E00E5F5219819CDBB06DAF303626B192919B7
:10E92E0029F1D6305F160019EBE1C31B09CA0F059A
:10E93E00CDF4082BCD4B08E52AF420CA5F09E1CDB2
:10E94E00C1062CD5CDF4082BCD4B08C2F303E3EB57
:10E95E007D935F7C9A57DAE803E52A1B2101280094
:10E96E0009CDBB06D2E803EB229F20E122F420E181
:10E97E00C30F05CA0B05CD0F05010B08C39E090E6B
:10E98E0003CDD003C1E5E52AA120E33E8CF533C5C6
:10E99E00CD1709CDE409E52AA120CDBB06E123DC84
:10E9AE00E204D4DF0460692BD81E0EC30704C01620
:10E9BE00FFCD9C03F9FE8C1E04C20704E122A120A8
:10E9CE00237CB5C2DC093A1121B7C23D04210B08E4
:10E9DE00E33EE1013A0E0006007948477EB7C8B81B
:10E9EE00C823FE22CAE809C3EB09CDAE0ECDC1067F
:10E9FE00B4D53AF220F5CDCA0CF1E32213211FCD86
:10EA0E00BD0CCA4C0AE52A2921E523235E23562A8A
:10EA1E00A320CDBB06D23B0A2A9F20CDBB06D1D266
:10EA2E00430A210421CDBB06D2430A3ED1CDF212B8
:10EA3E00EBCD2B11CDF212E1CDF516E1C9E5CDF2FC
:10EA4E0016D1E1C9CD19147E47FE8CCA620ACDC11A
:10EA5E0006882B4B0D78CA3308CD1809FE2CC0C37F
:10EA6E00630ACDCA0C7EFE88CA7F0ACDC106A92BC9
:10EA7E00CDBB0CCD9A16CAE409CD4B08DA9F09C35B
:10EA8E0032082BCD4B08CAF30AC8FEA5CA260BFEC8
:10EA9E00A8CA260BE5FE2CCA0F0BFE3BCA490BC1BA
:10EAAE00CDCA0CE53AF220B7C2DF0ACD3F18CD4FE2
:10EABE001136202A2921342A29213A87204704CACF
:10EACE00DB0A043AF020863DB8D4F30ACD9411AF98
:10EADE00C49411E1C3910A3AF020B7C8C3F30A36C1
:10EAEE000021A5203E0DCDCC063E0ACDCC06AF3280
:10EAFE00F0203A86203DC8F5AFCDCC06F1C3040B0D
:10EB0E003A8820473AF020B8D4F30AD2490BD60EF1
:10EB1E00D21D0B2FC33E0BF5CD1614CDC106292BDE
:10EB2E00F1D6A8E5CA390B3AF0202F83D2490B3C17
:10EB3E00473E20CDCC0605C2420BE1CD4B08C39813
:10EB4E000A3F5265646F2066726F6D207374617236
:10EB5E00740D0A003A1221B7C2ED03C121500BCD3C
:10EB6E009111C33E05CDFC107EFE223E00328A205E
:10EB7E00C28E0BCD5011CDC1063BE5CD94113EE5B5
:10EB8E00CD4205C1DA9A08237EB72BC5CAE10936F4
:10EB9E002CC3A80BE52A2121F6AF321221E3C3B410
:10EBAE000BCDC1062CCDAE0EE3D57EFE2CCADC0BF2
:10EBBE003A1221B7C2490C3E3FCDCC06CD4205D10B
:10EBCE00C1DA9A08237EB72BC5CAE109D53AF220DD
:10EBDE00B7CA060CCD4B085747FE22CAFA0B3A129B
:10EBEE0021B757CAF70B163A062C2BCD5311EB2132
:10EBFE00110CE3D5C3140ACD4B08CDA117E3CDF20A
:10EC0E0016E12BCD4B08CA1D0CFE2CC2630BE32B59
:10EC1E00CD4B08C2B00BD13A1221B7EBC27108D559
:10EC2E00B621380CC49111E1C93F45787472612048
:10EC3E0069676E6F7265640D0A00CDE209B7C26234
:10EC4E000C237E23B61E06CA0704235E2356EB2230
:10EC5E000E21EBCD4B08FE83C2490CC3DC0B110019
:10EC6E0000C4AE0E221321CD9C03C2F903F9D57E4A
:10EC7E0023F5D5CDD816E3E5CD4514E1CDF216E159
:10EC8E00CDE916E5CD1517E1C190CDE916CAA80C50
:10EC9E00EB22A1206960C30708F92A13217EFE2CFE
:10ECAE00C20B08CD4B08CD700CCDCA0CF6373AF21C
:10ECBE00208FB7E8C30504CDC106282B1600D50E4C
:10ECCE0001CDD003CD410D2215212A1521C178FE8B
:10ECDE0078D4BB0C7E1600D6B3DA020DFE03D20238
:10ECEE000DFE0117AABA57DAF303220A21CD4B08FB
:10ECFE00C3E60C7AB7C2290E7E220A21D6ACD8FE04
:10ED0E0007D05F3AF2203DB37BCA871207835F219B
:10ED1E00E502197856BAD023CDBB0CC501D90CC566
:10ED2E00434ACDCB1658514E234623C52A0A21C33A
:10ED3E00CD0CAF32F220CD4B081E24CA0704DAA147
:10ED4E0017CDE908D2A80DFE262012CD4B08FE489D
:10ED5E00CAE51BFE42CA551C1E02CA0704FEACCAF7
:10ED6E00410DFE2ECAA117FEADCA970DFE22CA5046
:10ED7E0011FEAACA890EFEA7CAB410D6B6D2B90D14
:10ED8E00CDC60CCDC10629C9167DCDCD0C2A1521B7
:10ED9E00E5CDC316CDBB0CE1C9CDAE0EE5EB2229F8
:10EDAE00213AF220B7CCD816E1C90600074FC5CDDF
:10EDBE004B0879FE31DAE00DCDC60CCDC1062CCD57
:10EDCE00BC0CEB2A2921E3E5EBCD1914EBE3C3E8E8
:10EDDE000DCD8F0DE311A30DD5014401094E236610
:10EDEE0069E915FEADC8FE2DC814FE2BC8FEACC8D1
:10EDFE002BC9F6AFF5CDBB0CCDFD08F1EBC1E3EBA6
:10EE0E00CDDB16F5CDFD08F1C179217210C2240EAD
:10EE1E00A34F78A2E9B34F78B2E9213B0E3AF22024
:10EE2E001F7A175F166478BAD0C32A0D3D0E79B7D4
:10EE3E001FC1D1F5CDBD0C217F0EE5CA1517AF321E
:10EE4E00F220D5CDD4127E23234E2346D1C5F5CD47
:10EE5E00D812CDE916F157E17BB2C87AD601D8AFF8
:10EE6E00BB3CD0151D0ABE2303CA670E3FC3A516B1
:10EE7E003C8FC1A0C6FF9FC3AC16165ACDCD0CCD8C
:10EE8E00BB0CCDFD087B2F4F7A2FCD7210C1C3D98D
:10EE9E000C2BCD4B08C8CDC1062C01A00EC5F6AF6C
:10EEAE0032F12046CDE908DAF303AF4F32F220CD2E
:10EEBE004B08DACA0ECDE908DAD70E4FCD4B08DA79
:10EECE00CB0ECDE908D2CB0ED624C2E60E3C32F2E2
:10EEDE00200F814FCD4B083A10213DCA930FF2F609
:10EEEE000E7ED628CA6B0FAF321021E550592A2359
:10EEFE0021CDBB06112521CADB152A1D21EB2A1BAC
:10EF0E0021CDBB06CA290F799623C21E0F789623F0
:10EF1E00CA5D0F23232323C3100FE1E3D511AB0DDD
:10EF2E00CDBB06D1CA600FE3E5C50106002A1F213D
:10EF3E00E509C1E5CDBF03E1221F216069221D2134
:10EF4E002B3600CDBB06C24F0FD173237223EBE1DC
:10EF5E00C9322C21218F03222921E1C9E52AF12072
:10EF6E00E357D5C5CDF108C1F1EBE3E5EB3C577E98
:10EF7E00FE2CCA710FCDC10629221521E122F120E6
:10EF8E001E00D511E5F52A1D213E19EB2A1F21EB96
:10EF9E00CDBB06CACB0F7EB923C2AD0F7EB8235EA2
:10EFAE00235623C2990F3AF120B7C2FC03F1444D08
:10EFBE00CADB1596CA29101E10C30704110400F1EE
:10EFCE00CA1209712370234FCDD0032323220A21A5
:10EFDE0071233AF1201779010B00D2EE0FC10371A4
:10EFEE00237023F5E5CD8617EBE1F13DC2E60FF573
:10EFFE00424BEB19DAE803CDD903221F212B360041
:10F00E00CDBB06C20C1003572A0A215EEB2909EB71
:10F01E002B2B73237223F1DA4D10474F7E2316E10B
:10F02E005E235623E3F5CDBB06D2C60FE5CD86177C
:10F03E00D119F13D444DC22E102929C109EB2A15D3
:10F04E0021C92A1F21EB210000393AF220B7CA6DDF
:10F05E0010CDD412CDD4112A9F20EB2A08217D93F6
:10F06E004F7C9A41501E0021F220730690C3B116B8
:10F07E003AF02047AFC37310CD0A11CDFC1001E258
:10F08E0009C5D5CDC10628CDAE0EE5EB2B562B5EB0
:10F09E00E1CDBB0CCDC10629CDC106B4444DE37103
:10F0AE002370C34911CD0A11D5CD8F0DCDBB0CE305
:10F0BE005E2356237AB3CAFF037E23666FE52A23A7
:10F0CE0021E32223212A2721E52A2521E5212521B5
:10F0DE00D5CDF216E1CDB80C2BCD4B08C2F303E122
:10F0EE00222521E1222721E1222321E1C9E52AA1BE
:10F0FE0020237CB5E1C01E16C30704CDC106A73E72
:10F10E0080321021B647CDB30EC3BB0CCDBB0CCD98
:10F11E003F18CD4F11CDD412012F13C57E2323E5F9
:10F12E00CDAA11E14E2346CD4311E56FCDC712D1C5
:10F13E00C9CDAA11210421E5772323732372E1C9D6
:10F14E002B062250E50EFF237E0CB7CA6511BACAF4
:10F15E006511B8C25611FE22CC4B08E323EB79CDD4
:10F16E0043111104212AF6202229213E0132F220D8
:10F17E00CDF516CDBB0622F620E17EC01E1EC307BE
:10F18E000423CD4F11CDD412CDE9161C1DC80ACDC6
:10F19E00CC06FE0DCCFD0A03C39B11B70EF1F52A6A
:10F1AE009F20EB2A08212F4F06FF0923CDBB06DA3D
:10F1BE00C81122082123EBF1C9F11E1ACA0704BF98
:10F1CE00F501AC11C52AF420220821210000E52A00
:10F1DE009F20E521F820EB2AF620EBCDBB0601E5BA
:10F1EE0011C239122A1B21EB2A1D21EBCDBB06CAF7
:10F1FE000C127E2323B7CD3C12C3F611C1EB2A1F8E
:10F20E0021EBCDBB06CA6212CDE9167BE509B7F23A
:10F21E000B12220A21E14E0600090923EB2A0A21CC
:10F22E00EBCDBB06CA0C12012B12C5F6807E232332
:10F23E005E235623F0B7C8444D2A0821CDBB066085
:10F24E0069D8E1E3CDBB06E3E56069D0C1F1F1E534
:10F25E00D5C5C9D1E17DB4C82B462B4EE52B2B6EFF
:10F26E0026000950592B444D2A0821CDC203E171C5
:10F27E00237069602BC3D711C5E52A2921E3CD413F
:10F28E000DE3CDBC0C7EE52A2921E5861E1CDA078E
:10F29E0004CD4011D1CDD812E3CDD712E52A0621E7
:10F2AE00EBCDBE12CDBE1221D60CE3E5C37111E13A
:10F2BE00E37E23234E23466F2C2DC80A120313C35D
:10F2CE00C812CDBC0C2A2921EBCDF212EBC0D550C1
:10F2DE00591B4E2A0821CDBB06C2F012470922083F
:10F2EE0021E1C92AF6202B462B4E2B2BCDBB06C077
:10F2FE0022F620C9018210C5CDD112AF5732F220AD
:10F30E007EB7C9018210C5CD0713CA120923235E29
:10F31E0023561AC93E01CD4011CD1C142A06217365
:10F32E00C1C37111CDCC13AFE34FE57EB8DA4113F3
:10F33E0078110E00C5CDAA11C1E1E523234623663F
:10F34E0068060009444DCD43116FCDC712D1CDD8FB
:10F35E0012C37111CDCC13D1D51A90C33713EB7ED6
:10F36E00CDD1130405CA1209C51EFFFE29CA861384
:10F37E00CDC1062CCD1914CDC10629F1E3013913E7
:10F38E00C53DBE0600D04F7E91BB47D843C9CD07C1
:10F39E0013CABA145F23237E23666FE5194672E300
:10F3AE00C57EFE24C2BB13CDE51B180DFE25C2C5BE
:10F3BE0013CD551C1803CDA117C1E170C9EBCDC1FA
:10F3CE000629C1D1C543C9CD1C14328420CD83205A
:10F3DE00C38210CD0614C34B20CD0614F51E002B90
:10F3EE00CD4B08CAFC13CDC1062CCD1914C1CD834B
:10F3FE0020ABA0CAFD13C9CD1914328420324C2083
:10F40E00CDC1062CC31914CD4B08CDB80CCDF708C1
:10F41E007AB7C212092BCD4B087BC9CDFD081AC392
:10F42E008210CDB80CCDFD08D5CDC1062CCD19144A
:10F43E00D112C9211819CDE916C35414CDE91621DC
:10F44E00C1D1CDC31678B7C83A2C21B7CADB1690F6
:10F45E00D26E142F3CEBCDCB16EBCDDB16C1D1FE0D
:10F46E0019D0F5CD001767F1CD1915B4212921F268
:10F47E009414CDF914D2DA142334CA02042E01CD19
:10F48E002F15C3DA14AF90477E9B5F237E9A5723C6
:10F49E007E994FDC05156863AF4779B7C2C7144A2A
:10F4AE0054656F78D608FEE0C2A814AF322C21C97D
:10F4BE0005297A1757798F4FF2BF14785C45B7CA72
:10F4CE00DA14212C218677D2BA14C878212C21B7D0
:10F4DE00FCEC1446237EE680A94FC3DB161CC01439
:10F4EE00C00CC00E8034C0C302047E835F237E8AAC
:10F4FE0057237E894FC9212D217E2F77AF6F9047DD
:10F50E007D9B5F7D9A577D994FC90600D608DA28F4
:10F51E0015435A510E00C31B15C6096FAF2DC8797E
:10F52E001F4F7A1F577B1F5F781F47C32B15000095
:10F53E00008103AA561980F122768045AA3882CD21
:10F54E009A16B7EA1209212C217E01358011F30497
:10F55E0090F570D5C5CD5414C1D104CDF015213D13
:10F56E0015CD4B14214115CDE219018080110000FB
:10F57E00CD5414F1CD151801318011187221C1D15D
:10F58E00CD9A16C82E00CD581679323B21EB223C6F
:10F59E0021010000505821A514E521B115E5E52102
:10F5AE0029217E23B7CADD15E52E081F6779D2CB38
:10F5BE0015E52A3C2119EBE13A3B21891F4F7A1FB1
:10F5CE00577B1F5F781F472D7CC2BA15E1C9435A7E
:10F5DE00514FC9CDCB16012084110000CDDB16C1D1
:10F5EE00D1CD9A16CAF6032EFFCD581634342B7E83
:10F5FE003257202B7E3253202B7E324F2041EBAFE1
:10F60E004F575F325A20E5C57DCD4E20DE003FD2EA
:10F61E002816325A20F1F137D2C1E1793C3D1FFA5A
:10F62E00DB14177B175F7A175779174F297817470F
:10F63E003A5A2017325A2079B2B3C21516E5212C48
:10F64E002135E1C21516C3020478B7CA7C167D2196
:10F65E002C21AE80471FA878F27B16C68077CADBB6
:10F66E0015CD0017772BC9CD9A162FE1B7E1F2BA57
:10F67E0014C30204CDE61678B7C8C602DA020447F0
:10F68E00CD5414212C2134C0C302043A2C21B7C806
:10F69E003A2B21FE2F179FC03CC9CD9A1606881112
:10F6AE000000212C214F70060023368017C3A214B0
:10F6BE00CD9A16F0212B217EEE8077C9EB2A2921D7
:10F6CE00E3E52A2B21E3E5EBC9CDE916EB2229214F
:10F6DE006069222B21EBC92129215E2356234E235B
:10F6EE004623C911292106041A77132305C2F716DA
:10F6FE00C9212B217E07371F773F1F2323777907D9
:10F70E00371F4F1FAEC978B7CA9A1621A316E5CD7B
:10F71E009A1679C8212B21AE79F8CD2F171FA9C9BA
:10F72E002378BEC02B79BEC02B7ABEC02B7B96C071
:10F73E00E1E1C9474F575FB7C8E5CDE616CD0017D3
:10F74E00AE67FC66173E9890CD19157C17DCEC144D
:10F75E000600DC0515E1C91B7AA33CC00BC9212CA0
:10F76E00217EFE983A2921D07ECD421736987BF520
:10F77E007917CDA214F1C921000078B1C83E102925
:10F78E00DAC60FEB29EBD29C1709DAC60F3DC28EF3
:10F79E0017C9FE2DF5CAAD17FE2BCAAD172BCDBA64
:10F7AE001447575F2F4FCD4B08DAFE17FE2ECAD9DE
:10F7BE0017FE45C2DD17CD4B08CDF10DCD4B08DA46
:10F7CE00201814C2DD17AF935F0C0CCAB517E57B7A
:10F7DE0090F4F617F2EC17F5CDE215F13CC2E017F6
:10F7EE00D1F1CCC316EBC9C8F5CD8316F13DC9D501
:10F7FE0057788947C5E5D5CD8316F1D630CD151886
:10F80E00E1C1D1C3B517CDCB16CDAC16C1D1C35402
:10F81E00147B0707830786D6305FC3CB17E5218B92
:10F82E0003CD9111E1EBAF0698CDB116219011E504
:10F83E00212E21E5CD9A163620F24D18362D23367F
:10F84E0030CA0319E5FCC316AFF5CD091901439172
:10F85E0011F84FCD1517B7E27A18F1CDF717F5C39A
:10F86E005C18CDE215F13CF5CD0919CD42143CCD15
:10F87E004217CDDB16010603F1813CFA9618FE08FD
:10F88E00D296183C473E023D3DE1F5111C1905C2CA
:10F89E00A718362E2336302305362ECCF016C5E5A6
:10F8AE00D5CDE616E1062F047B965F237A9E57236D
:10F8BE00799E4F2B2BD2B618CDF91423CDDB16EB38
:10F8CE00E17023C10DC2A71805CAE7182B7EFE30C2
:10F8DE00CADB18FE2EC4F016F1CA061936452336B9
:10F8EE002BF2F718362D2F3C062F04D60AD2F91814
:10F8FE00C63A237023772371E1C901749411F7235B
:10F90E00CD1517B7E1E27118E900000080A086015D
:10F91E00102700E803006400000A00000100002127
:10F92E00C316E3E9CDCB16211819CDD816C1D1CD0A
:10F93E009A1678CA8119F24C19B7CAF603B7CABB20
:10F94E0014D5C579F67FCDE616F26919D5C5CD6DFC
:10F95E0017C1D1F5CD1517E17C1FE1222B21E12234
:10F96E002921DC2E19CCC316D5C5CD4E15C1D1CD4E
:10F97E008F15CDCB16013881113BAACD8F153A2CA0
:10F98E0021FE88D27616CD6D17C680C602DA76169F
:10F99E00F5213D15CD4514CD8615F1C1D1F5CD51CD
:10F9AE0014CDC31621C119CDF119110000C14AC3DE
:10F9BE008F1508402E9474704F2E776E02887AE65B
:10F9CE00A02A7C50AAAA7EFFFF7F7F0000808100C4
:10F9DE00000081CDCB16118D15D5E5CDE616CD8F58
:10F9EE0015E1CDCB167E23CDD81606F1C1D13DC87B
:10F9FE00D5C5F5E5CD8F15E1CDE916E5CD5414E16C
:10FA0E00C3FA19CD9A16215E20FA731A217F20CDE2
:10FA1E00D816215E20C886E6070600772387874F13
:10FA2E0009CDE916CD8F153A5D203CE6030600FEA2
:10FA3E000188325D2021771A87874F09CD4514CD75
:10FA4E00E6167B59EE4F4F36802B463680215C20D2
:10FA5E00347ED6ABC26A1A770C151CCDA514217F45
:10FA6E0020C3F216772B772B77C34E1A68B14668F0
:10FA7E0099E9926910D1756821D11ACD4514CDCB73
:10FA8E001601498311DB0FCDDB16C1D1CDF015CD9B
:10FA9E00CB16CD6D17C1D1CD511421D51ACD4B1426
:10FAAE00CD9A1637F2BD1ACD4214CD9A16B7F5F48B
:10FABE00C31621D51ACD4514F1D4C31621D91AC3B4
:10FACE00E219DB0F49810000007F05BAD71E86645C
:10FADE0026998758342387E05DA586DA0F4983CDB2
:10FAEE00CB16CD8D1AC1E1CDCB16EBCDDB16CD8766
:10FAFE001AC3EE15CD9A16FC2E19FCC3163A2C21FC
:10FB0E00FE81DA201B0100815159CDF015214B14D5
:10FB1E00E5212A1BCDE21921D11AC9094AD73B7812
:10FB2E00026E847BFEC12F7C74319A7D843D5A7D9A
:10FB3E00C87F917EE4BB4C7E6CAAAA7F0000008138
:10FB4E00C9D7C93E0CC3881CCD19147B328720C976
:10FB5E00CDB80CCDFD08ED538B20ED538D20C9CDC6
:10FB6E00FD08D5E146237EC37310CDB80CCDFD083C
:10FB7E00D5CDC1062CCDB80CCDFD08E3732372E1B3
:10FB8E00C9CDBB0CCDFD08C5212E217AFE00280C57
:10FB9E00CDC81B78FE302802702371237BCDC81B85
:10FBAE007AFE00200578FE30280270237123AF778D
:10FBBE002377C1212E21C3211147E60FFE0A3802F9
:10FBCE00C607C6304F780F0F0F0FE60FFE0A38022A
:10FBDE00C607C63047C9EB210000CDFE1BDA1E1C3E
:10FBEE001805CDFE1B381F29292929B56F18F313C7
:10FBFE001AFE20CAFE1BD630D8FE0A3805D607FEDE
:10FC0E000AD8FE103FC9EB7A4BE5CD7210E1C91E42
:10FC1E0026C30704CDBB0CCDFD08C5212E21061130
:10FC2E000578FE012808CB13CB1230F41804CB1341
:10FC3E00CB123E30CE0077230520F3AF772377C16A
:10FC4E00212E21C32111EB210000CD721CDA801C64
:10FC5E00D63029B56FCD721C30F6EB7A4BE5CD72EE
:10FC6E0010E1C9131AFE20CA721CFE30D8FE323FB4
:10FC7E00C91E28C30704C34C00C30800C300003EBE
:10FC8E0000329220C35300F5A0C1B83E00C9CDCCBE
:10FC9E0006C3F30A00000000000000000000000090
:10FCAE000000000000000000000000000000000046
:10FCBE000000000000000000000000000000000036
:10FCCE000000000000000000000000000000000026
:10FCDE000000000000000000000000000000000016
:02FFFE00000001
:020000040001F9
:10000000080E0001B16F04012093C292CA922091A0
:10001000C290CA90000E186F000EC16E000EC96E1D
:100020002095C294CA94000E086F000EBF6E000E99
:10003000C76E000E106F000EC06E000EC86E3F0E31
:100040000201046F04010097C6962F0E436F400E05
:10005000446F010E456F000E476F4691468B468FE9
:100060000095BE84C6940099BE88C698010E020110
:10007000D56FA00ED46FD189D18B0401009FC68E9D
:10008000070E0201766F0401009DBE8CC69C260EF1
:100090000201076FD28F000E046E000E036E03C5BF
:1000A00001F504C502F502C5C1F401C5BFF4BE9453
:1000B000FF0E0324F66EDF0E0420F76E0800F5C471
:1000C000C0F4BE84034A042A200E045CD8A0E7D7FB
:1000D000000E0401186F1969C96820952185CA842A
:1000E000000E086F0969C768000E106F1169C868B3
:1000F00000910181C68000930183C682009B018B21
:10010000C68A189D198DC98C189FC18EC99E010E73
:100110000201616F000E626F1E0E636F050E656F48
:10012000010E056F020E036F030E206F000E00011B
:10013000D56F000ED86F020ED96F040EDA6F7F0EE6
:10014000DB6F010EDC6F080EDD6F100EDE6F400EF0
:10015000DF6F800ED76F820ED66F010ED56F000E47
:10016000D86F020ED96F040EDA6F7F0EDB6F010EAF
:10017000DC6F080EDD6F200EDE6F400EDF6F800E2D
:10018000D76F820ED66F020ED56F010ED86F7F0E1D
:10019000D96F7F0EDA6F7F0EDB6F010EDC6F000E02
:1001A000DD6F000EDE6F000EDF6F820ED76F8C0EDC
:1001B000D66F000ED46F550E0401596FAA0E596FF9
:1001C0005991080E5D6F000E5E6F000E5F6F550E49
:1001D000596FAA0E596F5981B59AA58AD68EC280D9
:1001E000C282FFD7CFC401F5CEAA09D00150D8B43E
:1001F000D0C4C9F20001D785D795B59A1100000E79
:10020000C86E0104D8A403D0B7C4C0F407D001500D
:10021000D8A403D0C7C2C0F401D0C0680001D785FC
:10022000D795CEA0FED7C868B59A1100026A016AB8
:100230000401080E5D6F000E5E6F000E5F6F000E12
:0A024000F86E000100EF80F01100DD
:020000040020DA
:10000000FF0FFF0FFF0FFF0FFF0FFF0FFF0FFF0F80
:10001000FF0FFF0FFF0FFF0FFF0FFF0FFF0FFF0F70
:10002000FF0FFF0FFF0FFF0FFF0FFF0FFF0FFF0F60
:10003000FF0FFF0FFF0FFF0FFF0FFF0FFF0FFF0F50
:020000040030CA
:100000008C2FFFF79FFFFFFFFFFFFFFFFFFFFFFFAB
:10001000FFFFFFFFFFFFFFFFFFFFFFFFFFFFFFFFF0
:04002000FFFFFFFFE0
:00000001FF
