:0400000081EF00F09C
:1000080042044204420442044000420440004204C4
:1000180042044204420442044204420442044204A8
:1000280042044000400040004204420442044204AA
:100038004204420442044204420442044204420488
:100048004204420442044204400040004204420484
:10005800420442044204400042044204420442046E
:100068004204420442044204420442044204420458
:10007800420442044204420440006A4842044204E2
:100088004204420442044204420442044204420438
:10009800420442044204420440004204400040003A
:1000A8004204420442044204420442044204420418
:1000B8004204420442044204420442044204420408
:1000C80042044204420442044204420442044204F8
:1000D80042044204420442044204420442044204E8
:1000E80040004204420442044000400040004000F6
:1000F8004204420442044204FF00B6EFF2F0000E4C
:100108000E013D6F20EE2CF03351D9263451DA22FE
:100118003551DE180AE13651DE1807E13751DE188D
:1001280004E13851DE18D8B43ED033CE20FE34CEA8
:1001380021FE3DECE0F03D6F3D51D8A434D0300EA7
:100148003325176F000E3421186F35CE19FE36CEC1
:100158001AFE37CE1BFE38CE1CFE000E1E6F010E97
:100168001D6F20EE01F03351D9263451DA22DF50C9
:1001780048ECECF00009D8B407D00E0135693669AF
:1001880037693869010E3D6F0E0120EE2CF03351AE
:10019800D9263451DA2235CEDEF436CEDEF437CE27
:1001A800DEF438CEDEF43D511200A3CE90FDA4CE8D
:1001B80091FDA70E0D01926F0E0E936F58ECFCF097
:1001C8000E01A96FA951D8A443D0A551A611D8A44E
:1001D8000FD0A3CE58FEA4CE59FE000E5A6F000EC3
:1001E8005B6F000E5C6F000E5D6F81ECCCF02FD062
:1001F800A3CE96FEA4CE97FE000E996F000E986FC0
:10020800BAECEEF0A96F040EA919D8A402D0000E1A
:10021800A96FA951D8A41CD0A3CE4FFDA4CE50FDE0
:10022800A5CE51FDA6CE52FD4BECDBF0A3CE7CFE55
:10023800A4CE7DFE000E0E017F6F000E7E6FCEEC09
:10024800C7F0A96F040EA919D8A402D0000EA96F8F
:10025800A9511200000EFC6F20EE2CF0F251D926A5
:10026800F351DA22F451DE180AE1F551DE1807E1FC
:10027800F651DE1804E1F751DE18D8B43ED0F2CAC0
:10028800EFFAF3CAF0FA76ECDFF0FC6FFC51D8A471
:1002980034D0300EF225E96F000EF321EA6FF4CA6C
:1002A800EBFAF5CAECFAF6CAEDFAF7CAEEFA000E5E
:1002B800F06F010EEF6F20EE01F0F251D926F351E5
:1002C800DA22DF500AECEBF00009D8B407D00A01B3
:1002D800F469F569F669F769010EFC6F0A0120EE09
:1002E8002CF0F251D926F351DA22F4CADEF4F5CA19
:1002F800DEF4F6CADEF4F7CADEF4FC5112004ACD89
:10030800D9F44BCDDAF44CCDDEF44DCDDDF420EE4E
:1003180004F04A51D9264B51DA224ECDDEF44FCDA6
:10032800DDF420EE06F04A51D9264B51DA2250CDA1
:10033800DFF420EE07F04A51D9264B51DA22FF0E9E
:10034800DF6E20EE08F04A51D9264B51DA22000E12
:10035800DF6E4CCD42FD4DCD43FD0BEC18F04CCD7E
:1003680042FD4DCD43FD4ECD44FD4FCD45FD010E23
:100378000D01466F000E476F06ECFAF04ACD42FDBC
:100388004BCD43FDCC0E446FF10E456F22EC18F0B7
:1003980020EE02F04A51D9264B51DA22010EDE6EC8
:1003A800000EDD6E1200000E836F000E846F000ECB
:1003B800856F000E866F000E876F000E886F000E27
:1003C800896F000E8A6F838F7DB1878F83857BCD80
:1003D8007FFD7CCD80FD7DCD81FD7ECD82FD120E21
:1003E80005D0D8908233813380337F33E82EF9D714
:1003F8007FB1878583877BCD7FFD7CCD80FD7DCDDB
:1004080081FD7ECD82FD130E05D0D89082338133D5
:1004180080337F33E82EF9D77FB1878796C56FFD84
:1004280097C570FD83CD71FD84CD72FD85CD73FDBB
:1004380086CD74FD87CD75FD88CD76FD89CD77FD98
:100448008ACD78FDCEEC0CF01200050188298911BF
:10045800D8A430EC10F00901A251A46FA351A56FE4
:10046800A66BA76BA5C9A7F9A4C9A6F9A56BA46B28
:100478000B0EA4258A6F000EA5218B6F000EA621F6
:100488008C6F000EA7218D6F800E8E6F0B0E8F6FF5
:10049800000E916F2D0E906F9CECF1F00901A251A6
:1004A800A46FA351A56FA66BA76BA5C9A7F9A4C98B
:1004B800A6F9A56BA46B0B0EA4258A6F000EA521C7
:1004C8008B6F000EA6218C6F000EA7218D6F8AC539
:1004D8008EF98BC58FF9000E916F2D0E906FB2ECCF
:1004E800E1F0A2C988F5A3C989F5120005018E2992
:1004F8008F11D8A401EC10F00901A251A46FA351E7
:10050800A56FA66BA76BA5C9A7F9A4C9A6F9A56B82
:10051800A46B690EA4258A6F000EA5218B6F000EAF
:10052800A6218C6F000EA7218D6FAD0E8E6F0B0E5E
:100538008F6F000E916F2D0E906F9CECF1F00901FA
:10054800A251A46FA351A56FA66BA76BA5C9A7F964
:10055800A4C9A6F9A56BA46B690EA4258A6F000E21
:10056800A5218B6F000EA6218C6F000EA7218D6F21
:1005780090C58EF991C58FF9000E916F2D0E906F71
:10058800B2ECE1F0A2C98EF5A3C98FF51200080EEE
:100598000001B16F04012093C292CA922091C290C7
:1005A800CA90000E186F000EC16E400EC96E2095DD
:1005B800C284CA94000E086F000EBF6E000EC76E8C
:1005C800000E106F000EC06E000EC86E3F0E0201C6
:1005D800046F04010097C696710E436F000E446FB6
:1005E800030E456F000E476F4691468B468F009568
:1005F800BE84C6940099BE88C698000E0201056F95
:10060800010ED56FA00ED46FD189D18B0401009F44
:10061800C68E070E0201766F0401009DBE8CC69C33
:10062800260E0201076FD28F000E036F120032C828
:100638003FF833C840F8080120EE0BF03F51D926A7
:100648004051DA22DE50DE10DE10D8B41ED032C897
:100658000DF633C80EF634C80FF635C810F636C88E
:1006680011F637C812F620EE0BF03F51D92640514B
:10067800DA2201D812000500FA6EDE50FD6EDE5057
:10068800FE6EDE50FF6EFA50120034C83BF835C8D3
:100698003CF8000E3E6F000E3D6F12D032C813F6C4
:1006A80033C814F6FF0E0601156F7BECE6F03BC865
:1006B800D9F43CC8DAF4DF6E3B4B3C2B3D4B3E2B68
:1006C80036513D5D37513E59D8B01200E7D756CD67
:1006D80063FD57CD64FD0D0120EE0BF06351D92663
:1006E8006451DA22DE50DE10DE10D8B41ED056CDAA
:1006F80042FD57CD43FD58CD44FD59CD45FD5ACD5A
:1007080046FD5BCD47FD20EE0BF06351D9266451C1
:10071800DA2201D812000500FA6EDE50FD6EDE50B6
:10072800FE6EDE50FF6EFA50120058CD5FFD59CDB7
:1007380060FD000E626F000E616F11D056CD48FD4E
:1007480057CD49FDFF0E4A6F68ECEAF05FCDD9F44A
:1007580060CDDAF4DF6E5F4B602B614B622B5A5130
:10076800615D5B516259D8B01200E8D720EE02F003
:100778004A51D9264B51DA22DE50DE10D8B4120085
:100788004E514F11D8B416D04CC852F9010E090178
:10079800536F522B02D0D8905337522FFCD70801F1
:1007A80020EE08F04A51D9264B51DA22090153515B
:1007B800DF1219D04CC852F9010E0901536F522BA0
:1007C80002D0D8905337522FFCD709015351FF0A52
:1007D800546F080120EE08F04A51D9264B51DA220D
:1007E80009015451DF164AC841F84BC842F80A0EAD
:1007F8000801436F20EE08F04A51D9264B51DA22FE
:10080800DF50446FA9EC0DF0120020EE02F04A51BF
:10081800D9264B51DA22DE50DE10D8B412004E51E0
:100828004F11D8A41AD04CC852F9010E0901536FC0
:10083800522B02D0D8905337522FFCD7090153516D
:10084800FF0A546F080120EE07F04A51D9264B5190
:10085800DA2209015451DF1615D04CC852F9010E9D
:100868000901536F522B02D0D8905337522FFCD71F
:10087800080120EE07F04A51D9264B51DA22090126
:100888005351DF124AC841F84BC842F8000E08011C
:10089800436F20EE07F04A51D9264B51DA22DF5038
:1008A800446FA9EC0DF0120032C83FF833C840F885
:1008B800080120EE08F03F51D9264051DA22DE50D7
:1008C800DE10DE10D8B41ED032C80DF633C80EF6CE
:1008D80034C80FF635C810F636C811F637C812F600
:1008E80020EE08F03F51D9264051DA2201D81200F3
:1008F8000500FA6EDE50FD6EDE50FE6EDE50FF6EB5
:10090800FA50120034C83BF835C83CF8000E3E6F68
:10091800000E3D6F11D032C813F633C814F63BC829
:10092800D9F43CC8DAF4DF500601156F7BECE6F029
:100938003B4B3C2B3D4B3E2B36513D5D37513E5991
:10094800D8B01200E8D7CBEC02F0040E0D017C6F92
:10095800EC0E7D6F25EC14F0080E7C6FF40E7D6FA5
:1009680025EC14F0110E0E01E86F3C0EE76FCB0E6C
:10097800E82EFED7E72FFCD7E82FFAD7EF0E0D01A8
:100988007C6FF30E7D6F25EC14F0040E7C6FEC0E7B
:100998007D6F25EC14F0B2ECF6F0A7ECD0F0E5ECA6
:1009A80017F003ECB4F0D4BFFFD7000E0D01976F1A
:1009B800000E986F000E996F000E9A6FC00E9B6F15
:1009C800E80E9C6F010E9E6F000E9D6F14ECE3F015
:1009D800040E7C6FEC0E7D6F25EC14F0C8ECF3F080
:1009E800FFD756CD63FD57CD64FD20EE0BF0635164
:1009F800D9266451DA22DE50DE10DE10D8B41ED0BB
:100A080056CD42FD57CD43FD58CD44FD59CD45FD4A
:100A18005ACD46FD5BCD47FD20EE0BF06351D9263C
:100A28006451DA2201D812000500FA6EDE50FD6E1C
:100A3800DE50FE6EDE50FF6EFA50120058CD5FFD9C
:100A480059CD60FD000E626F000E616F11D056CD5A
:100A580048FD57CD49FDFF0E4A6FC6ECE9F05FCD62
:100A6800D9F460CDDAF4DF6E5F4B602B614B622BFB
:100A78005A51615D5B516259D8B01200E8D7446F92
:100A8800B00EF66EE40EF76E000EF86E0900F55023
:100A98000D01445DD8A03CD0B10EF66EE40EF76EA1
:100AA800000EF86E44510900F55CD8A005D0000E80
:100AB800436F010E426F1200B20EF66EE40EF76E2F
:100AC800000EF86E0900F550445DD8A00BD0B30EA7
:100AD800F66EE40EF76E000EF86E44510900F55CF0
:100AE800D8B0E5D7B40EF66EE40EF76E000EF86EC9
:100AF8000900F550445DD8A00BD0B50EF66EE40E93
:100B0800F76E000EF86E44510900F55CD8B0CFD7E7
:100B1800000E436F000E426F120032C83FF833C810
:100B280040F820EE08F03F51D9264051DA22DE5035
:100B3800DE10DE10D8B41ED032C80DF633C80EF65B
:100B480034C80FF635C810F636C811F637C812F68D
:100B580020EE08F03F51D9264051DA2201D8120080
:100B68000500FA6EDE50FD6EDE50FE6EDE50FF6E42
:100B7800FA50120034C83BF835C83CF8000E3E6FF6
:100B8800000E3D6F11D032C813F633C814F63BC8B7
:100B9800D9F43CC8DAF4DF500601156FD0ECE7F061
:100BA8003B4B3C2B3D4B3E2B36513D5D37513E591F
:100BB800D8B01200E8D73FD042CDD9F443CDDAF40B
:100BC800DF50486F44CDF6F445CDF7F4000EF86ECB
:100BD800250EF76403D00800F55005D0F6C4E9F4F3
:100BE800F7C4EAF4EF500D014819D8B420D042CD2B
:100BF800D9F443CDDAF4DF50486F44CDF6F445CD4F
:100C0800F7F4000EF86E250EF76403D00800F550CF
:100C180005D0F6C4E9F4F7C4EAF4EF500D01496FC2
:100C28004951485D426F436BD8A043071200424BBD
:100C3800432B444B452B4607D8A047074629BCE120
:100C48004729D8A4B9D7000E436F000E426F12008F
:100C580056CD63FD57CD64FD20EE08F06351D926CB
:100C68006451DA22DE50DE10DE10D8B41ED056CD24
:100C780042FD57CD43FD58CD44FD59CD45FD5ACDD4
:100C880046FD5BCD47FD20EE08F06351D92664513F
:100C9800DA2201D812000500FA6EDE50FD6EDE5031
:100CA800FE6EDE50FF6EFA50120058CD5FFD59CD32
:100CB80060FD000E626F000E616F10D056CD48FDCA
:100CC80057CD49FD5FCDD9F460CDDAF4DF504A6FD6
:100CD800C6ECE9F05F4B602B614B622B5A51615DAA
:100CE8005B516259D8B01200E9D756CD63FD57CD94
:100CF80064FD20EE08F06351D9266451DA22DE50F3
:100D0800DE10DE10D8B41ED056CD42FD57CD43FDBF
:100D180058CD44FD59CD45FD5ACD46FD5BCD47FD27
:100D280020EE08F06351D9266451DA2201D8120066
:100D38000500FA6EDE50FD6EDE50FE6EDE50FF6E70
:100D4800FA50120058CD5FFD59CD60FD000E626F5C
:100D5800000E616F10D056CD48FD57CD49FD5FCDCF
:100D6800D9F460CDDAF4DF504A6F68ECEAF05F4BF3
:100D7800602B614B622B5A51615D5B516259D8B04F
:100D88001200E9D741C845F842C846F8080120EEE4
:100D980006F04551D9264651DA22DE50DE10D8A495
:100DA80018D0C080D89043374437D8904337443759
:100DB800D8904337443703D0C08200F0C09208016E
:100DC8004307D8A044074329F7E14429D8B41200BF
:100DD800F3D74969000E486F000E476F12D041C81B
:100DE80032F842C833F8490E0801346F080E356FDF
:100DF800000E376F010E366F58EC04F00801474BB0
:100E0800482B4351475D4851800A0601186F080175
:100E18004451800A06011859D8B01200E0D7000ED4
:100E2800126F000E116F07014E51D8B402D0010E97
:100E380001D0000E0601111307014F51D8B402D09A
:100E48000601118307015051D8B402D0060111855B
:100E580007015151D8B402D00601118711C60DF609
:100E680012C60EF674EC17F0000E0601126F000E93
:100E7800116F07015251D8B402D0010E01D0000EF3
:100E88000601111307015351D8B402D0060111838A
:100E980007015451D8B402D00601118507015551F4
:100EA800D8B402D00601118711C60DF612C60EF687
:100EB80081EC17F0120000FF060006A5065A06FF8F
:100EC8000A000AA50A5A0AFF008040C020A060E074
:100ED800109050D030B070F00008040C020A060ED2
:100EE8000109050D030B070F008040C020A060E03A
:100EF800109050D030B070F00008040C020A060EB2
:100F08000109050D030B070F1A0000001A00000065
:100F18001A0000001A000000000000000000000095
:100F280000000000000000008000000080000000B9
:100F380080000000800000000000000000000000A9
:100F4800000000006440000020EE02F06F51D92636
:100F58007051DA22DE50DE10D8B4120073517411C9
:100F6800D8A417D071CD75FD010E766F752B02D000
:100F7800D8907637752FFCD70D017651FF0A776F19
:100F880020EE07F06F51D9267051DA227751DF161B
:100F980013D071CD75FD010E766F752B02D0D890E8
:100FA8007637752FFCD70D0120EE07F06F51D92643
:100FB8007051DA227651DF126FCD65FD70CD66FD76
:100FC800000E676F20EE07F06F51D9267051DA22B4
:100FD800DF50686F15EC0EF0120020EE02F06F5132
:100FE800D9267051DA22DE50DE10D8B412007351BF
:100FF8007411D8B414D071CD75FD010E766F752BB0
:1010080002D0D8907637752FFCD70D0120EE08F066
:101018006F51D9267051DA227651DF1216D071CD70
:1010280075FD010E766F752B02D0D8907637752F27
:10103800FCD70D017651FF0A776F20EE08F06F514B
:10104800D9267051DA227751DF166FCD65FD70CD44
:1010580066FD0A0E676F20EE08F06F51D9267051B1
:10106800DA22DF50686F15EC0EF0120065CD6BFDCB
:1010780066CD6CFD0D0120EE06F06B51D9266C5142
:10108800DA22DE50DE10D8A418D0C080D890673796
:101098006837D89067376837D8906737683703D08C
:1010A800C08200F0C0920D016707D8A068076729C1
:1010B800F7E16829D8B41200F3D76F69000E6E6F94
:1010C800000E6D6F11D065CD56FD66CD57FD6F0EC4
:1010D800586F0D0E596F000E5B6F010E5A6F79EC49
:1010E80006F00D016D4B6E2B67516D5D6E51800AD8
:0E10F800696F6851800A6959D8B01200E4D7B8
:10110800FAC40DF5FBC40EF5F6C40FF5F7C410F5D7
:10111800F8C411F5F5C412F5D69EB7A02BD0C7C2F6
:1011280013F51350D8B404D0135021EC12F022D088
:10113800B5AA06D0000E07010F6F010E0E6F1AD068
:10114800C2906A0EE82EFED700D0B5AA02D0C2809F
:10115800F1D7000E06010E6F010E0D6F20EC15F091
:10116800DCEC17F0000E06010E6F000E0D6F20EC80
:1011780015F0C280D68E12C5F5F411C5F8F410C565
:10118800F7F40FC5F6F40EC5FBF40DC5FAF411001B
:101198000801456F010E0801466F11D0000E466F19
:1011A8001DD0F30E09016C6FEE0E6D6F45C86EF918
:1011B8006F6B42C870F9716B07EC14F00FD0425195
:1011C800000AD8B4EBD7010AD8B4EBD7030AD8B4CD
:1011D800E8D7010AD8B4E5D7070AE3D70901AC5123
:1011E800AD11D8B415D0440E6C6FED0E6D6F45C8B7
:1011F8006EF96F6B42C870F9716B43C872F944C8D5
:1012080073F9746B756B46C876F9776B07EC14F055
:10121800080146511200000E0601166F000E176FE6
:10122800000E186F000E196F1151121113111411BD
:10123800D8B42AD0010E156F06D0D89011371237BE
:1012480013371437152B14AFF8D7D890163717372C
:101258001837193711510D5D12510E5913510F5985
:1012680014511059D8A009D011510D5F12510E5BBD
:1012780013510F5B1451105B1681D890143313333C
:1012880012331133152FE1D716C60DF617C60EF611
:1012980018C60FF619C610F61200000E4B6F000E96
:1012A8004C6F000E4D6F000E4E6F4651471148119E
:1012B8004911D8B42AD0010E4A6F06D0D8904637C3
:1012C8004737483749374A2B49AFF8D7D8904B3773
:1012D8004C374D374E374651425D47514359485177
:1012E800445949514559D8A009D04651425F475100
:1012F800435B4851445B4951455B4B81D890493326
:101308004833473346334A2FE1D74BCD42FD4CCDC6
:1013180043FD4DCD44FD4ECD45FD12004AC842F86F
:101328004BC843F84CC844F84DC845F84EC846F871
:101338004FC847F883ECEDF0000E9B6F4CC897F947
:101348004DC898F9000E9A6F000E996F0AD097C988
:10135800D9F498C9DAF4DF509B27974B982B994B0F
:101368009A2B08014E510901995D08014F51090155
:101378009A59D8A0ECD7210E6C6FF40E6D6F4AC83D
:101388006EF94BC86FF9CC0E706FF10E716F9BC977
:1013980072F9736B07EC14F0120030D042CDD9F417
:1013A80043CDDAF4DF50D8B411D042CDD9F443CDCF
:1013B800DAF4DF50486F44CDF6F445CDF7F4000E6B
:1013C800F86E0800F5504819D8B414D042CDD9F4B5
:1013D80043CDDAF4DF50486F44CDF6F445CDF7F449
:1013E800000EF86E0800F550485D426F436BD8A0B8
:1013F80043071200424B432B444B452B4607D8A0CA
:1014080047074629CBE14729D8A4C8D7000E436F20
:10141800000E426F120020EE02F05251D9265351AD
:10142800DA22DE50DE10D8B412005451551156118C
:101438005711D8B4120020EE08F05251D926535152
:10144800DA225451581508014A6F090110EE08F0C4
:101458005251E1265351E222E75008014B6F09012E
:101468005451FF0A08014B154A11DF6E52C941F861
:1014780053C942F80A0E436F090120EE08F0525191
:10148800D9265351DA22DF500801446FA9EC0DF038
:101498001200FE0E070115250901A66FFF0E0701B0
:1014A80016210901A76F050181510901A26F0501E4
:1014B80082510901A36FA46BA56BA3C9A5F9A2C9A1
:1014C800A4F9A36BA26BA651A2258A6FA751A321E9
:1014D8008B6F000EA4218C6F000EA5218D6F250E39
:1014E8008E6F070E8F6F000E916F020E906FB2EC29
:1014F800E1F001EC10F030EC10F07B517C11D8B425
:101508001200000E07010F6F010E0E6F12001A0E67
:101518000D014B25426F000E4C21436F7CEC14F0FB
:1015280042CD51FD43CD52FD536B546B49CDD9F497
:101538004ACDDAF4030EDE18D8A41CD0140E4B25BD
:10154800426F000E4C21436F7CEC14F042514D6FFA
:1015580043514E6F4F6B506B4ECD50FD4DCD4FFDEF
:101568004E6B4D6B4D5151134E5152134F515313F6
:101578005051541351CD49FD52CD4AFD53CD4BFD29
:1015880054CD4CFD1200000E176F000E166F12C6D8
:10159800D9F413C6DAF4DEC414F6DDC415F614C69D
:1015A800D9F415C6DAF4DF50186F600E186505D047
:1015B800670E186102D0200E185F2F0E186503D031
:1015C800390E186507D0400E18650ED0460E1865FE
:1015D80001D00AD0164B172B12C6D9F413C6DAF469
:1015E800DE2A000EDD22D3D712C60DF613C60EF67C
:1015F8009FEC15F016C612F617C613F61200ACCDFE
:101608008FFDADCD90FDAECD91FDAFCD92FDB0CDAE
:1016180093FDB1CD94FD3FECF3F0000EB66FAECD67
:10162800B2FDAFCDB3FD000EB56F000EB46F0AD09A
:10163800B2CDD9F4B3CDDAF4DF50B627B24BB32B21
:10164800B44BB52BB051B45DB151B559D8A0F0D752
:10165800210E7C6FF40E7D6FACCD7EFDADCD7FFD90
:10166800CC0E806FF10E816FB6CD82FD836B25ECB9
:1016780014F0120006011A51D8B41200A6C9D2FA01
:10168800010E0A01D36F000ED46FD22B03D0D8906D
:10169800D337D437D22FFBD7050179510A01D31795
:1016A80005017A510A01D417D351D411D8A41200D4
:1016B800A6C99EF9A7C99FF9B2EC12F0A6C9D2FA39
:1016C800010E0A01D36F000ED46FD22B03D0D8902D
:1016D800D337D437D22FFBD70A01D3510501791359
:1016E8000A01D45105017A13120068CDD9F469CDE5
:1016F800DAF4DEC46FFDDDC470FD20EE06F068513B
:10170800D9266951DA22DF506B6FD8906B354109C1
:101718006C6F6ACD6DFD6FCD46FD70CD47FD84ECD5
:1017280011F06FCD56FD70CD57FD6C0E0D01586F41
:101738000D0E596F000E5B6F020E5A6F2CEC06F0FF
:101748006FCD65FD70CD66FDD5EC16F06E6F6FCD73
:1017580046FD70CD47FD6DEC15F06E5112006CCC56
:10176800D9F46DCCDAF4DE50DE10D8B427D06CCCC6
:10177800D9F46DCCDAF4DEC4FDFADDC4FEFAFDCA94
:10178800D9F4FECADAF4DF50D8B418D06CCCD9F446
:101798006DCCDAF4DEC428F8DDC429F8000E08019F
:1017A8002A6F000E2B6F000E2D6F100E2C6F57EC4A
:1017B800DAF028C87BF529C87CF505D0000E0501AC
:1017C8007C6F010E7B6F000E0C016B6F000E6A6F51
:1017D8001200986F60C599FD61C59AFD94CD9DFD75
:1017E80095CD9EFD90CD80FD91CD81FD92CD82FD60
:1017F80093CD83FD9DCD84FD9ECD85FD0D01985132
:101808003DECFFF080CD9BFD81CD9CFD9B519C1153
:10181800D8B403D0EBECFFF0120099CD56FD9ACD69
:1018280057FD010E9D25586F000E9E21596FFF0E22
:1018380096255A6FFF0E97215B6F6BEC03F0EBEC6C
:10184800FFF0120096C54AF897C54BF8000E08013C
:101858004D6F050E4C6F000E4F6F010E4E6F09EC69
:1018680004F096C54AF897C54BF8000E08014D6F6D
:10187800060E4C6F000E4F6F010E4E6F09EC04F010
:10188800050181510901686F050182510901696FDC
:101898006A6B6B6B69C96BF968C96AF9696B686BC4
:1018A80068C94CF869C94DF86AC94EF86BC94FF850
:1018B80094ECFFF01200446FAC0EF66EE40EF76E77
:1018C800000EF86E0900F5500D01445DD8A026D031
:1018D800AD0EF66EE40EF76E000EF86E4451090078
:1018E800F55CD8A005D0000E436F010E426F1200C0
:1018F800AE0EF66EE40EF76E000EF86E0900F550A7
:10190800445DD8A00BD0AF0EF66EE40EF76E000E55
:10191800F86E44510900F55CD8B0E5D7000E436F66
:10192800000E426F120096C56FFD97C570FD000E40
:10193800726F050E716F000E746F010E736FA8EC55
:1019480007F096C56FFD97C570FD000E726F060E05
:10195800716F000E746F010E736FA8EC07F005012C
:1019680081510D018B6F050182510D018C6F8D6BBB
:101978008E6B8CCD8EFD8BCD8DFD8C6B8B6B8BCD5B
:101988007BFD8CCD7CFD8DCD7DFD8ECD7EFDD7EC98
:1019980001F0120020EE02F06F51D9267051DA22C0
:1019A800DE50DE10D8B41200715172117311741127
:1019B800D8B4120020EE08F06F51D9267051DA22FF
:1019C80071517515796F10EE08F06F51E12670515D
:1019D800E222E7507A6F7151FF0A7A157911DF6EAA
:1019E8006FCD65FD70CD66FD0A0E676F20EE08F0BD
:1019F8006F51D9267051DA22DF50686F15EC0EF05E
:101A0800120006011A51D8B426D0820E09016C6F53
:101A1800F20E6D6F66C56EF967C56FF968C570F926
:101A280069C571F907EC14F066C58AF967C58BF9C1
:101A380068C58CF969C58DF9830E09018E6F050E8D
:101A48008F6F000E916F010E906FB2ECE1F0000EF7
:101A580006011A6F07D0510E09016C6FF40E6D6FF5
:101A680007EC14F0000E0C016B6F000E6A6F120089
:101A78000DC6D9F40EC6DAF40FC6DFF406010D4B15
:101A88000E2B10510F6F1151106F1251116F126BF5
:101A98000DC6D9F40EC6DAF40FC6DFF40D4B0E2BC3
:101AA80010510F6F1151106F1251116F126B0DC63B
:101AB800D9F40EC6DAF40FC6DFF40D4B0E2B105115
:101AC8000F6F1151106F1251116F126B0DC6D9F4AF
:101AD8000EC6DAF40FC6DFF40D4B0E2B120042CD02
:101AE800D9F443CDDAF444CDDFF4424B432B4551CE
:101AF800446F4651456F4751466F476B42CDD9F405
:101B080043CDDAF444CDDFF4424B432B4551446FC7
:101B18004651456F4751466F476B42CDD9F443CD87
:101B2800DAF444CDDFF4424B432B4551446F465120
:101B3800456F4751466F476B42CDD9F443CDDAF430
:101B480044CDDFF4424B432B120041C8D9F442C8BC
:101B5800DAF4DEC448F8DDC449F820EE06F0415155
:101B6800D9264251DA22DF500601186FD89018356D
:101B780040090801456F43C846F844C847F848C8B3
:101B880011F649C812F60AEC11F048C832F849C8EB
:101B980033F8450E0801346F080E356F000E376FA5
:101BA800030E366F91EC05F048C811F649C812F6D5
:101BB80086EC15F01200000E6F6F000E6E6F050EAA
:101BC80009016C6FFB0E6D6F6ECCFDFA6FCCFEFADF
:101BD8000A01D890FD37FE37D890FD37FE37D890E8
:101BE800FD37FE37560EFD25F66EEA0EFE21F76E1E
:101BF800F86A000EF8220900F5C46EF90A00F5C467
:101C08006FF907EC14F00C016E4B6F2B6F5104E168
:101C18000D0E6E5DD8A0D3D7000E6B6F000E6A6FE5
:101C2800120065CDD9F466CDDAF4DEC46DFDDDC4ED
:101C38006EFD20EE06F06551D9266651DA22DF5096
:101C4800696FD890693540096A6F67CD6BFD68CDBB
:101C58006CFD6DCD46FD6ECD47FD84EC11F06DCD6C
:101C680056FD6ECD57FD6A0E0D01586F0D0E596F5A
:101C7800000E5B6F030E5A6F2CEC06F06DCD46FD1F
:101C88006ECD47FD6DEC15F01200535154115511EE
:101C98005611D8B424D0010E576F06D0D8905337B8
:101CA800543755375637572B56AFF8D753514F5DE2
:101CB800545150595551515956515259D8A008D0DC
:101CC80053514F5F5451505B5551515B5651525BC4
:101CD800D8905633553354335333572FE7D74FCD16
:101CE8004FFD50CD50FD51CD51FD52CD52FD12004A
:101CF8002C512D112E112F11D8B424D0010E306F74
:101D080006D0D8902C372D372E372F37302B2FAFC2
:101D1800F8D72C51285D2D5129592E512A592F5168
:101D28002B59D8A008D02C51285F2D51295B2E5152
:101D38002A5B2F512B5BD8902F332E332D332C3326
:101D4800302FE7D728C828F829C829F82AC82AF838
:101D58002BC82BF81200000E176F000E166F12C654
:101D6800D9F413C6DAF4DEC414F6DDC415F614C6C5
:101D7800D9F415C6DAF4DF50186F200E1819D8B444
:101D880011D02C0E1819D8B40DD01851D8B40AD0C7
:101D9800164B172B12C6D9F413C6DAF4DE2A000E36
:101DA800DD22DDD712C60DF613C60EF66AEC12F068
:101DB80016C612F617C613F61200000E4A6F42CD69
:101DC8004BFD43CD4CFD44514B25466F45514C21AD
:101DD800476F1CD04BCDD9F44CCDDAF4DF504A1BF9
:101DE8004B4B4C2B000E496F000E486F4AAF02D088
:101DF800890E4A1BD8904A37484B492B49BFF6D71A
:101E0800495104E1080E485DD8A0F0D746514B5D12
:101E180047514C59D8A0DED74A5112000801426FE9
:101E280005019851D8B405D0AA0E08014219D8A4C2
:101E38001200AA0E08014219D8A404D0000E050108
:101E4800986F120042AD0CD0B90E09016C6FF20EFA
:101E58006D6F000E6F6FA00E6E6F07EC14F0FF0031
:101E6800080142AF1200240E09016C6FF30E6D6F6A
:101E7800000E6F6FA00E6E6F07EC14F0FFD7000E08
:101E8800156F0DC616F60EC617F60F511625116FEB
:101E980010511721126F1CD016C6D9F417C6DAF4E0
:101EA800DF50151B164B172B000E146F000E136F07
:101EB80015AF02D0890E151BD8901537134B142B6C
:101EC80014BFF6D7145104E1080E135DD8A0F0D75B
:101ED8001151165D12511759D8A0DED715511200AD
:101EE800050175517611D8B423D0A80E7325D96E83
:101EF8000C0E7421DA6EDF500D01476F010E0501DB
:101F080073250D01426F000E050174210D01436F09
:101F1800000E456F500E446FA4EC13F042CD73F5DC
:101F280043CD74F505017507D8A07607A78004D0BE
:101F3800B7A0D6D7C7C247FD0D014751120004D03C
:101F4800134B142B154B162B15C6D9F416C6DAF4F9
:101F5800DF50A6EC17F0176F13C6F6F414C6F7F4A3
:101F6800000EF86E0800F550A6EC17F0186F175120
:101F7800185D196F1951D8A40BD013C6F6F414C6FE
:101F8800F7F4000EF86E0800F5500009D8A4D8D769
:101F98001951136F146B13BF140712000501755103
:101FA8007611D8B423D0A80E7325D96E0C0E7421DF
:101FB800DA6EDF500601126F010E05017325060166
:101FC8000D6F000E0501742106010E6F000E106FD3
:101FD800500E0F6FE6EC13F00DC673F50EC674F5D0
:101FE80005017507D8A07607A78004D0B7A0D6D773
:101FF800C7C212F606011251120005018E298F116F
:10200800D8B412008E5109019E6F05018F51090144
:102018009F6FA06BA16B9FC9A1F99EC9A0F99F6B87
:102028009E6B690E9E258A6F000E9F218B6F000E96
:10203800A0218C6F000EA1218D6FAD0E8E6F0B0E3F
:102048008F6F000E916F2D0E906FB2ECE1F0000EC5
:1020580005018F6F8E69120088298911D8B4120082
:10206800885109019E6F0501895109019F6FA06B75
:10207800A16B9FC9A1F99EC9A0F99F6B9E6B0B0E1E
:102088009E258A6F000E9F218B6F000EA0218C6FFA
:10209800000EA1218D6F800E8E6F0B0E8F6F000EBC
:1020A800916F2D0E906FB2ECE1F0000E0501896F73
:1020B800886912000D018F6F0D018F51D8B40ED0B1
:1020C8000901AC51AD11D8B407D0810E0D017C6F58
:1020D800F40E7D6F25EC14F0020E12000901A829F8
:1020E80013E1A92911E1AA290FE1AB29D8A40CD041
:1020F800AC51AD11D8B4F0D7CC0E0D017C6FF50EF4
:102108007D6F25EC14F0E8D7000E1200000E4A6F20
:10211800000E4B6F000E4C6F000E4D6F42A108D0A1
:1021280046514A2747514B2348514C2349514D2387
:10213800D8904637473748374937D89045334433DE
:10214800433342334251431144114511D8A4E6D7D1
:102158004ACD42FD4BCD43FD4CCD44FD4DCD45FD13
:102168001200000E156F000E166F000E176F000E8E
:10217800186F0DA108D011511527125116231351AC
:10218800172314511823D8901137123713371437DF
:10219800D89010330F330E330D330D510E110F112C
:1021A8001011D8A4E6D715C60DF616C60EF617C632
:1021B8000FF618C610F6120096C50DF697C50EF65E
:1021C8009AEC17F00D510E11D8B417D096C54AF8ED
:1021D80097C54BF8000E08014D6F000E4C6F0901B2
:1021E80057515811D8A402D0010E01D0000E080191
:1021F8004E6F4F6BBAEC03F012000901575158119A
:10220800D8A402D0C2841200C294120011C613F6D8
:1022180012C614F6060120EE05F01351D926145102
:10222800DA22C8C4DFF4C896C898C88A20EE03F03A
:102238001351D9261451DA22DF50D8B402D0C088FD
:1022480001D0C098C08611C60DF612C60EF6000E53
:102258000601106F010E0F6FF5EC17F01200426FB8
:1022680008014251D8B40DD00901AC51AD11D8B410
:1022780006D0810E6C6FF40E6D6F07EC14F0020E31
:1022880012000901A82912E1A92910E1AA290EE1E1
:10229800AB29D8A40BD0AC51AD11D8B4F0D7CC0E23
:1022A8006C6FF50E6D6F07EC14F0E9D7000E120095
:1022B8007CCD7EFD7DCD7FFD20EE05F07E51D926BB
:1022C8007F51DA22C8C4DFF4C890C892C88420EECF
:1022D80003F07E51D9267F51DA22DF50D8B402D0DC
:1022E800C08201D0C092C0807CCD78FD7DCD79FDC3
:1022F800000E0D017B6F010E7A6FFBEC11F01200DE
:1023080046CD48FD47CD49FD20EE05F04851D92678
:102318004951DA22C8C4DFF4C896C898C88A20EEA2
:1023280003F04851D9264951DA22DF50D8B402D0F7
:10233800C08801D0C098C08646CD42FD47CD43FD38
:10234800000E0D01456F010E446FEDEC17F0120001
:1023580059C95BF95AC95CF920EE05F05B51D926D9
:102368005C51DA22C8C4DFF4C890C892C88420EE51
:1023780003F05B51D9265C51DA22DF50D8B402D081
:10238800C08201D0C092C08059C955F95AC956F9BE
:10239800000E0901586F010E576FE0EC10F01200A3
:1023A80004D0424B432B444B452B44CDF6F445CD4A
:1023B800F7F4000EF86E0800F5C446FD42CDD9F4D6
:1023C80043CDDAF4DF50476F4651475D486F4851B7
:1023D800D8A407D042CDD9F443CDDAF4DF50D8A43D
:1023E800E0D74851426F436B42BF4307120096C57E
:1023F80042FD97C543FD8EEC17F042514311D8B406
:1024080014D096C56FFD97C570FD000E726F000E53
:10241800716F7A517B11D8A402D0010E01D0000E41
:10242800736F746BF1EC07F012007A517B11D8A42A
:1024380002D0C2841200C29412000C6E05017651BB
:1024480004E1400E755DD8A002D0A7901200755126
:10245800732506010D6F05017651742106010E6F73
:10246800000E106F500E0F6FE6EC13F0A80E0D253E
:10247800D96E0C0E0E21DA6E0CC5DFF40501754B12
:10248800762B120009019E51A06F9F51A16FA26B7C
:10249800A36BA1C9A3F9A0C9A2F9A16BA06B660E91
:1024A800A0258A6F000EA1218B6F000EA2218C6FD0
:1024B800000EA3218D6F92C58EF993C58FF9000E7A
:1024C800916F030E906FB2ECE1F0120012D00DC6BE
:1024D800D9F40EC6DAF4DFC40FF6010EDE26DFC427
:1024E80010F6000EDD220FC6D9F410C6DAF4000E7D
:1024F800DF6E0DC6D9F40EC6DAF4DEC40FF6DDC4FD
:1025080010F60FC6D9F410C6DAF4200EDE18D8A4D7
:102518001200DDD70DC60FF60EC610F603D0060161
:102528000F4B102B0FC6F6F410C6F7F4000EF86E1A
:10253800250EF76403D00800F55005D0F6C4E9F479
:10254800F7C4EAF4EF500009D8A4E9D706010D5101
:102558000F5D0D6F0E5110590E6F120009019E513B
:10256800A06F9F51A16FA26BA36BA1C9A3F9A0C9CA
:10257800A2F9A16BA06B080EA0258A6F000EA121FD
:102588008B6F000EA2218C6F000EA3218D6F8CC55E
:102598008EF98DC58FF9000E916F030E906FB2EC16
:1025A800E1F012007CCD86FD7DCD87FD000E886FA1
:1025B800000E896F000E8A6F800E846F0D0E856F76
:1025C800860E586F0D0E596F7ECD5AFD7FCD5BFD7F
:1025D800840E5C6F0D0E5D6FA5EC88F086CDD9F486
:1025E80087CDDAF4000EDF6E12003BC843F83CC812
:1025F80044F8000E456F000E466F000E476F3F0E01
:10260800416F080E426F430E316F080E326F3DC89E
:1026180033F83EC834F8410E356F080E366F00ECBB
:1026280080F043C8D9F444C8DAF4000EDF6E120013
:1026380042CDF6F443CDF7F4000EF86E0800F550DD
:102648004419D8A405D042CD42FD43CD43FD120024
:1026580042CDF6F443CDF7F4424B432B000EF86E0F
:102668000800F5500009D8A4E3D7000E426F000E09
:10267800436F120044CD4BFD45CD4CFD42CD49FD85
:1026880043CD4AFD10D04BCDD9F44CCDDAF4DF5010
:10269800486F4B4B4C2B49CDD9F44ACDDAF448CD91
:1026A800DFF4494B4A2B4607D8A047074629EBE1F8
:1026B8004729D8B41200E7D70FC616F610C617F682
:1026C8000DC614F60EC615F610D016C6D9F417C6E0
:1026D800DAF4DF50136F164B172B14C6D9F415C64E
:1026E800DAF413C6DFF4144B152B1107D8A0120720
:1026F8001129EBE11229D8B41200E7D71A0E060106
:1027080013250D6F000E14210E6F15C60FF616C691
:1027180010F6C1EC16F011C6D9F412C6DAF4030E9D
:10272800DE18D8A41200140E13250D6F000E142104
:102738000E6F17C60FF618C610F6C1EC16F0120089
:1027480044514511D8B418D0010E466F04D0D89022
:1027580044374537462B45AFFAD74451425D45517A
:102768004359D8A004D04451425F4551435BD890A7
:1027780045334433462FF1D742CD42FD43CD43FD87
:1027880012001A0E4825426F000E4921436F4ACDA8
:1027980044FD4BCD45FD99EC16F046CDD9F447CD17
:1027A800DAF4030EDE18D8A41200140E4825426F7E
:1027B800000E4921436F4CCD44FD4DCD45FD99ECAC
:1027C80016F012000F511011D8B418D0010E116F65
:1027D80004D0D8900F371037112B10AFFAD70F51FC
:1027E8000D5D10510E59D8A004D00F510D5F105136
:1027F8000E5BD89010330F33112FF1D70DC60DF69D
:102808000EC60EF61200000E08013D6F000E3E6F58
:10281800FA0E3F6F2F0E406F000E416F6E0E3B6F2A
:10282800090E3C6F3D0E316F080E326F6CC933F8DC
:102838006DC934F83B0E356F080E366F00EC80F02A
:102848001200000E8A6F000E8B6F640E8C6F2F0EB5
:102858008D6F000E8E6F7E0E886F0D0E896F8A0E3B
:10286800586F0D0E596F7CCD5AFD7DCD5BFD880EDE
:102878005C6F0D0E5D6FA5EC88F012000601126FFB
:10288800060112510F0B0D6F0E6B120E0D25D96E2E
:102898000A0E0E21DA6EDF500F6F12390F0B0F0B75
:1028A800106F116B220E1025D96E0A0E1121DA6EE7
:1028B800DF500F1112000601126F060112510F0BA3
:1028C8000D6F0E6B320E0D25D96E0A0E0E21DA6EC3
:1028D800DF500F6F12390F0B0F0B106F116B420E79
:1028E8001025D96E0A0E1121DA6EDF500F11120071
:1028F80020EE01F04251D9264351DA22DF50446FCD
:102908004451476F486B42CDD9F443CDDAF4DF50D8
:10291800446F4751456F4451476F45CD48FD47CDFA
:1029280042FD48CD43FD1200476F0D0147510F0B83
:10293800426F436B120E4225D96E0A0E4321DA6E9E
:10294800DF50446F47390F0B0F0B456F466B220E54
:102958004525D96E0A0E4621DA6EDF504411120061
:10296800476F0D0147510F0B426F436B320E4225E3
:10297800D96E0A0E4321DA6EDF50446F47390F0BC8
:102988000F0B456F466B420E4525D96E0A0E462140
:10299800DA6EDF504411120020EE01F00D51D926F5
:1029A8000E51DA22DF500F6F0F51126F136B0DC6E5
:1029B800D9F40EC6DAF4DF500F6F1251106F0F51B1
:1029C800126F10C613F612C60DF613C60EF61200D5
:1029D80042CD46FD43CD47FD04D0464B472B444BE3
:1029E800452B44CDF6F445CDF7F4000EF86E46CDF0
:1029F800D9F447CDDAF40800F5C4DFF4DF50D8B4D1
:102A08001200EBD70D016A6F60C56BFD61C56CFDE7
:102A18006BCD65FD6CCD66FDFBEC16F06D6F6A51F4
:102A28006D19D8A407D06807D8A06907685169113B
:102A3800D8A4EED76D5112000D510E11D8B40CD098
:102A4800000E0201056F000E036FBE88BE84400EA3
:102A5800C96E000EC76E12007F0EC96EC768C868BF
:102A6800010E0201056F020E036F12000801446F88
:102A780060C545F861C546F845C818F646C819F650
:102A88000EEC17F0476F44514719D8A407D04207F6
:102A9800D8A0430742514311D8A4EED7475112009A
:102AA8007CCD7EFD7DCD7FFD7CCD78FD7DCD79FD16
:102AB800000E0D017B6F000E7A6FFBEC11F00D011B
:102AC80020EE05F07E51D9267F51DA22DF50C86EFC
:102AD800120046CD48FD47CD49FD46CD42FD47CDC4
:102AE80043FD000E0D01456F000E446FEDEC17F02D
:102AF8000D0120EE05F04851D9264951DA22DF5060
:102B0800C86E120011C613F612C614F611C60DF6D9
:102B180012C60EF6000E0601106F000E0F6FF5ECD0
:102B280017F0060120EE05F01351D9261451DA22C8
:102B3800DF50C86E120007D00DC6D9F40EC6DAF4FD
:102B4800DE2A000EDD220DC6D9F40EC6DAF4DEC484
:102B58000FF6DDC410F60FC6D9F410C6DAF4200E4D
:102B6800DE18D8A41200E8D759C95BF95AC95CF92C
:102B780059C955F95AC956F9000E0901586F000E7E
:102B8800576FE0EC10F0090120EE05F05B51D926F3
:102B98005C51DA22DF50C86E1200425105017F5D98
:102BA8008051800A0801446F4351800A4459D8B0C3
:102BB8001200740E09016C6FEC0E6D6F42C86EF94D
:102BC80043C86FF907EC14F012009BCD90FD9CCD23
:102BD80091FD9E0E926F0D0E936F58ECFCF09D6F59
:102BE8009D51D8A412009BCDD9F49CCDDAF4000EE7
:102BF800DE6E000EDD6E12000DC612F60EC613F65E
:102C080012C6D9F413C6DAF4DF500F6F20EE01F0C4
:102C18001251D9261351DA22DF50106F0F510D6F60
:102C280010C60EF6120042CD48FD43CD49FD08D02E
:102C380048CDD9F449CDDAF444CDDFF4484B492BDB
:102C48004607D8A047074629F3E14729D8B4120018
:102C5800EFD70601126F010E0601116F7B0E12618C
:102C680003D0610E126107D0125164EC17F0D8B08E
:102C780002D0000E116F11C610F61031120060C597
:102C88005DF961C55EF95DC959F95EC95AF9B8ECD3
:102C980015F05DC941F85EC942F8000E0801446F9D
:102CA800010E436FC6EC06F012000DC613F60EC6F1
:102CB80014F608D013C6D9F414C6DAF40FC6DFF434
:102CC800134B142B1107D8A012071129F3E112296D
:102CD800D8B41200EFD706010F6F010E06010E6F70
:102CE800200E0F19D8B408D00E0E0F6103D0090EAC
:102CF8000F6102D0000E0E6F0EC60DF60D311200D8
:102D08000DC611F60EC612F611C6D9F412C6DAF4BB
:102D18000FC6DFF4114B122B11C6D9F412C6DAF420
:102D280010C6DFF4114B122B120042CDD9F443CD5B
:102D3800DAF444CDDFF4424B432B45CD44FD456BDB
:102D480042CDD9F443CDDAF444CDDFF4424B432BE2
:102D5800120006010D510F03F3C411F6F4C412F664
:102D68000D511003F35012270E510F03F350122781
:102D780011C60DF612C60EF612000DC6D9F40EC60F
:102D8800DAF40FC6DFF40D4B0E2B10C60FF6106BDE
:102D98000DC6D9F40EC6DAF40FC6DFF40D4B0E2BB0
:102DA80012000D01676965CD56FD66CD57FD670EAA
:102DB800586F0D0E596F000E5B6F010E5A6FF5ECD0
:102DC80004F00D016751120042514403F3C446FD5B
:102DD800F4C447FD42514503F35047274351440388
:102DE800F350472746CD42FD47CD43FD12000D0164
:102DF800676965CD56FD66CD57FD670E586F0D0E98
:102E0800596F000E5B6F010E5A6F6BEC03F00D01EA
:102E1800675112000801416918C632F819C633F81B
:102E2800410E346F080E356F000E376F010E366F86
:102E38001BEC03F0080141511200D251D311D8B450
:102E480007D081C5A2F982C5A3F97AEC02F0120075
:102E580081C5A2F982C5A3F929EC02F01200060186
:102E68000F6F000E06010E6F3A0E0F6105D02F0E80
:102E78000F6502D0010E0E6F0EC60DF60D31120051
:102E8800446F000E0D01436F3A0E446105D02F0EBA
:102E9800446502D0010E436F43CD42FD423112001A
:102EA80096C54AF897C54BF8000E08014D6F040EF9
:102EB8004C6F000E4F6F000E4E6FBAEC03F012000D
:102EC8000F6F000E06010E6F5B0E0F6105D0400EEE
:102ED8000F6502D0010E0E6F0EC60DF60D311200F1
:102EE800ACC90FF6ADC910F60DC6ACF90EC6ADF9F2
:102EF8000FC60DF610C60EF6120071C50FF672C594
:102F080010F60DC671F50EC672F50FC60DF610C691
:102F18000EF612000D0120EE02F04251D92643515F
:102F2800DA22DEC442FDDDC443FD1200060120EEB4
:102F380002F00D51D9260E51DA22DEC40DF6DDC499
:102F48000EF6120006010D6F7B0E06010D6104D00E
:102F5800600E0D6501D00D9B0D511200D7AE02D049
:102F6800FDEF17F00D01426FB7A2FED742CDC9F2AF
:102F780012000D007FFFFF00C9EAC6EAFF0029EA38
:072F880026EA01004507FFE6
:102F9000000E0D01426F000E436F210E446F000EB4
:102FA000456F1200000E06010D6F000E0E6F210E10
:102FB0000F6F000E106F120081C59EF982C59FF938
:102FC00046EC12F054EC17F012007C0E05016E6F07
:102FD000160E6F6F000E706F120044514511D8A489
:102FE00002D0C2841200C29412000F511011D8A452
:102FF00002D0C2841200C294120006010D6FB7A263
:10300000FED70DC6C9F21200FF00000E0C016B6F57
:10301000000E6A6F120004012095C284CA94120047
:1030200004012095C284CA941200000E6B6F010E39
:103030006A6F120005019851120037072907FFFF38
:06304000FFFF01CF1200AA
:10E3F60000ADF856070068F657070047F6580700BD
:10E40600A6F559070078F65A0701C6F64E07009397
:10E41600F54F070046F5500700F1F451070052F793
:10E42600520700F0F5530700B9F554070031F555CA
:10E436000700010000000800000040000000000284
:10E446000000001000000080000000000400000032
:10E45600200000000001000000080000004001004C
:10E4660000000A00000064000000E8030000102716
:10E476000000A086010040420F008096980000E14F
:10E48600F50500CA9A3B01000000100000000001DB
:10E496000000001000000000010000001000000055
:10E4A600000100000010819FE0FC407E80FC00001F
:10E4B6003800960010000000E6FF0201EAF70002AD
:10E4C60064FB000332FD0004AEFE0005A8FE010653
:10E4D600E4F8000798FF000847F90009D3F9000A95
:10E4E60051F9000B2BFD000CCCFE000DC6FE010EF3
:10E4F60041FA000F9DFF01106CFC021102F8001298
:10E50600ABF90013B0FD0014F0FE0015EAFE01168B
:10E51600EFF80017D2FF01186EFF0019F1F9001A83
:10E526005BF9001BA9FD001C0EFF001D08FF011E64
:10E536004BFA001FD6FF0120F8FA02211AF8022230
:10E5460036F7002335FE00242CFF002526FF012682
:10E55600FAF80027CEFF012864FC00292DFA022ACA
:10E56600D4F6002B2EFE002C4AFF002D44FF012E70
:10E5760055FA002FE2FF0130EFFA023132F802328B
:10E5860079F7003351FE0034B0FA0035A7FA0136A8
:10E59600F0F60037DEFF01385CFC003937FA023A44
:10E5A6006CF7003B4AFE003C90FE003D8AFE013EB1
:10E5B600D9F8003FDAFF0040D0FC004101FD0042DF
:10E5C6004EFD00437FFD0044D3FD004504FE00469A
:10E5D6006FF900479FFC0048D7FC004908FD004A38
:10E5E60055FD004B86FD004CDAFD004D0BFE004E3E
:10E5F60079F9004FA6FC0050DEFC00510FFD0052D9
:10E606005CFD00538DFD0054E1FD005512FE0056E1
:10E6160083F90057ADFC0058E5FC005916FD005A79
:10E6260063FD005B94FD005CE8FD005D19FE005E85
:10E636008DF9005FB4FC0060ECFC00611DFD00621A
:10E646006AFD00639BFD0064EFFD006520FE006629
:10E6560097F90067BBFC0068F3FC006924FD006ABB
:10E6660071FD006BA2FD006CF6FD006D27FE006ECD
:10E67600A1F9006FC2FC0070BFF90071C9F9007200
:10E68600DDF90073E7F90074FBF9007523FA0076EB
:10E69600C0FF0077B5F90078C9FC0079FAFC007A6A
:10E6A60047FD007B78FD007CCCFD007DFDFD007EF6
:10E6B60065F9007F98FC00807CFB008194FB00825A
:10E6C600B4FB0083CCFB0084F4FB00854CFC008685
:10E6D600CEF800875CFB008874FB00898CFB008AFF
:10E6E600ACFB008BC4FB008CECFB008D44FC008E65
:10E6F600C3F8008F54FB0090A2FE0091C0FE00926A
:10E70600E4FE009302FF009420FF00953EFF009672
:10E716009EFA009784FE00986CFB009984FB009A91
:10E72600A4FB009BBCFB009CE4FB009D3CFC009E04
:10E73600B8F8009F4CFB00A0B4FE00A1D2FE00A2D8
:10E74600F6FE00A314FF00A432FF00A550FF00A6AA
:10E75600B9FA00A796FE00A8BAFE00A9D8FE00AA3C
:10E76600FCFE00AB1AFF00AC38FF00AD56FF00AE52
:10E77600C2FA00AF9CFE00B0BBFE00B1D9FE00B2EB
:10E78600FDFE00B31BFF00B439FF00B557FF00B60E
:10E79600C3FA00B79DFE00B8A2FF00B9A7FF00BAF2
:10E7A600ACFF00BBB1FF00BCB6FF00BDBBFF00BEA7
:10E7B6003CFB00BF93FF00C058FE00C139FD02C2FA
:10E7C6003EF802C3D4FA02C428F700C59CFB01C672
:10E7D600DEF700C7FCFB00C868FF00C9EAFF02CAF3
:10E7E60031F900CB000002CCADF702CD05F901CE20
:10E7F600D2F700CF1CFC00D040FD00D1B7FD02D2FD
:10E80600F6F701D3E2F602D4FEF600D5D4FB01D624
:10E8160005FA00D704FC00D8DEFE00D9EEFF02DAC6
:10E8260010F901DB5FF702DCA0F700DD000001DE76
:10E83600C6F700DF24FC00E043FE00E13CFE02E2F6
:10E8460026F800E33CF902E41AF700E554FC01E679
:10E856000FFA00E70CFC00E8BEFD00E944FB02EA03
:10E866000EF800EBDDFA02EC0CF700ED000001EE0D
:10E8760019FA00EF2CFC00F062FF00F1C5FD02F270
:10E8860026F900F3F9FF02F493F700F5DCFB01F635
:10E896001AFA00F714FC00F85CFF00F9E6FA02FA2F
:10E8A6001BF900FBFCFF02FC86F700FD000001FEE1
:10E8B600CBFA00FF34FCF0000000C3BB00000000F0
:10E8C6000000000000000000000000000000000042
:10E8D6000000000000000000000000000000000032
:10E8E6000000000000000000000000000000000022
:10E8F6000000000000000000000000000000000012
:10E906000000000000000000000000000000000001
:10E9160000000000000000000000000000000000F1
:10E9260000000000000000000000000000000000E1
:10E9360000000000000000000000424F4F543A2043
:10E946006572726F7220626F6F74696E670D0A006E
:10E9560043502F4D20626F6F742D6C6F616465722A
:10E9660020666F72205A38302D53696D756C61744C
:10E976006F720D0A002196007ED30123B7C2BE0036
:10E98600010100210000AFD30A78D30B79D30C7DA7
:10E99600D30F7CD310AFD30DDB0EB7CA0000C63041
:10E9A600D3013E0DD3013E0AD3012180007EB7CAB2
:10E9B600FE00D30123C3F300F3760000000000003D
:10E9C6000000000000000000000000000000000041
:10E9D6000000000000000000000000000000000031
:10E9E6000000000000000000000000000000000021
:10E9F6000000000000000000000000000000000011
:10EA06000000000000000000000000000000000000
:10EA160000000000000000000000000000000000F0
:10EA2600D3AB00ED739400319400F5C5D5E5DDE573
:10EA3600FDE5D3ACFDE1DDE1E1D1C1F1ED7B940073
:10EA4600ED4500000000000000000000000000008E
:10EA56008DF60142CA01000088F6000A1A0000007D
:10EA660083FA002A30000000BAF70262A80100000B
:10EA7600F6FF0262A80100007AFA04927001000013
:10EA86008EFF02CAB00100007EFE000830000000C2
:10EA96008AFC02BCBB01000080FE02DA54010100C0
:10EAA60084FF01661700000091FC00A89E0100008B
:10EAB60089FF00BE1B0000000000000000000000EF
:10EAC600D3AD00ED733600313600F5C5D5E5DDE58D
:10EAD600FDE5D3AEFDE1DDE1E1D1C1F1ED7B36002F
:10EAE600ED4D0000000000000000000000000000E6
:10EAF6004449534B3A204F503D2530327820442F1D
:10EB0600542F533D25642F2533642F25336420204D
:10EB160020202020202020202020414444523D2532
:10EB260030327825303278202852454144204947F2
:10EB36004E4F524544290A0D004449534B3A204F43
:10EB4600503D2530327820442F542F533D25642FD5
:10EB56002533642F25336420782533643D25356CB1
:10EB66006420414444523D253032782530327820A5
:10EB76002E2E2E2053543D253032780A0D0044495E
:10EB8600534B3A204F503D2530327820442F542F96
:10EB9600533D25642F2533642F2533642020202000
:10EBA6002020202020202020414444523D25303280
:10EBB6007825303278202849474E4F524544290A55
:10EBC6000D004449534B3A204F503D2530327820B2
:10EBD600442F542F533D25642F2533642F2533644A
:10EBE6002020202020202020202020204144445284
:10EBF6003D2530327825303278202E2E2E200A0DF3
:10EC060000534420436172643A2072656164353171
:10EC1600323A20435243206572726F7220282530A3
:10EC2600347820213D20253034782C20726574728A
:10EC3600793D2564290A0D005741524E494E473AFF
:10EC4600206E6F204750494F20657870616E64656D
:10EC56007220746F20636F6E74726F6C20686967C0
:10EC660068657220616464726573730A0D005741AA
:10EC7600524E494E473A20746F6F206D616E79206F
:10EC860062616E6B73207265717565737465642E4F
:10EC9600202872657175657374206973202564294F
:10ECA6000A0D0074797065202768656C70272074DA
:10ECB6006F2073656520746865206C697374206FB6
:10ECC6006620617661696C61626C6520636F6D6D4B
:10ECD600616E64730A0D00496D6167652066696C33
:10ECE600652025732F445249564525632E44534BC0
:10ECF6002069732061737369676E656420746F2081
:10ED060064726976652025630A0D005741524E49A3
:10ED16004E473A20756E6B6E6F776E20492F4F20E7
:10ED260077726974652025642C2025642028253097
:10ED36003258482C202530325848290A0D0064697B
:10ED4600736B5F696F63746C3A20706472763D25ED
:10ED5600642C20636D643D25642C20627566663DD7
:10ED66003078256C783A207265733D25640A0D006B
:10ED7600534420436172643A2020726561643531E0
:10ED8600323A20616464723D25386C642C206F66CB
:10ED960066733D25642C20636F756E743D25640A89
:10EDA6000D00534420436172643A2077726974659A
:10EDB6003531323A20616464723D25386C642C200A
:10EDC6006F6666733D25642C20636F756E743D25F2
:10EDD600640A0D00534420436172643A20777269D5
:10EDE60074653531323A206661696C656420746FEA
:10EDF6002067657420746F6B656E2C2074696D6571
:10EE06006F75740A0D004449534B3A2020726561B0
:10EE16006420442F542F533D25642F2533642F251A
:10EE2600336420782533643D25356C643A20455299
:10EE3600524F520A0D00534420436172643A2077C0
:10EE4600726974653531323A2074696D656F75740F
:10EE56002C20726573706F6E736520697320253080
:10EE660032780A0D00534420436172643A20434DC0
:10EE76004435382C2052333D253032782025303227
:10EE860078202530327820253032782025303278A7
:10EE96000A0D00534420436172643A20434D4438BE
:10EEA6002C2052373D2530327820253032782025E7
:10EEB600303278202530327820253032780A0D001D
:10EEC6004449534B3A20207265616420442F542FE5
:10EED600533D25642F2533642F253364207825334D
:10EEE600643D25356C643A204F4B0A0D0064697306
:10EEF6006B5F696F63746C3A20706472763D25644B
:10EF06002C20636D643D25643A204E6F7420686141
:10EF16006E646C65642E0A0D006469736B5F7265BE
:10EF260061643A2020706472763D25642C207365F6
:10EF360063746F723D256C642C20636F756E743D2F
:10EF460025640A0D006469736B5F77726974653AAC
:10EF560020706472763D25642C20736563746F722D
:10EF66003D256C642C20636F756E743D25640A0D17
:10EF760000534420436172643A204343532028439C
:10EF860061726420436170616369747920537461AE
:10EF96007475732920697320300A0D005344204389
:10EFA6006172643A2077726974653531323A20436A
:10EFB6005243206572726F72202872657472793DB1
:10EFC6002564290A0D00534420436172643A2043A4
:10EFD60061726420706F776572207570207374613A
:10EFE6007475732062697320697320300A0D00728C
:10EFF600656164204D425220706172746974696F54
:10F006006E207461626C6520617420736563746F31
:10F016007220300A0D005741524E494E473A20752C
:10F026006E6B6E6F776E20492F4F2072656164207C
:10F03600256420282530325848290A0D00534420DB
:10F04600436172643A2020726561643531323A2038
:10F05600736563746F723D256C643A204552524F56
:10F06600520A0D00534420436172643A20534448C7
:10F0760043206F72205344584320636172642064B6
:10F08600657465637465640A0D00534420436172B8
:10F09600643A20696E697469616C697A65202E2EFE
:10F0A6002E207375636365656465640A0D005344B9
:10F0B60020436172643A20756E6578706563746585
:10F0C6006420726573706F6E736520253032780A1E
:10F0D6000D00534420436172643A202072656164D6
:10F0E6003531323A20736563746F723D256C643A2C
:10F0F600204F4B0A0D0053757065724D455A3830D6
:10F106002B5350492077697468204750494F206532
:10F116007870616E6465720A0D0053442043617213
:10F12600643A2041434D44343120726573706F6EEA
:10F13600736520697320253032780A0D0053442008
:10F14600436172643A2077726974653531323A20C8
:10F15600746F6B656E20697320253032780A0D0056
:10F166004552524F523A2062616E6B2025642069E7
:10F1760073206E6F7420617661696C61626C652EB6
:10F186000A0D00534420436172643A20434D4435CE
:10F196003920726573706F6E736520697320253030
:10F1A60032780A0D004D656D6F727920303030303F
:10F1B6003030202D202530366C5848202564204BD1
:10F1C60042204F4B0D0A00706172746974696F6E4C
:10F1D6002073746172747320617420736563746F35
:10F1E6007220256C640A0D00665F77726974652863
:10F1F600293A204552524F52207265733D25642CA0
:10F20600206E3D25640A0D00665F726561642829DB
:10F216003A204552524F52207265733D25642C2088
:10F226006E3D25640A0D006661696C656420746F25
:10F2360020777269746520736563746F7220256C1C
:10F24600640A0D006661696C656420746F207265DE
:10F25600616420736563746F7220256C640A0D0007
:10F266000A0D534420436172643A20696E697469D9
:10F27600616C697A65202E2E2E0A0D00436C65613D
:10F286007220627265616B706F696E7420617420A2
:10F296002530346C580A0D00534420436172643A99
:10F2A6002041434D4434312C2052313D25303278B3
:10F2B6000A0D000A0D526573657420627920494F64
:10F2C60020706F72742025303258480A0D0046614E
:10F2D600696C656420746F206F70656E20534420DE
:10F2E600436172642E2E0A0D004661696C656420C6
:10F2F600746F206D6F756E74205344204361726481
:10F306002E0A0D006661696C656420746F20726553
:10F31600616420736563746F7220300A0D000A0DF4
:10F3260048414C5420627920494F20706F727420F6
:10F3360025303258480A0D005365742062726561A3
:10F346006B706F696E74206174202530346C580AB6
:10F356000D000A4D656D6F7279206572726F7220AD
:10F366006174202530366C58480A0D006469736B49
:10F376005F696E697469616C697A65282564292EEE
:10F386002E2E0A0D00534420436172643A206E6F9C
:10F3960074207375706F70727465640A0D0053443F
:10F3A60020436172643A20434D44302C2052313D53
:10F3B600253032780A0D00496E76616C69642061E9
:10F3C6007267756D656E743A20272573270A0D00DE
:10F3D6005354415455533A202563256325632563C9
:10F3E6002563256325632563002020202020202017
:10F3F6002020202020202020202020202020202007
:10F406000D007761697420666F722070726F677283
:10F41600616D6D6572202E2E2E0D002573253533F8
:10F426007320434845434B53554D3A202530327897
:10F436000A0D00556E6B6E6F776E2076617269618C
:10F44600626C6520272573270A0D00427265616B81
:10F45600706F696E74206973206E6F7420736574A3
:10F466000A0D004D656D6F727920303030303030C6
:10F47600202D202530366C58480D00706879736948
:10F4860063616C2064726976657220213D20300AC2
:10F496000D00416D626967756F757320636F6D6DE1
:10F4A600616E642025730A0D00665F6C7365656B7B
:10F4B60028293A204552524F522025640A0D00420F
:10F4C6007265616B706F696E7420697320253034C4
:10F4D6006C580A0D00556E6B6E6F776E20636F6DFC
:10F4E6006D616E643A2025730A0D00646562756766
:10F4F6005F6661746469736B5F766572626F73656C
:10F50600006E6F2046415433322070617274697404
:10F51600696F6E0A0D00665F73796E6328293A205B
:10F526004552524F522025640A0D00646562756784
:10F536005F7364636172645F766572626F736500A0
:10F5460064656275675F6661746469736B5F777221
:10F55600697465006E6F204D4252207369676E6153
:10F56600747572650A0D00534420436172643A2033
:10F5760074696D656F75740A0D00696E76616C69E4
:10F58600642064726976652025640A0D00646562EC
:10F5960075675F6661746469736B5F726561640049
:10F5A60064656275675F6469736B5F766572626FC7
:10F5B60073650064656275675F7364636172645F37
:10F5C6007772697465006E6F2076616C6964207667
:10F5D6006F6C756D650A0D00534420436172643A81
:10F5E6002072656164792E0A0D0064656275675F35
:10F5F6007364636172645F72656164002573206978
:10F60600732073656C65637465642E0A0D00303172
:10F616003233343536373839414243444546003073
:10F6260031323334353637383961626364656600A2
:10F636004D4D553A2062616E6B20253032582020A0
:10F646000064656275675F6469736B5F777269747E
:10F656006500427265616B20617420253034580A5A
:10F666000D0064656275675F6469736B5F726561DF
:10F67600640064656275675F6469736B5F6D61736F
:10F686006B00636C656172627265616B706F696E47
:10F6960074004E6F20626F6F74206469736B2E0A5C
:10F6A6000D002A2B2C3A3B3C3D3E5B5D7C223F7F86
:10F6B6000025732F445249564525632E44534B006B
:10F6C60064656275675F6661746469736B004C4458
:10F6D60020484C2C28253034584829004F555420B2
:10F6E600282530325848292C41004C442028484CC3
:10F6F600292C25303258480043414C4C204E432C8F
:10F7060025303458480043414C4C2050452C253078
:10F716003458480043414C4C20504F2C2530345827
:10F72600480043414C4C204E5A2C25303458480052
:10F736004C4420282530345848292C484C004E6F1C
:10F7460020534420436172643F0A0D00646562756C
:10F75600675F73646361726400494E20412C2825FB
:10F766003032584829004C4420412C282530345842
:10F776004829004C4420282530345848292C41007B
:10F7860043414C4C204D2C25303458480043414CC5
:10F796004C20502C25303458480043414C4C2058BE
:10F7A6002C25303458480043414C4C205A2C2530E7
:10F7B60034584800646973617373656D626C6500E3
:10F7C60053424320412C25303258480041444320BF
:10F7D600412C25303258480041444420412C2530E4
:10F7E600325848004C442042432C253034584800B7
:10F7F6004A50204E432C2530345848004C4420446F
:10F80600452C2530345848004A502050452C253088
:10F81600345848004C4420484C2C25303458480075
:10F826004A5020504F2C2530345848004C44205321
:10F83600502C2530345848004A50204E5A2C25303A
:10F846003458480070726F6772616D3A0A0D00494C
:10F85600593A20253034580A0D0042433A202530C3
:10F86600345820200050433A2025303458202000B8
:10F8760044453A202530345820200041463A202578
:10F88600303458202000484C3A2025303458202067
:10F896000053503A202530345820200049583A2049
:10F8A6002530345820200064656275675F6469738B
:10F8B6006B0053424320412C28484C2900414443C5
:10F8C60020412C28484C290041444420412C2848FA
:10F8D6004C29004C4420412C2530325848004C44D9
:10F8E60020422C2530325848004C4420442C2530E8
:10F8F600325848004C4420482C25303258480043A2
:10F90600414C4C202530345848004A5020432C2581
:10F9160030345848004A50204D2C25303458480081
:10F926004A5020502C2530345848004A50205A2C32
:10F93600253034584800455820285350292C484C27
:10F946000045582041462C414627004C4420412C76
:10F9560028424329004C4420412C28444529004C88
:10F966004420412C28484C29004C4420422C28484D
:10F976004C29004C4420432C28484C29004C442058
:10F98600442C28484C29004C4420452C28484C2916
:10F99600004C4420482C28484C29004C44204C2C30
:10F9A60028484C29004C4420284445292C41004C29
:10F9B600442028484C292C41004C442028484C29F6
:10F9C6002C42004C442028484C292C4300414444F6
:10F9D60020484C2C4243004C442028484C292C44B7
:10F9E600004C442028484C292C45004144442048DA
:10F9F6004C2C4445004C442028484C292C480053A4
:10FA0600554220253032584800414E442025303298
:10FA1600584800584F52202530325848004C442050
:10FA260028484C292C4C0041444420484C2C484C36
:10FA36000041444420484C2C5350004C4420432C55
:10FA460025303258004C4420452C25303258004C85
:10FA560044204C2C253032580025732530366C78DE
:10FA66003A00464154333220202000737461636BA0
:10FA76003A0A0D006469736B7265616400636F6EA8
:10FA860074696E7565002077726974653A20007630
:10FA960065726966793A20005355422028484C29F8
:10FAA600004445432028484C2900494E4320284815
:10FAB6004C2900414E442028484C2900584F5220DA
:10FAC60028484C29004350202530325848004A50D7
:10FAD6002025303458480045582044452C484C00D1
:10FAE6004C442053502C484C004A52204E432C255F
:10FAF60064004A52204E5A2C25640025643A20257B
:10FB0600730A0D0053656C6563743A200043504DCB
:10FB16004449534B53002573253034783A002573F6
:10FB26003D25640A0D004572726F720A0D000D259F
:10FB36007325730A0D0043502028484C29004A506B
:10FB46002028484C290053424320412C410041447F
:10FB56004320412C410041444420412C41004C4467
:10FB66002042432C410053424320412C4200414451
:10FB76004320412C420041444420412C4200534240
:10FB86004320412C430041444320412C430041443F
:10FB96004420412C430050555348204243005342D1
:10FBA6004320412C440041444320412C440041441D
:10FBB6004420412C440053424320412C45004144FB
:10FBC6004320412C450041444420412C45005055DA
:10FBD600534820444500505553482041460053425F
:10FBE6004320412C480041444320412C48004144D5
:10FBF6004420412C48005253542030304800525380
:10FC06005420313048005253542032304800525369
:10FC16005420333048005253542030384800525351
:10FC26005420313848005253542032384800525339
:10FC360054203338480053424320412C4C00414461
:10FC46004320412C4C0041444420412C4C0050554B
:10FC5600534820484C004A5220432C2564004A52FF
:10FC6600205A2C256400444A4E5A2C2564004350E1
:10FC76004D4449537E00286E756C6C29003C256402
:10FC86003E0A0D0073647265616400737461747575
:10FC960073004C4420412C41004C4420422C41002E
:10FCA6004C4420432C41004C4420442C41004C44FD
:10FCB60020452C41004C4420482C41004C44204C0B
:10FCC6002C41004C4420412C42004C4420422C4202
:10FCD600004C4420432C42004C4420442C42004C0F
:10FCE6004420452C42004C4420482C42004C4420E1
:10FCF6004C2C42004C4420412C43004C4420422CC6
:10FD060043004C4420432C43004C4420442C4300E5
:10FD16004C4420452C43004C4420482C43004C4482
:10FD2600204C2C430044454320424300494E432087
:10FD3600424300504F5020424300524554204E4308
:10FD4600004C4420412C44004C4420422C44004C9E
:10FD56004420432C44004C4420442C44004C442072
:10FD6600452C44004C4420482C44004C44204C2C48
:10FD760044004C4420412C45004C4420422C450074
:10FD86004C4420432C45004C4420442C45004C4414
:10FD960020452C45004C4420482C45004C44204C22
:10FDA6002C450044454320444500494E43204445E4
:10FDB60000504F50204445005245542050450050B5
:10FDC6004F50204146004C4420412C48004C4420D2
:10FDD600422C48004C4420432C48004C4420442CE0
:10FDE60048004C4420452C48004C4420482C4800F0
:10FDF6004C44204C2C48004C4420412C4C004C4494
:10FE060020422C4C004C4420432C4C004C442044B3
:10FE16002C4C004C4420452C4C004C4420482C4C87
:10FE2600004C44204C2C4C0044454320484C00498F
:10FE36004E4320484C00504F5020484C00524554E9
:10FE460020504F0044454320535000494E43205311
:10FE56005000524554204E5A002530366C5820002A
:10FE66002025303278006661743A20006275663A61
:10FE760020000D2573200D007265736574005355BF
:10FE860042204100444543204100494E4320410061
:10FE9600414E44204100584F5220410053554220C4
:10FEA6004200444543204200494E43204200414E11
:10FEB60044204200584F52204200535542204300EE
:10FEC600444543204300494E43204300414E4420CD
:10FED6004300584F52204300524554204300535587
:10FEE60042204400444543204400494E43204400F8
:10FEF600414E44204400584F52204400535542205E
:10FF06004500444543204500494E43204500414EA7
:10FF160044204500584F5220450053554220480082
:10FF2600444543204800494E43204800414E442062
:10FF36004800584F52204800535542204C00444533
:10FF460043204C00494E43204C00414E44204C0077
:10FF5600584F52204C00524554204D0052455420D3
:10FF66005000524554205A004A522025640025303C
:10FF76003258200053443A20004D4F4E3E007374D1
:10FF860065700068656C700064756D700043502084
:10FF96004100524C434100525243410043502042DB
:10FFA6000043502043004350204400435020450066
:10FFB60043502048004350204C0048414C540030E8
:10FFC6003A2F2F000D25730044414100524C410049
:10FFD60052524100434346005343460043504C00AF
:10FFE6004E4F500052455400455858003F3F3F0081
:0AFFF6006469004449004549000019
:020000040001F9
:100000008EEF88F0250E6919D8B438D0080120EE9B
:1000100002F03151D9263251DA22DE50DE10DE10E4
:10002000D8B415D020EE02F03151D9263251DA225F
:1000300002D88EEF88F00500FA6EDE50FD6EDE50BD
:10004000FE6EDE50FF6EFA5009016951120031C890
:10005000D9F432C8DAF4DEC437F8DDC438F837C86A
:10006000D9F438C8DAF469C9DFF431C8D9F432C830
:10007000DAF4DE2A000EDD228EEF88F0000E686FC3
:10008000000E676F000E6B6F000E6A6F0ED00901D5
:100090006A8708D009016A8105D009016B8702D0FF
:1000A00009016A850801334B342B33C8F6F434C890
:1000B000F7F4000EF86E0800F550200AD8B4EAD71D
:1000C000030AD8B4EAD70E0AD8B4E1D71D0AD8B4C7
:1000D000E7D709016AB76A9533C8F6F434C8F7F46C
:1000E000000EF86E0800F55033EC17F0D8A03BD0A6
:1000F000000E0901686F000E676F67C90DF668C9C9
:100100000EF6000E0601106F0A0E0F6FADEC16F022
:100110000DC667F90EC668F933C8F6F434C8F7F4AB
:10012000000EF86E0800F5C437F8D00E0801372528
:10013000386F396BFF0E39233851090167270801E1
:100140003951090168230801334B342B33C8F6F4C5
:1001500034C8F7F4000EF86E0800F55033EC17F0D1
:10016000D8A023D0CAD733C8F6F434C8F7F4000EA9
:10017000F86E0800F5502A0AD8A417D035C8D9F46B
:1001800036C8DAF4DFC437F8020EDE26DFC438F8EA
:10019000000EDD2237C8D9F438C8DAF4DEC467F9B6
:1001A000DDC468F90801334B342B33C8F6F434C886
:1001B000F7F4000EF86E0800F5502E0AD8A46BD0A4
:1001C00009016B8D0801334B342B33C8F6F434C866
:1001D000F7F4000EF86E0800F5502A0AD8A420D0D3
:1001E00035C8D9F436C8DAF4DFC437F8020EDE2693
:1001F000DFC438F8000EDD2237C8D9F438C8DAF485
:10020000DEC465F9DDC466F9090166AF05D0000EEC
:10021000666F000E656F6B9D0801334B342BB4D1B4
:10022000000E0901666F000E656F28D065C90DF6D6
:1002300066C90EF6000E106F0A0E0F6FADEC16F0C9
:100240000DC665F90EC666F933C8F6F434C8F7F47E
:10025000000EF86E0800F5C437F8D00E08013725F7
:10026000386F396BFF0E39233851090165270801B2
:100270003951090166230801334B342B33C8F6F496
:1002800034C8F7F4000EF86E0800F55033EC17F0A0
:10029000D8A07AD1CBD7000E0901666F000E656F2A
:1002A00073D16A8971D16A8D9DD16A8B6A8F9AD117
:1002B00035C8D9F436C8DAF4DFC437F8020EDE26C2
:1002C000DFC438F8000EDD2237C8D9F438C8DAF4B4
:1002D000DEC45DF9DDC45EF95D515E11D8A404D0C1
:1002E0007C0E5D6FFC0E5E6F000E606F000E5F6F28
:1002F00003D009015F4B602B5F515D250801376F0B
:10030000090160515E210801386F37C8F6F438C81A
:10031000F7F4000EF86E250EF76403D00800F550D0
:1003200005D0F6C4E9F4F7C4EAF4EF500009D8A404
:10033000E0D7090165516611D8B411D05F51655DF0
:100340006651800A0801376F09016051800A08016F
:100350003759D8B004D065C95FF966C960F9090199
:1003600067515F5D68516059D8B005D05F51675FD4
:100370006051685B04D0000E686F000E676F6AA75B
:1003800035D099D0080120EE02F03151D9263251F2
:10039000DA22DE50DE10DE10D8B413D020EE02F0E8
:1003A0003151D9263251DA2201D820D00500FA6E17
:1003B000DE50FD6EDE50FE6EDE50FF6EFA50200EF7
:1003C000120031C8D9F432C8DAF4DEC437F8DDC41B
:1003D00038F837C8D9F438C8DAF4200EDF6E31C8DF
:1003E000D9F432C8DAF4DE2A000EDD2209016707EB
:1003F000D8A068076729C6E16829D8B45CD0C2D7FD
:10040000080120EE02F03151D9263251DA22DE50B5
:10041000DE10DE10D8B427D020EE02F03151D926FC
:100420003251DA2201D81BD00500FA6EDE50FD6E83
:10043000DE50FE6EDE50FF6EFA505DC9F6F45EC906
:10044000F7F4000EF86E250EF76403D00800F5509F
:1004500005D0F6C4E9F4F7C4EAF4EF50120009013C
:100460005D4B5E2B28D05DC9F6F45EC9F7F4000E33
:10047000F86E31C8D9F432C8DAF4DEC437F8DDC416
:1004800038F837C8D9F438C8DAF4250EF76403D041
:100490000800F55005D0F6C4E9F4F7C4EAF4EF50CB
:1004A000DF6E09015D4B5E2B31C8D9F432C8DAF436
:1004B000DE2A000EDD225F07D8A060075F29A0E1D9
:1004C0006029D8A49DD76AB736D08EEF88F008018E
:1004D00020EE02F03151D9263251DA22DE50DE1000
:1004E000DE10D8B413D020EE02F03151D9263251AB
:1004F000DA2201D820D00500FA6EDE50FD6EDE5003
:10050000FE6EDE50FF6EFA50200E120031C8D9F494
:1005100032C8DAF4DEC437F8DDC438F837C8D9F4A5
:1005200038C8DAF4200EDF6E31C8D9F432C8DAF4F4
:10053000DE2A000EDD2209016707D8A068076729B7
:10054000C6E16829D8B48EEF88F0C1D735C8D9F490
:1005500036C8DAF4DFC437F8020EDE26DFC438F816
:10056000000EDD2237C8D9F438C8DAF4DF50696FDD
:10057000690E5D6F090E5E6F000E606F010E5F6F9A
:10058000D8D6C00E6A132ED033C8F6F434C8F7F4A8
:100590000801334B342B000EF86E0800F5C469F9DE
:1005A00009016951000AD8B49FEF88F0580AD8B4FD
:1005B0007CD63B0AD8B4CAD7070AD8B413D00D0AE0
:1005C000D8B410D0050AD8B46CD6030AD8B46BD608
:1005D0001C0AD8B46DD6060AD8B4D3D70D0AD8B43D
:1005E00065D6C6D76AC937F8C00E08013717D8A430
:1005F00042D009016AA919D035C8D9F436C8DAF44D
:10060000DFC437F8040EDE26DFC438F8000EDD2222
:1006100037C8D9F438C8DAF4DEC461F9DEC462F947
:10062000DEC463F9DEC464F919D035C8D9F436C81C
:10063000DAF4DFC437F8020EDE26DFC438F8000E25
:10064000DD2237C8D9F438C8DAF4DEC461F9DDC474
:1006500062F9000E62BFFF0E636F646F64AF41D03A
:10066000030E6A13641F631F621F616D000E622315
:100670006323642336D009016AA919D035C8D9F497
:1006800036C8DAF4DFC437F8040EDE26DFC438F8E3
:10069000000EDD2237C8D9F438C8DAF4DEC461F9B7
:1006A000DEC462F9DEC463F9DEC464F91AD035C869
:1006B000D9F436C8DAF4DFC437F8020EDE26DFC418
:1006C00038F8000EDD2237C8D9F438C8DAF4DEC4B1
:1006D00039F8DDC43AF839C861F93AC862F9636B90
:1006E000646B65516611D8A46CD0615162116311BD
:1006F0006411D8A466D0654B662B63D0010E696F78
:100700000A0E6919D8B46BD06951040D640EF32434
:10071000F66EE40EF420F76EF86A000EF822090077
:10072000F550615D0900F55062590900F5506359B3
:100730000900F5506459D8A052D0692BE1D7010EB9
:10074000696F080E6919D8B44AD06951040D8C0E2E
:10075000F324F66EE40EF420F76EF86A000EF82229
:100760000900F550615D0900F55062590900F55026
:1007700063590900F5506459D8A031D0692BE1D7ED
:10078000010E696F0B0E6919D8B429D06951040D97
:10079000380EF324F66EE40EF420F76EF86A000EBD
:1007A000F8220900F550615D0900F5506259090011
:1007B000F55063590900F5506459D8A010D0692B41
:1007C000E1D76A51C00B000AD8B498D7400AD8B410
:1007D000D7D7C00AD8B4B3D7400AD8B48FD7695195
:1007E0000801376F386B090165510801375D3851D1
:1007F000800A396F09016651800A08013959D8B059
:1008000003D065C969F915D0090169510801376F2D
:10081000386B37510901655D6651800A0801396FEF
:100820003851800A3959D8B004D069C965F909012D
:10083000666B090167516811D8B40BD06AC937F8E3
:10084000030E08013717D8B404D009016707D8A0F0
:10085000680709016BAD18D06751655D6651800A64
:100860000801376F09016851800A08013759D8B06B
:1008700006D009016551675F6651685B05D0000EBF
:100880000901686F000E676FC40E6A150801376FA3
:10089000080E09016B150801386F400E37190DE17C
:1008A000080E3819D8A409D0090167516811D8B4C5
:1008B00027D06707D8A0680723D0C00E09016A15A2
:1008C0000801376F080E09016B150801386F800E9B
:1008D000371916E1080E3819D8A412D0090168BFDB
:1008E0000BD0685104E1030E675DD8A005D0FE0E61
:1008F0006727FF0E682304D0000E686F000E676F35
:10090000090169510801376F386B09016751080106
:10091000375D3851800A396F09016851800A080132
:100920003959D8B006D009016951675F000E685B7C
:1009300005D0000E0901686F000E676F6AA531D1FE
:100940006AC937F8030E08013717D8B42CD020EE47
:1009500002F03151D9263251DA22DE50DE10DE109B
:10096000D8B413D020EE02F03151D9263251DA2218
:1009700001D8D9D00500FA6EDE50FD6EDE50FE6E55
:10098000DE50FF6EFA502D0E120031C8D9F432C875
:10099000DAF4DEC437F8DDC438F837C8D9F438C81B
:1009A000DAF42D0E2FD009016AA12ED0080120EE15
:1009B00002F03151D9263251DA22DE50DE10DE103B
:1009C000D8B413D020EE02F03151D9263251DA22B8
:1009D00001D8A9D00500FA6EDE50FD6EDE50FE6E25
:1009E000DE50FF6EFA50200E120031C8D9F432C822
:1009F000DAF4DEC437F8DDC438F837C8D9F438C8BB
:100A0000DAF4200EDF6E88D0C00E6A150801376F49
:100A1000080E09016B150801386F800E371903E1C4
:100A2000080E3819D8A47FD020EE02F03151D92613
:100A30003251DA22DE50DE10DE10D8B413D020EEB0
:100A400002F03151D9263251DA2201D820D00500E6
:100A5000FA6EDE50FD6EDE50FE6EDE50FF6EFA5016
:100A6000300E120031C8D9F432C8DAF4DEC437F8D7
:100A7000DDC438F837C8D9F438C8DAF4300EDF6E80
:100A800031C8D9F432C8DAF4DE2A000EDD220801BA
:100A900020EE02F03151D9263251DA22DE50DE103A
:100AA000DE10D8B420D009016ABB04D0000E546F08
:100AB000780E03D0000E546F580E536F080120EECD
:100AC00002F03151D9263251DA2201D82CD005005A
:100AD000FA6EDE50FD6EDE50FE6EDE50FF6EFA5096
:100AE00009015351120009016ABB04D0000E566F70
:100AF000780E03D0000E566F580E556F31C8D9F4DA
:100B000032C8DAF4DEC437F8DDC438F837C8D9F4AF
:100B100038C8DAF455C9DFF431C8D9F432C8DAF488
:100B2000DE2A000EDD22090167516811D8B4A9D26E
:100B3000080120EE02F03151D9263251DA22DE507E
:100B4000DE10DE10D8B413D020EE02F03151D926D9
:100B50003251DA2201D820D00500FA6EDE50FD6E47
:100B6000DE50FE6EDE50FF6EFA50300E120031C8BD
:100B7000D9F432C8DAF4DEC437F8DDC438F837C83F
:100B8000D9F438C8DAF4300EDF6E31C8D9F432C87F
:100B9000DAF4DE2A000EDD2209016707D8A0680713
:100BA000C3D767516811D8A46AB73CD0080120EEBA
:100BB00002F03151D9263251DA22DE50DE10DE1039
:100BC000D8B413D020EE02F03151D9263251DA22B6
:100BD00001D820D00500FA6EDE50FD6EDE50FE6EAC
:100BE000DE50FF6EFA50200E120031C8D9F432C820
:100BF000DAF4DEC437F8DDC438F837C8D9F438C8B9
:100C0000DAF4200EDF6E31C8D9F432C8DAF4DE2A05
:100C1000000EDD2209016707D8A068076751681137
:100C2000D8A4C4D76AC937F8030E08013717D8B457
:100C30002CD020EE02F03151D9263251DA22DE508A
:100C4000DE10DE10D8B413D020EE02F03151D926D8
:100C50003251DA2201D850D00500FA6EDE50FD6E16
:100C6000DE50FE6EDE50FF6EFA502D0E120031C8BF
:100C7000D9F432C8DAF4DEC437F8DDC438F837C83E
:100C8000D9F438C8DAF42D0E2FD009016AA134D076
:100C9000080120EE02F03151D9263251DA22DE501D
:100CA000DE10DE10D8B413D020EE02F03151D92678
:100CB0003251DA2201D820D00500FA6EDE50FD6EE6
:100CC000DE50FE6EDE50FF6EFA50200E120031C86C
:100CD000D9F432C8DAF4DEC437F8DDC438F837C8DE
:100CE000D9F438C8DAF4200EDF6E31C8D9F432C82E
:100CF000DAF4DE2A000EDD22C00E09016A150801B1
:100D0000376F080E09016B150801386F400E37194F
:100D100031E1080E3819D8A42DD020EE02F031515F
:100D2000D9263251DA22DE50DE10DE10D8B413D0CC
:100D300020EE02F03151D9263251DA2201D8A1D168
:100D40000500FA6EDE50FD6EDE50FE6EDE50FF6E68
:100D5000FA50300E120031C8D9F432C8DAF4DEC4C9
:100D600037F8DDC438F837C8D9F438C8DAF4300EAB
:100D7000DF6E80D1C00E09016A150801376F080EB9
:100D800009016B150801386F800E371903E1080E51
:100D90003819D8A476D120EE02F03151D92632513B
:100DA000DA22DE50DE10DE10D8B413D020EE02F0CE
:100DB0003151D9263251DA2201D820D00500FA6EFD
:100DC000DE50FD6EDE50FE6EDE50FF6EFA50300ECD
:100DD000120031C8D9F432C8DAF4DEC437F8DDC401
:100DE00038F837C8D9F438C8DAF4300EDF6E31C8B5
:100DF000D9F432C8DAF4DE2A000EDD22080120EE32
:100E000002F03151D9263251DA22DE50DE10DE10E6
:100E1000D8B420D009016ABB04D0000E586F780EF8
:100E200003D0000E586F580E576F080120EE02F0E5
:100E30003151D9263251DA2201D823D10500FA6E78
:100E4000DE50FD6EDE50FE6EDE50FF6EFA50090180
:100E50005751120009016ABB04D0000E5A6F780E78
:100E600003D0000E5A6F580E596F31C8D9F432C8EA
:100E7000DAF4DEC437F8DDC438F837C8D9F438C836
